:020000022000DC
:10300000000001203D310200DD300200DF3002000F
:10301000E1300200E3300200E53002000000000071
:10302000000000000000000000000000E730020087
:10303000E930020000000000EB300200ED30020039
:103040005D950200F3300200E5BE0200F730020099
:103050007DAB0200FB300200E59F0200FF30020062
:103060000131020003310200053102000731020084
:10307000093102000B3102000D3102000F31020054
:1030800011310200C5CC02001531020017310200D7
:1030900005CD02001B310200810103001F31020037
:1030A00021310200233102002531020027310200C4
:1030B000293102002B310200EF300200EF30020014
:1030C0002D3102002F310200313102003331020074
:0C30D000353102003731020039310200B6
:1030DC00FEE7FEE7FEE7FEE7FEE7FEE7FEE7FEE7BC
:1030EC00FEE7FEE7FEE7FEE7FEE7FEE7FEE7FEE7AC
:1030FC00FEE7FEE7FEE7FEE7FEE7FEE7FEE7FEE79C
:10310C00FEE7FEE7FEE7FEE7FEE7FEE7FEE7FEE78B
:10311C00FEE7FEE7FEE7FEE7FEE7FEE7FEE7FEE77B
:10312C00FEE7FEE7FEE7FEE7FEE7FEE7FEE700BF91
:10313C000F484FF00701884385460E4880470E48DC
:10314C00016841F470010160BFF34F8FBFF36F8FC3
:10315C0000F01AB809480A490A4A884207D0521A9C
:10316C0005D0037801300B700131013AF9D1704769
:10317C00000001204988020088ED00E03C27030094
:10318C00682A0020EC2A00203A493B480A1A02D04F
:10319C00072291438D46394939480A1A06D007222D
:1031AC00914381F30988022282F314883548364909
:1031BC00364A00F041F836483649374A00F03CF8B8
:1031CC0036483749374A00F037F837483749384AD4
:1031DC0000F032F837483849384A00F02DF83848B2
:1031EC003849394A00F028F838483949394A00F04A
:1031FC0023F839483949002200F036F83848394963
:10320C00002200F031F838483849091A0FF0E1F87B
:10321C00374A904725482649884205D00268043031
:10322C0003B4904703BCF7E700208646EC46002029
:10323C000021304A9047FEE7884214D0521A12D02F
:10324C0003460B4313430324234206D10368043083
:10325C000B600431043AF9D17047037801300B70DC
:10326C000131013AF9D17047884202D00270013025
:10327C00FAE770470000012000F800200000012050
:10328C0000000120CC430300EC2A0020A42B0020DA
:10329C0004330200043302006A260300CC4303000B
:1032AC00EC2A0020EC2A0020C0270300C0270300D2
:1032BC00C0270300C0270300C0270300C02703005A
:1032CC00C0270300C0270300C94303008444030044
:1032DC00A42B0020A42B0020A42B0020D43F0020E2
:1032EC00D43F0020D43F0020D43F0020D441002004
:0832FC00613102008F3E020067
:1033040076DF704700BF18467ADF704700BF184663
:103314007CDF704700BF18467FDF704700BF184648
:103324008FDF704700BF184690DF704700BF184614
:10333400A8DF704700BF1846A9DF704700BF1846D2
:1033440066DF704700BF184632DF704700BF18467B
:103354003EDF704700BF184600B585B001900023DA
:10336400ADF80A3005E0BDF80A3001339BB2ADF880
:103374000A30BDF80A301A46019B13441B78002B0F
:10338400F1D10DF10A031A460199054805F052FFDF
:1033940003460393039B184605B05DF804FB00BF86
:1033A400A42B002000B583B001900BE0019B5A1CB4
:1033B40001921B78184609F0B9FE0346002B01D090
:1033C400002304E0019B1B78002BEFD10123184656
:1033D40003B05DF804FB000000B583B00346009120
:1033E400ADF80630BDF80630009A1946034808F0D7
:1033F4008BFD00BF03B05DF804FB00BFEFBEADDE84
:1034040000B587B09DF80030012262F303038DF804
:1034140000309DF80030012262F307138DF800306C
:103424006B4605221A491846FFF772FF0590059B63
:103434000493049B002B04D0164AA821049808F096
:1034440063FD01AB0822002118460FF065F8102334
:10345400ADF804303C23ADF806300023ADF8083055
:103464004FF4C873ADF80A3001AB1846FFF74CFFB0
:103474000590059B0393039B002B04D0054AB221BE
:10348400039808F041FD00BF07B05DF804FB00BFDE
:10349400C0270300C827030000B587B00190019B33
:1034A4001B78002B41D10023059328E0019B9A68E7
:1034B400059B13441B78184609F038FE0490049BBE
:1034C400002B16D0049B112B13D01A4B1B881B0402
:1034D40043F00103049A184918460BF0C3FD049BFA
:1034E4000393039B002B04D0144AD221039808F0C1
:1034F4000BFD049B112BD9D0059B01330593019B34
:103504009B891A46059B9342D0D3019B9A68019BE1
:103514009B89013B13441B780D2B06D100BF0A2065
:1035240009F004FE0346112BF9D000BF07B05DF883
:1035340004FB00BF682A00203C280300C8270300BE
:1035440000B585B001AB0422002118460EF0E4FF5B
:103554000A4B019301AB1946094805F013FE039089
:10356400039B0293029B002B04D0064AEC21029891
:1035740008F0CAFC00BF05B05DF804FB9D340200EE
:10358400A42B0020C827030000B585B00190019B3F
:103594001B78002B11D10B4B1B883B211846FFF7DE
:1035A400AFFE0390039B0293029B002B05D0064AB7
:1035B4004FF48171029808F0A7FC00BF05B05DF8D4
:1035C40004FB00BFEC2A0020C827030000B583B029
:1035D4000190054A40F20D11019808F095FC00BFD6
:1035E40003B05DF804FB00BFC827030000B58BB02F
:1035F40001AB1C22002118460EF08EFF002301931C
:103604004FF4203302934FF47023039303238DF874
:1036140010300023ADF8123000238DF814300C4B19
:1036240006930C4B079301AB184602F013FD099067
:10363400099B0893089B002B05D0074A4FF492710D
:10364400089808F061FC00BF0BB05DF804FB00BFF4
:103654008D350200D1350200C827030000B585B0BE
:10366400002003F067FD0390039B0293029B002B51
:1036740005D0134A40F22F11029808F045FC03F0DC
:1036840037FE0390039B0193019B002B05D00C4A4A
:1036940040F23311019808F037FCFFF755FE039010
:1036A400039B0093009B002B05D0054A40F2371181
:1036B400009808F029FC00BF05B05DF804FB00BFCA
:1036C400C827030000B585B003468DF807309DF880
:1036D4000730002B11D0032B12D1022003F02AFD56
:1036E4000390039B0293029B002B0BD0084A40F2E9
:1036F4004911029808F008FC04E0FFF7AFFF02E06C
:1037040000BF00E000BF00BF05B05DF804FB00BFD0
:10371400C827030010B598B001900091019B1B8845
:10372400232B00F39180002B40DC93E13B3B1B2BCC
:1037340000F2908101A252F823F000BF7139020017
:10374400593A0200593A0200593A0200593A020021
:10375400593A0200593A0200593A0200593A020011
:10376400593A0200593A0200593A0200593A020001
:10377400593A0200593A0200593A0200593A0200F1
:10378400593A0200593A0200593A0200593A0200E1
:10379400593A0200E339020047390200593A02005B
:1037A400593A0200593A020097390200013B222B90
:1037B40000F2508101A252F823F000BFBD3902008B
:1037C400593A0200593A0200593A0200593A0200A1
:1037D400593A0200593A0200593A0200593A020091
:1037E400593A0200593A0200593A0200593A020081
:1037F400593A0200593A02005B3802009538020037
:10380400593A0200E7380200593A0200593A0200D4
:10381400593A0200593A0200593A0200593A020050
:10382400593A0200593A0200593A0200593A020040
:10383400593A0200593A0200593A0200B1380200DA
:10384400593A020011390200562B00F303813B2B35
:10385400BFF66CAFFEE0894B1B881B0443F00303E7
:10386400874918460BF0F0FB072003F063FC179020
:10387400179B0F930F9B002B05D0824A4FF4B17115
:103884000F9808F041FB019B9A887F4B1A80F2E065
:103894007A4B1B881B0443F003037C4918460BF046
:1038A400D3FB794B4FF6FF721A80E4E000238DF8C6
:1038B400343000238DF83530019B9B880DAA1146C6
:1038C4001846FFF72DFD1790179B1193119B002BA2
:1038D40000F0C2806B4A4FF4BB71119808F014FBDE
:1038E400BAE0694B1888002300228521FFF714FDF4
:1038F4001790179B1093109B002B00F0AF80614A28
:1039040040F27D11109808F0FFFAA7E00BAB0822F3
:10391400002118460EF000FE019B9B880BA9002293
:103924001846FFF701FD1790179B1293129B002B6B
:1039340000F09680534A40F28711129808F0E4FA96
:103944008EE0514B1888002300220021FFF7F4FC7D
:103954001790179B1593159B002B00F08380494A01
:1039640040F28D11159808F0CFFA7BE0019B9B88FB
:1039740013211846FFF7C4FC1790179B1393139B4E
:10398400002B71D03F4A4FF4CA71139808F0BCFA67
:103994006AE0019B9B8813211846FFF7B1FC17903E
:1039A400179B1693169B002B60D0364A40F29B114E
:1039B400169808F0A9FA59E0019B9B880021184643
:1039C400FFF7BEFC1790179B0E930E9B002B4FD056
:1039D4002C4A4FF4D0710E9808F096FA48E0019BF7
:1039E40007AC0633186859689A68DB680FC49DF8F9
:1039F4001C30002B3ED09DF82430042B07D09DF8BA
:103A04002430062B03D09DF82430052B32D19DF8A9
:103A14001C30022B03D102238DF80C3002E0012369
:103A24008DF80C304FF4C173ADF81030019B9B88B6
:103A340003AA11461846FFF77BFC1790179B1493B3
:103A4400149B002B16D00F4A40F2BB11149808F0B7
:103A54005BFA0FE000BF0EE000BF0CE000BF0AE01D
:103A640000BF08E000BF06E000BF04E000BF02E0C2
:103A740000BF00E000BF00BF18B010BD682A0020DE
:103A840068280300C8270300EC2A002074280300D8
:103A940000B587B00CF0AEFA0590059B0493049B27
:103AA400002B05D0164A4FF4E871049808F02CFA5C
:103AB4000023019301AB194601200CF095FB0590FE
:103AC400059B0393039B002B05D00D4A4FF4EB7128
:103AD400039808F019FA01AB18460CF095FC059010
:103AE400059B0293029B002B05D0054A4FF4ED7110
:103AF400029808F009FA00BF07B05DF804FB00BFA4
:103B0400C827030000B583B001900091009B5A8838
:103B1400104B1B889A4218D1009B1B8840F67722D1
:103B2400934212D1009B9B88033B9AB20A4B1A80A2
:103B34000A4B1B881B0443F00300074B1B881A46DF
:103B4400054B1B8806490BF09EFA00BF03B05DF8D5
:103B540004FB00BFEC2A0020EE2A0020682A002083
:103B64008428030000B585B01149124802F02EFFE5
:103B74000390039B0293029B002B05D00E4A40F254
:103B8400F511029808F0C0F940210A4802F049FFF3
:103B94000390039B0193019B002B05D0064A4FF42D
:103BA400FC71019808F0B0F900BF05B05DF804FBA2
:103BB400093B0200C02B0020C827030000B587B0D2
:103BC4000190019B1B78022B46D0022B56DC002B64
:103BD40002D0012B49D051E02C4B1B781A462C4BB8
:103BE4001344184609F068FA284B1B780133DAB2FB
:103BF400264B1A70254B1B78013B254AD35C0A2BB4
:103C040006D0224B1B781A46224B1B889A4237D384
:103C14001E4B1B78ADF80E300DF10E031A461C49ED
:103C24001D4805F007FB0590059B082B0DD0059B4F
:103C3400112B0AD0059B0493049B002B05D0174A33
:103C44004FF41071049808F05FF9059B112BDFD035
:103C54000E4B00221A7013E0019B5B680F4A40F27E
:103C64004921184608F050F90BE0019B5B680B4AA8
:103C740040F24D21184608F047F902E000BF00E089
:103C840000BF00BF07B05DF804FB00BFAC2C0020F0
:103C9400B02C0020EE2A0020A42B0020C82703000B
:103CA40030B58DB0134B04AC1D460FCD0FC495E851
:103CB400030084E80300104B00934FF480730193D6
:103CC4000E4B02934FF480730393694604A80723B1
:103CD4000B4A09F05DF90B900B9B0A930A9B002B8E
:103CE40005D0084A40F26E210A9808F00DF900BF89
:103CF4000DB030BDA0280300A42D0020A42E002068
:103D0400C13B0200C827030000B5ABB06B46A0223C
:103D1400002118460EF000FC02238DF80030002329
:103D24008DF8023005238DF803300123ADF84C30B3
:103D3400114B149301238DF87C3040232293B42338
:103D440023930E4B26936B4619460D4801F0F5FD5F
:103D54002990299B2893289B002B05D0094A40F2DF
:103D64008A21289808F0D0F80121054801F0D8FDEF
:103D740000BF2BB05DF804FBF02A0020C936020016
:103D8400D42B0020C827030000B583B000200AF01C
:103D9400EDFE0190019B0093009B002B05D0064A89
:103DA40040F2A721009808F0AFF80AF03DFE00BFEA
:103DB40003B05DF804FB00BFC827030000B583B05F
:103DC400FFF7C6FA0190019B0093009B002B05D0DE
:103DD400044A40F2B221009808F096F800BF03B0FC
:103DE4005DF804FBC827030000B585B008F08EFF1A
:103DF4000390039B0293029B002B05D01A4A4FF4B5
:103E04002F71029808F080F8FFF74AFFFFF7BCFF14
:103E1400FFF73EFEFFF7F4FAFFF7A4FEFFF790FB6F
:103E2400FFF772FFFFF7E2FB10480CF0E9FB104BC1
:103E34001B881B0443F003030E4918460BF004F9D6
:103E440003210D4801F088FE0390039B0193019B1D
:103E5400002B05D0044A40F2CD21019808F054F813
:103E640000BF05B05DF804FBC8270300B8280300B1
:103E7400682A0020C8280300D42B002008B50BF0C2
:103E84003DF9FFF79BFF00BF08BD00B583B0FFF706
:103E9400ABFF00F0A5FAFFF7F1FF00F059F801902D
:103EA400F9E7000000B583B00190019B1B681F2B4C
:103EB40004D905494FF4E870FFF78EFA4FF0A04398
:103EC400184603B05DF804FBD428030000B585B0A0
:103ED4000190084611461A4603468DF803300B46F6
:103EE4008DF8023013468DF8013001AB1846FFF708
:103EF400D9FF03909DF803209DF802305B001A431C
:103F04009DF801309B001A439DF818301B0242EAC9
:103F140003019DF81C301B04019A1943039B02F50D
:103F2400E07243F8221000BF05B05DF804FB00B551
:103F340085B0039000230193002300930023012202
:103F440001210398FFF7C2FF00BF05B05DF804FB31
:103F54002DE9F04FADF5377D874B1B78002B00F032
:103F640001810023B59324E08449B59A13465B008C
:103F740013441B010B44043319688048B59A134653
:103F84005B0013441B0103442833D3E9002362A8D4
:103F9400CDE900230A467A490DF015FB62AB1846B9
:103FA400FFF7DAF962AB1846FFF7FCF9B59B01336A
:103FB400B593744B1B68B59A9A42D5DB0023B4932E
:103FC4004CE0B49B5A1C6D4913465B0013441B011F
:103FD4000B442833D3E9002310466849B49A1346A6
:103FE4005B0013441B010B442833D3E9002313461D
:103FF400C11AB49B5A1C614813465B0013441B014D
:104004000344183318685D4B4F93B49A13465B000E
:1040140013441B014F9A134418331B68C31A1B0221
:10402400CB1A1946B6ABA3F5BC73B49A43F8221065
:10403400B6ABA3F5BC73B49A53F8223062A8B49A11
:1040440051490DF0C0FA62AB1846FFF785F962AB2F
:104054001846FFF7A7F9B49B0133B493494B1B6887
:10406400013BB49A9A42ACDB0023B3935BE043492F
:10407400B39A13465B0013441B010B440C331B68B7
:10408400DA171C461546B6ABA3F5A871B39A1346C6
:104094005B001344DB000B44C3E900453749B39A82
:1040A40013465B0013441B010B4410331B68DA17DF
:1040B4001E461746B6ABA3F5A871B39A13465B0028
:1040C4001344DB000B440833C3E900672B49B39A5C
:1040D40013465B0013441B010B4414331B68DA17AB
:1040E40098469146B6ABA3F5A871B39A13465B0004
:1040F4001344DB000B441033C3E90089B6ABA3F5CA
:10410400BC73B39A53F82230DA179A469346B6AB87
:10411400A3F5A872B39B1E33DB001344C3E900ABC1
:10412400B39B0133B393174B1B68B39A9A429EDB3C
:10413400144B1B681E46B6ABA3F5CC75B6ABA3F502
:10414400A874684604F108034FF49C7219460EF0F3
:10415400B1F994E80C003146284600F095FA064B74
:1041640000221A70012004F03BFB012318460DF5D0
:10417400377DBDE8F08F00BF343000204030002090
:104184000C2903003830002020290300F0B587B043
:104194004FF000024FF00003CDE9042301AB1846B1
:1041A40003F08CFB042303931EE0DDE904014FF0CC
:1041B40000024FF000030B0243EA10630202CDE950
:1041C400042301AA039B13441B78DBB200221C4680
:1041D4001546DDE9042342EA040643EA0507CDE96E
:1041E4000467039B013B0393039B002BDDDADDE9AA
:1041F40004231046194607B0F0BD000010B59CB06A
:104204000190284B01221A600021102003F01CFCAD
:10421400034603F07F031B931B9B7E2B06D81B9B3B
:104224009BB200221946204803F033FB4FF47A7006
:1042340003F084FF002003F039FF1C480CF0E0F980
:1042440004221B4918480EF0D4F80346002B25D14C
:10425400184B1A6813465B0013441B01164A134497
:104264002422114918460EF025F9124B1C68FFF759
:104274008DFF114A23465B0023441B01134428335A
:10428400C3E900010B4B1B6801330A4A1360094B55
:104294001B68132B02DD074B00221A6000BF1CB001
:1042A40010BD00BF28300020A42F002030290300B7
:1042B400242A0300003400204030002000B583B0DD
:1042C40001900D4B01221A60002003F037FF0020FB
:1042D40003F0ECFE09480CF093F9094B1B68094AFA
:1042E4001360074B00221A60074B01221A7000BFAB
:1042F40003B05DF804FB00BF2C3000204829030004
:1043040000340020383000203430002000B589B05B
:1043140001900B4B01221A6002AB0A4918460DF0BA
:1043240052F902AB1846FFF73DF803468DF81F30EB
:10433400002003F0BBFE00BF09B05DF804FB00BF22
:10434400303000206029030082B00190024B01222A
:104354001A6000BF02B070472430002000B583B05B
:1043640001900B468DF8033003F0ACFC00BF03B0A2
:104374005DF804FB00B585B005F03AFD0346002B5B
:1043840003D013480CF03CF901E005F0E9FC114BB3
:104394001B68019300238DF8053001AB0E4A1946C2
:1043A400132005F031FD0390039B0293029B002B25
:1043B40005D00A4A40F2B511029807F0A5FD012183
:1043C400132005F085FD00BF05B05DF804FB00BFB8
:1043D4006C290300082A03006143020094290300A6
:1043E40000B59DB000231B930EE001221B9B02FA33
:1043F40003F31A462A4B1340002B02D01B98FFF7F5
:1044040096FD1B9B01331B931B9B1F2BEDD94FF078
:10441400A043234AC3F80C254FF0A0430022C3F85D
:104424000825FFF7A7FF01AB1E4918460DF0CBF88E
:1044340001AB1846FEF7B6FF03468DF86B3004F067
:1044440069F904F07BF9012002F0B6FF0346B3F1E9
:10445400FF3F00D1FEE704F099F9134803F076F822
:10446400124B134A1349144803F012FC0121134858
:1044740003F0ACFE44F2480003F0EAF944F24800C9
:1044840003F0F7F9642003F0E7FB002003F056FE85
:10449400002003F00BFE00BF1DB05DF804FB00BF5D
:1044A400000040C00C2A0300F42A0020114302003B
:1044B400C1420200014202004D43020080D02304A5
:1044C400F0B589B08DED060B8DED041B8DED022B3F
:1044D4008DED003BDDE90223DDE906010CF0D0FCA3
:1044E40002460B4614461D46DDE90223DDE90601BA
:1044F4000CF0C6FC02460B46204629460CF0C4FCD0
:1045040002460B4614461D46DDE90023DDE904019D
:104514000CF0B6FC02460B4616461F46DDE90023A6
:10452400DDE904010CF0ACFC02460B46304639468A
:104534000CF0AAFC02460B46204629460CF080FBF0
:1045440002460B4643EC172BB0EE470AF0EE670A1F
:104554000CF038FAB0EE407AF0EE607AB0EE470A2A
:10456400F0EE670A09B0F0BD0000000000B593B09A
:104574008DED040B8DED021B0190424B93ED007BFE
:10458400404B93ED026BB0EE463AF0EE663AB0EE75
:10459400472AF0EE672A9DED021B9DED040BFFF701
:1045A4008FFF8DED0C0B4FF000024FF00003CDE9AF
:1045B400102301230F9353E0324A0F9B1B01134432
:1045C40093ED007B2F4A0F9B1B011344083393ED9B
:1045D400006BB0EE463AF0EE663AB0EE472AF0EEE3
:1045E400672A9DED021B9DED040BFFF769FF8DED1E
:1045F4000A0BDDE90C23DDE90A010CF041FC02465B
:104604000B46104619461DA3D3E900230CF0D4FC35
:1046140002460B46CDE908230F9B03F10053013BEF
:10462400DB00019A1344D3E90023DDE908010CF00F
:1046340027FC02460B46CDE90623DDE90623DDE926
:1046440006010CF021FC02460B46DDE910010CF0DA
:10465400F7FA02460B46CDE910230F9B01330F9363
:104664000F9B022BA8DDDDE9102343EC172BB0EEE2
:10467400470AF0EE670A13B05DF804FB000000007F
:1046840000707540002B002082B030B597B00190C7
:1046940000911AA981E80C004FF000024FF00003CA
:1046A400CDE914234FF000024FF00003CDE91223AB
:1046B4004FF0FF323F4BCDE910234FF000024FF093
:1046C4000003CDE90E2345E04FF000024FF0000354
:1046D400CDE90C2329E056AB18469DED0C1B9DED4E
:1046E4000E0BFFF743FF8DED0A0BDDE91023DDE927
:1046F4000A010CF0B3FD0346002B0BD0DDE90A23BD
:10470400CDE91023DDE90E23CDE91423DDE90C23E3
:10471400CDE912234FF00002274BDDE90C010CF028
:104724008FFA02460B46CDE90C234FF00002234BCF
:10473400DDE90C010CF022FD0346002BCBD14FF038
:1047440000021D4BDDE90E010CF07AFA02460B461D
:10475400CDE90E234FF00002184BDDE90E010CF0F9
:104764000DFD0346002BAFD1DDE914010CF092FDE1
:1047740002460B46CDE90223DDE912010CF08AFD65
:1047840002460B46CDE904234FF000024FF000032C
:10479400CDE90623019B1D4602AC0FCC0FC594E85E
:1047A4000F0085E80F00019817B0BDE8304002B053
:1047B400704700BFFFFFEF7F0000F03F000059404B
:1047C40000B583B00190019B1B681F2B04D90549D8
:1047D4004FF4E870FEF700FE4FF0A043184603B014
:1047E4005DF804FB282A030000B585B0019001ABF5
:1047F4001846FFF7E5FF0390019B012202FA03F339
:104804001946039800F069F800BF05B05DF804FB91
:1048140000B585B0019001AB1846FFF7D1FF0390B6
:10482400019B012202FA03F31946039800F05FF892
:1048340000BF05B05DF804FB00B585B0019001AB85
:104844001846FFF7BDFF0390039BD3F8043502938A
:10485400029BDA43019B012101FA03F31A40039BF3
:10486400C3F80825019B01229A40029B1A40039B2E
:10487400C3F80C2500BF05B05DF804FB00B583B098
:1048840001900091009B002B03D10198FFF7C0FF1A
:1048940002E00198FFF7A8FF00BF03B05DF804FB36
:1048A40000B585B0019001AB1846FFF789FF03906E
:1048B400039800F00AF80246019B22FA03F303F07E
:1048C4000103184605B05DF804FB82B00190019B1A
:1048D400D3F80435184602B0704782B001900091B5
:1048E400019B009AC3F8082500BF02B0704782B04C
:1048F40001900091019B009AC3F80C2500BF02B0FF
:104904007047000000B585B00190019B032B03D9CB
:1049140011493720FEF760FD104A019B13441B78B0
:104924001846FFF7BDFF0346002B14BF01230023E5
:104934008DF80F309DF80F30002B14BF0123002396
:10494400DBB283F00103DBB203F00103DBB21846F0
:1049540005B05DF804FB00BF602A0300A82A030029
:1049640000B583B00190019B032B03D907493E2076
:10497400FEF732FD064A019B13441B7800211846BA
:10498400FFF77CFF00BF03B05DF804FB602A03005F
:10499400A82A030000B583B00190019B032B03D91F
:1049A40007494420FEF718FD064A019B13441B786F
:1049B40001211846FFF762FF00BF03B05DF804FB56
:1049C400602A0300A82A030000B583B000230193E2
:1049D40005E00198FFF7DEFF019B01330193019B82
:1049E400032BF6D900BF00BF03B05DF804FB00B58C
:1049F40083B00023019305E00198FFF7B1FF019B09
:104A040001330193019B032BF6D900BF00BF03B010
:104A14005DF804FB00B583B00190019B032B03D91F
:104A240007495C20FEF7D8FC064A019B13441B7817
:104A34001846FFF701FF00BF03B05DF804FB00BF99
:104A4400602A0300A82A030000B583B00190019BEB
:104A5400032B03D90549A220FEF7BEFC044A019B9F
:104A640013441B78184603B05DF804FB602A030066
:104A7400AC2A03006DDF704700BF184672DF704731
:104A840000BF184679DF704700BF18467DDF7047C6
:104A940000BF184664DF704700BF184682B0034663
:104AA4000091ADF80630BDF80630DAB2009B1A70FA
:104AB400BDF806301B0A9AB2009B0133D2B21A70B9
:104AC4000223184602B0704700B589B003900291E2
:104AD4001346ADF80630029B1B8803F10902BDF8AA
:104AE40006309A4201D90C2351E005AB1846FFF772
:104AF400C1FF0790079B002B01D0079B47E0029B57
:104B04001B881A46039B134408221A70029B1B88B5
:104B140001339AB2029B1A80029B1B881A46039B9C
:104B240013441B221A70029B1B8801339AB2029B06
:104B34001A80029B1B881A46039B981805AB013305
:104B4400062219460DF0B6FC029B1B8806339AB266
:104B5400029B1A809DF8143023F00103DBB2002B72
:104B640007D1029B1B881A46039B134400221A7028
:104B740006E0029B1B881A46039B134401221A7009
:104B8400029B1B8801339AB2029B1A8000231846A9
:104B940009B05DF804FB00B589B00390029101925D
:104BA400ADF80230039B1B78012B05D1039B5B7886
:104BB400002B01D1072388E0019B1B889A1CBDF8B8
:104BC40002309A420ED8039B1B78012B0CD1019B17
:104BD4001B881A46039B5B7813449A1CBDF8023069
:104BE4009A4201D90C2370E0019B1B88BDF8022076
:104BF400D31A9BB2023BADF81C30BDF81C30ADF8A3
:104C04001630019B1B880233029A13440DF11602DD
:104C140011461846FFF73AFF0690069B002B01D079
:104C2400069B52E0039B1B78022B09D1BDF816307A
:104C3400BDF81C209A4203D309238DF81F3016E0D7
:104C440008238DF81F30039B1B78012B0BD1039B8A
:104C54005B781A46BDF81C30934204D3039B5B78FF
:104C6400ADF8163003E0BDF81C30ADF81630BDF8D1
:104C74001630FE2B01D90C2327E0BDF81630DAB22A
:104C8400019B1B881946029B0B440132D2B21A7055
:104C9400019B1B8801339AB2019B1A80019B1B88DC
:104CA4001A46029B13449DF81F201A70019B1B880F
:104CB40001339AB2019B1A80019B1A88BDF8163001
:104CC40013449AB2019B1A800023184609B05DF878
:104CD40004FB00B587B0039002911346ADF806308B
:104CE400029B1B881A1DBDF806309A4201D90C2379
:104CF40038E00DF112031846FFF7C4FE0590059B3A
:104D0400002B01D0059B2DE0029B1B881A46039BB8
:104D1400134403221A70029B1B8801339AB2029B2C
:104D24001A80029B1B881A46039B134419221A708B
:104D3400029B1B8801339AB2029B1A80BDF8122091
:104D4400029B1B881946039B0B4419461046FFF728
:104D5400A5FE03461A46029B1B8813449AB2029B83
:104D64001A800023184607B05DF804FB84B0029152
:104D740001921A4603468DF80F301346ADF80C30F5
:104D8400019B1B88DA1CBDF80C309A4201D90C2314
:104D940028E0019B1B881A46029B134402221A70C6
:104DA400019B1B8801339AB2019B1A80019B1B88CB
:104DB4001A46029B134401221A70019B1B8801337B
:104DC4009AB2019B1A80019B1B881A46029B1344CA
:104DD4009DF80F201A70019B1B8801339AB2019B26
:104DE4001A800023184604B0704784B002910192DF
:104DF4001A4603468DF80F301346ADF80C30019B6C
:104E04001B88DA1CBDF80C309A4201D90C2328E027
:104E1400019B1B881A46029B134402221A70019BB1
:104E24001B8801339AB2019B1A80019B1B881A4686
:104E3400029B13440A221A70019B1B8801339AB205
:104E4400019B1A80019B1B881A46029B13449DF800
:104E54000F201A70019B1B8801339AB2019B1A80A0
:104E64000023184604B0704700B58BB0039001933B
:104E74000B468DF80B3013468DF80A3000238DF85D
:104E840023300C9B1B88ADF82030002309936CE081
:104E9400039B5A68099B9B001A4404AB1068186072
:104EA4000DF1160104AB00221846FFF7F3FD06903E
:104EB400069B002B01D0069B79E09DF816309DF8E7
:104EC4000A209A424ED19DF82330002B01D00023B2
:104ED40000E002238DF817300C9B1B881A469DF8BE
:104EE40016301A449DF817301A44BDF834309A42EB
:104EF40001DD0C235BE09DF8233083F00103DBB27A
:104F0400002B16D00C9B1B8801339AB20C9B1A8081
:104F14000C9B1B881A46019B13449DF80B201A70A6
:104F24000C9B1B8801339AB20C9B1A8001238DF8C9
:104F340023300C9B1B881A46019B1A440DF1160161
:104F440004AB1846FFF7A6FD0690069B002B01D084
:104F5400069B2CE00C9B1B889DF8162013449AB2E8
:104F64000C9B1A80099B01330993039B1B881A46E7
:104F7400099B93428CDB9DF82330002B16D00C9BAD
:104F84001A88BDF82030D31A9BB2013BADF81E300D
:104F9400BDF81E30FF2B01D90C2308E0BDF82030EA
:104FA400019A1344BDF81E20D2B21A700023184689
:104FB4000BB05DF804FB00B589B0059003930B4674
:104FC4008DF8133013468DF812309DF81310BDF888
:104FD4002C3001930A9B0093039B02220598FFF750
:104FE40043FF0790079B002B01D0079B12E09DF81D
:104FF4001210BDF82C3001930A9B0093039B1022DE
:105004000598FFF731FF0790079B002B01D0079B02
:1050140000E00023184609B05DF804FB82B001905B
:10502400019B1B88052B0AD9019B1B88B3F5486F8C
:1050340007D9019B1B884FF6FF72934201D00723C7
:1050440025E0019B5B88052B0AD9019B5B88B3F59E
:10505400486F07D9019B5B884FF6FF72934201D0DA
:10506400072314E0019B1B884FF6FF7293420DD077
:10507400019B5B884FF6FF72934207D0019B1A880D
:10508400019B5B889A4201D9072300E0002318465C
:1050940002B0704700B587B0039002910192ADF859
:1050A4000230019B1B889A1DBDF802309A4201D937
:1050B4000C2349E00398FFF7B1FF0590059B002BF3
:1050C40001D0059B40E0019B1B881A46029B1344B8
:1050D40005221A70019B1B8801339AB2019B1A8026
:1050E400019B1B881A46029B134412221A70019BCF
:1050F4001B8801339AB2019B1A80039B1A88019B77
:105104001B881946029B0B4419461046FFF7C6FC40
:1051140003461A46019B1B8813449AB2019B1A80CA
:10512400039B5A88019B1B881946029B0B44194612
:105134001046FFF7B3FC03461A46019B1B88134431
:105144009AB2019B1A800023184607B05DF804FB4D
:1051540000B587B0039002910192ADF80230039B31
:105164009B8802330593019B1B881A46059B1344B5
:105174009A1CBDF802309A4201D90C2353E0059BD6
:10518400FE2B01D90C234EE0059BDAB2019B1B8850
:105194001946029B0B440132D2B21A70019B1B8840
:1051A40001339AB2019B1A80019B1B881A46029B09
:1051B4001344FF221A70019B1B8801339AB2019B8E
:1051C4001A80039B1A88019B1B881946029B0B4477
:1051D40019461046FFF762FC03461A46019B1B88DA
:1051E40013449AB2019B1A80039B9B88002B19D00D
:1051F400039B9B68002B01D1072314E0019B1B88B0
:105204001A46029B9818039B9968039B9B881A462D
:105214000DF050F9019B1A88039B9B8813449AB2A2
:10522400019B1A800023184607B05DF804FB00B503
:1052340089B0039002910192ADF80230039B9B6AFE
:10524400002B01D1072371E000238DF81F3065E0A6
:10525400039B996A9DF81F2013465B0013449B002F
:105264000B440693069B9B8802330593059BFE2BF8
:1052740001D90C235AE0059BDAB2019B1B8819461D
:10528400029B0B440132D2B21A70019B1B8801337A
:105294009AB2019B1A80019B1B881A46029B1344F5
:1052A40016221A70019B1B8801339AB2019B1A8043
:1052B400069B1A88019B1B881946029B0B441946BE
:1052C4001046FFF7EBFB03461A46019B1B88134469
:1052D4009AB2019B1A80069B9B88002B19D0069BCF
:1052E4009B68002B01D1072320E0019B1B881A46F1
:1052F400029B9818069B9968069B9B881A460DF09A
:10530400D9F8019B1A88069B9B8813449AB2019B87
:105314001A809DF81F3001338DF81F30039B93F8DA
:105324002C309DF81F209A4292D30023184609B0CE
:105334005DF804FB00B589B0059004910392002345
:105344000793039B1B88ADF81A30039B00221A8035
:10535400059B93F82D30002B0CD0BDF81A301A465B
:1053640003990498FFF7B0FB0790079B002B01D02B
:10537400079BC4E0059B9B78002B0CD0BDF81A302A
:105384001A4603990498FFF7A4FC0790079B002B87
:1053940001D0079BB3E0059BDB78002B0ED0059B67
:1053A400DB7858B2BDF81A30039A0499FFF7DEFC93
:1053B4000790079B002B01D0079BA0E0059B5B682F
:1053C400002B0FD0059B5B6893F90000BDF81A30E1
:1053D400039A0499FFF709FD0790079B002B01D05E
:1053E400079B8CE0059B1B89002B12D0059B03F1C6
:1053F4000800BDF81A300193039B0093049B062216
:105404000221FFF7D8FD0790079B002B01D0079BD3
:1054140075E0059B1B8A002B12D0059B03F110003D
:10542400BDF81A300193039B0093049B07220321C8
:10543400FFF7C1FD0790079B002B01D0079B5EE09F
:10544400059B1B8B002B12D0059B03F11800BDF8A4
:105454001A300193039B0093049B15221421FFF738
:10546400AAFD0790079B002B01D0079B47E0059BF3
:105474001B6A002B0DD0059B186ABDF81A30039ADD
:105484000499FFF707FE0790079B002B01D0079BA9
:1054940035E0059B5B6A002B0DD0059B586ABDF86F
:1054A4001A30039A0499FFF753FE0790079B002BC9
:1054B40001D0079B23E0059B93F82C30002B0CD0E4
:1054C400BDF81A30039A04990598FFF7B0FE0790C7
:1054D400079B002B01D0079B11E0059B1B78002B39
:1054E4000CD0BDF81A30039A04990598FFF753FBC2
:1054F4000790079B002B01D0079B00E0079B1846F1
:1055040009B05DF804FB82B00190019BDB7803F0E5
:105514000403002B01D1072300E00023184602B046
:10552400704782B00190019BDB78002B01D00723E8
:1055340000E00023184602B0704700B597B0019010
:1055440000911F23ADF84A301F23ADF84830019B6A
:10555400002B18D00198FFF7D6FF1390139B002B54
:1055640001D0139B3FE00DF14A020AAB19460198A2
:10557400FFF7E0FE1390139B002B01D0139B32E046
:105584000AAB159304E0002315930023ADF84A30C9
:10559400009B002B17D00098FFF7C3FF1390139BB9
:1055A400002B01D0139B1EE012AA02AB19460098EF
:1055B400FFF7C0FE1390139B002B01D0139B12E046
:1055C40002AB149304E0002314930023ADF8483095
:1055D400BDF84A30D9B2BDF84830DBB2149A1598F8
:1055E400FFF74CFA0346184617B05DF804FB73DF67
:1055F400704700BF184682B00190019B93F8D630E3
:10560400184602B0704784B00190002303930AE067
:10561400019A039B13441B78002B01D0012306E05D
:10562400039B01330393039B052BF1D900231846F5
:1056340004B0704782B003468DF807309DF80730F8
:105644005A1C074B83FB02135910D317C91A0B4674
:105654009B000B44D11ACBB2184602B0704700BF6E
:105664006766666682B001900091009BDB7B012B2C
:1056740004D1009B9A88019BA3F8C82000BF02B004
:10568400704700B585B001900091019B002283F81A
:10569400D420009B9A88019BB3F8C8309A4218D151
:1056A400019B1B7983F00103DBB2002B11D0012194
:1056B400019800F051FA0390039B002B09D0019B41
:1056C400D3F8D030002B04D0019BD3F8D03003980A
:1056D400984700BF05B05DF804FB00B585B00190A4
:1056E4000091009B1B7A002B18D1019BDB78184694
:1056F400FFF7A0FF03461946019800F02DFA039026
:10570400039B002B0BD0019BD3F8D030002B06D089
:10571400019BD3F8D0300398984700E000BF05B050
:105724005DF804FB08B5002008F028FB0346184682
:1057340008BD000000B585B001900B468DF803301C
:10574400019B26331846FFF75EFF03468DF80F30A2
:105754009DF80330013B032B2AD801A252F823F011
:1057640075570200895702009D570200A95702008D
:10577400019B9B79002B05D09DF80F30002B01D0A5
:10578400012316E0019BDB79002B05D09DF80F3037
:10579400002B01D002230CE0019B1B7A002B01D0CB
:1057A400032306E0019B5B7A002B01D0042300E075
:1057B4000023184605B05DF804FB00BF82B00190D9
:1057C4000091019B01229A70019B03F12502009B29
:1057D4005A60009B01221A70009B00229A81009B50
:1057E40000225A810023184602B0704782B001900B
:1057F4000091019B02229A70019B03F12502009BF8
:105804005A60009B01221A70019B1B699AB2009B8B
:105814009A81019BDB689AB2009B5A810023184647
:1058240002B0704700B585B001900091019B5B699F
:105834009AB2009B5A81019B9B699AB2009B9A8100
:10584400019B5B79002B24D0019B93F8D43083F027
:105854000103DBB2002B1CD00198FFF7CCFE0346FA
:10586400002B16D0009B02221A72019B042283F89B
:105874003320019B303300211846FFF75EFE03906E
:10588400039B002B01D0039B07E0019B05229A7028
:1058940002E0019B03229A700023184605B05DF8CC
:1058A40004FB00B585B001900091019BDB699AB2BD
:1058B400009B5A81019B1B6A9AB2009B9A81019BAF
:1058C4005B79002B24D0019B93F8D43083F001033F
:1058D400DBB2002B1CD00198FFF78DFE0346002B92
:1058E40016D0009B02221A72019B042283F83320F3
:1058F400019B303300211846FFF71FFE0390039BE2
:10590400002B01D0039B07E0019B06229A7002E062
:10591400019B04229A700023184605B05DF804FB2D
:1059240082B001900B468DF80330019B9DF8032053
:1059340083F8242000BF02B0704730B587B00190CF
:105944000091009B002B02D0019B002B01D10E2360
:10595400FFE0019B01221A70019B0022DA70019A78
:10596400009B141D03F178050FCD0FC495E80F00BB
:1059740084E80F00019B002283F82420009BD3F8C5
:105984009820019BC3F8CC20009BD3F89C20019B5A
:10599400C3F8D020019B4FF6FF72A3F8C820019BE7
:1059A40025330722002118460CF0B6FD019B303345
:1059B4003C22002118460CF0AFFD009B1A78019B95
:1059C40083F83020009B9A78019B83F83220009B57
:1059D400DA78019B83F83320009B5A78019B83F883
:1059E4003120019B009A4033103292E8030083E88F
:1059F4000300019B009A3833083292E8030083E8DD
:105A04000300019B009A4833183292E8030083E8AC
:105A14000300009B93F82D20019B83F85D20009BDD
:105A24005B6A002B2ED0019B03F16C02019B5A652B
:105A3400019B03F17802019B5A67009B5A6A019B00
:105A44005B6D12881A80009B5A6A019B5B6D928879
:105A54009A80002305930EE0009B5B6A9A68059B7D
:105A640013441978019A059B134478330A461A7033
:105A7400059B01330593019B5B6D9B881A46059B2F
:105A84009342E9D3009B9B6A002B3AD0019B03F11C
:105A9400A402019BC3F8A020019B03F19802019B7F
:105AA4009A65019B9B6D019AA4329A60009B9A6A45
:105AB400019B9B6D92889A80009B9A6A019B9B6DC7
:105AC40012881A80002304930EE0009B9B6A9A6854
:105AD400049B13441978019A049B1344A4330A4683
:105AE4001A70049B01330493019B9B6D9B881A4697
:105AF400049B9342E9D3009B93F82C20019B83F8E9
:105B04005C20009B1B6A002B10D0019B03F1C40294
:105B1400019B1A65009B1A6A019B1B6D52885A806F
:105B2400009B1A6A019B1B6D12881A80009B5B689C
:105B3400002B03D0009B5A68019B5A63019B03F11D
:105B44003002009B3C3319461046FFF7F6FC0390E5
:105B5400039B184607B030BD00B589B001900B46D1
:105B64008DF80330019B1B7883F00103DBB2002B1B
:105B740001D00823D2E0019B9DF80320DA70FFF7DF
:105B8400D1FD0346002B04D0019B01225A7000234F
:105B9400C4E0019B25330722002118460CF0BCFC0D
:105BA400019B9B79002B03D0019BDB78012B0FD049
:105BB400019BDB79002B03D0019BDB78012B07D001
:105BC400019BDB79002B16D0019BDB78022B12D1D1
:105BD400019BD3F8CC30002B09D0019B012283F820
:105BE4002C20019BD3F8CC300820984703E0019B7C
:105BF400002283F82C209DF8033019460198FFF702
:105C040099FD03461A46019BDA70019BD3F8CC3008
:105C1400002B21D0019BDB78032B03D0019BDB7885
:105C2400042B19D1019B5B79002B15D0019B93F8B0
:105C3400D43083F00103DBB2002B0DD0019B002292
:105C440083F8D620019B012283F8D520019BD3F849
:105C5400CC300720984703E0019B002283F8D5202D
:105C640003AB1022002118460CF056FC00238DF8DB
:105C74000C3000238DF81430019BDB78042B2DD8D5
:105C840001A252F823F000BFD95C0200A15C02001B
:105C9400AF5C0200BD5C0200CB5C020003AB1946A2
:105CA4000198FFF78BFD079019E003AB19460198A3
:105CB400FFF79CFD079012E003AB19460198FFF72C
:105CC400B1FD07900BE003AB19460198FFF7E9FD1E
:105CD400079004E0019B00229A7000E000BF019B42
:105CE400DB78002B0DD0019B93F8242003AB1146E5
:105CF4001846FFF77CFC0790079B002B01D0079BFD
:105D04000CE0019BD3F8CC30002B06D0019BD3F8D8
:105D1400CC30019A9278104698470023184609B06F
:105D24005DF804FB00B585B001900091009B0393DE
:105D3400019B1B881B2B10D01B2B13DC102B02D0B8
:105D4400112B05D00EE001990398FFF78BFC0AE0B4
:105D540001990398FFF795FC05E001990398FFF773
:105D6400BCFC00E000BF00BF05B05DF804FB00B55B
:105D740085B001900091009B0393019B023B012B92
:105D84001BD8039B5B78002B19D0039B00225A700D
:105D9400039BDB7819460398FFF7DEFE0290029B13
:105DA400002B0CD0039BD3F8D030002B07D0039BDF
:105DB400D3F8D0300298984701E000BF00E000BF5C
:105DC40000BF05B05DF804FB75DF704700BF1846DF
:105DD40076DF704700BF18467ADF704700BF184669
:105DE4007BDF704700BF184684B00346ADF8063029
:105DF4000023039316E00F49039A13469B001344B0
:105E04009B000B441B88BDF806209A4207D1039AD5
:105E140013469B0013449B00064A134406E0039B6D
:105E240001330393039B002BE5D00023184604B0F1
:105E3400704700BF2434002082B001900B46ADF8B7
:105E44000230019BBDF802201A80019B00221A72C5
:105E5400019B054903F10A020B4603CB1060516014
:105E640000BF02B0704700BF5434002082B00190DC
:105E7400019B4FF6FF721A8000BF02B0704788B0D2
:105E84000390029111461A460B46ADF806301346AC
:105E9400ADF80430039B9B881A46BDF806301344C2
:105EA4000793039B9B881946039B9B88BDF8062098
:105EB400934228BF13469BB2CB1A0693039BDB88FD
:105EC4001A46BDF8043013440593039BDB88194636
:105ED400039BDB88BDF80420934228BF13469BB282
:105EE400CB1A0493029B5A88039B1B889A4205D3BE
:105EF400029B5A88039B5B889A4201D900231CE0C9
:105F0400029B9B881A46069B934205D8029B9B885A
:105F14001A46079B934201D200230EE0029BDB88C2
:105F24001A46049B934205D8029BDB881A46059BBC
:105F3400934201D2002300E00123184608B07047C1
:105F440000B583B00190064B9B69002B03D0044B32
:105F54009B690198984700BF03B05DF804FB00BF3C
:105F64003834002000B585B003460091ADF8063002
:105F7400BDF8063000991846FFF726FF0390039BEF
:105F8400002B05D0039B112B02D00398FFF7D8FFF9
:105F9400039B002B0CBF01230023DBB2184605B082
:105FA4005DF804FB00B589B00190019B0793079B42
:105FB4009BB21846FFF718FF0690069B002B42D0B1
:105FC400069B1A7A224B1B7B9A4215D2079B9AB2E4
:105FD400069B0A3319461046FFF7C4FF03468DF8A3
:105FE40013309DF81330002B2DD0069B1B7A013300
:105FF400DAB2069B1A7226E0069B00221A72144B30
:106004001B7C002B0FD0079B9BB23B211846FFF74C
:10601400DFFE0590059B002B05D0059B082B02D0C5
:106024000598FFF78DFF0A4B5B69002B0BD000230B
:106034008DF80C30079B9BB2ADF80E30044B5B69B6
:1060440003AA1046984700BF09B05DF804FB00BFDF
:106054003834002030B587B00190019B002B01D16A
:106064000E2353E02B4A019B14461D460FCD0FC44B
:1060740095E8070084E80700264B274A1A60019B2D
:106084001B68002B11D0019B1B681846FFF7A4FE68
:106094000490049B002B01D0049B37E0019B1A68F9
:1060A4001D4B1068516803C308E01B48FFF798FEB6
:1060B4000490049B002B01D0049B27E0002305934C
:1060C40020E0059A13469B0013449B00134A134493
:1060D40003930398FFF7CAFE059B5B01104A1A4419
:1060E400039B5A60039B04330E4A0021184606F0B2
:1060F40041FE0490049B002B01D0032306E0059B82
:1061040001330593059B002BDBD00023184607B011
:1061140030BD00BF38340020543400202434002023
:1061240004340020A95F020000B587B00346009143
:10613400ADF80630009B5B7A002B1AD1009B1B7ACA
:10614400002B03D1164B5B68059302E0144B9B684C
:106154000593009B5B68BDF806200599184606F078
:1061640039FE0490049B002B16D00498FFF7E8FE38
:1061740012E0009B00221A72094B5B69002B0BD0C2
:1061840001238DF80C30BDF80630ADF80E30044B09
:106194005B6903AA1046984700BF07B05DF804FB8B
:1061A4003834002000B585B00190019BDB7B8DF86D
:1061B4000F30019B9B88ADF80C309DF80F30012BFC
:1061C4002CD14FF6FF70FFF70FFE0290029B002BBD
:1061D40003D10420FFF7B4FE21E0BDF80C301946CA
:1061E4000298FFF729FE029B03F10A00019B03F1C9
:1061F40010014FF6FF7340F2F312FFF740FE03461F
:106204001A46029B5A72074BDB89002B07D1BDF853
:106214000C3002991846FFF787FF00E000BF05B075
:106224005DF804FB3834002000B587B00190019B71
:106234009B88ADF81630BDF816301846FFF7D4FD2C
:106244000490049B002B0ED0049B5B68184606F058
:10625400F3FD0390039B002B02D00398FFF770FE1D
:106264000498FFF703FE00BF07B05DF804FB0000CD
:1062740000B587B00190019B06330593059B1A88EE
:10628400194BDB899A422BD1059B5B89022B27D1C1
:10629400019B9B88ADF81230BDF812301846FFF709
:1062A400A3FD0390039B002B1AD0059B0C331846C7
:1062B40000F07BF90346002B06D0BDF81230039999
:1062C4001846FFF731FF0BE0039B5B68184606F0A6
:1062D400B3FD0290029B002B02D00298FFF730FE20
:1062E40000BF07B05DF804FB3834002000B585B06A
:1062F4000190019B9B88ADF80E30BDF80E30184616
:10630400FFF772FD0290029B002B15D0029B03F154
:106314000A00019B03F108014FF6FF7340F2F312E8
:10632400FFF7ADFD03461A46029B5A72BDF80E30C4
:1063340002991846FFF7F8FE00BF05B05DF804FBAC
:1063440000B583B001900091019B1B88502B12D0A3
:10635400502B18DC122B12D0122B14DC102B02D071
:10636400112B04D00FE00198FFF71CFF0CE00198FB
:10637400FFF75AFF08E00198FFF77AFF04E001985D
:10638400FFF7B4FF00E000BF00BF03B05DF804FBFB
:1063940000B585B00346ADF80630164B5B6CDB43A5
:1063A400184608F087F90346ADF80E30BDF80E30F4
:1063B4004FF6FF72934217D0BDF80E300D4A5B00C2
:1063C4001344BDF806209A80BDF8062001230A492B
:1063D4000A4808F091F9BDF8062001230849074846
:1063E40008F08AF9012300E00023184605B05DF89F
:1063F40004FB00BF5C340020A4340020603400207F
:10640400A034002000B585B00346ADF80E30BDF8C9
:106414000E30002200921D220349044808F087F937
:1064240000BF05B05DF804FBA034002060340020F8
:1064340000B583B00346ADF80630BDF8062000234E
:106444000349044808F058F900BF03B05DF804FBA1
:10645400A43400206034002000B5A5B0144B9B6C1C
:10646400DA43134B5B6C1A406B461249184608F02A
:10647400A7F912AB6946442218460CF01BF8002316
:1064840023930BE0239B5B0090336B4433F8443C31
:106494001846FFF7B7FF239B01332393129B239ADC
:1064A4009A42EFD300BF00BF25B05DF804FB00BFE4
:1064B4005C3400206034002000B585B00190009168
:1064C400019B1B881A2B30D01A2B4FDC102B02D0C7
:1064D400112B24D04AE0FFF7BFFF019B9B8818468D
:1064E400FFF756FF034683F00103DBB2002B05D010
:1064F400204AE521042005F007FD37E0019BDB7B02
:10650400022B0CBF012300238DF80F30019B9A88C6
:106514009DF80F301849194808F0EEF826E0019B61
:106524009B881846FFF784FF20E0019B9A88019B13
:106534001B7AC3F30313DBB2012B8CBF01230023AB
:10654400DBB20F490D4808F0D7F8019B9A88019BEC
:106554001B7AC3F30313DBB2022B8CBF012300238A
:10656400DBB20849054808F0C7F800BF00BF05B012
:106574005DF804FBB02A0300A83400206034002036
:10658400AC340020B034002082B00190019B1B7811
:106594001AB2019B01331B781BB21B021BB21343BB
:1065A4001BB29BB2184602B0704700B585B001908B
:1065B4000198FFF7E9FF0346ADF80E30BDF80E3041
:1065C40003F00103002B14BF01230023DBB21846A0
:1065D40005B05DF804FB90DF704700BF18469EDFEE
:1065E400704700BF1846ADDF704700BF184682B041
:1065F4000190019BF7221A80019B17225A80019B6C
:1066040000221A71019B00225A71019BFB229A718C
:10661400019B1B22DA7100BF02B0704700B587B03E
:1066240003460091ADF80630BDF80630009ADB0051
:1066340013441B7BADF80C30BDF80630009ADB0028
:1066440013441B7BADF80E300023ADF8103000234B
:10665400ADF8123003A9BDF8063000221846FFF742
:10666400BAFF0590059B002B0AD0074B1B881B041F
:1066740043F00100BDF80620059B044908F003FD22
:1066840000BF07B05DF804FB802A0020102B030034
:1066940000B587B001900091009B9B88ADF816303F
:1066A400BDF81630DB00019A134406330493019BB2
:1066B4001A79049B9A71009BDB7B012B02D0022B7D
:1066C40005D009E0019B1A88049B1A8004E0019B11
:1066D4005A88049B1A8000BF049B1A88049B5B8819
:1066E4009A4220D9049B1A88BDF8163011461846E0
:1066F400FFF775FF0390039B002B03D1049B01223A
:106704005A7110E0039B112B03D1049B01221A71CF
:1067140009E00D4B1B881B0443F00103039A0B494A
:10672400184608F09FFC049B9A79049BDB799A42F3
:1067340005D9BDF8163001991846FFF76FFF00BF61
:1067440007B05DF804FB00BF802A0020702B030013
:1067540000B583B001900091009B9B88DB00019AF7
:10676400134406331846FFF742FF00BF03B05DF839
:1067740004FB00B587B001900091009B9B88ADF8A5
:106784001630009B5B89ADF81430BDF81630DB0081
:10679400019A134406330493049B1B88BDF8142008
:1067A400934228BF13469AB2049B5A80049B5B8889
:1067B400172B38BF17239AB2049B5A80019B1B697D
:1067C400002B15D0049B5B79002B11D040F6772366
:1067D400ADF80830BDF81630ADF80A30049B5B887C
:1067E400ADF80C30019B1B6902AA11460198984729
:1067F400049B00225A71049B00221A7100BF07B047
:106804005DF804FB00B589B001900091009B9B8862
:10681400ADF81A30009BDB88ADF81830BDF81A309B
:10682400DB00019A134406330593BDF81830172B87
:1068340038BF1723ADF81830059B1B88BDF8182006
:10684400934228BF13469AB2059B5A80059B0022A7
:106854001A71059B1A88BDF81A3011461846FFF7BD
:10686400C2FE0790079B002B09D0144B1B881B0406
:1068740043F00103079A1249184608F0F3FB059BFD
:106884005B79002B16D1019B1B69002B13D040F6BA
:106894007723ADF80C30BDF81A30ADF80E30059BF7
:1068A4005B88ADF81030019B1B6903AA114601985F
:1068B400984700E000BF09B05DF804FB802A00207F
:1068C400B42B030030B593B001900091009B04AC4D
:1068D4001D1D0FCD0FC40FCD0FC40FCD0FC42B68DA
:1068E4002360BDF81030ADF84630BDF81420BDF873
:1068F4004630D1B2019ADB0013440A465A73019B15
:106904001B69002B19D002AB00221A609A804DF645
:106914007A23ADF80830BDF84630ADF80A30BDF83A
:106924004630019ADB0013445B7B8DF80C30019BED
:106934001B6902AA11460198984700BF13B030BDE5
:1069440000B58BB001900091009B04330793079B23
:106954001B88DB00019A134406330693079B9B882C
:106964008DF81730069B9B799DF81720934228BF1A
:1069740013468DF8273003AB00221A605A609DF845
:1069840027309BB2ADF80C309DF827309BB2ADF8A0
:106994000E30079B1B8803A900221846FFF71BFE35
:1069A4000890089B002B09D0064B1B881B0443F05E
:1069B4000103089A0449184608F054FB00BF0BB0C1
:1069C4005DF804FB802A0020F82B030000B585B095
:1069D40001900091019B002B01D10E231DE0019B2E
:1069E400009A1A61019BF7221A80019BF7225A80B0
:1069F400019BFB221A71002303930AE0039BDB0033
:106A0400019A134406331846FFF7F1FD039B013343
:106A14000393039B002BF1D00023184605B05DF8C7
:106A240004FB82B001900B46ADF80230019B002BB1
:106A340001D10E230EE0BDF80230162B03D9BDF8A8
:106A44000230F72B01D9072304E0019BBDF8022093
:106A54001A800023184602B07047000000B587B0C2
:106A640001900091009B0593019B9B88ADF8123027
:106A7400BDF81230002B40F09280019B1B88552BEF
:106A840048D0552B55DC242B32DC102B51DB103B2A
:106A9400142B4ED801A252F823F000BFFB6A020067
:106AA400056B0200376B0200376B0200376B020084
:106AB400376B0200376B0200376B0200376B020042
:106AC400376B0200376B0200376B0200376B020032
:106AD400376B0200376B0200376B0200376B020022
:106AE400376B0200376B02002D6B0200236B020030
:106AF4003A2B0AD01DE001990598FFF7C9FD19E06A
:106B040001990598FFF724FE14E001990598FFF711
:106B140030FE0FE001990598FFF774FE0AE0019931
:106B24000598FFF7CFFE05E001990598FFF708FFE8
:106B340000E000BFBDF81230059ADB0013449B7AD5
:106B4400002B2DD0BDF81230059ADB001344DA88EF
:106B5400BDF8123011461846FFF741FD0390039B20
:106B6400002B0ED1BDF81230059ADB00134400222D
:106B74009A72BDF81230059ADB0013440122DA72CE
:106B84000EE0039B112B0BD0074B1B881B0443F017
:106B94000103039A0549184608F064FA00E000BFAF
:106BA40007B05DF804FB00BF802A0020702B0300AF
:106BB40000B583B00190019B1B681F2B04D90549C4
:106BC4004FF4E870FCF708FC4FF0A043184603B0FC
:106BD4005DF804FB402C030000B585B001900B4622
:106BE4008DF8033001AB1846FFF7E2FF0390019ADA
:106BF400039B02F5E07253F82230019A23F44031EA
:106C0400039B02F5E07243F82210019A039B02F5FC
:106C1400E07253F822109DF803301B04019A1943C3
:106C2400039B02F5E07243F8221000BF05B05DF843
:106C340004FB000000B583B00C4B1B78002B0FD075
:106C44000023019308E0019B022B02D00198FDF779
:106C5400A1FE019B01330193019B032BF3D901E0B6
:106C6400FDF7B2FE00BF03B05DF804FB1C35002045
:106C74002DE9D04F92B003468DF83F300023119395
:106C840000231093C94B1B78002B04D0C74A002360
:106C94001370FFF7CFFF9DF83F30172B00F23982B6
:106CA40001A252F823F000BF0D6D02001B6D02001B
:106CB4001B6D0200B76D0200536E0200CF6E02001E
:106CC400636F0200836F0200936F0200BD6F0200C6
:106CD400DB6F0200F96F02001770020025700200DA
:106CE4002570020025700200257002002570020044
:106CF400B9700200C7700200DB700200EF7002007E
:106D04000971020009710200FFF794FFA84A9DF877
:106D14003F301370FEE10020FDF7F4FD0346002B25
:106D24000DD00020FDF736FE9DF83F30022B02D136
:106D34004FF4E16301E04FF47A6310930BE0002019
:106D4400FDF70EFE9DF83F30022B01D1C82301E070
:106D54004FF4C8731093964A9DF83F301370954CC6
:106D6400109B0022009301924FF000024FF00003A9
:106D7400DDE900673946CB03314643EA51433146E6
:106D8400CA0312F5FA71029143F1000303934FF41D
:106D94007A724FF00003DDE902010AF009FB0246B2
:106DA4000B46134600221946204606F013F81190AC
:106DB400B0E10020FDF7A6FD0346002B0DD0002016
:106DC400FDF7E8FD9DF83F30032B02D14FF44873E3
:106DD40001E04FF47A6310930BE00020FDF7C0FD4F
:106DE4009DF83F30032B01D1C82301E04FF4C87351
:106DF40010936F4A9DF83F3013706E4C109B002225
:106E0400049305924FF000024FF00003DDE904679C
:106E14003946CB03314643EA51433146CA0312F59E
:106E2400FA71069143F1000307934FF47A724FF01D
:106E34000003DDE906010AF0BBFA02460B461346DD
:106E440000221946204605F0C5FF119062E100209A
:106E5400FDF758FD0346002B06D00020FDF79AFDF0
:106E64004FF47A63109305E00020FDF779FD4FF4A9
:106E7400C87310934E4A9DF83F3013704D4C109BCD
:106E840000229A4693464FF000024FF000034FEA67
:106E9400CB3343EA5A434FEACA3212F5FA710891E6
:106EA40043F1000309934FF47A724FF00003DDE9D4
:106EB40008010AF07DFA02460B46134600221946E1
:106EC400204605F087FF119024E10020FDF71AFD0C
:106ED4000346002B0CD00020FDF75CFD9DF83F30ED
:106EE400052B01D1C82301E04FF47A6310930BE022
:106EF4000020FDF735FD9DF83F30052B01D1C82357
:106F040001E04FF4C8731093294A9DF83F30137081
:106F1400284C109B0022984691464FF000024FF0F7
:106F240000034FEAC93343EA58434FEAC83212F523
:106F3400FA710A9143F100030B934FF47A724FF004
:106F44000003DDE90A010AF033FA02460B46134650
:106F540000221946204605F03DFF1190DAE000209A
:106F6400FDF758FD124A9DF83F301370114B002273
:106F740040F6CD41184605F02DFF1190CAE00020DF
:106F8400FDF7EEFC0A4A9DF83F301370C2E0074B50
:106F940001221A700120FDF73DFD064B002240F648
:106FA400CD41184605F016FF1190B3E015350020C9
:106FB4001435002020350020594B01221A7001207D
:106FC400FDF728FD574B00224FF48041184605F089
:106FD40001FF11909EE0524B01221A700120FDF72F
:106FE40019FD504B002240F6CD41184605F0F2FE43
:106FF40011908FE04A4B01221A700120FDF70AFD1F
:10700400484B00224FF48041184605F0E3FE1190EE
:1070140080E0FDF7ECFC444A9DF83F30137079E0C2
:10702400424B184605F008FF11909DF83F30C3F11C
:1070340011031093109B002B35D0119B002B32D1E0
:10704400109B012B28D9394C109B9BB21A46C8239C
:1070540002FB03F3DA171E4617464FF000024FF007
:107064000003FB0343EA5643F20312F5FA710C9151
:1070740043F100030D934FF47A724FF00003DDE9FE
:107084000C010AF095F902460B46134600221946F4
:10709400204605F09FFE11900220FDF761FC244B71
:1070A40001221A7036E00220FDF774FC204B002206
:1070B4001A702FE0FFF7BEFD1B4A9DF83F30137096
:1070C40028E0FFF7B7FD0020FDF74AFC164A9DF8BB
:1070D4003F3013701EE0FFF7ADFD0120FDF740FCCB
:1070E400114A9DF83F30137014E0FFF7A3FD002010
:1070F400FDF736FC0120FDF733FC0B4A9DF83F30C9
:10710400137007E0FDF773FC074A9DF83F301370D6
:1071140000E000BF119B184612B0BDE8D08F00BF3D
:10712400153500202035002014350020403500207E
:107134001C35002000B585B003468DF807300023C8
:107144000393084B1B6803F00103002B05D09DF843
:1071540007301846FFF78CFD0390039B184605B0D3
:107164005DF804FB1835002084B001900B468DF8BF
:10717400033013468DF8023000230393019B032B45
:107184003CD89DF80230012B0BD19DF80330012B24
:1071940004D1019BDBB20E33DBB200E000238DF897
:1071A40002309DF80330022B0FD0022B23DC002B7E
:1071B40016D0012B1FD11449019A13465B001344C6
:1071C4000B449DF802201A701AE00F49019A1346E5
:1071D4005B0013440B4401339DF802201A700FE046
:1071E4000949019A13465B0013440B4402339DF88A
:1071F40002201A7004E00723039301E0072303939A
:10720400039B184604B070476035002000B583B076
:1072140001900198FDF718FC034603211846FFF777
:10722400DBFC0023184603B05DF804FB00B583B013
:10723400012200210020FFF797FF0190019B002B02
:1072440004D0019B072B01D0019B1CE007220221E3
:107254000120FFF789FF0190019B002B04D0019BC3
:10726400072B01D0019B0EE0042202210020FFF72E
:107274007BFF0190019B002B04D0019B072B01D0C5
:10728400019B00E00023184603B05DF804FB00B541
:1072940083B0012202210020FFF766FF0190019BC9
:1072A400002B04D0019B072B01D0019B1CE007227B
:1072B40002210120FFF758FF0190019B002B04D00D
:1072C400019B072B01D0019B0EE00A220021002024
:1072D400FFF74AFF0190019B002B04D0019B072B71
:1072E40001D0019B00E00023184603B05DF804FBC5
:1072F40000B583B00020FFF789FF0190019B002BAC
:1073040004D0019B062B01D0019B0CE00120FFF768
:107314007DFF0190019B002B04D0019B062B01D023
:10732400019B00E00023184603B05DF804FB000055
:1073340000B585B001900091019B1B88102B02D0F1
:10734400112B18D02FE01A4B1B68002B0DD1FFF71F
:107354006DFF0390039B002B07D0164B1B68002B7B
:1073640003D0144B1B6803989847114B1B680133D7
:107374000F4A136017E00E4B1B68013B0C4A136065
:107384000B4B1B68002B0DD1FFF781FF0390039B70
:10739400002B07D0074B1B68002B03D0054B1B6841
:1073A4000398984700BF00BF05B05DF804FB00BF19
:1073B400703500206C35002010B586B00346ADF85A
:1073C40006300023ADF8163000230493594B1B6894
:1073D40000225A74574B1B6800229A76554B1B683F
:1073E40000221A83534B1B6800229A62514B1B687C
:1073F4000022DA624F4B1B6800221A634D4B1B6854
:1074040000225A6300F09AF803464B4A934202D092
:107414004FF0FF338AE000F00FFF002000F042FD40
:1074240004220021242000F064FB1E2000F0B8FB9D
:107434000346ADF81630BDF816301B0A9AB23D4B20
:107444001B68D2B25A72042000F0AAFB0490049B79
:10745400DBB2002B0DD0022212212D2000F049FBBB
:10746400344B1B681A8B334B1B6842F4805292B224
:107474001A83304B1C68062000F092FB03462360FD
:107484002C4B1C68072000F08BFB03466360BDF89F
:107494001630DAB2274B1B6802F01F02D2B21A74FC
:1074A400244B1B681B7C002B03D1224B1B6810222E
:1074B4001A74204B1B681B7C184600F0E1FEBDF8D3
:1074C400063003F00103002B0BD000F0B3FB194B83
:1074D4001B681A8B174B1B6842F4006292B21A8322
:1074E40013E00521362000F0D3FA0346ADF80E3040
:1074F400BDF80E3023F40073ADF80E30BDF80E3035
:107504001A460521362000F008FB012000F0CAFCD1
:1075140000220A212C2000F0ECFA064B1C68002102
:10752400042000F091FA034663610023184606B074
:1075340010BD00BF302B00203001CADE08B5002189
:10754400002000F081FA0346184608BD00B587B054
:10755400019000238DF8173000238DF81630019B1D
:107564001B788DF81330019B5B791A46AC4B33F8CA
:107574001230ADF81430019B5B78013B8DF812306A
:107584009DF81330042B03D09DF81330072B01D141
:10759400012300E000238DF81130019BDB79002BDF
:1075A4000DD1A04B1B685A699E4B1B6842F48002A4
:1075B4005A61BDF81430DB08ADF8143007E0994B7C
:1075C4001B685A69974B1B6822F480025A61954BD9
:1075D4001B68019A127A1A72924B1B685A69914B72
:1075E4001B6822F440325A618E4B1B685969019B17
:1075F4001B7A1B0403F440328A4B1B680A435A610A
:10760400884B1B685B691A460021042000F0A4FA29
:10761400BDF814301A4642F604012E2000F07DFA1B
:107624009DF81230184600F0E6FA9DF813307E4AB1
:10763400D35C1A467D4B53F822301A4607212B207F
:1076440000F08AFA9DF81330774AD35C1A46784BD7
:107654009B5C1A460B212B2000F04BFA9DF811304D
:10766400744AD35C1A460B21282000F042FA9DF894
:1076740013306D4AD35C1A466F4B53F822301A46C6
:107684000C21282000F068FA019BDB791846019B45
:107694009B791946694A43000B4432F813301A4661
:1076A4000221272000F039FA9DF81230644A32F89A
:1076B40013301A460421272000F02FFA019BDB79AE
:1076C400002B05D164220621272000F026FA18E0B9
:1076D400019B9B78042B0AD110220621272000F05D
:1076E4001CFA10222621272000F003FA09E02022A8
:1076F4000621272000F011FA28222621272000F055
:10770400F8F99DF81230019AD27811464D4A9B003F
:107714000B4452F823301A460821272000F01CFAA3
:10772400019B5B89002B03D1019B41F241025A81E9
:10773400019B5B891A462021272000F0EEF9424B79
:107744001B681A460C21232000F006FA9DF812301B
:107754003D4A5B0013449B881A460421232000F011
:10776400DCF9019B9B79002B0FD0019BDB791A4636
:10777400364B9B5C1A460021212000F0BAF9032302
:107784008DF8173001238DF816309DF8133003F06F
:107794000F029DF813301B01DBB21A43019B5B7887
:1077A4009B0403F440231A439DF817301B0503F48C
:1077B40040131A439DF816305B0403F400331A4354
:1077C400019B1B799B0503F0F8631A43019B5B79CA
:1077D400DB0613430393039A00211F2000F0BCF936
:1077E400019B9A78019B5B781343DBB21A04019BDB
:1077F400DB795B031A430B4B1B68DA60094B1B688C
:10780400DB681A460021082000F0A6F94222002174
:107814000D2000F06EF900BF07B05DF804FB00BF57
:10782400F82C0300302B0020782C0300982C030044
:10783400B02C0300B82C0300802C0300C82C0300D8
:10784400D42C0300D82C0300BC2C0300C42C03004C
:1078540000B583B00346ADF80630BDF806301A46CD
:1078640041F604012E2000F058F900BF03B05DF882
:1078740004FB00B583B00346ADF80630BDF806300E
:107884001A460021182000F048F900BF03B05DF843
:1078940004FB00B583B001900B46ADF802301346EB
:1078A400ADF80030BDF80220BDF80010019B112096
:1078B40000F06FF800BF03B05DF804FB00B583B0BF
:1078C4000190019B05220021152000F062F800BF01
:1078D40003B05DF804FB00B587B002920193034640
:1078E400ADF80E300B46ADF80C3000230593BDF80F
:1078F4000C30002B0DD1BDF80E30DAB2059B591CAB
:10790400059162F07F02D2B218336B4403F8082C5D
:1079140034E0BDF80E30DAB2059B591C059162F0D3
:107924003F02D2B218336B4403F8082CBDF80C3074
:107934007F2B0AD8059B5A1C0592BDF80C20D2B2A5
:1079440018336B4403F8082C18E0BDF80C30DAB295
:10795400059B591C059162F07F02D2B218336B4427
:1079640003F8082CBDF80C30DB0999B2059B5A1CAE
:107974000592CAB218336B4403F8082C059B98B2DD
:1079840004A9019B029A00F02DFE00BF07B05DF828
:1079940004FB00B587B0029201930346ADF80E30A4
:1079A4000B46ADF80C3000230593BDF80C30002BCA
:1079B4000AD1059B5A1C0592BDF80E20D2B2183389
:1079C4006B4403F8082C34E0BDF80E30DAB2059BA2
:1079D400591C059142F04002D2B218336B4403F8AB
:1079E400082CBDF80C307F2B0AD8059B5A1C059235
:1079F400BDF80C20D2B218336B4403F8082C18E0FD
:107A0400BDF80C30DAB2059B591C059162F07F0277
:107A1400D2B218336B4403F8082CBDF80C30DB09E0
:107A240099B2059B5A1C0592CAB218336B4403F8E9
:107A3400082C059B98B204A9019B029A00F030FD22
:107A440000BF07B05DF804FB00B587B0019000915A
:107A540000230593019B98B2009B99B203AB0422C7
:107A6400FFF797FF032304930AE0059B1B0203A976
:107A7400049A0A44127813440593049B013B04932B
:107A8400049B002BF1DA059B184607B05DF804FB54
:107A940000B585B0019000910023ADF80E30019B34
:107AA40098B2009B99B203AB0222FFF772FF9DF8D4
:107AB4000D301B029BB29DF80C201344ADF80E3020
:107AC400BDF80E30184605B05DF804FB00B585B06E
:107AD40001900091019B98B2009B99B20DF10F03A4
:107AE4000122FFF756FF9DF80F30184605B05DF8E8
:107AF40004FB00B585B00390029113468DF807305E
:107B0400039B98B2029B99B20DF107030122FFF780
:107B1400E2FE00BF05B05DF804FB00B587B003903A
:107B240002911346ADF80630BDF80630DBB28DF88D
:107B34001430BDF806301B0A9BB2DBB28DF8153049
:107B4400039B98B2029B99B205AB0222FFF7C3FED6
:107B540000BF07B05DF804FB00B587B00390029145
:107B64000192002305930CE0019BD9B204AA059B62
:107B740013440A461A70019B1B0A0193059B0133A7
:107B84000593059B032BEFDD039B98B2029B99B2EF
:107B940004AB0422FFF79FFE00BF07B05DF804FBAF
:107BA40000B585B00190019B9BB21A4604212D209B
:107BB400FFF7B3FF032206212D20FFF79AFF0022CF
:107BC40006212D20FFF795FF0A212D20FFF73CFF0A
:107BD4000390039B184605B05DF804FB08B500222A
:107BE40002212C20FFF785FF022202212C20FFF71F
:107BF40080FF00BF08BD00B583B001906D2240F640
:107C040006012E20FFF775FF019B002B07D040F2E1
:107C1400076241F606012E20FFF77FFF06E041F2DE
:107C2400076241F606012E20FFF777FF00BF03B07D
:107C34005DF804FB08B50E2000F034F94FF400425F
:107C440006212D20FFF769FF012000F0C9FD012066
:107C540000F028F900BF08BD00B585B001900021EF
:107C64001A20FFF7F1FE0390039B1B0D1B050393E2
:107C7400019BC3F31303039A13430393039A002151
:107C84001A20FFF769FF00BF05B05DF804FB000090
:107C940084B00390029101920093094B1B68039AEC
:107CA4009A62074B1B68029ADA62054B1B68019AB9
:107CB4001A63034B1B68009A5A6300BF04B07047F1
:107CC400302B002010B584B0744B1C6800210F20A9
:107CD400FFF7BAFE0346E361E3690293029B03F4F0
:107CE4008043002B73D04FF4DE4200210F20FFF7B6
:107CF40033FF6A4B1B68002283F8242000211020E4
:107D0400FFF7C6FE0346ADF80630BDF80630C3F3F0
:107D14000903ADF80E30614B1B681B7A002B05D1AB
:107D2400BDF80E3003F07F03ADF80E305B4B1B68DB
:107D3400BDF80E201A84BDF90630002B0ADA574B21
:107D44001B6893F82420554B1B6842F00102D2B201
:107D540083F82420514B1B68223302220021112076
:107D6400FFF717FE029B03F00803002B18D04B4BC0
:107D74001B6893F8223003F02003002B10D1082253
:107D840000210F20FFF7E8FE444B1B68DA69434BE0
:107D94001B6822F00802DA61404B1B6800229A76C5
:107DA4003E4B1B68DB6A002B07D03C4B1B68DB6A2D
:107DB4003A4A12681C3210469847384B1B685B7C61
:107DC400002B04D0012203210D20FFF792FE029B19
:107DD40003F08003002B1FD0F82200210F20FFF7AF
:107DE400BBFE029B03F00803002B08D02B4B1B683F
:107DF4009B7E002B03D000F00DF900F00FFA274B07
:107E04001B689B6A002B07D0244B1B689B6A234A80
:107E140012681C3210469847029B03F40813002B87
:107E24001AD04FF4003200210F20FFF795FE1B4BB0
:107E34001B6800229A7600F0EDF800F0EFF9174B7A
:107E44001B681B6B002B07D0144B1B681B6B134A5E
:107E540012681C3210469847029A114B1340002BAB
:107E640019D00F4A00210F20FFF776FE0B4B1B6839
:107E740000229A7600F0CEF800F0D0F9074B1B6888
:107E84005B6B002B07D0054B1B685B6B034A1268C6
:107E94001C321046984700BF04B010BD302B0020A0
:107EA4000090052400B585B0019003AB02220021A7
:107EB4003620FFF76EFD019B0E2B00F28D8001A290
:107EC40052F823F01B7F0200057F0200357F020079
:107ED400DD7F0200DD7F0200DD7F0200DD7F020026
:107EE4004F7F0200777F0200DD7F0200DD7F02000A
:107EF400957F0200A57F0200B57F0200CF7F0200BC
:107F040000238DF80C309DF80D3023F00103DBB213
:107F14008DF80D3061E09DF80C305BB223F0030363
:107F24005BB243F001035BB2DBB28DF80C3054E07A
:107F34009DF80C305BB223F003035BB243F0020301
:107F44005BB2DBB28DF80C3047E09DF80C305BB2CD
:107F540023F04C035BB243F048035BB2DBB28DF811
:107F64000C309DF80D3063F07F03DBB28DF80D30DB
:107F740033E09DF80C3023F04C03DBB28DF80C3069
:107F84009DF80D3003F07F03DBB28DF80D3024E053
:107F94009DF80D3043F00203DBB28DF80D301CE088
:107FA4009DF80D3023F00203DBB28DF80D3014E0A0
:107FB4009DF80C305BB223F030035BB243F0200336
:107FC4005BB2DBB28DF80C3007E001238DF80C3086
:107FD40003238DF80D3000E000BF03AB0122002124
:107FE4003620FFF778FC03AB013301220121362050
:107FF400FFF771FC00BF05B05DF804FB08B5002075
:10800400FFF750FF002204213620FFF786FD00BF52
:1080140008BD000000B583B000210E20FFF714FD59
:10802400019000F0E7FB0090002200210E20FFF7F2
:1080340093FD402200210D20FFF75BFD0B4A002138
:108044000F20FFF789FD00F015F8019A00210E209A
:10805400FFF782FD009800F0D0FB054B1B6800225F
:108064009A7600BF03B05DF804FB00BFF8FF272435
:10807400302B002000B583B003210F20FFF726FD2D
:1080840003468DF807309DF807209DF807305B0004
:10809400534003F08003002B04D0012203210D2060
:1080A400FFF727FD00BF03B05DF804FB00B585B002
:1080B4000190019B03F00403002B01D1FFF7DAFFC9
:1080C4004FF48073ADF80E30019B03F00103002BD5
:1080D40005D0BDF80E3043F40073ADF80E30BDF892
:1080E4000E301A4600210D20FFF717FD019B03F007
:1080F4000103002B1CD003210F20FFF7E7FC0346EC
:108104008DF80D309DF80D3003F00803002B0FD0CF
:10811400FFF780FF019B03F00203002B05D14FF40E
:10812400807200210D20FFF7F8FC4FF0FF3300E0D0
:108134000023184605B05DF804FB000000B585B0C7
:108144000346ADF8063003210420FFF7BFFC0346C5
:108154008DF80F30BDF80630002B1CD0BDF806306A
:108164001A4600210C20FFF7D8FC9DF80F3043F08D
:1081740010038DF80F30144B1B685A69124B1B689F
:1081840042F080525A619DF80F301A4603210420B0
:10819400FFF7AFFC14E09DF80F3023F010038DF8C7
:1081A4000F30094B1B685A69074B1B6822F0805239
:1081B4005A619DF80F301A4603210420FFF799FCF9
:1081C40000BF05B05DF804FB302B002000B585B07E
:1081D40001900B468DF8033000F00CFB0290002157
:1081E4000E20FFF731FC03909DF80330002B04D0E0
:1081F400039A019B1343039304E0019BDB43039A1B
:1082040013400393039A00210E20FFF7A5FC029864
:1082140000F0F3FA00BF05B05DF804FB08B5E022F6
:1082240003213620FFF765FCF02203213620FFF7F7
:1082340060FC00BF08BD000008B5FFF7DFFE0022A8
:1082440000212C20FFF769FC002206212C20FFF7D7
:1082540050FCFFF7C3FC002203213620FFF749FC42
:10826400012000F0BDFAF02203213620FFF741FC83
:10827400024B1B6800229A7600BF08BD302B0020F9
:1082840000B585B003468DF807309DF9073003F03B
:108294001F035BB243F060035BB28DF80F309DF8AF
:1082A4000F301A460E212B20FFF723FC00BF05B028
:1082B4005DF804FB00B583B00190019B1B681F2B84
:1082C40004D905494FF4E870FBF786F84FF0A04352
:1082D400184603B05DF804FB2C2D030000B585B0EF
:1082E4000190084611461A4603468DF803300B46A2
:1082F4008DF8023013468DF8013001AB1846FFF7B4
:10830400D9FF03909DF803209DF802305B001A43C7
:108314009DF801309B001A439DF818301B0242EA75
:1083240003019DF81C301B04019A1943039B02F5B9
:10833400E07243F8221000BF05B05DF804FB00B5FD
:1083440085B00390002301930023009300230122AE
:1083540001210398FFF7C2FF00BF05B05DF804FBDD
:1083640000B585B003900B468DF80B309DF80B30AB
:108374000022019200220092002200210398FFF7BC
:10838400ADFF00BF05B05DF804FB00B585B00190FA
:1083940001AB1846FFF78EFF0390019B012202FAFE
:1083A40003F31946039800F004F800BF05B05DF824
:1083B40004FB82B001900091019B009AC3F80C2544
:1083C40000BF02B07047000084B00190244B0393B7
:1083D400019B002B40D0234B1A680399019B00BFDB
:1083E40000BF00BF00BF00BF00BF00BF00BF8A4284
:1083F4002FD000BF00BF00BF00BF00BF00BF00BF41
:1084040000BF00BF00BF00BF00BF00BF00BF00BF70
:1084140000BF00BF00BF00BF00BF00BF00BF00BF60
:1084240000BF00BF00BF00BF00BF00BF00BF00BF50
:1084340000BF00BF00BF00BF00BF00BF00BF00BF40
:1084440000BF00BF00BF00BF00BF00BF00BF00BF30
:1084540000BF013BC3D1019300BF04B0704700BF0C
:108464000024F400342B002000B583B00190019B5C
:108474004FF47A7202FB03F31846FFF7A5FF00BF1F
:1084840003B05DF804FB000082B001900091034B3F
:1084940001221A7000BF02B0704700BFAC35002043
:1084A4002DE9F04F8FB002AF3961FA60BB6003462B
:1084B400FB826B461E460023FB62FB8AFA68134468
:1084C400FB62F96A0B46013BBB62002339607B60A7
:1084D4004FF000024FF000037868C300386843EAA5
:1084E40050733868C20000238A469B464FF000024E
:1084F4004FF000034FEACB0343EA5A734FEACA0230
:10850400CB1DDB08DB00ADEB030D02AB00337B625C
:10851400F96A0B46013B3B620023884699464FF0BB
:1085240000024FF000034FEAC90343EA58734FEACD
:10853400C80200230C461D464FF000024FF0000312
:10854400EB0043EA5473E200CB1DDB08DB00ADEB28
:10855400030D02AB0033FB61FA6A0021786A09F06B
:10856400DBFFFA6A0021F86909F0D6FF7B6ABB6178
:10857400FB8A1A463969B86909F09CFFFB8ABA6913
:108584001344BB61FA680021B86909F0C5FF134BB5
:1085940000221A70FB6ADAB2FB6ADBB20093FB6951
:1085A400796A0F4802F014F900BF0C4B1B78DBB258
:1085B40083F00103DBB2002BF7D1FB8AFA69134481
:1085C400BB61FA68B969B86809F074FF0023B5465D
:1085D40018463437BD46BDE8F08F00BFAC350020E7
:1085E400C02D03002DE9F04F8FB002AF3961FA605E
:1085F400BB600346FB826B461E460023FB62FB8A7C
:10860400FA681344FB62F96A0B46013BBB62002320
:1086140039607B604FF000024FF000037868C300BC
:10862400386843EA50733868C20000238A469B4680
:108634004FF000024FF000034FEACB0343EA5A73B2
:108644004FEACA02CB1DDB08DB00ADEB030D02AB26
:1086540000337B62F96A0B46013B3B620023884688
:1086640099464FF000024FF000034FEAC90343EA72
:1086740058734FEAC80200230C461D464FF000020F
:108684004FF00003EB0043EA5473E200CB1DDB0818
:10869400DB00ADEB030D02AB0033FB61FA6A002192
:1086A400786A09F039FFFA6A0021F86909F034FFA1
:1086B4007B6ABB61FB8A1A463969B86909F0FAFE1C
:1086C400FB8ABA691344BB61FA68B968B86909F0EE
:1086D400F1FE0E4B00221A70FB6ADAB2FB6ADBB2BF
:1086E4000093FB69796A0A4802F072F800BF074BED
:1086F4001B78DBB283F00103DBB2002BF7D100233C
:10870400B54618463437BD46BDE8F08FAC35002079
:10871400C02D030008B51820FFF711FE1820FFF73D
:1087240034FE0220FFF7A0FE00211820FFF718FEF8
:108734000220FFF799FE00BF08BD000010B586B007
:108744000E4B01AC0FCB84E80F0011238DF80730DA
:1087540001A900230A4A0B4801F034FF0590059B48
:10876400002B04D0084AD421059803F0CDFB022045
:10877400FFF77AFE00BF06B010BD00BFA02D0300B6
:108784008D840200C02D0300642D030010B586B053
:108794000F4801F0E3FF0F4B01AC0FCB84E80F004F
:1087A40011238DF8073001A900230B4A084801F072
:1087B40009FF0590059B002B04D0084AE021059889
:1087C40003F0A2FB0220FFF74FFE00BF06B010BD6E
:1087D400C02D0300B02D03008D840200642D03001E
:1087E40000B583B001900198FFF73EFE00BF03B0CF
:1087F4005DF804FB00231846704782B0019000BF67
:1088040002B07047BFF34F8F00BF074BDB6803F420
:10881400E0620549054B1343CB60BFF34F8F00BFA4
:1088240000BF00BFFCE700BF00ED00E00400FA0554
:10883400024B034A1A6000BF704700BF342B00206C
:108844000090D00308B500F05DF90346002B06D074
:108854009B4B1B681B0A9B4A03F01F03136000F029
:108864007DF90346002B02D0974B984A1A6000F01A
:1088740091F90346002B06D0954B1B685B0B954A78
:1088840003F00703136000F0B1F90346002B05D091
:10889400914BDB68904A23F08073D36000F0C2F9F7
:1088A4000346002B0ED04FF080430022C3F80C2166
:1088B4004FF080430022C3F810214FF08043002280
:1088C400C3F8382500F0DAF90346002B02D0834BB5
:1088D40003221A6000F0EEF90346002B0BD0804B04
:1088E40005221A607F4B01221A607F4B00221A6016
:1088F4007E4B3F221A6000F0F9F90346002B76D034
:108904004FF080537A4AD3F80434C2F820354FF03C
:108914008053774AD3F80834C2F824354FF0805393
:10892400734AD3F80C34C2F828354FF08053704A98
:10893400D3F81034C2F82C354FF080536C4AD3F876
:108944001434C2F830354FF08053694AD3F81834E0
:10895400C2F834354FF08053654AD3F81C34C2F85A
:1089640040354FF08053624AD3F82034C2F844357E
:108974004FF080535E4AD3F82434C2F848354FF0A0
:1089840080535B4AD3F82834C2F84C354FF08053F7
:10899400574AD3F82C34C2F850354FF08053544A18
:1089A400D3F83034C2F854354FF08053504AD3F8DA
:1089B4003434C2F860354FF080534D4AD3F838341C
:1089C400C2F864354FF08053494AD3F83C34C2F8B6
:1089D40068354FF08053464AD3F84034C2F86C35BA
:1089E4004FF08053424AD3F84434C2F8703500F053
:1089F40099F90346002B05D03E4B1B683E4A03F011
:108A04004F03136000F0BAF90346002B0DD04FF06A
:108A14008043D3F8003403F00103002B05D04FF05A
:108A240080436FF00102C3F80024344BD3F888303C
:108A3400324A43F47003C2F88830BFF34F8F00BF4B
:108A4400BFF36F8F00BF4FF01023D3F80032002B19
:108A540005DB4FF01023D3F80432002B2BDA284B1C
:108A64000122C3F8042500BF254BD3F80034002BA2
:108A7400FAD04FF010231522C3F8002200BF204B78
:108A8400D3F80034002BFAD04FF010231522C3F88A
:108A9400042200BF1A4BD3F80034002BFAD0184B31
:108AA4000022C3F8042500BF154BD3F80034002B73
:108AB400FAD0FFF7A7FEFFF7BBFE00BF08BD00BF5B
:108AC400240300104035014074C007400DF0ADBAD6
