:020000022000DC
:10300000000001203D310200DD300200DF3002000F
:10301000E1300200E3300200E53002000000000071
:10302000000000000000000000000000E730020087
:10303000E930020000000000EB300200ED30020039
:1030400005A30200F3300200CDCF0200F7300200EA
:1030500025B90200FB3002008DAD0200FF300200F6
:103060000131020003310200053102000731020084
:10307000093102000B3102000D3102000F31020054
:103080001131020055DD0200153102001731020036
:1030900095DD02001B310200897D03001F31020013
:1030A00021310200233102002531020027310200C4
:1030B000293102002B310200EF300200EF30020014
:1030C0002D3102002F310200313102003331020074
:0C30D000353102003731020039310200B6
:1030DC00FEE7FEE7FEE7FEE7FEE7FEE7FEE7FEE7BC
:1030EC00FEE7FEE7FEE7FEE7FEE7FEE7FEE7FEE7AC
:1030FC00FEE7FEE7FEE7FEE7FEE7FEE7FEE7FEE79C
:10310C00FEE7FEE7FEE7FEE7FEE7FEE7FEE7FEE78B
:10311C00FEE7FEE7FEE7FEE7FEE7FEE7FEE7FEE77B
:10312C00FEE7FEE7FEE7FEE7FEE7FEE7FEE700BF91
:10313C000F484FF00701884385460E4880470E48DC
:10314C00016841F470010160BFF34F8FBFF36F8FC3
:10315C0000F01AB809480A490A4A884207D0521A9C
:10316C0005D0037801300B700131013AF9D1704769
:10317C0000000120B574020088ED00E064A9030092
:10318C00682A0020442B00203A493B480A1A02D0F6
:10319C00072291438D46394939480A1A06D007222D
:1031AC00914381F30988022282F314883548364909
:1031BC00364A00F041F836483649374A00F03CF8B8
:1031CC0036483749374A00F037F837483749384AD4
:1031DC0000F032F837483849384A00F02DF83848B2
:1031EC003849394A00F028F838483949394A00F04A
:1031FC0023F839483949002200F036F83848394963
:10320C00002200F031F838483849091A17F0C5F88F
:10321C00374A904725482649884205D00268043031
:10322C0003B4904703BCF7E700208646EC46002029
:10323C000021304A9047FEE7884214D0521A12D02F
:10324C0003460B4313430324234206D10368043083
:10325C000B600431043AF9D17047037801300B70DC
:10326C000131013AF9D17047884202D00270013025
:10327C00FAE770470000012000F800200000012050
:10328C000000012038DB0300442B0020202D0020FF
:10329C0004330200043302001AA8030038DB0300D5
:1032AC00442B0020442B002040AA030040AA03001A
:1032BC0040AA030040AA030040AA030040AA03004E
:1032CC0040AA030040AA030035DB030014DD030011
:1032DC00202D0020202D0020202D002040460020F5
:1032EC00404600204446002044460020444800202C
:0832FC00613102007F4C020069
:1033040076DF704700BF18467ADF704700BF184663
:103314007CDF704700BF18467FDF704700BF184648
:103324008FDF704700BF184690DF704700BF184614
:10333400A8DF704700BF1846A9DF704700BF1846D2
:1033440066DF704700BF184632DF704700BF18467B
:103354003EDF704700BF184600B585B001900023DA
:10336400ADF80A3005E0BDF80A3001339BB2ADF880
:103374000A30BDF80A301A46019B13441B78002B0F
:10338400F1D10DF10A031A460199054806F026FE0B
:1033940003460393039B184605B05DF804FB00BF86
:1033A400202D002000B583B003460091ADF806300F
:1033B400BDF80630009A1946034809F019FE00BF0B
:1033C40003B05DF804FB00BFEFBEADDE00B587B00F
:1033D4009DF80030012262F303038DF800309DF85C
:1033E4000030012262F307138DF800306B4605228A
:1033F4001A491846FFF78CFF0590059B0493049B1C
:10340400002B04D0164AA821049809F0F1FD01AB61
:1034140008220021184617F017F91023ADF80430DC
:103424003C23ADF806300023ADF808304FF4C873E0
:10343400ADF80A3001AB1846FFF766FF0590059B0F
:103444000393039B002B04D0054AB221039809F08F
:10345400CFFD00BF07B05DF804FB00BF40AA030026
:1034640048AA030000B587B00190019B1B78002B8C
:1034740041D10023059328E0019B9A68059B1344DE
:103484001B7818460AF042FD0490049B002B16D0CA
:10349400049B112B13D01A4B1B881B0443F001030C
:1034A400049A1849184613F0E1FB049B0393039B09
:1034B400002B04D0144AD221039809F099FD049BEF
:1034C400112BD9D0059B01330593019B9B891A4687
:1034D400059B9342D0D3019B9A68019B9B89013B36
:1034E40013441B780D2B06D100BF0A200AF00EFDF1
:1034F4000346112BF9D000BF07B05DF804FB00BFF1
:10350400682A00209CAA030048AA030000B585B0DD
:1035140001AB04220021184617F096F80A4B0193D8
:1035240001AB1946094806F001FD0390039B029381
:10353400029B002B04D0064AEC21029809F058FDA6
:1035440000BF05B05DF804FB69340200202D0020A3
:1035540048AA030000B585B00190019B1B78002B9D
:1035640011D10B4B1B883B211846FFF7C9FE039072
:10357400039B0293029B002B05D0064A4FF48171F2
:10358400029809F035FD00BF05B05DF804FB00BFEB
:10359400442B002048AA030000B583B00190054ADB
:1035A40040F20D11019809F023FD00BF03B05DF84E
:1035B40004FB00BF48AA030000B58BB001AB1C227A
:1035C4000021184617F040F8002301934FF42033EC
:1035D40002934FF47023039303238DF810300023D8
:1035E400ADF8123000238DF814300C4B06930C4BBD
:1035F400079301AB184605F013FD0990099B089346
:10360400089B002B05D0074A4FF49271089809F0E3
:10361400EFFC00BF0BB05DF804FB00BF593502009E
:103624009D35020048AA030000B585B0002002F0D1
:10363400B7FB0390039B0293029B002B05D0134A14
:1036440040F22F11029809F0D3FC02F087FC03909A
:10365400039B0193019B002B05D00C4A40F23311CC
:10366400019809F0C5FCFFF76FFE0390039B0093DC
:10367400009B002B05D0054A40F23711009809F051
:10368400B7FC00BF05B05DF804FB00BF48AA030007
:1036940000B585B003468DF807309DF80730002B40
:1036A40011D0032B12D1022002F07AFB0390039B6A
:1036B4000293029B002B0BD0084A40F24911029856
:1036C40009F096FC04E0FFF7AFFF02E000BF00E062
:1036D40000BF00BF05B05DF804FB00BF48AA0300AB
:1036E40010B598B001900091019B1B88232B00F327
:1036F4009180002B40DC93E13B3B1B2B00F290813B
:1037040001A252F823F000BF3D390200253A02001D
:10371400253A0200253A0200253A0200253A020021
:10372400253A0200253A0200253A0200253A020011
:10373400253A0200253A0200253A0200253A020001
:10374400253A0200253A0200253A0200253A0200F1
:10375400253A0200253A0200253A0200253A0200E1
:10376400AF39020013390200253A0200253A02005B
:10377400253A020063390200013B222B00F25081FA
:1037840001A252F823F000BF89390200253A020051
:10379400253A0200253A0200253A0200253A0200A1
:1037A400253A0200253A0200253A0200253A020091
:1037B400253A0200253A0200253A0200253A020081
:1037C400253A02002738020061380200253A020037
:1037D400B3380200253A0200253A0200253A0200D5
:1037E400253A0200253A0200253A0200253A020051
:1037F400253A0200253A0200253A0200253A020041
:10380400253A0200253A02007D380200253A0200DA
:10381400DD380200562B00F303813B2BBFF66CAF5F
:10382400FEE0894B1B881B0443F0030387491846B9
:1038340013F00EFA072002F0B3FA1790179B0F93B8
:103844000F9B002B05D0824A4FF4B1710F9809F0F9
:10385400CFFB019B9A887F4B1A80F2E07A4B1B883E
:103864001B0443F003037C49184613F0F1F9794B28
:103874004FF6FF721A80E4E000238DF83430002301
:103884008DF83530019B9B880DAA11461846FFF729
:1038940047FD1790179B1193119B002B00F0C280DA
:1038A4006B4A4FF4BB71119809F0A2FBBAE0694B63
:1038B4001888002300228521FFF72EFD1790179BFF
:1038C4001093109B002B00F0AF80614A40F27D11F1
:1038D400109809F08DFBA7E00BAB082200211846D5
:1038E40016F0B2FE019B9B880BA900221846FFF735
:1038F4001BFD1790179B1293129B002B00F09680D0
:10390400534A40F28711129809F072FB8EE0514B32
:103914001888002300220021FFF70EFD1790179B43
:103924001593159B002B00F08380494A40F28D11BA
:10393400159809F05DFB7BE0019B9B8813211846D9
:10394400FFF7DEFC1790179B1393139B002B71D08A
:103954003F4A4FF4CA71139809F04AFB6AE0019B8D
:103964009B8813211846FFF7CBFC1790179B1693DF
:10397400169B002B60D0364A40F29B11169809F032
:1039840037FB59E0019B9B8800211846FFF7D8FCC0
:103994001790179B0E930E9B002B4FD02C4A4FF47D
:1039A400D0710E9809F024FB48E0019B07AC063364
:1039B400186859689A68DB680FC49DF81C30002B9E
:1039C4003ED09DF82430042B07D09DF82430062BDC
:1039D40003D09DF82430052B32D19DF81C30022BE6
:1039E40003D102238DF80C3002E001238DF80C3052
:1039F4004FF4C173ADF81030019B9B8803AA1146A4
:103A04001846FFF795FC1790179B1493149B002BF3
:103A140016D00F4A40F2BB11149809F0E9FA0FE0EE
:103A240000BF0EE000BF0CE000BF0AE000BF08E0EA
:103A340000BF06E000BF04E000BF02E000BF00E0FA
:103A440000BF00BF18B010BD682A0020C8AA030038
:103A540048AA0300442B0020D4AA030000B587B071
:103A640014F0CCF80590059B0493049B002B05D01F
:103A7400164A4FF4E871049809F0BAFA0023019346
:103A840001AB1946012014F0B3F90590059B03938B
:103A9400039B002B05D00D4A4FF4EB71039809F0FA
:103AA400A7FA01AB184614F0B3FA0590059B0293EC
:103AB400029B002B05D0054A4FF4ED71029809F0E2
:103AC40097FA00BF07B05DF804FB00BF48AA0300E3
:103AD40000B583B001900091009B5A88104B1B885D
:103AE4009A4218D1009B1B8840F67722934212D148
:103AF400009B9B88033B9AB20A4B1A800A4B1B8893
:103B04001B0443F00300074B1B881A46054B1B8814
:103B1400064913F0BCF800BF03B05DF804FB00BF16
:103B2400442B0020462B0020682A0020E4AA03002E
:103B340000B585B01149124805F02EFF0390039B90
:103B44000293029B002B05D00E4A40F2F511029815
:103B540009F04EFA40210A4805F049FF0390039BFF
:103B64000193019B002B05D0064A4FF4FC71019888
:103B740009F03EFA00BF05B05DF804FBD53A020037
:103B84003C2D002048AA030000B5ABB06B46A02230
:103B94000021184616F058FD02238DF8003000234A
:103BA4008DF8023005238DF803300123ADF84C3035
:103BB400114B149301238DF87C3040232293B423BA
:103BC40023930E4B26936B4619460D4804F09BFE37
:103BD4002990299B2893289B002B05D0094A40F261
:103BE4008A21289809F004FA0121054804F07EFE90
:103BF40000BF2BB05DF804FB482B00209536020073
:103C0400502D002048AA030000B583B0002012F014
:103C1400B1FD0190019B0093009B002B05D0064A47
:103C240040F2A721009809F0E3F912F001FD00BF6A
:103C340003B05DF804FB00BF48AA030000B583B0DD
:103C4400FFF786FB0190019B0093009B002B05D09E
:103C5400044A40F2B221009809F0CAF900BF03B047
:103C64005DF804FB48AA030000B585B00AF096F895
:103C74000390039B0293029B002B05D0134A4FF43D
:103C84002F71029809F0B4F9FFF7BEFFFFF7E6FEC3
:103C9400FFF79CFBFFF74CFFFFF738FCFFF774FFBF
:103CA400FFF78AFC03210A4804F03CFF0390039BBE
:103CB4000193019B002B05D0044A40F2CD210198C9
:103CC40009F096F900BF05B05DF804FB48AA0300AB
:103CD400502D002008B513F015F8FFF7AFFF00BF13
:103CE40008BD82B00190019B9B6893F83D31C3F3FA
:103CF4004003DBB2002B14BF01230023DBB21846C0
:103D040002B0704730B58DB0124B02AC1D460FCDDA
:103D14000FC495E80F0084E80F00052302930B23DA
:103D2400039300238DF81C3002A90323009301237D
:103D3400012209480FF028F80B900B9B0A930A9B69
:103D4400002B04D0054A69210A9809F051F900BFF3
:103D54000DB030BDB0AB030058B2030064AB030038
:103D640000B583B008480FF04DF80190019B009313
:103D7400009B002B04D0054A7021009809F038F903
:103D840000BF03B05DF804FB58B2030064AB03004A
:103D940008B502480FF082F800BF08BD58B203000E
:103DA40000B587B0059004910392039B0193049B93
:103DB4000093039B044A022105980FF0D7F800BF33
:103DC40007B05DF804FB00BFD0AB030000B585B0BD
:103DD40003900291029B0093029B044A02210398E0
:103DE4000FF0C4F800BF05B05DF804FB04AC030099
:103DF40000B58DB00790069105920493069B9BB283
:103E0400ADF82030059B9BB2ADF82230049B09939A
:103E14000E9B03339B080A930E9B0293049B01930E
:103E2400059B0093069B0D4A002107980FF09EF80E
:103E340008AB194600200BF057FF0B900B9B002B8F
:103E440008D0074A0B9B52F82330064A02210798F0
:103E54000FF08CF800BF0DB05DF804FB38AC030024
:103E6400F82B002084AC030000B58DB001900091C4
:103E740008AB00221A605A609A6006AB00221A60EE
:103E84005A6006AB08AA47F210014FF210000BF07B
:103E9400C2FF0346002B1FD14FF21003ADF80C30C4
:103EA40047F21003ADF80E30009B049306230593EC
:103EB40003AA08AB114618460BF025FF0B900B9B89
:103EC400002B0ED0094A0B9B52F82330084A0221DA
:103ED40001980FF04BF804E0064A022101980FF014
:103EE40045F800BF0DB05DF804FB00BFF82B0020BF
:103EF400B0AC0300DCAC030000B58DB005900491B8
:103F0400039209AB00221A605A6006AB00221A60C1
:103F14005A609A60039B0093049B184A00210598F9
:103F24000FF024F8049B98B2039B99B209AB06AA3C
:103F34000BF071FF0346002B18D106AB18460BF0AB
:103F4400F7FE0B900B9B002B09D00D4A0B9B52F8EC
:103F540023300C4A022105980FF008F80BE0069B69
:103F6400094A002105980FF001F804E0074A0221EC
:103F740005980EF0FBFF0DB05DF804FB04AD0300E3
:103F8400F82B002030AD03005CAD030070AD0300DE
:103F940000B587B003AB00221A605A606B4600225A
:103FA4001A605A609A6003AA6B46114618460BF0D1
:103FB40023FF0346002B0BD16B4618460BF0B8FECB
:103FC4000590059B002B01D0002302E0012300E0B3
:103FD4000023184607B05DF804FB000000B585B067
:103FE4000390029101920398FFF77BFE0346002B96
:103FF40005D00022002103980FF0E8F80FE0029B9F
:10400400022B04D008490398FFF7E0FE07E0019B68
:1040140004331B68044A19460398FFF7C1FE00BF26
:1040240005B05DF804FB00BF8CAD030000B593B090
:104034000790069105920CAB00221A605A609A60B0
:104044000AAB00221A605A605BE008AB00221A60D7
:104054005A6008AA0CAB114618460BF0C1FD11902A
:10406400119B0D2B09D0119B0D2B12D8119B002BEA
:1040740019D0119B0A2B06D00BE02A4A022107987B
:104084000EF074FF3DE0284A022107980EF06EFFFF
:1040940037E0264A119B52F82330254A022107981B
:1040A4000EF064FF2DE000BF099B1093109B1B7D55
:1040B400002B01D01F4800E01F48109B5B7D002BA4
:1040C40001D01C4B00E01C4B109A1268109904316B
:1040D4000291019200930346184A002107980EF0BA
:1040E40045FF0CAB18460BF0B7FD1190119B0F93D5
:1040F4000F9B002B05D0124A4FF4A2710F9808F0C1
:1041040077FF0AAB0CAA47F210014FF210000BF034
:1041140082FE0346002B98D000BF00BF13B05DF8A9
:1041240004FB00BF94AD030070AD0300F82B002026
:10413400B0AD0300D0AD0300D4AD0300D8AD03008F
:1041440064AB030000B593B00790069105920DABE4
:1041540000221A605A600AAB00221A605A609A6000
:10416400344A002107980EF001FF54E008AB002206
:104174001A605A6008AA0AAB114618460BF030FDC3
:104184001190119B0D2B09D0119B0D2B12D8119B53
:10419400002B19D0119B0A2B06D00BE0264A0221D2
:1041A40007980EF0E3FE36E0244A022107980EF049
:1041B400DDFE30E0224A119B52F82330214A0221CD
:1041C40007980EF0D3FE26E000BF089B5B889B0097
:1041D4001093089B9A68089B9B881946089B1B8828
:1041E4001846109B0293019000911346164A002131
:1041F40007980EF0BBFE0AAB18460BF02DFD11908C
:10420400119B0F930F9B002B05D0104A4FF4BF71E5
:104214000F9808F0EDFE0DAA0AAB114618460BF0F4
:10422400EBFD03460A2BA1D100BF00BF13B05DF81C
:1042340004FB00BF14AE030094AD030070AD030093
:10424400F82B0020B0AD030038AE030064AB0300CC
:1042540000B589B00590049103920598FFF741FDDC
:104264000346002B05D00022002105980EF0AEFF76
:1042740049E0049B042B04D025490598FFF7A6FDCB
:1042840041E0039B04331B6810220021184613F0FD
:10429400A7FF0346ADF81E30039B08331B681022AA
:1042A4000021184613F09CFF0346ADF81C30039B15
:1042B4000C331B68184616F0D5F80346FF2B07D8B5
:1042C400039B0C331B68184616F0CCF8034601E038
:1042D4004FF4807306934FF4807200210D4816F05A
:1042E400B3F9039B0C331B68069A1946094816F068
:1042F40079F9BDF81E10BDF81C20069B0093054BF0
:104304000598FFF775FD00BF09B05DF804FB00BF19
:1043140060AE0300E431002000B58BB00790069135
:1043240005920798FFF7DDFC0346002B05D0002219
:10433400002107980EF04AFF6DE0069B052B04D080
:1043440037490798FFF742FD65E0059B04331B6876
:104354003449184616F0FAF80346002B0CBF012323
:104364000023DAB2304B1A75059B08331B682D49BC
:10437400184616F0EBF80346002B0CBF012300236C
:10438400DAB2294B5A75059B0C331B680A220021AB
:10439400184613F025FF03461A46234B1A60059B63
:1043A40010331B68184616F05DF803460F2B08D827
:1043B400059B10331B68184616F054F803469BB24D
:1043C40000E01023ADF82630059B10331B68BDF8C0
:1043D40026201946154816F005F9134B1B7D002BB2
:1043E40001D0104900E012490F4B5B7D002B01D036
:1043F4000C4B00E00E4B0C4A12680C4802900192E0
:1044040000930B460B4A002107980EF0AFFD0649B6
:104414000798FFF729FD00BF0BB05DF804FB00BF50
:1044240068AE0300D0AD0300E4320020E83200207F
:10443400D4AD030070AE030000B587B003900291C1
:1044440001920398FFF74DFC0346002B05D0002290
:10445400002103980EF0BAFE20E0029B022B04D840
:1044640010490398FFF7B2FC18E0019B04331B6862
:1044740010220021184613F0B3FE03460593019B56
:1044840008331B6810220021184613F0A9FE0346C6
:104494000493049A05990398FFF72EFD00BF07B013
:1044A4005DF804FBB4AE030000B585B0039002913F
:1044B40001920398FFF715FC0346002B05D0002258
:1044C400002103980EF082FE09E0029B012B04D028
:1044D40005490398FFF77AFC01E000F0B3F900BF47
:1044E40005B05DF804FB00BFBCAE030070B592B02C
:1044F4000990089107920998FFF7F3FB0346002BF4
:1045040005D00022002109980EF060FE3AE00BABC2
:1045140000221A605A609A60DA601A820BAB18465D
:104524000BF090FC1190119B1093109B002B05D065
:10453400164A40F2F711109808F05AFDBDF82C30D5
:104544001E46BDF830301A46BDF832301344BDF86B
:1045540030201146BDF832201046BDF838201446EC
:10456400BDF83A201546BDF83A209200059204950C
:1045740003940290019100933346054A002109985F
:104584000EF0F4FC00BF12B070BD00BF64AB0300BA
:10459400C8AE030000B587B00390029101920BF0FE
:1045A400FBFB0590059B002B09D0074A059B52F89D
:1045B4002330064A022103980EF0D8FC00E000BF25
:1045C40000BF07B05DF804FBF82B002048AF0300E0
:1045D40000B591B00590049103920AAB00221A60D1
:1045E4005A609A6008AB00221A605A60049B98B221
:1045F400039B99B208AB0AAA0BF00DFC0346002BEF
:1046040037D106AA0AAB114618460BF0E9FA0F9007
:104614000F9B002B23D1079B0E93069B5B889B006B
:104624000D934FF480720021184816F00DF80D9B7D
:10463400FF2B28BFFF231A460E99144815F0D2FF0A
:10464400124B0193039B0093049B114A002105988C
:104654000EF08CFC0AAB18460BF0FEFA11E00D4A82
:104664000F9B52F823300C4A022105980EF07EFC71
:1046740007E0039B0093049B084A022105980EF06F
:1046840075FC00BF11B05DF804FB00BFFC320020D4
:1046940070AF0300F82B00209CAF0300C4AF0300ED
:1046A40000B587B00390029101920398FFF719FBBC
:1046B4000346002B05D00022002103980EF086FD4E
:1046C40020E0029B032B04D010490398FFF77EFBE4
:1046D40018E0019B04331B6810220021184613F0D4
:1046E4007FFD03460593019B08331B6810220021BC
:1046F400184613F075FD03460493049A059903982C
:10470400FFF766FF07B05DF804FB00BFF4AF0300DA
:104714003EDF704700BF184600B583B00190404BA0
:104724001B881B0443F00300019B1B781A463D4B76
:1047340053F822301946019B5B683B4A52F82330F8
:104744000A463A4912F0A3FA019B1B78032B34D092
:10475400032B5BDC002B02D0012B08D056E0019B1D
:104764005B68002B54D1324B01221A7050E0019B3C
:104774005B68002B4ED12A4B1B881B0443F00300BB
:10478400019B9B681A462B4912F070FA244B1B8834
:104794001B0443F00300019B9B891A46264912F02F
:1047A40065FA1F4B1B881B0443F00300019BDB8944
:1047B4001A46224912F05AFA2CE0019B5B68002B3E
:1047C40020D1174B1B881B0443F00300019B9B68FB
:1047D4001A46184912F04AFA114B1B881B0443F07D
:1047E4000300019B9B891A46134912F03FFA0C4BB4
:1047F4001B881B0443F00300019BDB891A460F4905
:1048040012F034FA0E4B00225A7004E000BF02E0AA
:1048140000BF00E000BF00BF03B05DF804FB00BFB1
:10482400682A0020382C0020F82B002028B503002B
:104834007A34002048B503005CB503006CB503006E
:1048440078340020024B01221A7000BF704700BF69
:104854007834002008B5164B1B781A46144B5B7845
:1048640083F00103DBB21340002B1ED0114B1B88D5
:104874001B0443F003031049184612F0E9F9FFF74B
:1048840087FB03461A460A4B1A70094B1B7883F0C0
:104894000103DBB2002B08D0064B1B881B0443F03A
:1048A40003030649184612F0D3F900BF08BD00BF40
:1048B40078340020682A002080B5030098B50300EE
:1048C40000B583B009F06AFA0190019B0093009B44
:1048D400002B04D0044AEA21009808F089FB00BFA9
:1048E40003B05DF804FB00BFBCB5030008B5FFF7D7
:1048F4000FFF00BF08BD000008B501E0FFF7F6FF99
:10490400054B1B78DBB283F00103DBB2002BF5D13E
:1049140000BF00BF08BD00BF7A34002000B59BB0C3
:10492400FFF7CEFFFFF7EEF9A74B1B881B0443F0FC
:104934000303A649184612F08BF9A5480BF052F868
:10494400A14B1B881B0443F00303A249184612F031
:104954007FF90BF0B5F81990199B1893189B002B4D
:1049640005D09D4A40F22111189808F041FBFFF749
:10497400C3FF954B1B881B0443F003039749184658
:1049840012F066F9904B1B881B0443F0030394490F
:10499400184612F05DF98C4B1B881B0443F003038B
:1049A4009049184612F054F9874B1B881B0443F0B6
:1049B40003038D49184612F04BF9834B1B881B04E3
:1049C40043F003038949184612F042F97E4B1B88D1
:1049D4001B0443F003038649184612F039F97A4B55
:1049E4001B881B0443F003038249184612F030F974
:1049F400754B1B881B0443F003037F49184612F0D0
:104A040027F9714B1B881B0443F003037B491846A9
:104A140012F01EF96C4B1B881B0443F00303784906
:104A2400184612F015F90DAB00221A605A609A600C
:104A3400DA601A820DAB18460BF004FA1990199B30
:104A44001793179B002B05D0634A40F23511179832
:104A540008F0CEFA5C4B1B881B0443F00303BDF83B
:104A640038206849184612F001F9574B1B881B047B
:104A740043F00303BDF83A206349184612F0F6F8F0
:104A84000AAB00221A605A609A6008AB00221A60CE
:104A94005A6008AB0AAA47F210014FF210000BF05B
:104AA400BAF91990199B002B4DD106AB00221A605C
:104AB4005A6006AA0AAB114618460BF091F81990F1
:104AC400199B1593159B002B05D0434A4FF4A371F2
:104AD400159808F08DFA079B182219464B4815F0D3
:104AE40081FD394B1B881B0443F00303474A1268BA
:104AF4004749184612F0BAF8444B1B680133434A3D
:104B040013600AAB18460BF0A7F81990199B14937D
:104B1400149B002B05D0304A4FF4A971149808F067
:104B240067FA0AAB3B4918460BF0EDF81990199B4C
:104B34001393139B002B20D0274A4FF4AB71139887
:104B440008F056FA19E0204B1B881B0443F00303BA
:104B54003149184612F07CF80AAB2E4918460BF07E
:104B6400C3F81990199B1693169B002B05D01A4A6B
:104B74004FF4AF71169808F03BFA08AB0AAA01216A
:104B840001200BF048F91990199B002B48D0012300
:104B9400ADF80C300123ADF80E30204B04931E23E6
:104BA400059303AA0AAB114618460BF09DF8199019
:104BB400199B1293129B002B45D0074A4FF4B571F1
:104BC400129808F015FA3EE0682A002010B6030097
:104BD4001D47020028B60300BCB503003CB6030021
:104BE40050B603006CB6030090B60300B0B60300E1
:104BF400C8B60300E4B6030000B7030020B70300FF
:104C040040B7030064B703007CB70300502C0020B6
:104C1400B4B70300FCB70300E4B703007C2B002007
:104C240001AB00221A605A6001AA0AAB1146184669
:104C34000AF0D6FF1990029B064A104619467B23B8
:104C44001A4615F0CFFCFFF78BF800BF1BB05DF8D8
:104C540004FB00BFFC33002008B512F053F80346F0
:104C640083F00103DBB2002B01D0FFF73FFEFFF717
:104C74008FF8FFF7EFFD00BF08BD08B5FEF7F4FF9E
:104C8400FFF74CFE00F08EFAFFF724F8FFF7E4FF7D
:104C940000F058F8F8E7000000B583B00190019BDC
:104CA4001B681F2B04D905494FF4E870FEF77AFB03
:104CB4004FF0A043184603B05DF804FB08B80300A6
:104CC40000B585B00190084611461A4603468DF892
:104CD40003300B468DF8023013468DF8013001ABDA
:104CE4001846FFF7D9FF03909DF803209DF8023082
:104CF4005B001A439DF801309B001A439DF818305D
:104D04001B0242EA03019DF81C301B04019A19435B
:104D1400039B02F5E07243F8221000BF05B05DF872
:104D240004FB00B585B00390002301930023009396
:104D34000023012201210398FFF7C2FF00BF05B041
:104D44005DF804FB2DE9F04FADF5377D824B1B7800
:104D5400002B00F0F9800023B59320E07F49B59A39
:104D640013465B0013441B010B44043319687B484E
:104D7400B59A13465B0013441B0103442833D3E95B
:104D8400002362A8CDE900230A46754914F037FCD4
:104D940062AB1846FEF7E0FAB59B0133B593714B4D
:104DA4001B68B59A9A42D9DB0023B49348E0B49BBC
:104DB4005A1C6A4913465B0013441B010B442833F5
:104DC400D3E9002310466549B49A13465B001344A3
:104DD4001B010B442833D3E900231346C11AB49BA7
:104DE4005A1C5E4813465B0013441B0103441833EA
:104DF40018685A4B4F93B49A13465B0013441B0133
:104E04004F9A134418331B68C31A1B02CB1A194652
:104E1400B6ABA3F5BC73B49A43F82210B6ABA3F5B2
:104E2400BC73B49A53F8223062A8B49A4E4914F071
:104E3400E6FB62AB1846FEF78FFAB49B0133B493DA
:104E4400484B1B68013BB49A9A42B0DB0023B393EE
:104E54005BE04249B39A13465B0013441B010B44C5
:104E64000C331B68DA171C461546B6ABA3F5A871BC
:104E7400B39A13465B001344DB000B44C3E90045BB
:104E84003649B39A13465B0013441B010B44103399
:104E94001B68DA171E461746B6ABA3F5A871B39A7A
:104EA40013465B001344DB000B440833C3E900677B
:104EB4002A49B39A13465B0013441B010B44143371
:104EC4001B68DA1798469146B6ABA3F5A871B39A56
:104ED40013465B001344DB000B441033C3E9008921
:104EE400B6ABA3F5BC73B39A53F82230DA179A46DB
:104EF4009346B6ABA3F5A872B39B1E33DB001344F1
:104F0400C3E900ABB39B0133B393164B1B68B39A4D
:104F14009A429EDB134B1B681E46B6ABA3F5CC75B9
:104F2400B6ABA3F5A874684604F108034FF49C7269
:104F3400194615F057FB94E80C003146284600F05A
:104F440077FA054B00221A70012002F07FFA00BFA5
:104F54000DF5377DBDE8F08F0C35002018350020A5
:104F640050B803001035002064B80300F0B587B0D2
:104F74004FF000024FF00003CDE9042301AB1846C3
:104F840001F0D2FA042303931EE0DDE904014FF09B
:104F940000024FF000030B0243EA10630202CDE962
:104FA400042301AA039B13441B78DBB200221C4692
:104FB4001546DDE9042342EA040643EA0507CDE980
:104FC4000467039B013B0393039B002BDDDADDE9BC
:104FD40004231046194607B0F0BD000010B59CB07C
:104FE4000190284B01221A600021102001F062FB7D
:104FF400034603F07F031B931B9B7E2B06D81B9B4E
:105004009BB200221946204801F079FA4FF47A70D5
:1050140001F0CAFE002001F07FFE1C4813F0A6F93F
:1050240004221B49184815F0F8F90346002B25D132
:10503400184B1A6813465B0013441B01164A1344A9
:1050440024221149184615F0CDFA124B1C68FFF7BB
:105054008DFF114A23465B0023441B01134428336C
:10506400C3E900010B4B1B6801330A4A1360094B67
:105074001B68132B02DD074B00221A6000BF1CB013
:1050840010BD00BF003500207C34002074B803003C
:1050940024B90300D83800201835002000B583B0A7
:1050A40001900D4B01221A60002001F07DFE0020CA
:1050B40001F032FE094813F059F9094B1B68094AFB
:1050C4001360074B00221A60074B01221A7000BFBD
:1050D40003B05DF804FB00BF043500208CB8030066
:1050E400D8380020103500200C35002000B583B0DE
:1050F4000190054B01221A60002001F00DFE00BF53
:1051040003B05DF804FB00BF0835002082B00190B5
:10511400024B01221A6000BF02B07047FC34002029
:1051240000B583B001900B468DF8033001F000FC0C
:1051340000BF03B05DF804FB00B585B005F02CFD9D
:105144000346002B03D0134813F010F901E005F0D7
:10515400DBFC114B1B68019300238DF8053001AB78
:105164000E4A1946132005F023FD0390039B029376
:10517400029B002B05D00A4A40F2B511029807F0B1
:1051840037FF0121132005F077FD00BF05B05DF85E
:1051940004FB00BFA4B8030020B90300255102009A
:1051A400CCB8030000B583B0002301930EE00122C4
:1051B400019B02FA03F31A46244B1340002B02D03E
:1051C4000198FFF7AEFD019B01330193019B1F2B57
:1051D400EDD94FF0A0431D4AC3F80C254FF0A0436E
:1051E4000022C3F80825FFF7A7FF02F0C9F802F070
:1051F400DBF8012000F016FF0346B3F1FF3F00D1B6
:10520400FEE702F0F9F8124800F0D6FF114B124AFB
:105214001249134801F072FB0121124801F00CFEFF
:1052240044F2480001F04AF944F2480001F057F909
:10523400642001F047FB002001F0B6FD002001F0DE
:105244006BFD00BF03B05DF804FB00BF000040C06D
:10525400682C0020F1500200A1500200E14F02002E
:105264001151020080D02304F0B589B08DED060BF6
:105274008DED041B8DED022B8DED003BDDE902234A
:10528400DDE9060113F018FE02460B4614461D46DE
:10529400DDE90223DDE9060113F00EFE02460B46AA
:1052A4002046294613F00CFE02460B4614461D46C2
:1052B400DDE90023DDE9040113F0FEFD02460B469F
:1052C40016461F46DDE90023DDE9040113F0F4FD71
:1052D40002460B463046394613F0F2FD02460B46B1
:1052E4002046294613F0C8FC02460B4643EC172B14
:1052F400B0EE470AF0EE670A13F018FAB0EE407AFF
:10530400F0EE607AB0EE470AF0EE670A09B0F0BD3D
:105314000000000000B593B08DED040B8DED021B71
:105324000190424B93ED007B404B93ED026BB0EE4A
:10533400463AF0EE663AB0EE472AF0EE672A9DED63
:10534400021B9DED040BFFF78FFF8DED0C0B4FF04F
:1053540000024FF00003CDE9102301230F9353E023
:10536400324A0F9B1B01134493ED007B2F4A0F9B82
:105374001B011344083393ED006BB0EE463AF0EE94
:10538400663AB0EE472AF0EE672A9DED021B9DEDCA
:10539400040BFFF769FF8DED0A0BDDE90C23DDE952
:1053A4000A0113F089FD02460B46104619461DA357
:1053B400D3E9002313F01CFE02460B46CDE9082373
:1053C4000F9B03F10053013BDB00019A1344D3E923
:1053D4000023DDE9080113F06FFD02460B46CDE919
:1053E4000623DDE90623DDE9060113F069FD024623
:1053F4000B46DDE9100113F03FFC02460B46CDE9F4
:1054040010230F9B01330F930F9B022BA8DDDDE9C3
:10541400102343EC172BB0EE470AF0EE670A13B0E3
:105424005DF804FB0000000000707540782C00203B
:1054340082B030B597B0019000911AA981E80C00B0
:105444004FF000024FF00003CDE914234FF00002A7
:105454004FF00003CDE912234FF0FF323F4BCDE96B
:1054640010234FF000024FF00003CDE90E2345E076
:105474004FF000024FF00003CDE90C2329E056ABB6
:1054840018469DED0C1B9DED0E0BFFF743FF8DEDB4
:105494000A0BDDE91023DDE90A0113F0FBFE0346E4
:1054A400002B0BD0DDE90A23CDE91023DDE90E231F
:1054B400CDE91423DDE90C23CDE912234FF00002DA
:1054C400274BDDE90C0113F0D7FB02460B46CDE96F
:1054D4000C234FF00002234BDDE90C0113F06AFEAC
:1054E4000346002BCBD14FF000021D4BDDE90E012A
:1054F40013F0C2FB02460B46CDE90E234FF0000227
:10550400184BDDE90E0113F055FE0346002BAFD115
:10551400DDE9140113F0DAFE02460B46CDE902235D
:10552400DDE9120113F0D2FE02460B46CDE9042355
:105534004FF000024FF00003CDE90623019B1D4606
:1055440002AC0FCC0FC594E80F0085E80F0001985A
:1055540017B0BDE8304002B0704700BFFFFFEF7FD7
:105564000000F03F0000594000B583B00190019B5A
:105574001B681F2B04D905494FF4E870FDF712FF8F
:105584004FF0A043184603B05DF804FB28B90300AC
:1055940000B585B0019001AB1846FFF7E5FF039015
:1055A400019B012202FA03F31946039800F069F8FB
:1055B40000BF05B05DF804FB00B585B0019001ABF8
:1055C4001846FFF7D1FF0390019B012202FA03F36F
:1055D4001946039800F05FF800BF05B05DF804FBBE
:1055E40000B585B0019001AB1846FFF7BDFF0390ED
:1055F400039BD3F804350293029BDA43019B0121F8
:1056040001FA03F31A40039BC3F80825019B012206
:105614009A40029B1A40039BC3F80C2500BF05B0B7
:105624005DF804FB00B583B001900091009B002B52
:1056340003D10198FFF7C0FF02E00198FFF7A8FF2C
:1056440000BF03B05DF804FB00B585B0019001AB69
:105654001846FFF789FF0390039800F00AF8024602
:10566400019B22FA03F303F00103184605B05DF829
:1056740004FB82B00190019BD3F80435184602B0B4
:10568400704782B001900091019B009AC3F80825ED
:1056940000BF02B0704782B001900091019B009A54
:1056A400C3F80C2500BF02B07047000000B585B0F8
:1056B4000190019B032B03D911493720FDF772FE9A
:1056C400104A019B13441B781846FFF7BDFF03469D
:1056D400002B14BF012300238DF80F309DF80F30E9
:1056E400002B14BF01230023DBB283F00103DBB2E0
:1056F40003F00103DBB2184605B05DF804FB00BFFC
:1057040070B90300B8B9030000B583B00190019BE0
:10571400032B03D907493E20FDF744FE064A019BAB
:1057240013441B7800211846FFF77CFF00BF03B029
:105734005DF804FB70B90300B8B9030000B583B089
:105744000190019B032B03D907494420FDF72AFE4E
:10575400064A019B13441B7801211846FFF762FF98
:1057640000BF03B05DF804FB70B90300B8B90300CF
:1057740000B583B00023019305E00198FFF7DEFF35
:10578400019B01330193019B032BF6D900BF00BF9A
:1057940003B05DF804FB00B583B00023019305E07A
:1057A4000198FFF7B1FF019B01330193019B032B88
:1057B400F6D900BF00BF03B05DF804FB00B583B0A9
:1057C4000190019B032B03D907495C20FDF7EAFDF7
:1057D400064A019B13441B781846FFF701FF00BFDC
:1057E40003B05DF804FB00BF70B90300B8B903004F
:1057F40000B583B00190019B032B03D90549A22076
:10580400FDF7D0FD044A019B13441B78184603B0EE
:105814005DF804FB70B90300BCB9030000B583B0A4
:105824000190019B1B681F2B04D905494FF4E870B4
:10583400FDF7B8FD4FF0A043184603B05DF804FB34
:10584400C0B9030000B585B001900B468DF8033054
:1058540001AB1846FFF7E2FF0390019A039B02F5A0
:10586400E07253F82230019A23F44031039B02F58D
:10587400E07243F82210019A039B02F5E07253F898
:1058840022109DF803301B04019A1943039B02F56F
:10589400E07243F8221000BF05B05DF804FB00007D
:1058A40000B583B00C4B1B78002B0FD00023019361
:1058B40008E0019B022B02D00198FFF73FFF019BF8
:1058C40001330193019B032BF3D901E0FFF750FF50
:1058D40000BF03B05DF804FBE43800202DE9D04F8D
:1058E40092B003468DF83F300023119300231093A8
:1058F400C94B1B78002B04D0C74A00231370FFF751
:10590400CFFF9DF83F30172B00F2398201A252F8E5
:1059140023F000BF79590200875902008759020019
:10592400235A0200BF5A02003B5B0200CF5B020015
:10593400EF5B0200FF5B0200295C0200475C02008F
:10594400655C0200835C0200915C0200915C0200D1
:10595400915C0200915C0200915C0200255D0200F2
:10596400335D0200475D02005B5D0200755D02006D
:10597400755D0200FFF794FFA84A9DF83F3013704D
:10598400FEE10020FFF792FE0346002B0DD000201D
:10599400FFF7D4FE9DF83F30022B02D14FF4E163B0
:1059A40001E04FF47A6310930BE00020FFF7ACFEA4
:1059B4009DF83F30022B01D1C82301E04FF4C87396
:1059C4001093964A9DF83F301370954C109B00221B
:1059D400009301924FF000024FF00003DDE90067ED
:1059E4003946CB03314643EA51433146CA0312F5E3
:1059F400FA71029143F1000303934FF47A724FF06A
:105A04000003DDE9020113F0EFFC02460B461346E6
:105A140000221946204608F025FA1190B0E1002032
:105A2400FFF744FE0346002B0DD00020FFF786FE4F
:105A34009DF83F30032B02D14FF4487301E04FF43B
:105A44007A6310930BE00020FFF75EFE9DF83F3071
:105A5400032B01D1C82301E04FF4C87310936F4A9C
:105A64009DF83F3013706E4C109B002204930592F6
:105A74004FF000024FF00003DDE904673946CB0321
:105A8400314643EA51433146CA0312F5FA7106918D
:105A940043F1000307934FF47A724FF00003DDE9FA
:105AA400060113F0A1FC02460B46134600221946D8
:105AB400204608F0D7F9119062E10020FFF7F6FDC7
:105AC4000346002B06D00020FFF738FE4FF47A631C
:105AD400109305E00020FFF717FE4FF4C8731093EE
:105AE4004E4A9DF83F3013704D4C109B00229A464D
:105AF40093464FF000024FF000034FEACB3343EAE2
:105B04005A434FEACA3212F5FA71089143F100037D
:105B140009934FF47A724FF00003DDE9080113F0A2
:105B240063FC02460B46134600221946204608F041
:105B340099F9119024E10020FFF7B8FD0346002BEA
:105B44000CD00020FFF7FAFD9DF83F30052B01D162
:105B5400C82301E04FF47A6310930BE00020FFF7B1
:105B6400D3FD9DF83F30052B01D1C82301E04FF44C
:105B7400C8731093294A9DF83F301370284C109B2A
:105B84000022984691464FF000024FF000034FEA7E
:105B9400C93343EA58434FEAC83212F5FA710A91FD
:105BA40043F100030B934FF47A724FF00003DDE9E5
:105BB4000A0113F019FC02460B461346002219464B
:105BC400204608F04FF91190DAE00020FFF7F6FDC7
:105BD400124A9DF83F301370114B002240F6CD411C
:105BE400184608F03FF91190CAE00020FFF78CFD39
:105BF4000A4A9DF83F301370C2E0074B01221A7025
:105C04000120FFF7DBFD064B002240F6CD4118468C
:105C140008F028F91190B3E0DD380020DC380020CA
:105C2400E8380020594B01221A700120FFF7C6FD05
:105C3400574B00224FF48041184608F013F9119095
:105C44009EE0524B01221A700120FFF7B7FD504B22
:105C5400002240F6CD41184608F004F911908FE077
:105C64004A4B01221A700120FFF7A8FD484B00227D
:105C74004FF48041184608F0F5F8119080E0FFF7E2
:105C84008AFD444A9DF83F30137079E0424B184630
:105C940008F01AF911909DF83F30C3F111031093E5
:105CA400109B002B35D0119B002B32D1109B012B64
:105CB40028D9394C109B9BB21A46C82302FB03F324
:105CC400DA171E4617464FF000024FF00003FB039D
:105CD40043EA5643F20312F5FA710C9143F10003BF
:105CE4000D934FF47A724FF00003DDE90C0113F0C9
:105CF4007BFB02460B46134600221946204608F059
:105D0400B1F811900220FFF7FFFC244B01221A7016
:105D140036E00220FFF712FD204B00221A702FE01C
:105D2400FFF7BEFD1B4A9DF83F30137028E0FFF7D4
:105D3400B7FD0020FFF7E8FC164A9DF83F301370CA
:105D44001EE0FFF7ADFD0120FFF7DEFC114A9DF8D0
:105D54003F30137014E0FFF7A3FD0020FFF7D4FCDD
:105D64000120FFF7D1FC0B4A9DF83F30137007E088
:105D7400FFF711FD074A9DF83F30137000E000BFA4
:105D8400119B184612B0BDE8D08F00BFDD3800204B
:105D9400E8380020DC38002008390020E4380020EE
:105DA40000B585B003468DF8073000230393084BF4
:105DB4001B6803F00103002B05D09DF8073018463B
:105DC400FFF78CFD0390039B184605B05DF804FBB8
:105DD400E038002084B001900B468DF80330134660
:105DE4008DF8023000230393019B032B3CD89DF8CC
:105DF4000230012B0BD19DF80330012B04D1019B00
:105E0400DBB20E33DBB200E000238DF802309DF8E4
:105E14000330022B0FD0022B23DC002B16D0012BD6
:105E24001FD11449019A13465B0013440B449DF897
:105E340002201A701AE00F49019A13465B001344BA
:105E44000B4401339DF802201A700FE00949019AAE
:105E540013465B0013440B4402339DF802201A706E
:105E640004E00723039301E007230393039B1846ED
:105E740004B070472839002000B583B00190019820
:105E8400FFF7B6FC034603211846FFF7DBFC0023AB
:105E9400184603B05DF804FB00B583B0012200216D
:105EA4000020FFF797FF0190019B002B04D0019B7A
:105EB400072B01D0019B1CE0072202210120FFF7E0
:105EC40089FF0190019B002B04D0019B072B01D07B
:105ED400019B0EE0042202210020FFF77BFF0190CA
:105EE400019B002B04D0019B072B01D0019B00E0F8
:105EF4000023184603B05DF804FB00B583B001220B
:105F040002210020FFF766FF0190019B002B04D0C3
:105F1400019B072B01D0019B1CE0072202210120D9
:105F2400FFF758FF0190019B002B04D0019B072B26
:105F340001D0019B0EE00A2200210020FFF74AFF56
:105F44000190019B002B04D0019B072B01D0019BE6
:105F540000E00023184603B05DF804FB00B583B0ED
:105F64000020FFF789FF0190019B002B04D0019BC7
:105F7400062B01D0019B0CE00120FFF77DFF01906F
:105F8400019B002B04D0019B062B01D0019B00E058
:105F94000023184603B05DF804FB000000B585B08B
:105FA40001900091019B1B88102B02D0112B18D05B
:105FB4002FE01A4B1B68002B0DD1FFF76DFF0390E8
:105FC400039B002B07D0164B1B68002B03D0144BEC
:105FD4001B6803989847114B1B6801330F4A1360E1
:105FE40017E00E4B1B68013B0C4A13600B4B1B68FC
:105FF400002B0DD1FFF781FF0390039B002B07D0EB
:10600400074B1B68002B03D0054B1B68039898476C
:1060140000BF00BF05B05DF804FB00BF38390020A5
:106024003439002010B586B00346ADF8063000239D
:10603400ADF8163000230493594B1B6800225A74A0
:10604400574B1B6800229A76554B1B6800221A8313
:10605400534B1B6800229A62514B1B680022DA6280
:106064004F4B1B6800221A634D4B1B6800225A6376
:1060740000F09AF803464B4A934202D04FF0FF33A4
:106084008AE000F00FFF002000F042FD042200210E
:10609400242000F064FB1E2000F0B8FB0346ADF89A
:1060A4001630BDF816301B0A9AB23D4B1B68D2B2AB
:1060B4005A72042000F0AAFB0490049BDBB2002B6C
:1060C4000DD0022212212D2000F049FB344B1B6815
:1060D4001A8B334B1B6842F4805292B21A83304BB2
:1060E4001C68062000F092FB034623602C4B1C68BE
:1060F400072000F08BFB03466360BDF81630DAB26C
:10610400274B1B6802F01F02D2B21A74244B1B687F
:106114001B7C002B03D1224B1B6810221A74204BCA
:106124001B681B7C184600F0E1FEBDF8063003F046
:106134000103002B0BD000F0B3FB194B1B681A8B27
:10614400174B1B6842F4006292B21A8313E00521D4
:10615400362000F0D3FA0346ADF80E30BDF80E3009
:1061640023F40073ADF80E30BDF80E301A46052145
:10617400362000F008FB012000F0CAFC00220A21AE
:106184002C2000F0ECFA064B1C680021042000F0DF
:1061940091FA034663610023184606B010BD00BFA0
:1061A400A82C00203001CADE08B50021002000F030
:1061B40081FA0346184608BD00B587B00190002354
:1061C4008DF8173000238DF81630019B1B788DF85D
:1061D4001330019B5B791A46AC4B33F81230ADF89F
:1061E4001430019B5B78013B8DF812309DF813301D
:1061F400042B03D09DF81330072B01D1012300E0B9
:1062040000238DF81130019BDB79002B0DD1A04BBD
:106214001B685A699E4B1B6842F480025A61BDF8A0
:106224001430DB08ADF8143007E0994B1B685A6949
:10623400974B1B6822F480025A61954B1B68019AA4
:10624400127A1A72924B1B685A69914B1B6822F49A
:1062540040325A618E4B1B685969019B1B7A1B049F
:1062640003F440328A4B1B680A435A61884B1B680B
:106274005B691A460021042000F0A4FABDF814302A
:106284001A4642F604012E2000F07DFA9DF81230E1
:10629400184600F0E6FA9DF813307E4AD35C1A469D
:1062A4007D4B53F822301A4607212B2000F08AFA3E
:1062B4009DF81330774AD35C1A46784B9B5C1A4698
:1062C4000B212B2000F04BFA9DF81130744AD35C5B
:1062D4001A460B21282000F042FA9DF813306D4A2B
:1062E400D35C1A466F4B53F822301A460C212820EF
:1062F40000F068FA019BDB791846019B9B791946EB
:10630400694A43000B4432F813301A46022127200D
:1063140000F039FA9DF81230644A32F813301A4604
:106324000421272000F02FFA019BDB79002B05D1F3
:1063340064220621272000F026FA18E0019B9B78AE
:10634400042B0AD110220621272000F01CFA102267
:106354002621272000F003FA09E020220621272025
:1063640000F011FA28222621272000F0F8F99DF8E0
:106374001230019AD27811464D4A9B000B4452F8D0
:1063840023301A460821272000F01CFA019B5B8960
:10639400002B03D1019B41F241025A81019B5B898D
:1063A4001A462021272000F0EEF9424B1B681A46BA
:1063B4000C21232000F006FA9DF812303D4A5B00C0
:1063C40013449B881A460421232000F0DCF9019B26
:1063D4009B79002B0FD0019BDB791A46364B9B5CD3
:1063E4001A460021212000F0BAF903238DF8173052
:1063F40001238DF816309DF8133003F00F029DF839
:1064040013301B01DBB21A43019B5B789B0403F43A
:1064140040231A439DF817301B0503F440131A4315
:106424009DF816305B0403F400331A43019B1B7977
:106434009B0503F0F8631A43019B5B79DB06134366
:106444000393039A00211F2000F0BCF9019B9A7862
:10645400019B5B781343DBB21A04019BDB795B037A
:106464001A430B4B1B68DA60094B1B68DB681A463E
:106474000021082000F0A6F9422200210D2000F09E
:106484006EF900BF07B05DF804FB00BF88BA0300D3
:10649400A82C002008BA030028BA030040BA03005D
:1064A40048BA030010BA030058BA030064BA0300E0
:1064B40068BA03004CBA030054BA030000B583B0B1
:1064C4000346ADF80630BDF806301A4641F604011D
:1064D4002E2000F058F900BF03B05DF804FB00B5AE
:1064E40083B00346ADF80630BDF806301A460021E5
:1064F400182000F048F900BF03B05DF804FB00B5B4
:1065040083B001900B46ADF802301346ADF800306D
:10651400BDF80220BDF80010019B112000F06FF8B7
:1065240000BF03B05DF804FB00B583B00190019B8C
:1065340005220021152000F062F800BF03B05DF8C9
:1065440004FB00B587B0029201930346ADF80E3008
:106554000B46ADF80C3000230593BDF80C30002B2E
:106564000DD1BDF80E30DAB2059B591C059162F0CD
:106574007F02D2B218336B4403F8082C34E0BDF820
:106584000E30DAB2059B591C059162F03F02D2B27B
:1065940018336B4403F8082CBDF80C307F2B0AD851
:1065A400059B5A1C0592BDF80C20D2B218336B44DB
:1065B40003F8082C18E0BDF80C30DAB2059B591C1E
:1065C400059162F07F02D2B218336B4403F8082CB1
:1065D400BDF80C30DB0999B2059B5A1C0592CAB26E
:1065E40018336B4403F8082C059B98B204A9019B4B
:1065F400029A00F02DFE00BF07B05DF804FB00B561
:1066040087B0029201930346ADF80E300B46ADF805
:106614000C3000230593BDF80C30002B0AD1059BE8
:106624005A1C0592BDF80E20D2B218336B4403F8FD
:10663400082C34E0BDF80E30DAB2059B591C0591E4
:1066440042F04002D2B218336B4403F8082CBDF870
:106654000C307F2B0AD8059B5A1C0592BDF80C20E0
:10666400D2B218336B4403F8082C18E0BDF80C3090
:10667400DAB2059B591C059162F07F02D2B218333D
:106684006B4403F8082CBDF80C30DB0999B2059B68
:106694005A1C0592CAB218336B4403F8082C059BA4
:1066A40098B204A9019B029A00F030FD00BF07B024
:1066B4005DF804FB00B587B00190009100230593B9
:1066C400019B98B2009B99B203AB0422FFF797FF9A
:1066D400032304930AE0059B1B0203A9049A0A44BA
:1066E400127813440593049B013B0493049B002BF1
:1066F400F1DA059B184607B05DF804FB00B585B0D8
:10670400019000910023ADF80E30019B98B2009BDC
:1067140099B203AB0222FFF772FF9DF80D301B0202
:106724009BB29DF80C201344ADF80E30BDF80E302A
:10673400184605B05DF804FB00B585B001900091E2
:10674400019B98B2009B99B20DF10F030122FFF750
:1067540056FF9DF80F30184605B05DF804FB00B5F0
:1067640085B00390029113468DF80730039B98B2CD
:10677400029B99B20DF107030122FFF7E2FE00BF6D
:1067840005B05DF804FB00B587B003900291134691
:10679400ADF80630BDF80630DBB28DF81430BDF824
:1067A40006301B0A9BB2DBB28DF81530039B98B2FE
:1067B400029B99B205AB0222FFF7C3FE00BF07B0EC
:1067C4005DF804FB00B587B00390029101920023A9
:1067D40005930CE0019BD9B204AA059B13440A4615
:1067E4001A70019B1B0A0193059B01330593059BBA
:1067F400032BEFDD039B98B2029B99B204AB0422F6
:10680400FFF79FFE00BF07B05DF804FB00B585B03D
:106814000190019B9BB21A4604212D20FFF7B3FF80
:10682400032206212D20FFF79AFF002206212D20A6
:10683400FFF795FF0A212D20FFF73CFF0390039BF0
:10684400184605B05DF804FB08B5002202212C208F
:10685400FFF785FF022202212C20FFF780FF00BFF3
:1068640008BD00B583B001906D2240F606012E20CC
:10687400FFF775FF019B002B07D040F2076241F63A
:1068840006012E20FFF77FFF06E041F2076241F682
:1068940006012E20FFF777FF00BF03B05DF804FB6D
:1068A40008B50E2000F034F94FF4004206212D20E3
:1068B400FFF769FF012000F0C9FD012000F028F96D
:1068C40000BF08BD00B585B0019000211A20FFF774
:1068D400F1FE0390039B1B0D1B050393019BC3F364
:1068E4001303039A13430393039A00211A20FFF717
:1068F40069FF00BF05B05DF804FB000084B003909D
:10690400029101920093094B1B68039A9A62074B08
:106914001B68029ADA62054B1B68019A1A63034BDF
:106924001B68009A5A6300BF04B07047A82C00206B
:1069340010B584B0744B1C6800210F20FFF7BAFE19
:106944000346E361E3690293029B03F48043002B53
:1069540073D04FF4DE4200210F20FFF733FF6A4B60
:106964001B68002283F8242000211020FFF7C6FEB4
:106974000346ADF80630BDF80630C3F30903ADF89D
:106984000E30614B1B681B7A002B05D1BDF80E300D
:1069940003F07F03ADF80E305B4B1B68BDF80E208F
:1069A4001A84BDF90630002B0ADA574B1B6893F89A
:1069B4002420554B1B6842F00102D2B283F82420F4
:1069C400514B1B682233022200211120FFF717FECE
:1069D400029B03F00803002B18D04B4B1B6893F861
:1069E400223003F02003002B10D1082200210F20B5
:1069F400FFF7E8FE444B1B68DA69434B1B6822F03F
:106A04000802DA61404B1B6800229A763E4B1B68F1
:106A1400DB6A002B07D03C4B1B68DB6A3A4A1268DE
:106A24001C3210469847384B1B685B7C002B04D003
:106A3400012203210D20FFF792FE029B03F0800345
:106A4400002B1FD0F82200210F20FFF7BBFE029B72
:106A540003F00803002B08D02B4B1B689B7E002BF4
:106A640003D000F00DF900F00FFA274B1B689B6A66
:106A7400002B07D0244B1B689B6A234A12681C32E4
:106A840010469847029B03F40813002B1AD04FF4C6
:106A9400003200210F20FFF795FE1B4B1B680022DC
:106AA4009A7600F0EDF800F0EFF9174B1B681B6BBA
:106AB400002B07D0144B1B681B6B134A12681C3243
:106AC40010469847029A114B1340002B19D00F4AD5
:106AD40000210F20FFF776FE0B4B1B6800229A76ED
:106AE40000F0CEF800F0D0F9074B1B685B6B002B6D
:106AF40007D0054B1B685B6B034A12681C321046B7
:106B0400984700BF04B010BDA82C002000900524B5
:106B140000B585B0019003AB022200213620FFF7B7
:106B24006EFD019B0E2B00F28D8001A252F823F022
:106B3400876B0200716B0200A16B0200496C0200BA
:106B4400496C0200496C0200496C0200BB6B0200F4
:106B5400E36B0200496C0200496C0200016C020004
:106B6400116C0200216C02003B6C020000238DF8C2
:106B74000C309DF80D3023F00103DBB28DF80D309D
:106B840061E09DF80C305BB223F003035BB243F089
:106B940001035BB2DBB28DF80C3054E09DF80C308D
:106BA4005BB223F003035BB243F002035BB2DBB2DC
:106BB4008DF80C3047E09DF80C305BB223F04C03A9
:106BC4005BB243F048035BB2DBB28DF80C309DF846
:106BD4000D3063F07F03DBB28DF80D3033E09DF8A8
:106BE4000C3023F04C03DBB28DF80C309DF80D30E3
:106BF40003F07F03DBB28DF80D3024E09DF80D30F7
:106C040043F00203DBB28DF80D301CE09DF80D302B
:106C140023F00203DBB28DF80D3014E09DF80C3044
:106C24005BB223F030035BB243F020035BB2DBB210
:106C34008DF80C3007E001238DF80C3003238DF818
:106C44000D3000E000BF03AB012200213620FFF726
:106C540078FC03AB0133012201213620FFF771FCDC
:106C640000BF05B05DF804FB08B50020FFF750FF36
:106C7400002204213620FFF786FD00BF08BD000076
:106C840000B583B000210E20FFF714FD019000F041
:106C9400E7FB0090002200210E20FFF793FD402225
:106CA40000210D20FFF75BFD0B4A00210F20FFF7A9
:106CB40089FD00F015F8019A00210E20FFF782FDEE
:106CC400009800F0D0FB054B1B6800229A7600BFA9
:106CD40003B05DF804FB00BFF8FF2724A82C0020B4
:106CE40000B583B003210F20FFF726FD03468DF87E
:106CF40007309DF807209DF807305B00534003F0F0
:106D04008003002B04D0012203210D20FFF727FD6F
:106D140000BF03B05DF804FB00B585B00190019B92
:106D240003F00403002B01D1FFF7DAFF4FF4807363
:106D3400ADF80E30019B03F00103002B05D0BDF824
:106D44000E3043F40073ADF80E30BDF80E301A4621
:106D540000210D20FFF717FD019B03F00103002B19
:106D64001CD003210F20FFF7E7FC03468DF80D30FC
:106D74009DF80D3003F00803002B0FD0FFF780FFC0
:106D8400019B03F00203002B05D14FF48072002114
:106D94000D20FFF7F8FC4FF0FF3300E00023184606
:106DA40005B05DF804FB000000B585B00346ADF8FE
:106DB400063003210420FFF7BFFC03468DF80F3093
:106DC400BDF80630002B1CD0BDF806301A46002151
:106DD4000C20FFF7D8FC9DF80F3043F010038DF81A
:106DE4000F30144B1B685A69124B1B6842F08052D7
:106DF4005A619DF80F301A4603210420FFF7AFFCB7
:106E040014E09DF80F3023F010038DF80F30094B78
:106E14001B685A69074B1B6822F080525A619DF81F
:106E24000F301A4603210420FFF799FC00BF05B078
:106E34005DF804FBA82C002000B585B001900B463A
:106E44008DF8033000F00CFB029000210E20FFF7B8
:106E540031FC03909DF80330002B04D0039A019B6E
:106E64001343039304E0019BDB43039A134003930E
:106E7400039A00210E20FFF7A5FC029800F0F3FA14
:106E840000BF05B05DF804FB08B5E02203213620FD
:106E9400FFF765FCF02203213620FFF760FC00BFFA
:106EA40008BD000008B5FFF7DFFE002200212C20FA
:106EB400FFF769FC002206212C20FFF750FCFFF7A6
:106EC400C3FC002203213620FFF749FC012000F017
:106ED400BDFAF02203213620FFF741FC024B1B6868
:106EE40000229A7600BF08BDA82C002000B585B00A
:106EF40003468DF807309DF9073003F01F035BB29A
:106F040043F060035BB28DF80F309DF80F301A46E2
:106F14000E212B20FFF723FC00BF05B05DF804FB16
:106F240000B583B00190019B1B681F2B04D9054950
:106F34004FF4E870FCF736FA4FF0A043184603B05C
:106F44005DF804FBBCBA030000B585B001900846A7
:106F540011461A4603468DF803300B468DF802306D
:106F640013468DF8013001AB1846FFF7D9FF0390A3
:106F74009DF803209DF802305B001A439DF8013010
:106F84009B001A439DF818301B0242EA03019DF846
:106F94001C301B04019A1943039B02F5E07243F869
:106FA400221000BF05B05DF804FB00B585B0039066
:106FB400002301930023009300230122012103985D
:106FC400FFF7C2FF00BF05B05DF804FB00B585B054
:106FD40003900B468DF80B309DF80B300022019284
:106FE40000220092002200210398FFF7ADFF00BFAA
:106FF40005B05DF804FB00B585B0019001AB1846FF
:10700400FFF78EFF0390019B012202FA03F3194656
:10701400039800F004F800BF05B05DF804FB82B0EB
:1070240001900091019B009AC3F80C2500BF02B0A7
:107034007047000084B00190244B0393019B002B04
:1070440040D0234B1A680399019B00BF00BF00BFC7
:1070540000BF00BF00BF00BF00BF8A422FD000BFE7
:1070640000BF00BF00BF00BF00BF00BF00BF00BF24
:1070740000BF00BF00BF00BF00BF00BF00BF00BF14
:1070840000BF00BF00BF00BF00BF00BF00BF00BF04
:1070940000BF00BF00BF00BF00BF00BF00BF00BFF4
:1070A40000BF00BF00BF00BF00BF00BF00BF00BFE4
:1070B40000BF00BF00BF00BF00BF00BF00BF013B57
:1070C400C3D1019300BF04B0704700BF0024F40093
:1070D400AC2C002000B583B00190019B4FF47A7270
:1070E40002FB03F31846FFF7A5FF00BF03B05DF8EA
:1070F40004FB000082B001900091034B01221A703E
:1071040000BF02B0704700BF743900202DE9F04F72
:107114008FB002AF3961FA60BB600346FB826B46F5
:107124001E460023FB62FB8AFA681344FB62F96A79
:107134000B46013BBB62002339607B604FF00002C9
:107144004FF000037868C300386843EA5073386826
:10715400C20000238A469B464FF000024FF0000312
:107164004FEACB0343EA5A734FEACA02CB1DDB084A
:10717400DB00ADEB030D02AB00337B62F96A0B4617
:10718400013B3B620023884699464FF000024FF0D2
:1071940000034FEAC90343EA58734FEAC8020023C5
:1071A4000C461D464FF000024FF00003EB0043EA8B
:1071B4005473E200CB1DDB08DB00ADEB030D02AB27
:1071C4000033FB61FA6A0021786A13F03DFAFA6A27
:1071D4000021F86913F038FA7B6ABB61FB8A1A460E
:1071E4003969B86913F0FEF9FB8ABA691344BB61C3
:1071F400FA680021B86913F027FA134B00221A70B9
:10720400FB6ADAB2FB6ADBB20093FB69796A0F4866
:1072140004F0B2F900BF0C4B1B78DBB283F001031E
:10722400DBB2002BF7D1FB8AFA691344BB61FA681D
:10723400B969B86813F0D6F90023B546184634374F
:10724400BD46BDE8F08F00BF7439002060BB030069
:107254002DE9F04F8FB002AF3961FA60BB6003468D
:10726400FB826B461E460023FB62FB8AFA681344CA
:10727400FB62F96A0B46013BBB62002339607B6009
:107284004FF000024FF000037868C300386843EA07
:1072940050733868C20000238A469B464FF00002B0
:1072A4004FF000034FEACB0343EA5A734FEACA0292
:1072B400CB1DDB08DB00ADEB030D02AB00337B62BF
:1072C400F96A0B46013B3B620023884699464FF01E
:1072D40000024FF000034FEAC90343EA58734FEA30
:1072E400C80200230C461D464FF000024FF0000375
:1072F400EB0043EA5473E200CB1DDB08DB00ADEB8B
:10730400030D02AB0033FB61FA6A0021786A13F0C3
:107314009BF9FA6A0021F86913F096F97B6ABB615C
:10732400FB8A1A463969B86913F05CF9FB8ABA69B1
:107334001344BB61FA68B968B86913F053F90E4B8A
:1073440000221A70FB6ADAB2FB6ADBB20093FB69B3
:10735400796A0A4804F010F900BF074B1B78DBB2C6
:1073640083F00103DBB2002BF7D10023B5461846A6
:107374003437BD46BDE8F08F7439002060BB03008C
:1073840008B51820FFF711FE1820FFF734FE02207D
:10739400FFF7A0FE00211820FFF718FE0220FFF7D8
:1073A40099FE00BF08BD000010B586B00E4B01ACBD
:1073B4000FCB84E80F0011238DF8073001A90023B7
:1073C4000A4A0B4803F0D2FF0590059B002B04D01A
:1073D400084AD421059805F00BFE0220FFF77AFE37
:1073E40000BF06B010BD00BF40BB0300F97002002F
:1073F40060BB030004BB030010B586B00F4804F063
:1074040081F80F4B01AC0FCB84E80F0011238DF8EA
:10741400073001A900230B4A084803F0A7FF059091
:10742400059B002B04D0084AE021059805F0E0FDF7
:107434000220FFF74FFE00BF06B010BD60BB030083
:1074440050BB0300F970020004BB030000B583B015
:1074540001900198FFF73EFE00BF03B05DF804FB06
:1074640000231846704782B0019000BF02B07047F5
:10747400BFF34F8F00BF074BDB6803F4E06205499D
:10748400054B1343CB60BFF34F8F00BF00BF00BF5A
:10749400FCE700BF00ED00E00400FA05024B034ADC
:1074A4001A6000BF704700BFAC2C00200090D003CE
:1074B40008B500F05DF90346002B06D09B4B1B6812
:1074C4001B0A9B4A03F01F03136000F07DF9034677
:1074D400002B02D0974B984A1A6000F091F90346AA
:1074E400002B06D0954B1B685B0B954A03F00703F2
:1074F400136000F0B1F90346002B05D0914BDB6813
:10750400904A23F08073D36000F0C2F90346002B45
:107514000ED04FF080430022C3F80C214FF080437B
:107524000022C3F810214FF080430022C3F838250D
:1075340000F0DAF90346002B02D0834B03221A60D1
:1075440000F0EEF90346002B0BD0804B05221A60A5
:107554007F4B01221A607F4B00221A607E4B3F2230
:107564001A6000F0F9F90346002B76D04FF08053EF
:107574007A4AD3F80434C2F820354FF08053774A5E
:10758400D3F80834C2F824354FF08053734AD3F843
:107594000C34C2F828354FF08053704AD3F81034B5
:1075A400C2F82C354FF080536C4AD3F81434C2F827
:1075B40030354FF08053694AD3F81834C2F8343563
:1075C4004FF08053654AD3F81C34C2F840354FF06D
:1075D4008053624AD3F82034C2F844354FF08053C4
:1075E4005E4AD3F82434C2F848354FF080535B4ADE
:1075F400D3F82834C2F84C354FF08053574AD3F8A7
:107604002C34C2F850354FF08053544AD3F83034F8
:10761400C2F854354FF08053504AD3F83434C2F88A
:1076240060354FF080534D4AD3F83834C2F864358E
:107634004FF08053494AD3F83C34C2F868354FF0D0
:107644008053464AD3F84034C2F86C354FF0805327
:10765400424AD3F84434C2F8703500F099F903462D
:10766400002B05D03E4B1B683E4A03F04F031360CA
:1076740000F0BAF90346002B0DD04FF08043D3F845
:10768400003403F00103002B05D04FF080436FF06A
:107694000102C3F80024344BD3F88830324A43F44F
:1076A4007003C2F88830BFF34F8F00BFBFF36F8FF2
:1076B40000BF4FF01023D3F80032002B05DB4FF04E
:1076C4001023D3F80432002B2BDA284B0122C3F801
:1076D400042500BF254BD3F80034002BFAD04FF01B
:1076E40010231522C3F8002200BF204BD3F8003426
:1076F400002BFAD04FF010231522C3F8042200BF48
:107704001A4BD3F80034002BFAD0184B0022C3F8DC
:10771400042500BF154BD3F80034002BFAD0FFF733
:10772400A7FEFFF7BBFE00BF08BD00BF2403001087
:107734004035014074C007400DF0ADBA440200105A
:107744003C050040F0ED00E0A0050040105600406C
:1077540088560040185600401456004000C00040AF
:1077640058020010E40E004000ED00E000E001408B
:10777400124B1B68DBB2062B1DD1114B1B6803F0A7
:107784000F03002B17D10F4B1B6803F0F003302BB2
:1077940001D1012310E00B4B1B6803F0F003402BD5
:1077A40001D1012308E0074B1B6803F0F003502BC1
:1077B40001D1012300E0002318467047E00F00F0D8
:1077C400E40F00F0E80F00F00A4B1B68DBB2062B55
:1077D4000DD1094B1B6803F00F03002B07D1074B96
:1077E4001B6803F0F003302B01D1012300E00023D8
:1077F40018467047E00F00F0E40F00F0E80F00F0C7
:10780400124B1B68DBB2062B1DD1114B1B6803F016
:107814000F03002B17D10F4B1B6803F0F003302B21
:1078240001D1012310E00B4B1B6803F0F003402B44
:1078340001D1012308E0074B1B6803F0F003502B30
:1078440001D1012300E0002318467047E00F00F047
:10785400E40F00F0E80F00F00A4B1B68DBB2062BC4
:107864000DD1094B1B6803F00F03002B07D1074B05
:107874001B6803F0F003302B01D1012300E0002347
:1078840018467047E00F00F0E40F00F0E80F00F036
:10789400124B1B68DBB2062B1DD1114B1B6803F086
:1078A4000F03002B17D10F4B1B6803F0F003302B91
:1078B40001D1012310E00B4B1B6803F0F003402BB4
:1078C40001D1012308E0074B1B6803F0F003502BA0
:1078D40001D1012300E0002318467047E00F00F0B7
:1078E400E40F00F0E80F00F00A4B1B68DBB2062B34
:1078F4000DD1094B1B6803F00F03002B07D1074B75
:107904001B6803F0F003302B01D1012300E00023B6
:1079140018467047E00F00F0E40F00F0E80F00F0A5
:107924000A4B1B68DBB2062B0DD1094B1B6803F015
:107934000F03002B07D1074B1B6803F0F003302B18
:1079440001D1012300E0002318467047E00F00F046
:10795400E40F00F0E80F00F00A4B1B68DBB2062BC3
:107964000DD1094B1B6803F00F03002B07D1074B04
:107974001B6803F0F003502B01D1012300E0002326
:1079840018467047E00F00F0E40F00F0E80F00F035
:10799400124B1B68DBB2062B1DD1114B1B6803F085
:1079A4000F03002B17D10F4B1B6803F0F003302B90
:1079B40001D1012310E00B4B1B6803F0F003402BB3
:1079C40001D1012308E0074B1B6803F0F003502B9F
:1079D40001D1012300E0002318467047E00F00F0B6
:1079E400E40F00F0E80F00F0124B1B68DBB2062B2B
:1079F4001DD1114B1B6803F00F03002B17D10F4B44
:107A04001B6803F0F003302B01D1012310E00B4B72
:107A14001B6803F0F003402B01D1012308E0074B5E
:107A24001B6803F0F003502B01D1012300E0002375
:107A340018467047E00F00F0E40F00F0E80F00F084
:107A44006DDF704700BF184672DF704700BF1846ED
:107A540079DF704700BF18467DDF704700BF1846C6
:107A640064DF704700BF184682B003460091ADF84A
:107A74000630BDF80630DAB2009B1A70BDF8063045
:107A84001B0A9AB2009B0133D2B21A700223184621
:107A940002B0704700B589B0039002911346ADF867
:107AA4000630029B1B8803F10902BDF806309A4296
:107AB40001D90C2351E005AB1846FFF7C1FF07902D
:107AC400079B002B01D0079B47E0029B1B881A46AB
:107AD400039B134408221A70029B1B8801339AB239
:107AE400029B1A80029B1B881A46039B13441B2289
:107AF4001A70029B1B8801339AB2029B1A80029B64
:107B04001B881A46039B981805AB013306221946B5
:107B140012F068FD029B1B8806339AB2029B1A80FE
:107B24009DF8143023F00103DBB2002B07D1029B34
:107B34001B881A46039B134400221A7006E0029B1A
:107B44001B881A46039B134401221A70029B1B884C
:107B540001339AB2029B1A800023184609B05DF8DB
:107B640004FB00B589B0039002910192ADF8023094
:107B7400039B1B78012B05D1039B5B78002B01D160
:107B8400072388E0019B1B889A1CBDF802309A42A7
:107B94000ED8039B1B78012B0CD1019B1B881A4622
:107BA400039B5B7813449A1CBDF802309A4201D9B6
:107BB4000C2370E0019B1B88BDF80220D31A9BB2F2
:107BC400023BADF81C30BDF81C30ADF81630019BFB
:107BD4001B880233029A13440DF11602114618460B
:107BE400FFF73AFF0690069B002B01D0069B52E05C
:107BF400039B1B78022B09D1BDF81630BDF81C205D
:107C04009A4203D309238DF81F3016E008238DF818
:107C14001F30039B1B78012B0BD1039B5B781A4607
:107C2400BDF81C30934204D3039B5B78ADF8163047
:107C340003E0BDF81C30ADF81630BDF81630FE2B4D
:107C440001D90C2327E0BDF81630DAB2019B1B885A
:107C54001946029B0B440132D2B21A70019B1B8855
:107C640001339AB2019B1A80019B1B881A46029B1E
:107C740013449DF81F201A70019B1B8801339AB28C
:107C8400019B1A80019B1A88BDF8163013449AB2DE
:107C9400019B1A800023184609B05DF804FB00B567
:107CA40087B0039002911346ADF80630029B1B88FF
:107CB4001A1DBDF806309A4201D90C2338E00DF1A3
:107CC40012031846FFF7C4FE0590059B002B01D054
:107CD400059B2DE0029B1B881A46039B1344032239
:107CE4001A70029B1B8801339AB2029B1A80029B72
:107CF4001B881A46039B134419221A70029B1B8883
:107D040001339AB2029B1A80BDF81220029B1B8891
:107D14001946039B0B4419461046FFF7A5FE03467C
:107D24001A46029B1B8813449AB2029B1A800023B2
:107D3400184607B05DF804FB84B0029101921A461C
:107D440003468DF80F301346ADF80C30019B1B88A9
:107D5400DA1CBDF80C309A4201D90C2328E0019BAF
:107D64001B881A46029B134402221A70019B1B882B
:107D740001339AB2019B1A80019B1B881A46029B0D
:107D8400134401221A70019B1B8801339AB2019B90
:107D94001A80019B1B881A46029B13449DF80F20EE
:107DA4001A70019B1B8801339AB2019B1A8000232D
:107DB400184604B0704784B0029101921A460346F3
:107DC4008DF80F301346ADF80C30019B1B88DA1C7C
:107DD400BDF80C309A4201D90C2328E0019B1B8882
:107DE4001A46029B134402221A70019B1B8801331A
:107DF4009AB2019B1A80019B1B881A46029B13446A
:107E04000A221A70019B1B8801339AB2019B1A80C3
:107E1400019B1B881A46029B13449DF80F201A707D
:107E2400019B1B8801339AB2019B1A8000231846D8
:107E340004B0704700B58BB0039001930B468DF8E6
:107E44000B3013468DF80A3000238DF823300C9B39
:107E54001B88ADF82030002309936CE0039B5A681B
:107E6400099B9B001A4404AB106818600DF11601BD
:107E740004AB00221846FFF7F3FD0690069B002B87
:107E840001D0069B79E09DF816309DF80A209A42AD
:107E94004ED19DF82330002B01D0002300E00223B3
:107EA4008DF817300C9B1B881A469DF816301A441F
:107EB4009DF817301A44BDF834309A4201DD0C2382
:107EC4005BE09DF8233083F00103DBB2002B16D076
:107ED4000C9B1B8801339AB20C9B1A800C9B1B8849
:107EE4001A46019B13449DF80B201A700C9B1B88A7
:107EF40001339AB20C9B1A8001238DF823300C9B1A
:107F04001B881A46019B1A440DF1160104AB18464E
:107F1400FFF7A6FD0690069B002B01D0069B2CE0E4
:107F24000C9B1B889DF8162013449AB20C9B1A8054
:107F3400099B01330993039B1B881A46099B9342AF
:107F44008CDB9DF82330002B16D00C9B1A88BDF8CF
:107F54002030D31A9BB2013BADF81E30BDF81E3061
:107F6400FF2B01D90C2308E0BDF82030019A1344FB
:107F7400BDF81E20D2B21A70002318460BB05DF86B
:107F840004FB00B589B0059003930B468DF81330BC
:107F940013468DF812309DF81310BDF82C30019360
:107FA4000A9B0093039B02220598FFF743FF079067
:107FB400079B002B01D0079B12E09DF81210BDF81F
:107FC4002C3001930A9B0093039B10220598FFF722
:107FD40031FF0790079B002B01D0079B00E0002393
:107FE400184609B05DF804FB82B00190019B1B8820
:107FF400052B0AD9019B1B88B3F5486F07D9019B50
:108004001B884FF6FF72934201D0072325E0019BA2
:108014005B88052B0AD9019B5B88B3F5486F07D9A8
:10802400019B5B884FF6FF72934201D0072314E053
:10803400019B1B884FF6FF7293420DD0019B5B8816
:108044004FF6FF72934207D0019B1A88019B5B880D
:108054009A4201D9072300E00023184602B0704772
:1080640000B587B0039002910192ADF80230019BF4
:108074001B889A1DBDF802309A4201D90C2349E0AD
:108084000398FFF7B1FF0590059B002B01D0059BDA
:1080940040E0019B1B881A46029B134405221A7078
:1080A400019B1B8801339AB2019B1A80019B1B8898
:1080B4001A46029B134412221A70019B1B88013337
:1080C4009AB2019B1A80039B1A88019B1B8819464C
:1080D400029B0B4419461046FFF7C6FC03461A469A
:1080E400019B1B8813449AB2019B1A80039B5A88F4
:1080F400019B1B881946029B0B4419461046FFF747
:10810400B3FC03461A46019B1B8813449AB2019B95
:108114001A800023184607B05DF804FB00B587B049
:10812400039002910192ADF80230039B9B880233C5
:108134000593019B1B881A46059B13449A1CBDF8A2
:1081440002309A4201D90C2353E0059BFE2B01D93E
:108154000C234EE0059BDAB2019B1B881946029B57
:108164000B440132D2B21A70019B1B8801339AB2BC
:10817400019B1A80019B1B881A46029B1344FF2211
:108184001A70019B1B8801339AB2019B1A80039BCE
:108194001A88019B1B881946029B0B4419461046FA
:1081A400FFF762FC03461A46019B1B8813449AB2EC
:1081B400019B1A80039B9B88002B19D0039B9B680F
:1081C400002B01D1072314E0019B1B881A46029B54
:1081D4009818039B9968039B9B881A4612F002FA2D
:1081E400019B1A88039B9B8813449AB2019B1A80B3
:1081F4000023184607B05DF804FB00B589B003906E
:1082040002910192ADF80230039B9B6A002B01D1CD
:10821400072371E000238DF81F3065E0039B996A02
:108224009DF81F2013465B0013449B000B440693E8
:10823400069B9B8802330593059BFE2B01D90C23D7
:108244005AE0059BDAB2019B1B881946029B0B443A
:108254000132D2B21A70019B1B8801339AB2019B7E
:108264001A80019B1B881A46029B134416221A701B
:10827400019B1B8801339AB2019B1A80069B1A88C2
:10828400019B1B881946029B0B4419461046FFF7B5
:10829400EBFB03461A46019B1B8813449AB2019BCD
:1082A4001A80069B9B88002B19D0069B9B68002B89
:1082B40001D1072320E0019B1B881A46029B9818D2
:1082C400069B9968069B9B881A4612F08BF9019BC2
:1082D4001A88069B9B8813449AB2019B1A809DF8C6
:1082E4001F3001338DF81F30039B93F82C309DF819
:1082F4001F209A4292D30023184609B05DF804FB6C
:1083040000B589B005900491039200230793039B61
:108314001B88ADF81A30039B00221A80059B93F842
:108324002D30002B0CD0BDF81A301A46039904984E
:10833400FFF7B0FB0790079B002B01D0079BC4E01D
:10834400059B9B78002B0CD0BDF81A301A46039974
:108354000498FFF7A4FC0790079B002B01D0079B10
:10836400B3E0059BDB78002B0ED0059BDB7858B27D
:10837400BDF81A30039A0499FFF7DEFC0790079BB7
:10838400002B01D0079BA0E0059B5B68002B0FD05E
:10839400059B5B6893F90000BDF81A30039A0499B1
:1083A400FFF709FD0790079B002B01D0079B8CE08A
:1083B400059B1B89002B12D0059B03F10800BDF817
:1083C4001A300193039B0093049B06220221FFF7BA
:1083D400D8FD0790079B002B01D0079B75E0059BF8
:1083E4001B8A002B12D0059B03F11000BDF81A3034
:1083F4000193039B0093049B07220321FFF7C1FD14
:108404000790079B002B01D0079B5EE0059B1B8B0D
:10841400002B12D0059B03F11800BDF81A3001930C
:10842400039B0093049B15221421FFF7AAFD0790D8
:10843400079B002B01D0079B47E0059B1B6A002B81
:108444000DD0059B186ABDF81A30039A0499FFF7FA
:1084540007FE0790079B002B01D0079B35E0059B87
:108464005B6A002B0DD0059B586ABDF81A30039A3D
:108474000499FFF753FE0790079B002B01D0079B3D
:1084840023E0059B93F82C30002B0CD0BDF81A3058
:10849400039A04990598FFF7B0FE0790079B002BF9
:1084A40001D0079B11E0059B1B78002B0CD0BDF875
:1084B4001A30039A04990598FFF753FB0790079B1A
:1084C400002B01D0079B00E0079B184609B05DF81C
:1084D40004FB82B00190019BDB7803F00403002BC2
:1084E40001D1072300E00023184602B0704782B090
:1084F4000190019BDB78002B01D0072300E00023CF
:10850400184602B0704700B597B0019000911F2340
:10851400ADF84A301F23ADF84830019B002B18D02A
:108524000198FFF7D6FF1390139B002B01D0139BE8
:108534003FE00DF14A020AAB19460198FFF7E0FE4D
:108544001390139B002B01D0139B32E00AAB1593BD
:1085540004E0002315930023ADF84A30009B002B60
:1085640017D00098FFF7C3FF1390139B002B01D083
:10857400139B1EE012AA02AB19460098FFF7C0FE37
:108584001390139B002B01D0139B12E002AB1493A6
:1085940004E0002314930023ADF84830BDF84A30BA
:1085A400D9B2BDF84830DBB2149A1598FFF74CFAEB
:1085B4000346184617B05DF804FB73DF704700BF2D
:1085C400184682B00190019B93F8D630184602B049
:1085D400704784B00190002303930AE0019A039B3F
:1085E40013441B78002B01D0012306E0039B0133C5
:1085F4000393039B052BF1D90023184604B070475D
:1086040082B003468DF807309DF807305A1C074B9B
:1086140083FB02135910D317C91A0B469B000B4452
:10862400D11ACBB2184602B0704700BF67666666BF
:1086340082B001900091009BDB7B012B04D1009B55
:108644009A88019BA3F8C82000BF02B0704700B508
:1086540085B001900091019B002283F8D420009BF7
:108664009A88019BB3F8C8309A4218D1019B1B79B0
:1086740083F00103DBB2002B11D00121019800F03B
:1086840051FA0390039B002B09D0019BD3F8D030FF
:10869400002B04D0019BD3F8D0300398984700BF37
:1086A40005B05DF804FB00B585B001900091009B16
:1086B4001B7A002B18D1019BDB781846FFF7A0FF2B
:1086C40003461946019800F02DFA0390039B002BF2
:1086D4000BD0019BD3F8D030002B06D0019BD3F8EC
:1086E400D0300398984700E000BF05B05DF804FB64
:1086F40008B500200CF012FB0346184608BD000024
:1087040000B585B001900B468DF80330019B2633EC
:108714001846FFF75EFF03468DF80F309DF80330CF
:10872400013B032B2AD801A252F823F0418702000F
:10873400558702006987020075870200019B9B79B7
:10874400002B05D09DF80F30002B01D0012316E03B
:10875400019BDB79002B05D09DF80F30002B01D055
:1087640002230CE0019B1B7A002B01D0032306E0BB
:10877400019B5B7A002B01D0042300E00023184600
:1087840005B05DF804FB00BF82B001900091019B2D
:1087940001229A70019B03F12502009B5A60009B01
:1087A40001221A70009B00229A81009B00225A81A8
:1087B4000023184602B0704782B001900091019BDB
:1087C40002229A70019B03F12502009B5A60009BD0
:1087D40001221A70019B1B699AB2009B9A81019B2A
:1087E400DB689AB2009B5A810023184602B0704796
:1087F40000B585B001900091019B5B699AB2009B22
:108804005A81019B9B699AB2009B9A81019B5B7977
:10881400002B24D0019B93F8D43083F00103DBB206
:10882400002B1CD00198FFF7CCFE0346002B16D07A
:10883400009B02221A72019B042283F83320019BBD
:10884400303300211846FFF75EFE0390039B002B94
:1088540001D0039B07E0019B05229A7002E0019B73
:1088640003229A700023184605B05DF804FB00B596
:1088740085B001900091019BDB699AB2009B5A81FB
:10888400019B1B6A9AB2009B9A81019B5B79002B26
:1088940024D0019B93F8D43083F00103DBB2002B86
:1088A4001CD00198FFF78DFE0346002B16D0009BC9
:1088B40002221A72019B042283F83320019B303375
:1088C40000211846FFF71FFE0390039B002B01D0E5
:1088D400039B07E0019B06229A7002E0019B04229D
:1088E4009A700023184605B05DF804FB82B001902D
:1088F4000B468DF80330019B9DF8032083F8242058
:1089040000BF02B0704730B587B001900091009B62
:10891400002B02D0019B002B01D10E23FFE0019B11
:1089240001221A70019B0022DA70019A009B141D27
:1089340003F178050FCD0FC495E80F0084E80F000C
:10894400019B002283F82420009BD3F89820019BEC
:10895400C3F8CC20009BD3F89C20019BC3F8D02003
:10896400019B4FF6FF72A3F8C820019B2533072211
:108974000021184611F068FE019B30333C2200218F
:10898400184611F061FE009B1A78019B83F8302091
:10899400009B9A78019B83F83220009BDA78019B34
:1089A40083F83320009B5A78019B83F83120019B84
:1089B400009A4033103292E8030083E80300019BDD
:1089C400009A3833083292E8030083E80300019BDD
:1089D400009A4833183292E8030083E80300009BAE
:1089E40093F82D20019B83F85D20009B5B6A002B8C
:1089F4002ED0019B03F16C02019B5A65019B03F18C
:108A04007802019B5A67009B5A6A019B5B6D12882E
:108A14001A80009B5A6A019B5B6D92889A8000239E
:108A240005930EE0009B5B6A9A68059B13441978D2
:108A3400019A059B134478330A461A70059B013347
:108A44000593019B5B6D9B881A46059B9342E9D372
:108A5400009B9B6A002B3AD0019B03F1A402019B6B
:108A6400C3F8A020019B03F19802019B9A65019B26
:108A74009B6D019AA4329A60009B9A6A019B9B6D3C
:108A840092889A80009B9A6A019B9B6D12881A8037
:108A9400002304930EE0009B9B6A9A68049B134492
:108AA4001978019A049B1344A4330A461A70049B50
:108AB40001330493019B9B6D9B881A46049B93424C
:108AC400E9D3009B93F82C20019B83F85C20009B46
