:10000000000001203D010000DD000000DF000000D5
:10001000E1000000E3000000E50000000000000037
:10002000000000000000000000000000E7000000E9
:10003000E900000000000000EB000000ED000000FF
:1000400061100000F300000045280000F7000000E8
:10005000F9000000FB000000FD000000FF000000B0
:10006000010100000301000005010000070100007C
:10007000090100000B0100000D0100000F0100004C
:1000800011010000293500001501000017010000D2
:10009000693500001B0100001D0100001F01000068
:1000A00021010000230100002501000027010000BC
:1000B000290100002B010000EF000000EF0000000C
:1000C0002D0100002F01000031010000330100006C
:0C00D0003501000037010000390100007C
:1000DC00FEE7FEE7FEE7FEE7FEE7FEE7FEE7FEE7EC
:1000EC00FEE7FEE7FEE7FEE7FEE7FEE7FEE7FEE7DC
:1000FC00FEE7FEE7FEE7FEE7FEE7FEE7FEE7FEE7CC
:10010C00FEE7FEE7FEE7FEE7FEE7FEE7FEE7FEE7BB
:10011C00FEE7FEE7FEE7FEE7FEE7FEE7FEE7FEE7AB
:10012C00FEE7FEE7FEE7FEE7FEE7FEE7FEE700BFC1
:10013C000F484FF00701884385460E4880470E480C
:10014C00016841F470010160BFF34F8FBFF36F8FF3
:10015C0000F01AB809480A490A4A884207D0521ACC
:10016C0005D0037801300B700131013AF9D1704799
:10017C00000001202508000088ED00E0FCA900002B
:10018C0000000020680000203A493B480A1A02D0BF
:10019C00072291438D46394939480A1A06D007225D
:1001AC00914381F30988022282F314883548364939
:1001BC00364A00F041F836483649374A00F03CF8E8
:1001CC0036483749374A00F037F837483749384A04
:1001DC0000F032F837483849384A00F02DF83848E2
:1001EC003849394A00F028F838483949394A00F07A
:1001FC0023F839483949002200F036F83848394993
:10020C00002200F031F838483849091A0AF004FA8B
:10021C00374A904725482649884205D00268043061
:10022C0003B4904703BCF7E700208646EC46002059
:10023C000021304A9047FEE7884214D0521A12D05F
:10024C0003460B4313430324234206D103680430B3
:10025C000B600431043AF9D17047037801300B700C
:10026C000131013AF9D17047884202D00270013055
:10027C00FAE770470000012000F800200000012080
:10028C0000000120F4C400006800002014010020CC
:10029C0004030000040300008AA90000F4C4000059
:1002AC00680000206800002064AA000064AA000016
:1002BC0064AA000064AA000064AA000064AA0000FA
:1002CC0064AA000064AA0000F1C40000A0C50000EC
:1002DC00140100201401002014010020500B0020F8
:1002EC00500B0020500B0020500B0020500D002014
:0802FC0061010000C9030000CC
:1003040082B00190019B9B6893F83D31C3F3400395
:10031400DBB2002B14BF01230023DBB2184602B06A
:10032400704700B583B000F0D3FD0190019B002B12
:1003340004D0019B852B01D0019B03E0002000F039
:1003440019FE0023184603B05DF804FB08B54FF00E
:1003540080535B69013B184A93604FF080531B69DB
:10036400154A5360144B9B68134A526802FB03F30B
:10037400114A1360104B1B681A460F4BDA600E4B80
:10038400DB681B680D4A934213D00B4BDB681B6878
:100394000B4A934206D1084BDB6803F58073064A87
:1003A400D36005E0044B1B68184602F069FA01E0CB
:1003B400E5E700BF08BD00BFD0040020A55A5AA538
:1003C40000005AA530B591B0002008F00FFE0F9040
:1003D4000F9B002B04D0394A8A210F9802F098FA17
:1003E40003F0C6F80E900E9B0D930D9B002B04D0CA
:1003F400324A8D210D9802F08BFAFFF792FF0E908E
:100404000E9B0C930C9B002B04D02C4A90210C982F
:1004140002F07EFAFFF79AFF294B02AC1D460FCD7E
:100424000FC495E80F0084E80F00052302930B2303
:10043400039300238DF81C3002A9032300930123A6
:100444000122204805F076FF0E900E9B0B930B9B28
:10045400002B04D0194A99210B9802F059FA194833
:1004640005F0A6FF0E900E9B0A930A9B002B04D066
:10047400124A9C210A9802F04BFA134B5B68022B38
:1004840008D9114B1B881B0443F013030F4918466A
:1004940009F0F6F80C4B5B68022B08D90A4B1B8851
:1004A4001B0443F013030A49184609F0E9F809F05C
:1004B40041F9044805F0C8FFF9E700BFB0AA0000FD
:1004C40080AB0000A8AD00002000002004AB0000B9
:1004D4001CAB000086B0039002910192184B0122DC
:1004E400C3F8042500BF164BD3F80034002BFAD010
:1004F4000023059312E0029A059B13441978059B87
:100504009A00039B13440A461A6000BF0C4BD3F8AD
:100514000034002BFAD0059B01330593059A019B07
:100524009A42E8D3064B0022C3F8042500BF044BCB
:10053400D3F80034002BFAD000BF00BF06B07047D8
:1005440000E0014000B585B0039002910192074B91
:100554001B68184602F094F9044B1B681A46034BB7
:10056400DA6000BF05B05DF804FB00BFD0040020D2
:1005740000B597B0039002910192274B1B68159325
:10058400254BDB68159A9A423ED1159B1B68234A7A
:10059400934239D0224A0421039805F0BDFF38E084
:1005A400159B1B681D4A93420AD0159B1B681D4A64
:1005B400934205D01C4A0421039805F0ADFF28E0BE
:1005C40000238DF8533011E09DF85330159A9B00A9
:1005D40013445A689DF85330D2B258336B4403F82D
:1005E400442C9DF8533001338DF853309DF853302B
:1005F4003E2BE9D905AB0D4A0821039805F08CFF81
:10060400159B03F580731593034BDB68159A9A4287
:10061400C6D917B05DF804FBD0040020A55A5AA52A
:10062400A0AB000000005AA5C0AB0000D8AB00008E
:1006340000B58BB0059004910392049B012B09D85B
:10064400039B1B683A4A00923A4A0221059805F036
:1006540063FF6AE0049B022B09D9039B1B68364A9B
:100664000092344A0421059805F056FF5DE0039B8F
:1006740004331B6818460AF00FF80990099B3E2BB7
:1006840006D93E232D4A0221059805F045FF4CE08A
:100694002B4BDB681B68B3F1FF3F0BD0284BDB68A7
:1006A4001B68284A934205D0274A0221059805F081
:1006B40033FF3AE0224BDB681B68224A934221D184
:1006C4001F4BDB6803F5007308931D4B1B68089AE6
:1006D400D31A07931D4B1B881A46079B934205D9CF
:1006E4001B4A0421059805F017FF1EE0144BDB6834
:1006F4001849184602F0E8F8114BDB6803F58073DB
:100704000F4AD3600E4BDB6804331846039B043353
:100714001968099B01330993099AFFF7DBFE084B1B
:10072400DB680849184602F0CFF80BB05DF804FB0B
:10073400E8AB0000E0AB000000AC00002CAC000013
:10074400D0040020A55A5AA568AC000044AE0000AD
:1007540094AC000000005AA500B587B00590049140
:100764000392059B002B04D11A4940F2251003F093
:100774001AF8059B9B68002B07D0059B5B68002B30
:1007840003D0059B1B68002B04D112494FF49370CE
:1007940003F009F8049B012B05D00598FFF7B0FD81
:1007A4000346002B05D000220021059805F0E4FF44
:1007B4000DE0039B1A68039B04331B680193064BEB
:1007C40000931346054A0221059805F0A5FE07B0DB
:1007D4005DF804FBB0AA0000D0AC0000C4AC00007B
:1007E400BFF34F8F00BF074BDB6803F4E06205499A
:1007F400054B1343CB60BFF34F8F00BF00BF00BF57
:10080400FCE700BF00ED00E00400FA05024B034AD8
:100814001A6000BF704700BF980000200090D0030A
:1008240008B500F05DF90346002B06D09B4B1B680E
:100834001B0A9B4A03F01F03136000F07DF9034673
:10084400002B02D0974B984A1A6000F091F90346A6
:10085400002B06D0954B1B685B0B954A03F00703EE
:10086400136000F0B1F90346002B05D0914BDB680F
:10087400904A23F08073D36000F0C2F90346002B42
:100884000ED04FF080430022C3F80C214FF0804378
:100894000022C3F810214FF080430022C3F838250A
:1008A40000F0DAF90346002B02D0834B03221A60CE
:1008B40000F0EEF90346002B0BD0804B05221A60A2
:1008C4007F4B01221A607F4B00221A607E4B3F222D
:1008D4001A6000F0F9F90346002B76D04FF08053EC
:1008E4007A4AD3F80434C2F820354FF08053774A5B
:1008F400D3F80834C2F824354FF08053734AD3F840
:100904000C34C2F828354FF08053704AD3F81034B1
:10091400C2F82C354FF080536C4AD3F81434C2F823
:1009240030354FF08053694AD3F81834C2F834355F
:100934004FF08053654AD3F81C34C2F840354FF069
:100944008053624AD3F82034C2F844354FF08053C0
:100954005E4AD3F82434C2F848354FF080535B4ADA
:10096400D3F82834C2F84C354FF08053574AD3F8A3
:100974002C34C2F850354FF08053544AD3F83034F5
:10098400C2F854354FF08053504AD3F83434C2F887
:1009940060354FF080534D4AD3F83834C2F864358B
:1009A4004FF08053494AD3F83C34C2F868354FF0CD
:1009B4008053464AD3F84034C2F86C354FF0805324
:1009C400424AD3F84434C2F8703500F099F903462A
:1009D400002B05D03E4B1B683E4A03F04F031360C7
:1009E40000F0BAF90346002B0DD04FF08043D3F842
:1009F400003403F00103002B05D04FF080436FF067
:100A04000102C3F80024344BD3F88830324A43F44B
:100A14007003C2F88830BFF34F8F00BFBFF36F8FEE
:100A240000BF4FF01023D3F80032002B05DB4FF04A
:100A34001023D3F80432002B2BDA284B0122C3F8FD
:100A4400042500BF254BD3F80034002BFAD04FF017
:100A540010231522C3F8002200BF204BD3F8003422
:100A6400002BFAD04FF010231522C3F8042200BF44
:100A74001A4BD3F80034002BFAD0184B0022C3F8D9
:100A8400042500BF154BD3F80034002BFAD0FFF730
:100A9400A7FEFFF7BBFE00BF08BD00BF2403001084
:100AA4004035014074C007400DF0ADBA4402001057
:100AB4003C050040F0ED00E0A00500401056004069
:100AC40088560040185600401456004000C00040AC
:100AD40058020010E40E004000ED00E000E0014088
:100AE400124B1B68DBB2062B1DD1114B1B6803F0A4
:100AF4000F03002B17D10F4B1B6803F0F003302BAF
:100B040001D1012310E00B4B1B6803F0F003402BD1
:100B140001D1012308E0074B1B6803F0F003502BBD
:100B240001D1012300E0002318467047E00F00F0D4
:100B3400E40F00F0E80F00F00A4B1B68DBB2062B51
:100B44000DD1094B1B6803F00F03002B07D1074B92
:100B54001B6803F0F003302B01D1012300E00023D4
:100B640018467047E00F00F0E40F00F0E80F00F0C3
:100B7400124B1B68DBB2062B1DD1114B1B6803F013
:100B84000F03002B17D10F4B1B6803F0F003302B1E
:100B940001D1012310E00B4B1B6803F0F003402B41
:100BA40001D1012308E0074B1B6803F0F003502B2D
:100BB40001D1012300E0002318467047E00F00F044
:100BC400E40F00F0E80F00F00A4B1B68DBB2062BC1
:100BD4000DD1094B1B6803F00F03002B07D1074B02
:100BE4001B6803F0F003302B01D1012300E0002344
:100BF40018467047E00F00F0E40F00F0E80F00F033
:100C0400124B1B68DBB2062B1DD1114B1B6803F082
:100C14000F03002B17D10F4B1B6803F0F003302B8D
:100C240001D1012310E00B4B1B6803F0F003402BB0
:100C340001D1012308E0074B1B6803F0F003502B9C
:100C440001D1012300E0002318467047E00F00F0B3
:100C5400E40F00F0E80F00F00A4B1B68DBB2062B30
:100C64000DD1094B1B6803F00F03002B07D1074B71
:100C74001B6803F0F003302B01D1012300E00023B3
:100C840018467047E00F00F0E40F00F0E80F00F0A2
:100C94000A4B1B68DBB2062B0DD1094B1B6803F012
:100CA4000F03002B07D1074B1B6803F0F003302B15
:100CB40001D1012300E0002318467047E00F00F043
:100CC400E40F00F0E80F00F00A4B1B68DBB2062BC0
:100CD4000DD1094B1B6803F00F03002B07D1074B01
:100CE4001B6803F0F003502B01D1012300E0002323
:100CF40018467047E00F00F0E40F00F0E80F00F032
:100D0400124B1B68DBB2062B1DD1114B1B6803F081
:100D14000F03002B17D10F4B1B6803F0F003302B8C
:100D240001D1012310E00B4B1B6803F0F003402BAF
:100D340001D1012308E0074B1B6803F0F003502B9B
:100D440001D1012300E0002318467047E00F00F0B2
:100D5400E40F00F0E80F00F0124B1B68DBB2062B27
:100D64001DD1114B1B6803F00F03002B17D10F4B40
:100D74001B6803F0F003302B01D1012310E00B4B6F
:100D84001B6803F0F003402B01D1012308E0074B5B
:100D94001B6803F0F003502B01D1012300E0002372
:100DA40018467047E00F00F0E40F00F0E80F00F081
:100DB40082B001904FF08042019BC2F8043300BF1F
:100DC40002B0704782B001904FF08042019BC2F89C
:100DD400083300BF02B0704782B003468DF8073075
:100DE4009DF8073003F1804301221A6000BF02B06E
:100DF400704784B00346ADF80630BDF8063003F101
:100E0400804300221A60BDF8063003F180431B685A
:100E14000393039B00BF04B0704782B00346ADF850
:100E24000630BDF8063003F180431B68002B14BF65
:100E340001230023DBB2184602B0704782B0034698
:100E44008DF807309DF807304FF0804203F003031C
:100E5400C2F8183500BF02B07047000082B00346E4
:100E64008DF807300A4A9DF907305B0952F82320B0
:100E74009DF8073003F01F0322FA03F303F0010384
:100E8400002B14BF01230023DBB2184602B07047C5
:100E940000E100E008B50020FFF7E0FF034683F01F
:100EA4000103DBB2002B03D00721002000F05AF924
:100EB40000BF08BD08B54FF48270FFF79AFF022007
:100EC400FFF776FF0820FFF787FF00BF08BD00008B
:100ED40000B583B0002301930F4B1B78002B02D085
:100EE4008523019313E00C4B00229A600A4B0022E5
:100EF4005A60094B00221A61074B0022DA60FFF79F
:100F0400C9FF0120FFF79AFF034B01221A70019BCE
:100F1400184603B05DF804FBE004002084B001909F
:100F24000091019B1B68039306E0039A009B9A427D
:100F34000DD0039B1B680393039B002BF5D1019BEE
:100F44001A68009B1A60019B009A1A6000E000BFB7
:100F540004B0704784B00190019B1B680393039B0A
:100F6400002B03D0039B1A68019B1A60039B18464D
:100F740004B0704700B583B00190224B1B78002B5E
:100F840003D12149FB2002F00EFC1E4B9B78DBB2FF
:100F9400002B12D0019B002B03D0019B5B68012026
:100FA4009847002002F0B8FB164BDB680133154A62
:100FB400D360002002F0C4FB17E0002002F0ACFB79
:100FC400019B002B03D001991048FFF7A7FF0D4B9D
:100FD400DB68002B01D1FFF76DFF0A4BDB6801339F
:100FE400084AD360002002F0ABFB064BDB68002B01
:100FF40004D1054940F2171002F0D5FB00BF03B03D
:101004005DF804FBE004002050AE0000F004002072
:1010140000B585B003468DF807309DF80730002BE6
:1010240002D10C4B039301E00B4B03930398FFF79E
:1010340091FF0290029B002B06D0029B5B689DF8F7
:10104400072010469847F1E700BF00BF05B05DF8E0
:1010540004FB00BFE8040020F004002008B54FF4AE
:101064008070FFF7DAFE0346002B0CD04FF480703B
:10107400FFF7BFFE0120FFF7A5FE0E4B01225A70B9
:101084000020FFF7C5FF4FF48270FFF7C6FE03464A
:10109400002B0CD04FF48270FFF7ABFE0220FFF759
:1010A40091FE044B01229A700120FFF7B1FF00BFAB
:1010B40008BD00BFE004002082B003468DF807306D
:1010C4009DF8073003F01F0205499DF907305B09BD
:1010D400012000FA02F241F8232000BF02B0704759
:1010E40000E100E082B003468DF807309DF8073038
:1010F40003F01F0206499DF907305B09012000FA3D
:1011040002F2603341F8232000BF02B0704700BFF1
:1011140000E100E082B0034600918DF807309DF9AC
:101124000730002B0CDA009BDAB20C499DF807302B
:1011340003F00F03043B5201D2B20B441A7609E0C8
:10114400009BDAB206499DF907305201D2B20B4432
:1011540083F8002300BF02B0704700BF00ED00E039
:1011640000E100E000B583B003460A468DF807307D
:1011740013468DF806309DF80630072B04D90D4927
:101184004FF4927002F00FFB9DF806209DF9073092
:1011940011461846FFF7BEFF9DF907301846FFF7C2
:1011A400A1FF9DF907301846FFF786FF00BF03B083
:1011B4005DF804FBA8AE000082B003468DF807304A
:1011C4009DF8073003F01F0206499DF907305B09BB
:1011D400012000FA02F2203341F8232000BF02B0BC
:1011E400704700BF00E100E084B001900B46ADF809
:1011F4000230BDF80230019A134400221A60BDF88F
:101204000230019A13441B680393039B00BF04B08C
:10121400704782B001900B46ADF80230BDF8023041
:10122400019A13441B68002B14BF01230023DBB273
:10123400184602B0704782B001900091019B009A59
:10124400C3F8042300BF02B0704782B0019000913C
:10125400019BD3F80423009B1340002B14BF0123EC
:101264000023DBB2184602B0704782B001900091AF
:10127400019B009AC3F8082300BF02B0704784B0F2
:101284000190019BD3F880340393019B039AC3F824
:101294008024039B184604B0704782B00190019BE0
:1012A4000422C3F8002500BF02B0704782B0019049
:1012B400019B0022C3F8002500BF02B0704784B030
:1012C400039002910192039B019AC3F81425039B96
:1012D400029AC3F80C2500BF04B0704700B583B070
:1012E40001904FF0FF324FF0FF310198FFF7E7FF15
:1012F40000BF03B05DF804FB82B00190019BD3F8FA
:101304000C35184602B0704782B00190019BD3F8A7
:101314001435184602B0704782B00190019BD3F88F
:101324000835184602B0704782B00190019BD3F88B
:101334001035184602B0704784B0039002910192B0
:10134400039B029AC3F80825039B019AC3F810254E
:1013540000BF04B0704700B583B001904FF0FF3276
:101364004FF0FF310198FFF7E7FF00BF03B05DF8CE
:1013740004FB82B00190019BD3F81835DBB2184608
:1013840002B0704782B001900B468DF803309DF88F
:101394000320019BC3F81C2500BF02B0704782B034
:1013A40001900B468DF803309DF80330019A1344E5
:1013B40001221A6000BF02B0704782B001900B4650
:1013C4008DF8033013468DF802309DF803209DF804
:1013D40002301343DBB21A46019BC3F86C2500BFED
:1013E40002B0704782B001900091019B009AC3F84B
:1013F400242500BF02B0704784B001900B46ADF8BD
:101404000230BDF80230019A134400221A60BDF87C
:101414000230019A13441B680393039B00BF04B07A
:10142400704782B001900B46ADF80230BDF802302F
:10143400019A13441B68002B14BF01230023DBB261
:10144400184602B0704782B001900091019BD3F816
:101454000022009B1A43019BC3F8002200BF02B084
:10146400704782B001900091019BD3F80022009B49
:10147400DB431A40019BC3F8002200BF02B070474F
:1014840082B001900091019B009AC3F8042300BF2D
:1014940002B0704782B001900091019B009AC3F89A
:1014A400082300BF02B0704784B00190019BD3F8B9
:1014B40080340393019B039AC3F88024039B18464A
:1014C40004B0704782B00190019B0822C3F8002544
:1014D40000BF02B0704782B00190019B0022C3F8A4
:1014E400002500BF02B0704784B0039002910192BE
:1014F400039B029AC3F80C25039B019AC3F8142595
:1015040000BF04B0704700B583B001904FF0FF32C4
:101514004FF0FF310198FFF7E7FF00BF03B05DF81C
:1015240004FB82B00190019BD3F80C35184602B03D
:10153400704782B00190019BD3F81435184602B06D
:10154400704782B00190019BD3F80835184602B069
:10155400704782B00190019BD3F81035184602B051
:10156400704784B0039002910192039B029AC3F8DE
:101574000825039B019AC3F8102500BF04B07047E7
:1015840000B583B001904FF0FF324FF0FF31019866
:10159400FFF7E7FF00BF03B05DF804FB82B00190E2
:1015A4000B468DF803309DF80330019A1344012251
:1015B4001A6000BF02B0704782B001900B468DF8EC
:1015C400033013468DF802309DF803209DF8023055
:1015D4001343DBB21A46019BC3F86C2500BF02B06B
:1015E400704782B001900091019B009AC3F82425B2
:1015F40000BF02B0704784B00390029113468DF887
:101604000730029A039BC3F844259DF80720039BE7
:10161400C3F8482500BF04B0704782B00190019B15
:10162400D3F84C35184602B0704784B00390029149
:1016340013468DF80730029A039BC3F834259DF8AE
:101644000720039BC3F8382500BF04B0704782B05D
:101654000190019BD3F83C35184602B0704700B5A1
:1016640083B003468DF807309DF907301846FFF71D
:10167400A3FD00BF03B05DF804FB84B00190019B9F
:101684001B0B8DF80F309DF90F30184604B07047CE
:1016940082B00190019B03F06043B3F1005F0CBF83
:1016A40001230023DBB2184602B0704700B583B0B3
:1016B4000190019B1B681F2B04D905494FF4E87066
:1016C40002F071F84FF0A043184603B05DF804FB34
:1016D40004AF000000B585B00190084611461A46D3
:1016E40003468DF803300B468DF8023013468DF80F
:1016F400013001AB1846FFF7D9FF03909DF8032092
:101704009DF802305B001A439DF801309B001A4398
:101714009DF818301B0242EA03019DF81C301B049B
:10172400019A1943039B02F5E07243F8221000BFAB
:1017340005B05DF804FB00B585B003900023019368
:10174400002300930023012201210398FFF7C2FF25
:1017540000BF05B05DF804FB00B585B003900B46EF
:101764008DF80B309DF80B3000220192002200927C
:10177400002200210398FFF7ADFF00BF05B05DF81C
:1017840004FB00B585B0039000230193002300936C
:101794000023012200210398FFF79CFF00BF05B03E
:1017A4005DF804FB00B585B0019001AB1846FFF766
:1017B4007DFF0390019B012202FA03F3194603986B
:1017C40000F004F800BF05B05DF804FB82B001909E
:1017D4000091019B009AC3F8082500BF02B070472E
:1017E40000B583B001900091009B1B68B3F1FF3FEB
:1017F40009D0009B1B681846FFF7D4FF009B1B68A9
:101804001846FFF798FF009B5B68B3F1FF3F05D0D4
:10181400009B5B6800211846FFF79EFF019B1B7924
:10182400464A5B0113441C331B78002B41D0019BB7
:101834001A68009B9B6919461046FFF7D2FE019B6C
:101844001868009B597D009B1B7D1A46FFF7B4FE68
:10185400019B1868009B1968009B5B681A46FFF798
:1018640043FE009B1B7D012B64D1009B9B68B3F15D
:10187400FF3F05D0009B9B6800211846FFF76CFFD3
:10188400009BDB68B3F1FF3F09D0009BDB6818467F
:10189400FFF788FF009BDB681846FFF74CFF019BAE
:1018A4001868009BD968009B9B681A46FFF759FE8D
:1018B40040E0019B1A68009B9B6919461046FFF79C
:1018C40091FD019B1868009B597D009B1B7D1A4666
:1018D400FFF773FD019B1868009B1968009B5B6808
:1018E4001A46FFF7ECFC009B1B7D012B22D1009BC9
:1018F4009B68B3F1FF3F05D0009B9B68002118460D
:10190400FFF72AFF009BDB68B3F1FF3F09D0009B80
:10191400DB681846FFF746FF009BDB681846FFF7B5
:101924000AFF019B1868009BD968009B9B681A46B4
:10193400FFF702FD00BF03B05DF804FBF4040020D0
:1019440000B583B001900B468DF80330019B1B79E1
:101954002D4A5B0113441C331B78002B2FD0019BB1
:101964001B684FF488711846FFF746FD019B1B68FE
:101974004FF490711846FFF73FFD019B1B684FF42D
:1019840092711846FFF738FD019B1B684FF4A27152
:101994001846FFF731FD019B1B681C491846FFF7E9
:1019A4006FFD019B1B681846FFF767FE03461A4646
:1019B4009DF8033019461046FFF7D4FB20E0019B45
:1019C4001B684FF48E711846FFF70EFC019B1B68D1
:1019D4004FF4A2711846FFF707FC019B1B680C49E2
:1019E4001846FFF728FC019B1B681846FFF745FEC5
:1019F40003461A469DF8033019461046FFF7B2FB1A
:101A040000BF03B05DF804FBF404002010030200DF
:101A14008000020000B583B00190019B1B79154A38
:101A24005B0113441C331B78002B0FD0019B1B68F4
:101A340011491846FFF72EFD019B1B681846FFF756
:101A44001CFE03461846FFF70AFE0EE0019B1B68C6
:101A54000A491846FFF709FC019B1B681846FFF763
:101A64000CFE03461846FFF7FAFD00BF03B05DF80D
:101A740004FB00BFF40400201003020084020200EF
:101A840000B587B00190019B1B79364A5B01134472
:101A94001C331B78002B22D0019B1B681846FFF7D0
:101AA40040FD0590019B1B681846FFF742FD04901A
:101AB400019B1B681846FFF744FD0390019B1B68BC
:101AC4001846FFF746FD0290019B1B681846FFF776
:101AD4001AFD019B1B681846FFF752FD21E0019B8C
:101AE4001B681846FFF708FC0590019B1B68184605
:101AF400FFF70AFC0490019B1B681846FFF70CFCD7
:101B04000390019B1B681846FFF70EFC0290019B93
:101B14001B681846FFF7E2FB019B1B681846FFF79A
:101B24001AFC059BB3F1FF3F02D00598FFF729FE8D
:101B3400049BB3F1FF3F02D00498FFF722FE029BFF
:101B4400B3F1FF3F02D00298FFF71BFE039BB3F1F2
:101B5400FF3F02D00398FFF714FE00BF07B05DF803
:101B640004FB00BFF404002000B583B00190019B86
:101B74001B790B4A5B0113441C331B78002B05D0E3
:101B8400019B1B681846FFF79DFC04E0019B1B6842
:101B94001846FFF782FB00BF03B05DF804FB00BFEB
:101BA400F404002000B583B00190019B1B790B4A1B
:101BB4005B0113441C331B78002B05D0019B1B686D
:101BC4001846FFF788FC04E0019B1B681846FFF7E2
:101BD4006DFB00BF03B05DF804FB00BFF4040020FC
:101BE40000B587B0039002910192029B002B04D1AF
:101BF40022494FF4887001F0D6FD039B1B795B01E9
:101C04001F4A1344059300230493059BDB7E002B9A
:101C140003D008230493049B2BE0029B5A7F059B6B
:101C24001A7702990398FFF7DBFD059B019A5A6026
:101C3400029B1A69059B1A60059B5B68002B05D003
:101C4400029B1B7F19460398FFF77AFE0398FFF760
:101C54008BFF059B0022DA75059B00221A76059BF3
:101C640000229A75059B0122DA76059B00229A765A
:101C7400049B184607B05DF804FB00BF44AF0000A6
:101C8400F404002000B585B00190019B1B795B0131
:101C94000C4A134403930198FFF784FF039B5B688A
:101CA400002B02D00198FFF7B5FE0198FFF7E8FE7C
:101CB400039B0022DA76039B00225A6000BF05B022
:101CC4005DF804FBF404002000B585B00190009198
:101CD4004FF48E710198FFF787FA009B9B68009A76
:101CE400928A92B213441B788DF80F30009B9B8A22
:101CF4009BB201339AB2009B9A829DF80F30194629
:101D04000198FFF73FFB00BF05B05DF804FB00003E
:101D140000B585B00190019B1B795B01344A1344E3
:101D2400029300230393019B1B684FF48E711846A2
:101D3400FFF75AFA019B1B6808211846FFF72FFB8F
:101D4400019B1B6802991846FFF7BEFF029B5B6864
:101D5400002B47D11FE000BF019B1B684FF48E711D
:101D64001846FFF756FA034683F00103DBB2002B53
:101D740005D0029B9B8A9BB2B3F5807FECD1029B7A
:101D84009B8A9BB2B3F5807F05D0019B1B680299A7
:101D94001846FFF799FF029B9B8A9BB2029A927D99
:101DA4009342D8D3029B9B8A9BB2B3F5807F02D126
:101DB4000F23039313E000BF019B1B684FF48E7144
:101DC4001846FFF726FA034683F00103DBB2002B23
:101DD400F2D1019B1B680C211846FFF7E0FA029B25
:101DE40000229A75039B184605B05DF804FB00BFFA
:101DF400F404002000B587B00190019B1B795B01BE
:101E04002A4A1344049300230593019B1B684FF44F
:101E140090711846FFF7F0FA019B1B684FF4AC7100
:101E24001846FFF7E9FA019B1868049B9968049B1C
:101E34009B7D1A46FFF7DFFB019B1B6808211846B0
:101E4400FFF7ACFB049B5B68002B2AD1019B1B684A
:101E54004FF490711846FFF7E4FA03468DF80F30FB
:101E6400019B1B684FF4AC711846FFF7DAFA03467E
:101E74008DF80E309DF80F3083F00103DBB2002B98
:101E840006D09DF80E3083F00103DBB2002BDDD1C8
:101E94009DF80E30002B01D00F230593049B0022E4
:101EA4009A75059B184607B05DF804FBF4040020FE
:101EB40000B587B00390029113468DF80730039B59
:101EC4001B795B012E4A13440493049BDB7E012B94
:101ED40004D02C494FF4CC7001F065FC9DF8073018
:101EE400002B04D1274940F2991001F05CFC029BBD
:101EF400002B04D123494FF4CD7001F054FC039B13
:101F04001B791F4A5B0113441C331B78002B0CD034
:101F14000298FFF7BDFB034683F00103DBB2002BFD
:101F240003D010230593059B25E0039800F02CF8BB
:101F34000346002B03D011230593059B1BE0049B50
:101F44009DF807209A75049B029A9A60049B0022CC
:101F54009A82039B1B790A4A5B0113441C331B7846
:101F6400002B04D00398FFF745FF034603E00398D2
:101F7400FFF7CEFE0346184607B05DF804FB00BF2A
:101F8400F404002044AF000082B00190019B1B794F
:101F9400064A5B01134416331B78002B14BF01233C
:101FA4000023DBB2184602B0704700BFF4040020DF
:101FB40000B583B00190019B1B684FF492711846E1
:101FC400FFF712F9019B1B684FF484711846FFF761
:101FD4000BF9019B1B6800211846FFF7E0F900BFCD
:101FE40003B05DF804FB10B582B001900091009B32
:101FF400DB7D002B08D14FF484710198FFF7F4F8CE
:102004000198FFF7B6F916E04FF484710198FFF7D1
:10201400EBF8009BDB68009A527ED2B29C180198C0
:10202400FFF7A7F903462370009B5B7EDBB2013305
:10203400DAB2009B5A7602B010BD000000B589B038
:102044000390029111461A460B468DF80730134649
:102054008DF80630039B1B795B014D4A13440793AB
:10206400079B9B7E83F00103DBB2002B09D09DF814
:10207400063083F00103DBB2002B02D00398FFF794
:1020840097FF079B5B68002B73D1039B1B684FF47E
:10209400A2711846FFF7A8F8039B1B684FF49271CE
:1020A4001846FFF7B6F803468DF81B30039B1B68F0
:1020B4004FF484711846FFF7ACF803468DF81A30D4
:1020C400039B1B684FF4A2711846FFF7A2F803465E
:1020D4008DF819309DF81A3083F00103DBB2002B20
:1020E4000DD09DF8193083F00103DBB2002B06D02C
:1020F4009DF81B3083F00103DBB2002BCCD19DF89B
:102104001B30002B10D19DF81930002B0CD1039BF0
:102114001B6807991846FFF766FF079BDA7D079B44
:102124005B7EDBB29A42B7D8079B0022DA759DF832
:102134001B30002B03D003230593059B23E09DF85C
:102144001930002B03D00F230593059B1BE0079B3D
:102154009B7E002B06D0039B1B6800211846FFF7CB
:102164001EF90DE0039B1B6804211846FFF717F9BD
:1021740006E0039B1B684FF401711846FFF75BF8F8
:1021840000230593059B184609B05DF804FB00BFC6
:10219400F404002000B587B00390029111461A465A
:1021A4000B468DF8073013468DF80630002305934F
:1021B400039B1B684FF488711846FFF71DF9039BB6
:1021C4001B684FF4A2711846FFF716F9039B1B68AE
:1021D4009DF8072002991846FFF727FA9DF8063064
:1021E40083F00103DBB2002B06D0039B1B680021A4
:1021F4001846FFF7D3F905E0039B1B682021184616
:10220400FFF721F9039B1B792D4A5B011344043327
:102214001B68002B47D1039B1B684FF48871184639
:10222400FFF7FFF803468DF81330039B1B684FF448
:10223400A2711846FFF7F5F803468DF81230039B98
:102244001B684FF492711846FFF7EBF803468DF8BC
:1022540011309DF8133083F00103DBB2002B0DD055
:102264009DF8123083F00103DBB2002B06D09DF8F9
:10227400113083F00103DBB2002BCCD1039B1B791B
:102284000F4A5B011344173300221A709DF8113072
:10229400002B01D0032305939DF81230002B09D0A5
:1022A4000F23059306E0039B1B684FF40471184643
:1022B400FFF7E6F8059B184607B05DF804FB00BF7E
:1022C400F404002000B589B00390029113468DF800
:1022D4000730039B1B795B015A4A13440593039B04
:1022E4001B79584A5B0113441B331B78012B04D020
:1022F40055494FF4167001F056FA9DF80730002B3B
:1023040004D1514940F2592001F04DFA039B1B7945
:102314004C4A5B0113441C331B78002B0CD00298ED
:10232400FFF7B6F9034683F00103DBB2002B03D0B9
:1023340010230793079B81E000238DF81B30059B36
:102344005B68002B17D0039B1B793E4A5B01134447
:102354001C331B78002B07D0039B1B684FF40471BC
:102364001846FFF797F806E0039B1B684FF40171CA
:102374001846FEF77AFF059BDB7D002B26D0059BD4
:102384001B7E002B1FD0059B5B68002B17D0039B83
:102394001B792C4A5B0113441C331B78002B07D098
:1023A400039B1B684FF404711846FFF769F806E0B5
:1023B400039B1B684FF401711846FEF73CFF112381
:1023C4000793079B3AE001238DF81B309DF81B30DF
:1023D40083F00103DBB2002B0DD0059B9DF8072091
:1023E400DA75059B029ADA60059B00225A76059BF2
:1023F40000221A7606E0059B029A1A61059B9DF855
:1024040007201A76039B1B790E4A5B0113441C3385
:102414001B78002B09D09DF81B309DF807200299EA
:102424000398FFF7B7FE034608E09DF81B309DF8BC
:10243400072002990398FFF701FE0346184609B0E6
:102444005DF804FBF404002044AF000000B589B03B
:1024540003900B4601928DF80B3001238DF8103058
:102464009DF80B308DF81830019B0593039B5B6836
:10247400039A116804AA1046984700BF09B05DF892
:1024840004FB00B587B001900B468DF803300023A0
:102494008DF808309DF803308DF81030019B9B684F
:1024A4000393019B00229A75019B5B68019A116852
:1024B40002AA1046984700BF07B05DF804FB00006D
:1024C40000B583B00190019B1B790F4A5B01134453
:1024D4001C331B78002B06D0019B1B680421184673
:1024E400FFF75CF80CE0019B1B684FF40171184680
:1024F400FEF7BBFE019B1B6804211846FEF74FFF45
:1025040000BF03B05DF804FBF404002000B589B0FB
:10251400019000914FF400710198FEF796FE034676
:10252400002B39D04FF492710198FEF772FE0346E6
:10253400002B31D04FF492710198FEF755FE4FF401
:1025440001710198FEF791FE009B9B7E83F00103CD
:10255400DBB2002B03D004210198FEF720FF0223F5
:102564008DF808300198FEF78AFE03460593009B18
:10257400DB7D8DF81030009BDB680393009B002209
:10258400DA75009B00221A76009B5B68009A11683A
:1025940002AA1046984756E004210198FEF755FE1A
:1025A4000346002B4FD04FF484710198FEF731FE9F
:1025B4000346002B47D000990198FFF714FD009BB8
:1025C400DA7D009B5B7EDBB29A423CD1009B1B7E92
:1025D400002B1CD0009BDB680793009B5B7E8DF86F
:1025E4001B30009B1A7E009BDA75009B1A69009BC6
:1025F400DA60009B00221A76009B00225A769DF82E
:102604001B30079A19460098FFF720FF1BE0009B38
:102614009B7E83F00103DBB2002B03D004210198DD
:10262400FEF7BDFE4FF401710198FEF71EFE009BFC
:102634000022DA75009B5B7ED9B2009BDB681A46E8
:102644000098FFF703FF4FF48E710198FEF7E1FD48
:102654000346002B1AD0009B9B8A9BB2009A927D62
:10266400934204D200990198FFF72EFB0EE04FF439
:102674008E710198FEF7B8FD009B9B7D002B05D061
:10268400009B9B7D19460098FFF7FBFE4FF4A27157
:102694000198FEF7BEFD0346002B1CD04FF4A27137
:1026A4000198FEF7A1FD009B9B7E002B03D0002127
:1026B4000198FEF774FE009BDB7D002B0BD0009B82
:1026C4000022DA75009B5B7ED9B2009BDB681A4658
:1026D4000098FFF7BBFE00BF09B05DF804FB00B52E
:1026E40089B0019000914FF492710198FEF799FE20
:1026F4000346002B24D04FF492710198FEF77CFE20
:1027040002238DF808300198FEF7CEFE03460593A8
:102714000198FEF79CFF0346DBB28DF81030009B56
:10272400DB680393009B0022DA75009B00221A7673
:10273400009B5B68009A116802AA1046984741E022
:102744004FF488710198FEF76CFE0346002B39D0D4
:102754004FF488710198FEF74FFE0198FEF777FF5A
:1027640003468DF81F30009BDB7D9DF81F209A42A5
:1027740028D1009B1B7E002B19D0009BDB6806939D
:1027840020210198FEF76DFE009B1A7E009BDA75EE
:10279400009B1A69009BDA60009B00221A769DF860
:1027A4001F30069A19460098FFF750FE0AE0009B76
:1027B4000022DA75009BDA689DF81F3019460098EC
:1027C400FFF744FE4FF4A2710198FEF72AFE034678
:1027D400002B16D04FF4A2710198FEF70DFE009B5A
:1027E400DB7D002B0DD0009B0022DA750198FEF7EB
:1027F4002EFF0346D9B2009BDB681A460098FFF708
:1028040025FE4FF490710198FEF70BFE0346002B52
:1028140011D04FF490710198FEF7EEFD009B9B7D63
:10282400002B08D00198FEF7F8FE0346DBB21946E8
:102834000098FFF726FE00BF09B05DF804FB000016
:1028440008B5074B1B7F002B04D005490548FFF74B
:1028540046FF03E002490348FFF758FE00BF08BDE6
:10286400F40400200020004000BF044BD3F80034DF
:10287400002BFAD000BF00BF704700BF00E001404A
:1028840000B583B001900F4B0222C3F80425BFF3B7
:102894006F8F00BFBFF34F8F00BF0A4A019BC2F87E
:1028A4000835FFF7E1FF074B0022C3F80425BFF307
:1028B4006F8F00BFBFF34F8F00BF00BF03B05DF841
:1028C40004FB00BF00E0014000B583B0019000911B
:1028D4000E4B0122C3F80425BFF36F8F00BFBFF373
:1028E4004F8F00BF019B009A1A60FFF7BDFF074B93
:1028F4000022C3F80425BFF36F8F00BFBFF34F8FCF
:1029040000BF00BF03B05DF804FB00BF00E001405E
:1029140000B589B0039002910192029B9BB2ADF87D
:102924001430019B0693039B079305AB1A460021C1
:1029340044F2010000F052F800BF09B05DF804FB56
:1029440086B003900291019201238DF817309DF80F
:102954001730214A039B13601F4A029B53601E4A8F
:10296400019B9360039B44F20102934213D0039BA7
:1029740044F20202934222D1019B174AD360164BC0
:10298400DB681B881A46144B9A61134BDB685B683F
:10299400114AD36113E0019B0F4A13610E4B1B696B
:1029A4009B680D4A53610C4B1B691B881A460A4BE2
:1029B4009A61094B1B695B68074AD36100BF72B611
:1029C40000BF00BF9DF81730DBB2002BFAD162B60E
:1029D40000BF00BF06B070471405002030B589B0B1
:1029E40005900491039207F015F906F0A3FE03463F
:1029F400002BFAD1059B44F20102934218D0059BA7
:102A040044F20202934235D1039B07932B4B5B683C
:102A1400002B3ED0294B1B881B0443F00100079B6D
:102A24005B681A46079B1B88254906F048FE30E080
:102A3400039B0693214B5B68002B2CD01F4B1B88F8
:102A44001B0443F00104069B9D68069B9B68184683
:102A540006F0F8F903461946069B5B681A46069B7E
:102A64001B88019300920B462A461649204606F01D
:102A74003AFE10E0114B5B68002B0ED00F4B1B8805
:102A84001B0443F00103049A0F49184606F006FE9E
:102A940003E000BF02E000BF00E000BF0B4B1B6877
:102AA40003F00103002B00D0FFDE039A049905987C
:102AB400FFF746FF00BF09B030BD00BF2000002073
:102AC4009CAF0000B8AF0000D0AF0000F0ED00E014
:102AD40082B003468DF807309DF8073003F01F02DB
:102AE40005499DF907305B09012000FA02F241F81B
:102AF400232000BF02B0704700E100E082B003462B
:102B04008DF807309DF8073003F01F0206499DF940
:102B140007305B09012000FA02F2203341F8232038
:102B240000BF02B0704700BF00E100E082B003467E
:102B34008DF807309DF8073003F01F0206499DF910
:102B440007305B09012000FA02F2403341F82320E8
:102B540000BF02B0704700BF00E100E082B003464E
:102B64008DF807309DF8073003F01F0206499DF9E0
:102B740007305B09012000FA02F2603341F8232098
:102B840000BF02B0704700BF00E100E082B003461E
:102B940000918DF807309DF90730002B0CDA009B6B
:102BA400DAB20C499DF8073003F00F03043B5201DD
:102BB400D2B20B441A7609E0009BDAB206499DF9B9
:102BC40007305201D2B20B4483F8002300BF02B095
:102BD400704700BF00ED00E000E100E084B0019028
:102BE400244B0393019B002B40D0234B1A68039979
:102BF400019B00BF00BF00BF00BF00BF00BF00BFFC
:102C040000BF8A422FD000BF00BF00BF00BF00BF7B
:102C140000BF00BF00BF00BF00BF00BF00BF00BFB8
:102C240000BF00BF00BF00BF00BF00BF00BF00BFA8
:102C340000BF00BF00BF00BF00BF00BF00BF00BF98
:102C440000BF00BF00BF00BF00BF00BF00BF00BF88
:102C540000BF00BF00BF00BF00BF00BF00BF00BF78
:102C640000BF00BF00BF013BC3D1019300BF04B04C
:102C7400704700BF0024F4009800002000B583B022
:102C84000190064A019BC2F8083507211120FFF77D
:102C94007DFF00BF03B05DF804FB00BF00100140DE
:102CA40008B50D4B4FF48032C3F844230A4B4FF45C
:102CB4008032C3F804231120FFF750FF1120FFF7DF
:102CC40007FF054B01221A602F20FFF787FF034BF4
:102CD40001221A7000BF08BD0010014052060020F6
:102CE40008B51120FFF70AFF0E4B4FF48032C3F8EA
:102CF40048230C4B4FF48032C3F80823094B0122BC
:102D04005A602F20FFF76AFF064B01229A60064B98
:102D140000221A602F20FFF761FF044B00221A7073
:102D240000BF08BD001001404406002052060020E8
:102D3400024BD3F804351846704700BF0010014019
:102D440082B001900091019A009BD31A23F07F4333
:102D5400184602B07047000082B00190034A019BFC
:102D6400C2F8403500BF02B0704700BF00100140F8
:102D740086B00190284B1B68002B03D1264A019B87
:102D8400136045E0019B1A68234B1B681B689A4239
:102D940010D8214B1B681968019B1A681E4B1B68CD
:102DA4008A1A1A601C4B1A68019BDA611A4A019B41
:102DB40013602DE0019B1B680393174B1B6805935D
:102DC400154B1B68049309E0049B1B68039AD31AF0
:102DD4000393049B0593049BDB690493049B002BDE
:102DE40004D0049B1B68039A9A42EDD8049B002BE1
:102DF40005D0049B1A68039BD21A049B1A60019B9A
:102E0400039A1A60019B049ADA61059B019ADA61BC
:102E140000BF06B0704700BF4006002000B587B071
:102E240001902A4B1B680393284B1B680593059B51
:102E3400049308E0049A019B9A4208D0049B0593EA
:102E4400049BDB690493049B002BF3D100E000BFD7
:102E5400049B002B01D1002333E0059A049B9A4282
:102E640014D11A4B1B68DB69184A1360174B1B6893
:102E7400002B0BD1164B01229A60164B00221A60CC
:102E8400154B01221A702F20FFF7A8FE049B1B6824
:102E94000293049BDA69059BDA61059BDB69049361
:102EA400049B002B05D0049B1A68029B1A44049BC4
:102EB4001A60064B1B68039A9A4214BF012300232D
:102EC400DBB2184607B05DF804FB00BF40060020E3
:102ED40000100140440600205306002008B51120CC
:102EE400FFF724FE00BF08BD08B51420FFF71EFE3F
:102EF40000BF08BD00B583B00190019B5B69019AD6
:102F040092691046984700BF03B05DF804FB0000C7
:102F140000B585B02B4B1B68002B4ED000230193CA
:102F2400FFF706FF0246284B1B6819461046FFF7B9
:102F340007FF0290234B1B6803931DE0039B1B6850
:102F4400029A9A421CD3039B1B68029AD31A0293D7
:102F5400039B1B68019A13440193039B0093039BF7
:102F6400DB690393009B1B7C002B05D0009B002294
:102F74001A740098FFF7BEFF039B002BDED100E01C
:102F840000BF124B1A78124B1B789A420CD1104B8B
:102F94001B780133DAB20E4B1A700D4B1B78022BDF
:102FA40002D10B4B00221A70094B1B781946094AAF
:102FB400019B42F82130FFF797FF00BF05B05DF891
:102FC40004FB00BF400600204406002050060020F9
:102FD400510600204806002082B00190184B1A7850
:102FE400184B1B789A4223D0154B1B780133DAB265
:102FF400134B1A70124B1B78022B02D1104B002278
:103004001A700F4B1B781A460F4B53F82220019B62
:103014001A60019B1A680D4B1B6813440B4A13601A
:103024000A4B1B6823F07F43084A1360012303E023
:10303400019B00221A600023184602B0704700BFAB
:1030440050060020510600204806002044060020B7
:1030540088B00390029101920023079338E0204B3B
:103064001B680693069B1B68039A9A4206D2069B2A
:103074001A68039BD21A069B1A602EE0069B1B68F3
:10308400039AD31A0393069B1B68079A1344079366
:10309400069B00221A60124B1B680593069BDB6992
:1030A4000F4A1360069BDB68002B11D0029A079B22
:1030B400134423F07F42069B5A60069BDA68069B02
:1030C4009A60019B1A68069BDA61019B059A1A6053
:1030D400034B1B68002BC2D100BF00BF08B0704770
:1030E4004006002000B589B0019000238DF81F3000
:1030F400664B1B680593AAE0019B002B05D0019B3E
:103104000693069BDB69019361E0614B1B781A46C9
:1031140013465B001344DB005D4A134404330493F9
:103124005B4B1B780133DAB2594B1A70584B1A783F
:10313400574B9B789A4202D1554B00221A70049B3C
:103144005B680693049B1B78032B1ED0032B7EDC49
:10315400012B1FD0022B7AD1049B5B681846FFF722
:103164005DFE0346002B02D001238DF81F30069B21
:1031740000221A746BE0454B1B680393039B0022E7
:103184001A74039BDB69414A1360404B1B68002B94
:10319400F1D15CE000BF069B1B7C002B00D056E005
:1031A400049B9A68069B5A60049BDA68069B9A60A3
:1031B400049B1A69069BDA60049B5A69069B9A6110
:1031C400344B1B78002B02D0069B00225A60069BCE
:1031D4005A68314B1B68D31A23F07F432F4A93421A
:1031E4000ED8069B5B682C4A126811461846FFF7F6
:1031F400A7FD0246069B9B681A44069B1A6017E0CB
:10320400254B1A68069B5B6819461046FFF798FD24
:103214000290069B9B68029A9A4206D2069B9A6881
:10322400029BD21A069B1A6002E0069B00221A60D7
:10323400069B00225A60069B00229A60069B01228C
:103244001A74069B0022DA610698FFF791FD019B30
:10325400002B7FF451AF0E4B1A780D4B5B789A42DA
:103264007FF44AAF9DF81F30002B04D1074B1B6835
:10327400059A9A4201D0012300E0002303F00103E0
:10328400DBB2184609B05DF804FB00BF400600201D
:10329400340500205306002044060020FEFF7F0072
:1032A40010B588B00190274B1B68002B44D0254BE8
:1032B4001B681B680793FFF73BFD0690224B1B68B6
:1032C400059305990698FFF73BFD034603330493E2
:1032D4001E4B1B7883F00103DBB2002B01D0FFF7F8
:1032E400DFFC049A079B934238BF1346059A1344A4
:1032F4000593059B23F07F4305930598FFF72CFD69
:10330400FFF716FD039006990398FFF719FD03468E
:10331400DC1C06990598FFF713FD03469C420DD962
:10332400FFF706FD03461846FFF716FD2F20FFF7AB
:1033340055FCFFF7D3FD01E0FFF7D2FC00BF08B056
:1033440010BD00BF400600204406002052060020A5
:1033540000B587B00023019300238DF81730194B73
:103364001B680493184B1B6803936B461846FFF7BE
:1033740033FE03468DF80B309DF80B30002B08D03C
:10338400009B01AA04991846FFF762FE01238DF8F9
:103394001730019B1846FFF7A5FE0346002B02D009
:1033A40001238DF817309DF81730002B02D00398B5
:1033B400FFF776FF054B00221A7000BF07B05DF8D7
:1033C40004FB00BF440600204006002053060020F2
:1033D40082B003468DF80730034A9DF807305370D6
:1033E40000BF02B0704700BF3405002084B00190D4
:1033F400144B5B7801338DF80F30124B9B789DF89A
:103404000F209A4202D100238DF80F300D4B1B7808
:103414009DF80F209A4201D100230FE0019B9DF8F3
:103424000F201A70074B5B781A4613465B0013444F
:10343400DB00044A134404330293029B184604B08D
:10344400704700BF3405002000B589B00390029195
:103454000192009300230793002000F05DF90DF121
:1034640017031846FFF7C2FF0690069B002B02D1F4
:103474000423079318E0069B01221A70069B039A03
:103484005A60FFF755FC0246069B9A60069B029A17
:10349400DA60069B019A1A61069B009A5A619DF8AC
:1034A40017301846FFF794FF002000F049F9079BF6
:1034B400002B01D1FFF718FD079B184609B05DF8F2
:1034C40004FB00B587B001900B468DF80330002350
:1034D4000593002000F020F90DF10F031846FFF7C3
:1034E40085FF0490049B002B02D1042305930BE079
:1034F400049B9DF803201A70049B019A5A609DF85E
:103504000F301846FFF764FF002000F019F9059BFF
:10351400002B01D1FFF7E8FC059B184607B05DF8C6
:1035240004FB000008B50E4B0022C3F840210C4BED
:103534000022C3F844210A4B0022C3F84821084B57
:103544000022C3F84C21064B0022C3F80021044B8F
:103554000022C3F80421FFF7DBFC00BF08BD00BF55
:103564000010014008B5FFF7F3FE00BF08BD0000DE
:1035740008B5FFF7B5FB134B00221A70114B00225C
:103584005A70104B0B229A700F4B00221A600F4B8B
:1035940000221A700E4B00221A701420FFF7DEFA74
:1035A40007211420FFF7F2FA1420FFF791FA002004
:1035B400FFF764FBFFF7BCFB0346064A13600023D6
:1035C400184608BD3405002040060020500600209F
:1035D400510600204406002086B003900B46019259
:1035E4008DF80B30134B9B78002B01D108231EE080
:1035F400019B002B01D1072319E0039B002B01D170
:10360400072314E0039B1B681B7C002B01D00823B9
:103614000DE0039B1B680593059B00221A74059B10
:103624009DF80B205A74059B019A5A610023184691
:1036340006B070473405002000B587B003900291AE
:103644000192039B0593144B9B78002B01D1082313
:103654001EE0039B002B01D1082319E0029B042BDD
:1036640001D8072314E0059B5B69002B01D10823D3
:103674000EE0059B5B7C012B01D1029B00E0002343
:103684000493019B049A02990598FFF7DDFE034613
:10369400184607B05DF804FB3405002000B585B07A
:1036A4000190019B03930D4B9B78002B01D10823C0
:1036B40010E0019B002B03D0039B5B69002B01D11D
:1036C400082307E0039B00221A7402210398FFF7E2
:1036D400F8FE0346184605B05DF804FB34050020E7
:1036E40072B600BF034B1B680133024A136000BF6C
:1036F400704700BF54060020064B1B68013B054A77
:103704001360044B1B68002B01D162B600BF00BFDD
:10371400704700BF5406002000B583B0019000F04C
:1037240025F80346012B03D00449432000F03BF85D
:10373400FFF7D6FF00BF03B05DF804FBE8AF00005D
:1037440000B583B003468DF8073000F00FF8034648
:10375400012B03D00449512000F025F8FFF7CCFFDA
:1037640000BF03B05DF804FBE8AF000084B0EFF3E2
:1037740005830193019BC3F308030393039B002B6D
:103784000DD1EFF314830093009B0293029B03F08B
:103794000103002B0CBF01230023DBB200E0012353
:1037A400184604B0704700B585B003460091ADF8E3
:1037B4000630BDF80630ADF80830009B039302AB29
:1037C4001A46002144F20200FFF708F900BF05B0D1
:1037D4005DF804FB00B583B001900B468DF803300F
:1037E400019B002B03D10849AF20FFF7DCFF019BAD
:1037F400DA689DF803300199098A01FB03F3134445
:10380400184603B05DF804FB4CB0000000B583B06B
:1038140001900091019B002B03D10849BC20FFF7C4
:10382400C2FF009B019AD2689B1A019A128AB3FBC9
:10383400F2F3DBB2184603B05DF804FB4CB00000B1
:1038440000B585B00190019B002B01D10E2348E007
:10385400019B1B68002B03D12449C620FFF7A3FF5B
:10386400019B5B68002B03D12049C720FFF79BFF16
:10387400019B9B68002B03D11C49C820FFF793FFD1
:10388400019BDB68002B03D11849C920FFF78BFF8C
:10389400019B1B8A002B03D11449CA20FFF783FF25
:1038A400019B9A68019B5B68D31A8DF80F30019BCA
:1038B4001B68019A52681A6007E0019B1A68136832
:1038C400591C11609DF80F201A709DF80F305A1E74
:1038D4008DF80F20002BF0D1019B1B6800221A7178
:1038E4000023184605B05DF804FB00BF4CB000008F
:1038F40000B585B00190019B002B03D11B49EC203E
:10390400FFF751FF002303930020FFF705FF019BFE
:103914001B681A68019B5B689A421FD9019B1B684C
:103924001A68013A1A601B681B7819460198FFF758
:1039340051FF0390019B9A68019B1B681B68D31A73
:103944008DF80B30019B1B681B799DF80B209A4264
:1039540004D9019B1B689DF80B201A710020FFF706
:10396400EFFE039B184605B05DF804FB4CB0000065
:1039740010B584B001900091019B002B04D1114932
:103984004FF48870FFF70FFF009B002B04D10D4903
:1039940040F21110FFF707FF009B03930020FFF78D
:1039A400BBFE019B1B681C68621C1A60039901988A
:1039B400FFF72CFF034623700020FFF7C1FE00BF72
:1039C40004B010BD4CB0000082B00190019B0122F4
:1039D4005A7200BF02B0704782B00190019B9B688D
:1039E40093F83D31C3F34003DBB2002B14BF012332
:1039F4000023DBB2184602B07047000084B0019087
:103A0400244B0393019B002B40D0234B1A6803994A
:103A1400019B00BF00BF00BF00BF00BF00BF00BFCD
:103A240000BF8A422FD000BF00BF00BF00BF00BF4D
:103A340000BF00BF00BF00BF00BF00BF00BF00BF8A
:103A440000BF00BF00BF00BF00BF00BF00BF00BF7A
:103A540000BF00BF00BF00BF00BF00BF00BF00BF6A
:103A640000BF00BF00BF00BF00BF00BF00BF00BF5A
:103A740000BF00BF00BF00BF00BF00BF00BF00BF4A
:103A840000BF00BF00BF013BC3D1019300BF04B01E
:103A9400704700BF0024F4009800002000B583B0F4
:103AA4000190019B002B04D0019806F0F5FD03461C
:103AB40000E00023184603B05DF804FB10B582B0A3
:103AC4000190019B9B68DB7C1C46019B1B6818468C
:103AD400FFF7E4FF03462344019A9268527BB3FB49
:103AE400F2F101FB02F29B1A002B0CBF012300230D
:103AF400DBB2184602B010BD10B582B00190019B34
:103B04009B689B7C1C46019B1B681846FFF7C6FFFD
:103B140003462344019A9268527BB3FBF2F101FB02
:103B240002F29B1A002B0CBF01230023DBB21846C0
:103B340002B010BD10B588B00390029101920093B9
:103B4400039B002B02D0029B002B03D12B49912015
:103B5400FFF729FE039B5B681B68002B03D12749F1
:103B64009220FFF720FE002307933BE0039B5B6852
:103B74001B68DC68039B5868029A079BD11805AB45
:103B8400019AA0470690069B002B03D01B499C205A
:103B9400FFF709FE059B019A9A4203D217499D201B
:103BA400FFF701FE059B079A13440793059B019AAF
:103BB400D31A0193059B002B14D1039B9B681B789C
:103BC400032B0FD000BF039B9B6893F83C31DBB2FF
:103BD40083F00103DBB2002BF5D1039B9B68002229
:103BE40083F83C21019B002BC0D1009B002B02D009
:103BF400059A009B1A6000BF08B010BDCCB000004D
:103C040000B583B001900B468DF80330019B1B690E
:103C14009DF803200349184603F008FF00BF03B0D2
:103C24005DF804FB1CB1000010B586B0039002914E
:103C340001920093039B002B02D0029B002B03D123
:103C44000C49C020FFF7AFFD039B5B68002B03D139
:103C54000849C120FFF7A7FD039B5B681B681C692B
:103C6400039B5868009B019A0299A047059000BFE6
:103C740006B010BDCCB0000000B589B0039002912D
:103C840001920093009B002B03D13A49D520FFF702
:103C94008AFD0A9B002B03D13649D620FFF783FD0A
:103CA400029B002B34D1344A344BD31ADB08019ADB
:103CB4009A4229D200230693314B0593002307939C
:103CC4001BE0079BDB002D4A13440693019B9B00DA
:103CD400059A13441A68069B5B681B6819461046CC
:103CE40006F028FD0346002B04D1069B5A68009B6E
:103CF4001A603CE0079B013307931F4A1F4BD31AFA
:103D0400DB08079A9A42DCD3009B00221A602EE05B
:103D1400039B002B03D1009B00221A6027E0039B26
:103D24001B78002B10D0039B5B680A990198984775
:103D34000A9B1B68002B03D1009B00221A6016E02B
:103D4400009B0A9A1A6012E0039B5A68019B1B01AC
:103D540013441B68002B07D0039B5A68019B1B016B
:103D64001A44009B1A6002E0009B00221A6009B00A
:103D74005DF804FBCCB00000CCA900008CA90000C5
:103D84000000002000B585B00190019B9B6803935F
:103D9400019B9B6808330293019B1B681846FFF73D
:103DA4007DFE0346DAB2029B9A71039BDB7C1A46C2
:103DB400029B9B791344029A527993FBF2F101FB23
:103DC40002F29B1ADBB20133DAB2029B1A70039B34
:103DD400DB7C1A46029B9B791344029A527993FB2B
:103DE400F2F3DBB20133DAB2029B9A70039B9B7C41
:103DF4001A46029B9B791344029A527993FBF2F37D
:103E0400DBB20133DAB2029BDA70039B9B7C1A4665
:103E1400029B9B791344029A527993FBF2F101FBC2
:103E240002F29B1ADBB20133DAB2029B5A70029B94
:103E3400184605B05DF804FB00B583B00190019B02
:103E4400002B04D10C494FF49D70FFF7ACFC019B8F
:103E54001B69002B04D108494FF49D70FFF7A3FCA4
:103E6400019B1B69054A0649184603F0DFFD00BFA4
:103E740003B05DF804FB00BFCCB00000E8B600005E
:103E840020B1000000B583B00190019B002B04D148
:103E94000C494FF4A070FFF786FC019B1B69002BB3
:103EA40004D108494FF4A070FFF77DFC019B1B6906
:103EB400054A0649184603F0B9FD00BF03B05DF892
:103EC40004FB00BFCCB00000DCB6000020B1000051
:103ED40000B583B00190019B002B04D10C494FF431
:103EE400A370FFF760FC019B1B69002B04D10849F8
:103EF4004FF4A370FFF757FC019B1B69054A064961
:103F0400184603F093FD00BF03B05DF804FB00BF47
:103F1400CCB00000E0B6000020B1000000B583B0D2
:103F24000190019B002B04D10C494FF4A670FFF7BC
:103F34003AFC019B1B69002B04D108494FF4A6707D
:103F4400FFF731FC019B1B69054A0649184603F03B
:103F54006DFD00BF03B05DF804FB00BFCCB00000F2
:103F6400CCB6000020B1000000B583B001900B4630
:103F74008DF803309DF80330002B07D0019B1B699B
:103F84009DF803200349184603F050FD00BF03B019
:103F94005DF804FB24B1000000B583B001900B462A
:103FA4008DF803309DF80330002B07D0019B1B696B
:103FB4009DF803200349184603F038FD00BF03B001
:103FC4005DF804FB2CB1000000B583B001900B46F2
:103FD4008DF803309DF80330002B07D0019B1B693B
:103FE4009DF803200349184603F020FD00BF03B0E9
:103FF4005DF804FB34B1000000B583B001900B46BA
:104004008DF803309DF80330002B07D0019B1B690A
:104014009DF803200349184603F008FD00BF03B0D0
:104024005DF804FB3CB1000000B585B00190019B34
:104034009B68DA7C019B9B689B7C9A4220D2019806
:10404400FFF7A0FE0390039B9B788DF80B30019B38
:104054009B68DA7C0132D2B2DA740198FFF792FEDF
:104064000390039B9B789DF80B209A4204D1012175
:104074000198FFF791FF04E00198FFF74FFF00E07C
:1040840000BF05B05DF804FB00B585B00190019850
:10409400FFF778FE0390039B9A78039BDB789A42A0
:1040A4000CBF012300238DF80B300198FFF706FDA8
:1040B4000346002B05D10198FFF71EFD0346002B94
:1040C40002D00198FFF72AFF9DF80B30002B0AD08D
:1040D400039B5A78039B1B78D31ADBB219460198C9
:1040E400FFF742FF24E0039BDA78039B9B78D31A03
:1040F400DBB219460198FFF767FF039B1A78039B0D
:104104005B789A420AD9039B1A78039B5B78D31A8B
:10411400DBB219460198FFF73FFF09E0039B5A7889
:10412400039B1B78D31ADBB219460198FFF71CFFD7
:1041340000BF05B05DF804FB00B585B0019001989F
:10414400FFF720FE0390039B1B781A46039B9B7981
:1041540001339A4203D1039B9B78012B2FD0039BFD
:104164009B78012B07D9039B9B78013BDBB2194653
:104174000198FFF729FF039B1A78039B9B799A42C6
:104184000CD9039B1A78039B9B79D31ADBB2013BAE
:10419400DBB219460198FFF7E7FE0BE0039B9A791F
:1041A400039B1B78D31ADBB20133DBB219460198A7
:1041B400FFF7F2FE019B9B680022DA7400E000BF67
:1041C40005B05DF804FB00B585B001900198FFF7D8
:1041D400D9FD0390039B1A78039B5B789A4205D11F
:1041E400039B9A78039BDB789A4231D0039BDA785D
:1041F400039B9B789A4209D9039BDA78039B9B78AB
:10420400D31ADBB219460198FFF7F6FE039B1A781E
:10421400039B5B789A420AD9039B1A78039B5B78C9
:10422400D31ADBB219460198FFF79EFE09E0039BFF
:104234005A78039B1B78D31ADBB219460198FFF70F
:10424400ABFE019B9A68019B9B68927CDA7400E048
:1042540000BF05B05DF804FB00B587B001900023F2
:10426400ADF816300023ADF8143000238DF8133068
:1042740000238DF80B30019B9B689433802200212E
:10428400184606F0D5FA019B1B697749184603F0D6
:10429400CDFB019B1B69184603F0A6FB0023ADF878
:1042A4001030D5E003AB0DF10B0101220198FFF7AB
:1042B400BBFC039B002B04D140F2E730FFF79EFBCD
:1042C400BDE09DF80B301B2B06D0019B9B6893F837
:1042D40094301B2B40F0B2809DF80B30522B40F0F1
:1042E4009380019B9A689DF813301344002283F84D
:1042F4009420019B9B6893F895305B2B06D0019B1F
:104304009B68002283F894200B23A8E002238DF8F5
:1043140013301BE0BDF814301A46920013445B00BE
:104324009AB2019B99689DF81330581C8DF81300BC
:104334000B4493F8943013449BB2303BADF81430E3
:104344009DF91330002B01DA0C2388E0019B9A6855
:104354009DF81330134493F894303B2BDAD19DF835
:10436400133001338DF813309DF91330002B1DDA0F
:104374000C2374E0BDF816301A46920013445B0017
:104384009AB2019B99689DF81330581C8DF813005C
:104394000B4493F8943013449BB2303BADF8163081
:1043A4009DF91330002B01DA0C2358E0019B9A6825
:1043B4009DF81330134493F89430002BDAD1BDF8F0
:1043C4001630FA2B04D9019B9B68FA221A7205E075
:1043D400019B9B68BDF81620D2B21A72BDF8143046
:1043E400FA2B04D9019B9B68FA229A7205E0019B7F
:1043F4009B68BDF81420D2B29A72019B9B6800227C
:1044040083F8942000232AE0019B9A689DF81330D6
:104414009DF80B1013440A4683F894209DF813303A
:1044240001338DF813309DF81330092B07D9019B04
:104434009B68002283F89420042310E000BF039BB0
:10444400002B7FF42FAFBDF810300133ADF81030DE
:10445400BDF81030B3F57A7FFFF424AF0D2318466E
:1044640007B05DF804FB00BFD0B6000000B587B00C
:10447400039002910192029B002B04D12A4940F23D
:104484004F20FFF790F9019B002B04D126494FF4EC
:104494001470FFF788F90398FFF7DEFE0346002B3C
:1044A40018D1039B9B681B7AADF81630039B9B685D
:1044B4009B7AADF81430FA210398FFF76DFDFA21C9
:1044C4000398FFF799FD0398FFF7C6FE0346002BF8
:1044D40024D101E0062322E0039B9B681A7A029B05
:1044E4001A70039B9B689A7A019B1A70029B1A7834
:1044F400BDF81630DBB2D31ADBB219460398FFF7C6
:1045040033FD019B1A78BDF81430DBB2D31ADBB249
:1045140019460398FFF758FD002300E006231846C8
:1045240007B05DF804FB00BFCCB0000000B585B057
:1045340001900B468DF803309DF80330002B2ED0EC
:10454400019B9B68DB7B9DF803209A4234D01B239C
:104554008DF808305B238DF8093031238DF80A304B
:104564003B238DF80B3033238DF80C309DF803304A
:104574002F33DBB28DF80D306D238DF80E30002310
:104584008DF80F30019B9B689DF80320DA73019B23
:104594001B6902AA0A49184603F048FA0DE0019B78
:1045A4009B689DF80320DA73019B1B69054A044943
:1045B400184603F03BFA00E000BF05B05DF804FBC9
:1045C40020B10000D8B6000000B585B001900B46BC
:1045D4008DF803309DF80330002B29D0019B9B6894
:1045E4001B7C9DF803209A4221D01B238DF80830B0
:1045F4005B238DF8093034238DF80A309DF803309D
:104604002F33DBB28DF80B306D238DF80C30002383
:104614008DF80D30019B9B689DF803201A74019B53
:104624001B6902AA0449184603F000FA00E000BF1F
:1046340005B05DF804FB00BF20B1000082B001901A
:104644000091019B9B680F331B889AB2009B1A80D0
:1046540000BF02B0704700B583B001900091009B89
:104664001B7819460198FFF761FF009B5B78194698
:104674000198FFF7A9FF00BF03B05DF804FB00B584
:1046840085B001900198FFF77DFB0390039B1B7895
:104694001A46039B9B7901339A4203D1039B9B786F
:1046A400012B1FD0039B1B78012B10D101210198F2
:1046B400FFF78AFC039B5B7919460198FFF76CFCB2
:1046C400019B9B68DA7C013AD2B2DA740BE00121D7
:1046D4000198FFF749FC019B9B68DA7C013AD2B24E
:1046E400DA7400E000BF05B05DF804FB00B585B0E6
:1046F40001900198FFF746FB0390039B1A78039BF4
:104704005B789A4205D1039B9A78039BDB789A42A3
:1047140021D0039B1A78039B5B799A4210D1012123
:104724000198FFF769FC039B5B7919460198FFF731
:104734001BFC019B9B68DA7C0132D2B2DA740BE079
:1047440001210198FFF728FC019B9B68DA7C013268
:10475400D2B2DA7400E000BF05B05DF804FB82B0A9
:1047640001900B468DF80330019B9B689B7C7E2B4C
:104774001BD8019B9968019B9B68DA7C501CC0B2D2
:10478400D87413460B449DF803201A75019B9B684B
:10479400019A9268D27C134400221A75019B9B688B
:1047A4009A7C0132D2B29A7400E000BF02B0704722
:1047B40000B587B001900B468DF80330019B9B68D0
:1047C40093F83D31C3F30003DBB2002B14BF012384
:1047D40000238DF81730019B9B689A7C019B9B6892
:1047E400DB7CD31A8DF816309DF8173083F0010363
:1047F400DBB2002B20D0019B9B689B7C7E2B00F2BC
:10480400D9809DF81630002B20D0019B9A68019B1B
:104814009B68DB7C013310331344181D019B9A6899
:10482400019B9B68DB7C1033134404339DF81620F2
:10483400194605F001FF09E0019B9B689B7C7E2BD8
:1048440004D99DF81630002B00F0B680019B9B68BC
:10485400019A9268D27C13449DF803201A759DF83E
:10486400173083F00103DBB2002B0BD0019B9A6855
:10487400019B9B68997C0131C9B299749B7C134458
:1048840000221A759DF81630002B41D00198FFF7CD
:1048940079FA0490049B9A78049BDB789A420CBFC3
:1048A400012300238DF80F309DF80F30002B17D013
:1048B400019B9A68019B9B68DB7C1033134404338F
:1048C4003F4A0821019801F027FE9DF817309DF812
:1048D4001620D31ADBB219460198FFF745FB2DE0E9
:1048E4000198FFF7CFFA019B9A68019B9B68DB7CD8
:1048F400103313440433324A0821019801F00CFEAA
:104904000198FFF7E5FA01210198FFF745FB15E04F
:104914009DF81730002B0BD0019B9A68019B9B6874
:10492400997C0131C9B299749B7C134400221A7595
:104934009DF8033019460198FFF762F9019B9B68C3
:10494400DA7C0132D2B2DA740198FFF7B7F8034681
:10495400002B03D00198FFF7E1FA2EE00198FFF74E
:10496400CBF80346002B28D00198FFF70BFA0290EE
:10497400029BDA78029B9B78D31ADBB2013BDBB251
:1049840019460198FFF738FB0198FFF7C7FA029B15
:10499400DA78029B9B78D31ADBB219460198FFF7A9
:1049A40013FB029B1B78013BDBB219460198FFF70E
:1049B400F3FA02E000BF00E000BF07B05DF804FBBB
:1049C40020B1000000B587B00190019B9B689B7CDF
:1049D400002B00F08180019B9B68DB7C002B7BD04B
:1049E400019B9B689A7C019B9B68DB7CD31A8DF8A6
:1049F4001730019B9A68019B9B68DB7C013B103359
:104A04001344181D019B9A68019B9B68DB7C10333F
:104A14001344191D9DF8173001331A4605F00CFE96
:104A2400019B9B68DA7C013AD2B2DA74019B9B68E1
:104A34009A7C013AD2B29A749DF81730002B43D075
:104A440008210198FFF7DCF80198FFF79BF904901F
:104A5400049B9A78049BDB789A420CBF01230023C1
:104A64008DF80F309DF80F30002B16D0019B9A68FB
:104A7400019B9B68DB7C103313440433184A0821E0
:104A8400019801F049FD0198FFF7D6F99DF8173018
:104A940019460198FFF768FA1FE00198FFF7F2F949
:104AA4000198FFF7C9F9019B9A68019B9B68DB7C1D
:104AB4001033134404330A4A0821019801F02CFDF1
:104AC4000198FFF705FA08E0019B1B69054A0449B0
:104AD400184602F0ABFF00E000BF07B05DF804FB2E
:104AE40020B10000E4B6000000B587B00190019B3E
:104AF4009B689A7C019B9B68DB7CD31A8DF81730EA
:104B04009DF81730002B75D0019B9A68019B9B6818
:104B1400DB7C10331344181D019B9A68019B9B682E
:104B2400DB7C01331033134404339DF817201946FA
:104B340005F082FD019B9B689A7C013AD2B29A747B
:104B44000198FFF71FF90490049B9A78049BDB7883
:104B54009A420CBF012300238DF80F309DF80F30CB
:104B6400002B30D0019B9A68019B9B68DB7C10333F
:104B740013440433214A0821019801F0CDFC019B20
:104B8400002B04D11E4940F29530FEF70CFE019B28
:104B94001B69002B04D11A4940F29530FEF703FE3D
:104BA400019B1B69174A1549184602F03FFF9DF8FF
:104BB4001730013B8DF817309DF8173019460198CE
:104BC400FFF7D2F917E00198FFF75CF90198FFF7B6
:104BD40033F9019B9A68019B9B68DB7C1033134477
:104BE4000433064A0821019801F096FC0198FFF766
:104BF4006FF900E000BF07B05DF804FB20B10000CE
:104C0400CCB00000ECB6000010B586B00390029161
:104C140001928DF8033000238DF81730039B002296
:104C24001A60019B1B788DF811309DF81130002B10
:104C340000F06C819DF81130184605F04AFE0346D9
:104C4400002B05D0019B5A1C019200221A7055E1D9
:104C5400039B1B68591C039A11609B00029A13441E
:104C6400019A1A6000238DF81730019B1B788DF888
:104C740011309DF81130002B00F03D819DF8173064
:104C8400002B2AD19DF811305C2B06D05C2B23DC41
:104C9400222B11D0272B0FD01EE0019B5C1C019806
:104CA400FEF7FCFE03461A462146019805F0C4FCB3
:104CB400019B013301931DE1019B5C1C0198FEF7EC
:104CC400EDFE03461A462146019805F0B5FC9DF811
:104CD40011308DF817300DE100BF9DF817209DF8B5
:104CE40011309A420ED1019B5C1C0198FEF7D6FE4E
:104CF40003461A462146019805F09EFC00238DF8D0
:104D04001730F7E09DF81730002B00F0E4809DF891
:104D140011305C2B40F0DF80019B5B788DF81630FE
:104D24009DF816209DF817309A420ED1019B5C1C09
:104D34000198FEF7B3FE03461A462146019805F092
:104D44007BFC019B01330193D4E09DF81630302B9A
:104D540048D100238DF8143002238DF8153020E05B
:104D64009DF81530019A13441B788DF816309DF880
:104D740016302F2B19D99DF81630372B15D89DF9DD
:104D84001430DB005AB29DF81630303BDBB25BB214
:104D940013435BB28DF814309DF8153001338DF850
:104DA40015309DF81530042BDAD99DF81530022BF7
:104DB40018D99DF81530013B019AD4180198FEF7D3
:104DC4006DFE02469DF81530D31A02331A46214669
:104DD400019805F031FC019B5A1C01929DF81420A6
:104DE4001A7087E09DF81630782B74D100238DF863
:104DF400123002238DF813304CE09DF81330019AE1
:104E040013441B788DF816309DF816302F2B11D9CA
:104E14009DF81630392B0DD89DF912301B015AB26A
:104E24009DF81630303BDBB25BB213435BB28DF8B6
:104E340012302AE09DF81630602B11D99DF81630F7
:104E4400662B0DD89DF912301B015AB29DF816300D
:104E5400573BDBB25BB213435BB28DF8123014E004
:104E64009DF81630402B19D99DF81630462B15D8CD
:104E74009DF912301B015AB29DF81630373BDBB254
:104E84005BB213435BB28DF812309DF813300133DB
:104E94008DF813309DF81330032BAED99DF81330E1
:104EA400022B18D99DF81330013B019AD4180198AC
:104EB400FEF7F4FD02469DF81330D31A02331A4666
:104EC4002146019805F0B8FB019B5A1C01929DF8FC
:104ED40012201A700EE09DF81730002B07D19DF8B0
:104EE4001130184605F0F5FC0346002B05D1019B53
:104EF40001330193B9E600BF00E000BF039B1A68C9
:104F04009DF803309A42FFF48CAE00E000BF039B8F
:104F14001B680C2B04D908494FF48660FEF743FC48
:104F2400039B1B689B00029A134400221A609DF89D
:104F34001730184606B010BDCCB0000000B583B0E1
:104F440001900B468DF80330019B9B689DF803206C
:104F54001A709DF80330022B12D1019B9B6800222A
:104F64001A75019B9B680022DA74019B9B680022DE
:104F74009A74019B1B68044A0321019801F0CCFA3E
:104F840000BF03B05DF804FB20B1000082B00190C3
:104F9400019B9B680022C3F8382100BF02B0704710
:104FA40000B587B001900B468DF8033000230393BE
:104FB4000023049300238DF8143000238DF8163059
:104FC4009DF8033083F00103DBB2002B49D0019B31
:104FD4009B68D3F83831002B00F0E1800198FFF78B
:104FE400ABF8019B9B68D3F8380103A9002309227D
:104FF40003F04AFA019B9B68049AC3F83821019B89
:105004009B689B7C8DF81730019B9B68D3F83831E3
:10501400002B7AD1019B9B6894331846FEF73EFD22
:105024000346002B0BD0019B9B6803F11402019BE8
:105034009B6894331946104605F0B0FB03E0019BCE
:105044009B6800221A75019B9B6814331846FEF76F
:1050540025FD0346DBB28DF8143001238DF816309C
:1050640053E0019B9B68D3F83821019B9B68D3F8DC
:1050740034319A4200F09580019B9B68D3F830311B
:10508400002B00F08E800198FFF756F8019B9B6877
:10509400D3F83831002B26D1019B9B681433184672
:1050A400FEF7FCFC03468DF81730019B9A68019BC0
:1050B4009B68D2F83021C3F838219DF81730002BB3
:1050C4000BD0019B9B6803F19402019B9B681433F2
:1050D4001946104605F062FB17E0019B9B6800220D
:1050E40083F8942011E0019B9B68D3F8380103A94D
:1050F4000023092203F0C8F99DF814308DF8173005
:10510400019B9B68039AC3F838219DF8163083F0FD
:105114000103DBB2002B17D0019B9B68D3F8380145
:1051240003A90023092203F0AFF9019B9B68D3F87C
:105134003801019B9B6803F114019DF8143001337D
:105144001A46092303F0A0F9019B9B689DF81420DB
:10515400DA74019B9B689DF814209A749DF81430AE
:105164009DF817209A4202D90198FEF765FE019B2B
:105174009B6814330D4A0821019801F0CDF9019878
:10518400FEF79CFC0346002B05D10198FEF7B4FC06
:105194000346002B06D00198FEF7C0FE02E000BFD4
:1051A40000E000BF07B05DF804FB00BF20B10000C1
:1051B40000B587B001900091009B002B04D12D49CC
:1051C40040F2B240FEF7EFFA019B9B68D3F830310E
:1051D400002B13D1019B9B68009AC3F83021019BDB
:1051E4009B68009AC3F8342100230393002304939B
:1051F400019B9B689B7C8DF8143024E0019B9B6889
:10520400D3F8300103A90023092203F03DF9009BE0
:105214000493019B9B68D3F8300103A9002309225E
:1052240003F020F900230493019B9B68D3F83031E9
:105234000393019B9B689B7C8DF81430019B9B68B6
:10524400009AC3F8302103A900230922009803F02F
:1052540009F9019B9B6803F11401019B9B689B7CEA
:1052640001331A460923009803F0FCF800BF07B085
:105274005DF804FBCCB0000000B587B00190019B41
:105284009B68D3F83431002B3FD0019B9B68D3F843
:105294003431059302A900230922059803F0F4F898
:1052A400019B9B68039AC3F8342102AB09220021B5
:1052B400184605F0BDFA02A900230922059803F057
:1052C400D1F8059802F0E8FF019B9B68D3F83431CC
:1052D400002B05D1019B9B680022C3F8302115E007
:1052E400019B9B68D3F8340102A90023092203F02F
:1052F400CBF800230293019B9B68D3F8340102A9E5
:105304000023092203F0AEF800E000BF07B05DF807
:1053140004FB00B589B00190019B9B6814331846C7
:10532400FEF7BCFB03468DF81B300198FFF72EFEF9
:105334009DF81B30002B5BD0019B9B68D3F8303168
:10534400002B36D0019B9B68D3F8300102A90023BF
:10535400092203F099F89DF810309DF81B209A4219
:1053640027D1019B9B68D3F83001019B9B6803F113
:1053740094019DF8103001331A46092303F084F890
:10538400019B9B6803F11402019B9B6894331946AB
:10539400104605F0CFF90346002B05D1019B9B680D
:1053A400002283F8942024E0019B9B68002283F868
:1053B40094200023079317E0019B5A699DF81B3042
:1053C4000A331946104602F010FF0590059B002B86
:1053D40004D005990198FFF7EBFE0AE00198FFF766
:1053E4004BFF079B01330793079B072BE4D900E08E
:1053F40000BF09B05DF804FB84B001900091002364
:105404008DF80F301FE09DF80F30019A13441A787D
:105414009DF80F3000990B441B789A4202D09DF8F6
:105424000F3019E09DF80F3001338DF80F309DF8DF
:105434000F30002B07D19DF80F30013B8DF80F3052
:105444009DF80F3008E09DF80F30019A13441B7843
:10545400002BD8D19DF80F30184604B070470000D7
:1054640000B587B00390029113468DF80730029B74
:10547400002B04D13F4940F25B50FEF794F9039BA3
:105484009B689A7C039B9B68DB7CD31A8DF817304E
:10549400039B9B689B7C1A469DF8073013447F2B23
:1054A40064DC9DF80730002B60D0039B9A68039B53
:1054B4009B68DB7C19469DF807300B44103313447A
:1054C400181D039B9A68039B9B68DB7C1033134471
:1054D400191D9DF8173001331A4605F0ADF8039BEA
:1054E4009A68039B9B68DB7C1033134404339DF858
:1054F40007200299184605F09FF8039B9B68143314
:105504001846FEF7CBFA0246039B9B68D2B29A7404
:10551400039B9A68039B9B68DB7C1033134404331E
:10552400154A0821039800F0F7FF039B9B68D97C78
:10553400039B9B689DF807200A44D2B2DA7403984F
:10554400FEF7BCFA0346002B05D10398FEF7D4FA04
:105554000346002B02D00398FEF7E0FC9DF81730B9
:10556400002B04D00398FEF78FFD00E000BF07B0C6
:105574005DF804FBCCB0000020B1000010B588B089
:105584000590049113468DF80F30049B002B04D131
:10559400059B9B6800225A744DE0284B1B681846F3
:1055A400FEF77CFA0346DAB29DF80F3013448DF807
:1055B4000F30059B9B685B7B1C46204B1B68184681
:1055C400FEF76CFA0346E21A9DF80F30B2FBF3F3D0
:1055D4008DF81F300498FEF761FA0346DBB29DF89C
:1055E4000F20D31A8DF81E30059B9A68537C591CE2
:1055F400C9B251749DF81F20B3FBF2F101FB02F212
:105604009B1ADBB2002B0AD10C4B1A68049B009343
:1056140013460B4A0721059800F07EFF05E0049B22
:10562400084A0721059800F077FF9DF81E301946B7
:105634000598FEF7B1FC08B010BD00BF9C00002027
:1056440044B1000020B1000000B5A3B003900023D2
:10565400209300231F9300238DF87B3000238DF8C3
:105664007A30039B9B689B7CC3F17F038DF8793070
:105674009DF87930002B00F0DE81039B9B6803F1D9
:105684009400039B9B6803F11401039B9B68DB7CE0
:105694001A4605F09BF8039B9B68039A9268D27C98
:1056A4001344002283F89420039B9A68039B9B680D
:1056B400DB7C013B13441B7D184605F00AF90346C5
:1056C400002B14BF012300238DF873300398FFF7D8
:1056D4005DFC039B9B6803F194020EA91BA80C2399
:1056E400FFF792FA9DF87B309B0088336B4453F8A4
:1056F400503C1846FEF7D2F903468DF87830002363
:105704001D9300230993002308931B9B002B09D0AE
:105714009DF87B209DF873101B9B0B44013B9A4220
:10572400C0F0A7809DF87330002B03D000238DF8C0
:1057340078300CE09DF87B309B0088336B4453F841
:10574400503C1846FEF7AAF903468DF8783000233A
:1057540021939DF87B10219A531C219309A80AAB2D
:10576400009303461D98FEF787FA099B002B7ED011
:105774009DF87B309B0088336B4453F8500C099B95
:105784001B689DF87820194604F09CFF0346002B03
:1057940003D0089B002B68D06AE0089B002B1BD128
:1057A400219B013B1F93099B1B681846FEF776F962
:1057B40003468DF87A309DF879209DF87A109DF88B
:1057C4007830CB1A9A4241DD9DF87A209DF87830E2
:1057D400D31A8DF8793039E0099B1B681846FEF717
:1057E4005DF903468DF872309DF872209DF87A3089
:1057F4009A4203D99DF872308DF87A309DF8793049
:10580400002B23D09DF87B1008AA04AB0093134609
:10581400209A1D98FEF730FA099B1A689DF8783093
:10582400D018089B1A689DF8783013441946FFF77E
:10583400E3FD03468DF872309DF879209DF87230AF
:105844009A4203D99DF872308DF87930219B013B3F
:105854002093099B0893219B002B7FF47AAF7A4A0B
:105864000421039800F058FE02E000BF71E700BF76
:105874002DE0002321939DF87B10219A531C219342
:1058840009A80AAB009303461D98FEF7F5F9219B7E
:10589400002B05D16C4A0421039800F03DFECFE0B3
:1058A400099B002B00F0C9809DF87B309B00883356
:1058B4006B4453F8502C099B1B681946104604F09E
:1058C40039FF0346002BD6D1099B9B681D931D9B72
:1058D400002B10D0099B002B0DD09DF87B30013399
:1058E4008DF87B309DF87B209DF873101B9B0B4437
:1058F4009A42FFF40AAF089B002B00F0A0801F9A85
:10590400209B9A4256D11D9B1B78002B09D09DF8F1
:105914007B1008AA0AAB00931346209A1D98FEF741
:10592400ABF9089B1B681846FEF7B8F802469DF8C9
:1059340078309A420AD0089B1A689DF8783013444C
:105944009DF8792019460398FFF78AFD039B9B680D
:10595400039A9268D27C13441B7D184604F0B9FF65
:105964000346002B22D1039B9B6893F83D3103F03F
:105974000103DBB2002B14D0039B9A6892F83D31EB
:1059840023F0010382F83D3120210398FEF710FF34
:10599400039B9A6892F83D3143F0010382F83D314C
:1059A4004EE020210398FEF703FF49E00398FEF739
:1059B4003BFB45E09DF87A301A4600210398FFF737
:1059C400DDFD1F9B219314E09DF87B1009AA0AAB0F
:1059D40000931346219A1D98FEF74EF9099B1B6804
:1059E4009DF87A2019460398FFF7C8FD219B0133DF
:1059F4002193219A209B9A42E6D9039B1B68134A60
:105A04000321039800F088FD039B9B681433104A1C
:105A14000821039800F080FD0398FEF735FB089BEE
:105A24001A689DF8783013449DF879201946039834
:105A3400FFF716FD04E000BF02E000BF00E000BF76
:105A440023B05DF804FB00BF4CB100007CB1000042
:105A540020B1000082B003468DF807309DF907306D
:105A6400002B01DA0B2300E00023184602B0704734
:105A740000B585B001900023039303AB0DF10B0136
:105A840001220198FEF7D0F8039B002B00F040811F
:105A94009DF80B301846FFF7DDFF0346002B40F05E
:105AA400358102F003FD019B9B685B78022B00F0BB
:105AB400C980022B00F32581002B03D0012B00F0B9
:105AC400B3801EE1019B1A7E9DF80B309A4210D1DF
:105AD400019B9B689B7C002B03D10198FEF71EFA67
