:020000022000DC
:10300000000001203D310200DD300200DF3002000F
:10301000E1300200E3300200E53002000000000071
:10302000000000000000000000000000E730020087
:10303000E930020000000000EB300200ED30020039
:1030400095E20200F3300200FDF50200F7300200C5
:10305000F9300200FB30020051ED0200FF300200A7
:103060000131020003310200053102000731020084
:10307000093102000B3102000D3102000F31020054
:1030800011310200750503001531020017310200ED
:10309000B50503001B310200E1BC03001F31020033
:1030A00021310200233102002531020027310200C4
:1030B000293102002B310200EF300200EF30020014
:1030C0002D3102002F310200313102003331020074
:0C30D000353102003731020039310200B6
:1030DC00FEE7FEE7FEE7FEE7FEE7FEE7FEE7FEE7BC
:1030EC00FEE7FEE7FEE7FEE7FEE7FEE7FEE7FEE7AC
:1030FC00FEE7FEE7FEE7FEE7FEE7FEE7FEE7FEE79C
:10310C00FEE7FEE7FEE7FEE7FEE7FEE7FEE7FEE78B
:10311C00FEE7FEE7FEE7FEE7FEE7FEE7FEE7FEE77B
:10312C00FEE7FEE7FEE7FEE7FEE7FEE7FEE700BF91
:10313C000F484FF00701884385460E4880470E48DC
:10314C00016841F470010160BFF34F8FBFF36F8FC3
:10315C0000F01AB809480A490A4A884207D0521A9C
:10316C0005D0037801300B700131013AF9D1704769
:10317C0000000120D551020088ED00E0D4C9030005
:10318C00582E0020482F00203A493B480A1A02D0FA
:10319C00072291438D46394939480A1A06D007222D
:1031AC00914381F30988022282F314883548364909
:1031BC00364A00F041F836483649374A00F03CF8B8
:1031CC0036483749374A00F037F837483749384AD4
:1031DC0000F032F837483849384A00F02DF83848B2
:1031EC003849394A00F028F838483949394A00F04A
:1031FC0023F839483949002200F036F83848394963
:10320C00002200F031F838483849091A19F05AF9F7
:10321C00374A904725482649884205D00268043031
:10322C0003B4904703BCF7E700208646EC46002029
:10323C000021304A9047FEE7884214D0521A12D02F
:10324C0003460B4313430324234206D10368043083
:10325C000B600431043AF9D17047037801300B70DC
:10326C000131013AF9D17047884202D00270013025
:10327C00FAE770470000012000F800200000012050
:10328C000000012038FA0300482F00208030002075
:10329C0004330200043302007EC8030038FA030032
:1032AC00482F0020482F0020C4CA0300C4CA0300C2
:1032BC00C4CA0300C4CA0300C4CA0300C4CA0300BE
:1032CC00C4CA0300C4CA030035FA030070FB030030
:1032DC00803000208030002080300020B05800204A
:1032EC00B0580020B0580020B0580020B05A002030
:0832FC00613102000D420200E5
:1033040076DF704700BF18467ADF704700BF184663
:103314007CDF704700BF18468FDF704700BF184638
:10332400A8DF704700BF184666DF704700BF184625
:1033340082B00190019B9B6893F84131C3F3400331
:10334400DBB2002B14BF01230023DBB2184602B00A
:103354007047000000B583B003460091ADF8063015
:10336400BDF80630009A194603480CF0B3FA00BFC2
:1033740003B05DF804FB00BFEFBEADDE00B583B063
:103384000E4B5B68022B08D90C4B1B881B0443F0C3
:1033940003030B49184617F079F807F02BFC01904A
:1033A400019B0093009B002B04D0064AAC2100989B
:1033B4000CF090FA00BF03B05DF804FB802E0020EF
:1033C40024CB030034CB030000B585B003468DF84D
:1033D40007309DF80730002B02D0FFF7CFFF0EE037
:1033E4000321094803F032FA0390039B0293029BE2
:1033F400002B04D0054ABE2102980CF06BFA00BFE2
:1034040005B05DF804FB00BFAC30002034CB0300F2
:1034140000B583B00190019B1B78052B0CD1084BA0
:103424005B68032B08D9064B1B881B0443F0040379
:103434000449184617F02AF800BF03B05DF804FBEE
:10344400802E002098CB030010B58CB00390039B12
:103454001B780F2B00F2B88001A252F823F000BFB2
:10346400A5340200CD350200C3340200CD3502007C
:10347400FD340200CD35020013350200B3350200DD
:10348400CD35020065350200CD3502007F350200DE
:103494003D35020099350200CD3502005F3502004A
:1034A400524B5B68022B40F29180504B1B881B04EB
:1034B40043F003034E49184616F0E8FF86E04B4BF1
:1034C4005B68022B40F28480484B1B881B0443F04A
:1034D4000304039B5B88184603F03EFE03461A462A
:1034E400039B5B881946039B1B7A00930B46414957
:1034F400204616F0FEFF6BE000238DF81430039B8A
:103504005B8805AA1146184607F038FB6BE00FF0FC
:1035140045F80790079B0E2B5CD0079B082B59D0CE
:10352400079B0693069B002B54D0334A40F20311A9
:1035340006980CF0CFF94DE02C4B5B68032B08D9AF
:103544002A4B1B881B0443F004032C49184616F02D
:103554009DFF0020FFF738FF45E007F023FB42E022
:10356400039B1B690993099B002B35D0224A4FF416
:103574008B7109980CF0AEF92EE0039B9B680A93BB
:103584000A9B002B2AD01C4A4FF48E710A980CF027
:10359400A1F923E0039B9B680B930B9B002B1FD08B
:1035A400154A4FF491710B980CF094F918E0039BB1
:1035B4009B680893089B002B14D00F4A4FF4947116
:1035C40008980CF087F90DE000BF0CE000BF0AE09A
:1035D40000BF08E000BF06E000BF04E000BF02E057
:1035E40000BF00E000BF00BF0CB010BD802E002063
:1035F400A8CB0300D4CB030034CB030014CC0300CA
:1036040000B587B09DF80030012262F303038DF802
:1036140000309DF80030012262F307138DF800306A
:103624006B460A221C491846FFF772FE0590059B5B
:103634000493049B002B05D0184A4FF4A3710498FB
:103644000CF048F901AB08220021184619F06AF879
:103654004FF4A073ADF804304FF40273ADF80630A4
:103664000023ADF808304FF4C873ADF80A3001AB4D
:103674001846FFF749FE0590059B0393039B002B17
:1036840005D0064A4FF4A87103980CF023F900BF43
:1036940007B05DF804FB00BF34CC030034CB030057
:1036A40000B583B0019000910A4B5B68032B0CD9E1
:1036B400084B1B881B0443F00400019B5B881A46DB
:1036C400019B1B88044916F000FF00BF03B05DF89E
:1036D40004FB00BF802E002040CC030000B583B063
:1036E40009490A4805F0CEFB0190019B0093009B19
:1036F400002B05D0064A40F2611100980CF0EAF85C
:1037040000BF03B05DF804FBA5360200983000202A
:1037140034CB030000B599B010AB14220021184635
:1037240019F000F89DF84D30012262F303038DF87F
:103734004D309DF84D30012262F307138DF84D3062
:103744009DF84E30012262F303038DF84E309DF84C
:103754004E30012262F307138DF84E309DF84F303E
:1037640023F00F038DF84F309DF84F3023F0F00312
:103774008DF84F309DF85030012262F303038DF829
:1037840050309DF85030012262F307138DF8503009
:103794000023109301238DF84430002312936423F3
:1037A4008DF84C3010AB1946234809F00FFA1790E6
:1037B400179B1693169B002B05D0204A40F27F11CD
:1037C40016980CF087F86B4640220021184618F032
:1037D400A9FF6B461A49184603F00EFE9DF83C30CB
:1037E400012262F303038DF83C309DF83C30012242
:1037F40062F307138DF83C309DF83D3023F00F033E
:103804008DF83D309DF83D3023F0F0038DF83D30C8
:103814006B46184609F01AFC1790179B1593159BD5
:10382400002B05D0054A4FF4C57115980CF052F8D9
:1038340000BF19B05DF804FB8030002034CB0300D6
:103844007CCC030000B585B003468DF807309DF8A5
:103854000730002B1ED0032B20D1144B5B68022BA6
:1038640008D9124B1B881B0443F003031049184664
:1038740016F00CFE022001F09FFA0390039B0293C2
:10388400029B002B0CD00B4A4FF4CE7102980CF023
:1038940021F805E0002014F039FE02E000BF00E04A
:1038A40000BF00BF05B05DF804FB00BF802E002000
:1038B40090CC030034CB030010B598B00390029170
:1038C400039B1B88562B00F0C580562B00F33081D8
:1038D400512B00F0F280512B00F32A813B2B00F096
:1038E40099803B2B00F32481212B6BD0212B00F3F7
:1038F4001F81112B4FD0112B00F31A81012B00F0E3
:10390400C980102B40F01481914B5B68022B08D9BD
:103914008F4B1B881B0443F003038E49184616F093
:10392400B5FD072001F048FA1790179B1293129BDC
:10393400002B05D0884A4FF4DC7112980BF0CAFFB3
:10394400039B9A88854B1A80844B1B88ADF83830CA
:103954000EA90023009301230122814811F0D4FD14
:1039640017907F4811F00EFE1190119B002B05D08B
:10397400794A40F2BD1111980BF0ACFF179B1093DC
:10398400109B002B00F0D680734A40F2BF111098B0
:103994000BF0A0FFCEE06E4B5B68022B0AD96C4B98
:1039A4001B881B0443F00300039B1B7A1A466D49D2
:1039B40016F07AFD694B4FF6FF721A80684811F0D1
:1039C4004BFEC2E0624B5B68032B08D9604B1B883B
:1039D4001B0443F004036449184616F057FD002302
:1039E4008DF8343000238DF83530039B9B880DAA65
:1039F40011461846FFF790FC1790179B1393139BDF
:103A0400002B00F09980544A40F2D31113980BF024
:103A140061FF91E04E4B5B68032B08D94C4B1B882C
:103A24001B0443F004035149184616F02FFD039B71
:103A34009B8813211846FFF763FC1790179B149378
:103A4400149B002B7AD0444A4FF4EE7114980BF077
:103A540041FF73E03E4B5B68032B08D93C4B1B884A
:103A64001B0443F004034249184616F00FFD039B60
:103A74009B8813211846FFF743FC1790179B169356
:103A8400169B002B5CD0344A4FF4F27116980BF05D
:103A940021FF55E0314B1B8800211846FFF744FCF9
:103AA4001790179B0F930F9B002B4BD02A4A40F281
:103AB400E9110F980BF00EFF44E0039B09AC0633A9
:103AC400186859689A68DB680FC49DF82430002B85
:103AD4003AD09DF82C30042B07D09DF82C30062BBF
:103AE40003D09DF82C30052B2ED19DF82430022BC9
:103AF40003D102238DF8143002E001238DF8143031
:103B04004FF4C173ADF81830039B9B8805AA114686
:103B14001846FFF705FC1790179B1593159B002B70
:103B240012D00D4A4FF4017115980BF0D3FE0BE03F
:103B340000BF0AE000BF08E000BF06E000BF04E0E9
:103B440000BF02E000BF00E000BF00BF18B010BD1E
:103B5400802E0020A4CC030034CB0300A82F002027
:103B640004CE0300B0CC0300CCCC0300E0CC0300B3
:103B7400F8CC030000B587B017F0ECFF0590059B67
:103B84000493049B002B05D0164A4FF40671049845
:103B94000BF0A0FE0023019301AB1946012018F09D
:103BA400D3F80590059B0393039B002B05D00D4A86
:103BB40040F21E2103980BF08DFE01AB184618F05D
:103BC400EBF90590059B0293029B002B05D0054A57
:103BD40040F2222102980BF07DFE00BF07B05DF891
:103BE40004FB00BF34CB030000B587B003468DF857
:103BF40007309DF807300A2B06D00A2B37DC042B3C
:103C040006D0072B1AD032E0002014F07FFC33E0FA
:103C14001B4B1B8813211846FFF772FB0590059B6D
:103C2400082B26D0059B0393039B002B21D0154A18
:103C34004FF40F7103980BF04DFE1AE0104B1B88E4
:103C44004FF6FF72934216D10F4802F037FF0590EA
:103C5400059B082B0FD0059B0493049B002B0AD0D3
:103C6400084A40F2462104980BF034FE03E000BFFA
:103C740002E000BF00E000BF00BF07B05DF804FB36
:103C8400A82F002034CB0300AC30002000B589B04D
:103C940006F0DAFE0790079B0693069B002B05D0DF
:103CA4003A4A40F2592106980BF014FE01AB052262
:103CB4000021184618F036FD9DF8043043F0010346
:103CC4008DF804309DF8043023F002038DF804309D
:103CD4009DF80430032262F306138DF804309DF836
:103CE400043023F080038DF8043007238DF8053069
:103CF40010238DF806309DF8073043F001038DF84A
:103D040007309DF8073043F002038DF807309DF823
:103D1400083043F001038DF808309DF8083043F073
:103D240002038DF8083001AB184606F00FFF079028
:103D3400079B0593059B002B05D0144A40F26A218A
:103D440005980BF0C7FD124806F0D8FE0790079BB4
:103D54000493049B002B05D00C4A40F26D21049877
:103D64000BF0B8FD0B480EF0B1F90790079B0393D5
:103D7400039B002B05D0054A4FF41C7103980BF0EC
:103D8400A9FD00BF09B05DF804FB00BF34CB0300FC
:103D94004D3402001534020000B5ABB06B46A022CE
:103DA4000021184618F0BEFC02238DF800300123D0
:103DB4008DF8023006238DF803300223ADF810305D
:103DC400124B059301238DF87C304FF496732293A4
:103DD400B42323930E4B26936B4619460D4802F0E9
:103DE40026FC2990299B2893289B002B05D00A4A5E
:103DF40040F28A2128980BF06DFD0121054802F05C
:103E040009FC00BF2BB05DF804FB00BFAC2F002001
:103E140049380200AC30002034CB030008B5FFF76A
:103E2400A9FEFFF7EDFBFFF759FCFFF7B5FFFFF71E
:103E340071FCFFF72BFF00BF08BD000000B587B081
:103E440001901749032000F0D1FF0590059B0493CE
:103E5400049B002B05D0134A40F2A62104980BF0D2
:103E640039FD0DF10B031946002001F071F905909D
:103E7400059B0393039B002B05D00A4A40F2A9211A
:103E840003980BF027FD9DF80B30022B0CBF012388
:103E94000023DAB2019B1A7000BF07B05DF804FB7F
:103EA400ED3B020034CB030000B585B001901A4904
:103EB4001A4815F059F903468DF80F30184B5B6812
:103EC400022B0AD9164B1B881B0443F003039DF8ED
:103ED4000F201449184616F0E7FA9DF80F301946DA
:103EE400114808F0ABFE0290029B002B10D0029BFD
:103EF400082B0DD0029B132B0AD0029B43F20142E4
:103F0400934205D0094A40F2C72102980BF0E2FC23
:103F140000BF05B05DF804FB84380020943800200D
:103F2400802E002010CD03008030002034CB03000D
:103F340000B583B0124B51221A60114B64225A60AF
:103F44000F4B01229A600E4B01221A730C490D4843
:103F540015F0F1F80C4A01210C480CF063FB0190B8
:103F6400019B0093009B002B05D0094A4FF4377145
:103F740000980BF0AFFC00BF03B05DF804FB00BF7A
:103F84008438002094380020AD3E0200C4CA0300E7
:103F940034CB030000B583B00B4B00224FF48031C7
:103FA40018460CF06FFB0190019B0093009B002BC3
:103FB40005D0064A40F2E72100980BF08BFC00BFC5
:103FC40003B05DF804FB00BF8431002034CB030050
:103FD40000B587B003468DF80730002000F0ECFEF2
:103FE4000590059B0493049B002B05D0104A4FF4C5
:103FF4003D7104980BF06EFC9DF80730002B0ED138
:1040040001F042F80590059B0393039B002B08D015
:10401400074A40F2FB2103980BF05CFC01E000BF6F
:1040240000E000BF0123184607B05DF804FB00BFA1
:1040340034CB030000B585B00390029101920320B4
:1040440000F038FA044A0821039811F0DBFB00BFA2
:1040540005B05DF804FB00BF2CCD030000B585B0AE
:10406400039002910192032000F03EFA044A0821D1
:10407400039811F0C7FB00BF05B05DF804FB00BF57
:1040840040CD030000B587B0059004910392049BD2
:10409400012B05D00598FFF74BF90346002B05D0FB
:1040A40000220021059811F0DDFC0DE0039B1A6845
:1040B400039B04331B680193054B00931346054A85
:1040C4000221059811F09EFB07B05DF804FB00BFC8
:1040D40060CD030054CD030000B585B00190019B71
:1040E400002B14BF012300238DF80F30FFF752FF7C
:1040F4009DF80F301846FFF767F916F037FA0346B4
:1041040083F00103DBB2002B01D014F047F915F062
:104114001BFBF2E700B58BB0374815F04FFE099052
:10412400099B002B05D0354A40F23E3109980BF02B
:10413400D1FB334B1B6803F00103002B11D0032385
:1041440000930123012200212E4811F0DDF908908B
:10415400089B002B05D0294A40F2423108980BF005
:10416400B9FB09F085FF0790079B002B05D0234A74
:1041740040F2453107980BF0ADFB002009F0D2FF67
:104184000CF01CFA0690069B002B05D01B4A40F24B
:10419400493106980BF09EFB09F030FE0590059B13
:1041A400002B05D0154A40F24B3105980BF092FBD9
:1041B40014F0CCF80490049B002B05D00F4A40F275
:1041C4004D3104980BF086FB0D4B1B6803F0010383
:1041D400002B0CD00B4811F0D5F90390039B002B56
:1041E40005D0064A40F2513103980BF073FB00BF2F
:1041F4000BB05DF804FB00BF3107030034CB0300B0
:10420400F0ED00E0C0CD030000B583B0FFF782FFFE
:104214000DF103031846FFF711FEFFF7FFFDFFF74B
:1042240087FE12F033FC0190019B002B05D0084A55
:1042340040F2653101980BF04DFB9DF803301946AF
:10424400044815F063F80023184603B05DF804FB36
:1042540034CB0300DD40020000B583B00190019B24
:104264001B681F2B04D905494FF4E870FFF772F857
:104274004FF0A043184603B05DF804FB90CE030052
:1042840000B585B00190084611461A4603468DF8DC
:1042940003300B468DF8023013468DF8013001AB24
:1042A4001846FFF7D9FF03909DF803209DF80230CC
:1042B4005B001A439DF801309B001A439DF81830A7
:1042C4001B0242EA03019DF81C301B04019A1943A6
:1042D400039B02F5E07243F8221000BF05B05DF8BD
:1042E40004FB00B585B003900023019300230093E1
:1042F4000023012201210398FFF7C2FF00BF05B08C
:104304005DF804FB00B585B0019001AB1846FFF7DA
:10431400A3FF0390019B012202FA03F319460398B9
:1043240000F086F800BF05B05DF804FB00B585B069
:10433400019001AB1846FFF78FFF0390019B012208
:1043440002FA03F31946039800F07CF800BF05B0A5
:104354005DF804FB00B585B0019001AB1846FFF78A
:104364007BFF0390039BD3F804350293029BDA434B
:10437400019B012101FA03F31A40039BC3F80825AA
:10438400019B01229A40029B1A40039BC3F80C250F
:1043940000BF05B05DF804FB00B583B00190009147
:1043A400009B002B03D10198FFF7C0FF02E00198A6
:1043B400FFF7A8FF00BF03B05DF804FB00B585B0AC
:1043C400019001AB1846FFF747FF0390039800F0F4
:1043D4001FF80246019B22FA03F303F00103184677
:1043E40005B05DF804FB00B585B0019001AB18463B
:1043F400FFF732FF0390039800F012F80246019B86
:1044040022FA03F303F00103184605B05DF804FB38
:1044140082B00190019BD3F81035184602B0704762
:1044240082B00190019BD3F80435184602B070475E
:1044340082B001900091019B009AC3F8082500BF47
:1044440002B0704782B001900091019B009AC3F8BA
:104454000C2500BF02B0704700B585B00190019BE8
:10446400032B03D911493720FEF774FF104A019B2F
:1044740013441B781846FFF7B6FF0346002B14BFFE
:10448400012300238DF80F309DF80F30002B14BF4B
:1044940001230023DBB283F00103DBB203F0010349
:1044A400DBB2184605B05DF804FB00BFCCCE0300B8
:1044B40014CF030000B583B00190019B032B03D9F3
:1044C40007493E20FEF746FF064A019B13441B782A
:1044D40000211846FFF760FF00BF03B05DF804FB3E
:1044E400CCCE030014CF030000B583B00190019B30
:1044F400032B03D907494420FEF72CFF064A019BEE
:1045040013441B7801211846FFF746FF00BF03B090
:104514005DF804FBCCCE030014CF030000B583B0D8
:104524000023019305E00198FFF7DEFF019B0133AF
:104534000193019B032BF6D900BF00BF03B05DF8C4
:1045440004FB00B583B00023019305E00198FFF755
:10455400B1FF019B01330193019B032BF6D900BFEB
:1045640000BF03B05DF804FB00B583B00190019B6C
:10457400032B03D907495C20FEF7ECFE064A019B96
:1045840013441B781846FFF7E5FE00BF03B05DF83F
:1045940004FB00BFCCCE030014CF030000B583B0EE
:1045A4000023019309E0094A019B13441B78184630
:1045B400FFF797FE019B01330193019B032BF2D973
:1045C400FFF7ACFF00BF03B05DF804FB14CF03009A
:1045D40000B585B00190019B032B03D911498320B9
:1045E400FEF7B8FE104A019B13441B781846FFF7E8
:1045F400E5FE0346002B14BF012300238DF80F3082
:104604009DF80F30002B14BF01230023DBB283F08D
:104614000103DBB203F00103DBB2184605B05DF819
:1046240004FB00BFCCCE030018CF030084B001907C
:104634004FF0FF330293002303930DE00A4A039BD8
:1046440013441B781A46019B934202D1039B0293A5
:1046540005E0039B01330393039B032BEED9029BD9
:10466400184604B0704700BF18CF030000B583B0EC
:104674000190019B032B03D90549A220FEF76AFE92
:10468400044A019B13441B78184603B05DF804FBED
:10469400CCCE030018CF030000B583B00190019B7A
:1046A4001B681F2B04D905494FF4E870FEF752FE2E
:1046B4004FF0A043184603B05DF804FB1CCF030081
:1046C40000B585B001900B468DF8033001AB184658
:1046D400FFF7E2FF0390019A039B02F5E07253F89F
:1046E4002230019A23F44031039B02F5E07243F82F
:1046F4002210019A039B02F5E07253F822109DF8F0
:1047040003301B04019A1943039B02F5E07243F83A
:10471400221000BF05B05DF804FB00B583B0019022
:104724000198FFF755FF0346184603B05DF804FBF4
:1047340000B587B003460A468DF8073013468DF856
:10474400063000238DF81730002304939DF80730BA
:104754001846FFF76BFF0490049B032B62D89DF867
:104764000630022B52D0022B5CDC002B31D0012B03
:1047740058D13549049A13465B0013440B441B7803
:104784008DF817303049049A13465B0013440B44E8
:1047940001331B78002B0ED02C4B2D4A4FF40041D3
:1047A40018460BF06FFF0390039B002B03D1284A9C
:1047B4009DF8073013702449049A13465B00134490
:1047C4000B4402331978234A049B13440A461A7093
:1047D40028E01E4B18460BF087FF1E4A049B134427
:1047E40019781948049A13465B00134403440233AE
:1047F4001B78994215D11449049A13465B0013445B
:104804000B4402331B788DF817300AE00E49049AE2
:1048140013465B0013440B4401331B788DF81730A7
:1048240000E000BF9DF81730002B09D00A4B1B682D
:10483400002B05D0084B1B689DF81720104698479D
:1048440000BF07B05DF804FBEC380020F838002006
:10485400183900201C390020E838002000B583B046
:104864000190019B1B7802211846FFF761FF00BFEE
:1048740003B05DF804FB000000B583B00C4B1B785B
:10488400002B0FD00023019308E0019B022B02D0E0
:104894000198FFF729FE019B01330193019B032B30
:1048A400F3D901E0FFF73AFE00BF03B05DF804FB63
:1048B400A43800202DE9D04F92B003468DF83F3044
:1048C4000023119300231093C94B1B78002B04D0B1
:1048D400C74A00231370FFF7CFFF9DF83F30172B13
:1048E40000F2398201A252F823F000BF51490200BC
:1048F4005F4902005F490200FB490200974A020037
:10490400134B0200A74B0200C74B0200D74B020017
:10491400014C02001F4C02003D4C02005B4C0200A3
:10492400694C0200694C0200694C0200694C0200A7
:10493400694C0200FD4C02000B4D02001F4D0200A9
:10494400334D02004D4D02004D4D0200FFF794FF20
:10495400A84A9DF83F301370FEE10020FFF77CFD6C
:104964000346002B0DD00020FFF7BEFD9DF83F301D
:10497400022B02D14FF4E16301E04FF47A63109308
:104984000BE00020FFF796FD9DF83F30022B01D18C
:10499400C82301E04FF4C8731093964A9DF83F3042
:1049A4001370954C109B0022009301924FF000026B
:1049B4004FF00003DDE900673946CB03314643EA93
:1049C40051433146CA0312F5FA71029143F10003CF
:1049D40003934FF47A724FF00003DDE9020117F0FC
:1049E400DDFC02460B4613460022194620460BF016
:1049F40049FE1190B0E10020FFF72EFD0346002B85
:104A04000DD00020FFF770FD9DF83F30032B02D13D
:104A14004FF4487301E04FF47A6310930BE00020E5
:104A2400FFF748FD9DF83F30032B01D1C82301E077
:104A34004FF4C87310936F4A9DF83F3013706E4C57
:104A4400109B0022049305924FF000024FF00003E4
:104A5400DDE904673946CB03314643EA5143314625
:104A6400CA0312F5FA71069143F1000307934FF458
:104A74007A724FF00003DDE9060117F08FFC02465D
:104A84000B4613460022194620460BF0FBFD1190FD
:104A940062E10020FFF7E0FC0346002B06D0002073
:104AA400FFF722FD4FF47A63109305E00020FFF72F
:104AB40001FD4FF4C87310934E4A9DF83F301370B4
:104AC4004D4C109B00229A4693464FF000024FF043
:104AD40000034FEACB3343EA5A434FEACA3212F592
:104AE400FA71089143F1000309934FF47A724FF07D
:104AF4000003DDE9080117F051FC02460B4613469A
:104B04000022194620460BF0BDFD119024E100203F
:104B1400FFF7A2FC0346002B0CD00020FFF7E4FCB7
:104B24009DF83F30052B01D1C82301E04FF47A638F
:104B340010930BE00020FFF7BDFC9DF83F30052BE0
:104B440001D1C82301E04FF4C8731093294A9DF89A
:104B54003F301370284C109B0022984691464FF02A
:104B640000024FF000034FEAC93343EA58434FEAC7
:104B7400C83212F5FA710A9143F100030B934FF412
:104B84007A724FF00003DDE90A0117F007FC0246D0
:104B94000B4613460022194620460BF073FD119074
:104BA400DAE00020FFF7E0FC124A9DF83F30137072
:104BB400114B002240F6CD4118460BF063FD1190D5
:104BC400CAE00020FFF776FC0A4A9DF83F301370D4
:104BD400C2E0074B01221A700120FFF7C5FC064B07
:104BE400002240F6CD4118460BF04CFD1190B3E085
:104BF4009D3800209C380020A8380020594B012201
:104C04001A700120FFF7B0FC574B00224FF480418B
:104C140018460BF037FD11909EE0524B01221A709A
:104C24000120FFF7A1FC504B002240F6CD4118466D
:104C34000BF028FD11908FE04A4B01221A700120DD
:104C4400FFF792FC484B00224FF4804118460BF0CA
:104C540019FD119080E0FFF774FC444A9DF83F3041
:104C6400137079E0424B18460BF03EFD11909DF80D
:104C74003F30C3F111031093109B002B35D0119BCF
:104C8400002B32D1109B012B28D9394C109B9BB29D
:104C94001A46C82302FB03F3DA171E4617464FF0E1
:104CA40000024FF00003FB0343EA5643F20312F5FC
:104CB400FA710C9143F100030D934FF47A724FF0A3
:104CC4000003DDE90C0117F069FB02460B461346AD
:104CD4000022194620460BF0D5FC11900220FFF764
:104CE400E9FB244B01221A7036E00220FFF7FCFB9B
:104CF400204B00221A702FE0FFF7BEFD1B4A9DF8DF
:104D04003F30137028E0FFF7B7FD0020FFF7D2FB18
:104D1400164A9DF83F3013701EE0FFF7ADFD0120E9
:104D2400FFF7C8FB114A9DF83F30137014E0FFF7FA
:104D3400A3FD0020FFF7BEFB0120FFF7BBFB0B4ADE
:104D44009DF83F30137007E0FFF7FBFB074A9DF81F
:104D54003F30137000E000BF119B184612B0BDE84D
:104D6400D08F00BF9D380020A83800209C38002038
:104D7400C8380020A438002000B583B00190074B48
:104D84001B6803F00103002B04D0054B1B78184665
:104D9400FFF790FD00BF03B05DF804FBA0380020CE
:104DA4009C38002000B583B001900220FFF7DCFBA3
:104DB40000BF03B05DF804FB00B585B003468DF871
:104DC400073000230393084B1B6803F00103002BF7
:104DD40005D09DF807301846FFF76CFD0390039B40
:104DE400184605B05DF804FBA038002000B585B076
:104DF4000190009100230393294A019B1360294ADF
:104E0400009B1360019B03F00203002B2AD00023B4
:104E1400029308E001220121029800F053F8039064
:104E2400029B01330293029B032B02D8039B002BAA
:104E3400F0D0039B002B06D140F2666204211A488D
:104E44000AF0AAFC0390039B002B02D10AF016FD82
:104E54000390039B002B05D1144A002114480BF046
:104E6400E1FB0390019B03F00103002B01D0FFF74A
:104E740095FB039B002B05D10E4A00210E480BF035
:104E8400D1FB0390039B002B05D10C4A01210C4854
:104E94000BF0C8FB0390039B184605B05DF804FBB8
:104EA400A0380020E838002064CF030061480200E5
:104EB40060CF03007D4D020058CF0300A94D0200CE
:104EC4005CCF030084B001900B468DF80330134689
:104ED4008DF8023000230393019B032B3CD89DF8EB
:104EE4000230012B0BD19DF80330012B04D1019B1F
:104EF400DBB20E33DBB200E000238DF802309DF804
:104F04000330022B0FD0022B23DC002B16D0012BF5
:104F14001FD11449019A13465B0013440B449DF8B6
:104F240002201A701AE00F49019A13465B001344D9
:104F34000B4401339DF802201A700FE00949019ACD
:104F440013465B0013440B4402339DF802201A708D
:104F540004E00723039301E007230393039B18460C
:104F640004B07047EC38002000B583B0019001987C
:104F7400FFF77CFB034603211846FFF7A1FB002340
:104F8400184603B05DF804FB00B583B0012200218C
:104F94000020FFF797FF0190019B002B04D0019B99
:104FA400072B01D0019B1CE0072202210120FFF7FF
:104FB40089FF0190019B002B04D0019B072B01D09A
:104FC400019B0EE0042202210020FFF77BFF0190E9
:104FD400019B002B04D0019B072B01D0019B00E017
:104FE4000023184603B05DF804FB00B583B001222A
:104FF40002210020FFF766FF0190019B002B04D0E3
:10500400019B072B01D0019B1CE0072202210120F8
:10501400FFF758FF0190019B002B04D0019B072B45
:1050240001D0019B0EE00A2200210020FFF74AFF75
:105034000190019B002B04D0019B072B01D0019B05
:1050440000E00023184603B05DF804FB00B583B00C
:1050540001900120FFF761FB0346002B03D0019B65
:1050640002221A700CE00020FFF757FB0346002BC6
:1050740003D0019B0B221A7002E0019B00221A70DC
:1050840000BF03B05DF804FB00B583B00020FFF758
:105094006BFF0190019B002B04D0019B062B01D0D8
:1050A400019B0CE00120FFF75FFF0190019B002BA7
:1050B40004D0019B062B01D0019B00E0002318467D
:1050C40003B05DF804FB000000B585B001900091C9
:1050D400019B1B88102B02D0112B18D02FE01A4BE8
:1050E4001B68002B0DD1FFF74FFF0390039B002B90
:1050F40007D0164B1B68002B03D0144B1B68039876
:105104009847114B1B6801330F4A136017E00E4B8D
:105114001B68013B0C4A13600B4B1B68002B0DD121
:10512400FFF763FF0390039B002B07D0074B1B681B
:10513400002B03D0054B1B680398984700BF00BFA2
:1051440005B05DF804FB00BF24390020203900209D
:1051540000B585B001900091002303930A4A019B96
:105164001360009B002B02D00098FFF76FFF074BE2
:105174001B68002B02D1FFF738FF0390039B1846EE
:1051840005B05DF804FB00BF20390020243900205D
:10519400BFF34F8F00BF074BDB6803F4E0620549A0
:1051A400054B1343CB60BFF34F8F00BF00BF00BF5D
:1051B400FCE700BF00ED00E00400FA05024B034ADF
:1051C4001A6000BF704700BFB42F00200090D003C6
:1051D40008B500F05DF90346002B06D09B4B1B6815
:1051E4001B0A9B4A03F01F03136000F07DF903467A
:1051F400002B02D0974B984A1A6000F091F90346AD
:10520400002B06D0954B1B685B0B954A03F00703F4
:10521400136000F0B1F90346002B05D0914BDB6815
:10522400904A23F08073D36000F0C2F90346002B48
:105234000ED04FF080430022C3F80C214FF080437E
:105244000022C3F810214FF080430022C3F8382510
:1052540000F0DAF90346002B02D0834B03221A60D4
:1052640000F0EEF90346002B0BD0804B05221A60A8
:105274007F4B01221A607F4B00221A607E4B3F2233
:105284001A6000F0F9F90346002B76D04FF08053F2
:105294007A4AD3F80434C2F820354FF08053774A61
:1052A400D3F80834C2F824354FF08053734AD3F846
:1052B4000C34C2F828354FF08053704AD3F81034B8
:1052C400C2F82C354FF080536C4AD3F81434C2F82A
:1052D40030354FF08053694AD3F81834C2F8343566
:1052E4004FF08053654AD3F81C34C2F840354FF070
:1052F4008053624AD3F82034C2F844354FF08053C7
:105304005E4AD3F82434C2F848354FF080535B4AE0
:10531400D3F82834C2F84C354FF08053574AD3F8A9
:105324002C34C2F850354FF08053544AD3F83034FB
:10533400C2F854354FF08053504AD3F83434C2F88D
:1053440060354FF080534D4AD3F83834C2F8643591
:105354004FF08053494AD3F83C34C2F868354FF0D3
:105364008053464AD3F84034C2F86C354FF080532A
:10537400424AD3F84434C2F8703500F099F9034630
:10538400002B05D03E4B1B683E4A03F04F031360CD
:1053940000F0BAF90346002B0DD04FF08043D3F848
:1053A400003403F00103002B05D04FF080436FF06D
:1053B4000102C3F80024344BD3F88830324A43F452
:1053C4007003C2F88830BFF34F8F00BFBFF36F8FF5
:1053D40000BF4FF01023D3F80032002B05DB4FF051
:1053E4001023D3F80432002B2BDA284B0122C3F804
:1053F400042500BF254BD3F80034002BFAD04FF01E
:1054040010231522C3F8002200BF204BD3F8003428
:10541400002BFAD04FF010231522C3F8042200BF4A
:105424001A4BD3F80034002BFAD0184B0022C3F8DF
:10543400042500BF154BD3F80034002BFAD0FFF736
:10544400A7FEFFF7BBFE00BF08BD00BF240300108A
:105454004035014074C007400DF0ADBA440200105D
:105464003C050040F0ED00E0A0050040105600406F
:1054740088560040185600401456004000C00040B2
:1054840058020010E40E004000ED00E000E001408E
:10549400124B1B68DBB2062B1DD1114B1B6803F0AA
:1054A4000F03002B17D10F4B1B6803F0F003302BB5
:1054B40001D1012310E00B4B1B6803F0F003402BD8
:1054C40001D1012308E0074B1B6803F0F003502BC4
:1054D40001D1012300E0002318467047E00F00F0DB
:1054E400E40F00F0E80F00F00A4B1B68DBB2062B58
:1054F4000DD1094B1B6803F00F03002B07D1074B99
:105504001B6803F0F003302B01D1012300E00023DA
:1055140018467047E00F00F0E40F00F0E80F00F0C9
:10552400124B1B68DBB2062B1DD1114B1B6803F019
:105534000F03002B17D10F4B1B6803F0F003302B24
:1055440001D1012310E00B4B1B6803F0F003402B47
:1055540001D1012308E0074B1B6803F0F003502B33
:1055640001D1012300E0002318467047E00F00F04A
:10557400E40F00F0E80F00F00A4B1B68DBB2062BC7
:105584000DD1094B1B6803F00F03002B07D1074B08
:105594001B6803F0F003302B01D1012300E000234A
:1055A40018467047E00F00F0E40F00F0E80F00F039
:1055B400124B1B68DBB2062B1DD1114B1B6803F089
:1055C4000F03002B17D10F4B1B6803F0F003302B94
:1055D40001D1012310E00B4B1B6803F0F003402BB7
:1055E40001D1012308E0074B1B6803F0F003502BA3
:1055F40001D1012300E0002318467047E00F00F0BA
:10560400E40F00F0E80F00F00A4B1B68DBB2062B36
:105614000DD1094B1B6803F00F03002B07D1074B77
:105624001B6803F0F003302B01D1012300E00023B9
:1056340018467047E00F00F0E40F00F0E80F00F0A8
:105644000A4B1B68DBB2062B0DD1094B1B6803F018
:105654000F03002B07D1074B1B6803F0F003302B1B
:1056640001D1012300E0002318467047E00F00F049
:10567400E40F00F0E80F00F00A4B1B68DBB2062BC6
:105684000DD1094B1B6803F00F03002B07D1074B07
:105694001B6803F0F003502B01D1012300E0002329
:1056A40018467047E00F00F0E40F00F0E80F00F038
:1056B400124B1B68DBB2062B1DD1114B1B6803F088
:1056C4000F03002B17D10F4B1B6803F0F003302B93
:1056D40001D1012310E00B4B1B6803F0F003402BB6
:1056E40001D1012308E0074B1B6803F0F003502BA2
:1056F40001D1012300E0002318467047E00F00F0B9
:10570400E40F00F0E80F00F0124B1B68DBB2062B2D
:105714001DD1114B1B6803F00F03002B17D10F4B46
:105724001B6803F0F003302B01D1012310E00B4B75
:105734001B6803F0F003402B01D1012308E0074B61
:105744001B6803F0F003502B01D1012300E0002378
:1057540018467047E00F00F0E40F00F0E80F00F087
:105764006DDF704700BF184672DF704700BF1846F0
:1057740079DF704700BF18467DDF704700BF1846C9
:1057840064DF704700BF184682B003460091ADF84D
:105794000630BDF80630DAB2009B1A70BDF8063048
:1057A4001B0A9AB2009B0133D2B21A700223184624
:1057B40002B0704700B589B0039002911346ADF86A
:1057C4000630029B1B8803F10902BDF806309A4299
:1057D40001D90C2351E005AB1846FFF7C1FF079030
:1057E400079B002B01D0079B47E0029B1B881A46AE
:1057F400039B134408221A70029B1B8801339AB23C
:10580400029B1A80029B1B881A46039B13441B228B
:105814001A70029B1B8801339AB2029B1A80029B66
:105824001B881A46039B981805AB013306221946B8
:1058340016F046FF029B1B8806339AB2029B1A801D
:105844009DF8143023F00103DBB2002B07D1029B37
:105854001B881A46039B134400221A7006E0029B1D
:105864001B881A46039B134401221A70029B1B884F
:1058740001339AB2029B1A800023184609B05DF8DE
:1058840004FB00B589B0039002910192ADF8023097
:10589400039B1B78012B05D1039B5B78002B01D163
:1058A400072388E0019B1B889A1CBDF802309A42AA
:1058B4000ED8039B1B78012B0CD1019B1B881A4625
:1058C400039B5B7813449A1CBDF802309A4201D9B9
:1058D4000C2370E0019B1B88BDF80220D31A9BB2F5
:1058E400023BADF81C30BDF81C30ADF81630019BFE
:1058F4001B880233029A13440DF11602114618460E
:10590400FFF73AFF0690069B002B01D0069B52E05E
:10591400039B1B78022B09D1BDF81630BDF81C205F
:105924009A4203D309238DF81F3016E008238DF81B
:105934001F30039B1B78012B0BD1039B5B781A460A
:10594400BDF81C30934204D3039B5B78ADF816304A
:1059540003E0BDF81C30ADF81630BDF81630FE2B50
:1059640001D90C2327E0BDF81630DAB2019B1B885D
:105974001946029B0B440132D2B21A70019B1B8858
:1059840001339AB2019B1A80019B1B881A46029B21
:1059940013449DF81F201A70019B1B8801339AB28F
:1059A400019B1A80019B1A88BDF8163013449AB2E1
:1059B400019B1A800023184609B05DF804FB00B56A
:1059C40087B0039002911346ADF80630029B1B8802
:1059D4001A1DBDF806309A4201D90C2338E00DF1A6
:1059E40012031846FFF7C4FE0590059B002B01D057
:1059F400059B2DE0029B1B881A46039B134403223C
:105A04001A70029B1B8801339AB2029B1A80029B74
:105A14001B881A46039B134419221A70029B1B8885
:105A240001339AB2029B1A80BDF81220029B1B8894
:105A34001946039B0B4419461046FFF7A5FE03467F
:105A44001A46029B1B8813449AB2029B1A800023B5
:105A5400184607B05DF804FB84B0029101921A461F
:105A640003468DF80F301346ADF80C30019B1B88AC
:105A7400DA1CBDF80C309A4201D90C2328E0019BB2
:105A84001B881A46029B134402221A70019B1B882E
:105A940001339AB2019B1A80019B1B881A46029B10
:105AA400134401221A70019B1B8801339AB2019B93
:105AB4001A80019B1B881A46029B13449DF80F20F1
:105AC4001A70019B1B8801339AB2019B1A80002330
:105AD400184604B0704784B0029101921A460346F6
:105AE4008DF80F301346ADF80C30019B1B88DA1C7F
:105AF400BDF80C309A4201D90C2328E0019B1B8885
:105B04001A46029B134402221A70019B1B8801331C
:105B14009AB2019B1A80019B1B881A46029B13446C
:105B24000A221A70019B1B8801339AB2019B1A80C6
:105B3400019B1B881A46029B13449DF80F201A7080
:105B4400019B1B8801339AB2019B1A8000231846DB
:105B540004B0704700B58BB0039001930B468DF8E9
:105B64000B3013468DF80A3000238DF823300C9B3C
:105B74001B88ADF82030002309936CE0039B5A681E
:105B8400099B9B001A4404AB106818600DF11601C0
:105B940004AB00221846FFF7F3FD0690069B002B8A
:105BA40001D0069B79E09DF816309DF80A209A42B0
:105BB4004ED19DF82330002B01D0002300E00223B6
:105BC4008DF817300C9B1B881A469DF816301A4422
:105BD4009DF817301A44BDF834309A4201DD0C2385
:105BE4005BE09DF8233083F00103DBB2002B16D079
:105BF4000C9B1B8801339AB20C9B1A800C9B1B884C
:105C04001A46019B13449DF80B201A700C9B1B88A9
:105C140001339AB20C9B1A8001238DF823300C9B1C
:105C24001B881A46019B1A440DF1160104AB184651
:105C3400FFF7A6FD0690069B002B01D0069B2CE0E7
:105C44000C9B1B889DF8162013449AB20C9B1A8057
:105C5400099B01330993039B1B881A46099B9342B2
:105C64008CDB9DF82330002B16D00C9B1A88BDF8D2
:105C74002030D31A9BB2013BADF81E30BDF81E3064
:105C8400FF2B01D90C2308E0BDF82030019A1344FE
:105C9400BDF81E20D2B21A70002318460BB05DF86E
:105CA40004FB00B589B0059003930B468DF81330BF
:105CB40013468DF812309DF81310BDF82C30019363
:105CC4000A9B0093039B02220598FFF743FF07906A
:105CD400079B002B01D0079B12E09DF81210BDF822
:105CE4002C3001930A9B0093039B10220598FFF725
:105CF40031FF0790079B002B01D0079B00E0002396
:105D0400184609B05DF804FB82B00190019B1B8822
:105D1400052B0AD9019B1B88B3F5486F07D9019B52
:105D24001B884FF6FF72934201D0072325E0019BA5
:105D34005B88052B0AD9019B5B88B3F5486F07D9AB
:105D4400019B5B884FF6FF72934201D0072314E056
:105D5400019B1B884FF6FF7293420DD0019B5B8819
:105D64004FF6FF72934207D0019B1A88019B5B8810
:105D74009A4201D9072300E00023184602B0704775
:105D840000B587B0039002910192ADF80230019BF7
:105D94001B889A1DBDF802309A4201D90C2349E0B0
:105DA4000398FFF7B1FF0590059B002B01D0059BDD
:105DB40040E0019B1B881A46029B134405221A707B
:105DC400019B1B8801339AB2019B1A80019B1B889B
:105DD4001A46029B134412221A70019B1B8801333A
:105DE4009AB2019B1A80039B1A88019B1B8819464F
:105DF400029B0B4419461046FFF7C6FC03461A469D
:105E0400019B1B8813449AB2019B1A80039B5A88F6
:105E1400019B1B881946029B0B4419461046FFF749
:105E2400B3FC03461A46019B1B8813449AB2019B98
:105E34001A800023184607B05DF804FB00B587B04C
:105E4400039002910192ADF80230039B9B880233C8
:105E54000593019B1B881A46059B13449A1CBDF8A5
:105E640002309A4201D90C2353E0059BFE2B01D941
:105E74000C234EE0059BDAB2019B1B881946029B5A
:105E84000B440132D2B21A70019B1B8801339AB2BF
:105E9400019B1A80019B1B881A46029B1344FF2214
:105EA4001A70019B1B8801339AB2019B1A80039BD1
:105EB4001A88019B1B881946029B0B4419461046FD
:105EC400FFF762FC03461A46019B1B8813449AB2EF
:105ED400019B1A80039B9B88002B19D0039B9B6812
:105EE400002B01D1072314E0019B1B881A46029B57
:105EF4009818039B9968039B9B881A4616F0E0FB4D
:105F0400019B1A88039B9B8813449AB2019B1A80B5
:105F14000023184607B05DF804FB00B589B0039070
:105F240002910192ADF80230039B9B6A002B01D1D0
:105F3400072371E000238DF81F3065E0039B996A05
:105F44009DF81F2013465B0013449B000B440693EB
:105F5400069B9B8802330593059BFE2B01D90C23DA
:105F64005AE0059BDAB2019B1B881946029B0B443D
:105F74000132D2B21A70019B1B8801339AB2019B81
:105F84001A80019B1B881A46029B134416221A701E
:105F9400019B1B8801339AB2019B1A80069B1A88C5
:105FA400019B1B881946029B0B4419461046FFF7B8
:105FB400EBFB03461A46019B1B8813449AB2019BD0
:105FC4001A80069B9B88002B19D0069B9B68002B8C
:105FD40001D1072320E0019B1B881A46029B9818D5
:105FE400069B9968069B9B881A4616F069FB019BE1
:105FF4001A88069B9B8813449AB2019B1A809DF8C9
:106004001F3001338DF81F30039B93F82C309DF81B
:106014001F209A4292D30023184609B05DF804FB6E
:1060240000B589B005900491039200230793039B64
:106034001B88ADF81A30039B00221A80059B93F845
:106044002D30002B0CD0BDF81A301A460399049851
:10605400FFF7B0FB0790079B002B01D0079BC4E020
:10606400059B9B78002B0CD0BDF81A301A46039977
:106074000498FFF7A4FC0790079B002B01D0079B13
:10608400B3E0059BDB78002B0ED0059BDB7858B280
:10609400BDF81A30039A0499FFF7DEFC0790079BBA
:1060A400002B01D0079BA0E0059B5B68002B0FD061
:1060B400059B5B6893F90000BDF81A30039A0499B4
:1060C400FFF709FD0790079B002B01D0079B8CE08D
:1060D400059B1B89002B12D0059B03F10800BDF81A
:1060E4001A300193039B0093049B06220221FFF7BD
:1060F400D8FD0790079B002B01D0079B75E0059BFB
:106104001B8A002B12D0059B03F11000BDF81A3036
:106114000193039B0093049B07220321FFF7C1FD16
:106124000790079B002B01D0079B5EE0059B1B8B10
:10613400002B12D0059B03F11800BDF81A3001930F
:10614400039B0093049B15221421FFF7AAFD0790DB
:10615400079B002B01D0079B47E0059B1B6A002B84
:106164000DD0059B186ABDF81A30039A0499FFF7FD
:1061740007FE0790079B002B01D0079B35E0059B8A
:106184005B6A002B0DD0059B586ABDF81A30039A40
:106194000499FFF753FE0790079B002B01D0079B40
:1061A40023E0059B93F82C30002B0CD0BDF81A305B
:1061B400039A04990598FFF7B0FE0790079B002BFC
:1061C40001D0079B11E0059B1B78002B0CD0BDF878
:1061D4001A30039A04990598FFF753FB0790079B1D
:1061E400002B01D0079B00E0079B184609B05DF81F
:1061F40004FB82B00190019BDB7803F00403002BC5
:1062040001D1072300E00023184602B0704782B092
:106214000190019BDB78002B01D0072300E00023D1
:10622400184602B0704700B597B0019000911F2343
:10623400ADF84A301F23ADF84830019B002B18D02D
:106244000198FFF7D6FF1390139B002B01D0139BEB
:106254003FE00DF14A020AAB19460198FFF7E0FE50
:106264001390139B002B01D0139B32E00AAB1593C0
:1062740004E0002315930023ADF84A30009B002B63
:1062840017D00098FFF7C3FF1390139B002B01D086
:10629400139B1EE012AA02AB19460098FFF7C0FE3A
:1062A4001390139B002B01D0139B12E002AB1493A9
:1062B40004E0002314930023ADF84830BDF84A30BD
:1062C400D9B2BDF84830DBB2149A1598FFF74CFAEE
:1062D4000346184617B05DF804FB73DF704700BF30
:1062E400184674DF704700BF184682B00190019BC6
:1062F40093F8D630184602B0704784B0019000235A
:1063040003930AE0019A039B13441B78002B01D0EA
:10631400012306E0039B01330393039B052BF1D96F
:106324000023184604B0704782B003468DF8073046
:106334009DF807305A1C074B83FB02135910D317DF
:10634400C91A0B469B000B44D11ACBB2184602B0B3
:10635400704700BF6766666682B001900091009B3B
:10636400DB7B012B04D1009B9A88019BA3F8C820F6
:1063740000BF02B0704700B585B001900091019B49
:10638400002283F8D420009B9A88019BB3F8C8307C
:106394009A4218D1019B1B7983F00103DBB2002BD5
:1063A40011D00121019800F051FA0390039B002BB6
:1063B40009D0019BD3F8D030002B04D0019BD3F833
:1063C400D0300398984700BF05B05DF804FB00B5D2
:1063D40085B001900091009B1B7A002B18D1019B82
:1063E400DB781846FFF7A0FF03461946019800F032
:1063F4002DFA0390039B002B0BD0019BD3F8D030D4
:10640400002B06D0019BD3F8D0300398984700E0C6
:1064140000BF05B05DF804FB08B5002011F08EF94B
:106424000346184608BD000000B585B001900B4630
:106434008DF80330019B26331846FFF75EFF0346B1
:106444008DF80F309DF80330013B032B2AD801A2AD
:1064540052F823F0696402007D6402009164020032
:106464009D640200019B9B79002B05D09DF80F30A1
:10647400002B01D0012316E0019BDB79002B05D012
:106484009DF80F30002B01D002230CE0019B1B7AF6
:10649400002B01D0032306E0019B5B7A002B01D083
:1064A400042300E00023184605B05DF804FB00BF98
:1064B40082B001900091019B01229A70019B03F12B
:1064C4002502009B5A60009B01221A70009B002247
:1064D4009A81009B00225A810023184602B070471B
:1064E40082B001900091019B02229A70019B03F1FA
:1064F4002502009B5A60009B01221A70019B1B69B4
:106504009AB2009B9A81019BDB689AB2009B5A81E4
:106514000023184602B0704700B585B00190009181
:10652400019B5B699AB2009B5A81019B9B699AB259
:10653400009B9A81019B5B79002B24D0019B93F8EB
:10654400D43083F00103DBB2002B1CD00198FFF799
:10655400CCFE0346002B16D0009B02221A72019B2C
:10656400042283F83320019B303300211846FFF7BF
:106574005AFE0390039B002B01D0039B07E0019B71
:1065840005229A7002E0019B03229A7000231846A8
:1065940005B05DF804FB00B585B001900091019B46
:1065A400DB699AB2009B5A81019B1B6A9AB2009BD9
:1065B4009A81019B5B79002B24D0019B93F8D43002
:1065C40083F00103DBB2002B1CD00198FFF78DFE92
:1065D4000346002B16D0009B02221A72019B042250
:1065E40083F83320019B303300211846FFF71BFE4C
:1065F4000390039B002B01D0039B07E0019B062221
:106604009A7002E0019B04229A700023184605B098
:106614005DF804FB82B001900B468DF80330019BBA
:106624009DF8032083F8242000BF02B0704730B5E2
:1066340087B001900091009B002B02D0019B002B9E
:1066440001D10E23FFE0019B01221A70019B00225D
:10665400DA70019A009B141D03F178050FCD0FC465
:1066640095E80F0084E80F00019B002283F82420A2
:10667400009BD3F89820019BC3F8CC20009BD3F84F
:106684009C20019BC3F8D020019B4FF6FF72A3F816
:10669400C820019B253307220021184616F042F832
:1066A400019B30333C220021184616F03BF8009B36
:1066B4001A78019B83F83020009B9A78019B83F819
:1066C4003220009BDA78019B83F83320009B5A78B0
:1066D400019B83F83120019B009A4033103292E8E9
:1066E400030083E80300019B009A3833083292E8E0
:1066F400030083E80300019B009A4833183292E8B0
:10670400030083E80300009B93F82D20019B83F88A
:106714005D20009B5B6A002B2ED0019B03F16C0271
:10672400019B5A65019B03F17802019B5A67009B08
:106734005A6A019B5B6D12881A80009B5A6A019BFE
:106744005B6D92889A80002305930EE0009B5B6A40
:106754009A68059B13441978019A059B134478336E
:106764000A461A70059B01330593019B5B6D9B8858
:106774001A46059B9342E9D3009B9B6A002B3AD0AF
:10678400019B03F1A402019BC3F8A020019B03F128
:106794009802019B9A65019B9B6D019AA4329A60B1
:1067A400009B9A6A019B9B6D92889A80009B9A6ACF
:1067B400019B9B6D12881A80002304930EE0009BBA
:1067C4009B6A9A68049B13441978019A049B1344A6
:1067D400A4330A461A70049B01330493019B9B6DF6
:1067E4009B881A46049B9342E9D3009B93F82C2080
:1067F400019B83F85C20009B1B6A002B10D0019B3B
:1068040003F1C402019B1A65009B1A6A019B1B6D6C
:1068140052885A80009B1A6A019B1B6D12881A8049
:10682400009B5B68002B03D0009B5A68019B5A6352
:10683400019B03F13002009B3C3319461046FFF7DD
:10684400F2FC0390039B184607B030BD00B589B035
:1068540001900B468DF80330019B1B7883F00103F4
:10686400DBB2002B01D00823D2E0019B9DF803206A
:10687400DA70FFF7D1FD0346002B04D0019B0122FF
:106884005A700023C4E0019B2533072200211846D7
:1068940015F048FF019B9B79002B03D0019BDB780B
:1068A400012B0FD0019BDB79002B03D0019BDB78FC
:1068B400012B07D0019BDB79002B16D0019BDB78E1
:1068C400022B12D1019BD3F8CC30002B09D0019BB1
:1068D400012283F82C20019BD3F8CC300820984760
:1068E40003E0019B002283F82C209DF80330194615
:1068F4000198FFF799FD03461A46019BDA70019B44
:10690400D3F8CC30002B21D0019BDB78032B03D0B0
:10691400019BDB78042B19D1019B5B79002B15D0EB
:10692400019B93F8D43083F00103DBB2002B0DD02C
:10693400019B002283F8D620019B012283F8D520F5
:10694400019BD3F8CC300720984703E0019B002239
:1069540083F8D52003AB10220021184615F0E2FE7F
:1069640000238DF80C3000238DF81430019BDB7864
:10697400042B2DD801A252F823F000BFCD690200E8
:1069840095690200A3690200B1690200BF690200AF
:1069940003AB19460198FFF78BFD079019E003AB91
:1069A40019460198FFF79CFD079012E003AB1946C6
:1069B4000198FFF7B1FD07900BE003AB194601986E
:1069C400FFF7E9FD079004E0019B00229A7000E0C4
:1069D40000BF019BDB78002B0DD0019B93F8242092
:1069E40003AB11461846FFF778FC0790079B002B72
:1069F40001D0079B0CE0019BD3F8CC30002B06D0D0
:106A0400019BD3F8CC30019A927810469847002322
:106A1400184609B05DF804FB00B585B001900091FB
:106A2400009B0393019B1B881B2B10D01B2B13DC97
:106A3400102B02D0112B05D00EE001990398FFF71B
:106A44008BFC0AE001990398FFF795FC05E0019996
:106A54000398FFF7BCFC00E000BF00BF05B05DF881
:106A640004FB00B585B001900091009B0393019B4A
:106A7400023B012B1BD8039B5B78002B19D0039B93
:106A840000225A70039BDB7819460398FFF7DEFE59
:106A94000290029B002B0CD0039BD3F8D030002B28
:106AA40007D0039BD3F8D0300298984701E000BF89
:106AB40000E000BF00BF05B05DF804FB00B585B081
:106AC4000190FFF70EFC019B012283F8D420019B67
:106AD400002283F8D620019B062283F83320019BF1
:106AE400303300211846FFF79EFB0390039B002BD5
:106AF40001D0039B14E0019BDB7819460198FFF752
:106B0400A5FE0390039B002B09D0019BD3F8D03042
:106B1400002B04D0019BD3F8D0300398984700236E
:106B2400184605B05DF804FB84B00346ADF80630A2
:106B34000023039316E00F49039A13469B00134462
:106B44009B000B441B88BDF806209A4207D1039A88
:106B540013469B0013449B00064A134406E0039B20
:106B640001330393039B002BE5D00023184604B0A4
:106B7400704700BF2839002082B001900B46ADF861
:106B84000230019BBDF802201A80019B00221A7278
:106B9400019B054903F10A020B4603CB10605160C7
:106BA40000BF02B0704700BF5839002082B0019086
:106BB400019B4FF6FF721A8000BF02B0704788B085
:106BC4000390029111461A460B46ADF8063013465F
:106BD400ADF80430039B9B881A46BDF80630134475
:106BE4000793039B9B881946039B9B88BDF806204B
:106BF400934228BF13469BB2CB1A0693039BDB88B0
:106C04001A46BDF8043013440593039BDB881946E8
:106C1400039BDB88BDF80420934228BF13469BB234
:106C2400CB1A0493029B5A88039B1B889A4205D370
:106C3400029B5A88039B5B889A4201D900231CE07B
:106C4400029B9B881A46069B934205D8029B9B880D
:106C54001A46079B934201D200230EE0029BDB8875
:106C64001A46049B934205D8029BDB881A46059B6F
:106C7400934201D2002300E00123184608B0704774
:106C840000B583B00190064B9B69002B03D0044BE5
:106C94009B690198984700BF03B05DF804FB00BFEF
:106CA4003C39002000B587B003460091ADF80630AA
:106CB400009B5B7A002B1AD1009B1B7A002B03D11B
:106CC400164B5B68059302E0144B9B680593009B8D
:106CD4005B68BDF806200599184609F0D3FC0490BA
:106CE400049B002B16D00498FFF7CAFF12E0009B08
:106CF40000221A72094B5B69002B0BD001238DF81B
:106D04000C30BDF80630ADF80E30044B5B6903AAB5
:106D14001046984700BF07B05DF804FB3C390020DB
:106D240000B585B00190019BDB7B8DF80F30019B92
:106D34009B88ADF80C309DF80F30012B2CD14FF609
:106D4400FF70FFF7F1FE0290029B002B03D1042099
:106D5400FFF796FF21E0BDF80C3019460298FFF7C3
:106D64000BFF029B03F10A00019B03F110014FF694
:106D7400FF7340F2F312FFF722FF03461A46029B09
:106D84005A72074BDB89002B07D1BDF80C300299EE
:106D94001846FFF787FF00E000BF05B05DF804FB6D
:106DA4003C39002000B587B00190019B9B88ADF869
:106DB4001630BDF816301846FFF7B6FE0490049B53
:106DC400002B0ED0049B5B68184609F08DFC0390E1
:106DD400039B002B02D00398FFF752FF0498FFF7A0
:106DE400E5FE00BF07B05DF804FB000000B587B006
:106DF4000190019B06330593059B1A88194BDB8987
:106E04009A422BD1059B5B89022B27D1019B9B883E
:106E1400ADF81230BDF812301846FFF785FE039026
:106E2400039B002B1AD0059B0C33184600F097FAED
:106E34000346002B06D0BDF8123003991846FFF71D
:106E440031FF0BE0039B5B68184609F04DFC029090
:106E5400029B002B02D00298FFF712FF00BF07B07D
:106E64005DF804FB3C39002000B585B00190019B1E
:106E74009B88ADF80E30BDF80E301846FFF754FE6F
:106E84000290029B002B15D0029B03F10A00019B88
:106E940003F108014FF6FF7340F2F312FFF78FFE80
:106EA40003461A46029B5A72BDF80E3002991846E0
:106EB400FFF7F8FE00BF05B05DF804FB00B583B032
:106EC40001900091019B1B88502B12D0502B18DC91
:106ED400122B12D0122B14DC102B02D0112B04D045
:106EE4000FE00198FFF71CFF0CE00198FFF75AFF31
:106EF40008E00198FFF77AFF04E00198FFF7B4FF78
:106F040000E000BF00BF03B05DF804FB00B585B02E
:106F14000346ADF80630164B5B6CDB43184612F0A3
:106F240027F80346ADF80E30BDF80E304FF6FF7269
:106F3400934217D0BDF80E300D4A5B001344BDF8E0
:106F440006209A80BDF8062001230A490A4812F057
:106F540031F8BDF8062001230849074812F02AF841
:106F6400012300E00023184605B05DF804FB00BFD0
:106F740060390020A839002064390020A439002099
:106F840000B585B00346ADF80E30BDF80E300022D2
:106F940000921D220349044812F027F800BF05B0EF
:106FA4005DF804FBA43900206439002000B583B0E7
:106FB4000346ADF80630BDF8062000230349044813
:106FC40011F0F8FF00BF03B05DF804FBA8390020FE
:106FD4006439002000B5A5B0144B9B6CDA43134B05
:106FE4005B6C1A406B461249184612F070F812ABEB
:106FF40069464422184615F063FB002323930BE0F3
:10700400239B5B0090336B4433F8443C1846FFF7F2
:10701400B7FF239B01332393129B239A9A42EFD306
:1070240000BF00BF25B05DF804FB00BF603900203D
:107034006439002082B003468DF80730074B1B6883
:107044009DF80720012101FA02F21340002B14BF1E
:1070540001230023DBB2184602B0704760390020D8
:1070640082B003468DF80730064B1B689DF8072055
:10707400012101FA02F21343024A136000BF02B075
:10708400704700BF6039002000B585B001900091C1
:10709400019B1B881A2B30D01A2B4FDC102B02D0EB
:1070A400112B24D04AE0FFF795FF019B9B881846DB
:1070B400FFF72CFF034683F00103DBB2002B05D05E
:1070C400204AE521042008F005FC37E0019BDB7B26
:1070D400022B0CBF012300238DF80F30019B9A88EB
:1070E4009DF80F301849194811F064FF26E0019B00
:1070F4009B881846FFF75AFF20E0019B9A88019B62
:107104001B7AC3F30313DBB2012B8CBF01230023CF
:10711400DBB20F490D4811F04DFF019B9A88019B8A
:107124001B7AC3F30313DBB2022B8CBF01230023AE
:10713400DBB20849054811F03DFF00BF00BF05B0B0
:107144005DF804FB84CF0300AC39002064390020CF
:10715400B0390020B439002000B585B00346ADF83D
:10716400063000238DF80F30124B5B6CBDF80620FF
:107174001946114811F082FF0346002B13D00D4B22
:10718400DB6CBDF8062019460B4811F077FF034667
:107194008DF80E309DF80E30002B01D0022300E054
:1071A40001238DF80F309DF80F30184605B05DF8B7
:1071B40004FB00BF603900206439002000B583B0AF
:1071C4000346ADF80630064B1B6DBDF80620194684
:1071D400044811F053FF0346184603B05DF804FB5E
:1071E400603900206439002000B583B00190054B5C
:1071F4005A6C019B0449184611F069FF019803B0C9
:107204005DF804FB603900206439002000B583B0C8
:1072140000238DF8073017E09DF807301846FFF774
:1072240009FF034683F00103DBB2002B07D09DF86E
:1072340007301846FFF714FF9DF8073009E09DF862
:10724400073001338DF807309DF80730172BE3D949
:107254001823184603B05DF804FB000000B583B0A2
:1072640003460A46ADF8063013468DF805309DF8FE
:1072740005301846FFF7DEFE0346002B0ED09DF8BE
:107284000530094A14339B0013449B68BDF806205B
:107294001946064811F0F2FE034600E000231846A2
:1072A40003B05DF804FB00BF60390020643900209E
:1072B40000B583B00346ADF806300B468DF80530B3
:1072C40013468DF804309DF805301846FFF7B2FEDA
:1072D4000346002B0ED09DF8053014339B00074A5B
:1072E400134403F108019DF80430BDF80620044856
:1072F40011F060FE00BF03B05DF804FB60390020AC
:107304006439002000B583B003468DF807309DF83A
:1073140007301846FFF78EFE0346002B07D09DF872
:107324000730054A14339B0013449B6800E0002394
:10733400184603B05DF804FB6039002082B0019068
:10734400019B1B781AB2019B01331B781BB21B02F1
:107354001BB213431BB29BB2184602B0704700B570
:1073640085B001900198FFF7E9FF0346ADF80E30B0
:10737400BDF80E3003F00103002B14BF01230023DA
:10738400DBB2184605B05DF804FB000000B585B01B
:107394000190009100238DF80F309DF80F305A1C96
:1073A4008DF80F201A46019B1344009A12781A7024
:1073B4009DF80F305A1C8DF80F201A46019B134478
:1073C400009A52781A709DF80F30022B0CBF0123DB
:1073D4000023DBB20293029B002B04D1054A472110
:1073E400002008F077FA9DF80F30184605B05DF8D4
:1073F40004FB00BFD8CF030000B583B00190009117
:10740400009815F0C4F803469AB2019B1A80019BB8
:10741400009A5A6000BF03B05DF804FB82B001908B
:10742400019B002B14BF01230023DBB2184602B0DA
:1074340070470000024B00221A7000BF704700BF63
:10744400183A002000B585B00190019B5B8818466E
:1074540001F03CF803461A46019B9A8000230393EB
:1074640008E0084A039B52F8233001989847039B8D
:1074740001330393039B002BF3D000BF00BF05B07F
:107484005DF804FBB82F002082B00190019B9B792A
:10749400012B0BD1019B1B79012B07D1019B5B882D
:1074A40042F60212934201D1012300E0002303F0CB
:1074B4000103DBB2184602B0704700B589B0034639
:1074C4000091ADF8063003AB00221A605A609A604E
:1074D400DA601A6107238DF80C30BDF80630ADF878
:1074E4000E30009B059303AB1846FFF7ABFF00BFBC
:1074F40009B05DF804FB000000B58BB00346ADF89D
:10750400063000238DF8273003AB00221A605A603E
:107514009A60DA601A61BDF80630ADF80E30BDF835
:1075240006304FF6FF72934242D0BDF8063018463B
:1075340000F043FC0890089B43F2020293422CD0D3
:10754400089B43F20202934220D8089B112B11D0CE
:10755400089B112B1AD8089B002B03D0089B0B2BDC
:107564000CD013E00E238DF80C3003AB1846FFF754
:1075740069FF13E001238DF827300FE00F238DF806
:107584000C3003AB1846FFF75DFF07E0BDF806308B
:1075940008991846FFF791FF00E000BF064B1978E1
:1075A4009DF82720BDF806301846FFF781FE00E05D
:1075B40000BF0BB05DF804FB1B3A002000B583B09C
:1075C40003460A46ADF8063013468DF80530064BDF
:1075D40019789DF80520BDF806301846FFF768FEB7
:1075E40000BF03B05DF804FB1A3A002000B58BB06D
:1075F4000346ADF8063000238DF8273000238DF8BC
:107604002630BDF80630184600F064FB0890089B4D
:1076140043F20202934233D0089B43F202029342A4
:1076240027D8089B862B11D0089B862B21D8089B32
:10763400002B03D0089B112B04D01AE001238DF8F2
:1076440026301EE001238DF827301AE003AB002218
:107654001A605A609A60DA601A6106238DF80C3059
:10766400BDF80630ADF80E3003AB1846FFF7EAFE5E
:1076740007E0BDF8063008991846FFF71EFF00E042
:1076840000BF9DF82720BDF8063011461846FFF7C5
:1076940095FF9DF8263018460BB05DF804FB0000FA
:1076A40000B58BB00346ADF8063001238DF82730C2
:1076B40000238DF82630BDF80630184600F02AFC69
:1076C4000890089B43F2014293425AD0089B43F22C
:1076D400014293425BD8089B112B29D8089B112B9C
:1076E40055D801A252F823F04177020093770200A3
:1076F4009377020093770200937702009377020056
:107704006D770200937702006D7702009377020091
:107714009377020093770200937702009377020035
:10772400937702009377020093770200A177020017
:10773400089B43F20202934232D028E003AB0022BA
:107744001A605A609A60DA601A6110238DF80C305E
:10775400BDF80630ADF80E3001238DF8263003ABAA
:107764001846FFF76FFE1CE000238DF82730BDF8A4
:107774000630184600F0AAFE0346184600F0FEFB49
:107784000FE0BDF806301846FFF7B6FE09E0BDF875
:10779400063008991846FFF790FE02E000BF00E0AB
:1077A40000BF0B4B19789DF82720BDF8063018460A
:1077B400FFF77EFD074B19789DF82620BDF80630AB
:1077C4001846FFF775FD00BF0BB05DF804FB00BF62
:1077D4001C3A00201D3A002000B597B003468DF8EE
:1077E40007309DF807301846FFF78CFD034618460E
:1077F400FFF714FE0346002B61D003AB1846FFF7D6
:10780400F3FC0023159354E0159B5B0058336B4441
:1078140033F8483CADF852309DF80720BDF852309B
:1078240011461846FFF71AFD0346002B3ED0254BA0
:107834001B789DF807209A4205D1BDF852301846AE
:10784400FFF75AFE32E0204B1B789DF807209A423E
:1078540013D100211D4803F008FC0346002B25D05A
:10786400BDF852301846FFF7C1FE0346002B25D160
:107874000021164803F01CFC18E0154B1B789DF8FA
:1078840007209A4212D1134B1A78BDF85230114690
:107894001846FFF7E3FC034683F00103DBB2002B39
:1078A40004D0BDF852301846FFF7FAFE159B013399
:1078B4001593039B159A9A42A6D300E000BF17B014
:1078C4005DF804FB1B3A00201A3A0020193A002004
:1078D4001C3A00201D3A002008B5034B1B781846BB
:1078E400FFF77AFF00BF08BD1B3A002008B5034B21
:1078F4001B781846FFF770FF00BF08BD1A3A002036
:1079040008B5034B1B781846FFF766FF00BF08BD98
:107914001C3A002000B583B00190019B1B78002B1A
:1079240015D1019B5B881846FFF7E6FD019B5B8838
:10793400184600F0CBFA0346002B0AD0019B5B8863
:10794400064A117801221846FFF7B2FC01E000BF95
:1079540000E000BF00BF03B05DF804FB1C3A002048
:1079640000B589B00190019B1B78082B54D1019B71
:107974005B7A002B50D1019B1B7A082B42D0082B39
:1079840045DC012B16D0072B41D1019B9B8818465F
:1079940000F040FE0346ADF81E30BDF81E304FF631
:1079A400FF72934235D0BDF81E3001211846FFF70F
:1079B40005FE2EE0019B9B8803AA0121184602F0D4
:1079C40017FB0690069B002B25D1049B1B78002BEC
:1079D40021D0019B9B88184600F01CFE0346ADF89D
:1079E4001630BDF816304FF6FF72934213D00D4B8C
:1079F4001978BDF8163001221846FFF759FCFFF735
:107A04007FFF08E00021084803F052FB04E000BFB8
:107A140002E000BF00E000BFFFF768FF00BF09B04D
:107A24005DF804FB1C3A0020193A002008B5FFF762
:107A340001FDFFF7EBFB03461A46184B1A70FFF7DC
:107A4400E5FB03461A46164B1A70FFF7DFFB0346A5
:107A54001A46144B1A70FFF7D9FB03461A46124B09
:107A64001A700E4B1B78182B0BD00D4B1B78182B50
:107A740007D00C4B1B78182B03D00B4B1B78182BFF
:107A840001D1032307E00121084803F0D8FA084B89
:107A940001221A700023184608BD00BF1A3A0020BC
:107AA4001B3A00201C3A00201D3A0020193A0020FD
:107AB400183A002000B589B00190019B9B88ADF86D
:107AC4001E30019B1B88542B0BD0542B4ADC502BAB
:107AD40037D0522B46D1BDF81E301846FFF70CFDA7
:107AE40040E002AB00221A605A609A60DA601A61C0
:107AF40011238DF80830BDF81E30ADF80A30BDF8FA
:107B04001E30184600F0E2FC0346ADF80C30BDF818
:107B14000C30184600F032FA164B1978BDF81E30B6
:107B240000221846FFF7C4FB134B1978BDF81E302A
:107B340000221846FFF7BCFB02AB1846FFF782FC95
:107B440010E0019B06331846FFF79EFC0346002B0A
:107B540007D0BDF81E3001211846FFF72FFDFFF7AF
:107B6400C5FE00BFFFF7B8FEFFF7CAFE00BF09B0AD
:107B74005DF804FB1D3A00201C3A002000B593B0C8
:107B840000F094F96B461846FFF72EFB0023ADF87E
:107B9400463021E0BDF846305B0048336B4433F88F
:107BA400443C184600F092FC03461A464FF6FF7315
:107BB4009A420CD1BDF846305B0048336B4433F82D
:107BC400443C0B4A117801221846FFF771FBBDF8BB
:107BD40046300133ADF84630BDF84620009B9A424A
:107BE400D8D3FFF78DFE00BF13B05DF804FB00BFD0
:107BF4001C3A0020A7DF704700BF1846A9DF704772
:107C040000BF1846AADF704700BF1846ABDF7047B5
:107C140000BF1846044B00221A70044B4FF6FF7243
:107C24001A8000BF704700BF1E3A0020203A00208F
:107C340000B585B0164A01AB92E8030083E803005F
:107C4400144B1B8801A90022184602F0C0FB0390C4
:107C540010E0104B1B88184602F081FB03461A46BD
:107C64000C4B1A800B4B1B8801A90022184602F00A
:107C7400AEFB0390074B1B884FF6FF72934202D072
:107C8400039B112BE5D100BF05B05DF804FB00BFD9
:107C94002CD00300203A002000B583B00190064B9D
:107CA4001B884FF6FF72934201D0FFF7C1FF00BF5C
:107CB40003B05DF804FB00BF203A002008B5FFF7CD
:107CC400A9FF034B01221A700023184608BD00BF08
:107CD4001E3A002000B58BB00346ADF80630BDF85F
:107CE4000630184600F0F2FB0346ADF81E30BDF82E
:107CF4001E304FF6FF72934202D143F2020358E062
:107D04000123ADF8223000238DF8213000238DF8B3
:107D14002130BDF822305A1CADF822201A4603AB9C
:107D2400BDF81E00082102F079F90990099B002B87
:107D340035D1049B0693069B03221A60069B991D6A
:107D4400069B1A1D069B1B68BDF80600FFF75AFF29
:107D54000990099B002B09D1BDF81E20BDF81E30E7
:107D64000821184602F0C8FA09901DE0099B0C2B63
:107D740003D101238DF8213004E0099B052B01D1A7
:107D840000230993BDF81E300821184602F028FA92
:107D94000590059B002B07D00323099304E0099B5E
:107DA400072B01D10C2309939DF82130002BADD171
:107DB400099B18460BB05DF804FB00B58BB0034675
:107DC400ADF80630BDF80630184600F07FFB0346D8
:107DD400ADF81430002308930023ADF81E300323BC
:107DE400069301238DF81730BDF814304FF6FF7257
:107DF400934216D002AABDF814300821184602F0A6
:107E0400F7F80990099B002B0BD1039B0493049B67
:107E140006330893049B9B88ADF81E30049B1B68B3
:107E24000693BDF81E20BDF80600069B0899FFF7CF
:107E3400E5FE0990099B042B02D11123099324E048
:107E4400099B082B02D1002309931EE0099B0B2BED
:107E54001BD100238DF81730069B03F00203002B7F
:107E640002D00123069310E0089B002B03D1BDF838
:107E74001E30002B07D0002308930023ADF81E30DA
:107E84000323069301E003230993099B0B2BC8D01A
:107E94009DF8173083F00103DBB2002B01D00B23D4
:107EA4000993099B18460BB05DF804FB08B54FF61F
:107EB400FF7002F054FA03461A46034B1A80FFF788
:107EC400B7FE00BF08BD00BF203A002000B589B04E
:107ED4000346ADF806300DF117030493BDF80630E0
:107EE400184600F0F3FA0346ADF81E3003AABDF8B5
:107EF4001E300121184602F07BF80690069B002BE9
:107F040001D0002301E0049B1B78184609B05DF8FA
:107F140004FB000000B585B00346ADF806304FF60B
:107F2400FF73ADF80E301448FFF770FE0290029B09
:107F3400002B01D003231AE00F4B1988BDF80E2043
:107F4400BDF806301846FFF755FE0290029B43F237
:107F54000302934205D1084B1B8801339AB2064BA6
:107F64001A80029B43F203029342E5D0029B184617
:107F740005B05DF804FB00BF223A002000B585B0CF
:107F84000346ADF80630084A02AB92E8030083E8E2
:107F9400030002A9BDF806300022184602F017FAC1
:107FA40000BF05B05DF804FB34D0030043DF704725
:107FB40000BF184682B00D4B18221A70002301939B
:107FC4000DE00B49019A13465B0013449B000B44DC
:107FD40002334FF6FF721A80019B01330193019B18
:107FE400132BEED900BF00BF02B07047183B00202E
:107FF400283A002000B585B001900023039308E0DF
:10800400084A039B52F8233001989847039B013395
:108014000393039B012BF3D900BF00BF05B05DF8A8
:1080240004FB00BF44D0030000B583B000230193D8
:108034001AE01149019A13465B0013449B000B4458
:1080440002331B880D4A127811461846FFF706F9C9
:10805400034683F00103DBB2002B02D0019BDBB2A9
:1080640006E0019B01330193019B132BE1D9FF230C
:10807400184603B05DF804FB283A0020183B0020A2
:1080840000B585B00346ADF80630144B1A78BDF838
:10809400063011461846FFF7E1F80346002B18D0C6
:1080A4000023039312E00E49039A13465B00134422
:1080B4009B000B4402331B88BDF806209A4202D170
:1080C400039BDBB206E0039B01330393039B132B57
:1080D400E9D9FF23184605B05DF804FB183B0020DE
:1080E400283A002000B585B003460091ADF806306B
:1080F400FF238DF80F30009B002B49D0BDF80630CC
:108104004FF6FF72934243D0244B1978BDF80630E2
:1081140001221846FFF7CCF8BDF806301846FFF7E1
:10812400AFFF03468DF80F309DF80F30FF2B04D1BD
:10813400FFF77AFF03468DF80F309DF80F30FF2BC1
:1081440026D09DF80F20164913465B0013449B006C
:108154000B440233BDF806201A809DF80F20104905
:1081640013465B0013449B000B444FF6FF721A80C6
:108174009DF80F200A4913465B0013449B000B44EF
:10818400009A0433106818609188927999809A71E2
:108194009DF80F30184605B05DF804FB183B00202D
:1081A400283A002084B00190002303930AE0019A46
:1081B400039B13441B78002B01D0012306E0039B8F
:1081C40001330393039B0F2BF1D90023184604B00A
:1081D400704700B583B001900091019B002B02D041
:1081E400009B002B01D100231BE0019B1B78C3F3F0
:1081F4004603DAB2009B1B78C3F34603DBB29A4210
:1082040001D000230DE0019B581C009B0133062282
:10821400194614F097F90346002B0CBF01230023E1
:10822400DBB2184603B05DF804FB30B599B0019099
:10823400019B1B88102B40F08780019B0AAC1D1DFD
:108244000FCD0FC40FCD0FC40FCD0FC42B68236007
:108254004FF6FF73ADF85E309DF82C3023F0010328
:10826400DBB2062B47D001F0D5F99DF82C30C3F3CF
:108274004603DBB2012B02DC002B15DA3BE0022BB8
:108284002ED038E0089B03F111020AAB04331146E7
:108294001846FFF79EFF0346002B05D0BDF8263095
:1082A400ADF85E3000BF26E007AA0DF1260319469B
:1082B400072001F0B9F90346002BE3D11BE0089B2A
:1082C4005A1C0AAB04331146184600F09FFA0346C1
:1082D400002B05D0BDF82630ADF85E3000BF09E0B4
:1082E40007AA0DF126031946072001F09DF903465C
:1082F400002BE4D100BFBDF828200AAB0433194693
:108304001046FFF7EFFE03468DF85D30BDF85E3092
:108314004FF6FF72934218D0BDF82830BDF85E20A6
:108324001146184600F0E4F9BDF82830ADF80A30DB
:10833400BDF85E30ADF80C3000238DF8083002AB88
:108344001846FFF757FE00E000BF19B030BD00B576
:1083540087B001900091019B11330593009B113369
:108364000493019B581C009B01331022194614F0FE
:10837400E9F80346002B11D1019B01331846FFF79E
:1083840011FF0346002B09D0009B01331846FFF769
:1083940009FF0346002B01D0012300E000238DF8E0
:1083A4000F309DF80F3003F001038DF80F3004995E
:1083B4000598FFF70EFF03468DF80E30059B1B78DA
:1083C40023F00103DBB2042B16D0059B1B7823F0AA
:1083D4000103DBB2062B0FD0049B1B7823F00103AF
:1083E400DBB2042B08D0049B1B7823F00103DBB21F
:1083F400062B01D0012300E000238DF80D309DF8F9
:108404000D3003F001038DF80D309DF80E30002B74
:1084140003D09DF80D30002B0AD19DF80F30002BAE
:1084240008D09DF80D3083F00103DBB2002B01D09E
:10843400012300E0002303F00103DBB2184607B078
:108444005DF804FB00B587B001900B46ADF802302F
:1084540001F0E0F810E0BDF81630BDF802209A42B1
:108464000AD0049B19460198FFF771FF0346002BBD
:1084740002D0BDF816300BE003AA0DF1160319461D
:10848400072001F0D1F80346002BE4D14FF6FF7327
:10849400184607B05DF804FB08B5FFF78BFDFEF73F
:1084A400B5FE03461A46074B1A70064B1B78182B69
:1084B40001D1032303E0044B01221A700023184660
:1084C40008BD00BF183B0020243A002000B585B049
:1084D4000346ADF80630BDF806301846FFF7D0FD68
:1084E40003468DF80F309DF80F30FF2B09D09DF80F
:1084F4000F20074913465B0013449B000B441B8861
:1085040001E04FF6FF73184605B05DF804FB00BFA9
:10851400283A002000B585B003460091ADF8063036
:10852400BDF806301846FFF7ABFD03468DF80F3053
:108534009DF80F30FF2B12D09DF80F2000980A49A8
:1085440013465B0013449B000B4402460433186833
:10855400106099889B7991809371002300E0052332
:10856400184605B05DF804FB283A002000B583B036
:1085740001900091019800F077F8034683F001031D
:10858400DBB2002B01D0002315E0019B1A88009B6D
:108594001B889A4201D000230DE0019B981C009B8C
:1085A40002330822194613F0CDFF0346002B0CBFFB
:1085B40001230023DBB2184603B05DF804FB00B5C9
:1085C40087B0019001F026F814E0049B4633194665
:1085D4000198FFF7CBFF0346002B08D1049B2A33F5
:1085E40019460198FFF7C2FF0346002B02D0BDF8DD
:1085F40016300BE003AA0DF116031946072001F00B
:1086040013F80346002BE0D14FF6FF73184607B06A
:108614005DF804FB84B00346ADF8063000230393F1
:1086240018E01049039A13465B0013449B000B4463
:108634001B88BDF806209A4209D10A49039A1346B9
:108644005B0013449B000B4402331B8807E0039B2D
:1086540001330393039B132BE3D94FF6FF7318469F
:1086640004B07047283A002084B00190019B1B8815
:10867400002B01D0012312E0002303930BE0019AA5
:10868400039B134402331B78002B01D0012306E023
:10869400039B01330393039B072BF0D90023184654
:1086A40004B0704700B585B003460A46ADF80630FD
:1086B4001346ADF80430BDF806301846FFF7E0FC69
:1086C40003468DF80F309DF80F30FF2B0AD09DF82C
:1086D4000F20064913465B0013449B000B44BDF86E
:1086E40004201A8000BF05B05DF804FB283A00207E
:1086F40000B583B003460A46ADF806301346ADF81C
:108704000430BDF80420BDF8063011461846FFF7C2
:10871400C9FF00BF03B05DF804FB00B585B0034694
:10872400ADF80630BDF806301846FFF773FF034670
:10873400ADF80E30BDF80630184601F00DFC02907D
:10874400BDF80E304FF6FF72934209D0029B002B06
:1087540006D1BDF80E304FF6FF711846FFF7A2FFA1
:10876400029B184605B05DF804FB00B595B0039074
:1087740002910192002313930DE0139BC3F10F03A5
:10878400039A1344197805AA139B13440A461A70D2
:10879400139B01331393139B0F2BEED905AB1033AB
:1087A4000D220021184613F0BDFF002312930DE0A3
:1087B400029A129B1A44129BC3F10F03127850338E
:1087C4006B4403F82C2C129B01331293129B022B43
:1087D400EED905AB1846FFF7E9FB002311930DE032
:1087E400119BC3F10F020199119B0B4450326A444F
:1087F40012F81C2C1A70119B01331193119B022B3C
:10880400EED900BF00BF15B05DF804FB00B587B01A
:1088140001900091019B1B7823F00103DBB2042B30
:1088240001D000231FE0019B5A1C05AB11889278EC
:1088340019809A70019B1A1D03AB118892781980D4
:108844009A70009B04AA03A91846FFF78EFF04A997
:1088540005AB0322184613F075FE0346002B0CBF2C
:1088640001230023DBB2184607B05DF804FB90DF58
:10887400704700BF18469EDF704700BF1846ADDF43
:10888400704700BF184682B00190019BF7221A80FE
:10889400019B17225A80019B00221A71019B00221E
:1088A4005A71019BFB229A71019B1B22DA7100BF52
:1088B40002B0704700B587B003460091ADF80630AA
:1088C400244B5B68032B10D9224B1B881B0443F0F9
:1088D4000400BDF80630009ADB0013441B7B1A46E3
:1088E400BDF806301C4911F0F0FDBDF80630009AC1
:1088F400DB0013441B7BADF80C30BDF80630009A46
:10890400DB0013441B7BADF80E300023ADF81030B0
:108914000023ADF8123003A9BDF806300022184632
:10892400FFF7A5FF0590059B002B0ED0094B5B6854
:10893400002B0AD0074B1B881B0443F00100BDF831
:108944000620059B054911F0C0FD00BF07B05DF886
:1089540004FB00BF982E002058D0030094D00300DD
:1089640000B587B001900091009B9B88ADF816304C
:10897400BDF81630DB00019A134406330493019BBF
:108984001A79049B9A71009BDB7B012B02D0022B8A
:1089940005D009E0019B1A88049B1A8004E0019B1E
:1089A4005A88049B1A8000BF049B1A88049B5B8826
:1089B4009A4244D92A4B5B68032B0CD9284B1B8859
:1089C4001B0443F00400049B1B881A46BDF81630B0
:1089D400244911F07AFD049B1A88BDF8163011461B
:1089E4001846FFF748FF0390039B002B03D1049B19
:1089F40001225A7123E0039B112B12D1049B012203
:108A04001A71174B5B68032B19D9154B1B881B0470
:108A140043F00403BDF816201349184611F044FD31
:108A24000DE00F4B5B68002B09D00D4B1B881B041A
:108A340043F00103039A0D49184611F035FD049BD8
:108A44009A79049BDB799A4205D9BDF816300199CD
:108A54001846FFF72FFF00BF07B05DF804FB00BF07
:108A6400982E0020F4D0030034D1030088D10300F1
:108A740000B583B001900091009B9B88DB00019AB4
:108A8400134406331846FFF7FEFE00BF03B05DF83B
:108A940004FB000000B587B001900091009B9B8807
:108AA400ADF81630009B5B89ADF81430BDF8163074
:108AB400DB00019A134406330493049B1B88BDF81E
:108AC4001420934228BF13469AB2049B5A80049BF5
