:10000000000001204D020000A50200003113000095
:10001000A9020000AB020000AD02000000000000D9
:10002000000000000000000000000000AF0200001F
:10003000B102000000000000B3020000B5020000A1
:10004000C1250000BB020000B5410000BF02000056
:10005000C1020000C3020000C9280000C70200005E
:10006000C9020000CB020000CD020000CF02000058
:10007000D1020000D3020000D5020000D702000028
:10008000D9020000AD100000DD020000DF02000018
:10009000ED100000E3020000E5020000E7020000AE
:1000A000E9020000EB020000ED020000EF02000098
:1000B000F1020000F3020000B7020000B7020000E6
:1000C000F5020000F7020000F9020000FB02000048
:0C00D000FD020000FF0200000103000020
:1000DC003A493B480A1A02D0072291438D463949C6
:1000EC0039480A1A06D00722914381F30988022263
:1000FC0082F3148835483649364A00F041F83648C0
:10010C003649374A00F03CF836483749374A00F050
:10011C0037F837483749384A00F032F83748384909
:10012C00384A00F02DF838483849394A00F028F898
:10013C0038483949394A00F023F8394839490022FE
:10014C0000F036F838483949002200F031F83848C8
:10015C003849091A04F044FC374A90472548264987
:10016C00884205D00268043003B4904703BCF7E71B
:10017C0000208646EC4600200021304A9047FEE7DE
:10018C00884214D0521A12D003460B431343032453
:10019C00234206D1036804300B600431043AF9D1D0
:1001AC007047037801300B700131013AF9D1704777
:1001BC00884202D002700130FAE77047000001203B
:1001CC0000F8002000000120000001200450000075
:1001DC0000000020180000200403000004030000AD
:1001EC00F44A000004500000000000200000002031
:1001FC00F44A0000F44A0000F44A0000F44A0000FB
:10020C00F44A0000F44A0000F44A0000F44A0000EA
:10021C00015000001C5000001800002018000020A5
:10022C0018000020B0020020B0020020B002002014
:10023C00B0020020B004002071020000ED4100006B
:10024C000F484FF00701884385460E4880470E48FB
:10025C00016841F470010160BFF34F8FBFF36F8FE2
:10026C00FFF736BF09480A490A4A884207D0521A92
:10027C0005D0037801300B700131013AF9D1704788
:10028C00000001202D43000088ED00E0F44A00003E
:10029C000000002000000020FEE7FEE7FEE7FEE77E
:1002AC00FEE7FEE7FEE7FEE7FEE7FEE7FEE7FEE71A
:1002BC00FEE7FEE7FEE7FEE7FEE7FEE7FEE7FEE70A
:1002CC00FEE7FEE7FEE7FEE7FEE7FEE7FEE7FEE7FA
:1002DC00FEE7FEE7FEE7FEE7FEE7FEE7FEE7FEE7EA
:1002EC00FEE7FEE7FEE7FEE7FEE7FEE7FEE7FEE7DA
:0802FC00FEE7FEE7FEE700BF8C
:1003040000B583B00190019B1B681F2B04D90549DC
:100314004FF4E87001F07AF84FF0A043184603B0A8
:100324005DF804FBF44A000000B585B0019008466E
:1003340011461A4603468DF803300B468DF80230F9
:1003440013468DF8013001AB1846FFF7D9FF03902F
:100354009DF803209DF802305B001A439DF801309C
:100364009B001A439DF818301B0242EA03019DF8D2
:100374001C301B04019A1943039B02F5E07243F8F5
:10038400221000BF05B05DF804FB00B585B00390F2
:1003940000230193002300930023012201210398E9
:1003A400FFF7C2FF00BF05B05DF804FB00B585B0E0
:1003B40003900B468DF80B309DF80B300022019210
:1003C40000220092002200210398FFF7ADFF00BF36
:1003D40005B05DF804FB00B585B0019001AB18468B
:1003E400FFF78EFF0390019B012202FA03F31946E3
:1003F400039800F02AF800BF05B05DF804FB00B5CF
:1004040085B0019001AB1846FFF77AFF0390019B7A
:10041400012202FA03F31946039800F020F800BF02
:1004240005B05DF804FB00B583B001900091009B1A
:10043400002B03D10198FFF7E2FF02E00198FFF7D8
:10044400CAFF00BF03B05DF804FB82B001900091C5
:10045400019B009AC3F8082500BF02B0704782B020
:1004640001900091019B009AC3F80C2500BF02B0D3
:100474007047000000B583B00190019B032B03D9A2
:100484000749442000F0C2FF064A019B13441B782D
:1004940001211846FFF7C7FF00BF03B05DF804FB56
:1004A4002C4B0000744B000000B583B00023019373
:1004B40005E00198FFF7DEFF019B01330193019BE7
:1004C400032BF6D900BF00BF03B05DF804FB0000A6
:1004D40000B583B00023019309E0094A019B13444A
:1004E4001B781846FFF751FF019B01330193019BD1
:1004F400032BF2D9FFF7D8FF00BF03B05DF804FB6C
:10050400744B000000B583B0002301930AE0094A4C
:10051400019B13441B7803211846FFF747FF019BF7
:1005240001330193019B032BF1D900BF00BF03B03A
:100534005DF804FB784B000000B589B0039002918C
:100544000192029B9BB2ADF81430019B0693039B6E
:10055400079305AB1A46002144F2010000F052F85B
:1005640000BF09B05DF804FB86B0039002910192CC
:1005740001238DF817309DF81730214A039B13602F
:100584001F4A029B53601E4A019B9360039B44F2E3
:100594000102934213D0039B44F20202934222D1FC
:1005A400019B174AD360164BDB681B881A46144B11
:1005B4009A61134BDB685B68114AD36113E0019BBA
:1005C4000F4A13610E4B1B699B680D4A53610C4B18
:1005D4001B691B881A460A4B9A61094B1B695B68A5
:1005E400074AD36100BF72B600BF00BF9DF8173041
:1005F400DBB2002BFAD162B600BF00BF06B0704771
:100604001800002000B587B0039002910192039B6B
:1006140044F20102934207D0039B44F20202934244
:1006240005D1019B059303E0019B049300E000BF07
:10063400074B1B6803F00103002B00D0FFDE019A77
:1006440002990398FFF790FF00BF07B05DF804FB21
:10065400F0ED00E082B003468DF807309DF80730D6
:1006640003F01F0205499DF907305B09012000FAD8
:1006740002F241F8232000BF02B0704700E100E01D
:1006840082B003468DF807309DF8073003F01F024F
:1006940006499DF907305B09012000FA02F2203374
:1006A40041F8232000BF02B0704700BF00E100E022
:1006B40082B003468DF807309DF8073003F01F021F
:1006C40006499DF907305B09012000FA02F2403324
:1006D40041F8232000BF02B0704700BF00E100E0F2
:1006E40082B003468DF807309DF8073003F01F02EF
:1006F40006499DF907305B09012000FA02F26033D4
:1007040041F8232000BF02B0704700BF00E100E0C1
:1007140082B0034600918DF807309DF90730002B15
:100724000CDA009BDAB20C499DF8073003F00F0392
:10073400043B5201D2B20B441A7609E0009BDAB2B0
:1007440006499DF907305201D2B20B4483F80023C5
:1007540000BF02B0704700BF00ED00E000E100E020
:1007640084B00190244B0393019B002B40D0234B76
:100774001A680399019B00BF00BF00BF00BF00BF00
:1007840000BF00BF00BF8A422FD000BF00BF00BF20
:1007940000BF00BF00BF00BF00BF00BF00BF00BF5D
:1007A40000BF00BF00BF00BF00BF00BF00BF00BF4D
:1007B40000BF00BF00BF00BF00BF00BF00BF00BF3D
:1007C40000BF00BF00BF00BF00BF00BF00BF00BF2D
:1007D40000BF00BF00BF00BF00BF00BF00BF00BF1D
:1007E40000BF00BF00BF00BF00BF013BC3D10193E6
:1007F40000BF04B0704700BF0024F40014000020C0
:1008040000B583B00190064A019BC2F80835072160
:100814001120FFF77DFF00BF03B05DF804FB00BFAC
:100824000010014008B50D4B4FF48032C3F8442347
:100834000A4B4FF48032C3F804231120FFF750FF12
:100844001120FFF707FF054B01221A602F20FFF745
:1008540087FF034B01221A7000BF08BD001001403E
:100864005601002008B51120FFF70AFF0E4B4FF484
:100874008032C3F848230C4B4FF48032C3F808236A
:10088400094B01225A602F20FFF76AFF064B012211
:100894009A60064B00221A602F20FFF761FF044B79
:1008A40000221A7000BF08BD00100140480100205A
:1008B40056010020024BD3F804351846704700BF98
:1008C4000010014082B001900091019A009BD31A5C
:1008D40023F07F43184602B07047000082B00190B5
:1008E400034A019BC2F8403500BF02B0704700BF05
:1008F4000010014086B00190284B1B68002B03D1E7
:10090400264A019B136045E0019B1A68234B1B6830
:100914001B689A4210D8214B1B681968019B1A68FE
:100924001E4B1B688A1A1A601C4B1A68019BDA61F9
:100934001A4A019B13602DE0019B1B680393174B1C
:100944001B680593154B1B68049309E0049B1B6803
:10095400039AD31A0393049B0593049BDB690493C2
:10096400049B002B04D0049B1B68039A9A42EDD885
:10097400049B002B05D0049B1A68039BD21A049B8A
:100984001A60019B039A1A60019B049ADA61059B21
:10099400019ADA6100BF06B0704700BF440100202D
:1009A40000B587B001902A4B1B680393284B1B6842
:1009B4000593059B049308E0049A019B9A4208D08E
:1009C400049B0593049BDB690493049B002BF3D1E4
:1009D40000E000BF049B002B01D1002333E0059A03
:1009E400049B9A4214D11A4B1B68DB69184A1360A2
:1009F400174B1B68002B0BD1164B01229A60164B28
:100A040000221A60154B01221A702F20FFF7A8FE4E
:100A1400049B1B680293049BDA69059BDA61059BBE
:100A2400DB690493049B002B05D0049B1A68029B8A
:100A34001A44049B1A60064B1B68039A9A4214BF1B
:100A440001230023DBB2184607B05DF804FB00BFA6
:100A540044010020001001404801002057010020FB
:100A640008B51120FFF724FE00BF08BD08B5142007
:100A7400FFF71EFE00BF08BD00B583B00190019BC7
:100A84005B69019A92691046984700BF03B05DF80C
:100A940004FB000000B585B02B4B1B68002B4ED027
:100AA40000230193FFF706FF0246284B1B681946F3
:100AB4001046FFF707FF0290234B1B6803931DE0CA
:100AC400039B1B68029A9A421CD3039B1B68029ADD
:100AD400D31A0293039B1B68019A13440193039B4B
:100AE4000093039BDB690393009B1B7C002B05D0C5
:100AF400009B00221A740098FFF7BEFF039B002B93
:100B0400DED100E000BF124B1A78124B1B789A42D8
:100B14000CD1104B1B780133DAB20E4B1A700D4B0B
:100B24001B78022B02D10B4B00221A70094B1B7845
:100B34001946094A019B42F82130FFF797FF00BF8D
:100B440005B05DF804FB00BF44010020480100200B
:100B540054010020550100204C01002082B0019076
:100B6400184B1A78184B1B789A4223D0154B1B78D4
:100B74000133DAB2134B1A70124B1B78022B02D1D9
:100B8400104B00221A700F4B1B781A460F4B53F868
:100B94002220019B1A60019B1A680D4B1B681344A9
:100BA4000B4A13600A4B1B6823F07F43084A136007
:100BB400012303E0019B00221A600023184602B0BF
:100BC400704700BF54010020550100204C01002053
:100BD4004801002088B003900291019200230793FA
:100BE40038E0204B1B680693069B1B68039A9A42C5
:100BF40006D2069B1A68039BD21A069B1A602EE043
:100C0400069B1B68039AD31A0393069B1B68079AD7
:100C140013440793069B00221A60124B1B6805932A
:100C2400069BDB690F4A1360069BDB68002B11D01F
:100C3400029A079B134423F07F42069B5A60069B4B
:100C4400DA68069B9A60019B1A68069BDA61019B2D
:100C5400059A1A60034B1B68002BC2D100BF00BF6A
:100C640008B070474401002000B589B0019000230A
:100C74008DF81F30664B1B680593AAE0019B002B7F
:100C840005D0019B0693069BDB69019361E0614BF0
:100C94001B781A4613465B001344DB005D4A134479
:100CA400043304935B4B1B780133DAB2594B1A704B
:100CB400584B1A78574B9B789A4202D1554B0022D5
:100CC4001A70049B5B680693049B1B78032B1ED04D
:100CD400032B7EDC012B1FD0022B7AD1049B5B6893
:100CE4001846FFF75DFE0346002B02D001238DF862
:100CF4001F30069B00221A746BE0454B1B6803935C
:100D0400039B00221A74039BDB69414A1360404B26
:100D14001B68002BF1D15CE000BF069B1B7C002B01
:100D240000D056E0049B9A68069B5A60049BDA68DC
:100D3400069B9A60049B1A69069BDA60049B5A69B5
:100D4400069B9A61344B1B78002B02D0069B002231
:100D54005A60069B5A68314B1B68D31A23F07F43B1
:100D64002F4A93420ED8069B5B682C4A12681146A0
:100D74001846FFF7A7FD0246069B9B681A44069B8C
:100D84001A6017E0254B1A68069B5B6819461046E3
:100D9400FFF798FD0290069B9B68029A9A4206D23E
:100DA400069B9A68029BD21A069B1A6002E0069B75
:100DB40000221A60069B00225A60069B00229A6059
:100DC400069B01221A74069B0022DA610698FFF73B
:100DD40091FD019B002B7FF451AF0E4B1A780D4B04
:100DE4005B789A427FF44AAF9DF81F30002B04D100
:100DF400074B1B68059A9A4201D0012300E00023A7
:100E040003F00103DBB2184609B05DF804FB00BF30
:100E14004401002038000020570100204801002030
:100E2400FEFF7F0010B588B00190274B1B68002B94
:100E340044D0254B1B681B680793FFF73BFD0690C6
:100E4400224B1B68059305990698FFF73BFD034663
:100E5400033304931E4B1B7883F00103DBB2002B96
:100E640001D0FFF7DFFC049A079B934238BF134677
:100E7400059A13440593059B23F07F430593059836
:100E8400FFF72CFDFFF716FD039006990398FFF773
:100E940019FD0346DC1C06990598FFF713FD03466C
:100EA4009C420DD9FFF706FD03461846FFF716FDD1
:100EB4002F20FFF755FCFFF7D3FD01E0FFF7D2FC2D
:100EC40000BF08B010BD00BF44010020480100204D
:100ED4005601002000B587B00023019300238DF84C
:100EE4001730194B1B680493184B1B6803936B460C
:100EF4001846FFF733FE03468DF80B309DF80B3090
:100F0400002B08D0009B01AA04991846FFF762FE43
:100F140001238DF81730019B1846FFF7A5FE034601
:100F2400002B02D001238DF817309DF81730002BC9
:100F340002D00398FFF776FF054B00221A7000BF1A
:100F440007B05DF804FB00BF480100204401002005
:100F54005701002082B003468DF80730034A9DF8FC
:100F64000730537000BF02B0704700BF3800002044
:100F740084B00190144B5B7801338DF80F30124B21
:100F84009B789DF80F209A4202D100238DF80F30F0
:100F94000D4B1B789DF80F209A4201D100230FE0DE
:100FA400019B9DF80F201A70074B5B781A46134675
:100FB4005B001344DB00044A134404330293029B92
:100FC400184604B0704700BF3800002000B589B04F
:100FD400039002910192009300230793002000F0F4
:100FE4005DF90DF117031846FFF7C2FF0690069B43
:100FF400002B02D10423079318E0069B01221A70E8
:10100400069B039A5A60FFF755FC0246069B9A60BA
:10101400069B029ADA60069B019A1A61069B009A63
:101024005A619DF817301846FFF794FF002000F02E
:1010340049F9079B002B01D1FFF718FD079B1846C0
:1010440009B05DF804FB00B587B001900B468DF83C
:10105400033000230593002000F020F90DF10F0365
:101064001846FFF785FF0490049B002B02D104234C
:1010740005930BE0049B9DF803201A70049B019ACE
:101084005A609DF80F301846FFF764FF002000F007
:1010940019F9059B002B01D1FFF7E8FC059B1846C5
:1010A40007B05DF804FB000008B50E4B0022C3F83E
:1010B40040210C4B0022C3F844210A4B0022C3F800
:1010C4004821084B0022C3F84C21064B0022C3F8E8
:1010D4000021044B0022C3F80421FFF7DBFC00BF0E
:1010E40008BD00BF0010014008B5FFF7F3FE00BFC4
:1010F40008BD000008B5FFF7B5FB134B00221A70BA
:10110400114B00225A70104B0B229A700F4B002285
:101114001A600F4B00221A700E4B00221A70142012
:10112400FFF7DEFA07211420FFF7F2FA1420FFF785
:1011340091FA0020FFF764FBFFF7BCFB0346064A65
:1011440013600023184608BD380000204401002025
:1011540054010020550100204801002086B003906E
:101164000B4601928DF80B30134B9B78002B01D169
:1011740008231EE0019B002B01D1072319E0039BE8
:10118400002B01D1072314E0039B1B681B7C002B5D
:1011940001D008230DE0039B1B680593059B0022E7
:1011A4001A74059B9DF80B205A74059B019A5A6189
:1011B4000023184606B070473800002000B587B0F9
:1011C400039002910192039B0593144B9B78002B8F
:1011D40001D108231EE0039B002B01D1082319E051
:1011E400029B042B01D8072314E0059B5B69002BA9
:1011F40001D108230EE0059B5B7C012B01D1029BEE
:1012040000E000230493019B049A02990598FFF7D8
:10121400DDFE0346184607B05DF804FB38000020E5
:1012240000B585B00190019B03930D4B9B78002B77
:1012340001D1082310E0019B002B03D0039B5B69C1
:10124400002B01D1082307E0039B00221A7402211A
:101254000398FFF7F8FE0346184605B05DF804FB53
:101264003800002072B600BF034B1B680133024AEA
:10127400136000BF704700BF58010020064B1B6875
:10128400013B054A1360044B1B68002B01D162B675
:1012940000BF00BF704700BF5801002000B583B0F5
:1012A400019000F025F80346012B03D004494320A4
:1012B40000F0ACF8FFF7D6FF00BF03B05DF804FB05
:1012C4007C4B000000B583B003468DF8073000F076
:1012D4000FF80346012B03D00449512000F096F87F
:1012E400FFF7CCFF00BF03B05DF804FB7C4B0000AC
:1012F40084B0EFF305830193019BC3F308030393C5
:10130400039B002B0DD1EFF314830093009B0293F6
:10131400029B03F00103002B0CBF01230023DBB26B
:1013240000E00123184604B0704700001EF0040FCB
:101334001CBFEFF309800AE0EFF308800849094A6B
:10134400884201D8904202D88D464FF000006B4687
:10135400854608B5044B9847BDE808409D4670474C
:101364000000012000F80020B513000000BF00BFFA
:10137400BFF34F8F00BF074BDB6803F4E0620549FE
:10138400054B1343CB60BFF34F8F00BF00BF00BFBB
:10139400FCE700BF00ED00E00400FA0500B583B0EF
:1013A4000190FFF7E5FF00BF03B05DF804FB000008
:1013B40000B587B00190019B0493124B9B6A039381
:1013C400104BDB6A002305930AE00122059B02FA15
:1013D40003F31A46039B1340002B059B013305932B
:1013E400059B192BF1D9084B1B6803F00103002B53
:1013F40000D0FFDE0198FFF7D1FF00BF07B05DF812
:1014040004FB00BF00ED00E0F0ED00E000B585B0A6
:1014140003460091ADF80630BDF80630ADF808304B
:10142400009B039302AB1A46002144F20200FFF72B
:10143400E9F800BF05B05DF804FB000000B583B017
:1014440001900091019B002B03D108493620FFF73E
:10145400DDFF019B9B68009A9A4202D2009B0133F4
:1014640000E00023184603B05DF804FBD84B0000ED
:1014740084B00190019B1B681B680393019B1B684C
:101484005B680293029A039B9A4203D3029A039BDA
:10149400D31A06E0019B9A68039BD21A029B134459
:1014A4000133184604B0704710B58AB00390029116
:1014B4000192039800F0B2F90990039B9A68039B88
:1014C4001B685B68D31A01330893039B5B68194656
:1014D400039B1B685B68039AD26802FB03F30B440B
:1014E4000793019A089B9A421DD8039BDB68019AD3
:1014F40002FB03F31A460299079803F097FA039B39
:101504001B685A68019B1A44039B9B689A4205D83E
:10151400039B1B685A68019B134400E00023039A51
:10152400126853602FE0039BDA68089B02FB03F305
:101534000693069A0299079803F078FA019A089B91
:10154400D31A0593039B5868029A069B13441946C1
:10155400039BDB68059A02FB03F31A4603F066FA61
:10156400039B1B68059A5A60099A019B9A420AD206
:10157400039B1B685A68039B1C6811460398FFF77A
:101584005DFF034623600398FFF772FF0490039BFB
:101594001B689B68049A9A4203D9039B1B68049AAC
:1015A4009A6000BF0AB010BD00B587B003900291E5
:1015B4000192039B002B04D11B494FF49170FFF758
:1015C40025FF029B002B04D1174940F22310FFF79B
:1015D4001DFF019B002B01D1002321E00020FFF718
:1015E4005DFE039B1B7C002B07D1039B9B68019A28
:1015F400934228BF1346019309E0039800F00EF9C3
:101604000590019A059B934228BF13460193019AC2
:1016140002990398FFF748FF0020FFF753FE019B50
:10162400184607B05DF804FBD84B000000B58BB03A
:10163400039002910192039B1B681B680993039B0F
:101644001B685B680893099A089B9A4203D8089A16
:10165400099BD31A04E0039B9A68099BD31A0133AC
:101664000793039B5B681946039BDB68099A02FB9B
:1016740003F30B440693019A079B9A4219D8039BE0
:10168400DB68019A02FB03F31A460699029803F0F9
:10169400CDF9099A019B1A44039B9B689A4203D88B
:1016A400099A019B134400E00023039A1268136013
:1016B40020E0039BDA68079B02FB03F30593059A7A
:1016C4000699029803F0B2F9019A079BD31A04937E
:1016D400029A059B13441846039B5968039BDB68D5
:1016E400049A02FB03F31A4603F0A0F9039B1B6858
:1016F400049A1A6000BF0BB05DF804FB00B587B014
:10170400039002910192039B002B04D115494FF4DD
:10171400C470FFF77BFE029B002B04D1114940F2F9
:101724008910FFF773FE019B002B01D1002315E004
:101734000020FFF7B3FD0398FFF79AFE0590019A86
:10174400059B934228BF13460193019A029903987B
:10175400FFF76CFF0020FFF7B5FD019B184607B0AB
:101764005DF804FBD84B000000B583B00190019BE9
:10177400002B04D10A494FF4CF70FFF747FE002035
:10178400FFF78CFD019B1B680C220021184603F017
:101794007FF90020FFF796FD00BF03B05DF804FB5E
:1017A400D84B000000B585B00190019B002B04D1FB
:1017B40009494FF4D570FFF729FE0020FFF76EFDAD
:1017C4000198FFF755FE03900020FFF77BFD039B74
:1017D400184605B05DF804FBD84B000000B585B091
:1017E4000190019B002B04D10B4940F2B710FFF785
:1017F4000DFE019B1B681B680393019B1B685B68C0
:101804000293039A029B9A420CBF01230023DBB28A
:10181400184605B05DF804FBD84B000010B582B043
:101824000190019B002B04D1074940F2BF10FFF740
:10183400EDFD019B9C680198FFF7B4FF0346E31A92
:10184400184602B010BD00BFD84B000010B487B0DA
:1018540001900091019B009A53E8004F104643E821
:10186400000191F0000FF7D1059404900391059BBA
:10187400184607B05DF8044B7047000000B583B00C
:101884000190019B002B03D106497220FFF7BEFD96
:10189400019B00221A60BFF35F8F00BF00BF03B03B
:1018A4005DF804FB2C4C000000B585B00190019B51
:1018B400002B03D10A498520FFF7A8FD01210198D7
:1018C400FFF7C4FF0390BFF35F8F00BF039B002BA0
:1018D4000CBF01230023DBB2184605B05DF804FBFE
:1018E4002C4C000000B583B00190019B002B03D168
:1018F4000A499220FFF78AFD019B1B68012B03D044
:1019040006499320FFF782FDBFF35F8F00BF019B61
:1019140000221A6000BF03B05DF804FB2C4C0000E9
:1019240082B00190019B03F06043B3F1005F0CBFF0
:1019340001230023DBB2184602B0704700B583B020
:1019440001900B468DF80330019B9B681B68DB6894
:10195400002B08D0019B9B681B68DB689DF8032063
:1019640011460198984700BF03B05DF804FB00B529
:1019740083B00190019B9B681B681B78002B0BD0E4
:10198400019B9B681B681B69002B06D0019B9B680D
:101994001B681B69984700E000BF03B05DF804FBB7
:1019A40000B589B0039002910192039B9B681B6868
:1019B4001B78002B27D1019BFF2B28BFFF23059306
:1019C400059B07930FE0039B01220299184602F03E
:1019D400DBF80490049B002B10D1029B013302938B
:1019E400079B013B0793039B184602F091F90346BA
:1019F400002B04D0079B002BE5D100E000BF059A23
:101A0400079BD31A0BE0039B9B681B685B681B68EE
:101A14000693019A02990698FFF770FE034618464A
:101A240009B05DF804FB000000B58DB0039002918D
:101A3400019200230B93039B9B681B681B78002B6C
:101A440015D1019BFF2B28BFFF230B93039B0B9AFC
:101A5400D2B20299184601F08DFE0590059B002B29
:101A640003D022496A20FFF7D1FC0B9B3AE0039B89
:101A74009B681B685B685B680A93039B9B681B6895
:101A84009B680993019A02990A98FFF78DFD0890C3
:101A9400039B184601F0DAFE0346002B01D0089B95
:101AA40020E0099B1968099B1B7A1A460A98FFF7DC
:101AB40025FE0790079B002B03D10C497920FFF7E3
:101AC400A5FC0398099B1B68079AD2B2194601F03A
:101AD40051FE0690069B002B03D004497B20FFF7A0
:101AE40095FC089B18460DB05DF804FB644C00009F
:101AF40000B58BB001900091009B0993019B1B786A
:101B0400022B39D0022B68DC002B3AD0012B64D194
:101B1400099B9B681B685B681B680893019B596859
:101B2400019B1B7A1A460898FFF73EFD0790019B1C
:101B34001B7A1A46079B934204D203210998FFF7A4
:101B4400FDFE51E001210998FFF7F8FE099B9B680F
:101B54001B689B6806930998069B5968069B5B7AE9
:101B64001A4602F011F80590059B002B37D0204946
:101B74009C20FFF74BFC32E002210998FFF7DEFEC0
:101B840032E0099B9B681B685B685B680493099B54
:101B94009B681B689B68039300210998FFF7CEFE9E
:101BA400039B1968039B1B7A1A460498FFF7A6FD4A
:101BB4000290029B002B14D00998039B1B68029A85
:101BC400D2B2194601F0D6FD0590059B002B0AD030
:101BD4000749B320FFF71AFC05E000BF04E000BF8B
:101BE40002E000BF00E000BF00BF0BB05DF804FBE3
:101BF400644C000000B58FB0039002910192039BE6
:101C0400002B05D0029B002B02D0019B002B03D19B
:101C14005449C020FFF7FAFB039B9B681B68002B09
:101C240001D0852399E0019B1B78002B0BD0019BED
:101C34005B68002B03D0019B9B68002B03D14949AF
:101C4400CA20FFF7E3FB05AB20220299184602F0F5
:101C5400EDFE039B0993019B1B78022B0CBF012310
:101C64000023DBB28DF831300398019B1B78002BE5
:101C740001D03D4A00E0002205AB194601F034FCD6
:101C84000D900D9B002B01D00D9B66E0039B9B6880
:101C9400019A1A60039B9B681B685B68002B0FD03A
:101CA400039B9B681B685B685B681846FFF75CFDD9
:101CB400039B9B681B685B681B681846FFF754FD11
:101CC400039B9B6808331846FFF7D8FD039B9B686A
:101CD40004331846FFF7D2FD039B9B6803221A7353
:101CE400059BB3F1FF3F08D1039B9B681A7B039BC1
:101CF4009B6822F00202D2B21A73069BB3F1FF3F33
:101D04000AD1039B9B681A7B039B9B6822F0010208
:101D1400D2B21A73002320E0039B9B681B681B78D4
:101D2400022B0BD0039B184602F016F8039B9B680A
:101D34001B681B78002B01D100230EE00398039B42
:101D44009B681B689B685968039B9B681B689B681E
:101D54005B7A1A4601F018FF034618460FB05DF887
:101D640004FB00BF644C0000F51A000084B001902D
:101D7400019B0393039B01221A7000BF04B07047B8
:101D8400F0B587B00390029101920093019B002269
:101D94001C4615464FF000024FF00003EB0343EAE4
:101DA4005443E20312F5FA7643F100074FF47A72D2
:101DB4004FF000033046394602F07EFD02460B46E2
:101DC40013460593059B042B04D8009B01221A702B
:101DD400002312E00A4A00210298FFF7BFF9049099
:101DE400049B002B01D0049B07E0029B1B68009A14
:101DF40005991846FFF7E2F90346184607B0F0BD07
:101E0400711D000000B58BB0039002910192009304
:101E1400039B002B04D1524940F24D10FFF7F6FA10
:101E2400039B9B681B68002B01D1802393E0039BD9
:101E34009B681B7B03F00203002B01D108238AE07B
:101E4400019B002B01D1002385E00298FFF768FD78
:101E5400034683F00103DBB2002B07D0039B9B688E
:101E64001B681B78022B01D1102374E0039B9B6831
:101E740004331846FFF718FD034683F00103DBB271
:101E8400002B01D0112366E000238DF814300C9B45
:101E9400B3F1FF3F12D0039BD96805AB0C9A0398AA
:101EA400FFF76EFF0790079B002B07D0039B9B68EF
:101EB40004331846FFF716FD079B4CE0019B09937A
:101EC400029B0893099A08990398FFF7ADFD0690C1
:101ED400099A069BD31A0993089A069B13440893FC
:101EE400099B002B0BD00398FFF741FD9DF814309C
:101EF400DBB283F00103DBB2002BE3D100E000BFCF
:101F0400009B002B04D0019A099BD21A009B1A60F3
:101F14009DF81430DBB283F00103DBB2002B09D04F
:101F24000C9BB3F1FF3F05D0039BDB681B6818468D
:101F3400FFF776F9039B9B6804331846FFF7D2FC3E
:101F4400099B002B06D09DF81430DBB2002B01D086
:101F54000D2300E0002318460BB05DF804FB00BF1E
:101F6400644C000000B58BB0039002910192009381
:101F7400039B002B04D14E494FF4D270FFF746FA6D
:101F8400039B9B681B68002B01D180238CE0039B7F
:101F94009B681B7B03F00103002B01D1082383E022
:101FA400019B002B01D100237EE0039B9B68083337
:101FB4001846FFF779FC034683F00103DBB2002BDC
:101FC40001D0112370E000238DF814300C9BB3F181
:101FD400FF3F12D0039B196905AB0C9A0398FFF7D6
:101FE400CFFE0790079B002B07D0039B9B68083309
:101FF4001846FFF777FC079B56E0019B0993029B69
:102004000893099A08990398FFF7CAFC0690099A5D
:10201400069BD31A0993089A069B13440893099BB9
:10202400002B13D09DF81430DBB2002B0AD0039B95
:102034009B681B681B78002B0AD0039B184601F091
:10204400F7FE05E00398FFF792FCDAE700BF00E033
:1020540000BF009B002B04D0019A099BD21A009B5D
:102064001A609DF81430DBB283F00103DBB2002B5D
:1020740009D00C9BB3F1FF3F05D0039B1B691B6880
:102084001846FFF7CDF8039B9B6808331846FFF703
:1020940029FC099B002B06D09DF81430DBB2002BE1
:1020A40001D00D2300E0002318460BB05DF804FBBB
:1020B400644C000000B585B001900091019B002B99
:1020C40004D1504940F2FB10FFF7A0F9019B9B6833
:1020D4001B68002B01D1802390E0019B9B681B7B34
:1020E40003F00203002B01D1082387E0019B9B68C6
:1020F4001B681B78002B01D100237FE0019B9B68A8
:1021040004331846FFF7D0FB034683F00103DBB228
:10211400002B01D0112371E000238DF80830009BBF
:10212400B3F1FF3F12D0019BD96802AB009A01982A
:10213400FFF726FE0390039B002B07D0019B9B68AF
:1021440004331846FFF7CEFB039B57E0019B9B68C3
:102154001B685B685B681846FFF740FB0346002B6F
:102164000BD0019B184601F071FB034683F0010379
:10217400DBB2002B01D0012300E000238DF80B30EB
:102184009DF80B3003F001038DF80B309DF80B30F4
:10219400002B0BD10198FFF7EAFB9DF80830DBB266
:1021A40083F00103DBB2002BD0D100E000BF9DF827
:1021B4000830DBB283F00103DBB2002B09D0009BB3
:1021C400B3F1FF3F05D0019BDB681B681846FFF79E
:1021D40027F8019B9B6804331846FFF783FB9DF89F
:1021E4000B3083F00103DBB2002B06D09DF80830DE
:1021F400DBB2002B01D00D2300E00023184605B00C
:102204005DF804FB644C000082B001904FF0804202
:10221400019BC2F8043300BF02B0704782B0019042
:102224004FF08042019BC2F8083300BF02B07047F0
:1022340082B003468DF807309DF8073003F18043E0
:1022440001221A6000BF02B0704784B00346ADF8A3
:102254000630BDF8063003F1804300221A60BDF851
:10226400063003F180431B680393039B00BF04B053
:10227400704782B00346ADF80630BDF8063003F16E
:1022840080431B68002B14BF01230023DBB21846D4
:1022940002B0704782B003468DF807309DF80730CE
:1022A4004FF0804203F00303C2F8183500BF02B0B8
:1022B4007047000082B003468DF807300A4A9DF942
:1022C40007305B0952F823209DF8073003F01F0301
:1022D40022FA03F303F00103002B14BF01230023AC
:1022E400DBB2184602B0704700E100E008B50020F8
:1022F400FFF7E0FF034683F00103DBB2002B03D0BA
:102304000721002000F062F900BF08BD08B54FF4B2
:102314008270FFF79AFF0220FFF776FF0820FFF78D
:1023240087FF00BF08BD000000B583B00023019300
:102334000F4B1B78002B02D08523019313E00C4B29
:1023440000229A600A4B00225A60094B00221A614B
:10235400074B0022DA60FFF7C9FF0120FFF79AFF5D
:10236400034B01221A70019B184603B05DF804FB6D
:102374005C01002084B001900091019B1B680393D1
:1023840006E0039A009B9A420DD0039B1B680393BB
:10239400039B002BF5D1019B1A68009B1A60019BDB
:1023A400009A1A6000E000BF04B0704784B0019046
:1023B400019B1B680393039B002B03D0039B1A68A8
:1023C400019B1A60039B184604B0704700B583B0A4
:1023D4000190224B1B78002B03D12149FB20FFF7EE
:1023E40015F81E4B9B78DBB2002B12D0019B002BFF
:1023F40003D0019B5B68012098470020FEF74EFF45
:10240400164BDB680133154AD3600020FEF75AFFF0
:1024140017E00020FEF742FF019B002B03D0019937
:102424001048FFF7A7FF0D4BDB68002B01D1FFF726
:102434006DFF0A4BDB680133084AD3600020FEF7C6
:1024440041FF064BDB68002B04D1054940F217100D
:10245400FEF7DCFF00BF03B05DF804FB5C01002065
:10246400B84C00006C01002000B585B003468DF81F
:1024740007309DF80730002B02D10C4B039301E089
:102484000B4B03930398FFF791FF0290029B002BE1
:1024940006D0029B5B689DF8072010469847F1E739
:1024A40000BF00BF05B05DF804FB00BF640100205D
:1024B4006C01002008B54FF48070FFF7DAFE034684
:1024C400002B0CD04FF48070FFF7BFFE0120FFF704
:1024D400A5FE0E4B01225A700020FFF7C5FF4FF4F2
:1024E4008270FFF7C6FE0346002B0CD04FF48270B7
:1024F400FFF7ABFE0220FFF791FE044B01229A7016
:102504000120FFF7B1FF00BF08BD00BF5C01002040
:1025140082B003468DF807309DF8073003F01F02A0
:1025240005499DF907305B09012000FA02F241F8E0
:10253400232000BF02B0704700E100E082B00346F0
:102544008DF807309DF8073003F01F0206499DF906
:1025540007305B09012000FA02F2603341F82320BE
:1025640000BF02B0704700BF00E100E082B0034644
:1025740000918DF807309DF90730002B0CDA009B91
:10258400DAB20C499DF8073003F00F03043B520103
:10259400D2B20B441A7609E0009BDAB206499DF9DF
:1025A40007305201D2B20B4483F8002300BF02B0BB
:1025B400704700BF00ED00E000E100E008B5FFF760
:1025C40079FF00F0ABFB00BF08BD000000B583B08D
:1025D40003460A468DF8073013468DF806309DF8F9
:1025E4000630072B04D90D494FF49270FEF70EFF05
:1025F4009DF806209DF9073011461846FFF7B6FFEF
:102604009DF907301846FFF799FF9DF907301846E2
:10261400FFF77EFF00BF03B05DF804FB104D000020
:1026240000B583B00346ADF80630BDF80630184651
:1026340000F026F803461B68012B0CBF012300237E
:10264400DBB2184603B05DF804FB00B585B0034661
:10265400ADF80630BDF80630184600F011F8034610
:102664001A4600231360BDF80630184600F008F837
:1026740003461B680393039B00BF05B05DF804FB8E
:1026840082B00346ADF80630BDF8063003F180434E
:1026940003F5C043184602B07047000082B00190B1
:1026A400034BD3F80423019B1340184602B0704730
:1026B4000060004082B00190054A019B03F5A273BB
:1026C40052F823301B0A03F01F03184602B0704768
:1026D4000060004082B00190064A019B03F5A2739A
:1026E40052F823301B0C03F00303DBB2184602B08C
:1026F400704700BF0060004000B583B00190019BAB
:102704001B681F2B04D905494FF4E870FEF77EFEC1
:102714004FF0A043184603B05DF804FB6C4D000075
:1027240000B585B001900B468DF8033001AB184617
:10273400FFF7E2FF0390019A039B02F5E07253F85E
:102744002230019A23F44031039B02F5E07243F8EE
:102754002210019A039B02F5E07253F822109DF8AF
:1027640003301B04019A1943039B02F5E07243F8FA
:10277400221000BF05B05DF804FB00B585B00190E0
:1027840001AB1846FFF7B8FF0390019A039B02F5CB
:10279400E07253F822301B0C03F00303DBB218463B
:1027A40005B05DF804FB82B00190019BD3F81035AD
:1027B400184602B07047000000B587B0039002913C
:1027C40001924FF0A0430493039A029B1344012BFC
:1027D40004D912494FF43A70FEF718FE039B05938F
:1027E40011E0059B9B0018336B4453F8083C1846D2
:1027F400FFF7D9FF0246019B1A60019B0433019342
:10280400059B01330593039A029B1344059A9A424C
:10281400E7D300BF00BF07B05DF804FB6C4D0000B8
:1028240084B001900091009B0393019BDB08029309
:10283400019B03F0070301930122019B02FA03F3B6
:102844000399029A0A4412781340184604B0704758
:1028540084B001900091009B0393019BDB080293D9
:10286400019B03F007030193039A029B13441B7813
:102874005AB20121019B01FA03F35BB2134359B22B
:10288400039A029B1344CAB21A7000BF04B0704783
:1028940082B00190044A019B1344303393F9003011
:1028A400184602B0704700BF7001002082B001904A
:1028B400034A019B52F82330184602B0704700BF08
:1028C4007001002000B595B00023139300230393F7
:1028D4004FF48073ADF84630012310930023129314
:1028E40021E0BDF846301846FFF79AFE0346002B58
:1028F4000ED01098FFF7D2FE0346002B08D0BDF887
:1029040046301846FFF7A1FE139A109B1343139306
:10291400109B5B001093BDF846300433ADF846308D
:10292400129B01331293129B072BDAD94FF4BE701A
:10293400FFF776FE0346002B0DD04FF4BE70FFF771
:1029440084FE139B43F00043139303AB1A46012107
:102954000020FFF731FF139BDBB2002B29D00123AA
:1029640010930023129321E0109A139B1340002B21
:1029740016D01298FFF79EFE0D901298FFF7AAFE4C
:1029840003468DF833301298FFF790FF0B900B9BA2
:10299400002B05D09DF833200B9B11460D989847CA
:1029A400109B5B001093129B01331293129B072B15
:1029B400DAD9139B002B80F2EE8000238DF83B3094
:1029C4000023029300230F930AE00F9B9B005033D4
:1029D4006B444FF0FF3243F84C2C0F9B01330F93A1
:1029E4000F9B002BF1D000238DF83B300023129372
:1029F40078E06B4A129B1344503393F900308DF8FE
:102A04002B309DF82B3023F0C0030993644A129BAA
:102A14001344503393F90030B3F1FF3F5FD001AB5F
:102A240019460998FFF7FCFE0346002B57D09DF882
:102A34002B309B098DF823300998FFF729FF0346B3
:102A44001846FFF733FF0790079B002B03D19DF82F
:102A54002330032B43D19DF82330032B04D102AB45
:102A640019460998FFF7F4FE0998FFF786FE034616
:102A74008DF81B3003AB19460998FFF7D1FE05907A
:102A8400059B002B03D09DF81B30022B06D0059B21
:102A9400002B24D19DF81B30032B20D19DF823302B
:102AA400032B13D19DF81B30022B01D1032300E02B
:102AB40002238DF813309DF8133019460998FFF757
:102AC4002FFE9DF83B3001338DF83B30079B002BE4
:102AD40005D09DF82320079B114609989847129B1F
:102AE40001331293129B032B83D99DF83B30002BA7
:102AF4004CD001238DF83A306B461A460121002050
:102B0400FFF75AFE00230F9314E00F9B9B005033F2
:102B14006B4453F8502C0F9B9B0050336B4453F879
:102B2400443C9A4203D000238DF83A3005E00F9BD1
:102B340001330F930F9B002BE7D09DF83A30002B05
:102B440003D000238DF83B3020E000230F931AE0DC
:102B54000F9B9B0050336B4453F8502C0F9B9B00EE
:102B640050336B4443F8442C0F9B9B0050336B440D
:102B740053F8482C0F9B9B0050336B4443F84C2C68
:102B84000F9B01330F930F9B002BE1D09DF83B303B
:102B9400002B7FF428AF00BF15B05DF804FB00BF25
:102BA4007001002082B00190019B03F1804318461C
:102BB40002B0704782B00190019B03F18043184634
:102BC40002B0704700B583B00346ADF80630BDF8D7
:102BD40006301846FFF7E6FF034600221A6000BFDE
:102BE40003B05DF804FB00B583B00346ADF80630CE
:102BF400BDF806301846FFF7DDFF03461B68002BBF
:102C040014BF01230023DBB2184603B05DF804FBB4
:102C140000B585B00346ADF80630BDF80630184659
:102C2400FFF7E1FF03468DF80F309DF80F30002BBE
:102C340004D0BDF806301846FFF7C4FF9DF80F30E6
:102C4400184605B05DF804FB4FF08043D3F8043315
:102C54001846704782B003468DF807309DF8073058
:102C6400002B01D0012300E000234FF08042C2F882
:102C7400783500BF02B0704782B003468DF8073044
:102C84000A4A9DF907305B0952F823209DF8073062
:102C940003F01F0322FA03F303F00103002B14BF14
:102CA40001230023DBB2184602B0704700E100E0C4
:102CB40008B50020FFF7E0FF034683F00103DBB211
:102CC400002B03D007210020FFF780FC00BF08BDC4
:102CD40000B585B001900F4B1B78002B01D08523E4
:102CE40014E0019B002B01D0019B00E00A4B0393ED
:102CF400039B1B78C3F30003DBB21846FFF7AAFF5C
:102D0400FFF7D6FF034B01221A700023184605B0C3
:102D14005DF804FBC8010020944E000000B583B0A8
:102D2400FFF792FF0190019B03F00403002B12D0E4
:102D34004FF48470FFF76CFF0346002B0BD0214B3C
:102D44001B68002B04D1204940F26710FEF75EFB9C
:102D54001C4B1B689847019B03F02003002B13D0E6
:102D64004FF48A70FFF754FF0346002B0CD0174B27
:102D74001B68002B04D1144940F26F10FEF746FB88
:102D8400124B1B6800209847019B03F04003002B63
:102D940013D04FF48C70FFF73BFF0346002B0CD08D
:102DA4000A4B1B68002B04D107494FF4BB70FEF794
:102DB4002DFB064B1B680120984700BF03B05DF84C
:102DC40004FB00BFCC0100203C4E0000D0010020D9
:102DD40084B001900B46ADF80230BDF80230019A80
:102DE400134400221A60BDF80230019A13441B6890
:102DF4000393039B00BF04B0704782B001900B465D
:102E0400ADF80230BDF80230019A13441B68002B60
:102E140014BF01230023DBB2184602B0704782B00E
:102E240001900091019B009AC3F8042300BF02B0F3
:102E3400704782B001900091019BD3F80423009B5A
:102E44001340002B14BF01230023DBB2184602B049
:102E5400704782B001900091019B009AC3F8082347
:102E640000BF02B0704784B00190019BD3F8803456
:102E74000393019B039AC3F88024039B184604B070
:102E8400704782B00190019B0422C3F8002500BF63
:102E940002B0704784B0039002910192039B019A9F
:102EA400C3F81425039B029AC3F80C2500BF04B091
:102EB400704784B0039002910192039B029AC3F875
:102EC4000825039B019AC3F8102500BF04B070477E
:102ED40082B00190019BD3F81835DBB2184602B0DA
:102EE400704782B001900B468DF803309DF80320A3
:102EF400019BC3F81C2500BF02B0704782B001904B
:102F04000B468DF803309DF80330019A13440122D7
:102F14001A6000BF02B0704782B001900B468DF872
:102F2400033013468DF802309DF803209DF80230DB
:102F34001343DBB21A46019BC3F86C2500BF02B0F1
:102F4400704782B001900091019B009AC3F8242538
:102F540000BF02B0704784B001900B46ADF8023058
:102F6400BDF80230019A134400221A60BDF8023001
:102F7400019A13441B680393039B00BF04B070477A
:102F840082B001900B46ADF80230BDF80230019AD0
:102F940013441B68002B14BF01230023DBB2184623
:102FA40002B0704782B001900091019BD3F80022D7
:102FB400009B1A43019BC3F8002200BF02B0704774
:102FC40082B001900091019BD3F80022009BDB4367
:102FD4001A40019BC3F8002200BF02B0704782B0C0
:102FE40001900091019B009AC3F8042300BF02B032
:102FF400704782B001900091019B009AC3F80823A6
:1030040000BF02B0704784B00190019BD3F88034B4
:103014000393019B039AC3F88024039B184604B0CE
:10302400704782B00190019B0822C3F8002500BFBD
:1030340002B0704784B0039002910192039B029AFC
:10304400C3F80C25039B019AC3F8142500BF04B0F0
:10305400704784B0039002910192039B029AC3F8D3
:103064000825039B019AC3F8102500BF04B07047DC
:1030740082B001900B468DF803309DF80330019A1D
:10308400134401221A6000BF02B0704782B001905D
:103094000B468DF8033013468DF802309DF803205B
:1030A4009DF802301343DBB21A46019BC3F86C252A
:1030B40000BF02B0704782B001900091019B009A5A
:1030C400C3F8242500BF02B0704784B00390029176
:1030D40013468DF80730029A039BC3F844259DF8E4
:1030E4000720039BC3F8482500BF04B0704782B093
:1030F4000190019BD3F84C35184602B0704784B058
:103104000390029113468DF80730029A039BC3F88B
:1031140034259DF80720039BC3F8382500BF04B06D
:10312400704782B00190019BD3F83C35184602B039
:10313400704784B00190019B1B0B8DF80F309DF9F3
:103144000F30184604B0704782B00190019B03F021
:103154006043B3F1005F0CBF01230023DBB21846C8
:1031640002B0704700B583B00190019B1B681F2B10
:1031740004D905494FF4E870FEF748F94FF0A0432D
:10318400184603B05DF804FB984E000000B585B006
:103194000190084611461A4603468DF803300B4643
:1031A4008DF8023013468DF8013001AB1846FFF755
:1031B400D9FF03909DF803209DF802305B001A4369
:1031C4009DF801309B001A439DF818301B0242EA17
:1031D40003019DF81C301B04019A1943039B02F55B
:1031E400E07243F8221000BF05B05DF804FB00B59F
:1031F40085B0039000230193002300930023012250
:1032040001210398FFF7C2FF00BF05B05DF804FB7E
:1032140000B585B003900B468DF80B309DF80B304C
:103224000022019200220092002200210398FFF75D
:10323400ADFF00BF05B05DF804FB00B585B001909B
:1032440001AB1846FFF78EFF0390019B012202FA9F
:1032540003F31946039800F004F800BF05B05DF8C5
:1032640004FB82B001900091019B009AC3F80825E9
:1032740000BF02B07047000000B583B00190009118
:10328400009B1B68B3F1FF3F09D0009B1B681846E5
:10329400FFF7D3FF009B1B681846FFF7A8FF009BAE
:1032A4005B68B3F1FF3F05D0009B5B6800211846C3
:1032B400FFF7AEFF019B1B79464A5B0113441C33A5
:1032C4001B78002B41D0019B1A68009B9B6919460F
:1032D4001046FFF7F0FE019B1868009B597D009B88
:1032E4001B7D1A46FFF7D2FE019B1868009B1968E4
:1032F400009B5B681A46FFF79DFE009B1B7D012B1C
:1033040064D1009B9B68B3F1FF3F05D0009B9B6891
:1033140000211846FFF77CFF009BDB68B3F1FF3FF9
:1033240009D0009BDB681846FFF787FF009BDB682A
:103334001846FFF75CFF019B1868009BD968009B47
:103344009B681A46FFF785FE40E0019B1A68009BC4
:103354009B6919461046FFF7F4FD019B1868009B12
:10336400597D009B1B7D1A46FFF7D6FD019B18680B
:10337400009B1968009B5B681A46FFF78BFD009B56
:103384001B7D012B22D1009B9B68B3F1FF3F05D02D
:10339400009B9B6800211846FFF73AFF009BDB68FF
:1033A400B3F1FF3F09D0009BDB681846FFF745FFE8
:1033B400009BDB681846FFF71AFF019B1868009B07
:1033C400D968009B9B681A46FFF773FD00BF03B0E2
:1033D4005DF804FBD401002000B583B001900B46D6
:1033E4008DF80330019B1B792D4A5B0113441C3378
:1033F4001B78002B2FD0019B1B684FF48871184653
:10340400FFF7A9FD019B1B684FF490711846FFF765
:10341400A2FD019B1B684FF492711846FFF79BFDB8
:10342400019B1B684FF4A2711846FFF794FD019BA2
:103434001B681C491846FFF7D2FD019B1B68184600
:10344400FFF777FE03461A469DF8033019461046E7
:10345400FFF7BCF820E0019B1B684FF48E711846FF
:10346400FFF7B6FC019B1B684FF4A2711846FFF7E7
:10347400AFFC019B1B680C491846FFF7D0FC019B6D
:103484001B681846FFF755FE03461A469DF803309D
:1034940019461046FFF79AF800BF03B05DF804FB25
:1034A400D4010020100302008000020000B583B0A4
:1034B4000190019B1B790B4A5B0113441C331B785D
:1034C400002B05D0019B1B681846FFF7AAFD04E0FA
:1034D400019B1B681846FFF7D4FC00BF03B05DF8DE
:1034E40004FB00BFD401002000B587B00390029113
:1034F4000192029B002B04D122494FF48870FDF7FE
:1035040085FF039B1B795B011F4A1344059300232A
:103514000493059BDB7E002B03D008230493049BB8
:103524002BE0029B5A7F059B1A7702990398FFF7B9
:10353400A3FE059B019A5A60029B1A69059B1A60B7
:10354400059B5B68002B05D0029B1B7F19460398E3
:10355400FFF742FF0398FFF7A9FF059B0022DA75E6
:10356400059B00221A76059B00229A75059B012271
:10357400DA76059B00229A76049B184607B05DF81C
:1035840004FB00BFD04E0000D401002000B585B07C
:10359400019000914FF48E710198FFF719FC009B84
:1035A4009B68009A928A92B213441B788DF80F306C
:1035B400009B9B8A9BB201339AB2009B9A829DF82E
:1035C4000F3019460198FFF78CFC00BF05B05DF879
:1035D40004FB000000B585B00190019B1B795B01E1
:1035E400344A1344029300230393019B1B684FF452
:1035F4008E711846FFF7ECFB019B1B6808211846E7
:10360400FFF77CFC019B1B6802991846FFF7BEFF7D
:10361400029B5B68002B47D11FE000BF019B1B6826
:103624004FF48E711846FFF7E8FB034683F001035D
:10363400DBB2002B05D0029B9B8A9BB2B3F5807F43
:10364400ECD1029B9B8A9BB2B3F5807F05D0019B92
:103654001B6802991846FFF799FF029B9B8A9BB24D
:10366400029A927D9342D8D3029B9B8A9BB2B3F574
:10367400807F02D10F23039313E000BF019B1B68DB
:103684004FF48E711846FFF7B8FB034683F001032D
:10369400DBB2002BF2D1019B1B680C211846FFF70B
:1036A4002DFC029B00229A75039B184605B05DF819
:1036B40004FB00BFD401002000B587B00190019B3A
:1036C4001B795B012A4A1344049300230593019B4D
:1036D4001B684FF490711846FFF73DFC019B1B6873
:1036E4004FF4AC711846FFF736FC019B1868049B35
:1036F4009968049B9B7D1A46FFF7E7FC019B1B68B6
:1037040008211846FFF7B4FC049B5B68002B2AD100
:10371400019B1B684FF490711846FFF731FC034678
:103724008DF80F30019B1B684FF4AC711846FFF7FE
:1037340027FC03468DF80E309DF80F3083F001030B
:10374400DBB2002B06D09DF80E3083F00103DBB210
:10375400002BDDD19DF80E30002B01D00F230593F3
:10376400049B00229A75059B184607B05DF804FB7C
:10377400D401002000B587B00390029113468DF860
:103784000730039B1B795B012E4A13440593059B69
:10379400DB7E012B04D02C494FF4CC70FDF736FEB0
:1037A4009DF80730002B04D1274940F29910FDF70A
:1037B4002DFE029B002B04D123494FF4CD70FDF75D
:1037C40025FE039B1B791F4A5B0113441C331B78A2
:1037D400002B0CD00298FFF7B7FC034683F00103DB
:1037E400DBB2002B03D010230493049B25E0039841
:1037F40000F02CF80346002B03D011230493049B00
:103804001BE0059B9DF807209A75059B029A9A6018
:10381400059B00229A82039B1B790A4A5B0113448D
:103824001C331B78002B04D00398FFF745FF034695
:1038340003E00398FFF7CEFE0346184607B05DF891
:1038440004FB00BFD4010020D04E000082B00190E0
:10385400019B1B79064A5B01134416331B78002B2A
:1038640014BF01230023DBB2184602B0704700BF27
:10387400D401002000B583B00190019B1B684FF474
:1038840092711846FFF7A4FA019B1B684FF48471E8
:103894001846FFF79DFA019B1B6800211846FFF7A5
:1038A4002DFB00BF03B05DF804FB10B582B001909E
:1038B4000091009BDB7D002B08D14FF484710198AB
:1038C400FFF786FA0198FFF703FB16E04FF48471C3
:1038D4000198FFF77DFA009BDB68009A527ED2B212
:1038E4009C180198FFF7F4FA03462370009B5B7E53
:1038F400DBB20133DAB2009B5A7602B010BD00008D
:1039040000B589B00390029111461A460B468DF812
:10391400073013468DF80630039B1B795B014D4A33
:1039240013440793079B9B7E83F00103DBB2002BB8
:1039340009D09DF8063083F00103DBB2002B02D0DE
:103944000398FFF797FF079B5B68002B73D1039BDA
:103954001B684FF4A2711846FFF73AFA039B1B68E1
:103964004FF492711846FFF748FA03468DF81B305E
:10397400039B1B684FF484711846FFF73EFA034615
:103984008DF81A30039B1B684FF4A2711846FFF799
:1039940034FA03468DF819309DF81A3083F0010388
:1039A400DBB2002B0DD09DF8193083F00103DBB29C
:1039B400002B06D09DF81B3083F00103DBB2002BF3
:1039C400CCD19DF81B30002B10D19DF81930002B61
:1039D4000CD1039B1B6807991846FFF766FF079BEA
:1039E400DA7D079B5B7EDBB29A42B7D8079B002245
:1039F400DA759DF81B30002B03D003230593059B38
:103A040023E09DF81930002B03D00F230593059B69
:103A14001BE0079B9B7E002B06D0039B1B680021A9
:103A24001846FFF76BFA0DE0039B1B680421184648
:103A3400FFF764FA06E0039B1B684FF40171184614
:103A4400FFF7EDF900230593059B184609B05DF8CF
:103A540004FB00BFD401002000B587B0039002919D
:103A640011461A460B468DF8073013468DF806307A
:103A740000230593039B1B684FF488711846FFF7D6
:103A84006AFA039B1B684FF4A2711846FFF763FAA6
:103A9400039B1B689DF8072002991846FFF72FFB2C
:103AA4009DF8063083F00103DBB2002B06D0039BA4
:103AB4001B6800211846FFF7DBFA05E0039B1B682F
:103AC40020211846FFF76EFA039B1B792D4A5B01F0
:103AD400134404331B68002B47D1039B1B684FF42A
:103AE40088711846FFF74CFA03468DF81330039B90
:103AF4001B684FF4A2711846FFF742FA03468DF88B
:103B04001230039B1B684FF492711846FFF738FA82
:103B140003468DF811309DF8133083F00103DBB2B6
:103B2400002B0DD09DF8123083F00103DBB2002B83
:103B340006D09DF8113083F00103DBB2002BCCD109
:103B4400039B1B790F4A5B011344173300221A703D
:103B54009DF81130002B01D0032305939DF81230FA
:103B6400002B09D00F23059306E0039B1B684FF439
:103B740004711846FFF733FA059B184607B05DF841
:103B840004FB00BFD401002000B589B0039002916A
:103B940013468DF80730039B1B795B015A4A134483
:103BA4000693039B1B79584A5B0113441B331B7810
:103BB400012B04D055494FF41670FDF727FC9DF8EE
:103BC4000730002B04D1514940F25920FDF71EFC67
:103BD400039B1B794C4A5B0113441C331B78002B59
:103BE4000CD00298FFF7B0FA034683F00103DBB26E
:103BF400002B03D010230593059B81E000238DF84F
:103C04001F30069B5B68002B17D0039B1B793E4A31
:103C14005B0113441C331B78002B07D0039B1B68E8
:103C24004FF404711846FFF7E4F906E0039B1B68A0
:103C34004FF401711846FFF70CF9069BDB7D002B4E
:103C440026D0069B1B7E002B1FD0069B5B68002B97
:103C540017D0039B1B792C4A5B0113441C331B783C
:103C6400002B07D0039B1B684FF404711846FFF721
:103C7400B6F906E0039B1B684FF401711846FFF781
:103C8400CEF811230593059B3AE001238DF81F30EC
:103C94009DF81F3083F00103DBB2002B0DD0069B8F
:103CA4009DF80720DA75069B029ADA60069B0022CB
:103CB4005A76069B00221A7606E0069B029A1A613F
:103CC400069B9DF807201A76039B1B790E4A5B011D
:103CD40013441C331B78002B09D09DF81F309DF82A
:103CE400072002990398FFF7B7FE034608E09DF802
:103CF4001F309DF8072002990398FFF701FE034641
:103D0400184609B05DF804FBD4010020D04E000031
:103D140000B583B00190019B1B790E4A5B011344EB
:103D24001C331B78002B08D0019B1B684FF488714F
:103D34001846FFF725F9034607E0019B1B684FF47B
:103D440084711846FFF759F80346184603B05DF826
:103D540004FB00BFD401002000B583B00190019B97
:103D64001B79144A5B0113441C331B78002B05D0C8
:103D7400114940F2B720FDF749FB16E0019B1B797E
:103D84000C4A5B0113441A331B7883F00103DBB242
:103D9400002B0AD00198FFF76DFD019B1B79054AA2
:103DA4005B0113441A3301221A7000BF03B05DF89B
:103DB40004FB00BFD4010020D04E000000B589B040
:103DC40003900B4601928DF80B3001238DF81030CF
:103DD4009DF80B308DF81830019B0593039B5B68AD
:103DE400039A116804AA1046984700BF09B05DF809
:103DF40004FB00B587B001900B468DF80330002317
:103E04008DF808309DF803308DF81030019B9B68C5
:103E14000393019B00229A75019B5B68019A1168C8
:103E240002AA1046984700BF07B05DF804FB0000E3
:103E340000B583B00190019B1B790F4A5B011344C9
:103E44001C331B78002B06D0019B1B6804211846E9
:103E5400FFF70EF90CE0019B1B684FF40171184643
:103E6400FEF7F7FF019B1B6804211846FFF746F88D
:103E740000BF03B05DF804FBD401002000B589B095
:103E8400019000914FF400710198FEF7D2FF0346B0
:103E9400002B39D04FF492710198FEF7AEFF034620
:103EA400002B31D04FF492710198FEF791FF4FF43B
:103EB40001710198FEF7CDFF009B9B7E83F0010307
:103EC400DBB2002B03D004210198FFF717F802237B
:103ED4008DF808300198FEF7C6FF03460593009B52
:103EE400DB7D8DF81030009BDB680393009B002280
:103EF400DA75009B00221A76009B5B68009A1168B1
:103F040002AA1046984756E004210198FEF791FF53
:103F14000346002B4FD04FF484710198FEF76DFFD8
:103F24000346002B47D000990198FFF7BEFC009B85
:103F3400DA7D009B5B7EDBB29A423CD1009B1B7E08
:103F4400002B1CD0009BDB680793009B5B7E8DF8E5
:103F54001B30009B1A7E009BDA75009B1A69009B3C
:103F6400DA60009B00221A76009B00225A769DF8A4
:103F74001B30079A19460098FFF720FF1BE0009BAF
:103F84009B7E83F00103DBB2002B03D00421019854
:103F9400FEF7B4FF4FF401710198FEF75AFF009B3E
:103FA4000022DA75009B5B7ED9B2009BDB681A465F
:103FB4000098FFF703FF4FF48E710198FEF71DFF81
:103FC4000346002B1AD0009B9B8A9BB2009A927DD9
:103FD400934204D200990198FFF7D8FA0EE04FF407
:103FE4008E710198FEF7F4FE009B9B7D002B05D09B
:103FF400009B9B7D19460098FFF7FBFE4FF4A271CE
:104004000198FEF7FAFE0346002B1CD04FF4A27170
:104014000198FEF7DDFE009B9B7E002B03D0002160
:104024000198FEF76BFF009BDB7D002B0BD0009B00
:104034000022DA75009B5B7ED9B2009BDB681A46CE
:104044000098FFF7BBFE00BF09B05DF804FB00B5A4
:1040540089B0019000914FF492710198FEF790FF9E
:104064000346002B24D04FF492710198FEF773FF9E
:1040740002238DF808300198FEF7C5FF0346059327
:104084000198FFF74EF80346DBB28DF81030009B21
:10409400DB680393009B0022DA75009B00221A76EA
:1040A400009B5B68009A116802AA1046984741E099
:1040B4004FF488710198FEF763FF0346002B39D053
:1040C4004FF488710198FEF746FF0198FFF729F82D
:1040D40003468DF81F30009BDB7D9DF81F209A421C
:1040E40028D1009B1B7E002B19D0009BDB68069314
:1040F40020210198FEF764FF009B1A7E009BDA756D
:10410400009B1A69009BDA60009B00221A769DF8D6
:104114001F30069A19460098FFF750FE0AE0009BEC
:104124000022DA75009BDA689DF81F301946009862
:10413400FFF744FE4FF4A2710198FEF721FF0346F6
:10414400002B16D04FF4A2710198FEF704FF009BD8
:10415400DB7D002B0DD0009B0022DA750198FEF761
:10416400E0FF0346D9B2009BDB681A460098FFF7CC
:1041740025FE4FF490710198FEF702FF0346002BD1
:1041840011D04FF490710198FEF7E5FE009B9B7DE2
:10419400002B08D00198FEF7AAFF0346DBB21946AC
:1041A4000098FFF726FE00BF09B05DF804FB00008D
:1041B40008B5074B1B7F002B04D005490548FFF7C2
:1041C40046FF03E002490348FFF758FE00BF08BD5D
:1041D400D40100200020004020BF00BF40BF00BF2A
:1041E40020BF00BF00BF704700B58BB0FEF79CF83E
:1041F4000990099B0893089B002B04D0354A6A2137
:104204000898FCF799F90020FEF762FD0990099BD4
:104214000793079B002B04D02E4A6C210798FCF7C8
:104224008BF90020FEF7D2F8FCF764FF0990099B94
:104234000693069B002B04D0264A70210698FCF7AF
:104244007BF9FCF745F9FCF75DF9234A2349244837
:10425400FDF7D0FC0990099B0593059B002B04D026
:104264001C4A76210598FCF767F91E4800F0C8FB44
:1042740002464FF0FF33009300231A491848FDF714
:10428400C1FD0990099B0493049B002B04D0114A9F
:104294007F210498FCF750F90DF10F014FF47A7364
:1042A4000093002301220E48FDF75CFE0990099B50
:1042B400002B0DD10DF10F010023009300230122E7
:1042C4000748FDF79FFD00210548FDF7F3FEE3E7EE
:1042D40000BFE1E7B44F0000844F0000284F000006
:1042E400A04F000000000020BFF34F8F00BF074B1A
:1042F400DB6803F4E0620549054B1343CB60BFF36D
:104304004F8F00BF00BF00BFFCE700BF00ED00E01F
:104314000400FA05024B034A1A6000BF704700BF4D
:10432400140000200090D00308B500F05DF90346A6
:10433400002B06D09B4B1B681B0A9B4A03F01F03F0
:10434400136000F07DF90346002B02D0974B984A86
:104354001A6000F091F90346002B06D0954B1B68B8
:104364005B0B954A03F00703136000F0B1F90346B1
:10437400002B05D0914BDB68904A23F08073D36007
:1043840000F0C2F90346002B0ED04FF08043002208
:10439400C3F80C214FF080430022C3F810214FF0E2
:1043A40080430022C3F8382500F0DAF90346002BD5
:1043B40002D0834B03221A6000F0EEF90346002B6F
:1043C4000BD0804B05221A607F4B01221A607F4B71
:1043D40000221A607E4B3F221A6000F0F9F903466E
:1043E400002B76D04FF080537A4AD3F80434C2F8C5
:1043F40020354FF08053774AD3F80834C2F8243577
:104404004FF08053734AD3F80C34C2F828354FF078
:104414008053704AD3F81034C2F82C354FF08053CF
:104424006C4AD3F81434C2F830354FF08053694ADB
:10443400D3F81834C2F834354FF08053654AD3F8B2
:104444001C34C2F840354FF08053624AD3F820340C
:10445400C2F844354FF080535E4AD3F82434C2F88E
:1044640048354FF080535B4AD3F82834C2F84C35B2
:104474004FF08053574AD3F82C34C2F850354FF0DC
:104484008053544AD3F83034C2F854354FF0805333
:10449400504AD3F83434C2F860354FF080534D4A53
:1044A400D3F83834C2F864354FF08053494AD3F80E
:1044B4003C34C2F868354FF08053464AD3F8403450
:1044C400C2F86C354FF08053424AD3F84434C2F8F2
:1044D400703500F099F90346002B05D03E4B1B685C
:1044E4003E4A03F04F03136000F0BAF90346002B71
:1044F4000DD04FF08043D3F8003403F00103002BB8
:1045040005D04FF080436FF00102C3F80024344B10
:10451400D3F88830324A43F47003C2F88830BFF3CA
:104524004F8F00BFBFF36F8F00BF4FF01023D3F83E
:104534000032002B05DB4FF01023D3F80432002B9C
:104544002BDA284B0122C3F8042500BF254BD3F8EE
:104554000034002BFAD04FF010231522C3F80022A8
:1045640000BF204BD3F80034002BFAD04FF01023B7
:104574001522C3F8042200BF1A4BD3F80034002BD1
:10458400FAD0184B0022C3F8042500BF154BD3F80A
:104594000034002BFAD0FFF7A7FEFFF7BBFE00BFE5
:1045A40008BD00BF240300104035014074C007401B
:1045B4000DF0ADBA440200103C050040F0ED00E0FF
:1045C400A005004010560040885600401856004090
:1045D4001456004000C0004058020010E40E004091
:1045E40000ED00E000E00140124B1B68DBB2062B3B
:1045F4001DD1114B1B6803F00F03002B17D10F4B78
:104604001B6803F0F003302B01D1012310E00B4BA6
:104614001B6803F0F003402B01D1012308E0074B92
:104624001B6803F0F003502B01D1012300E00023A9
:1046340018467047E00F00F0E40F00F0E80F00F0B8
:104644000A4B1B68DBB2062B0DD1094B1B6803F028
:104654000F03002B07D1074B1B6803F0F003302B2B
:1046640001D1012300E0002318467047E00F00F059
:10467400E40F00F0E80F00F0124B1B68DBB2062BCE
:104684001DD1114B1B6803F00F03002B17D10F4BE7
:104694001B6803F0F003302B01D1012310E00B4B16
:1046A4001B6803F0F003402B01D1012308E0074B02
:1046B4001B6803F0F003502B01D1012300E0002319
:1046C40018467047E00F00F0E40F00F0E80F00F028
:1046D4000A4B1B68DBB2062B0DD1094B1B6803F098
:1046E4000F03002B07D1074B1B6803F0F003302B9B
:1046F40001D1012300E0002318467047E00F00F0C9
:10470400E40F00F0E80F00F0124B1B68DBB2062B3D
:104714001DD1114B1B6803F00F03002B17D10F4B56
:104724001B6803F0F003302B01D1012310E00B4B85
:104734001B6803F0F003402B01D1012308E0074B71
:104744001B6803F0F003502B01D1012300E0002388
:1047540018467047E00F00F0E40F00F0E80F00F097
:104764000A4B1B68DBB2062B0DD1094B1B6803F007
:104774000F03002B07D1074B1B6803F0F003302B0A
:1047840001D1012300E0002318467047E00F00F038
:10479400E40F00F0E80F00F00A4B1B68DBB2062BB5
:1047A4000DD1094B1B6803F00F03002B07D1074BF6
:1047B4001B6803F0F003302B01D1012300E0002338
:1047C40018467047E00F00F0E40F00F0E80F00F027
:1047D4000A4B1B68DBB2062B0DD1094B1B6803F097
:1047E4000F03002B07D1074B1B6803F0F003502B7A
:1047F40001D1012300E0002318467047E00F00F0C8
:10480400E40F00F0E80F00F0124B1B68DBB2062B3C
:104814001DD1114B1B6803F00F03002B17D10F4B55
:104824001B6803F0F003302B01D1012310E00B4B84
:104834001B6803F0F003402B01D1012308E0074B70
:104844001B6803F0F003502B01D1012300E0002387
:1048540018467047E00F00F0E40F00F0E80F00F096
:10486400124B1B68DBB2062B1DD1114B1B6803F0E6
:104874000F03002B17D10F4B1B6803F0F003302BF1
:1048840001D1012310E00B4B1B6803F0F003402B14
:1048940001D1012308E0074B1B6803F0F003502B00
:1048A40001D1012300E0002318467047E00F00F017
:1048B400E40F00F0E80F00F0002B35D129B9B0FB6C
:1048C400F2FC0CFB120260467047914215D22DE9AE
:1048D400F041B2FA82F39A409940D3F1200C30FAB5
:1048E4000CFC51EA0C01984000F04EF8280036FA0E
:1048F40003F200210023BDE8F081F0B5B1FBF2FC26
:104904000CFB1211B2FA82F39A409940D3F12006BB
:1049140030FA06F63143984000F036F86146280034
:104924003200DA400023F0BDF3B5B3FA83FC490842
:104934005FEA300013FA0CF3DCF1200432FA04F4D9
:1049440023430CB41A0000F01FF80CBC33FA0CF328
:10495400DCF11F0C35FA0CF518BF013D03BCA5FBB7
:10496400026705FB0377801BB941904271EB030C8E
:1049740005D3821A71EB0303681C0021F0BD020009
:104984000B0028000021F0BD940D4FF6C2752D02D6
:10499400B5FBF4F4D60A013604FB04F5A5FB065670
:1049A400F64306EB0416550832BF00277708013595
:1049B40005FB1677A6FB07477F0807EBC6371400ED
:1049C4001500E7FB02457F1B4D1C0400E7FB014576
:1049D40005FB1206A64284BF013DB618964224BFC9
:1049E4000135B61A704700BF082938BF70474160C7
:1049F40040F2AC21C2F2000108600021016070475E
:104A04000178002904BF0020704700214FF00132D3
:104A14004358C2FA53F30431002BF9D093FAA3F0AC
:104A2400B0FA80F001EBD000043870475AB38446E2
:104A340090EA01039B071FD1830707D011F8013BBC
:104A440000F8013B013AF7D11CE08446203A09D32F
:104A54002DE9F007B1E8F807A0E8F807203AF9D201
:104A6400BDE8F0071C3205D451F8043B40F8043B80
:104A7400043AF9D2043205D011F8013B00F8013BA5
:104A8400013AF9D16046704700220B0011001A0068
:104A940084465AB3830704D000F8011B013AF9D1C4
:104AA40024E0C9B241EA012141EA0141202A11D39B
:104AB400203A2DE9F0030B460C460D460E460F46F0
:104AC40088468946A0E8FA03203AFBD2BDE8F00301
:104AD40020320BD0042A05D340F8041B043A05D035
:104AE400042AF9D200F8011B013AFBD16046704751
:104AF4002E2E2F2E2E2F2E2E2F2E2E2F2E2E2F2ECD
:104B04002E2F636F6D706F6E656E74732F64726990
:104B1400766572735F6E72662F68616C2F6E726653
:104B24005F6770696F2E68002F686F6D652F736AF9
:104B34006F2F64776D313030312D6578616D706C15
:104B440065732F6E5246355F53444B5F31342E32BA
:104B54002E302F636F6D706F6E656E74732F626F7E
:104B6400617264732F626F617264732E630000005C
:104B74001E1F160E0D0E0F102F686F6D652F736AB2
:104B84006F2F64776D313030312D6578616D706CC5
:104B940065732F6E5246355F53444B5F31342E326A
:104BA4002E302F636F6D706F6E656E74732F6C692A
:104BB400627261726965732F7574696C2F617070AC
:104BC4005F7574696C5F706C6174666F726D2E636F
:104BD400000000002F686F6D652F736A6F2F647774
:104BE4006D313030312D6578616D706C65732F6E69
:104BF4005246355F53444B5F31342E322E302F638F
:104C04006F6D706F6E656E74732F6C696272617212
:104C14006965732F71756575652F6E72665F717541
:104C24006575652E630000002E2E2F2E2E2F2E2E3E
:104C34002F2E2E2F2E2E2F2E2E2F636F6D706F6E14
:104C4400656E74732F6C69627261726965732F6D1E
:104C5400757465782F6E72665F6D74782E680000C7
:104C64002F686F6D652F736A6F2F64776D313030E5
:104C7400312D6578616D706C65732F6E5246355FAA
:104C840053444B5F31342E322E302F636F6D706F6F
:104C94006E656E74732F6C69627261726965732FCD
:104CA40073657269616C2F6E72665F736572696198
:104CB4006C2E63002F686F6D652F736A6F2F647796
:104CC4006D313030312D6578616D706C65732F6E88
:104CD4005246355F53444B5F31342E322E302F63AE
:104CE4006F6D706F6E656E74732F64726976657222
:104CF400735F6E72662F636C6F636B2F6E72665F89
:104D04006472765F636C6F636B2E63002F686F6DE4
:104D1400652F736A6F2F64776D313030312D65786C
:104D2400616D706C65732F6E5246355F53444B5FF3
:104D340031342E322E302F636F6D706F6E656E744A
:104D4400732F647269766572735F6E72662F636F18
:104D54006D6D6F6E2F6E72665F6472765F636F6DDA
:104D64006D6F6E2E630000002E2E2F2E2E2F2E2EF2
:104D74002F2E2E2F2E2E2F2E2E2F636F6D706F6ED3
:104D8400656E74732F647269766572735F6E726692
:104D94002F68616C2F6E72665F6770696F2E680092
:104DA4002F686F6D652F736A6F2F64776D313030A4
:104DB400312D6578616D706C65732F6E5246355F69
:104DC40053444B5F31342E322E302F636F6D706F2E
:104DD4006E656E74732F647269766572735F6E723A
:104DE400662F6770696F74652F6E72665F64727682
:104DF4005F6770696F74652E630000002E2E2F2E7E
:104E04002E2F2E2E2F2E2E2F2E2E2F2E2E2F636F43
:104E14006D706F6E656E74732F64726976657273EC
:104E24005F6E72662F68616C2F6E72665F706F774B
:104E340065722E68000000002F686F6D652F736A1D
:104E44006F2F64776D313030312D6578616D706C02
:104E540065732F6E5246355F53444B5F31342E32A7
:104E64002E302F636F6D706F6E656E74732F647266
:104E740069766572735F6E72662F706F7765722FD5
:104E84006E72665F6472765F706F7765722E630010
:104E9400000000002E2E2F2E2E2F2E2E2F2E2E2FE2
:104EA4002E2E2F2E2E2F636F6D706F6E656E7473A2
:104EB4002F647269766572735F6E72662F68616CB7
:104EC4002F6E72665F6770696F2E68002F686F6D52
:104ED400652F736A6F2F64776D313030312D6578AB
:104EE400616D706C65732F6E5246355F53444B5F32
:104EF40031342E322E302F636F6D706F6E656E7489
:104F0400732F647269766572735F6E72662F756152
:104F140072742F6E72665F6472765F756172742E3E
:104F240063000000050000000B0000000700000003
:104F34000600000000000000010000000000D6018F
:104F44000700000018020020F401002020000000E7
:104F5400010000000100000048020020240200209B
:104F6400200000000100000001000000484F000084
:104F74005C4F000054020020580200200101000090
:104F840001000000704F0000784F00000000000096
:104F9400DD4100005C0200207C0200200020004073
:104FA400000000009C0200209C4F0000984F00006D
:104FB4002F686F6D652F736A6F2F64776D31303092
:104FC400312D6578616D706C65732F6E5246355F57
:104FD40053444B5F31342E322E302F6578616D701F
:104FE4006C65732F7065726970686572616C2F737C
:0D4FF400657269616C2F6D61696E2E63003E
:1050040048656C6C6F206E72665F73657269616C63
:08501400210A0D000090D003F9
:040000030000024DAA
:00000001FF
