:020000022000DC
:10300000000001203D310200DD300200DF3002000F
:10301000E1300200E3300200E53002000000000071
:10302000000000000000000000000000E730020087
:10303000E930020000000000EB300200ED30020039
:103040000D870200F3300200F58B0200F73002001A
:10305000F9300200FB300200C9890200FF30020093
:103060000131020003310200053102000731020084
:10307000093102000B3102000D3102000F31020054
:103080001131020071910200153102001731020066
:103090000D9202001B310200E5EC02001F3102001C
:1030A00021310200233102002531020027310200C4
:1030B000293102002B310200EF300200EF30020014
:1030C0002D3102002F310200313102003331020074
:0C30D000353102003731020039310200B6
:1030DC00FEE7FEE7FEE7FEE7FEE7FEE7FEE7FEE7BC
:1030EC00FEE7FEE7FEE7FEE7FEE7FEE7FEE7FEE7AC
:1030FC00FEE7FEE7FEE7FEE7FEE7FEE7FEE7FEE79C
:10310C00FEE7FEE7FEE7FEE7FEE7FEE7FEE7FEE78B
:10311C00FEE7FEE7FEE7FEE7FEE7FEE7FEE7FEE77B
:10312C00FEE7FEE7FEE7FEE7FEE7FEE7FEE700BF91
:10313C000F484FF00701884385460E4880470E48DC
:10314C00016841F470010160BFF34F8FBFF36F8FC3
:10315C0000F01AB809480A490A4A884207D0521A9C
:10316C0005D0037801300B700131013AF9D1704769
:10317C00000001203D41020088ED00E0ECF7020068
:10318C00582E0020482F00203A493B480A1A02D0FA
:10319C00072291438D46394939480A1A06D007222D
:1031AC00914381F30988022282F314883548364909
:1031BC00364A00F041F836483649374A00F03CF8B8
:1031CC0036483749374A00F037F837483749384AD4
:1031DC0000F032F837483849384A00F02DF83848B2
:1031EC003849394A00F028F838483949394A00F04A
:1031FC0023F839483949002200F036F83848394963
:10320C00002200F031F838483849091A0CF066F8F9
:10321C00374A904725482649884205D00268043031
:10322C0003B4904703BCF7E700208646EC46002029
:10323C000021304A9047FEE7884214D0521A12D02F
:10324C0003460B4313430324234206D10368043083
:10325C000B600431043AF9D17047037801300B70DC
:10326C000131013AF9D17047884202D00270013025
:10327C00FAE770470000012000F800200000012050
:10328C000000012018190300482F0020D82F00201F
:10329C00043302000433020096F6020018190300EE
:1032AC00482F0020482F0020DCF80200DCF8020038
:1032BC00DCF80200DCF80200DCF80200DCF80200AA
:1032CC00DCF80200DCF8020015190300A819030051
:1032DC00D82F0020D82F0020D82F0020885700206E
:1032EC0088570020885700208857002088590020D4
:0832FC0061310200DD3902001E
:1033040076DF70477ADF70477CDF70478FDF704766
:10331400A8DF704766DF704710B50388212B86B09D
:10332400044665D007D8102B21D0112B4AD0012B8D
:103334007BD006B010BD512B7DD0562B6DD03B2BCE
:10334400F7D1484B5A68032A06D91888464900041D
:1033540040F004000BF012F9A0881321FFF7D0FF0E
:103364000028E6D006B0BDE8104005F013BE3D4B82
:103374005A68022A06D918883C49000440F0030020
:103384000BF0FCF8072000F089FD08B105F002FEFF
:10339400374AA3881380ADF8083000230093012333
:1033A40034481A4602A907F06BFD0446314807F079
:1033B400C7FD08B105F0EEFD002CBAD0204605F09B
:1033C400E9FDB6E7274B5A68022A07D91888227AFA
:1033D4002949000440F003000BF0D4F8244B25489D
:1033E4004FF6FF721A8006B0BDE8104007F0BEBD6C
:1033F4001C4B5A68032A06D918882049000440F057
:1034040004000BF0BBF80023A088ADF8083002A933
:10341400FFF77CFF00288CD0D1E7124B5A68032AAF
:103424009AD918881649000492E7114B002118888C
:10343400FFF770FF94E78379827B002B3FF479AF29
:10344400043A022A3FF675AF022B18BF01238DF808
:10345400083002A94FF4C1738088ADF80C30FFF72F
:1034640057FFD7E7802E002014F90200DCF8020091
:10347400502F002098100300E7F8020000F9020022
:1034840029F9020010B50446032000F003FB20468E
:10349400024ABDE81040082107F074BD3EF902005D
:1034A40010B50446032000F0E9FA2046024ABDE8BC
:1034B4001040082107F066BD50F9020010B512490A
:1034C40012480AF064F9124B5A68022AC4B207D9A6
:1034D400188810490004224640F003000BF052F80B
:1034E4000D48214604F076FB132807D80B4BC34044
:1034F400DB0707D4BDE8104005F04CBD43F201439F
:103504009842F7D110BD00BFE02F0020D82F002033
:10351400802E002061F90200DC3700200101080040
:103524000378052B0AD1064B5A68032A06D9188852
:103534000449000440F004000BF020B8704700BFB9
:10354400802E00207AF90200072808B515D00A2831
:1035540002D0042805D008BDBDE80840002009F0C9
:10356400FFBD0B4B13211888FFF7CAFE30F0080388
:10357400F1D0BDE8084005F00DBD054B1A884FF6A3
:10358400FF739A42E7D1034801F02AFBEEE700BF3C
:10359400502F0020F036002008B5A0B1032816D122
:1035A4000B4B5A68022A06D918880A49000440F0CD
:1035B40003000AF0E3FF022000F070FC38B1BDE81C
:1035C400084005F0E7BCBDE8084009F0C9BD08BDE6
:1035D400802E002088F9020010B50446002000F077
:1035E4005DFC08B105F0D6FC24B900F045FD08B136
:1035F40005F0D0FC012010BD012907B5034604D015
:10360400816891F84111890707D5002211461846AF
:1036140003B05DF804EB08F089BC53680193054BD3
:1036240000931368044A022107F0ACFC03B05DF870
:1036340004FB00BFA4F902009AF9020008B505488A
:10364400032101F0ADF918B1BDE8084005F0A2BCB2
:1036540008BD00BFF036002030B5037885B00446BD
:103664000F2B2AD8DFE803F0082916292B29335A0F
:103674002956295A415A2951294B5A68022A1CD9D8
:1036840018882849000440F0030005B0BDE8304024
:103694000AF074BF224B5A68022A0ED91D8840884A
:1036A40001F0FEFB2D04237A009345F00305024646
:1036B40063881D4928460AF078FF05B030BD002311
:1036C40040888DF80C3003A903F0C8F9F5E706F03B
:1036D40093FE0E2804D844F20113C340DB07ECD454
:1036E40005B0BDE8304005F055BC0D4B5A68032ABF
:1036F40006D918880D49000440F004000AF03EFF82
:1037040005B0BDE83040FFF799BF05B0BDE83040D3
:1037140003F0A8B900690028CFD0E1E78068FAE790
:10372400802E0020B9F90200E2F9020022FA020018
:10373400094B5A68032A10B40AD91C8842880388A2
:103744000649240444F004005DF8044B0AF023BF46
:103754005DF8044B704700BF802E002040FA020041
:1037640008B588B10B4B5A68022A06D918880A4949
:10377400000440F003000AF001FF03F085F938B1BA
:10378400BDE8084005F006BCBDE80840FFF756BF99
:1037940008BD00BF802E002079FA020010B5002277
:1037A400041E4FF48031094818BF012405F0D2FEED
:1037B40008B105F0EFFB2046FFF7D2FF0AF076FDD3
:1037C40008B909F0A3FC0AF03DF9F7E7D036002068
:1037D40000B5AFB00BF0FEF908B105F0DBFB002338
:1037E40006A9012006930BF0ABFA08B105F0D2FB51
:1037F40006A80BF069FB08B105F0CCFB112347497F
:103804008DF804300A2201A8FFF77EFD08B105F007
:10381400C1FB0023ADF81C30414B069306A84FF4BE
:10382400C873ADF81E30FFF76DFD08B105F0B2FBAB
:103834003C493D4802F035F908B105F0ABFBA02244
:10384400002106A80BF07AFE02238DF81830ADF89B
:103854002830364B0B9340F201620123ADF81A2055
:103864008DF894304FF49672B423CDE92823304870
:10387400304B2C9306A900F0F4FF08B105F08AFB45
:103884002B48012100F0EAFF1422002101A80BF0CB
:1038940055FE012211238DF8082027488DF8143095
:1038A40041F2641201A9ADF810208DF8123004F031
:1038B400F0F808B105F06EFB4022002106A80BF0D9
:1038C4003DFE06A81D4901F06FFB112306A8ADF8C3
:1038D400543004F001FA08B105F05CFB03F05EF823
:1038E40008B105F057FB164B069306A803238DF881
:1038F4001C3003F0A9F808B105F04CFB114803F0A3
:103904008BF808B105F046FB0F4806F09BFB08B1A5
:1039140005F040FB2FB05DF804FB00BF86FA0200FF
:103924004001080235370200C8370020482F002024
:10393400F03600209D350200DC37002091FA0200A9
:10394400310710035D3602002535020007B51F4814
:103954000AF0B0FA08B105F01DFB1D4BD3F8F030A6
:10396400DA070AD50323009301231A481A460021D3
:1039740007F086FA08B105F00DFB04F017FE08B154
:1039840005F008FB002004F033FE05F0A1FD08B1AA
:1039940005F000FB04F0A8FD08B105F0FBFA09F0FE
:1039A4008FFB08B105F0F6FA094BD3F8F030DB07CA
:1039B40008D5084807F0C4FA20B103B05DF804EB59
:1039C40005F0E8BA03B05DF804FB00BF09960200F5
:1039D40000ED00E0DC10030037B5FFF7B7FF1A492C
:1039E400032000F067FA08B105F0D4FA0DF10701DD
:1039F400002000F051FB08B105F0CCFA9DF8074017
:103A0400A31E5C425C41FFF7E3FE104910485122BB
:103A140001256423C1E900238D600D7309F090FE34
:103A24000C4A0D48294605F083FD08B105F0B2FAA9
:103A340008F004FE08B105F0ADFA0848214609F083
:103A4400C9FE002003B030BD4D350200E02F002038
:103A5400D82F0020C13402003C110300A13702001A
:103A6400054A4FF0A043125CD3F8043523FA02F060
:103A7400C04300F00100704744110300044B1A5C7A
:103A8400012393404FF0A042C2F80C35704700BFA9
:103A940044110300044B1A5C012393404FF0A042ED
:103AA400C2F80835704700BF4411030008B5002070
:103AB400FFF7F0FF0120FFF7EDFF0220FFF7EAFF19
:103AC400BDE808400320FFF7E5BF08B50020FFF775
:103AD400D5FF0120FFF7D2FF0220FFF7CFFFBDE89B
:103AE40008400320FFF7CABF074A4FF0A041105C0B
:103AF400D1F804350122824022EA03001340C1F8C0
:103B04000805C1F80C357047441103004FF0A04379
:103B14000322C3F87827C3F87C27C3F85827C3F8CF
:103B24003827FFF7C3BF0000054A4FF0A043125CDB
:103B3400D3F8103523FA02F0C04300F001007047B7
:103B4400401103000D2809D00E2809D00F2809D0F0
:103B5400102814BF4FF0FF30032070470020704737
:103B64000120704702207047014B185C704700BF6A
:103B7400401103000220FFF7B7BF00002DE9F04712
:103B840080460D46FFF7DEFF0328044604D8012DC6
:103B940004D0022D31D01DB3BDE8F0871A4E00EBDE
:103BA4004003F218F55C5378470053B1DFF868908E
:103BB40016484A464FF4004105F0CCFC08B989F890
:103BC400008027443E44124BB2781A55002DE3D0AE
:103BD400104B1B68002BDFD02846BDE8F047184780
:103BE4000A4805F0FFFC084B04EB440213449D789B
:103BF400074B1B5DAB42CFD1E8E7034B00EB40041E
:103C040023445D78E2E700BF1C380020FC37002025
:103C1400F437002028380020F837002000780221EB
:103C2400FFF7ACBF08B5094B1B7853B10020FFF771
:103C340031FF0120FFF72EFFBDE808400320FFF706
:103C440029BFBDE80840FFF731BF00BF6C38002032
:103C5400F8B5854D2B7804461BB100232B70FFF774
:103C6400E1FF172C1ED8DFE814F018002000200014
:103C74004B006B007C008D0097009D00A2009D000E
:103C8400A200AA00AF00AF00AF00AF00AF00D900A0
:103C9400DE00E600EE00F900F900FFF7C3FF734B06
:103CA40000221A7000252846F8BD0020FFF7D8FE30
:103CB400F0B10020FFF7EEFE022C14BF4FF47A653A
:103CC4004FF4E165694B1C7000244FF400464FF437
:103CD400FA7021464FF47A720023E5FB06010BF0DB
:103CE40069FA22460146BDE8F840614805F032BC55
:103CF400FFF7C4FE022C14BF4FF4C875C825E1E7D2
:103D04000020FFF7ADFEB8B10020FFF7C3FE4FF46B
:103D14004874564B032200254FF400464FF4FA70C2
:103D240029461A70E4FB06014FF47A7200230BF063
:103D340041FA2A460146D6E7FFF7A0FEC824E8E781
:103D44000020FFF78DFE38B10020FFF7A3FE4FF4EB
:103D54007A64464B0422DEE7FFF790FE4FF4C87402
:103D6400F7E70020FFF77CFE48B10020FFF792FE42
:103D74003E4B05221A7041F69A110022B3E7FFF771
:103D84007DFEF5E70020FFF7AFFE384B06221A70E0
:103D9400002240F6CD41A6E70020FFF76FFE334B2B
:103DA40007227EE701202870FFF79EFEF0E701203E
:103DB4002870FFF799FE00224FF4804193E7FFF744
:103DC40084FE2A4B0C226CE72A482B4E05F00AFC91
:103DD400D4F1110405461CD0D8B9012C13D0C82342
:103DE4005C4329464FF400474FF4FA704FF47A725B
:103DF4000023C4FB07010BF0DDF92A4601461D48E8
:103E040005F0A8FB05460220FFF738FE01233370B6
:103E140049E70220FFF73EFE0023F8E7FFF702FF21
:103E2400124B12223DE7FFF7FDFE0020FFF726FEAE
:103E34000E4B132235E7FFF7F5FE0120FFF71EFEB8
:103E44000A4B14222DE7FFF7EDFE0020FFF716FEC4
:103E54000120FFF713FE054B152222E7FFF735FE7D
:103E6400024B1C701EE700BF743800207538002018
:103E74004C3800202C3800206C380020044B1B6880
:103E8400DB0703D5034B1878FFF7E2BE704700BF8A
:103E94007038002075380020FFF746BE044B1B68BD
:103EA40013F0010301D0FFF7D3BE1846704700BFDB
:103EB4007038002038B51C4B18601C4B10F00204FD
:103EC400054619601AD01A4B1A480E221A700F228E
:103ED400DA7010229A7111225A72042140F2666239
:103EE40004F0F0FF044648B905F03EF8044628B94A
:103EF4000146114A114805F01BFB0446EB0701D5A6
:103F0400FFF704FE6CB921460D4A0E4805F010FB7C
:103F1400044630B9BDE838400B4A0C48012105F08D
:103F240007BB204638BD00BF703800202838002069
:103F34001C38002048110300213C020068110300D2
:103F4400813E020070110300793B02006C110300F2
:103F5400032811D8012A0AD101290FD100F10E0238
:103F6400D2B20D4B00EB40001A54002070470129D7
:103F7400F7D0022904D049B1072070470022F8E79E
:103F8400054B00EB400003445A70EEE7024B00EB94
:103F9400400003449A70E8E71C38002008B5FFF796
:103FA400E3FD800000F1A040D0F8003723F4403353
:103FB400C0F80037D0F8003743F44033C0F8003776
:103FC400002008BD08B5012202210020FFF7C0FF30
:103FD40008B1072810D1072202210120FFF7B8FFFA
:103FE40008B1072808D100210A220846FFF7B0FFCC
:103FF40010B1072808BF002008BD00000388102B5B
:1040040010B502D0112B22D010BD194C2168D1B9A2
:1040140001220846FFF79CFF08B107280FD10722A9
:1040240002210120FFF794FF08B1072807D10422D9
:1040340002210020FFF78CFF28B1072803D00D4B85
:104044001B6803B19847236801332360DCE7084AFF
:104054001368013B1360002BD6D1FFF7B3FF002890
:10406400D2D0044B1B68002BCED0BDE810401847BB
:10407400783800207C38002008B50020FFF78EFF38
:1040840008B1062806D10120FFF788FF10B10628E1
:1040940008BF002008BD00000D4B10B518600C4689
:1040A40029B10120FFF7F8FE40B102232370094B28
:1040B4001B6853B9BDE81040FFF784BFFFF7ECFE5F
:1040C40008B10B23F2E72070F1E7002010BD00BF18
:1040D4007C380020783800204FF0704393F8E02FAC
:1040E400062A10D1D3F8E42F12070CD1D3F8E80F25
:1040F40000F0F003302B08D000F0E000A0F1400302
:1041040058425841704700207047012070474FF0D3
:10411400704393F8E02F062A0CD1D3F8E42F12074A
:1041240008D1D3F8E80F00F0F000A0F130035842B2
:10413400584170470020704708B5FFF7CDFF40B1E4
:104144004FF08053804AD3F82433C3F30423C2F8D6
:104154004035FFF7DCFF10B17C4B7D4A5A67FFF70F
:10416400BBFF48B14FF080534FF08042D3F8443244
:10417400C3F34233C2F83C35FFF7C9FF30B1754A87
:10418400D2F8FC3023F08073C2F8FC30FFF7A4FFB0
:1041940040B14FF080430022C3F80C21C3F8102132
:1041A400C3F83825FFF7B3FF20B14FF08043032253
:1041B400C3F8A025FFF7ABFF60B1674B0522C3F836
:1041C40010260122C3F888260022C3F818263F22AD
:1041D400C3F814264FF0704393F8E02F062A50D109
:1041E400D3F8E42F11074CD1D3F8E83F03F0F003E0
:1041F400502B46D14FF08052584BD2F80414C3F8D8
:104204002015D2F80814C3F82415D2F80C14C3F8F6
:104214002815D2F81014C3F82C15D2F81414C3F8C6
:104224003015D2F81814C3F83415D2F81C14C3F896
:104234004015D2F82014C3F84415D2F82414C3F856
:104244004815D2F82814C3F84C15D2F82C14C3F826
:104254005015D2F83014C3F85415D2F83414C3F8F6
:104264006015D2F83814C3F86415D2F83C14C3F8B6
:104274006815D2F84014C3F86C15D2F84424C3F876
:104284007025FFF729FF48B14FF080534FF080426B
:10429400D3F8583203F04F03C2F8E43EFFF71CFF93
:1042A40048B14FF08043D3F80024D20744BF6FF0E5
:1042B4000102C3F80024274AD2F8883043F470037B
:1042C400C2F88830BFF34F8FBFF36F8F4FF01023C6
:1042D400D3F80022002A03DBD3F80432002B2EDAB1
:1042E4001F4B0122C3F80425D3F80024002AFBD075
:1042F4004FF010221521C2F80012D3F80024002A2E
:10430400FBD04FF010231522C3F80422144BD3F82A
:104314000024002AFBD00022C3F80425D3F800248B
:10432400002AFBD0BFF34F8F0A490E4BCA6802F430
:10433400E0621343CB60BFF34F8F00BFFDE70A4B2E
:104344000A4A1A6008BD00BF0030014000C007409F
:104354000DF0ADBA00ED00E00050004000C0004098
:1043640000E001400400FA05B42F00200090D003BF
:104374006DDF704772DF704779DF70477DDF70470C
:1043840064DF70472DE9F04F85B000260E9CBDF820
:104394003CB0B4F800A00191074690461D46B146D2
:1043A4003A884A4505DC002E37D1002005B0BDE827
:1043B400F08F7A6852F82900039000220DF10B0166
:1043C40003A8FFF7DDFF0028F0D19DF80B2042453C
:1043D40020D1228886F0010002EB080101EB4001A4
:1043E400594524DC3EB9013292B2019B2280AB5480
:1043F40022880132228022880DF10B012A4403A86D
:10440400FFF7BEFF0028D1D121889DF80B200A4474
:104414002280012609F10109C2E72388013BA3EBAD
:104424000A039BB2FF2B02D805F80A30BDE70C2023
:10443400BCE72DE9F341089FBDF824801546CDE97A
:104444000078022204461E46FFF79CFF50B933460B
:10445400102229462046CDE9087802B0BDE8F04193
:10446400FFF790BF02B0BDE8F0812DE9F04F0023C3
:10447400178885B0138090F82D3006460D461446F3
:104484005BB3082F40F2AF8102A8FFF771FF002849
:1044940040F0E2802388DDF809100822EA542388DA
:1044A40001339BB21B222380EA54238801339BB23D
:1044B400EA182380E950BDF80D30938023889DF8D5
:1044C400082006339BB2012A88BF0122238094BFAF
:1044D400E854EA54238801332380B37803B3238850
:1044E4000433BB4200F27F8102A8FFF745FF002896
:1044F40040F0B28023880322EA54238801339BB21C
:1045040019222380EA542388BDF8082001339BB282
:10451400E9182380EA54120A4A702388023323805C
:10452400F278A2B12388D91CB94200F25C8102213D
:10453400E954238801339BB201212380E954238861
:104544000B449BB22380EA5423880B442380736872
:10455400B3B193F900202388D91CB94200F24381F6
:104564000221E954238801339BB20A212380E954B0
:10457400238801339BB22380EA54238801332380A8
:104584003389002B5DD1338A53B1CDE900472B46E3
:104594000722032106F11000FFF74BFF00285BD12F
:1045A400338B53B1CDE900472B461522142106F174
:1045B4001800FFF73EFF00284ED1326A002A4ED180
:1045C400D6F82480B8F1000F31D0B8F8043021882F
:1045D400981C8A1C0244BA4200F20581FE2800F2AB
:1045E400028103336B54238801339BB2FF2223805F
:1045F400EA54238801339BB22380B8F80020EA549C
:10460400E918120A4A702088023080B22080B8F873
:10461400042062B1D8F80810002900F0E68028448C
:104624000AF05AFF2388B8F804201344238096F82C
:104634002C30002B59D13378002B40F09780002088
:104644000AE0CDE900472B460622022106F10800C4
:10465400FFF7EFFE002896D005B0BDE8F08FB4F860
:1046640000C00CF10603BB4200F2BD80118805298D
:1046740040F2BB806FF4486E01EB0E039BB24FF225
:104684007D3E734540F2B1805388052B40F2AD80E6
:104694006FF44860181880B2704540F2A6804FF657
:1046A400FF70814202D0994200F29F80052305F8F1
:1046B4000C30238801339BB212212380E9542388D0
:1046C40001339BB223801188E954E818090A417028
:1046D400238802339BB223805288EA54E918120AD1
:1046E4004A702388023323806AE7B36A002B7CD0A4
:1046F4004FF000094FF00C0A4FF0160B96F82C30CF
:104704005FFA89F2934296D9B16A0AFB02F201EB8D
:104714000208B8F80430981CFE2864D820880333B3
:104724002B54238801339BB2238005F803B02388DC
:1047340001339BB223808A5AEA54E918120A4A7058
:104744002088023080B22080B8F804205AB1D8F80A
:104754000810002949D028440AF0BEFE2388B8F87E
:1047640004201344238009F10109C7E73288012A90
:104774003BD02288901CB84235D8012B04D17378E1
:10478400023313449F422ED3023FBF1ABFB202A981
:104794002844ADF80870FFF7F1FD00287FF45CAF02
:1047A4003378022B16D1BDF80830BB4219D9ADF8C5
:1047B40008700821BDF80830FE2B14D82288013374
:1047C400AB542288013292B22280A9542288134425
:1047D400238034E7012BEAD173789F4228BF1F4618
:1047E400E5E70921E6E70C2036E7072034E730B592
:1047F40093B01F230D46ADF80430ADF806300446DF
:1048040010B3C3785B0702D4072013B030BD01AAEC
:1048140002A9FFF72AFE0028F7D102ACBDB1EB785C
:10482400002BF1D10DF106020AA92846FFF71DFE5F
:104834000028EAD10AAD9DF806309DF804102A46F6
:104844002046FFF797FDE0E7ADF80400E6E7ADF892
:104854000650F0E773DF704774DF704780F8241068
:104864007047F8B504460D46002900F097800028EB
:1048740000F094800026C670012301F1780C0370C7
:10488400071DBCE80F000FC79CE80F0087E80F0066
:1048940084F82460D5F89830C4F8CC30D5F89C302E
:1048A400C4F8D03004F130074FF6FF73A4F8C830D1
:1048B400C4F825603146A6623C2238460AF03EFE22
:1048C4002B7884F83030AB7884F83230EB7884F885
:1048D40033306B7884F83130D5E9040104F14003B6
:1048E40083E80300D5E9020104F1380383E80300F7
:1048F400D5E9060104F1480383E8030095F82D3057
:1049040084F85D306B6AB3B9AA6A52BB2B6A43B1AF
:1049140004F1C40222655A881B88A4F8C620A4F8AE
:10492400C4306B6803B1636305F13C013846BDE8EC
:10493400F840FFF75CBF04F16C02626504F1780291
:1049440062671A88A4F86C209A88A4F8702004F18D
:104954007701B242D8D99868805D01F8010F013619
:10496400F7E704F1A403C4F8A03004F19803918894
:10497400A3651388A4F89830A4F89C1004F1A3004C
:104984000023994204D895F82C3084F85C30BDE7B4
:104994009668F65C00F8016F0133F2E70E20F8BD6B
:1049A400F0B5067885B004460D46002E00F0CC80A4
:1049B400C170002008F012F920B1012363700020B7
:1049C40005B0F0BDE388C4F8250004F12507A06212
:1049D40013B1E378012B04D0E37953B1E378022BCC
:1049E40007D1D4F8CC30A3B1012284F82C200820BC
:1049F40098473B4604F12B0113F8012F12B9994251
:104A0400FAD116466B1E032B31D8DFE803F00508F4
:104A14000B0D84F82C30ECE7A37903B13EB9E379AC
:104A240003B136BB237A33BB657AAD00EDB2D4F85B
:104A3400CC30E5700BB3033D012D1ED86279E2B191
:104A440094F8D420CAB984F8D620012284F8D52059
:104A5400072098471022002168460AF06FFDE3788A
:104A6400042B13D8DFE803F0660D1C294800002549
:104A7400DDE70225DBE70325D9E7002384F8D530F9
:104A8400E8E70123A37001978DF80030E378002B49
:104A940052D1D4F8CC30002B91D0A07898478EE72F
:104AA4000223A37001238DF800302369ADF80C3084
:104AB400E3680197ADF80A30E8E76369ADF80A30B6
:104AC400A369ADF80C306379A3B194F8D41089B913
:104AD40094F8D63073B102238DF80830042384F897
:104AE400333004F13000FFF782FE0028CED10523D5
:104AF400A370CBE70323FBE7E369ADF80A30236A2D
:104B0400ADF80C3063799BB194F8D41081B994F862
:104B1400D6306BB102238DF80830042384F8333087
:104B240004F13000FFF763FE0028AFD10623DFE76E
:104B34000423DDE70023DBE794F824106846FFF73D
:104B440089FE0028A5D03BE7082039E70388112B0C
:104B540010B50C460AD01B2B20D0102B05D1C27BDC
:104B64008388012A01D1A1F8C83010BD00228388AE
:104B740081F8D420B1F8C8209A42F6D10B79002BE1
:104B8400F3D101212046FFF70BFF0028EDD0D4F824
:104B9400D030002BE9D0BDE810401847037A002B31
:104BA400E3D1C97805230131B1FBF3F303EB8303AC
:104BB400C91AC9B2E6E70238012810B50C460ED866
:104BC4004B7863B100234B702046C978FFF7E8FEA9
:104BD40028B1D4F8D03013B1BDE81040184710BD47
:104BE40038B50446FFF738FE012384F8D430002199
:104BF400062384F8D61084F8333004F13000FFF72C
:104C0400F6FD054640B9E1782046FFF7C9FE18B124
:104C1400D4F8D03003B19847284638BD034B1A88DE
:104C240082420CBF18460020704700BFA438002001
:104C3400024B9B6903B11847704700BF88380020B6
:104C440013B50B46497A02460E4871B9D0E90141C1
:104C5400187A002808BF2146586804F07BFC78B114
:104C640002B0BDE81040FFF7E3BF002119724369A9
:104C740033B101218DF80410ADF8062001A898473E
:104C840002B010BD883800204B8802889A4212D89E
:104C940042889A420FD380888B8840F2F31188426D
:104CA40094BF021A421A9A4205D80844984234BF63
:104CB4000020012070470020704700000388122B59
:104CC40070B5014659D004D8102B1ED0112B44D0F6
:104CD40070BD502BFCD12F4BC288DB899A42F7D18F
:104CE400038A022BF4D186883046FFF797FF0546E6
:104CF4000028EDD001F1120000F04CF938BB6868CF
:104D040004F070FC0028E3D00AE0C37B8688012B02
:104D1400DED14FF6FF70FFF781FF054620B904206E
:104D2400BDE87040FFF784BF1B4A0680002303726E
:104D34001368C0F80A305368C0F80E3010310A30D6
:104D4400FFF7A2FF134B6872DB89002BC0D1294601
:104D54003046BDE87040FFF773BF8088FFF75EFF01
:104D640004460028B4D0406804F03CFC08B1FFF7C6
:104D74005FFF4FF6FF732380AAE786883046FFF76C
:104D84004DFF05460028A3D008310A30FFF77CFF09
:104D94006872DCE788380020803800202DE9F04371
:104DA4000388112B95B004464DD01A2B51D0102BEB
:104DB40064D1344DD5E91132291D23EA020203A836
:104DC40008F0A6FC00260DF10E07B04605F14409D3
:104DD400039B9E420ED3686CA688C04308F046FC31
:104DE4004FF6FF73984210D1042015B0BDE8F0438C
:104DF40004F0D0B8CDF8008037F8023F22481D22D5
:104E0400494608F049FC0136E2E7204905EB400534
:104E14000123A1F144003246AE8008F05CFC1C4939
:104E24000123A1F14000324608F055FCE37B194907
:104E34009A1E53425341A288A1F1480015B0BDE81F
:104E4400F04308F048BC114982880023A1F14400D2
:104E5400F4E7037A104982881F2B94BF00230123AF
:104E6400A1F14C0008F037FC237A0C49A2882F2BBF
:104E740094BF00230123A1F15000DFE715B0BDE882
:104E8400F08300BFB8380020BC380020003900206F
:104E9400FC38002004390020083900200C39002097
:104EA40038B5084C05460246616C201D08F01CFC10
:104EB40030B1E16C2A46201D08F016FC0130C0B266
:104EC40038BD00BFB838002002460248016D0430E6
:104ED40008F00ABCB838002010B5044904464A6CEE
:104EE400043108F015FC204610BD00BFB83800207E
:104EF4000B490B6813F0010030B50AD001241828BF
:104F04000AD004FA00F21A4200F1010505D1C0B238
:104F140000E0012213430B6030BD2846EFE700BFD9
:104F2400B838002010B4094C0246012320688B4095
:104F3400184007D004EB8101201D896D5DF8044BF6
:104F440008F0D2BB5DF8044B704700BFB8380020AE
:104F540030B4084C1346256801228A402A4207D0FF
:104F64001631024604EB8101201D30BC08F0B3BBAE
:104F740030BC7047B8380020054A012301468340FD
:104F8400106818401CBF02EB8102906D704700BF8F
:104F9400B8380020008800F0010070470B780370D7
:104FA4004B7843700220704738B5044608460D46D6
:104FB4000AF0F9F96560208038BD10B504464088D0
:104FC40000F028FCA0802046BDE8104001F0D2BCCF
:104FD40030B587B005460C461422002101A80AF01A
:104FE400ADFA072301A88DF80430ADF806500394F8
:104FF400FFF7E3FF07B030BD10B586B004461422B6
:10500400002101A80AF09AFA4FF6FF739C42ADF80A
:10501400064017D0204600F076FA112801461CD02D
:1050240006D888B10B2816D02046FFF7D1FF03E03D
:1050340043F202039842F7D10022094B2046197823
:10504400FFF786FF06B010BD0E2301A88DF80430CB
:10505400FFF7B3FFF0E70F23F7E70122EDE700BF07
:10506400723900202DE9F04F97B00546FFF784FF11
:1050740048B105A8FFF730FF0DF116094FF00008FD
:10508400059B984502D317B0BDE8F08F39F8024F5D
:1050940029462046FFF746FF064630B14A4B1B78A7
:1050A400AB4205D12046FFF7A7FF08F10108E7E767
:1050B400464B1B78AB423AD14548002101F0CCFE67
:1050C40006460028F1D0204600F0D2F98628014691
:1050D4001AD006D830B3112827D02046FFF778FF1E
:1050E40003E043F202039842F7D100273E46374BD0
:1050F400324619782046FFF72BFF002FC3D13448DE
:10510400394601F0B6FED0E71422002168460AF0C1
:1051140015FA062368468DF80030ADF80240FFF713
:105124004CFFE2E737460646E1E70027DFE7DFF812
:10513400A4B09BF80030AB42B7D1DFF89CA0204666
:105144009AF80010FFF7EEFE07460028ADD120467E
:1051540000F03AFA1128014622D008D806282CD0AB
:1051640008282AD078B12046FFF732FF18E043F22E
:105174000203984214D043F201439842F3D12046EB
:10518400FFF73AFF0CE0142268460AF0D7F910231F
:1051940068468DF80030ADF80240FFF70EFF374641
:1051A4009BF8001032462046FFF7D2FE9AF8001012
:1051B4003A462046FFF7CCFE77E7204600F02AFB6C
:1051C40000F01CFA0026EBE7723900207339002046
:1051D40074390020713900207039002010B503782B
:1051E400044673B94088FFF707FF608800F0DAF9D6
:1051F40038B1044B60881978BDE810400122FFF7EC
:10520400A7BE10BD7139002073B503781E4E082B5C
:10521400044608D1417A31B9057A072D09D0082D01
:105224002ED0012D11D0307802B0BDE87040FFF7C8
:1052340019BF808800F014FB4FF6FF739842F2D038
:1052440031780122FFF784FEEDE780886A4629461B
:1052540001F07EF90028E6D1019B1B78002BE2D0F7
:10526400A08800F0FDFA4FF6FF739842DBD0074C9C
:105274002A462178FFF76CFE2078FFF7F3FED2E789
:10528400034801F0F6FDCEE77339002071390020A0
:105294007439002070B5FFF72BFE104E104D30709E
:1052A400FFF726FE2870FFF723FE0E4C2070FFF751
:1052B4001FFE0D4B18703378182B0DD02B78182B3C
:1052C4000AD02378182B07D0182805D007480121C5
:1052D40001F0BBFD002070BD0320FCE77339002002
:1052E400723900207139002070390020743900208F
:1052F40070B503888488254D522B86B00DD0542B6D
:105304000FD0502B2DD0224B1878FFF7ABFE287806
:1053140006B0BDE87040FFF7A5BE2046FFF76CFE5F
:10532400F1E71422002101A80AF008F9112320460C
:105334008DF80430ADF8064000F06CFAADF80800C2
:1053440000F05CF9134B204619780022FFF700FEA9
:10535400204629780022FFF7FBFD01A8FFF72DFE68
:10536400D1E7037B012BCED1827A012ACBD10189EB
:1053740042F602139942C6D1074E20463178FFF710
:10538400E7FD3078FFF76EFEBDE700BF71390020FE
:10539400723900207039002073390020F0B593B0C1
:1053A40000F0F2F801A8FFF797FD104F00244FF624
:1053B400FF76019AA3B29A4206D80C4B187813B020
:1053C400BDE8F040FFF74EBE12AA02EB430333F8E8
:1053D400405C284600F01EFAB04204D1397801221C
:1053E4002846FFF7B5FD0134E3E700BF713900201B
:1053F400A7DF7047A9DF7047AADF7047ABDF7047AC
:1054040073B50F4B0F4D93E803006C4684E803001B
:1054140000222888214601F0C2F94FF6FF760346A0
:105424002888B04201D0112B01D102B070BD01F027
:10543400A8F900222146288001F0B1F90346EFE7DC
:105444007C11030078390020044B1A884FF6FF734F
:105454009A4201D0FFF7D4BF704700BF78390020CB
:10546400024B4FF6FF721A800020704778390020F3
:105474002DE9F347814600F0CDF94FF6FF739842CA
:1054840006463DD001274FF0030A3A466B460821F1
:10549400304601F061F80137BFB2044658BB0199A8
:1054A4000A46032342F804AB06314846FFF7A4FF3B
:1054B400054648B932460821304601F04FF9044602
:1054C400204602B0BDE8F0870C280ED005280FD086
:1054D400A0460821304601F0DBF800280CBF2C461A
:1054E4000324B8F1000FD0D1EAE74FF00108F0E748
:1054F4002546A046EDE7072814BF04460C24DFE741
:1055040043F20204DCE72DE9F341074600F082F997
:105514004FF6FF73984218D10024032526464FF016
:1055240001082B46224631463846FFF763FF04281C
:1055340016D008281AD00B2813D115F0020317D15E
:10554400D6B9ECB902B0BDE8F0816A46082100F092
:10555400FFFF0028E0D1019B9C881D689E1DDEE7AB
:105564001120B8F1000F08BF0B20EBE70020F8E78B
:1055740001254FF00008D4E703251C461E46F8E732
:1055840003253446F5E7000008B54FF6FF7001F037
:10559400F8F8034B1880BDE80840FFF731BF00BF9F
:1055A400783900201FB50DF10703039300F032F999
:1055B40002AA012100F0CCFF20B9039B187805B0A2
:1055C4005DF804FB0020FAE770B505460A48FFF7CA
:1055D40015FF70B9084C43F2030621884FF6FF7299
:1055E4002846FFF705FFB04204D123880133238006
:1055F400F3E7032070BD00BF7639002013B5074AD6
:10560400044692E803006B4683E80300002219462F
:10561400204601F0C4F802B010BD00BF841103009D
:1056240043DF704770B5084D084E00243178688810
:10563400FFF778FC08B9E0B270BD0134142C05F111
:105644000C05F3D1FF20F7E77C3900207A390020DC
:1056540010B50A4B19780446FFF764FC58B1084AA0
:1056640000235188A14201D1D8B210BD0133142BBB
:1056740002F10C02F5D1FF20F7E700BF7A390020D0
:105684007C39002010B50C46FFF7E2FFFF281FBF4E
:105694000C235843014B1C5210BD00BF7C39002021
:1056A40038B505460C4609B9FF2038BD4FF6FF73DF
:1056B4009842F9D00E4B01221978FFF749FC28468D
:1056C400FFF7C6FFFF2803D1FFF7ACFFFF28EBD09D
:1056D40008490C2242438B185D804FF6FF758D52AA
:1056E40022685A60A2881A81A2799A72DDE700BF03
:1056F4007A3900207C390020421E00F10F0312F891
:10570400010F10B99A42FAD170470120704708B5C9
:1057140068B169B103780A785340012B08D806228E
:105724000131013009F01AFEB0FA80F0400908BDD9
:105734000020FCE72DE9F04100F101084D1C06466C
:105744000F4610222946404609F008FE044610BBC5
:105754004046FFF7D1FF18B12846FFF7CDFF0446B6
:10576400737C03F0FC03042B19D07B7C03F0FE054F
:10577400042D14D007F1110106F11100FFF7C7FF42
:1057840058B9AB1F18BF01230CB183F0010404F016
:105794000100BDE8F0810024E2E7062D01D10023D9
:1057A400F2E70124F3E77FB505460E4600F0B0FCAE
:1057B40002AA0DF10601072000F0B2FC10B94FF661
:1057C400FF7409E0BDF80640B442F1D003992846BD
:1057D400FFF7B0FF0028EBD0204604B070BD0000F6
:1057E40038B50A4D18232B70094B14244FF6FF7259
:1057F400013C5A8003F10C03FAD1FFF779FB2870BE
:10580400182814BF2046032038BD00BF7A39002071
:105814007C39002008B5FFF71BFFFF281DBF0C23B0
:105824005843034B4FF6FF7018BF185A08BD00BF0A
:105834007C39002010B50C46FFF70AFFFF280BD077
:10584400064B0C2202FB0030436823600389A380CB
:10585400837AA371002010BD0520FCE77C39002069
:10586400084A30B500230C2404FB03F18D18515A67
:10587400814201D1688830BD0133142BF4D14FF635
:10588400FF70F8E77C390020038843B9421C00F11B
:10589400090312F8010F10B99A42FAD17047012096
:1058A400704710B50446FFF7EFFF58B122880B8804
:1058B4009A4208D108220231A01C09F04FFDB0FA27
:1058C40080F0400910BD0020FCE730B585B00446E7
:1058D40000F01EFC02AA0DF10601072000F020FCD6
:1058E40010B94FF6FF7008E0039D204605F146010C
:1058F400FFF7D7FF18B1BDF8060005B030BD05F1BC
:105904002A012046FFF7CDFF0028E3D0F3E7FFF795
:10591400B9BE38B50446FFF7A3FF0546204600F09C
:10592400CCFE4FF6FF718D42044603D010B92846D1
:10593400FFF7A8FE204638BD70B58CB014466A4601
:105944000D4600F11003164613F8011D02F8011B61
:105954009842F9D10D22002104A809F0EFFD2B781B
:105964008DF81F306B788DF81E303046AB788DF88B
:105974001D30FFF755FE9DF82F3023709DF82E3013
:1059840063709DF82D30A3700CB070BD1FB5034635
:1059940008461A7802F0FE02042A1BD1DA78B3F81A
:1059A40001108DF806209A88ADF804109B79ADF8A3
:1059B4000C2003A902AA8DF80E30FFF7BDFF0322C5
:1059C40002A901A809F0CAFCB0FA80F0400905B0A8
:1059D4005DF804FB0020FAE730B50388102B95B07E
:1059E4004CD1041D0FCC07AD0FC50FCC0FC50FCC88
:1059F4000FC523682B609DF8203003F0FE03062BAF
:105A040046D000F085FB9DF82030032B4FEA53026B
:105A140036D9022A3CD102AA0DF10601072000F072
:105A24007FFB002834D0039908A80131FFF7AEFFAB
:105A34000028F0D005E0039908A81131FFF767FEAC
:105A4400F0B1BDF80640BDF81C5008A92846FFF780
:105A540027FE4FF6FF739C4210D021462846FFF7DD
:105A640011FE002302A8ADF80A50ADF80C408DF8E1
:105A7400083000F081FF02A8FFF7B0FB15B030BD7D
:105A840002AA0DF10601072000F04AFB0028D2D13A
:105A94004FF6FF74D7E790DF70479EDF7047ADDFA6
:105AA400704780B14FF0F7130360FB230371F723B2
:105AB400C3801723038141F6FB3200230161438134
:105AC4008281184670470E20704718B109B90089C1
:105AD40070470020704700002DE9F0430C46818890
:105AE40085B00546002940F0C3810388242B00F0CB
:105AF400098126D8112B00F0D780232B00F0708168
:105B0400102B66D0A37A002B00F0B281E18800202C
:105B1400FFF7C3FF0346002840F09A814FF48072D8
:105B240062819F4A5168032940F2A28110889D49ED
:105B3400E288000440F0040005B0BDE8F04308F03A
:105B44002ABD3A2B00F0B980552BDBD1944EC58881
:105B54007368032B08D9308800040A462B469249FF
:105B640040F0040008F017FDE3887068172D2A46FA
:105B740038BF17229A4228BF1A46002103282281DF
:105B8400A17207D9308800910004884940F00400CC
:105B940008F00BFDE1880020FFF781FF024640B1C9
:105BA400736833B130888249000440F0010008F082
:105BB400E9FCE37A002BA5D12369002BA2D040F69F
:105BC400772202922289ADF80C2002A92046984738
:105BD40098E7C37B22792273012B48D0022B49D04A
:105BE400E2882389934214D26D4D6B68032B07D945
:105BF400288870490004002340F0040008F0CBFC1E
:105C0400E1880020FFF749FF0246002834D1012330
:105C1400E372227B637B9342BFF474AF604E73687C
:105C2400032B07D9308864490004002340F00400A2
:105C340008F0B1FC0025237BADF808302A4602A900
:105C44002846ADF80A300395FFF725FF03460028E0
:105C54003FF458AF7268002A3FF454AF3088574974
:105C640000042A4640F0010008F095FC4AE7238826
:105C7400E380B5E76388FBE711286B680CD1012248
:105C8400032BA272C5D928884D490004002240F094
:105C9400040008F077FCBCE7002BBAD028884949F7
:105CA400000440F00100F4E7F723E3801723238185
:105CB40041F6FB336181A38124E74289E3889A4258
:105CC40028BF1A46364B5868172A38BF17220328AC
:105CD400228107D9188800040B4640F004003A4991
:105CE40008F059FC236953B1E27A42B140F67722B5
:105CF40002922289ADF80C2002A92046984700237D
:105D04006381FFE6264D027A6B68B0F80880B0F82C
:105D14000A908689C7896273032B33D928880004C3
:105D24000B4640F00400294908F035FC6B68032B4E
:105D340028D92888264900044A4640F0040008F07F
:105D440021FC6B68032B1DD9288822490004424694
:105D540040F0040008F016FC6B68032B12D9288865
:105D64001D4900043A4640F0040008F00BFC6B683F
:105D7400032B07D9288819490004324640F004004F
:105D840008F000FC2369002B3FF4BCAE00228DF820
:105D94000D204DF67A220292627B8DF80C2014E7D6
:105DA400982E002086FE02009EFC0200D8FC020011
:105DB40017FD0200F8FA0200CBFB020006FC020009
:105DC40035FB020087FB020063FC020059FD020060
:105DD40088FD02009AFD0200ACFD0200BCFD020039
:105DE400254E077A7368032B08D9308800040A46C5
:105DF4003B46224940F0040008F0CDFB227B0023FF
:105E040003937368BA4228BF3A46032BADF80820BF
:105E1400ADF80A2007D93088AB881949000440F04E
:105E2400040008F0B8FB0022A88802A9FFF733FE9B
:105E3400024600283FF466AE7368002B3FF462AE5E
:105E440030881049000440F0010008F09BFB59E63B
:105E540011280DD0084A516851B110880A4900042C
:105E64001A4640F0010005B0BDE8F04308F08ABBD3
:105E740005B0BDE8F08300BF982E0020CCFD0200E1
:105E840009FE02003EFE020087FB0200031F042BF2
:105E940003D9431E584258417047012070474FF6BA
:105EA400FF73438000F0B4BA2DE9F04100238AB0B7
:105EB4004FF6FF70CDE9003300F018FD4FF6FF7583
:105EC4000446AC4218D11E4F3E7896B94FF6FF7384
:105ED4009C420ED0A4F580404FF0010880B287F8B0
:105EE400008004F063FA0828054616D1154B83F8A0
:105EF40000800AB0BDE8F081A4F580406A4602A99A
:105F040080B204F0B7FA0A28DDD1204600F094FCF0
:105F1400204600F0EBFC0446D3E70028E9D0142225
:105F240031460DEB02003E7009F008FB072305A87B
:105F34008DF81430ADF818400795FFF7B0FFD8E797
:105F4400743A0020753A002070B5044686B01422D5
:105F5400002101A809F0F2FAA08923782E4D00F55A
:105F6400804080B2042BADF808003CD00AD85A1EF9
:105F7400022A11D92B781BB100232B70FFF794FF51
:105F840006B070BD052BF5D113238DF804304FF600
:105F9400FF73ADF808301DE043F6FE76B042E189A8
:105FA40004D901F5804292B2B242E3D8DA1E5342D8
:105FB40053418DF80D30A368049363688DF80C1079
:105FC40063B908238DF804309DF8143043F00103BD
:105FD4008DF8143001A8FFF762FFCBE709228DF892
:105FE40004200593F6E743F6FE739842C2D8E3898A
:105FF400002BBFD163685BB90A238DF8043000F02D
:106004001BFC064A00232B701370FFF74DFFE1E7DA
:106014000B238DF80430F4E7753A0020743A00201D
:1060240007B50023A1F58041A0F58040CDE90033F8
:1060340089B26B4680B204F003FA002818BF052029
:1060440003B05DF804FB000030B5154889B003F0D7
:10605400F9FF08BB04F012F80446F8B900F0BEFBDF
:10606400CDE9034403AA05A94CF2070004F0F5F9AD
:1060740010B1204609B030BD01A905A804F0FAF812
:10608400019B9D8805F58045ADB205A804F01AF979
:10609400284600F0B9FBE5E70324EAE78624E8E7AD
:1060A4004D5F0200F0B5FF2887B004460F46154641
:1060B4001E4629D80846FFF7E9FE28B303AA20465E
:1060C400FFF7AEFF18B10524204607B0F0BD01A9C3
:1060D40003A804F0CFF804460028F4D1019BAF7064
:1060E4005B882B802EB9029B6B6003A804F0EAF84E
:1060F400EAE73168B1EB830F4FEA830206D30299D2
:10610400686809F0E9F9F0E70724DDE70424DBE730
:10611400024B0022C3E90022704700BF6C3A002002
:1061240070B586B005460E461446FFF7AFFEE8B1DB
:10613400A5F580400E4A03A980B204F08EF910B18F
:10614400002006B070BD01A903A804F093F800284C
:10615400F6D1019BA5705A889B88228003F5804361
:10616400029A626003A8338004F0ACF80120E8E7E7
:106174006C3A002010B5024680780C46FFF786FE84
:1061840040B11188204604F0BFF8092804D8034B15
:10619400185C10BD0720FCE70320FAE78C1103000C
:1061A40007B5019001A804F0C9F8002818BF03201E
:1061B40003B05DF804FB70B588B0FF2804460D46B3
:1061C40001921E4643D889780846FFF75FFE0028EF
:1061D4003DD0A4F58043ADF80830A1F58043ADF877
:1061E4000A306B68039305AA2B8804932046FFF7B3
:1061F40017FF0528019B13D163B902A905A804F070
:10620400C3F80728044624D013D8C8B10324204671
:1062140008B070BD01AA02A905A804F0B9F8F0E716
:1062240013B101A804F08AF802A905A804F0B6F88D
:10623400E7E708280FD00E2814BF03241124E6E74B
:10624400002EE4D0314605A804F021F9DFE7072445
:10625400DDE78624DBE71124D9E74FF6FF7000F071
:10626400D3BAFF2808B505D800F0D4FAFFF71CFE0E
:10627400002008BD0720FCE700F0F2BA00F01CBBC8
:1062840000F034BB30B50B68074D0246012B01D931
:10629400002006E01C0105EB03102C5B944201D1A5
:1062A4000B6030BD0133F1E71C3B002037B5002300
:1062B4000D460446019301A9FFF7E4FF38B1837842
:1062C400AB4206D1837B9B0703D183680BB903B030
:1062D40030BD019B0133019301A92046ECE710B5C1
:1062E400044600F07BFC204601F028FB2046FFF723
:1062F400ABF82046BDE81040FEF786BF8378013B2B
:10630400072B07D8DFE803F007060606060704098B
:106314001423038070470123FBE743689B880933F8
:106324009B08F6E770B50E4E04460025237BAB426E
:106334000ED84FF6FF732380A3700023C4E9013302
:106344004FF47F43A381A37B23F00303A37370BDA6
:10635400617B2944C9B2304600F013FD0135E5E7FD
:106364003C3B002037B50023CDE90033417B8378E3
:106374008DF802300446244800F0ECFC20B3237B63
:10638400A278019003EB83039B0068468DF80220FA
:10639400ADF80030FFF7B2FF2346626833F8085BBC
:1063A40001462846FFF707FFA37B03F00303032BF3
:1063B40001BF164A136803F1FF331360112819D083
:1063C40005D888B1072800D0032003B030BD862843
:1063D400FAD10E4A136801331360A37B23F003033D
:1063E40043F00103A373F0E7A37B23F00303A37338
:1063F4000020EAE7054A136801331360A37B23F006
:10640400030343F00203F2E73C3B0020183B002067
:10641400F0B5324EC368B268934287B0054617D0D0
:10642400B269934216D1012306EB03102B782C4F4B
:10643400092B11D0132B3DD0082B04D16B7A13B93F
:1064440008B1FFF76FFF00242846FFF748FF10E06C
:106454000023E9E70020E9E76C7A002CF3D1002857
:10646400F1D03B68846001333B60837B43F00203DB
:1064740083733B68E3B1B37B98071DD51748FFF7D7
:1064840071FFE8B100231B018628F35AADF80830E8
:106494004FF6FF720EBF06230723039001A8ADF841
:1064A40006200CBF8DF804308DF80430FFF717FF79
:1064B40007B0F0BD0124C7E7D90701D5002CDDD111
:1064C400B37F9A0703D4DB07F2D5002CF0D005483C
:1064D400FFF748FF0028EBD00123D4E71C3B002042
:1064E400183B00202C3B00201FB5144B0022987B46
:1064F400C3E90122C3E905229A7F4FF6FF714FF4E5
:106504007F4420F0030022F00302198099709C81DB
:106514009873198299749C839A7702235022CDE947
:106524000132012300930649064B0748A02200F0DC
:10653400F3FB002818BF032004B010BD1C3B00204F
:10654400783A0020763A00203C3B0020FFF785BED5
:106554000023FFF7A7BD00002DE9F84F81460E4642
:1065640015461F46002B00F08D80CB1F012B02D94E
:106574000720BDE8F88F531E012BF9D8FFF77CFEE6
:1065840080460028F4D031464846FFF78FFE044683
:10659400002840D0037BAB4249D307D9DFF8ECA0F5
:1065A4005FFA85F9237B617B4B4545D8637BFF2BE1
:1065B4004CD13648294600F0F8FBFF28607347D1D8
:1065C4004FF6FF7323800023C4E901334FF47F4364
:1065D400A381A37BA07023F00303A3731120C8E756
:1065E400637B1944C9B2504600F0CBFB0BF1010B9D
:1065F400237B5FFA8BF18B42F2D84FF6FF73238033
:10660400A3700023C4E901334FF47F43A381A37B28
:1066140023F00303A373FF214FF6FF70FFF746FE39
:1066240004460028DAD0A0F800908670BEE7DFF8B0
:106634005CA04FF0000BDBE74944C9B2504609F1B6
:10664400010900F09EFB5FFA89F9ABE74FF00008FF
:10665400617B0E48257300F07DFBA8B105EB850531
:106664002D010335C5F38D05BE7078603D80B8F10A
:10667400000F01D0082E01D000207AE7AD00063DBE
:106684008580F9E70E2074E7032072E73C3B002085
:1066940038B5FFF70BFE044668B1406828B90025F9
:1066A4002046FFF73FFE284638BDFFF779FD002856
:1066B400F5D00325F4E70525F5E737B500240546AD
:1066C400019401A9FFF7DEFD58B93CB92846FFF74C
:1066D400C8FD044610B1072818BF0324204603B0A0
:1066E40030BD81782846FFF7D3FF10B1052818BFC5
:1066F4000324019B0133019301A92846E2E700002A
:10670400CB1F012B73B50D4620D8FFF7CFFD0446F0
:10671400F0B14668F6B9417B0F4800F01BFBCDE9A8
:1067240000668DF8025070B1237B019003EB830364
:106734009B006846211DADF80030FFF7DFFDFFF731
:1067440019FD092800D1032002B070BD0720FBE722
:106754000520F9E70020F7E73C3B002038B5CB1FC4
:10676400012B0C46154608D8FFF7A0FD38B18470FC
:106774000580BDE83840FFF7F5BD072038BD05208A
:10678400FCE7FFF77BBDFFF77BBD07B513889B00D4
:10679400019301ABFFF786FC03B05DF804FB1346DD
:1067A4000022FFF708BD10B54FF6FF7304469C4264
:1067B40008460BD14FF4807100F078FBB0F5807F70
:1067C400044601D14FF6FF74204610BDFF2CF9D8C2
:1067D400214600F041FB0028F6D1F3E710B5094C3F
:1067E40040220021204608F0A9FE20464FF4807183
:1067F40000F02BFB04F120004FF48071BDE8104041
:1068040000F023BB4C3B00200149FFF7CCBF00BF85
:106814004C3B00204FF6FF73984210B5044606D057
:106824000449FFF7C0FF231A5842584110BD002005
:10683400FCE700BF6C3B0020FF2810B5044609D8D4
:106844000146054800F015FB21460448BDE8104008
:1068540000F00FBB10BD00BF4C3B00206C3B002080
:10686400FF28014602D8024800F03CBB00207047D4
:106874004C3B0020FF28014602D8024800F032BBFE
:10688400002070476C3B002038B54FF6FF739842E8
:106894000D4602D0441CA4B200E00024FF2C03D90E
:1068A4004FF6FF74204638BD2146284600F01AFBF7
:1068B4000028F7D10134EEE770B50B490A4EFFF713
:1068C400E3FF4FF6FF750446AC4201D1204670BD8C
:1068D4002046FFF7CFFF0028F8D020463146FFF7C7
:1068E400D3FF0446F0E700BF4C3B00200149FFF70B
:1068F400CBBF00BF6C3B0020F8B5074E074F0546E1
:1069040000243B78A34200DCF8BD56F8043B28463B
:1069140098470134F5E700BF903B00208D3B0020F1
:10692400074B1B7810B504464BB1FFF755F82046CA
:1069340001F04EF82046BDE81040FEF7D9BC10BD6A
:10694400AA3B002010B5044680B10378022B08D17D
:10695400027A4088531E5A425A41054B1978FEF771
:10696400F7FA2046BDE81040FFF7C6BF10BD00BFD0
:106974008C3B0020FFF7C0BF10B5037804462BB949
:10698400054B408819780122FEF7E2FA2046BDE85B
:106994001040FFF7B1BF00BF8C3B002038B5FFF7B4
:1069A40053FB10B10324204638BDFFF79DFD00289A
:1069B400F8D100F0E7FF0028F4D100F095FB00289F
:1069C400F0D1FEF767FC0028ECD1FEF749FD002862
:1069D400E8D1FEF705FF04460028E3D1094B0A4D30
:1069E4004FF6FF721A80094B186018232B70FEF7BC
:1069F4007FFA18282870D5D0054B1C70054B01224E
:106A04001A70D0E79C3B00208C3B0020A43B002064
:106A1400A93B0020AA3B0020084B1B7853B1084A2D
:106A24001378022B08D8074941F823000133137067
:106A3400002070470820704704207047AA3B0020BC
:106A44008D3B0020903B0020034B1B780BB100F0E2
:106A5400CBBF0820704700BFAA3B002009B100F05B
:106A6400E1BF7047024B1B780BB1FEF797BC704730
:106A7400AA3B0020034B1B780BB1FEF74ABF08204A
:106A8400704700BFAA3B002070B5194B1B7886B035
:106A94004BB3184E01234FF6FF703370FFF771FEAE
:106AA4004FF6FF75A842044612D10021142201A812
:106AB400317008F043FD0C2301A88DF80430ADF8C3
:106AC4000840ADF80640FFF717FF002006B070BD80
:106AD4002046FFF7CFFF40B92046FFF752FEA842F9
:106AE4000446F5D1F1E70820F0E70320EEE700BF04
:106AF400AA3B0020A83B00202DE9F04F1F462B4B5A
:106B04001B7887B0824689469046002B4CD04FF6BE
:106B1400FF70FFF736FE00250123CDE9035304AAD5
:106B240003AB062104460593FFF72FFE072837D051
:106B34004FF6FF7B5B464FF0FF32E0B1052818D0DB
:106B44004FF6FF718C422DD1BAF1000F01D0AAF893
:106B54000030B9F1000F01D0C9F80050B8F1000FAE
:106B640001D0A8F800B007B13A60002007B0BDE832
:106B7400F08F00210391039EAE4224BF2346354685
:106B8400204696422CBF1646A3460193FFF7F9FD13
:106B940004AA06210446FFF7F8FD019B3246CCE720
:106BA4000520E3E70320E1E70820DFE7AA3B002014
:106BB40008B50023064907481A46FFF79DFF28B188
:106BC400431F58425841044B187008BD0120FAE78E
:106BD400A03B00209C3B0020A93B0020F0B50446CC
:106BE40087B08088FEF73CFE23786080083B032B47
:106BF40020D8DFE803F002253569637A5BB9414A9E
:106C0400116851B1E068814207D113603E4AA188FE
:106C14001180E3600EE0012B0CD13C4B1B784BB18F
:106C2400394BA2881B889A4204D1237A062B01D1BE
:106C3400FFF7BEFF204607B0BDE8F040FFF75CBE9B
:106C4400637A002BF6D12F4A11680029F2D0E0684C
:106C54008142EFD12E4913600A68013A0A60D8E7ED
:106C64002C4F3B786BB90125284B1B7833B1264B4D
:106C7400A2881B889A4201D1FFF79AFF002D3ED0CB
:106C8400D8E74FF6FF70FFF77CFD4FF6FF7398428D
:106C94000546E8D1FFF777FDA8420646E3D1002573
:106CA4001422294601A83D7008F048FC0C23204614
:106CB4008DF80430ADF80860ADF80660FFF71CFEEF
:106CC40001A8FFF719FECFE7124B1A78002AB1D0BA
:106CD4000021142201A8197008F030FC0D238DF84E
:106CE40004304FF6FF73ADF80830ADF80630204697
:106CF400A3680393FFF700FE01A8FFF7FDFD07B0AB
:106D0400F0BD00BFA43B00209C3B0020A93B002019
:106D1400A03B0020A83B002070B504461846DDE9DE
:106D24000535ACB1A1B198B105FB03F696420FD875
:106D3400049ADE1DB2EBD60F0AD34BB145B1C4E9B8
:106D44000010C4E9023599B200F07FF8002070BD4C
:106D54000720FCE738B50D46044608B9002038BDC5
:106D64000368002BFAD040680028F7D0FF29F5D03B
:106D740000F0B8F80028F1D0E368206803FB0500B0
:106D8400EDE738B50D46044670B1036863B1406859
:106D940050B1FF2908D000F0A5F828B16068294651
:106DA400BDE8384000F065B838BD2DE9F8438846A1
:106DB400064618B9FF242046BDE8F8830368002B73
:106DC400F8D04368002BF5D04FF00009FF25B368D5
:106DD4005FFA89F49C422746ECD27068214600F0A1
:106DE4003BF850B1FF2D18BF2C463F1B01374745D8
:106DF400E1D009F101092546E9E7FF2D07D1FF2478
:106E0400F7E729463046FFF7BCFF0135EDB2A5424E
:106E1400F7D3F4E773B504780C4006460D4612D157
:106E24000DF107008DF8074002F0F2FB33789DF86E
:106E340007001D4202BF1D433570012402F00CFC03
:106E4400204602B070BD0024FAE720B10731CA0819
:106E5400002108F073BB70470A46034640B101F0B5
:106E6400070001218140C9B203EBD200FFF7D2BF72
:106E7400704773B50546B8B1C1F3C70401F0070301
:106E840001269E40035D33420ED000230DF107001E
:106E94008DF8073002F0BCFB2B5D9DF8070023EA58
:106EA40006032B5502F0D8FB02B070BD2DE9F0416A
:106EB4000D46074618B92C462046BDE8F081002649
:106EC4004FF00108AE42B4B2F5D004F0070108FA5D
:106ED40001F1C9B207EBD400FFF79CFF013600288B
:106EE400F0D0E9E750B1CB0801F00701C25C0123FF
:106EF4008B401A4214BF01200020704701207047C4
:106F04007EDF70477FDF704786DF704710B5044629
:106F14004088FEF77FFCA0802046BDE8104000F0CA
:106F2400DDBC10B586B004461422002101A808F087
:106F340005FB04230DEB03008DF80430ADF8064087
:106F4400FFF7E4FF06B010BD30B587B005460C4628
:106F54001422002101A808F0F1FA072301A88DF8F2
:106F64000430ADF806500394FFF7D0FF07B030BDEE
:106F7400F0B587B004460F4616460021142201A836
:106F84001D4608F0DBFA03238DF80430094BADF8F5
:106F9400064019788DF80C7000222046ADF80E607A
:106FA4008DF81050FDF7D4FF01A8FFF7AFFF07B02D
:106FB400F0BD00BFBC2F002010B50378182B044689
:106FC40002D1FDF795FF207010BD000030B5174BBE
:106FD40087B00D46012219780446FDF7B9FF144B1A
:106FE4002A1E1978204618BF0122FDF7B1FF6B1E37
:106FF4005A425A410F4B20461978FDF7A9FF0E4B10
:10700400204619780022FDF7A3FF1422002101A8CD
:1070140008F094FA012301A88DF80430ADF8064075
:107024008DF80C50FFF772FF07B030BDBC2F002065
:10703400BB2F0020BA2F0020B92F00202DE9F041EA
:10704400214B0F46197804469046FDF76BFF002844
:1070540037D01E4B20461978FDF764FF014668B30C
:107064002046FEF7D7FB1A4B064619782046FDF753
:1070740059FF184BC0F1020519782046EDB2FDF70F
:1070840051FF50B13046FEF744FC43463A46294688
:107094002046BDE8F041FFF76BBF4FF6FF739E42F9
:1070A400F3D007213046FFF7F3FA01460028ECD06D
:1070B4000528EAD02046FFF747FFE6E743463A466D
:1070C400E6E7BDE8F08100BFBC2F0020BB2F002005
:1070D400BA2F0020B92F0020024B0A781978FDF747
:1070E40037BF00BFB82F00202DE9F041DFF86480DE
:1070F400144F154E154D164C4046FFF75DFF3846AC
:10710400FFF75AFF3046FFF757FF2846FFF754FFB3
:107114002046FFF751FF98F80030182B0FD03B782A
:10712400182B0CD03378182B09D02B78182B06D0B9
:107134002378182B0CBF03200020BDE8F081032026
:10714400FBE700BFBB2F0020BA2F0020B92F00207F
:10715400B82F0020BC2F00202DE9F04F8DB006463B
:1071640001928946FDF79CFEDFF854B107469BF86F
:1071740000103046FDF7D6FE20228046002104A8E8
:1071840008F0DCF9012F14D14B4B0022197830465A
:10719400FDF7DEFEB9F1000F55D099F8001011F09B
:1071A400010A0BD1019B0793444B0B934FF6FF75D8
:1071B4007CE0002FEED143F2020440E03046FEF7BB
:1071C40029FB4FF6FF739842054604460CD1FFF79E
:1071D400BDF9A042054639D10324B8F1000F2ED0E1
:1071E4002846FEF796FB2AE0012F31D1324C304677
:1071F4002178FDF797FE58BB3046FFF792FE2178C1
:107204003046FDF78FFE18BB4FF0850A04AB4A46A3
:1072140051463046FFF776FE04460028DDD1BAF128
:10722400000FDAD1B8F1000F09D09BF800103046F6
:107234000122FDF78DFE29463046FEF768FB204605
:107244000DB0BDE8F08F4FF0850AAFE74FF00108AD
:1072540002AB012207212846FFF77EF911280446D4
:10726400BBD0002CB8D121460398502208F066F90F
:1072740003990B46304603F8347B0493019B079330
:1072840001F1180308934B1C099311310B4B0B9319
:10729400FEF7D0FA00289FD107212846FFF730FADD
:1072A4000528044698D0002897D18246012FADD0F6
:1072B40004AB0022ACE700BFB82F0020AB3B00209A
:1072C400B92F002038B505460C46FDF7E9FD012825
:1072D40006D144B121462846BDE83840FFF710BE28
:1072E40043F2020038BD2046FCE700002DE9F041DE
:1072F4000388113B88B00446092B5CD8DFE813F0FF
:107304000A005B00190039005B005B005B005B0056
:107314008200F900037A80883D2B41F23D014FF051
:10732400000218BF4FF4885108B0BDE8F041FFF7E0
:1073340085BE8088FDF7B4FD012808D1217AA08894
:1073440001F00101C1F10201C9B2FFF73FFE34F8B7
:10735400045F1422002103A808F0F0F80434052384
:107364008DF80C30ADF80E50059403A8FFF7CEFD50
:1073740021E000F110063046FEF7A7FA4FF6FF733E
:1073840098420546A08819D1FEF744FA0546A0881C
:107394000021FFF71BFE4FF6FF739D4212D100251B
:1073A40000232946A0881A46FFF7AEFD0146F8B12E
:1073B400A088FFF7C9FD08B0BDE8F0812946FEF7B3
:1073C400A6FAE4E703AA07212846FFF7C1F8002834
:1073D400E5D1049D95F84430DA0701D53435DFE76B
:1073E400314605F14600FEF75CFA0028F6D1D6E7EF
:1073F400002DE0D1A0882B4641F206022946FFF772
:10740400B7FDD8E7067A8588002E6CD12846FDF7AB
:1074140047FD80462846FEF7FDF94E4B074619788E
:1074240032462846FDF794FDB8F1000FC3D0637AC5
:107434005B074DD5072101AB01223846FFF78CF8D5
:10744400014620B12846FFF77FFD002630E0029870
:107454004FF6FF71FEF7A7F94FF6FF739842804687
:1074640076D03D4E01462846FEF751FA317828463B
:10747400FDF758FD002861D12846FFF752FD317809
:107484002846FDF74FFD0646002857D1334B2846C2
:107494001978FDF747FD58B13846FEF73AFA07E088
:1074A4002846FFF751FD00264FF6FF739845EDD1AE
:1074B40002238DF80C30637AADF80E5013F0040FEC
:1074C4000CBF022301238DF814308DF815604CE7AE
:1074D400224B28461978FDF725FD0028B5D03846FB
:1074E400FEF717FAB1E7427A314602F00302284662
:1074F4001AE71B4B80881978FDF714FD0546002810
:107504007FF459AFA088FDF7DFFC0146A08839B9A4
:10751400012341F2060208B0BDE8F041FFF728BD9F
:107524000C4B2A461978FDF713FD02238DF80C3015
:10753400A388ADF80E30ADF8145016E74246072183
:107544003846FFF70BF901460028A9D10126ABE71D
:107554003A46F4E7BC2F0020B82F0020B92F0020B2
:10756400BB2F0020034660B3027802F08201802919
:1075740027D0C2F30211042923D802F0F2013229E0
:107584001FD04078997888421BD8062819D9102929
:1075940017D8D97811F0040013D11B7913F0040F14
:1075A40010D141EA030001070BD4D30700F0030014
:1075B40003D4B0FA80F040097047003818BF0120A6
:1075C400704700207047FFF7BDB9000070B511295E
:1075D40086B006460C46154603D81B4BCB40DB074A
:1075E40023D41422002101A807F0A8FF3046ADF8E7
:1075F4000660FEF70FF90D2CADF8080019D103232E
:107604008DF804309DB12B7803F00103C3F102031C
:10761400DBB28DF80C3000238DF8103041F20113E9
:10762400ADF80E3001A8FFF7CEFF06B070BD0223FF
:10763400EFE7862C0BBF062307238DF804308DF863
:10764400043018BF0394EDE70101020010B503787C
:10765400182B044602D1FDF74BFC207010BD00002E
:107664002DE9F041264B88B00025CDE904551B686F
:10767400039303AE0446884696E807006F4687E8FE
:107684000700052320468DF80C30ADF80E40FEF7B8
:10769400C1F8ADF810003046CDE90587FFF793FF38
:1076A400184B00991A682046FFF756FD86280646AF
:1076B40023D0A0F111035F425F412A46124B2046BA
:1076C4001978FDF745FC114B3A4619782046FDF729
:1076D4003FFC0F4B204619780022FDF739FC0D4B77
:1076E400204619780022FDF733FC009A31462046E3
:1076F400FFF76CFF08B0BDE8F0812F460122DDE7FB
:10770400F43B0020EC3B0020BD2F0020BE2F0020C6
:10771400C12F0020C22F0020F0B593B00546FDF71D
:107724002BFC40B101A8FDF7D7FB0DF106060024A0
:10773400019B9C4201D313B0F0BD36F8027F294669
:107744003846FDF7EFFB18B100213846FFF788FFF4
:107754000134EDE72DE9F047054688B09246994695
:107764000F4629BB3C4BCDE904111B68039303AEC0
:1077740096E80700E84688E80700052428468DF8BF
:107784000C40ADF80E50FEF745F8ADF81000304649
:10779400CDE90578FFF717FF304BDDF800801B7843
:1077A40043B99DF809302BB9204608B0BDE8F087ED
:1077B4004FF00008524641462846FFF783FD8628CD
:1077C400064622D0A0F111035C425C410022244B06
:1077D40028461978FDF7BCFB224B22461978284627
:1077E400FDF7B6FB112E1BD012D836F0080331D0AA
:1077F4000D2E14BF03240D24B9F1000FD4D042463A
:1078040031462846FFF7E2FECEE700240122DEE7F8
:10781400862E13D043F20204A64218BF0324EBE7DA
:10782400114B3A4619782846FDF792FB0F4B524606
:1078340019782846FDF78CFB0024DDE70A4B3A460D
:1078440019782846FDF784FB084B524619782846D8
:10785400FDF77EFB3446CFE7F43B0020F03B0020ED
:10786400C12F0020C22F0020BF2F0020C02F0020D6
:107874002DE9F04792B00646FDF77EFB60B101A802
:10788400FDF72AFBDFF84C90DFF84CA00DF1060859
:107894000025019B9D4202D312B0BDE8F08738F861
:1078A400024F31462046FDF73DFB80B199F80010A8
:1078B4002046FDF737FB9AF8001007462046FDF7EF
:1078C40031FB012301463A462046FFF743FF0135C9
:1078D400DFE700BFC02F0020BF2F002010B50378C2
:1078E400052B044606D0122B0AD02046BDE81040D2
:1078F400FFF769BE81684088BDE81040FFF7B0BE5D
:107904000C4B1B689BB10C4B017A1B7803F00102F2
:1079140091420CD8417AC3F34003994294BF0021A9
:107924000121608801230022FFF714FFDDE7012114
:10793400F7E700BFF43B0020F83B002008B50378CC
:107944000B2B02D8072B0AD808BD132BFCD1094BEB
:107954001878FFF7E1FE084B1878FFF789FF074B0B
:107964001878FFF7D9FE064B1878BDE80840FFF7F2
:107974007FBF00BFBD2F0020C12F0020BE2F0020DD
:10798400C22F002010B50C480C4CFFF75FFE0C48CA
:10799400FFF75CFE0B48FFF759FE0B48FFF756FE56
:1079A4000A48FFF753FE2046FFF750FE2378182BB2
:1079B4000CBF0320002010BDC22F0020BD2F0020CB
:1079C400C12F0020C02F0020BF2F0020BE2F002079
:1079D40008B5FFF78BFC034B1878BDE80840FFF7A8
:1079E40047BF00BFC22F002010B5044630B90A4B70
:1079F40018600A4B01221A70002010BDFFF7B2FD77
:107A040038B1074B22681A6022791A71024A13604E
:107A1400EFE70720F1E700BFF43B0020F03B002034
:107A2400F83B0020FFF758BBA0DF7047A2DF704788
:107A3400A3DF7047A4DF7047A6DF704713B50C4679
:107A440049B140B10388112B07D0502B08D0102B1B
:107A540001D18388638202B010BD4FF6FF73F9E74A
:107A64000B7D002BF7D0C2884B899A42F3D1038A4D
:107A7400022BF0D10B68002BEDD01230FDF78AFAFF
:107A840080F001008DF80400236801A9204698477E
:107A9400E1E72DE9F043884693B00546002800F05D
:107AA4009780002900F094800B680A79036001270D
:107AB4004FF6FF73438202750374021D41F60F03F0
:107AC40004A938468DF81270ADF81030FFF7ACFFFA
:107AD4000446002876D12E7D56B111238DF8083046
:107AE40067F3420498F80D308DF809308DF80A4098
:107AF4001C2200210BA807F021FD4FF0020366F3BE
:107B040004138DF82C3006B102AE42F61923ADF8F9
:107B1400143098F80E308DF80C3098F80F308DF83A
:107B24000D3002238DF80E3098F80C308DF80330A8
:107B34000023CDF82230ADF826300DF103034FF0C9
:107B4400010910960A93A8888DF8169005AF03AE24
:107B5400AB1D06AA0BA906970796ADF82090ADF8C1
:107B64002490FFF763FF044660BBD8F8081069B39C
:107B740042F60813ADF80D00ADF8143098F8103043
:107B84008DF80C309DF80E308DF816900DF1040828
:107B940069F3420340468DF80E30FDF7FFF9CDF846
:107BA4002240ADF82000ADF8240005F10E02E8886B
:107BB400ADF8264006A9CDE90676CDF82880FFF772
:107BC40037FF0446204613B0BDE8F083E881F9E7A7
:107BD4000E24F7E770B588B004468DF80710002826
:107BE40034D0027CCBB29A424FF000002CD002ADCC
:107BF400ADF80A0001260DF10703E188608AADF8AB
:107C040008602A460393FFF715FFE8B99DF807308B
:107C14002374638A4FF6FF72934219D0227DBAB15E
:107C2400E288ADF81020BDF80A20CDF813008DF8D5
:107C34001700ADF8142004A9039A8DF812601846B1
:107C440006950792FFF7F8FE08B070BD0E20FBE71B
:107C54000820F9E7A0DF7047A2DF7047F0B50746B8
:107C64008FB014461E460D4611B9084601F092F92C
:107C740014B9204601F08EF91C220DEB02000021FC
:107C840007F05CFC02238DF81C3001238DF80630CC
:107C940033788DF8003073788DF8013002238DF835
:107CA40002300C48ADF804700023CDF81230ADF862
:107CB400163001AB029302AA149B0088CDF80CD0B5
:107CC40007A9ADF81040ADF814400695FFF7C4FFBE
:107CD4000FB0F0BD463C002030B587B041F60A0332
:107CE4005E4AADF80C30044603A901208DF80E005D
:107CF400FFF7B0FF0546002849D12288002A49D160
:107D0400228952B1564B0093E16804F13C0342F6D8
:107D14002420FFF7A3FF002847D1228A52B1514BF8
:107D24000093616904F13C0342F62520FFF796FFB6
:107D340000283AD1228B52B14B4B0093E16904F1F4
:107D44003C0342F62720FFF789FF00282DD1228C1F
:107D54004AB1464B0093616A04F13C0342F6262083
:107D6400FFF77CFF08BB228D4AB1414B0093E16AC7
:107D740004F13C0342F62820FFF770FFA8B9236BF7
:107D8400ABB9616B002938D1A36B002B42D12846D3
:107D940007B030BD374B0093616804F13C0342F6F1
:107DA4002920FFF75BFF0028AAD00546EFE71A68F1
:107DB4008DF810201A68120A8DF811205A888DF84F
:107DC4001220DA788DF813205A688DF814209B68F5
:107DD4008DF815301A0A1B0C8DF81730264B8DF8C8
:107DE40016200093082204F13C0304A942F6232040
:107DF400FFF734FF0028C4D0D7E7204B0A7900935B
:107E0400096804F13C0342F62A20FFF727FF002803
:107E1400BAD0CAE71A788DF810205A888DF8112044
:107E2400120A8DF812209A888DF81320120A8DF800
:107E34001420DB888DF815301B0A8DF81630104B92
:107E44000093072204F13C0304A942F65020FFF7F3
:107E540005FF002818BF054699E700BF463C0020EF
:107E6400363C00202E3C0020263C00201E3C0020F6
:107E7400163C00203E3C00200E3C0020063C002026
:107E8400FE3B0020A0DF7047A2DF7047A6DF7047EB
:107E940062DF70471FB50C4641B138B10388502BDF
:107EA40018D005D8102B0FD0112B10D004B010BD52
:107EB400572BFBD110220021684607F03FFB01231A
:107EC4008DF80030019417E08388A382EEE74FF623
:107ED400FF73FAE7C3880A8901919A420ED1028A94
:107EE400022A0BD11230FDF755F8002814BF0223E3
:107EF4000323A0758DF80030A3690EE0A2899A428D
:107F0400D4D1A369002BD1D000F112020292028ACB
:107F1400ADF80C2000228DF8002068469847C5E78C
:107F24002DE9F04F534B95B004AC05460A4603F1D6
:107F3400100C274618685968264603C6083363455B
:107F44003446F7D1002D00F09280002A00F08F8093
:107F54004FF6FF73AB821368AB610023AB75294600
:107F64003846FFF795FF044600287CD12A464FF097
:107F7400010812F8023B8DF80A3002A94046ADF818
:107F84000880FFF77FFF044600286CD101461C22BD
:107F94000DA807F0D3FA9DF834306888CDF82A404C
:107FA40023F00C0343F00C038DF834302B4601AE60
:107FB40013F80C2B8DF80E200222ADF80C2004F0DF
:107FC400F80242F003028DF8062041F2111A03AFC1
:107FD4004FF0F40B08AA0DA9CDF82E40ADF83240AD
:107FE400CDE90876ADF804A0ADF82880ADF82CB042
:107FF400FFF74AFFA1460446A8BB4B4668F3420379
:1080040001461C220DA88DF80230ADF800A007F03F
:1080140095FA9DF834306888CDF82A4043F010036F
:108024008DF834302B460DA913F8042B8DF80E204F
:108034000322ADF80C2009F0F80242F003028DF897
:10804400062008AACDF82E40CDE90876CDF848D010
:10805400ADF804A0ADF83290ADF82880ADF82CB09E
:10806400FFF712FF0446204615B0BDE8F08F0E243A
:10807400F9E700BF961103001FB50346D8B1808A03
:108084004FF6FF74A04218D09C7DB4B11488F42C30
:1080940015D89B88ADF800300024CDE902210123D6
:1080A4006946CDF803408DF807408DF80230FFF79C
:1080B400EDFE04B010BD0E20FBE70820F9E7072011
:1080C400F7E70000012907B5034604D0816891F859
:1080D4004111890707D500221146184603B05DF8FF
:1080E40004EB03F023BF536800931368034A02218F
:1080F40002F048FF03B05DF804FB00BFD4FE0200A9
:108104002DE9F04F836893F841319C0785B006460A
:10811400C3F3400706D50022114605B0BDE8F04F71
:1081240003F004BFDFF82882724AD8F89030DFF8F1
:1081340024A2DFF824B2C3F30729D8F89430CDF889
:10814400009013F0010F4FF008016B4B08BF13466A
:108154006A4A02F017FF4F4502D105B0BDE8F08F1F
:1081640000230DF10F008DF80F3001F051FAC8F81B
:108174009870D8F8A0509DF80F00D8F89C4001F0F2
:108184006BFAE9073B4606D45D4A0821304602F003
:10819400F9FE0137DFE752460821304602F0F2FECD
:1081A400C5F34402013201239340621E0193134438
:1081B40000935A4623460821304602F0E3FEC5F3F5
:1081C4000263013B062B96BF4E4A4F4B52F82330B5
:1081D4004E4A0821304605F47C1402F0D3FEB4F56F
:1081E400A02F40D00ED8B4F5803F3CD03DD9B4F593
:1081F400802F3AD013D805F47813B3F5003F0ED18D
:10820400434B14E0B4F5702F31D025D8B4F5002FCA
:10821400F6D01BD805F47813B3F5C02F27D0AA02E3
:1082240027D53B4A3B4B15F4802F08BF13463A4AE7
:108234000821304602F0A6FEB4F5403F52D01AD8C9
:10824400B4F5003F50D024D82F4B31E0B4F5302F93
:10825400D6D0B4F5402FE1E705F46C13B3F5801FD5
:10826400DDD12E4BE3E72E4BE1E72E4BDFE7294B25
:10827400DDE72D4BDBE7B4F5302F37D025D8B4F547
:10828400C02FE1D0E0D9B4F5E02FDDD0B4F5002F54
:10829400DAD0AB022CD56B0C2A0C02F0020203F0EC
:1082A4000C031343C5F300421343204A52F823300E
:1082B4001F4A0821304602F065FE1E4A1E4B15F087
:1082C400805F08BF13461D4A5FE7B4F5801FBBD02B
:1082D40005D8B4F5402FB7D0B4F5702FD8E7B4F56E
:1082E400A01FD5E7164BE3E7164BE1E7164BDFE794
:1082F400164BDDE7F8FE0200F0FE020099FF0200D3
:10830400C8FF0200A811030001FF020021000300BE
:1083140035FF02003CFF0200310003004EFF020063
:1083240023FF020007FF020055FF0200C4110300EF
:108334004000030004FF020096FF02005100030006
:108344007EFF020078FF020084FF02008EFF02001D
:1083540000ED00E0DEFF0200F3FF02002DE9F04F24
:108364008368264E93F84131D6F89070C3F34004E5
:108374009B0785B0054606D50022114605B0BDE829
:10838400F04F03F0D3BDD6F890301D4ADFF8788063
:10839400DFF87890082102F0F5FDD6F89430194AF8
:1083A4000821284602F0EEFDC7F30727BC4202D19C
:1083B40005B0BDE8F08F00230DF10F008DF80F30EC
:1083C40001F026F9C6F89840D6F8A0A09DF80F0051
:1083D400D6F89CB001F040F92346424608212846CD
:1083E400CDF800B002F0CEFD2346CDF800A04A46F9
:1083F4000821284602F0C6FD0134D7E700ED00E06D
:10840400620003007500030088000300A10003005C
:108414002DE9F74FDFF884901F2AD9F890600746BA
:108424008A4614469B4635D9013A02EA04059BB2B2
:108434001D430A4015432DD10DF107008DF8075057
:1084440001F0E6F8C6F30726A846B04514D0C9F8EB
:108454009880D9F8A030DB0702D508F10108F4E7C9
:10846400B4FA84F4C4F11E044BEA440444F0010455
:10847400C9F89CA0C9F8A0409DF8070001F0ECF8E9
:10848400B04509D2BFF34F8F87F80080284603B068
:10849400BDE8F08F0725F9E70425F7E700ED00E0D4
:1084A40073B5104DD5F89030C3F3072398420646B0
:1084B40015D200240DF107008DF8074001F0A8F84B
:1084C400C5F89860C5F8A040C5F89C409DF8070021
:1084D40001F0C2F8BFF34F8F204602B070BD0720F1
:1084E400FBE700BF00ED00E030B5184C184B85B039
:1084F40024F07F04802221460DF10F00FFF788FF4E
:10850400144B05465A6888B9022A0CD91888124BAC
:1085140012491B1B00040093224604F17F0340F020
:10852400030006F042F8284605B030BD002AFAD010
:108534001C8805F091F8240444F00104034608491A
:108544002A46204606F027F8EDE700BF7FF8002012
:1085540000002917102F002080FF00209001030045
:10856400C901030038B5074C051EA4F1080308BF70
:108574001C4623682BB11A6822605B68284698471A
:10858400F7E738BD583C002008B9FFF7EBBF704748
:108594004FF080420123D360D2F8183413F48033AF
:1085A400FAD1014A93707047483C002010B50E4C34
:1085B4002378BBB96360A360E36023610B4B186845
:1085C40010F0010002D1072100F0CEF806F06EFB96
:1085D40020B94FF080430122C3F8182501232370EA
:1085E400002010BD8520FCE7483C002000E100E0AD
:1085F40037B51F4CA378054603F0FF0293B110B1C1
:10860400436801209847002301A88DF8043000F046
:10861400FFFFE3689DF804000133E36001F01CF8F8
:1086240003B030BD0DF103008DF8032000F0F0FF1E
:1086340025B122691346B3B92A602561E26862B99B
:108644004FF08043C3F80421D3F804210192019A26
:108654000222C3F8042301229A60E3689DF8030010
:108664000133E360DAE79D42E8D01B68E3E700BF2B
:10867400483C002007B500230DF107008DF80730B2
:1086840000F0C6FF074BDA68013ADA60DB680BB921
:10869400FFF77EFF9DF8070000F0DEFF03B05DF8F2
:1086A40004FB00BF483C0020012813B508D0032870
:1086B4001CD018B9124B0122C3F8802002B010BD9F
:1086C400104C00230DF107008DF8073000F0A0FFD7
:1086D40023780BB9FFF76AFFE3689DF807000133BD
:1086E400E3600123A37000F0B7FFE7E70721002050
:1086F40000F03AF802B0BDE81040FFF7BBBF00BF7E
:1087040000E100E0483C00204FF0804307B5D3F877
:1087140000216AB10020C3F80001D3F800210092BF
:10872400009A0122C3F808230E4B5A70FFF71AFF70
:108734004FF08043D3F804218AB10022C3F8042106
:10874400D3F804210192019A0222C3F80823054BAD
:108754000120987003B05DF804EBFFF703BF03B08A
:108764005DF804FB483C00200028ADBF00F16043E5
:108774000C4B00F00F0203F561434FEA4111C9B2FB
:10878400B4BF995483F80013012200F01F039A40E8
:1087940043099B0003F1604303F56143C3F880215F
:1087A4001A60704714ED00E000F1804000F5C0400D
:1087B400002382B0036003680193019B02B07047F9
:1087C400800000F1A040D0F8003723F44033C0F813
:1087D4000037D0F8003743EA0143C0F80037704748
:1087E400054B4FF0FF32072843F8202084BF1B18A5
:1087F40083F84820704700BF5C3C002038B5124D18
:1088040095F85440ECB92022FF2105F1300006F020
:1088140095FEE0B20134FFF7E3FF0C2CF9D10620FA
:108824000721FFF7A1FF4FF4BE70FFF7BDFF074B11
:108834004FF00042C3F80423012385F8543000208C
:1088440038BD0820FCE700BF5C3C0020006000400D
:10885400034B93F85400003818BF0120704700BF41
:108864005C3C0020F0B5314E331893F93030002BC6
:108874005ADACF78002F0BBF082300234FF00C0CDB
:108884004FF0080C634501D10420F0BD56F8235085
:1088940001354FEA830431D106EB000C5DB246F892
:1088A40023208CF8305017B9334483F848008B7870
:1088B40033B3830003F1A043D3F8002722F002026C
:1088C400C3F800270A7827B304F1804303F5C043B3
:1088D4000002D3F8101521F4473121F44071C3F894
:1088E40010151204D3F8101500F4F85002F44032B5
:1088F40010430843C3F810050020C6E70133C1E75D
:108904004A7800F5E0734FF0A04C92004CF8232015
:10891400D8E7A5F1080346FA83F393F8501041EA27
:10892400821283F85020E7E70820AEE75C3C002081
:1089340010B51D4C231893F93020072A16DD144472
:1089440094F848309B09032B0BD14FF0A043D3F884
:108954001015C14001F001010231BDE81040FFF7DC
:108964002FBF012B0CBF02210321F6E7D3B2072B43
:1089740019D8930003F1804303F5C043D3F81005DD
:1089840040F00100C3F8100502F14000800080B2FD
:10899400FFF70AFF39B154F8223023B10123934081
:1089A400024AC2F8043310BD5C3C00200060004061
:1089B4004FF0A043D3F8103523FA00F000F0010083
:1089C400704700002DE9F04F85B000245C4D019400
:1089D4004FF48072012102F1804303F5C0431B6808
:1089E400012B07D1D5F804330B4203D090B2FFF723
:1089F400DBFE0C430432B2F5907F4FEA4101EAD129
:108A04004F4BD3F87C31012B0AD14FF4BE70FFF7E2
:108A1400CBFE4FF0A04344F00044D3F8103501934B
:108A2400E3B2D3B1474F00250126344210D0AB0046
:108A340003F1804303F5C043D3F81005D3F81015B0
:108A440057F8253023B1C1F30141C0F304209847FE
:108A54000135082D4FEA4606E7D1002C6DDA0021D6
:108A64004FF0FF33CDE90213364D01264FF00009D4
:108A7400354CC8464FF0A04714F9013F5A1C49D061
:108A8400C3F3C20101F110006844DAB210F804CC57
:108A940003F03F0A03F0070306FA03F31CEA030F8B
:108AA40038D005EB0A0C92099CF930C055F82CB06B
:108AB400BBF1000F0AD1032A2CD10DF1080E1EF8C8
:108AC40001C04CEA030C0EF801C001E0032AF4D003
