:020000022000DC
:106000000000012019620200016202000362020026
:10601000056202000762020009620200000000003F
:106020000000000000000000000000000B62020001
:106030000D620200000000000F6202001162020007
:1060400055CF020013620200B9DC020013620200A5
:106050001362020013620200B5DB02001362020049
:106060001362020013620200136202001362020054
:106070001362020013620200136202001362020044
:106080001362020071170300136202001362020020
:10609000136202001362020081C603001362020051
:1060A0001362020013620200136202001362020014
:1060B00013620200136202000000000000000000F2
:1060C00013620200136202001362020013620200F4
:1060D000136202001362020013620200000000005B
:1060E00000000000000000000000000000000000B0
:1060F00000000000000000000000000000000000A0
:10610000000000000000000000000000000000008F
:10611000000000000000000000000000000000007F
:10612000000000000000000000000000000000006F
:10613000000000000000000000000000000000005F
:10614000000000000000000000000000000000004F
:10615000000000000000000000000000000000003F
:10616000000000000000000000000000000000002F
:10617000000000000000000000000000000000001F
:10618000000000000000000000000000000000000F
:1061900000000000000000000000000000000000FF
:1061A00000000000000000000000000000000000EF
:1061B00000000000000000000000000000000000DF
:1061C00000000000000000000000000000000000CF
:1061D00000000000000000000000000000000000BF
:1061E00000000000000000000000000000000000AF
:1061F000000000000000000000000000000000009F
:10620000FEE7FEE7FEE7FEE7FEE7FEE7FEE7FEE766
:10621000FEE7FEE700F002B8FFF7FCBF0F484FF0C3
:106220000701884385460E4880470E48016841F4BF
:1062300070010160BFF34F8FBFF36F8F00F01AB88A
:1062400009480A490A4A884207D0521A05D00378F9
:1062500001300B700131013AF9D170470000012083
:106260002595020088ED00E094D60300D82A00208E
:10627000202B00203A493B480A1A02D007229143BA
:106280008D46394939480A1A06D00722914381F3CD
:106290000988022282F3148835483649364A00F0CC
:1062A00041F836483649374A00F03CF83648374915
:1062B000374A00F037F837483749384A00F032F8A3
:1062C00037483849384A00F02DF838483849394AB3
:1062D00000F028F838483949394A00F023F839489D
:1062E0003949002200F036F838483949002200F0D8
:1062F00031F838483849091A16F001FF374A9047F3
:1063000025482649884205D00268043003B49047E6
:1063100003BCF7E700208646EC4600200021304A07
:106320009047FEE7884214D0521A12D003460B431E
:1063300013430324234206D1036804300B60043165
:10634000043AF9D17047037801300B700131013AFA
:10635000F9D17047884202D002700130FAE77047E5
:106360000000012000E000200000012000000120CA
:106370000C140400202B00203C2D0020E4630200BC
:10638000E4630200C2D403000C140400202B00209C
:10639000202B0020DCD60300DCD60300DCD6030073
:1063A000DCD60300DCD60300DCD60300DCD6030019
:1063B000DCD6030009140400281604003C2D00203C
:1063C0003C2D00203C2D00200447002004470020E5
:1063D00008470020084700200867002041620200AB
:0463E000C97D020071
:1063E40082B00190019B9B68D3F84831C3F340030A
:1063F400DBB2002B14BF01230023DBB2184602B02A
:106404007047000030B58DB0124B02AC1D460FCD65
:106414000FC495E80F0084E80F00052302930B23B3
:10642400039300238DF81C3002A903230093012356
:106434000122094811F02EFB0B900B9B0A930A9B37
:10644400002B04D0054A67210A9809F005FF00BF14
:106454000DB030BDD4D7030094DD03006CD7030026
:1064640000B583B0084811F053FB0190019B0093E1
:10647400009B002B04D0054A6E21009809F0ECFE25
:1064840000BF03B05DF804FB94DD03006CD7030088
:1064940008B5024811F088FB00BF08BD94DD030075
:1064A40000B587B0059004910392039B0193049B6C
:1064B4000093039B044A0221059811F005FC00BFD8
:1064C40007B05DF804FB00BFF4D7030000B585B046
:1064D40003900291029B0093029B044A02210398B9
:1064E40011F0F2FB00BF05B05DF804FB28D80300EF
:1064F40000B58DB00790069105920493069B9BB25C
:10650400ADF82030059B9BB2ADF82230049B099373
:106514000E9B03339B080A930E9B0293049B0193E7
:10652400059B0093069B0D4A0021079811F0CCFBB4
:1065340008AB194600200EF0F9FB0B900B9B002BC7
:1065440008D00B9800F0CEFB0346054A02210798B9
:1065540011F0BAFB00BF0DB05DF804FB5CD803007A
:10656400A4D8030000B58DB00190009108AB0022BF
:106574001A605A609A6006AB00221A605A6006AB31
:1065840008AA47F2100148F210000EF06AFC034614
:10659400002B1FD148F21003ADF80C3047F2100362
:1065A400ADF80E30009B04930623059303AA08ABB1
:1065B400114618460EF0C9FB0B900B9B002B0ED016
:1065C4000B9800F08FFB0346074A0221019811F053
:1065D4007BFB04E0054A0221019811F075FB00BF22
:1065E4000DB05DF804FB00BFCCD80300F8D803005D
:1065F40000B58DB005900491039209AB00221A6096
:106604005A6006AB00221A605A609A60039B00939A
:10661400049B184A0021059811F056FB049B98B27C
:10662400039B99B209AB06AA0EF01BFC0346002B90
:1066340018D106AB18460EF09DFB0B900B9B002B5C
:1066440009D00B9800F04EFB03460B4A0221059833
:1066540011F03AFB0BE0069B084A0021059811F063
:1066640033FB04E0064A0221059811F02DFB0DB01E
:106674005DF804FB1CD9030048D9030074D9030056
:1066840088D9030000B587B003AB00221A605A60B2
:106694006B4600221A605A609A6003AA6B46114640
:1066A40018460EF0CFFB0346002B0BD16B46184661
:1066B4000EF060FB0590059B002B01D0002302E047
:1066C400012300E00023184607B05DF804FB000036
:1066D40000B585B00390029101920398FFF780FE04
:1066E4000346002B05D000220021039811F018FC6A
:1066F4000FE0029B022B04D008490398FFF7E6FE43
:1067040007E0019B04331B68044A19460398FFF70A
:10671400C7FE00BF05B05DF804FB00BFA4D90300A9
:1067240000B593B00790069105920CAB00221A6055
:106734005A609A600AAB00221A605A6061E008ABA2
:1067440000221A605A6008AA0CAB114618460EF0D3
:1067540063FA1190119B48F20C6293420DD0119B85
:1067640048F20C62934214D8119B002B1BD0119B4E
:1067740048F20962934206D00BE02A4A02210798A4
:1067840011F0A2FA3DE0284A0221079811F09CFA80
:1067940037E0119800F0A6FA0346244A022107982C
:1067A40011F092FA2DE000BF099B1093109B1B7D02
:1067B400002B01D01E4800E01E48109B5B7D002B7F
:1067C40001D01B4B00E01B4B109A12681099043146
:1067D4000291019200930346174A0021079811F091
:1067E40073FA0CAB18460EF055FA1190119B0F93E7
:1067F4000F9B002B05D0114A4FF4A1710F9809F09B
:106804002BFD0AAB0CAA47F2100148F210000EF05F
:1068140028FB0346002B92D000BF00BF13B05DF8E5
:1068240004FB00BFACD9030088D90300C8D9030016
:10683400E4D90300E8D90300ECD903006CD70300C2
:1068440000B593B00790069105920DAB00221A6033
:106854005A600AAB00221A605A609A60384A0021D2
:10686400079811F031FA5AE008AB00221A605A6016
:1068740008AA0AAB114618460EF0CEF91190119BE6
:1068840048F20C6293420DD0119B48F20C62934281
:1068940014D8119B002B1BD0119B48F20962934220
:1068A40006D00BE0274A0221079811F00DFA36E0D2
:1068B400254A0221079811F007FA30E0119800F0F8
:1068C40011FA0346214A0221079811F0FDF926E046
:1068D40000BF089B5B889B001093089B9A68089BE9
:1068E4009B881946089B1B881846109B02930190AD
:1068F40000911346164A0021079811F0E5F90AABF6
:1069040018460EF0C7F91190119B0F930F9B002BA3
:1069140005D0104A4FF4BE710F9809F09DFC0DAAE2
:106924000AAB114618460EF08DFA034648F2096286
:10693400934299D100BF00BF13B05DF804FB00BFC0
:1069440024DA0300ACD9030088D90300C8D90300B2
:1069540048DA03006CD7030000B589B005900491B0
:1069640003920598FFF73CFD0346002B05D0002257
:106974000021059811F0D4FA49E0049B042B04D0BB
:1069840025490598FFF7A2FD41E0039B04331B68EA
:1069940010220021184616F0D3F80346ADF81E3035
:1069A400039B08331B6810220021184616F0C8F810
:1069B4000346ADF81C30039B0C331B68184616F0D5
:1069C400D8FB0346FF2B07D8039B0C331B681846E0
:1069D40016F0CFFB034601E04FF4807306934FF4A7
:1069E400807200210D4816F08FFC039B0C331B684A
:1069F400069A1946094816F055FCBDF81E10BDF854
:106A04001C20069B0093054B0598FFF771FD00BF02
:106A140009B05DF804FB00BF70DA0300E430002025
:106A240000B58BB00790069105920798FFF7D8FC44
:106A34000346002B05D000220021079811F070FABC
:106A440072E0069B052B04D039490798FFF73EFDF9
:106A54006AE018220021374816F056FC059B0433DF
:106A64001B683549184616F0D1FB0346002B0CBFB2
:106A740001230023DAB22F4B1A75059B08331B68D8
:106A84002D49184616F0C2FB0346002B0CBF012308
:106A94000023DAB2274B5A75059B0C331B680A2274
:106AA4000021184616F04CF803461A46214B1A608A
:106AB400059B10331B68184616F05BFB03460F2B2F
:106AC40008D8059B10331B68184616F052FB034682
:106AD4009BB200E01023ADF82630059B10331B68F1
:106AE400BDF826201946154816F0DCFB114B1B7D1A
:106AF400002B01D0104900E011490E4B5B7D002BA7
:106B040001D00D4B00E00E4B0A4A12680B4802906C
:106B1400019200930B460B4A0021079811F0D4F818
:106B240004490798FFF71EFD00BF0BB05DF804FB96
:106B340078DA0300E4310020E4D90300E8310020CE
:106B4400E8D9030080DA030000B587B0039002910E
:106B540001920398FFF744FC0346002B05D0002262
:106B64000021039811F0DCF920E0029B022B04D8E9
:106B740010490398FFF7AAFC18E0019B04331B6833
:106B840010220021184615F0DBFF03460593019BF4
:106B940008331B6810220021184615F0D1FF034664
:106BA4000493049A05990398FFF722FD00BF07B0E8
:106BB4005DF804FBC4DA030000B585B003900291CC
:106BC40001920398FFF70CFC0346002B05D000222A
:106BD4000021039811F0A4F909E0029B012B04D0D1
:106BE40005490398FFF772FC01E000F045F900BF86
:106BF40005B05DF804FB00BFCCDA030070B592B0B9
:106C04000990089107920998FFF7EAFB0346002BC5
:106C140005D000220021099811F082F93AE00BAB6B
:106C240000221A605A609A60DA601A820BAB184626
:106C34000EF02EF91190119B1093109B002B05D090
:106C4400164A40F2F711109809F006FBBDF82C30F3
:106C54001E46BDF830301A46BDF832301344BDF834
:106C640030201146BDF832201046BDF838201446B5
:106C7400BDF83A201546BDF83A20920005920495D5
:106C840003940290019100933346054A0021099828
:106C940011F01AF800BF12B070BD00BF6CD703002A
:106CA400D8DA030000B587B00390029101920EF088
:106CB40097F80590059B002B09D0059800F012F871
:106CC4000346054A0221039810F0FEFF00E000BFCE
:106CD40000BF07B05DF804FB50DB030041DF7047E1
:106CE40000BF184682B00190019BA3F50643034AF6
:106CF40052F82330184602B0704700BF9C2B002086
:106D040030B583B00190019B5B68002B11D1504AD0
:106D1400504BD31ADB081B0443F00300019B1B7880
:106D24001A464D4B53F822301A464C4913F086FF4D
:106D340018E0474A474BD31ADB081B0443F003040B
:106D4400019B1B781A46444B53F822301D46019B85
:106D54005B681846FFF7C6FF03462A4640492046AB
:106D640013F07DFF019B1B78032B3AD0032B67DCC8
:106D7400002B02D0012B08D062E0019B5B68002B42
:106D840060D1384B01221A705CE0019B5B68002BD8
:106D94005AD12F4A2F4BD31ADB081B0443F00300AC
:106DA400019B9B681A46304913F048FF284A294B37
:106DB400D31ADB081B0443F00300019B9B891A468A
:106DC4002A4913F03BFF224A224BD31ADB081B0447
:106DD40043F00300019BDB891A46254913F02EFF7B
:106DE40032E0019B5B68002B26D1194A194BD31A58
:106DF400DB081B0443F00300019B9B681A461A49F5
:106E040013F01CFF124A134BD31ADB081B0443F084
:106E14000300019B9B891A46144913F00FFF0C4A87
:106E24000C4BD31ADB081B0443F00300019BDB89E2
:106E34001A460F4913F002FF0E4B00225A7004E069
:106E440000BF02E000BF00E000BF00BF03B030BDE0
:106E54000CD60300E4D503006C2B0020B8DE03003D
:106E6400E0DE0300FE31002000DF030014DF030036
:106E740024DF0300FC310020024B01221A7000BF02
:106E8400704700BFFC31002008B5184B1B781A4628
:106E9400164B5B7883F00103DBB21340002B22D046
:106EA400134A144BD31ADB081B0443F0030312499F
:106EB400184613F0B5FEFFF7E5FB03461A460B4BE5
:106EC4001A700A4B1B7883F00103DBB2002B0AD043
:106ED400074A084BD31ADB081B0443F00303074992
:106EE400184613F09DFE00BF08BD00BFFC31002012
:106EF4000CD60300E4D5030038DF030050DF0300A1
:106F040008B5FFF7EBFE00BF08BD000008B501E0BF
:106F1400FFF7F6FF054B1B78DBB283F00103DBB20E
:106F2400002BF5D100BF00BF08BD00BFFE3100201B
:106F340000B595B0FFF766FAB24AB34BD31ADB0833
:106F44001B0443F00303B149184613F069FEB0482B
:106F54000DF04EFDAB4AAC4BD31ADB081B0443F0D7
:106F64000303AC49184613F05BFE0DF0BDFD13900E
:106F7400139B1293129B002B05D0A74A4FF49271D6
:106F8400129809F069F9FFF7C1FF9E4A9E4BD31A84
:106F9400DB081B0443F00303A049184613F040FE2A
:106FA400984A994BD31ADB081B0443F003039C490A
:106FB400184613F035FE934A934BD31ADB081B048F
:106FC40043F003039749184613F02AFE8D4A8E4B6B
:106FD400D31ADB081B0443F003039349184613F048
:106FE4001FFE884A884BD31ADB081B0443F00303B3
:106FF4008E49184613F014FE824A834BD31ADB08D9
:107004001B0443F003038A49184613F009FE7D4A22
:107014007D4BD31ADB081B0443F003038549184650
:1070240013F0FEFD774A784BD31ADB081B0443F0B8
:1070340003038149184613F0F3FD724A724BD31AC5
:10704400DB081B0443F003037C49184613F0E8FDF6
:107054006C4A6D4BD31ADB081B0443F003037849D5
:10706400184613F0DDFD08AB00221A605A609A60DE
:10707400DA601A8208AB18460DF00AFF1390139BCE
:107084001193119B002B05D0634A4FF49C71119806
:1070940009F0E2F85B4A5C4BD31ADB081B0443F0AB
:1070A4000303BDF824206749184613F0C7FD554A69
:1070B400554BD31ADB081B0443F00303BDF8262009
:1070C4006149184613F0BAFD05AB00221A605A60F4
:1070D4009A6003AB00221A605A6003AB05AA47F218
:1070E400100148F210000DF0BCFE1390139B002B0E
:1070F40063D101AB00221A605A6001AA05AB1146A4
:1071040018460DF089FD1390139B0F930F9B002BD2
:1071140005D0414A40F249110F9809F09DF8029BAD
:1071240018221946494816F0BDF8364A364BD31A88
:10713400DB081B0443F00303444A1268444918461D
:1071440013F07CFD414B1B680133404A136005ABCF
:1071540018460DF09FFD1390139B0E930E9B002B6E
:1071640005D02D4A40F255110E9809F075F805AB7B
:10717400384918460DF0E9FD1390139B002B10D0ED
:10718400139B48F2066293420BD11E4A1E4BD31A3C
:10719400DB081B0443F003032F49184613F040FD9A
:1071A4006AE0139B0D930D9B002B65D01A4A40F2A5
:1071B4005F110D9809F050F85EE0124A124BD31A91
:1071C400DB081B0443F003032449184613F028FD8D
:1071D40005AB204918460DF0A9FD1390139B002B15
:1071E4003ED0139B48F20662934239D1054A064BBE
:1071F400D31ADB081B0443F003031749184613F0A2
:107204000FFD39E00CD60300E4D50300E4DF0300EE
:10721400056D0200FCDF030074DF030010E00300CF
:1072240024E0030040E0030064E0030084E0030082
:107234009CE00300B8E00300D4E00300F4E00300A2
:1072440014E1030038E1030050E10300842B002023
:1072540088E1030078E30300B8E10300FCE10300E4
:10726400139B1093109B002B06D0054A4FF4B77163
:10727400109808F0F1FFFFE700BF15B05DF804FBBC
:1072840074DF030033DF704700BF184641DF7047E7
:1072940000BF18464FF08043D3F8003418467047B7
:1072A40082B001904FF08042019BC2F8003400BFCD
:1072B40002B0704776DF704700BF18467ADF704728
:1072C40000BF18467CDF704700BF18467FDF704759
:1072D40000BF18468FDF704700BF1846B1DF704704
:1072E40000BF184600B583B003460091ADF80630E0
:1072F400BDF80630009A1946034808F0ADFF00BFF8
:1073040003B05DF804FB00BFEFBEADDE00B583B093
:1073140009F0D0FB0190019B0093009B002B04D04B
:10732400044A8E21009808F097FF00BF03B05DF86F
:1073340004FB00BF84E3030000B587B09DF8003070
:10734400012262F303038DF800309DF8003001221E
:1073540062F307138DF800306B460B221A49184666
:10736400FFF7B0FF0590059B0493049B002B04D00A
:10737400164AA121049808F06FFF01AB08220021EE
:10738400184615F0C1FF1023ADF804303C23ADF8C6
:1073940006300023ADF808304FF4C873ADF80A3056
:1073A40001AB1846FFF78AFF0590059B0393039BE7
:1073B400002B04D0054AAB21039808F04DFF00BF11
:1073C40007B05DF804FB00BFDCE3030084E30300C3
:1073D40000B583B00190044AB821019808F03CFF3D
:1073E40000BF03B05DF804FB84E3030000B587B07D
:1073F4000190019B1B78002B5CD1304A304BD31A8F
:10740400DB081B0443F004032E49184613F008FC60
:107414002A4A2B4BD31ADB081B0443F00400019BBC
:107424001969019B9B8A1A4613F05EFC002305939D
:107434002AE0019B1A69059B13441B78184609F03E
:10744400C5FC0490049B002B18D0049B112B15D071
:107454001A4A1B4BD31ADB081B0443F00103049A9A
:107464001949184613F0EAFB049B0393039B002B72
:1074740004D0164AD621039808F0EEFE049B112B83
:10748400D7D0059B01330593019B9B8A1A46059B24
:107494009342CED3019B1A69019B9B8A013B1344FF
:1074A4001B780D2B06D100BF0A2009F08FFC034680
:1074B400112BF9D000BF07B05DF804FB0CD6030014
:1074C400E4D50300E8E303001CE4030084E30300C1
:1074D40000B587B000230193164B019301AB194605
:1074E400154804F0ADFE0590059B0493049B002B06
:1074F40004D0124AF021049808F0AEFE02AB042234
:107504000021184615F000FF0D4B029302AB1946FB
:107514000C4805F0D1F80590059B0393039B002BC1
:1075240004D0064AF821039808F096FE00BF07B07D
:107534005DF804FBD57302001832002084E30300D5
:10754400F1730200E02B002000B585B00190019B8F
:107554001B78002B11D10B4B1B883B211846FFF7DE
:10756400A9FE0390039B0293029B002B05D0064ABD
:107574004FF48771029808F06FFE00BF05B05DF804
:1075840004FB00BFFC2B002084E3030000B583B0A0
:107594000190054A40F21911019808F05DFE00BF00
:1075A40003B05DF804FB00BF84E3030000B58BB0B7
:1075B40001AB1C220021184615F0A6FE00230193FE
:1075C4004FF4A03302934FF4F023039303238DF875
:1075D40010300023ADF8123000238DF814300C4B1A
:1075E40006930C4B079301AB184603F0D7FC0990A4
:1075F400099B0893089B002B05D0074A4FF4987108
:10760400089808F029FE00BF0BB05DF804FB00BF2A
:107614004D7502009175020084E3030000B585B046
:10762400002001F05FFA0390039B0293029B002B5E
:1076340005D0134A40F23B11029808F00DFE01F008
:10764400DAFB0390039B0193019B002B05D00C4AAA
:1076540040F23F11019808F0FFFDFFF713FE03907D
:10766400039B0093009B002B05D0054A40F2431175
:10767400009808F0F1FD00BF05B05DF804FB00BF01
:1076840084E3030000B585B003468DF807309DF808
:107694000730002B11D0032B12D1022001F022FA63
:1076A4000390039B0293029B002B0BD0084A40F2E9
:1076B4005511029808F0D0FD04E0FFF7E7FD02E061
:1076C40000BF00E000BF00BF05B05DF804FB00BFD1
:1076D40084E3030000B58DB001900091019B1B88E9
:1076E400562B00F0DF80562B00F3EF80522B00F076
:1076F400B280522B00F3E980212B2DDC102BC0F239
:10770400E480103B112B00F2E08001A252F823F038
:1077140065770200C9770200CF780200337802004F
:10772400CF780200CF780200CF780200CF78020031
:10773400CF780200CF780200CF780200CF78020021
:10774400CF780200CF780200CF780200CF78020011
:10775400CF780200E97702003B2B00F09080B4E080
:10776400624A634BD31ADB081B0443F003036149E9
:10777400184613F055FA072001F0B4F90B900B9B4F
:107784000593059B002B05D05B4A40F26F110598C9
:1077940008F062FD019B9A88584B1A80574B1B884E
:1077A4001946574804F06EFD0B900B9B0493049B01
:1077B400002B00F08C80504A4FF4B971049808F003
:1077C4004BFD84E0494A4A4BD31ADB081B0443F0BF
:1077D40003034C49184613F023FA484B4FF6FF7243
:1077E4001A807FE0414A424BD31ADB081B0443F062
:1077F40004034549184613F013FA00238DF80C309E
:1078040000238DF80D30019B9B8803AA114618466E
:10781400FFF760FD0B900B9B0793079B002B58D041
:10782400354A4FF4C271079808F016FD51E0334B06
:107834001888002300228521FFF748FD0B900B9B3D
:107844000693069B002B46D02B4A4FF4C57106982D
:1078540008F002FD3FE0294B188800230022002194
:10786400FFF73CFD0B900B9B0993099B002B34D035
:10787400214A4FF4C871099808F0EEFC2DE0019BF1
:107884009B8813211846FFF715FD0B900B9B08935B
:10789400089B002B23D0184A40F29711089808F04F
:1078A400DBFC1CE0019B9B8813211846FFF702FDBB
:1078B4000B900B9B0A930A9B002B12D00E4A4FF499
:1078C400CF710A9808F0C8FC0BE000BF0AE000BFC3
:1078D40008E000BF06E000BF04E000BF02E000BF14
:1078E40000E000BF00BF0DB05DF804FB0CD6030040
:1078F400E4D5030048E4030084E30300FC2B0020E8
:107904001832002054E4030064E4030000B587B097
:1079140014F0D4FD0590059B0493049B002B05D023
:10792400164A40F2B111049808F096FC0023019322
:1079340001AB1946012014F0D7FE0590059B039373
:10794400039B002B05D00D4A40F2B711039808F0B1
:1079540083FC01AB184614F0E5FF0590059B0293E8
:10796400029B002B05D0054A40F2BB11029808F097
:1079740073FC00BF07B05DF804FB00BF84E30300A1
:1079840000B583B001900091009B5A88184B1B8866
:107994009A421AD1009B1B8840F67722934214D155
:1079A400009B9B88033B9AB2124B1A80124A134BDA
:1079B400D31ADB081B0443F003000E4B1B881A4642
:1079C4000C4B1B880E4913F04AF90B4A0B4BD31A84
:1079D400DB081B0443F00400019B5B881A46019BEF
:1079E4001B88084913F03BF900BF03B05DF804FBA2
:1079F400FC2B0020FE2B00200CD60300E4D5030052
:107A040078E4030094E4030000B585B011491248FA
:107A140004F000FB0390039B0293029B002B05D010
:107A24000E4A4FF4EB71029808F016FCF7210A484D
:107A340004F01BFB0390039B0193019B002B05D0D7
:107A4400064A40F2D911019808F006FC00BF05B0BF
:107A54005DF804FB857902000432002084E303000E
:107A640000B587B003468DF807309DF807300A2B20
:107A740006D00A2B36DC042B05D0072B19D031E0B5
:107A8400FFF7CCFD33E01C4B1B8813211846FFF78E
:107A940011FC0590059B082B26D0059B0393039BA3
:107AA400002B21D0154A4FF4F771039808F0D4FB4A
:107AB4001AE0114B1B884FF6FF72934216D11048FF
:107AC40003F0EDF80590059B082B0FD0059B04935C
:107AD400049B002B0AD0094A4FF4FC71049808F067
:107AE400BBFB03E000BF02E000BF00E000BF00BF3B
:107AF40007B05DF804FB00BFFC2B002084E3030007
:107B04002432002000B5AFB001ABAC2200211846EE
:107B140015F0FAFB02238DF8043000238DF80630AB
:107B240005238DF807300123ADF85030124B15931F
:107B340001238DF880304023239344F2506324932F
:107B44000E4B2A9301AB19460D4802F08DFE2D9081
:107B54002D9B2C932C9B002B05D00A4A40F27521B7
:107B64002C9808F079FB0121054802F070FE00BF53
:107B74002FB05DF804FB00BF002C002089760200C2
:107B84002432002084E3030000B587B00190174934
:107B9400032000F0C1FF0590059B0493049B002B78
:107BA40005D0134A4FF42171049808F055FB0DF1E8
:107BB4000B031946002001F081F90590059B0393FE
:107BC400039B002B05D00A4A40F28721039808F052
:107BD40043FB9DF80B30022B0CBF01230023DAB2C8
:107BE400019B1A7000BF07B05DF804FB657A0200C0
:107BF40084E3030000B583B04FF48041002012F009
:107C0400FDFC0190019B0093009B002B05D0064ACC
:107C140040F29221009808F01FFB12F07BFC00BF99
:107C240003B05DF804FB00BF84E3030000B583B038
:107C34000AF0A4FE0190019B0093009B002B05D049
:107C4400044A40F29E21009808F006FB00BF03B0EE
:107C54005DF804FB84E3030000B583B00321094805
:107C640002F0DAFE0190019B0093009B002B05D0EB
:107C7400054A4FF42D71009808F0EEFA00BF03B0E6
:107C84005DF804FB2432002084E3030000B583B0D4
:107C9400FFF700FB0190414A414BD31ADB081B0458
:107CA40043F00303019A3F49184612F0C7FF019BB2
:107CB40003F00103002B0AD0384A394BD31ADB08EE
:107CC4001B0443F003033849184612F0A9FF019B33
:107CD40003F00203002B0AD0304A314BD31ADB08DD
:107CE4001B0443F003033149184612F099FF019B2A
:107CF40003F00403002B0AD0284A294BD31ADB08CB
:107D04001B0443F003032A49184612F089FF019B20
:107D140003F00803002B0AD0204A214BD31ADB08B6
:107D24001B0443F003032349184612F079FF019B17
:107D340003F48033002B0AD0184A194BD31ADB08FA
:107D44001B0443F003031C49184612F069FF019B0E
:107D540003F40033002B0AD0104A114BD31ADB086A
:107D64001B0443F003031549184612F059FF019B05
:107D740003F48023002B0AD0084A094BD31ADB08EA
:107D84001B0443F003030E49184612F049FF0198FF
:107D9400FFF786FA00BF03B05DF804FB0CD60300BE
:107DA400E4D5030008E5030020E5030034E50300FF
:107DB40048E5030064E5030078E5030094E5030067
:107DC400ACE5030000B583B0FFF760FFFFF712FFD7
:107DD400FFF79CFA0DF107031846FFF7D5FEFFF7EE
:107DE40025FFFFF793FDFFF7A7FAFFF70DFEFFF757
:107DF4006FFBFFF787FEFFF7D9FBFFF799F8FFF753
:107E04002BFFFEF72DFB0E4814F060FF0D4A0E4BBE
:107E1400D31ADB081B0443F003030C49184612F081
:107E2400FFFE13F013F8034683F00103DBB2002BCB
:107E340001D0FFF765F8FEF72BFBFFF725F8F0E715
:107E4400CCE503000CD60300E4D50300E0E5030011
:107E540000B583B00190019B1B68184600F011F92E
:107E64000346002B04D105494FF4F670FFF73AFAA4
:107E74004FF0A043184603B05DF804FB0CE6030082
:107E840000B585B00190084611461A4603468DF8A0
:107E940003300B468DF8023013468DF8013001ABE8
:107EA4001846FFF7D5FF03909DF803209DF8023094
:107EB4005B001A439DF801309B001A439DF818306B
:107EC4001B0242EA03019DF81C301B04019A19436A
:107ED400039B02F5E07243F8221000BF05B05DF881
:107EE40004FB00B585B003900023019300230093A5
:107EF4000023012201210398FFF7C2FF00BF05B050
:107F04005DF804FB00B585B003900B468DF80B308B
:107F14009DF80B30002201920022009200220021E1
:107F24000398FFF7ADFF00BF05B05DF804FB00B593
:107F340085B0019001AB1846FFF78AFF0390019BBF
:107F4400012202FA03F31946039800F086F800BFF1
:107F540005B05DF804FB00B585B0019001AB18468F
:107F6400FFF776FF0390019B012202FA03F31946FF
:107F7400039800F07CF800BF05B05DF804FB00B581
:107F840085B0019001AB1846FFF762FF0390039B95
:107F9400D3F804350293029BDA43019B012101FAD1
:107FA40003F31A40039BC3F80825019B01229A405E
:107FB400029B1A40039BC3F80C2500BF05B05DF873
:107FC40004FB00B583B001900091009B002B03D10A
:107FD4000198FFF7C0FF02E00198FFF7A8FF00BF78
:107FE40003B05DF804FB00B585B0019001AB184601
:107FF400FFF72EFF0390039800F01FF80246019B41
:1080040022FA03F303F00103184605B05DF804FBFC
:1080140000B585B0019001AB1846FFF719FF039036
:10802400039800F012F80246019B22FA03F303F0CE
:108034000103184605B05DF804FB82B00190019B72
:10804400D3F81035184602B0704782B00190019BF6
:10805400D3F80435184602B0704782B001900091FD
:10806400019B009AC3F8082500BF02B0704782B094
:1080740001900091019B009AC3F80C2500BF02B047
:10808400704784B00190019B5B0902930023039322
:10809400029B002B03D14FF0FF33039300BF019BDE
:1080A40003F01F030193039A019B22FA03F303F0E5
:1080B4000103002B14BF01230023DBB2184604B0D4
:1080C4007047000000B585B00190019B032B03D9D4
:1080D40011493A20FFF706F9104A019B13441B7813
:1080E4001846FFF795FF0346002B14BF0123002316
:1080F4008DF80F309DF80F30002B14BF012300239F
:10810400DBB283F00103DBB203F00103DBB21846F8
:1081140005B05DF804FB00BF3CE6030084E6030001
:1081240000B583B00190019B032B03D9074941207B
:10813400FFF7D8F8064A019B13441B780021184620
:10814400FFF73FFF00BF03B05DF804FB3CE603000C
:1081540084E6030000B583B00190019B032B03D98F
:1081640007494720FFF7BEF8064A019B13441B78D2
:1081740001211846FFF725FF00BF03B05DF804FB9B
:108184003CE6030084E6030000B583B000230193BA
:1081940005E00198FFF7DEFF019B01330193019B8A
:1081A400032BF6D900BF00BF03B05DF804FB00B594
:1081B40083B00023019305E00198FFF7B1FF019B11
:1081C40001330193019B032BF6D900BF00BF03B019
:1081D4005DF804FB00B583B00190019B032B03D928
:1081E40007495F20FFF77EF8064A019B13441B787A
:1081F4001846FFF7C4FE00BF03B05DF804FB00BFE0
:108204003CE6030084E6030000B583B00023019339
:1082140009E0094A019B13441B781846FFF761FEE5
:10822400019B01330193019B032BF2D9FFF7ACFFB0
:1082340000BF03B05DF804FB84E6030000B585B01D
:108244000190019B032B03D91149AC20FFF74AF895
:10825400104A019B13441B781846FFF7C4FE0346DB
:10826400002B14BF012300238DF80F309DF80F302D
:10827400002B14BF01230023DBB283F00103DBB224
:1082840003F00103DBB2184605B05DF804FB00BF40
:108294003CE6030088E6030000B583B000230193A5
:1082A4000AE0094A019B13441B7803211846FFF78F
:1082B40029FE019B01330193019B032BF1D900BFDC
:1082C40000BF03B05DF804FB88E6030084B00190AE
:1082D4004FF0FF330293002303930DE00A4A039BFC
:1082E40013441B781A46019B934202D1039B0293C9
:1082F40005E0039B01330393039B032BEED9029BFD
:10830400184604B0704700BF88E6030000B583B088
:108314000190019B032B03D90549CB20FEF7E2FF13
:10832400044A019B13441B78184603B05DF804FB10
:108334003CE6030088E6030000B583B00190019B8E
:1083440003F00103002B01D0FFF75EFF019B03F054
:108354000203002B01D0FFF79FFF00BF03B05DF8BD
:1083640004FB000000B583B00190019B1B68184614
:1083740000F03DF80346002B04D105494FF4F67094
:10838400FEF7B0FF4FF0A043184603B05DF804FBBE
:108394008CE6030000B585B001900B468DF80330E0
:1083A40001AB1846FFF7DEFF0390019A039B02F529
:1083B400E07253F82230019A23F44031039B02F512
:1083C400E07243F82210019A039B02F5E07253F81D
:1083D40022109DF803301B04019A1943039B02F5F4
:1083E400E07243F8221000BF05B05DF804FB84B0CE
:1083F4000190019B5B09029300230393029B002BD2
:1084040003D14FF0FF33039300BF019B03F01F031D
:108414000193039A019B22FA03F303F00103002B57
:1084240014BF01230023DBB2184604B0704700B523
:1084340083B00190019B032B04D80198FFF7FEFE43
:10844400034600E00023184603B05DF804FB000077
:1084540000B587B003460A468DF8073013468DF8F9
:10846400063000238DF81730002304939DF807305D
:108474001846FFF72BFF0490049B032B62D89DF84A
:108484000630022B52D0022B5CDC002B31D0012BA6
:1084940058D13549049A13465B0013440B441B78A6
:1084A4008DF817303049049A13465B0013440B448B
:1084B40001331B78002B0ED02C4B2D4A4FF48041F6
:1084C400184608F06FFB0390039B002B03D1284A46
:1084D4009DF8073013702449049A13465B00134433
:1084E4000B4402331978234A049B13440A461A7036
:1084F40028E01E4B184608F0ADFB1E4A049B1344AB
:1085040019781948049A13465B0013440344023350
:108514001B78994215D11449049A13465B001344FD
:108524000B4402331B788DF817300AE00E49049A85
:1085340013465B0013440B4401331B788DF817304A
:1085440000E000BF9DF81730002B09D00A4B1B68D0
:10855400002B05D0084B1B689DF817201046984740
:1085640000BF07B05DF804FB68360020482C0020EB
:1085740074360020783600206436002000B583B0BD
:108584000190019B1B7802211846FFF761FF00BF91
:1085940003B05DF804FB000000B583B00C4B1B78FE
:1085A400002B0FD00023019308E0019B022B02D083
:1085B4000198FFF7CFFD019B01330193019B032B2E
:1085C400F3D901E0FFF7E0FD00BF03B05DF804FB61
:1085D400603600202DE9D04F92B003468DF83F302D
:1085E4000023119300231093CC4B1B78002B04D051
:1085F400CA4A00231370FFF7CFFF9DF83F30172BB3
:1086040000F23F8201A252F823F000BF71860200FB
:10861400898602008986020025870200C18702003C
:108624003D880200D1880200F1880200018902001D
:108634002D8902004B8902006989020087890200A2
:1086440095890200958902009589020095890200A6
:1086540095890200298A0200378A02004B8A0200A7
:108664005F8A0200798A0200798A0200FFF794FF88
:10867400AB4B184608F0EEFA1190AA4A9DF83F3029
:108684001370FFE10020FFF71DFD0346002B0DD002
:108694000020FFF75FFD9DF83F30022B02D14FF41D
:1086A400E16301E04FF47A6310930BE00020FFF7DD
:1086B40037FD9DF83F30022B01D1C82301E04FF470
:1086C400C8731093974A9DF83F301370944C109BD5
:1086D4000022009301924FF000024FF00003DDE905
:1086E40000673946CB03314643EA51433146CA0356
:1086F40012F57A71029143F1000303934FF4FA6285
:108704004FF00003DDE9020114F040FC02460B4681
:10871400134600221946204608F044FA1190B1E1AC
:108724000020FFF7CFFC0346002B0DD00020FFF7FD
:1087340011FD9DF83F30032B02D14FF4487301E043
:108744004FF47A6310930BE00020FFF7E9FC9DF8E7
:108754003F30032B01D1C82301E04FF4C8731093B9
:10876400704A9DF83F3013706D4C109B00220493A7
:1087740005924FF000024FF00003DDE9046739462B
:10878400CB03314643EA51433146CA0312F57A71A9
:10879400069143F1000307934FF4FA624FF000038C
:1087A400DDE9060114F0F2FB02460B4613460022F3
:1087B4001946204608F0F6F9119063E10020FFF70E
:1087C40081FC0346002B06D00020FFF7C3FC4FF4C6
:1087D4007A63109305E00020FFF7A2FC4FF4C873FE
:1087E4001093504A9DF83F3013704D4C109B00225B
:1087F4009A4693464FF000024FF000034FEACB3302
:1088040043EA5A434FEACA3212F57A71089143F1A6
:10881400000309934FF4FA624FF00003DDE9080105
:1088240014F0B4FB02460B461346002219462046B8
:1088340008F0B8F9119025E10020FFF743FC034646
:10884400002B0CD00020FFF785FC9DF83F30052B52
:1088540001D1C82301E04FF47A6310930BE00020A8
:10886400FFF75EFC9DF83F30052B01D1C82301E0E2
:108874004FF4C87310932B4A9DF83F301370284C63
:10888400109B0022984691464FF000024FF00003DF
:108894004FEAC93343EA58434FEAC83212F57A71B2
:1088A4000A9143F100030B934FF4FA624FF0000373
:1088B400DDE90A0114F06AFB02460B461346002266
:1088C4001946204608F06EF91190DBE00020FFF70E
:1088D40081FC144A9DF83F301370114B002240F282
:1088E4006661184608F05EF91190CBE00020FFF7AE
:1088F40017FC0C4A9DF83F301370C3E0074B01226C
:108904001A700120FFF766FC054B002240F26661F5
:10891400184608F047F91190B4E000BF593600201A
:10892400082C002058360020594B01221A700120CF
:10893400FFF750FC574B00224FF40051184608F043
:1089440031F911909EE0524B01221A700120FFF779
:1089540041FC504B002240F26661184608F022F9AF
:1089640011908FE04A4B01221A700120FFF732FC6C
:10897400484B00224FF40051184608F013F91190A7
:1089840080E0FFF714FC444A9DF83F30137079E00F
:10899400424B184608F05EF911909DF83F30C3F140
:1089A40011031093109B002B35D0119B002B32D157
:1089B400109B012B28D9394C109B9BB21A46C82313
:1089C40002FB03F3DA171E4617464FF000024FF07E
:1089D4000003FB0343EA5643F20312F57A710C9148
:1089E40043F100030D934FF4FA624FF00003DDE905
:1089F4000C0114F0CBFA02460B461346002219462A
:108A0400204608F0CFF811900220FFF789FB244B91
:108A140001221A7036E00220FFF79CFB204B002253
:108A24001A702FE0FFF7B8FD1B4A9DF83F30137012
:108A340028E0FFF7B1FD0020FFF772FB164A9DF80E
:108A44003F3013701EE0FFF7A7FD0120FFF768FB1E
:108A5400114A9DF83F30137014E0FFF79DFD00208C
:108A6400FFF75EFB0120FFF75BFB0B4A9DF83F30ED
:108A7400137007E0FFF79BFB074A9DF83F30137024
:108A840000E000BF119B184612B0BDE8D08F00BFB4
:108A940059360020082C002058360020282C0020AD
:108AA4006036002000B583B00190074B1B6803F0CB
:108AB4000103002B04D0054B1B781846FFF78AFDF1
:108AC40000BF03B05DF804FB5C360020583600207C
:108AD40000B583B001900220FFF77CFB00BF03B018
:108AE4005DF804FB00B585B003468DF8073000231C
:108AF4000393084B1B6803F00103002B05D09DF87A
:108B040007301846FFF766FD0390039B184605B02F
:108B14005DF804FB5C36002000B585B0019000913F
:108B2400002303932A4A019B13602A4A009B136083
:108B3400019B03F00203002B2AD00023029308E0D8
:108B440001220121029800F055F80390029B0133A1
:108B54000293029B032B02D8039B002BF0D0039BB0
:108B6400002B06D140F2333204211B4807F074FA7B
:108B74000390039B002B02D107F0F6FA0390039BAA
:108B8400002B05D1154A0021154807F0D1FF0390A9
:108B9400019B03F00103002B14D00120FFF7CCFB51
:108BA400039B002B05D10F4A00210F4807F0C0FF9B
:108BB4000390039B002B05D10C4A01210C4807F0BC
:108BC400B7FF0390039B184605B05DF804FB00BF94
:108BD4005C36002064360020C8E60300818502006C
:108BE400C4E60300A98A0200BCE60300D58A020099
:108BF400C0E6030084B001900B468DF803301346A1
:108C04008DF8023000230393019B032B3CD89DF87D
:108C14000230012B0BD19DF80330012B04D1019BB1
:108C2400DBB20E33DBB200E000238DF802309DF896
:108C34000330022B0FD0022B23DC002B16D0012B88
:108C44001FD11449019A13465B0013440B449DF849
:108C540002201A701AE00F49019A13465B0013446C
:108C64000B4401339DF802201A700FE00949019A60
:108C740013465B0013440B4402339DF802201A7020
:108C840004E00723039301E007230393039B18469F
:108C940004B070476836002000B585B001900B46DB
:108CA4008DF80330019B032B14D89DF80330002B5F
:108CB40001D0032300E000238DF80F300198FFF763
:108CC40025FB02469DF80F3019461046FFF762FB5C
:108CD400002300E00623184605B05DF804FB00B548
:108CE40083B0019001210198FFF7D6FF034618468F
:108CF40003B05DF804FB00B583B00122002100201D
:108D0400FFF778FF0190019B002B04D0019B072BF8
:108D140001D0019B1CE0072202210120FFF76AFF1A
:108D24000190019B002B04D0019B072B01D0019BD8
:108D34000EE0042202210020FFF75CFF0190019B5A
:108D4400002B04D0019B072B01D0019B00E00023E2
:108D5400184603B05DF804FB00B583B0012202217C
:108D64000020FFF747FF0190019B002B04D0019BDB
:108D7400072B01D0019B1CE0072202210120FFF7F1
:108D840039FF0190019B002B04D0019B072B01D0DC
:108D9400019B0EE00A2200210020FFF72BFF019027
:108DA400019B002B04D0019B072B01D0019B00E009
:108DB4000023184603B05DF804FB00B583B00190AE
:108DC4000120FFF734FB0346002B03D0019B022252
:108DD4001A700CE00020FFF72AFB0346002B03D097
:108DE400019B0B221A7002E0019B00221A7000BF43
:108DF40003B05DF804FB00B583B00020FFF76FFFFC
:108E04000190019B002B04D0019B062B01D0019BF8
:108E14000CE00120FFF763FF0190019B002B04D0BD
:108E2400019B062B01D0019B00E00023184603B0F0
:108E34005DF804FB00B585B001900091019B1B888F
:108E4400102B02D0112B18D02FE01A4B1B68002BCB
:108E54000DD1FFF750FF0390039B002B07D0164B57
:108E64001B68002B03D0144B1B6803989847114BC5
:108E74001B6801330F4A136017E00E4B1B68013B5C
:108E84000C4A13600B4B1B68002B0DD1FFF764FFDA
:108E94000390039B002B07D0074B1B68002B03D0C8
:108EA400054B1B680398984700BF00BF05B05DF8E9
:108EB40004FB00BF803600207C36002000B585B05E
:108EC40001900091002303930A4A019B1360009BC5
:108ED400002B02D00098FFF770FF074B1B68002B94
:108EE40002D1FFF739FF0390039B184605B05DF8E4
:108EF40004FB00BF7C36002080360020BFF34F8F78
:108F040000BF064BDB6803F4E0620449044B1343DF
:108F1400CB60BFF34F8F00BF00BFFDE700ED00E063
:108F24000400FA0582B01D4B1B68B3F1FF3F0AD160
:108F34001B4B1B68DBB201931A4B1B681B0903F024
:108F44000F03009305E0154B1B680193164B1B6838
:108F54000093019B062B1DD1009B033B042B17D8C8
:108F640001A252F823F000BF818F0200858F020016
:108F7400898F02008D8F0200918F020001230AE085
:108F8400012308E0012306E0012304E0012302E0B9
:108F9400012300E00023184602B07047300100109E
:108FA400E00F00F0E80F00F03401001082B0174B1E
:108FB4001B68DBB20193164B1B681B0903F00F03FC
:108FC4000093019B062B1DD1009B033B042B17D858
:108FD40001A252F823F000BFF18F0200F58F0200C6
:108FE400F98F0200FD8F02000190020001230AE0C4
:108FF400002308E0002306E0002304E0002302E04D
:10900400002300E00023184602B07047E00F00F090
:10901400E80F00F082B01D4B1B68B3F1FF3F0AD18B
:109024001B4B1B68DBB201931A4B1B681B0903F033
:109034000F03009305E0154B1B680193164B1B6847
:109044000093019B062B1DD1009B033B042B17D8D7
:1090540001A252F823F000BF719002007590020043
:10906400799002007D9002008190020001230AE0C1
:10907400012308E0012306E0012304E0012302E0C8
:10908400012300E00023184602B0704730010010AD
:10909400E00F00F0E80F00F03401001082B0174B2D
:1090A4001B68DBB20193164B1B681B0903F00F030B
:1090B4000093019B062B1DD1009B033B042B17D867
:1090C40001A252F823F000BFE1900200E5900200F3
:1090D400E9900200ED900200F190020001230AE001
:1090E400002308E0002306E0002304E0002302E05C
:1090F400002300E00023184602B07047E00F00F0A0
:10910400E80F00F082B01D4B1B68B3F1FF3F0AD19A
:109114001B4B1B68DBB201931A4B1B681B0903F042
:109124000F03009305E0154B1B680193164B1B6856
:109134000093019B062B1DD1009B033B042B17D8E6
:1091440001A252F823F000BF619102006591020070
:10915400699102006D9102007191020001230AE0FD
:10916400012308E0012306E0012304E0012302E0D7
:10917400012300E00023184602B0704730010010BC
:10918400E00F00F0E80F00F03401001082B0174B3C
:109194001B68DBB20193164B1B681B0903F00F031A
:1091A4000093019B062B1DD1009B033B042B17D876
:1091B40001A252F823F000BFD1910200D591020020
:1091C400D9910200DD910200E191020001230AE03D
:1091D400002308E0002306E0002304E0002302E06B
:1091E400002300E00023184602B07047E00F00F0AF
:1091F400E80F00F082B0174B1B68DBB20193164BEB
:109204001B681B0903F00F030093019B062B1DD160
:10921400009B033B042B17D801A252F823F000BF94
:10922400399202003D9202004192020045920200EE
:109234004992020001230AE0002308E0002306E02B
:10924400002304E0002302E0002300E0002318468A
:1092540002B07047E00F00F0E80F00F082B01D4B41
:109264001B68B3F1FF3F0AD11B4B1B68DBB20193B0
:109274001A4B1B681B0903F00F03009305E0154B01
:109284001B680193164B1B680093019B062B1DD191
:10929400009B033B042B17D801A252F823F000BF14
:1092A400B9920200BD920200C1920200C59202006E
:1092B400C992020000230AE0002308E0012306E02B
:1092C400012304E0012302E0012300E00023184607
:1092D40002B0704730010010E00F00F0E80F00F01A
:1092E4003401001082B01D4B1B68B3F1FF3F0AD15B
:1092F4001B4B1B68DBB201931A4B1B681B0903F061
:109304000F03009305E0154B1B680193164B1B6874
:109314000093019B062B1DD1009B033B042B17D804
:1093240001A252F823F000BF4193020045930200CA
:10933400499302004D9302005193020001230AE075
:10934400012308E0012306E0012304E0012302E0F5
:10935400012300E00023184602B0704730010010DA
:10936400E00F00F0E80F00F03401001082B01D4B54
:109374001B68B3F1FF3F0AD11B4B1B68DBB201939F
:109384001A4B1B681B0903F00F03009305E0154BF0
:109394001B680193164B1B680093019B062B1DD180
:1093A400009B033B042B17D801A252F823F000BF03
:1093B400C9930200CD930200D1930200D593020019
:1093C400D993020001230AE0012308E0012306E007
:1093D400012304E0012302E0012300E000231846F6
:1093E40002B0704730010010E00F00F0E80F00F009
:1093F4003401001082B0154B1B680193144B1B6899
:109404000093019B062B1DD1009B033B042B17D813
:1094140001A252F823F000BF3194020035940200F7
:10942400399402003D9402004194020000230AE0B2
:10943400002308E0002306E0012304E0012302E006
:10944400012300E00023184602B0704730010010E9
:109454003401001082B0154B1B680193144B1B6838
:109464000093019B062B1DD1009B033B042B17D8B3
:1094740001A252F823F000BF9194020095940200D7
:10948400999402009D940200A194020000230AE032
:10949400002308E0002306E0002304E0012302E0A7
:1094A400012300E00023184602B070473001001089
:1094B4003401001008B5FFF7CDFF0346002B07D099
:1094C4004FF010234FF08042D3F80832C2F85835D9
:1094D40000BF08BD00BF044BD3F80034002BFAD002
:1094E40000BF00BF704700BF00E0014000B583B07B
:1094F4000190054A019BC2F80435FFF7EBFF00BF5A
:1095040003B05DF804FB00BF00E00140024B034AD6
:109514001A6000BF704700BF682C00200090D00381
:1095240008B5FFF7FFFC0346002B06D0964B1B68DB
:109534001B0A964A03F01F031360FFF737FD034627
:10954400002B02D0924B934A1A60FFF763FD034647
:10955400002B06D0904B1B685B0B904A03F007036B
:109564001360FFF79BFD0346002B05D08C4BDB6893
:109574008B4A23F08073D360FFF7C4FD0346002BAE
:109584000ED04FF080430022C3F80C214FF08043EB
:109594000022C3F810214FF080430022C3F838257D
:1095A400FFF7F4FD0346002B02D07E4B03221A6022
:1095B400FFF720FE0346002B0BD07B4B05221A60DD
:1095C4007A4B01221A607A4B00221A60794B3F22AF
:1095D4001A60FFF743FE0346002B76D04FF080530A
:1095E400754AD3F80434C2F820354FF08053724AD8
:1095F400D3F80834C2F824354FF080536E4AD3F8B8
:109604000C34C2F828354FF080536B4AD3F8103429
:10961400C2F82C354FF08053674AD3F81434C2F89B
:1096240030354FF08053644AD3F81834C2F83435D7
:109634004FF08053604AD3F81C34C2F840354FF0E1
:1096440080535D4AD3F82034C2F844354FF0805338
:10965400594AD3F82434C2F848354FF08053564A57
:10966400D3F82834C2F84C354FF08053524AD3F81B
:109674002C34C2F850354FF080534F4AD3F830346D
:10968400C2F854354FF080534B4AD3F83434C2F8FF
:1096940060354FF08053484AD3F83834C2F8643503
:1096A4004FF08053444AD3F83C34C2F868354FF045
:1096B4008053414AD3F84034C2F86C354FF080539C
:1096C4003D4AD3F84434C2F87035FFF70BFE034625
:1096D400002B05D0394B1B68394A03F04F03136044
:1096E400FFF744FE0346002B0DD04FF08043D3F820
:1096F400003403F00103002B05D04FF080436FF0DA
:109704000102C3F80024FFF775FE0346002B05D0C1
:109714002C4B1B682B4A43F4806313602A4BD3F809
:109724008830294A43F47003C2F88830BFF34F8F5E
:1097340000BFBFF36F8F00BFFFF7BCFE4FF01023D5
:10974400D3F80032002B05DB4FF01023D3F804329A
:10975400002B15DA0120FFF7C9FE4FF01023152264
:10976400C3F80022FFF7B6FE4FF010231522C3F80A
:109774000422FFF7AFFE0020FFF7B8FEFFF7BEFBA1
:10978400FFF7C4FE00BF08BD2403001040350140AC
:1097940074C007400DF0ADBA440200103C0500400F
:1097A400F0ED00E0A005004010560040885600404F
:1097B400185600401456004000C0004058020010E3
:1097C400E40E00403C17004000ED00E06DDF704700
:1097D40000BF184679DF704700BF18467DDF704729
:1097E40000BF184664DF704700BF184682B00346C6
:1097F4000091ADF80630BDF80630DAB2009B1A705D
:10980400BDF806301B0A9AB2009B0133D2B21A701B
:109814000223184602B0704700B589B00390029144
:109824001346ADF80630029B1B8803F10902BDF80C
:1098340006309A4201D90C2353E004AB1846FFF7D3
:10984400C5FF0790079B0693069B002B01D0069B40
:1098540047E0029B1B881A46039B134408221A7094
:10986400029B1B8801339AB2029B1A80029B1B88BD
:109874001A46039B13441B221A70029B1B88013354
:109884009AB2029B1A80029B1B881A46039B981863
:1098940004AB01330622194613F004FD029B1B8816
:1098A40006339AB2029B1A809DF8103023F001030C
:1098B400DBB2002B07D1029B1B881A46039B13447F
:1098C40000221A7006E0029B1B881A46039B13446D
:1098D40001221A70029B1B8801339AB2029B1A80E0
:1098E4000023184609B05DF804FB00B589B0039065
:1098F40002910192ADF80230039B1B78012B05D134
:10990400039B5B78002B01D1072391E0019B1B880B
:109914009A1CBDF802309A420ED8039B1B78012B87
:109924000CD1019B1B881A46039B5B7813449A1C39
:10993400BDF802309A4201D90C2379E0019B1B88BF
:10994400BDF80220D31A9BB2023BADF81C30BDF81F
:109954001C30ADF81230019B1B880233029A134469
:109964000DF1120211461846FFF738FF0690069BC8
:109974000593059B002B01D0059B59E0039B1B78A5
:10998400022B06D0039B5B781A46BDF812309A422C
:1099940009D3BDF81230BDF81C209A4203D3092321
:1099A4008DF81F3016E008238DF81F30039B1B78B9
:1099B400012B0BD1039B5B781A46BDF81C309342F4
:1099C40004D3039B5B78ADF8123003E0BDF81C3080
:1099D400ADF81230BDF81230FE2B01D90C2327E06C
:1099E400BDF81230DAB2019B1B881946029B0B4466
:1099F4000132D2B21A70019B1B8801339AB2019BC7
:109A04001A80019B1B881A46029B13449DF81F2051
:109A14001A70019B1B8801339AB2019B1A80019B27
:109A24001A88BDF8123013449AB2019B1A8000239D
:109A3400184609B05DF804FB00B589B003900291A3
:109A44001346ADF80630029B1B881A1DBDF806307C
:109A54009A4201D90C233AE00DF116031846FFF798
:109A6400B9FE0790079B0693069B002B01D0069B2B
:109A74002DE0029B1B881A46039B134403221A7091
:109A8400029B1B8801339AB2029B1A80029B1B889B
:109A94001A46039B134419221A70029B1B88013334
:109AA4009AB2029B1A80BDF81620029B1B881946A5
:109AB400039B0B4419461046FFF798FE03461A46CB
:109AC400029B1B8813449AB2029B1A8000231846F7
:109AD40009B05DF804FB84B0029101921A46034672
:109AE4008DF80F301346ADF80C30019B1B88DA1C3F
:109AF400BDF80C309A4201D90C2328E0019B1B8845
:109B04001A46029B134402221A70019B1B880133DC
:109B14009AB2019B1A80019B1B881A46029B13442C
:109B240001221A70019B1B8801339AB2019B1A808F
:109B3400019B1B881A46029B13449DF80F201A7040
:109B4400019B1B8801339AB2019B1A80002318469B
:109B540004B0704784B0029101921A4603468DF80E
:109B64000F301346ADF80C30019B1B88DA1CBDF88E
:109B74000C309A4201D90C2328E0019B1B881A4619
:109B8400029B134402221A70019B1B8801339AB270
:109B9400019B1A80019B1B881A46029B13440A22CC
:109BA4001A70019B1B8801339AB2019B1A80019B96
:109BB4001B881A46029B13449DF80F201A70019BC0
:109BC4001B8801339AB2019B1A800023184604B003
:109BD400704700B58FB0039001930B468DF80B309E
:109BE40013468DF80A3000238DF83330109B1B8800
:109BF400ADF8303000230D9370E0039B5A680D9B41
:109C04009B001A4405AB106818600DF11B0105ABED
:109C140000221846FFF7E6FD0A900A9B0993099B68
:109C2400002B01D0099B7BE09DF81B309DF80A2096
:109C34009A4250D19DF83330002B01D0002300E02C
:109C440002238DF82330109B1B881A469DF81B3085
:109C54001A449DF823301A44BDF844309A4201DD79
:109C64000C235DE09DF8333083F00103DBB2002B5D
:109C740016D0109B1B8801339AB2109B1A80109B3C
:109C84001B881A46019B13449DF80B201A70109BE5
:109C94001B8801339AB2109B1A8001238DF833304C
:109CA400109B1B881A46019B1A440DF11B0105AB3E
:109CB4001846FFF797FD0A900A9B0793079B002B12
:109CC40001D0079B2CE0109B1B889DF81B2013449C
:109CD4009AB2109B1A800D9B01330D93039B1B8832
:109CE4001A460D9B934288DB9DF83330002B16D027
:109CF400109B1A88BDF83030D31A9BB2013BADF8E3
:109D04002E30BDF82E30FF2B01D90C2308E0BDF80E
:109D14003030019A1344BDF82E20D2B21A700023B9
:109D240018460FB05DF804FB00B58BB005900393A3
:109D34000B468DF8133013468DF812309DF813102E
:109D4400BDF8343001930C9B0093039B02220598C9
:109D5400FFF73FFF0990099B0893089B002B01D054
:109D6400089B14E09DF81210BDF8343001930C9B4D
:109D74000093039B10220598FFF72BFF0990099B82
:109D84000793079B002B01D0079B00E00023184694
:109D94000BB05DF804FB82B00190019B1B88052B7E
:109DA4000AD9019B1B88B3F5486F07D9019B1B880F
:109DB4004FF6FF72934201D0072325E0019B5B8895
:109DC400052B0AD9019B5B88B3F5486F07D9019B22
:109DD4005B884FF6FF72934201D0072314E0019B86
:109DE4001B884FF6FF7293420DD0019B5B884FF6A0
:109DF400FF72934207D0019B1A88019B5B889A42A9
:109E040001D9072300E00023184602B0704700B5CB
:109E140087B0039002910192ADF80230019B1B8838
:109E24009A1DBDF802309A4201D90C234BE00398E5
:109E3400FFF7B1FF0590059B0493049B002B01D011
:109E4400049B40E0019B1B881A46029B1344052295
:109E54001A70019B1B8801339AB2019B1A80019BE3
:109E64001B881A46029B134412221A70019B1B88FA
:109E740001339AB2019B1A80039B1A88019B1B88A9
:109E84001946029B0B4419461046FFF7AFFC0346E4
:109E94001A46019B1B8813449AB2019B1A80039BA8
:109EA4005A88019B1B881946029B0B44194610468D
:109EB400FFF79CFC03461A46019B1B8813449AB285
:109EC400019B1A800023184607B05DF804FB00B517
:109ED40087B0039002910192ADF80230039B9B88F6
:109EE40002330593019B1B881A46059B13449A1C55
:109EF400BDF802309A4201D90C2353E0059BFE2B96
:109F040001D90C234EE0059BDAB2019B1B8819464C
:109F1400029B0B440132D2B21A70019B1B8801339D
:109F24009AB2019B1A80019B1B881A46029B134418
:109F3400FF221A70019B1B8801339AB2019B1A807D
:109F4400039B1A88019B1B881946029B0B441946E4
:109F54001046FFF74BFC03461A46019B1B8813442B
:109F64009AB2019B1A80039B9B88002B19D0039BF8
:109F74009B68002B01D1072314E0019B1B881A4620
:109F8400029B9818039B9968039B9B881A4613F0BD
:109F940089F9019B1A88039B9B8813449AB2019BFD
:109FA4001A800023184607B05DF804FB00B589B099
:109FB400039002910192ADF80230039B9B6A002B3F
:109FC40001D1072371E000238DF81F3065E0039B66
:109FD400996A9DF81F2013465B0013449B000B44B1
:109FE4000693069B9B8802330593059BFE2B01D9A0
:109FF4000C235AE0059BDAB2019B1B881946029B8D
:10A004000B440132D2B21A70019B1B8801339AB2FD
:10A01400019B1A80019B1B881A46029B134416223B
:10A024001A70019B1B8801339AB2019B1A80069B0C
:10A034001A88019B1B881946029B0B44194610463B
:10A04400FFF7D4FB03461A46019B1B8813449AB2BC
:10A05400019B1A80069B9B88002B19D0069B9B684A
:10A06400002B01D1072320E0019B1B881A46029B89
:10A074009818069B9968069B9B881A4613F012F958
:10A08400019B1A88069B9B8813449AB2019B1A80F1
:10A094009DF81F3001338DF81F30039B93F82C304B
:10A0A4009DF81F209A4292D30023184609B05DF808
:10A0B40004FB00B595B0059004910392002313931B
:10A0C400039B1B88ADF84A30039B00221A80059B32
:10A0D40093F82D30002B0ED0BDF84A301A46039960
:10A0E4000498FFF799FB1390139B1193119B002B7A
:10A0F40001D0119BD8E0059B9B78002B0ED0BDF8B6
:10A104004A301A4603990498FFF796FC1390139B60
:10A114001093109B002B01D0109BC5E0059BDB78AE
:10A12400002B10D0059BDB7858B2BDF84A30039A57
:10A134000499FFF7D0FC1390139B0F930F9B002BF4
:10A1440001D00F9BB0E0059B5B68002B11D0059BF1
:10A154005B6893F90000BDF84A30039A0499FFF74D
:10A16400F9FC1390139B0E930E9B002B01D00E9BB6
:10A174009AE0059B1B89002B14D0059B03F1080072
:10A18400BDF84A300193039B0093049B06220221ED
:10A19400FFF7CAFD1390139B0D930D9B002B01D069
:10A1A4000D9B81E0059B1B8A002B14D0059B03F1BA
:10A1B4001000BDF84A300193039B0093049B0722CF
:10A1C4000321FFF7B1FD1390139B0C930C9B002B01
:10A1D40001D00C9B68E0059B1B8B002B14D0059BC6
:10A1E40003F11800BDF84A300193039B0093049BCC
:10A1F40015221421FFF798FD1390139B0B930B9BCF
:10A20400002B01D00B9B4FE0059B1B6A002B0FD04A
:10A21400059B186ABDF84A30039A0499FFF7F7FDC5
:10A224001390139B0A930A9B002B01D00A9B3BE0DB
:10A23400059B5B6A002B0FD0059B586ABDF84A301A
:10A24400039A0499FFF743FE1390139B0993099B08
:10A25400002B01D0099B27E0059B93F82C30002BA1
:10A264000ED0BDF84A30039A04990598FFF79EFE74
:10A274001390139B0893089B002B01D0089B13E0B9
:10A28400059B1B78002B0ED0BDF84A30039A049925
:10A294000598FFF72AFB1390139B0793079B002B4A
:10A2A40001D0079B00E0139B184615B05DF804FB32
:10A2B40086B0039001921A460B46ADF80A30134655
:10A2C4008DF80930039B002B02D0019B002B01D198
:10A2D40000235BE00023ADF816300CE0BDF8163027
:10A2E400039A13441B781A46BDF8163013449BB2E4
:10A2F4000133ADF81630BDF816305A1CBDF80A30DB
:10A304009A420FDA019B1B88BDF816209A42E5D3C6
:10A31400BDF816300133039A13441B789DF80920C5
:10A324009A42DBD1BDF81620BDF80A309A4201D317
:10A3340000232BE0BDF816300233ADF81430BDF81D
:10A344001630039A13441B78002B07D0BDF816303F
:10A35400039A13441B78013B9BB200E00023ADF841
:10A364001230BDF81230002B08D0BDF81420BDF80F
:10A3740012301A44BDF80A309A4201DD002305E088
:10A38400019BBDF814201A80BDF81230184606B09F
:10A39400704700B585B001900B46ADF80230134606
:10A3A4008DF801300023ADF80C309DF8013003AA7C
:10A3B400BDF802100198FFF77BFF0346ADF80E309D
:10A3C400BDF80E30002B01D1002304E0BDF80C30A1
:10A3D4001A46019B1344184605B05DF804FB72DF6E
:10A3E400704700BF184673DF704700BF184674DF1C
:10A3F400704700BF184682B00190019B93F8303437
:10A40400184602B0704784B00190002303930AE019
:10A41400019A039B13441B78002B01D0012306E00F
:10A42400039B01330393039B052BF1D900231846A7
:10A4340004B0704782B003468DF807309DF80730AA
:10A444005A1C074B83FB02135910D317C91A0B4626
:10A454009B000B44D11ACBB2184602B0704700BF20
:10A464006766666682B001900091009BDB7B012BDE
:10A4740004D1009B9A88019BA3F8242400BF02B056
:10A48400704700B585B001900091019B002283F8CC
:10A494002E24009B9A88019BB3F824349A4216D147
:10A4A400019B1B7983F00103DBB2002B0FD0012148
:10A4B400019800F0B1FA0390039B002B07D0019B95
:10A4C4009B6B002B03D0019B9B6B0398984700BFA9
:10A4D40005B05DF804FB00B585B001900091009BC8
:10A4E4001B88262B1ED1009B1B7A012B03D0009BBB
:10A4F4001B7A022B17D1019B9B781846FFF79AFF12
:10A5040003461946019800F087FA0390039B002B39
:10A5140009D0019B9B6B002B05D0019B9B6B03987F
:10A52400984700E000BF05B05DF804FB00B585B0B6
:10A5340001900B468DF80330019B03F22743184624
:10A54400FFF761FF03468DF80F309DF80330013BA0
:10A55400032B33D801A252F823F000BF71A50200E7
:10A5640095A50200A9A50200B5A50200019B9B794F
:10A57400002B0DD0019B93F8243083F00103DBB250
:10A58400002B05D09DF80F30002B01D0012316E0DD
:10A59400019BDB79002B05D09DF80F30002B01D0F7
:10A5A40002230CE0019B1B7A002B01D0032306E05D
:10A5B400019B5B7A002B01D0042300E000231846A2
:10A5C40005B05DF804FB00BF82B001900091019BCF
:10A5D400012283F83120019B0022C3F82024019B2F
:10A5E40003F22642009B5A60009B00229A60009B63
:10A5F40002221A70009B80229A810023184602B01E
:10A60400704782B001900091019B022283F83120AF
:10A61400019B93F82430002B03D0009B07221A706F
:10A6240002E0009B03221A70019B1B699AB2009BF3
:10A634009A81019B0022C3F82024019B03F2264245
:10A64400009B5A60019BDA68009B9A6000231846BD
:10A6540002B0704700B583B00190019B5B79002B79
:10A664000FD0019B93F82E3483F00103DBB2002B4F
:10A6740007D00198FFF7BFFE0346002B01D001234A
:10A6840000E0002303F00103DBB2184603B05DF8D9
:10A6940004FB00B585B001900B468DF80330019B97
:10A6A400D3F81004019BB3F8143401221946FFF7C0
:10A6B40070FE0390039B002B03D0039B9DF80320A3
:10A6C4001A70019B03F15400019B03F58261019B05
:10A6D4003C331A46FFF783FE0346184605B05DF87F
:10A6E40004FB00B585B001900091019B5A69009B61
:10A6F4009A60019B9B699AB2009B9A81019B93F893
:10A704002430002B04D0019B062283F83C2003E074
:10A71400019B012283F83C200198FFF79BFF03462D
:10A72400002B13D0009B02221A7504210198FFF715
:10A73400B0FF0390039B0293029B002B01D0029B6A
:10A744000FE0019B052283F8312003E0019B0322E3
:10A7540083F83120019B03F58262019BC3F8202416
:10A764000023184605B05DF804FB00B585B00190E0
:10A774000091019BDA69009B9A60019B1B6A9AB263
:10A78400009B9A81019B93F82430002B04D0019BF9
:10A79400062283F83C2003E0019B012283F83C203D
:10A7A4000198FFF757FF0346002B13D0009B0222AA
:10A7B4001A7504210198FFF76CFF0390039B029321
:10A7C400029B002B01D0029B0FE0019B062283F821
:10A7D400312003E0019B042283F83120019B03F51F
:10A7E4008262019BC3F820240023184605B05DF85B
:10A7F40004FB82B00190019B9B78002B06D0019B47
:10A8040093F82030002B01D000230AE0019B9B6ABF
:10A81400042B03D0019B5B6A042B01D1002300E0CD
:10A824000123184602B0704784B00190019B93F84D
:10A834002430002B03D0EE23ADF80E3002E01F23AA
:10A84400ADF80E30BDF80E30184604B0704782B033
:10A8540001900B468DF80330019B9DF8032083F88B
:10A86400302000BF02B0704730B587B0019000912E
:10A87400009B002B02D0019B002B01D10E23B8E0DA
:10A88400009B78331846FFF7B4FF034683F00103B7
:10A89400DBB2002B01D00723ABE0019B00229A70AE
:10A8A400019A009B141D03F178050FCD0FC40FCD41
:10A8B4000FC495E8070084E80700019B002283F891
:10A8C4003020009BD3F8A420019B5A63009BD3F84B
:10A8D400A820019B9A63019B4FF6FF72A3F82424DE
:10A8E400019B03F58262019BC3F82024019B03F2C0
:10A8F400264307220021184612F006FD019B1B780F
:10A9040083F00103DBB2002B03D0019BFF2283F809
:10A914005420019B03F15502019BC3F810240198B4
:10A92400FFF782FF03461A46019BA3F814240098FC
:10A93400019B03F15501019B03F214431A46FFF7EF
:10A94400B8FB0590059B0493049B002B01D0049B4A
:10A954004FE0019B03F23122019BC3F818240198B4
:10A96400FFF762FF03461A46019BA3F81C24009BD1
:10A9740003F13C00019BD3F81814019B03F21C4320
:10A984001A46FFF796FB0590059B0393039B002B48
:10A9940001D0039B2DE0019B012283F85120019BF0
:10A9A4009B699AB2019BA3F84820019B012283F87A
:10A9B4003C20019B00221A64019B002283F8502052
:10A9C400019B5A69019B5A64019B03F15400019B4A
:10A9D4003C331A460021FFF702FD0590059B0293C4
:10A9E400029B002B01D0029B03E0019B01221A7001
:10A9F400059B184607B030BD82B00190019B1B68CF
:10AA0400012B03D0019B1B68022B01D1012300E021
:10AA14000023184602B0704700B585B001900B467C
:10AA24008DF80330019B1B7883F00103DBB2002B0C
:10AA340001D0082309E1019B9DF803209A70019B32
:10AA440003F2264307220021184612F05DFC019B05
:10AA54009B79002B03D0019B9B78012B0FD0019B8A
:10AA6400DB79002B03D0019B9B78012B07D0019B42
:10AA7400DB79002B14D0019B9B78022B10D1019B16
:10AA84005B6B002B08D0019B012283F82D24019BD2
:10AA94005B6B0820984703E0019B002283F82D2478
:10AAA4009DF8033019460198FFF740FD03461A4606
:10AAB400019B9A70019B5B6B002B20D0019B9B78C0
:10AAC400032B03D0019B9B78042B18D1019B5B794A
:10AAD400002B14D0019B93F82E3483F00103DBB2D6
:10AAE400002B0CD0019B002283F83024019B01220F
:10AAF40083F82F24019B5B6B0720984703E0019B9D
:10AB0400002283F82F24019B3C331822002118468D
:10AB140012F0FAFB019B012283F83C20019B2C33A9
:10AB24001846FFF769FF0346002B06D0019BDB6A3A
:10AB3400DAB2019B83F8512003E0019B012283F8E0
:10AB44005120019B93F82430002B12D0019B283311
:10AB54001846FFF751FF0346002B06D0019B9B6A62
:10AB6400DAB2019B83F8522003E0019B012283F8AF
:10AB74005220019B002283F85020019B9B78042BD8
:10AB840031D801A252F823F0E1AB0200A1AB0200DC
:10AB9400B1AB0200C1AB0200D1AB0200019B3C335C
:10ABA40019460198FFF710FD03901DE0019B3C330B
:10ABB40019460198FFF725FD039015E0019B3C33EE
:10ABC40019460198FFF78DFD03900DE0019B3C337E
:10ABD40019460198FFF7C9FD039005E0019B002287
:10ABE40083F8312000E000BF019B9B78002B20D02C
:10ABF400019B03F15400019BD3F82014019B3C33C7
:10AC04001A46FFF7ECFB0390039B002B01D0039B38
:10AC14001BE0019B93F85420019B93F830301946B4
:10AC24001046FFF7E0FB0390039B002B01D0039B2E
:10AC34000BE0019B5B6B002B06D0019B5B6B019AC5
:10AC440092F83120104698470023184605B05DF865
:10AC540004FB00BF00B585B001900091009B0393F5
:10AC6400019B1B88262B10D0262B13DC102B02D023
:10AC7400112B05D00EE001990398FFF7F3FB0AE0CE
:10AC840001990398FFF7FDFB05E001990398FFF78D
:10AC940022FC00E000BF00BF05B05DF804FB00B576
:10ACA40085B00190019B93F854301846FFF79FFB41
:10ACB400019B012283F82E24019B002283F8302477
:10ACC400019B002283F8502006210198FFF7E1FC44
:10ACD4000390039B0293029B002B01D0029B12E082
:10ACE400019B9B7819460198FFF796FE0390039BFE
:10ACF400002B07D0019B9B6B002B03D0019B9B6B0C
:10AD0400039898470023184605B05DF804FB75DFE7
:10AD1400704700BF184676DF704700BF18467ADFD9
:10AD2400704700BF18467BDF704700BF184600001D
:10AD340084B00346ADF806300023039316E00F49B0
:10AD4400039A13469B0013449B000B441B88BDF8D5
:10AD540006209A4207D1039A13469B0013449B0092
:10AD6400064A134406E0039B01330393039B002B21
:10AD7400E5D00023184604B0704700BFA836002071
:10AD840082B001900B46ADF80230019BBDF8022061
:10AD94001A80019B00221A72019B054903F10A02E1
:10ADA4000B4603CB1060516000BF02B0704700BF78
:10ADB400D836002082B00190019B4FF6FF721A80B2
:10ADC40000BF02B0704788B00390029111461A4642
:10ADD4000B46ADF806301346ADF80430039B9B8850
:10ADE4001A46BDF8063013440793039B9B88194603
:10ADF400039B9B88BDF80620934228BF13469BB251
:10AE0400CB1A0693039BDB881A46BDF8043013441F
:10AE14000593039BDB881946039BDB88BDF804205C
:10AE2400934228BF13469BB2CB1A0493029B5A88C1
:10AE3400039B1B889A4205D3029B5A88039B5B8819
:10AE44009A4201D900231CE0029B9B881A46069B68
:10AE5400934205D8029B9B881A46079B934201D2D2
:10AE640000230EE0029BDB881A46049B934205D81C
:10AE7400029BDB881A46059B934201D2002300E023
:10AE84000123184608B0704700B583B00190064B03
:10AE94009B69002B03D0044B9B690198984700BF22
:10AEA40003B05DF804FB00BFBC36002000B585B0DC
:10AEB40003460091ADF80630BDF8063000991846F7
:10AEC400FFF725FF0390039B002B05D0039B112B59
:10AED40002D00398FFF7D8FF039B002B0CBF01237C
:10AEE4000023DBB2184605B05DF804FB00B589B059
:10AEF4000190019B0793079B9BB21846FFF718FF2D
:10AF04000690069B002B42D0069B1A7A224B1B7B91
:10AF14009A4215D2079B9AB2069B0A3319461046E9
:10AF2400FFF7C4FF03468DF813309DF81330002B50
:10AF34002DD0069B1B7A0133DAB2069B1A7226E0E7
:10AF4400069B00221A72144B1B7C002B0FD0079B0C
:10AF54009BB23B211846FFF7DEFE0590059B002BB4
:10AF640005D0059B082B02D00598FFF78DFF0A4BEF
:10AF74005B69002B0BD000238DF80C30079B9BB230
:10AF8400ADF80E30044B5B6903AA1046984700BF26
:10AF940009B05DF804FB00BFBC36002030B587B0B3
:10AFA4000190019B002B01D10E2353E02B4A019BFE
:10AFB40014461D460FCD0FC495E8070084E807002A
:10AFC400264B274A1A60019B1B68002B11D0019B5A
:10AFD4001B681846FFF7A3FE0490049B002B01D0C6
:10AFE400049B37E0019B1A681D4B1068516803C32A
:10AFF40008E01B48FFF797FE0490049B002B01D048
:10B00400049B27E00023059320E0059A13469B0048
:10B0140013449B00134A134403930398FFF7CAFE97
:10B02400059B5B01104A1A44039B5A60039B04333B
:10B034000E4A0021184605F07BFD0490049B002B6A
:10B0440001D0032306E0059B01330593059B002BE8
:10B05400DBD00023184607B030BD00BFBC3600204B
:10B06400D8360020A836002088360020F1AE020031
:10B0740000B587B003460091ADF80630009B5B7ABB
:10B08400002B1AD1009B1B7A002B03D1164B5B6853
:10B09400059302E0144B9B680593009B5B68BDF825
:10B0A40006200599184605F07DFD0490049B002BAD
:10B0B40016D00498FFF7E8FE12E0009B00221A72F3
:10B0C400094B5B69002B0BD001238DF80C30BDF8C4
:10B0D4000630ADF80E30044B5B6903AA104698475E
:10B0E40000BF07B05DF804FBBC36002000B585B096
:10B0F4000190019BDB7B8DF80F30019B9B88ADF8A1
:10B104000C309DF80F30012B2CD14FF6FF70FFF758
:10B114000FFE0290029B002B03D10420FFF7B4FE24
:10B1240021E0BDF80C3019460298FFF729FE029B76
:10B1340003F10A00019B03F110014FF6FF7340F283
:10B14400F312FFF740FE03461A46029B5A72074B5E
:10B15400DB89002B07D1BDF80C3002991846FFF7A4
:10B1640087FF00E000BF05B05DF804FBBC3600209B
:10B1740000B587B00190019B9B88ADF81630BDF8EF
:10B1840016301846FFF7D4FD0490049B002B0ED014
:10B19400049B5B68184605F05DFD0390039B002B40
:10B1A40002D00398FFF770FE0498FFF703FE00BF78
:10B1B40007B05DF804FB000000B587B00190019B67
:10B1C40006330593059B1A88194BDB899A422BD1C8
:10B1D400059B5B89022B27D1019B9B88ADF812301C
:10B1E400BDF812301846FFF7A3FD0390039B002B14
:10B1F4001AD0059B0C33184600F075FA0346002B51
:10B2040006D0BDF8123003991846FFF731FF0BE062
:10B21400039B5B68184605F01DFD0290029B002B02
:10B2240002D00298FFF730FE00BF07B05DF804FBC0
:10B23400BC36002000B585B00190019B9B88ADF819
:10B244000E30BDF80E301846FFF772FD0290029BD7
:10B25400002B15D0029B03F10A00019B03F10801A6
:10B264004FF6FF7340F2F312FFF7ADFD03461A46A3
:10B27400029B5A72BDF80E3002991846FFF7F8FE89
:10B2840000BF05B05DF804FB00B583B001900091E8
:10B29400019B1B88502B12D0502B18DC122B12D080
:10B2A400122B14DC102B02D0112B04D00FE00198C8
:10B2B400FFF71CFF0CE00198FFF75AFF08E0019824
:10B2C400FFF77AFF04E00198FFF7B4FF00E000BF46
:10B2D40000BF03B05DF804FB30B58FB0019000915E
:10B2E40000230293009B002B1AD000230D9314E03B
:10B2F4006B460D99184606F0B2FB0346002B09D0A5
:10B30400029B5A1C02920D9A92B25B0038336B4432
:10B3140023F82C2C0D9B01330D930D9B132BE7D994
:10B32400019B1D4602AC0FCC0FC50FCC0FC594E892
:10B33400070085E8070001980FB030BD00B583B061
:10B344000346ADF80630BDF80630132B01D90023AF
:10B354000CE0BDF806301946064806F04FFBBDF870
:10B3640006301946044806F049FB0123184603B089
:10B374005DF804FBE8360020E436002000B585B013
:10B384000346ADF80630002303930DE0039B9B00B6
:10B39400094A13440433BDF806201146184606F042
:10B3A40045FB039B01330393039B1D2BEED900BF85
:10B3B40000BF05B05DF804FBE036002000B583B0A3
:10B3C4000346ADF80630BDF806301946034806F0CA
:10B3D4002DFB00BF03B05DF804FB00BFE83600207E
:10B3E40030B59BB0184B9B68DB431893164B5A68D7
:10B3F40018AB1146184606F0A9FB189A6B4611467D
:10B404001846FFF769FF0DAC6D460FCD0FC40FCD85
:10B414000FC495E8070084E80700002319930BE0A4
:10B42400199B5B0068336B4433F8303C1846FFF7D4
:10B43400A5FF199B013319930D9B199A9A42EFD3D7
:10B4440000BF00BF1BB030BDE036002000B583B0A4
:10B4540001900B46ADF8023013468DF801309DF88B
:10B464000130002B06D0BDF802301946019806F0D1
:10B47400C5FA05E0BDF802301946019806F0D6FA7F
:10B4840000BF03B05DF804FB00B585B001900091E6
:10B49400019B9B88ADF80E30019B1B88103B0A2B47
:10B4A40000F2888001A252F823F000BFDDB402004C
:10B4B40019B50200B9B50200B9B50200B9B5020068
:10B4C400B9B50200B9B50200B9B50200B9B50200B8
:10B4D40083B5020025B50200FFF782FFBDF80E30E8
:10B4E4001846FFF72BFF034683F00103DBB2002B62
:10B4F40005D0324AF021042004F0AEFE57E0019B4F
:10B50400DB7B022B53D1BDF80E3019462C4806F0D4
:10B5140075FA4CE0BDF80E301846FFF74FFF49E0CE
:10B52400019B1B7AC3F30313DBB28DF80D309DF836
:10B534000D30032B8CBF01230023DAB2BDF80E308B
:10B5440019462048FFF782FF9DF80D30022B8CBF6F
:10B5540001230023DAB2BDF80E3019461A48FFF76A
:10B5640075FF9DF80D30012B8CBF01230023DAB247
:10B57400BDF80E3019461548FFF768FF1AE0019B25
:10B584001B7A002B15D1019B5B7AC3F3C003DBB29A
:10B59400002B14BF012300238DF80C309DF80C20E0
:10B5A400BDF80E3019460748FFF750FF01E000BF11
:10B5B40000E000BF00BF05B05DF804FBE8E603004F
:10B5C400EC360020F8360020F4360020F036002057
:10B5D40000B583B00346ADF80630BDF80630132B32
:10B5E40001D9002306E0BDF806301946034806F0E9
:10B5F40036FA0346184603B05DF804FBE43600202F
:10B6040000B583B00346ADF80630BDF806301846E1
:10B61400FFF7DEFF0346002B02D0BDF8063000E042
:10B624001423184603B05DF804FB00B587B00390FB
:10B634000B460192ADF80A30019B002B01D10E2379
:10B6440038E0019B00221A60039B002B01D10E23DA
:10B6540030E0039B1B68002B01D10E232AE0039BDF
:10B66400DB8803F003039BB2002B01D0072321E006
:10B67400BDF80A301846FFF7C3FF03468DF81730AC
:10B684009DF81730142B01D1052313E0039B1B797C
:10B694009DF817209A4201D304230BE0039B1B68F7
:10B6A4009DF817200399C98801FB02F21A44019BF3
:10B6B4001A600023184607B05DF804FB82B00190BD
:10B6C400019B1B781AB2019B01331B781BB21B022E
:10B6D4001BB213431BB29BB2184602B07047AADFD9
:10B6E400704700BF184600B585B001900198FFF778
:10B6F400E5FF0346ADF80E30BDF80E3003F001034C
:10B70400002B14BF01230023DBB2184605B05DF8FB
:10B7140004FB000082B0034600918DF80730009AC4
:10B72400137823F00F031370009A137823F0F003B7
:10B7340013709DF80730052B5BD801A252F823F053
:10B744005DB7020073B702008DB70200A7B702000D
:10B75400C1B70200DBB70200009A137823F00F038D
:10B764001370009A137823F0F003137040E0009AEA
:10B774001378012161F303031370009A13780121F4
:10B7840061F30713137033E0009A1378012161F316
:10B7940003031370009A1378022161F307131370E3
:10B7A40026E0009A1378012161F303031370009AD1
:10B7B4001378032161F30713137019E0009A1378C7
:10B7C400022161F303031370009A1378012161F3DA
:10B7D400071313700CE0009A1378022161F303033A
:10B7E4001370009A1378022161F30713137000BFDA
:10B7F40000BF00BF02B0704700B595B00346029188
:10B804000192ADF80E30029B9B78002B03D10123EB
:10B814008DF81E3003E0029B9B788DF81E30029B4E
:10B824001B88ADF81C3006AB03220021184611F02A
:10B834006BFD029B5B7C06AA11461846FFF76AFF64
:10B84400029B9A7C06AB013319461046FFF762FF50
:10B85400029BDA7B9DF81A3062F3C3038DF81A3029
:10B86400029B1A7C9DF81A3062F304138DF81A3087
:10B87400029B1A7B9DF81A3062F300038DF81A308C
:10B88400029B1B7D002B01D0022200E001229DF8C7
:10B894001A3062F342038DF81A300DAB1C220021DA
:10B8A400184611F031FD029B5B7B03F01003DBB201
:10B8B400002B06D1029B5B7B03F02003DBB2002B41
:10B8C40024D004AB03220021184611F01DFD029B75
:10B8D400DA7C04AB013319461046FFF71BFF9DF8D1
:10B8E4001030012262F303038DF810309DF81030FC
:10B8F400012262F307138DF810309DF812300122F3
:10B9040062F342038DF8123004AB1293029B5B7B0B
:10B914008DF83430029B9B7B8DF8353008AB1422B4
:10B924000021184611F0F0FC07AB089306AB09930D
:10B93400029B9B88ADF82C30029B9B68002B06D0A1
:10B94400029BDB88ADF82830029B9B680C93029B1A
:10B954009B69002B4FD005AB03220021184611F040
:10B96400D3FC029B9B691B88ADF83C30029B9B690E
:10B974005B88ADF83E30029B9B695B680E9305AB18
:10B984001193029B9B691B7B05AA11461846FFF77E
:10B99400C1FE029B9B695A7B05AB013319461046D5
:10B9A400FFF7B8FE029B9B699A7A9DF8163062F302
:10B9B400C3038DF81630029B9B69DA7A9DF8163022
:10B9C40062F304138DF81630029B9B691A7A9DF872
:10B9D400163062F300038DF81630029B9B699B7B43
:10B9E400002B01D0022200E001229DF8163062F300
:10B9F40042038DF81630029BDB69002B02D0029BB8
:10BA0400DB69109308AA0DA9BDF80E00019BFFF78E
:10BA140066FE0346184615B05DF804FB90DF7047D8
:10BA240000BF1846A5DF704700BF1846B5DF704752
:10BA340000BF184682B00190019BF7221A80019B37
:10BA440017225A80019B00221A71019B00225A710D
:10BA5400019BFB229A71019B1B22DA7100BF02B089
:10BA64007047000030B589B003460A46ADF8063089
:10BA74001346ADF80430344A344BD31ADB081B04A4
:10BA840043F00400BDF80420BDF8063030490FF03F
:10BA9400E6F8BDF80430ADF81430BDF80430ADF864
:10BAA40016300023ADF818300023ADF81A3003AB7C
:10BAB40000221A609A8003AA05A9BDF80630184628
:10BAC400FFF7ACFF0790079B002B39D01E4A1F4B92
