:020000022000DC
:106000000000012019620200016202000362020026
:10601000056202000762020009620200000000003F
:106020000000000000000000000000000B62020001
:106030000D620200000000000F6202001162020007
:10604000F5F8020013620200590603001362020011
:10605000D9F5020013620200550503001362020025
:106060001362020013620200136202001362020054
:106070001362020013620200136202001362020044
:106080001362020011410300136202001362020056
:10609000136202001362020021F003001362020087
:1060A0001362020013620200136202001362020014
:1060B00013620200136202000000000000000000F2
:1060C00013620200136202001362020013620200F4
:1060D000136202001362020013620200000000005B
:1060E00000000000000000000000000000000000B0
:1060F00000000000000000000000000000000000A0
:10610000000000000000000000000000000000008F
:10611000000000000000000000000000000000007F
:10612000000000000000000000000000000000006F
:10613000000000000000000000000000000000005F
:10614000000000000000000000000000000000004F
:10615000000000000000000000000000000000003F
:10616000000000000000000000000000000000002F
:10617000000000000000000000000000000000001F
:10618000000000000000000000000000000000000F
:1061900000000000000000000000000000000000FF
:1061A00000000000000000000000000000000000EF
:1061B00000000000000000000000000000000000DF
:1061C00000000000000000000000000000000000CF
:1061D00000000000000000000000000000000000BF
:1061E00000000000000000000000000000000000AF
:1061F000000000000000000000000000000000009F
:10620000FEE7FEE7FEE7FEE7FEE7FEE7FEE7FEE766
:10621000FEE7FEE700F002B8FFF7FCBF0F484FF0C3
:106220000701884385460E4880470E48016841F4BF
:1062300070010160BFF34F8FBFF36F8F00F01AB88A
:1062400009480A490A4A884207D0521A05D00378F9
:1062500001300B700131013AF9D170470000012083
:10626000BDB2020088ED00E0C00F0400D82A002073
:10627000202B00203A493B480A1A02D007229143BA
:106280008D46394939480A1A06D00722914381F3CD
:106290000988022282F3148835483649364A00F0CC
:1062A00041F836483649374A00F03CF83648374915
:1062B000374A00F037F837483749384A00F032F8A3
:1062C00037483849384A00F02DF838483849394AB3
:1062D00000F028F838483949394A00F023F839489D
:1062E0003949002200F036F838483949002200F0D8
:1062F00031F838483849091A1AF03CFB374A9047B8
:1063000025482649884205D00268043003B49047E6
:1063100003BCF7E700208646EC4600200021304A07
:106320009047FEE7884214D0521A12D003460B431E
:1063300013430324234206D1036804300B60043165
:10634000043AF9D17047037801300B700131013AFA
:10635000F9D17047884202D002700130FAE77047E5
:106360000000012000E000200000012000000120CA
:1063700034520400202B0020742D0020E46302001E
:10638000E4630200E60D040034520400202B0020D8
:10639000202B00200810040008100400081004003E
:1063A000081004000810040008100400081004007D
:1063B000081004003152040088540400742D002099
:1063C000742D0020742D00200C4C00200C4C00205B
:1063D000104C0020104C0020106C00204162020084
:0463E000C97D020071
:1063E40082B00190019B9B68D3F84831C3F340030A
:1063F400DBB2002B14BF01230023DBB2184602B02A
:106404007047000030B58DB0124B02AC1D460FCD65
:106414000FC495E80F0084E80F00052302930B23B3
:10642400039300238DF81C3002A903230093012356
:106434000122094812F09CFE0B900B9B0A930A9BC5
:10644400002B04D0054A67210A980CF0D5FB00BF45
:106454000DB030BD00110400C016040098100400F3
:1064640000B583B0084812F0C1FE0190019B00936F
:10647400009B002B04D0054A6E2100980CF0BCFB55
:1064840000BF03B05DF804FBC016040098100400BC
:1064940008B5024812F0F6FE00BF08BDC01604009D
:1064A40000B587B0059004910392039B0193049B6C
:1064B4000093039B044A0221059812F073FF00BF66
:1064C40007B05DF804FB00BF2011040000B585B0DF
:1064D40003900291029B0093029B044A02210398B9
:1064E40012F060FF00BF05B05DF804FB5411040016
:1064F40000B58DB00790069105920493069B9BB25C
:10650400ADF82030059B9BB2ADF82230049B099373
:106514000E9B03339B080A930E9B0293049B0193E7
:10652400059B0093069B0D4A0021079812F03AFF41
:1065340008AB194600200FF0E7FB0B900B9B002BD8
:1065440008D00B9800F0CEFB0346054A02210798B9
:1065540012F028FF00BF0DB05DF804FB88110400A1
:10656400D011040000B58DB00190009108AB002259
:106574001A605A609A6006AB00221A605A6006AB31
:1065840008AA47F2100148F210000FF058FC034625
:10659400002B1FD148F21003ADF80C3047F2100362
:1065A400ADF80E30009B04930623059303AA08ABB1
:1065B400114618460FF0B7FB0B900B9B002B0ED027
:1065C4000B9800F08FFB0346074A0221019812F052
:1065D400E9FE04E0054A0221019812F0E3FE00BF3F
:1065E4000DB05DF804FB00BFF81104002412040090
:1065F40000B58DB005900491039209AB00221A6096
:106604005A6006AB00221A605A609A60039B00939A
:10661400049B184A0021059812F0C4FE049B98B20A
:10662400039B99B209AB06AA0FF009FC0346002BA1
:1066340018D106AB18460FF08BFB0B900B9B002B6D
:1066440009D00B9800F04EFB03460B4A0221059833
:1066540012F0A8FE0BE0069B084A0021059812F0F0
:10666400A1FE04E0064A0221059812F09BFE0DB03B
:106674005DF804FB4812040074120400A012040024
:10668400B412040000B587B003AB00221A605A604C
:106694006B4600221A605A609A6003AA6B46114640
:1066A40018460FF0BDFB0346002B0BD16B46184672
:1066B4000FF04EFB0590059B002B01D0002302E058
:1066C400012300E00023184607B05DF804FB000036
:1066D40000B585B00390029101920398FFF780FE04
:1066E4000346002B05D000220021039812F086FFF8
:1066F4000FE0029B022B04D008490398FFF7E6FE43
:1067040007E0019B04331B68044A19460398FFF70A
:10671400C7FE00BF05B05DF804FB00BFD012040043
:1067240000B593B00790069105920CAB00221A6055
:106734005A609A600AAB00221A605A6061E008ABA2
:1067440000221A605A6008AA0CAB114618460FF0D2
:1067540051FA1190119B48F20C6293420DD0119B97
:1067640048F20C62934214D8119B002B1BD0119B4E
:1067740048F20962934206D00BE02A4A02210798A4
:1067840012F010FE3DE0284A0221079812F00AFE9A
:1067940037E0119800F0A6FA0346244A022107982C
:1067A40012F000FE2DE000BF099B1093109B1B7D8F
:1067B400002B01D01E4800E01E48109B5B7D002B7F
:1067C40001D01B4B00E01B4B109A12681099043146
:1067D4000291019200930346174A0021079812F090
:1067E400E1FD0CAB18460FF043FA1190119B0F9387
:1067F4000F9B002B05D0114A4FF4A1710F980CF098
:10680400FBF90AAB0CAA47F2100148F210000FF092
:1068140016FB0346002B92D000BF00BF13B05DF8F7
:1068240004FB00BFD8120400B4120400F4120400E4
:106834001013040014130400181304009810040027
:1068440000B593B00790069105920DAB00221A6033
:106854005A600AAB00221A605A609A60384A0021D2
:10686400079812F09FFD5AE008AB00221A605A60A4
:1068740008AA0AAB114618460FF0BCF91190119BF7
:1068840048F20C6293420DD0119B48F20C62934281
:1068940014D8119B002B1BD0119B48F20962934220
:1068A40006D00BE0274A0221079812F07BFD36E060
:1068B400254A0221079812F075FD30E0119800F086
:1068C40011FA0346214A0221079812F06BFD26E0D3
:1068D40000BF089B5B889B001093089B9A68089BE9
:1068E4009B881946089B1B881846109B02930190AD
:1068F40000911346164A0021079812F053FD0AAB83
:1069040018460FF0B5F91190119B0F930F9B002BB4
:1069140005D0104A4FF4BE710F980CF06DF90DAA12
:106924000AAB114618460FF07BFA034648F2096297
:10693400934299D100BF00BF13B05DF804FB00BFC0
:1069440050130400D8120400B4120400F41204001A
:10695400741304009810040000B589B005900491E4
:1069640003920598FFF73CFD0346002B05D0002257
:106974000021059812F042FE49E0049B042B04D048
:1069840025490598FFF7A2FD41E0039B04331B68EA
:1069940010220021184618F0A3FD0346ADF81E305E
:1069A400039B08331B6810220021184618F098FD39
:1069B4000346ADF81C30039B0C331B6818461AF0D1
:1069C40038F80346FF2B07D8039B0C331B68184683
:1069D4001AF02FF8034601E04FF4807306934FF446
:1069E400807200210D481AF015F9039B0C331B68C3
:1069F400069A194609481AF0DBF8BDF81E10BDF8CE
:106A04001C20069B0093054B0598FFF771FD00BF02
:106A140009B05DF804FB00BF9C1304001C31002086
:106A240000B58BB00790069105920798FFF7D8FC44
:106A34000346002B05D000220021079812F0DEFD4A
:106A440072E0069B052B04D039490798FFF73EFDF9
:106A54006AE01822002137481AF0DCF8059B043359
:106A64001B68354918461AF057F80346002B0CBF2B
:106A740001230023DAB22F4B1A75059B08331B68D8
:106A84002D4918461AF048F80346002B0CBF012381
:106A94000023DAB2274B5A75059B0C331B680A2274
:106AA4000021184618F01CFD03461A46214B1A60B3
:106AB400059B10331B68184619F0BBFF03460F2BC8
:106AC40008D8059B10331B68184619F0B2FF03461B
:106AD4009BB200E01023ADF82630059B10331B68F1
:106AE400BDF82620194615481AF062F8114B1B7D93
:106AF400002B01D0104900E011490E4B5B7D002BA7
:106B040001D00D4B00E00E4B0A4A12680B4802906C
:106B1400019200930B460B4A0021079812F042FCA5
:106B240004490798FFF71EFD00BF0BB05DF804FB96
:106B3400A41304001C32002010130400203200208F
:106B440014130400AC13040000B587B00390029141
:106B540001920398FFF744FC0346002B05D0002262
:106B64000021039812F04AFD20E0029B022B04D876
:106B740010490398FFF7AAFC18E0019B04331B6833
:106B840010220021184618F0ABFC03460593019B24
:106B940008331B6810220021184618F0A1FC034694
:106BA4000493049A05990398FFF722FD00BF07B0E8
:106BB4005DF804FBF013040000B585B00390029166
:106BC40001920398FFF70CFC0346002B05D000222A
:106BD4000021039812F012FD09E0029B012B04D05E
:106BE40005490398FFF772FC01E000F045F900BF86
:106BF40005B05DF804FB00BFF813040070B592B053
:106C04000990089107920998FFF7EAFB0346002BC5
:106C140005D000220021099812F0F0FC3AE00BABF9
:106C240000221A605A609A60DA601A820BAB184626
:106C34000FF01CF91190119B1093109B002B05D0A1
:106C4400164A40F2F71110980BF0D6FFBDF82C301D
:106C54001E46BDF830301A46BDF832301344BDF834
:106C640030201146BDF832201046BDF838201446B5
:106C7400BDF83A201546BDF83A20920005920495D5
:106C840003940290019100933346054A0021099828
:106C940012F088FB00BF12B070BD00BF9810040052
:106CA4000414040000B587B00390029101920FF020
:106CB40085F80590059B002B09D0059800F012F883
:106CC4000346054A0221039812F06CFB00E000BF62
:106CD40000BF07B05DF804FB7C14040041DF70477B
:106CE40000BF184682B00190019BA3F50643034AF6
:106CF40052F82330184602B0704700BF9C2B002086
:106D040030B583B00190019B5B68002B11D1504AD0
:106D1400504BD31ADB081B0443F00300019B1B7880
:106D24001A464D4B53F822301A464C4916F056FC7D
:106D340018E0474A474BD31ADB081B0443F003040B
:106D4400019B1B781A46444B53F822301D46019B85
:106D54005B681846FFF7C6FF03462A4640492046AB
:106D640016F04DFC019B1B78032B3AD0032B67DCF8
:106D7400002B02D0012B08D062E0019B5B68002B42
:106D840060D1384B01221A705CE0019B5B68002BD8
:106D94005AD12F4A2F4BD31ADB081B0443F00300AC
:106DA400019B9B681A46304916F018FC284A294B67
:106DB400D31ADB081B0443F00300019B9B891A468A
:106DC4002A4916F00BFC224A224BD31ADB081B0477
:106DD40043F00300019BDB891A46254916F0FEFBAC
:106DE40032E0019B5B68002B26D1194A194BD31A58
:106DF400DB081B0443F00300019B9B681A461A49F5
:106E040016F0ECFB124A134BD31ADB081B0443F0B5
:106E14000300019B9B891A46144916F0DFFB0C4AB8
:106E24000C4BD31ADB081B0443F00300019BDB89E2
:106E34001A460F4916F0D2FB0E4B00225A7004E09A
:106E440000BF02E000BF00E000BF00BF03B030BDE0
:106E5400380F0400080F04006C2B0020E417040012
:106E64000C180400363200202C18040040180400CA
:106E74005018040034320020024B01221A7000BF63
:106E8400704700BF3432002008B5184B1B781A46EF
:106E9400164B5B7883F00103DBB21340002B22D046
:106EA400134A144BD31ADB081B0443F0030312499F
:106EB400184616F085FBFFF7E5FB03461A460B4B15
:106EC4001A700A4B1B7883F00103DBB2002B0AD043
:106ED400074A084BD31ADB081B0443F00303074992
:106EE400184616F06DFB00BF08BD00BF3432002009
:106EF400380F0400080F0400641804007C18040010
:106F040008B5FFF7EBFE00BF08BD000008B501E0BF
:106F1400FFF7F6FF054B1B78DBB283F00103DBB20E
:106F2400002BF5D100BF00BF08BD00BF36320020E2
:106F340000B595B0FFF766FAB24AB34BD31ADB0833
:106F44001B0443F00303B149184616F039FBB0485B
:106F54000EF03CFDAB4AAC4BD31ADB081B0443F0E8
:106F64000303AC49184616F02BFB0EF0ABFD13904F
:106F7400139B1293129B002B05D0A74A4FF49271D6
:106F840012980BF039FEFFF7C1FF9E4A9E4BD31AAD
:106F9400DB081B0443F00303A049184616F010FB5A
:106FA400984A994BD31ADB081B0443F003039C490A
:106FB400184616F005FB934A934BD31ADB081B04BF
:106FC40043F003039749184616F0FAFA8D4A8E4B9C
:106FD400D31ADB081B0443F003039349184616F045
:106FE400EFFA884A884BD31ADB081B0443F00303E7
:106FF4008E49184616F0E4FA824A834BD31ADB080A
:107004001B0443F003038A49184616F0D9FA7D4A53
:107014007D4BD31ADB081B0443F003038549184650
:1070240016F0CEFA774A784BD31ADB081B0443F0E8
:1070340003038149184616F0C3FA724A724BD31AF5
:10704400DB081B0443F003037C49184616F0B8FA26
:107054006C4A6D4BD31ADB081B0443F003037849D5
:10706400184616F0ADFA08AB00221A605A609A600E
:10707400DA601A8208AB18460EF0F8FE1390139BE0
:107084001193119B002B05D0634A4FF49C71119806
:107094000BF0B2FD5B4A5C4BD31ADB081B0443F0D4
:1070A4000303BDF824206749184616F097FA554A99
:1070B400554BD31ADB081B0443F00303BDF8262009
:1070C4006149184616F08AFA05AB00221A605A6024
:1070D4009A6003AB00221A605A6003AB05AA47F218
:1070E400100148F210000EF0AAFE1390139B002B1F
:1070F40063D101AB00221A605A6001AA05AB1146A4
:1071040018460EF077FD1390139B0F930F9B002BE3
:1071140005D0414A40F249110F980BF06DFD029BD6
:1071240018221946494819F043FD364A364BD31AFA
:10713400DB081B0443F00303444A1268444918461D
:1071440016F04CFA414B1B680133404A136005ABFF
:1071540018460EF08DFD1390139B0E930E9B002B7F
:1071640005D02D4A40F255110E980BF045FD05ABA4
:10717400384918460EF0D7FD1390139B002B10D0FE
:10718400139B48F2066293420BD11E4A1E4BD31A3C
:10719400DB081B0443F003032F49184616F010FACA
:1071A4006AE0139B0D930D9B002B65D01A4A40F2A5
:1071B4005F110D980BF020FD5EE0124A124BD31ABA
:1071C400DB081B0443F003032449184616F0F8F9BE
:1071D40005AB204918460EF097FD1390139B002B26
:1071E4003ED0139B48F20662934239D1054A064BBE
:1071F400D31ADB081B0443F003031749184616F09F
:10720400DFF939E0380F0400080F040010190400F6
:10721400056D020028190400A01804003C1904009C
:10722400501904006C19040090190400B0190400EA
:10723400C8190400E4190400001A0400201A040008
:10724400401A0400641A04007C1A0400842B0020F1
:10725400B41A0400A41C0400E41A0400281B04004B
:10726400139B1093109B002B06D0054A4FF4B77163
:1072740010980BF0C1FCFFE700BF15B05DF804FBEC
:10728400A018040033DF704700BF184641DF704781
:1072940000BF18464FF08043D3F8003418467047B7
:1072A40082B001904FF08042019BC2F8003400BFCD
:1072B40002B0704776DF704700BF18467ADF704728
:1072C40000BF18467CDF704700BF18467FDF704759
:1072D40000BF18468FDF704700BF1846B1DF704704
:1072E40000BF184600B583B003460091ADF80630E0
:1072F400BDF80630009A194603480BF07DFC00BF28
:1073040003B05DF804FB00BFEFBEADDE00B583B093
:107314000CF0A0F80190019B0093009B002B04D07B
:10732400044A8E2100980BF067FC00BF03B05DF89F
:1073340004FB00BFB01C040000B587B09DF800300A
:10734400012262F303038DF800309DF8003001221E
:1073540062F307138DF800306B460B221A49184666
:10736400FFF7B0FF0590059B0493049B002B04D00A
:10737400164AA12104980BF03FFC01AB082200211E
:10738400184619F047FC1023ADF804303C23ADF83F
:1073940006300023ADF808304FF4C873ADF80A3056
:1073A40001AB1846FFF78AFF0590059B0393039BE7
:1073B400002B04D0054AAB2103980BF01DFC00BF41
:1073C40007B05DF804FB00BF081D0400B01C0400F6
:1073D40000B583B00190044AB82101980BF00CFC6D
:1073E40000BF03B05DF804FBB01C040000B587B017
:1073F4000190019B1B78002B5CD1304A304BD31A8F
:10740400DB081B0443F004032E49184616F0D8F891
:107414002A4A2B4BD31ADB081B0443F00400019BBC
:107424001969019B9B8A1A4616F02EF900230593CD
:107434002AE0019B1A69059B13441B7818460CF03B
:1074440095F90490049B002B18D0049B112B15D0A4
:107454001A4A1B4BD31ADB081B0443F00103049A9A
:107464001949184616F0BAF8049B0393039B002BA2
:1074740004D0164AD62103980BF0BEFB049B112BB3
:10748400D7D0059B01330593019B9B8A1A46059B24
:107494009342CED3019B1A69019B9B8A013B1344FF
:1074A4001B780D2B06D100BF0A200CF05FF90346B0
:1074B400112BF9D000BF07B05DF804FB380F0400AE
:1074C400080F0400141D0400481D0400B01C04002F
:1074D40000B587B000230193164B019301AB194605
:1074E400154806F079FD0590059B0493049B002B39
:1074F40004D0124AF02104980BF07EFB02AB042264
:107504000021184619F086FB0D4B029302AB194675
:107514000C4806F09DFF0590059B0393039B002BED
:1075240004D0064AF82103980BF066FB00BF07B0AD
:107534005DF804FBD573020050320020B01C040037
:10754400F1730200E02B002000B585B00190019B8F
:107554001B78002B11D10B4B1B883B211846FFF7DE
:10756400A9FE0390039B0293029B002B05D0064ABD
:107574004FF4877102980BF03FFB00BF05B05DF834
:1075840004FB00BFFC2B0020B01C040000B583B03A
:107594000190054A40F2191101980BF02DFB00BF30
:1075A40003B05DF804FB00BFB01C040000B58BB051
:1075B40001AB1C220021184619F02CFB0023019377
:1075C4004FF4A03302934FF4F023039303238DF875
:1075D40010300023ADF8123000238DF814300C4B1A
:1075E40006930C4B079301AB184605F0A3FB0990D7
:1075F400099B0893089B002B05D0074A4FF4987108
:1076040008980BF0F9FA00BF0BB05DF804FB00BF5B
:107614004D75020091750200B01C040000B585B0E0
:10762400002001F0DFFE0390039B0293029B002BDA
:1076340005D0134A40F23B1102980BF0DDFA02F038
:107644005AF80390039B0193019B002B05D00C4A2D
:1076540040F23F1101980BF0CFFAFFF713FE0390AD
:10766400039B0093009B002B05D0054A40F2431175
:1076740000980BF0C1FA00BF05B05DF804FB00BF31
:10768400B01C040000B585B003468DF807309DF8A2
:107694000730002B11D0032B12D1022001F0A2FEDF
:1076A4000390039B0293029B002B0BD0084A40F2E9
:1076B400551102980BF0A0FA04E0FFF7E7FD02E091
:1076C40000BF00E000BF00BF05B05DF804FB00BFD1
:1076D400B01C040000B58DB001900091019B1B8883
:1076E400562B00F0DF80562B00F3EF80522B00F076
:1076F400B280522B00F3E980212B2DDC102BC0F239
:10770400E480103B112B00F2E08001A252F823F038
:1077140065770200C9770200CF780200337802004F
:10772400CF780200CF780200CF780200CF78020031
:10773400CF780200CF780200CF780200CF78020021
:10774400CF780200CF780200CF780200CF78020011
:10775400CF780200E97702003B2B00F09080B4E080
:10776400624A634BD31ADB081B0443F003036149E9
:10777400184615F025FF072001F034FE0B900B9BF3
:107784000593059B002B05D05B4A40F26F110598C9
:107794000BF032FA019B9A88584B1A80574B1B887E
:1077A4001946574806F03AFC0B900B9B0493049B34
:1077B400002B00F08C80504A4FF4B97104980BF000
:1077C4001BFA84E0494A4A4BD31ADB081B0443F0F2
:1077D40003034C49184615F0F3FE484B4FF6FF726D
:1077E4001A807FE0414A424BD31ADB081B0443F062
:1077F40004034549184615F0E3FE00238DF80C30C8
:1078040000238DF80D30019B9B8803AA114618466E
:10781400FFF760FD0B900B9B0793079B002B58D041
:10782400354A4FF4C27107980BF0E6F951E0334B37
:107834001888002300228521FFF748FD0B900B9B3D
:107844000693069B002B46D02B4A4FF4C57106982D
:107854000BF0D2F93FE0294B1888002300220021C5
:10786400FFF73CFD0B900B9B0993099B002B34D035
:10787400214A4FF4C87109980BF0BEF92DE0019B21
:107884009B8813211846FFF715FD0B900B9B08935B
:10789400089B002B23D0184A40F2971108980BF04C
:1078A400ABF91CE0019B9B8813211846FFF702FDEE
:1078B4000B900B9B0A930A9B002B12D00E4A4FF499
:1078C400CF710A980BF098F90BE000BF0AE000BFF3
:1078D40008E000BF06E000BF04E000BF02E000BF14
:1078E40000E000BF00BF0DB05DF804FB380F0400DA
:1078F400080F0400741D0400B01C0400FC2B0020BD
:1079040050320020801D0400901D040000B587B093
:1079140017F0A4FA0590059B0493049B002B05D053
:10792400164A40F2B11104980BF066F90023019352
:1079340001AB1946012017F0A7FB0590059B0393A3
:10794400039B002B05D00D4A40F2B71103980BF0AE
:1079540053F901AB184617F0B5FC0590059B02934B
:10796400029B002B05D0054A40F2BB1102980BF094
:1079740043F900BF07B05DF804FB00BFB01C04006E
:1079840000B583B001900091009B5A88184B1B8866
:107994009A421AD1009B1B8840F67722934214D155
:1079A400009B9B88033B9AB2124B1A80124A134BDA
:1079B400D31ADB081B0443F003000E4B1B881A4642
:1079C4000C4B1B880E4915F01AFE0B4A0B4BD31AAD
:1079D400DB081B0443F00400019B5B881A46019BEF
:1079E4001B88084915F00BFE00BF03B05DF804FBCB
:1079F400FC2B0020FE2B0020380F0400080F04008D
:107A0400A41D0400C01D040000B585B0114912482E
:107A140006F0CCF90390039B0293029B002B05D044
:107A24000E4A4FF4EB7102980BF0E6F8F7210A487E
:107A340006F0E7F90390039B0193019B002B05D00B
:107A4400064A40F2D91101980BF0D6F800BF05B0F0
:107A54005DF804FB857902003C320020B01C040070
:107A640000B587B003468DF807309DF807300A2B20
:107A740006D00A2B36DC042B05D0072B19D031E0B5
:107A8400FFF7CCFD33E01C4B1B8813211846FFF78E
:107A940011FC0590059B082B26D0059B0393039BA3
:107AA400002B21D0154A4FF4F77103980BF0A4F87A
:107AB4001AE0114B1B884FF6FF72934216D11048FF
:107AC40004F0B9FF0590059B082B0FD0059B049388
:107AD400049B002B0AD0094A4FF4FC7104980BF064
:107AE4008BF803E000BF02E000BF00E000BF00BF6E
:107AF40007B05DF804FB00BFFC2B0020B01C0400A1
:107B04005C32002000B5AFB001ABAC2200211846B6
:107B140019F080F802238DF8043000238DF8063024
:107B240005238DF807300123ADF85030124B15931F
:107B340001238DF880304023239344F2506324932F
:107B44000E4B2A9301AB19460D4804F059FD2D90B4
:107B54002D9B2C932C9B002B05D00A4A40F27521B7
:107B64002C980BF049F80121054804F03CFD00BFB6
:107B74002FB05DF804FB00BF002C002089760200C2
:107B84005C320020B01C040000B587B00190174996
:107B9400032001F041FC0590059B0493049B002BFA
:107BA40005D0134A4FF4217104980BF025F80DF118
:107BB4000B031946002001F001FE0590059B039379
:107BC400039B002B05D00A4A40F2872103980BF04F
:107BD40013F89DF80B30022B0CBF01230023DAB2FB
:107BE400019B1A7000BF07B05DF804FB657A0200C0
:107BF400B01C040000B583B04FF48041002015F0A0
:107C0400CDF90190019B0093009B002B05D0064AFF
:107C140040F2922100980AF0EFFF15F04BF900BFF3
:107C240003B05DF804FB00BFB01C040000B583B0D2
:107C340014F06EF90190019B0093009B002B05D07A
:107C4400044A40F29E2100980AF0D6FF00BF03B018
:107C54005DF804FBB01C040000B583B0032109489F
:107C640004F0A6FD0190019B0093009B002B05D01E
:107C7400054A4FF42D7100980AF0BEFF00BF03B00F
:107C84005DF804FB5C320020B01C040000B583B036
:107C9400FFF700FB0190414A414BD31ADB081B0458
:107CA40043F00303019A3F49184615F097FC019BE2
:107CB40003F00103002B0AD0384A394BD31ADB08EE
:107CC4001B0443F003033849184615F079FC019B63
:107CD40003F00203002B0AD0304A314BD31ADB08DD
:107CE4001B0443F003033149184615F069FC019B5A
:107CF40003F00403002B0AD0284A294BD31ADB08CB
:107D04001B0443F003032A49184615F059FC019B50
:107D140003F00803002B0AD0204A214BD31ADB08B6
:107D24001B0443F003032349184615F049FC019B47
:107D340003F48033002B0AD0184A194BD31ADB08FA
:107D44001B0443F003031C49184615F039FC019B3E
:107D540003F40033002B0AD0104A114BD31ADB086A
:107D64001B0443F003031549184615F029FC019B35
:107D740003F48023002B0AD0084A094BD31ADB08EA
:107D84001B0443F003030E49184615F019FC01982F
:107D9400FFF786FA00BF03B05DF804FB380F040058
:107DA400080F0400341E04004C1E0400601E04006E
:107DB400741E0400901E0400A41E0400C01E0400CF
:107DC400D81E040000B583B0FFF760FFFFF712FF71
:107DD400FFF79CFA0DF107031846FFF7D5FEFFF7EE
:107DE40025FFFFF793FDFFF7A7FAFFF70DFEFFF757
:107DF4006FFBFFF787FEFFF7D9FBFFF799F8FFF753
:107E04002BFFFEF72DFB0C4817F030FC0B4A0C4BF4
:107E1400D31ADB081B0443F003030A49184615F080
:107E2400CFFB00F0B5FA15F0E1FCFEF731FBFFF7EC
:107E34002BF800F083F8F6E7F81E0400380F04006E
:107E4400080F04000C1F040000B583B00190019BCF
:107E54001B68184600F052F80346002B04D105496C
:107E64004FF4F670FFF73EFA4FF0A043184603B004
:107E74005DF804FB381F040000B585B00190084686
:107E840011461A4603468DF803300B468DF802302E
:107E940013468DF8013001AB1846FFF7D5FF039068
:107EA4009DF803209DF802305B001A439DF80130D1
:107EB4009B001A439DF818301B0242EA03019DF807
:107EC4001C301B04019A1943039B02F5E07243F82A
:107ED400221000BF05B05DF804FB00B585B0039027
:107EE400002301930023009300230122012103981E
:107EF400FFF7C2FF00BF05B05DF804FB84B001903A
:107F0400019B5B09029300230393029B002B03D183
:107F14004FF0FF33039300BF019B03F01F03019352
:107F2400039A019B22FA03F303F00103002B14BF0D
:107F340001230023DBB2184604B070472DE9F04F4B
:107F4400ADF5377D7D4B1B78002B00F0F1800023CD
:107F5400B5931CE07A49B59A13465B0013441B01A0
:107F64000B44043319687648B59A13465B001344EE
:107F74001B0103442833D3E9002362A8CDE900237D
:107F84000A46704918F033FAB59B0133B5936E4B2A
:107F94001B68B59A9A42DDDB0023B49344E0B49B9A
:107FA4005A1C674913465B0013441B010B442833D6
:107FB400D3E9002310466249B49A13465B00134484
:107FC4001B010B442833D3E900231346C11AB49B85
:107FD4005A1C5B4813465B0013441B0103441833CB
:107FE4001868574B4F93B49A13465B0013441B0114
:107FF4004F9A134418331B68C31A1B02CB1A194631
:10800400B6ABA3F5BC73B49A43F82210B6ABA3F590
:10801400BC73B49A53F8223062A8B49A4B4918F04E
:10802400E6F9B49B0133B493474B1B68013BB49A04
:108034009A42B4DB0023B3935BE04149B39A1346FD
:108044005B0013441B010B440C331B68DA171C46FA
:108054001546B6ABA3F5A871B39A13465B00134457
:10806400DB000B44C3E900453549B39A13465B0072
:1080740013441B010B4410331B68DA171E461746C2
:10808400B6ABA3F5A871B39A13465B001344DB00A7
:108094000B440833C3E900672949B39A13465B00CC
:1080A40013441B010B4414331B68DA17984691469A
:1080B400B6ABA3F5A871B39A13465B001344DB0077
:1080C4000B441033C3E90089B6ABA3F5BC73B39A70
:1080D40053F82230DA179A469346B6ABA3F5A87242
:1080E400B39B1E33DB001344C3E900ABB39B0133E2
:1080F400B393154B1B68B39A9A429EDB124B1B68D1
:108104001E46B6ABA3F5CC75B6ABA3F5A87468460A
:1081140004F108034FF49C72194618F049FD94E8E1
:108124000C003146284600F077FA044B00221A70FE
:1081340000BF0DF5377DBDE8F08F00BF203700206C
:1081440028370020681F0400243700207C1F040007
:10815400F0B587B04FF000024FF00003CDE90423DF
:1081640001AB184601F0D4FD042303931EE0DDE9BE
:1081740004014FF000024FF000030B0243EA1063C6
:108184000202CDE9042301AA039B13441B78DBB24A
:1081940000221C461546DDE9042342EA040643EAAC
:1081A4000507CDE90467039B013B0393039B002B65
:1081B400DDDADDE904231046194607B0F0BD0000FE
:1081C40010B59CB00190284B01221A6000211020A8
:1081D40001F064FE034603F07F031B931B9B7E2B7D
:1081E40006D81B9B9BB200221946204801F07BFD58
:1081F4004FF47A7002F0CCF9002002F081F91C48A7
:1082040017F034FA04221B49184818F0EDFB034612
:10821400002B25D1184B1A6813465B0013441B012D
:10822400164A134424221149184618F0C1FC124B73
:108234001C68FFF78DFF114A23465B0023441B0192
:1082440013442833C3E900010B4B1B6801330A4A6A
:108254001360094B1B68132B02DD074B00221A60C5
:1082640000BF1CB010BD00BF1437002090360020A2
:108274008C1F04005C200400E83A0020283700200A
:1082840000B583B001900D4B01221A60002002F06A
:108294007FF9002002F034F9094817F0E7F9094B97
:1082A4001B68094A1360074B00221A60074B01221E
:1082B4001A7000BF03B05DF804FB00BF183700203C
:1082C400A41F0400E83A00202437002020370020AF
:1082D40000B583B00190054B01221A60002002F022
:1082E4000FF900BF03B05DF804FB00BF1C3700208A
:1082F40082B00190024B01221A6000BF02B07047A5
:108304001037002000B583B001900B468DF8033080
:1083140001F002FF00BF03B05DF804FB00B585B0B7
:1083240007F058FF0346002B03D0154817F09EF9B9
:1083340001E007F0EBFE134A01AB12681146198005
:108344000233120C1A7000238DF8053001AB0E4A6B
:108354001946132007F04AFF0390039B0293029BE4
:10836400002B05D0094A40F2B51102980AF044FCEA
:108374000121132007F0B8FF00BF05B05DF804FB2E
:10838400BC1F04005820040009830200E41F0400F9
:1083940000B583B0002301930EE00122019B02FA91
:1083A40003F31A46244B1340002B02D00198FFF725
:1083B40094FD019B01330193019B1F2BEDD94FF0D9
:1083C400A0431D4AC3F80C254FF0A0430022C3F874
:1083D4000825FFF7A3FF02F0E5FB02F0F7FB0120FD
:1083E40001F00CFA0346B3F1FF3F00D1FEE702F0BF
:1083F40015FC124801F0D4FA114B124A12491348E1
:1084040001F070FE0121124802F00AF944F248001A
:1084140001F048FC44F2480001F055FC642001F0EE
:1084240045FE002002F0B4F8002002F069F800BF15
:1084340003B05DF804FB00BF000040C0042C002022
:10844400D582020085820200C5810200F582020005
:1084540080D02304F0B589B08DED060B8DED041B9F
:108464008DED022B8DED003BDDE90223DDE90601F4
:1084740017F0BAFC02460B4614461D46DDE90223FA
:10848400DDE9060117F0B0FC02460B4620462946FA
:1084940017F0AEFC02460B4614461D46DDE90023E8
:1084A400DDE9040117F0A0FC02460B4616461F4600
:1084B400DDE90023DDE9040117F096FC02460B46D2
:1084C4003046394617F094FC02460B4620462946AE
:1084D40017F06AFB02460B4643EC172BB0EE470A33
:1084E400F0EE670A17F0F2F8B0EE407AF0EE607A38
:1084F400B0EE470AF0EE670A09B0F0BD00B593B0DC
:108504008DED040B8DED021B0190424B93ED007B2E
:10851400404B93ED026BB0EE463AF0EE663AB0EEA5
:10852400472AF0EE672A9DED021B9DED040BFFF731
:1085340091FF8DED0C0B4FF000024FF00003CDE9DD
:10854400102301230F9353E0324A0F9B1B01134462
:1085540093ED007B2F4A0F9B1B011344083393EDCB
:10856400006BB0EE463AF0EE663AB0EE472AF0EE13
:10857400672A9DED021B9DED040BFFF76BFF8DED4C
:108584000A0BDDE90C23DDE90A0117F02DFC024694
:108594000B46104619461DA3D3E9002317F0C0FC6F
:1085A40002460B46CDE908230F9B03F10053013B20
:1085B400DB00019A1344D3E90023DDE9080117F035
:1085C40013FC02460B46CDE90623DDE90623DDE96B
:1085D400060117F00DFC02460B46DDE9100117F009
:1085E400E3FA02460B46CDE910230F9B01330F93A8
:1085F4000F9B022BA8DDDDE9102343EC172BB0EE13
:10860400470AF0EE670A13B05DF804FB00000000AF
:1086140000707540102C002082B030B597B00190E6
:1086240000911AA981E80C004FF000024FF00003FA
:10863400CDE914234FF000024FF00003CDE91223DB
:108644004FF0FF323F4BCDE910234FF000024FF0C3
:108654000003CDE90E2345E04FF000024FF0000384
:10866400CDE90C2329E056AB18469DED0C1B9DED7E
:108674000E0BFFF743FF8DED0A0BDDE91023DDE957
:108684000A0117F04DFD0346002B0BD0DDE90A2348
:10869400CDE91023DDE90E23CDE91423DDE90C2314
:1086A400CDE912234FF00002274BDDE90C0117F04E
:1086B4007BFA02460B46CDE90C234FF00002234B14
:1086C400DDE90C0117F00EFD0346002BCBD14FF072
:1086D40000021D4BDDE90E0117F066FA02460B4657
:1086E400CDE90E234FF00002184BDDE90E0117F01F
:1086F400F9FC0346002BAFD1DDE9140117F02CFD82
:1087040002460B46CDE90223DDE9120117F024FDF0
:1087140002460B46CDE904234FF000024FF000035C
:10872400CDE90623019B1D4602AC0FCC0FC594E88E
:108734000F0085E80F00019817B0BDE8304002B083
:10874400704700BFFFFFEF7F0000F03F000059407B
:1087540000B583B00190019B1B68184600F011F925
:108764000346002B04D105494FF4F670FEF7BAFD19
:108774004FF0A043184603B05DF804FB60200400EA
:1087840000B585B00190084611461A4603468DF897
:1087940003300B468DF8023013468DF8013001ABDF
:1087A4001846FFF7D5FF03909DF803209DF802308B
:1087B4005B001A439DF801309B001A439DF8183062
:1087C4001B0242EA03019DF81C301B04019A194361
:1087D400039B02F5E07243F8221000BF05B05DF878
:1087E40004FB00B585B0039000230193002300939C
:1087F4000023012201210398FFF7C2FF00BF05B047
:108804005DF804FB00B585B003900B468DF80B3082
:108814009DF80B30002201920022009200220021D8
:108824000398FFF7ADFF00BF05B05DF804FB00B58A
:1088340085B0019001AB1846FFF78AFF0390019BB6
:10884400012202FA03F31946039800F086F800BFE8
:1088540005B05DF804FB00B585B0019001AB184686
:10886400FFF776FF0390019B012202FA03F31946F6
:10887400039800F07CF800BF05B05DF804FB00B578
:1088840085B0019001AB1846FFF762FF0390039B8C
:10889400D3F804350293029BDA43019B012101FAC8
:1088A40003F31A40039BC3F80825019B01229A4055
:1088B400029B1A40039BC3F80C2500BF05B05DF86A
:1088C40004FB00B583B001900091009B002B03D101
:1088D4000198FFF7C0FF02E00198FFF7A8FF00BF6F
:1088E40003B05DF804FB00B585B0019001AB1846F8
:1088F400FFF72EFF0390039800F01FF80246019B38
:1089040022FA03F303F00103184605B05DF804FBF3
:1089140000B585B0019001AB1846FFF719FF03902D
:10892400039800F012F80246019B22FA03F303F0C5
:108934000103184605B05DF804FB82B00190019B69
:10894400D3F81035184602B0704782B00190019BED
:10895400D3F80435184602B0704782B001900091F4
:10896400019B009AC3F8082500BF02B0704782B08B
:1089740001900091019B009AC3F80C2500BF02B03E
:10898400704784B00190019B5B0902930023039319
:10899400029B002B03D14FF0FF33039300BF019BD5
:1089A40003F01F030193039A019B22FA03F303F0DC
:1089B4000103002B14BF01230023DBB2184604B0CB
:1089C4007047000000B585B00190019B032B03D9CB
:1089D40011493A20FEF786FC104A019B13441B7888
:1089E4001846FFF795FF0346002B14BF012300230D
:1089F4008DF80F309DF80F30002B14BF0123002396
:108A0400DBB283F00103DBB203F00103DBB21846EF
:108A140005B05DF804FB00BF90200400D8200400DA
:108A240000B583B00190019B032B03D90749412072
:108A3400FEF758FC064A019B13441B780021184694
:108A4400FFF73FFF00BF03B05DF804FB9020040074
:108A5400D820040000B583B00190019B032B03D9F7
:108A640007494720FEF73EFC064A019B13441B7846
:108A740001211846FFF725FF00BF03B05DF804FB92
:108A840090200400D820040000B583B00023019393
:108A940005E00198FFF7DEFF019B01330193019B81
:108AA400032BF6D900BF00BF03B05DF804FB00B58B
:108AB40083B00023019305E00198FFF7B1FF019B08
:108AC40001330193019B032BF6D900BF00BF03B010
:108AD4005DF804FB00B583B00190019B032B03D91F
:108AE40007495F20FEF7FEFB064A019B13441B78EF
:108AF4001846FFF7C4FE00BF03B05DF804FB00BFD7
:108B040090200400D820040000B583B00023019312
:108B140009E0094A019B13441B781846FFF761FEDC
:108B2400019B01330193019B032BF2D9FFF7ACFFA7
:108B340000BF03B05DF804FBD820040000B585B085
:108B44000190019B032B03D91149AC20FEF7CAFB0A
:108B5400104A019B13441B781846FFF7C4FE0346D2
:108B6400002B14BF012300238DF80F309DF80F3024
:108B7400002B14BF01230023DBB283F00103DBB21B
:108B840003F00103DBB2184605B05DF804FB00BF37
:108B940090200400DC20040000B583B0002301937E
:108BA4000AE0094A019B13441B7803211846FFF786
:108BB40029FE019B01330193019B032BF1D900BFD3
:108BC40000BF03B05DF804FBDC20040084B0019016
:108BD4004FF0FF330293002303930DE00A4A039BF3
:108BE40013441B781A46019B934202D1039B0293C0
:108BF40005E0039B01330393039B032BEED9029BF4
:108C0400184604B0704700BFDC20040000B583B0F0
:108C14000190019B032B03D90549CB20FEF762FB8E
:108C2400044A019B13441B78184603B05DF804FB07
:108C340090200400DC20040000B583B00190019B67
:108C440003F00103002B01D0FFF75EFF019B03F04B
:108C54000203002B01D0FFF79FFF00BF03B05DF8B4
:108C640004FB000000B583B00190019B1B6818460B
:108C740000F03DF80346002B04D105494FF4F6708B
:108C8400FEF730FB4FF0A043184603B05DF804FB39
:108C9400E020040000B585B001900B468DF8033048
:108CA40001AB1846FFF7DEFF0390019A039B02F520
:108CB400E07253F82230019A23F44031039B02F509
:108CC400E07243F82210019A039B02F5E07253F814
:108CD40022109DF803301B04019A1943039B02F5EB
:108CE400E07243F8221000BF05B05DF804FB84B0C5
:108CF4000190019B5B09029300230393029B002BC9
:108D040003D14FF0FF33039300BF019B03F01F0314
:108D14000193039A019B22FA03F303F00103002B4E
:108D240014BF01230023DBB2184604B0704700B51A
:108D340083B00190019B032B04D80198FFF7FEFE3A
:108D4400034600E00023184603B05DF804FB00006E
:108D540000B587B003460A468DF8073013468DF8F0
:108D6400063000238DF81730002304939DF8073054
:108D74001846FFF72BFF0490049B032B62D89DF841
:108D84000630022B52D0022B5CDC002B31D0012B9D
:108D940058D13549049A13465B0013440B441B789D
:108DA4008DF817303049049A13465B0013440B4482
:108DB40001331B78002B0ED02C4B2D4A4FF48041ED
:108DC40018460AF0BFFB0390039B002B03D1284AEB
:108DD4009DF8073013702449049A13465B0013442A
:108DE4000B4402331978234A049B13440A461A702D
:108DF40028E01E4B18460AF0FDFB1E4A049B134450
:108E040019781948049A13465B0013440344023347
:108E14001B78994215D11449049A13465B001344F4
:108E24000B4402331B788DF817300AE00E49049A7C
:108E340013465B0013440B4401331B788DF8173041
:108E440000E000BF9DF81730002B09D00A4B1B68C7
:108E5400002B05D0084B1B689DF817201046984737
:108E640000BF07B05DF804FBFC3A0020802C002012
:108E7400083B00200C3B0020F83A002000B583B0EA
:108E84000190019B1B7802211846FFF761FF00BF88
:108E940003B05DF804FB000000B583B00C4B1B78F5
:108EA400002B0FD00023019308E0019B022B02D07A
:108EB4000198FFF7CFFD019B01330193019B032B25
:108EC400F3D901E0FFF7E0FD00BF03B05DF804FB58
:108ED400F43A00202DE9D04F92B003468DF83F308C
:108EE4000023119300231093CC4B1B78002B04D048
:108EF400CA4A00231370FFF7CFFF9DF83F30172BAA
:108F040000F23F8201A252F823F000BF718F0200E9
:108F1400898F0200898F020025900200C19002000F
:108F24003D910200D1910200F191020001920200F0
:108F34002D9202004B920200699202008792020075
:108F44009592020095920200959202009592020079
:108F54009592020029930200379302004B9302007A
:108F64005F9302007993020079930200FFF794FF64
:108F7400AB4B18460AF03EFB1190AA4A9DF83F30CD
:108F84001370FFE10020FFF71DFD0346002B0DD0F9
:108F94000020FFF75FFD9DF83F30022B02D14FF414
:108FA400E16301E04FF47A6310930BE00020FFF7D4
:108FB40037FD9DF83F30022B01D1C82301E04FF467
:108FC400C8731093974A9DF83F301370944C109BCC
:108FD4000022009301924FF000024FF00003DDE9FC
:108FE40000673946CB03314643EA51433146CA034D
:108FF40012F57A71029143F1000303934FF4FA627C
:109004004FF00003DDE9020117F0E6F802460B46D3
:1090140013460022194620460AF094FA1190B1E151
:109024000020FFF7CFFC0346002B0DD00020FFF7F4
:1090340011FD9DF83F30032B02D14FF4487301E03A
:109044004FF47A6310930BE00020FFF7E9FC9DF8DE
:109054003F30032B01D1C82301E04FF4C8731093B0
:10906400704A9DF83F3013706D4C109B002204939E
:1090740005924FF000024FF00003DDE90467394622
:10908400CB03314643EA51433146CA0312F57A71A0
:10909400069143F1000307934FF4FA624FF0000383
:1090A400DDE9060117F098F802460B461346002244
:1090B400194620460AF046FA119063E10020FFF7B2
:1090C40081FC0346002B06D00020FFF7C3FC4FF4BD
:1090D4007A63109305E00020FFF7A2FC4FF4C873F5
:1090E4001093504A9DF83F3013704D4C109B002252
:1090F4009A4693464FF000024FF000034FEACB33F9
:1091040043EA5A434FEACA3212F57A71089143F19D
:10911400000309934FF4FA624FF00003DDE90801FC
:1091240017F05AF802460B46134600221946204609
:109134000AF008FA119025E10020FFF743FC0346EA
:10914400002B0CD00020FFF785FC9DF83F30052B49
:1091540001D1C82301E04FF47A6310930BE000209F
:10916400FFF75EFC9DF83F30052B01D1C82301E0D9
:109174004FF4C87310932B4A9DF83F301370284C5A
:10918400109B0022984691464FF000024FF00003D6
:109194004FEAC93343EA58434FEAC83212F57A71A9
:1091A4000A9143F100030B934FF4FA624FF000036A
:1091B400DDE90A0117F010F802460B4613460022B7
:1091C400194620460AF0BEF91190DBE00020FFF7B3
:1091D40081FC144A9DF83F301370114B002240F279
:1091E400666118460AF0AEF91190CBE00020FFF753
:1091F40017FC0C4A9DF83F301370C3E0074B012263
:109204001A700120FFF766FC054B002240F26661EC
:1092140018460AF097F91190B4E000BFED3A002027
:10922400402C0020EC3A0020594B01221A700120F6
:10923400FFF750FC574B00224FF4005118460AF038
:1092440081F911909EE0524B01221A700120FFF720
:1092540041FC504B002240F2666118460AF072F954
:1092640011908FE04A4B01221A700120FFF732FC63
:10927400484B00224FF4005118460AF063F911904C
:1092840080E0FFF714FC444A9DF83F30137079E006
:10929400424B18460AF0AEF911909DF83F30C3F1E5
:1092A40011031093109B002B35D0119B002B32D14E
:1092B400109B012B28D9394C109B9BB21A46C8230A
:1092C40002FB03F3DA171E4617464FF000024FF075
:1092D4000003FB0343EA5643F20312F57A710C913F
:1092E40043F100030D934FF4FA624FF00003DDE9FC
:1092F4000C0116F071FF02460B4613460022194674
:1093040020460AF01FF911900220FFF789FB244B35
:1093140001221A7036E00220FFF79CFB204B00224A
:109324001A702FE0FFF7B8FD1B4A9DF83F30137009
:1093340028E0FFF7B1FD0020FFF772FB164A9DF805
:109344003F3013701EE0FFF7A7FD0120FFF768FB15
:10935400114A9DF83F30137014E0FFF79DFD002083
:10936400FFF75EFB0120FFF75BFB0B4A9DF83F30E4
:10937400137007E0FFF79BFB074A9DF83F3013701B
:1093840000E000BF119B184612B0BDE8D08F00BFAB
:10939400ED3A0020402C0020EC3A0020602C002004
:1093A400F43A002000B583B00190074B1B6803F02A
:1093B4000103002B04D0054B1B781846FFF78AFDE8
:1093C40000BF03B05DF804FBF03A0020EC3A002043
:1093D40000B583B001900220FFF77CFB00BF03B00F
:1093E4005DF804FB00B585B003468DF80730002313
:1093F4000393084B1B6803F00103002B05D09DF871
:1094040007301846FFF766FD0390039B184605B026
:109414005DF804FBF03A002000B585B0019000919E
:10942400002303932A4A019B13602A4A009B13607A
:10943400019B03F00203002B2AD00023029308E0CF
:1094440001220121029800F055F80390029B013398
:109454000293029B032B02D8039B002BF0D0039BA7
:10946400002B06D140F2333204211B4809F0C4FA20
:109474000390039B002B02D109F046FB0390039B4E
:10948400002B05D1154A002115480AF021F8039054
:10949400019B03F00103002B14D00120FFF7CCFB48
:1094A400039B002B05D10F4A00210F480AF010F846
:1094B4000390039B002B05D10C4A01210C480AF0B0
:1094C40007F80390039B184605B05DF804FB00BF42
:1094D400F03A0020F83A00201C210400818E02009A
:1094E40018210400A993020010210400D59302005E
:1094F4001421040084B001900B468DF80330134608
:109504008DF8023000230393019B032B3CD89DF874
:109514000230012B0BD19DF80330012B04D1019BA8
:10952400DBB20E33DBB200E000238DF802309DF88D
:109534000330022B0FD0022B23DC002B16D0012B7F
:109544001FD11449019A13465B0013440B449DF840
:1095540002201A701AE00F49019A13465B00134463
:109564000B4401339DF802201A700FE00949019A57
:1095740013465B0013440B4402339DF802201A7017
:1095840004E00723039301E007230393039B184696
:1095940004B07047FC3A002000B585B001900B463A
:1095A4008DF80330019B032B14D89DF80330002B56
:1095B40001D0032300E000238DF80F300198FFF75A
:1095C40025FB02469DF80F3019461046FFF762FB53
:1095D400002300E00623184605B05DF804FB00B53F
:1095E40083B0019001210198FFF7D6FF0346184686
:1095F40003B05DF804FB00B583B001220021002014
:10960400FFF778FF0190019B002B04D0019B072BEF
:1096140001D0019B1CE0072202210120FFF76AFF11
:109624000190019B002B04D0019B072B01D0019BCF
:109634000EE0042202210020FFF75CFF0190019B51
:10964400002B04D0019B072B01D0019B00E00023D9
:10965400184603B05DF804FB00B583B00122022173
:109664000020FFF747FF0190019B002B04D0019BD2
:10967400072B01D0019B1CE0072202210120FFF7E8
:1096840039FF0190019B002B04D0019B072B01D0D3
:10969400019B0EE00A2200210020FFF72BFF01901E
:1096A400019B002B04D0019B072B01D0019B00E000
:1096B4000023184603B05DF804FB00B583B00190A5
:1096C4000120FFF734FB0346002B03D0019B022249
:1096D4001A700CE00020FFF72AFB0346002B03D08E
:1096E400019B0B221A7002E0019B00221A7000BF3A
:1096F40003B05DF804FB00B583B00020FFF76FFFF3
:109704000190019B002B04D0019B062B01D0019BEF
:109714000CE00120FFF763FF0190019B002B04D0B4
:10972400019B062B01D0019B00E00023184603B0E7
:109734005DF804FB00B585B001900091019B1B8886
:10974400102B02D0112B18D02FE01A4B1B68002BC2
:109754000DD1FFF750FF0390039B002B07D0164B4E
:109764001B68002B03D0144B1B6803989847114BBC
:109774001B6801330F4A136017E00E4B1B68013B53
:109784000C4A13600B4B1B68002B0DD1FFF764FFD1
:109794000390039B002B07D0074B1B68002B03D0BF
:1097A400054B1B680398984700BF00BF05B05DF8E0
:1097B40004FB00BF143B0020103B002000B585B023
:1097C40001900091002303930A4A019B1360009BBC
:1097D400002B02D00098FFF770FF074B1B68002B8B
:1097E40002D1FFF739FF0390039B184605B05DF8DB
:1097F40004FB00BF103B0020143B002030B589B0AF
:109804000346ADF806300023ADF81E30002306935E
:109814005D4B1B6800225A745B4B1B6800229A76CE
:10982400594B1B6800221A83574B1B6800229A620B
:10983400554B1B680022DA62534B1B6800221A63E3
:10984400514B1B6800225A6300F0A2F80346002221
:109854001C461546CDE90445DDE904234B49114472
:109864000B4302D04FF0FF338AE000F00FFF0020DB
:1098740000F042FD04220021242000F064FB1E209D
:1098840000F0B8FB0346ADF81E30BDF81E301B0ACD
:109894009AB23D4B1B68D2B25A72042000F0AAFB64
:1098A4000690069BDBB2002B0DD0022212212D2044
:1098B40000F049FB344B1B681A8B334B1B6842F492
:1098C400805292B21A83304B1C68062000F092FB3F
:1098D400034623602C4B1C68072000F08BFB0346D7
:1098E4006360BDF81E30DAB2274B1B6802F01F021A
:1098F400D2B21A74244B1B681B7C002B03D1224B5D
:109904001B6810221A74204B1B681B7C184600F03D
:10991400E1FEBDF8063003F00103002B0BD000F08C
:10992400B3FB194B1B681A8B174B1B6842F400627C
:1099340092B21A8313E00521362000F0D3FA0346CD
:10994400ADF80E30BDF80E3023F40073ADF80E30D0
:10995400BDF80E301A460521362000F008FB012020
:1099640000F0CAFC00220A212C2000F0ECFA064B7D
:109974001C680021042000F091FA0346636100236F
:10998400184609B030BD00BFA02C0020D0FE352100
:1099940008B50021002000F081FA0346184608BDEE
:1099A40000B587B0019000238DF8173000238DF89F
:1099B4001630019B1B788DF81330019B5B791A4696
:1099C400AC4B33F81230ADF81430019B5B78013B9B
:1099D4008DF812309DF81330042B03D09DF813300A
:1099E400072B01D1012300E000238DF81130019BE6
:1099F400DB79002B0DD1A04B1B685A699E4B1B6869
:109A040042F480025A61BDF81430DB08ADF814301A
:109A140007E0994B1B685A69974B1B6822F4800234
:109A24005A61954B1B68019A127A1A72924B1B6801
:109A34005A69914B1B6822F440325A618E4B1B6861
:109A44005969019B1B7A1B0403F440328A4B1B683F
:109A54000A435A61884B1B685B691A46002104203B
:109A640000F0A4FABDF814301A4642F604012E2080
:109A740000F07DFA9DF81230184600F0E6FA9DF8E1
:109A840013307E4AD35C1A467D4B53F822301A4673
:109A940007212B2000F08AFA9DF81330774AD35C13
:109AA4001A46784B9B5C1A460B212B2000F04BFA8C
:109AB4009DF81130744AD35C1A460B21282000F01B
:109AC40042FA9DF813306D4AD35C1A466F4B53F833
:109AD40022301A460C21282000F068FA019BDB7919
:109AE4001846019B9B791946694A43000B4432F896
:109AF40013301A460221272000F039FA9DF812305B
:109B0400644A32F813301A460421272000F02FFA51
:109B1400019BDB79002B05D164220621272000F06C
:109B240026FA18E0019B9B78042B0AD11022062107
:109B3400272000F01CFA10222621272000F003FA27
:109B440009E020220621272000F011FA28222621EC
:109B5400272000F0F8F99DF81230019AD2781146C6
:109B64004D4A9B000B4452F823301A460821272003
:109B740000F01CFA019B5B89002B03D1019B41F28D
:109B840041025A81019B5B891A462021272000F05B
:109B9400EEF9424B1B681A460C21232000F006FA0A
:109BA4009DF812303D4A5B0013449B881A460421F9
:109BB400232000F0DCF9019B9B79002B0FD0019B43
:109BC400DB791A46364B9B5C1A460021212000F0B3
:109BD400BAF903238DF8173001238DF816309DF858
:109BE400133003F00F029DF813301B01DBB21A434C
:109BF400019B5B789B0403F440231A439DF81730C0
:109C04001B0503F440131A439DF816305B0403F458
:109C140000331A43019B1B799B0503F0F8631A4335
:109C2400019B5B79DB0613430393039A00211F20F6
:109C340000F0BCF9019B9A78019B5B781343DBB27B
:109C44001A04019BDB795B031A430B4B1B68DA6034
:109C5400094B1B68DB681A460021082000F0A6F9AE
:109C6400422200210D2000F06EF900BF07B05DF81C
:109C740004FB00BFBC210400A02C00203C210400F4
:109C84005C210400742104007C21040044210400AC
:109C94008C210400982104009C21040080210400EC
:109CA4008821040000B583B00346ADF80630BDF842
:109CB40006301A4641F604012E2000F058F900BF80
:109CC40003B05DF804FB00B583B00346ADF806307D
:109CD400BDF806301A460021182000F048F900BFEC
:109CE40003B05DF804FB00B583B001900B46ADF8FA
:109CF40002301346ADF80030BDF80220BDF8001064
:109D0400019B112000F06FF800BF03B05DF804FB65
:109D140000B583B00190019B05220021152000F0BD
:109D240062F800BF03B05DF804FB00B587B002928F
:109D340001930346ADF80E300B46ADF80C3000230A
:109D44000593BDF80C30002B0DD1BDF80E30DAB2FE
:109D5400059B591C059162F07F02D2B218336B4403
:109D640003F8082C34E0BDF80E30DAB2059B591C18
:109D7400059162F03F02D2B218336B4403F8082C09
:109D8400BDF80C307F2B0AD8059B5A1C0592BDF8F0
:109D94000C20D2B218336B4403F8082C18E0BDF839
:109DA4000C30DAB2059B591C059162F07F02D2B2E5
:109DB40018336B4403F8082CBDF80C30DB0999B256
:109DC400059B5A1C0592CAB218336B4403F8082C3D
:109DD400059B98B204A9019B029A00F04BFE00BFB8
:109DE40007B05DF804FB00B587B002920193034607
:109DF400ADF80E300B46ADF80C3000230593BDF8DA
:109E04000C30002B0AD1059B5A1C0592BDF80E207C
:109E1400D2B218336B4403F8082C34E0BDF80E308A
:109E2400DAB2059B591C059142F04002D2B21833B4
:109E34006B4403F8082CBDF80C307F2B0AD8059B23
:109E44005A1C0592BDF80C20D2B218336B4403F8A7
:109E5400082C18E0BDF80C30DAB2059B591C0591AA
:109E640062F07F02D2B218336B4403F8082CBDF8B9
:109E74000C30DB0999B2059B5A1C0592CAB21833FF
:109E84006B4403F8082C059B98B204A9019B029A21
:109E940000F04EFD00BF07B05DF804FB00B587B0CD
:109EA4000190009100230593019B98B2009B99B205
:109EB40003AB0422FFF797FF032304930AE0059BF7
:109EC4001B0203A9049A0A44127813440593049BC1
:109ED400013B0493049B002BF1DA059B184607B061
:109EE4005DF804FB00B585B0019000910023ADF846
:109EF4000E30019B98B2009B99B203AB0222FFF78C
:109F040072FF9DF80D301B029BB29DF80C20134488
:109F1400ADF80E30BDF80E30184605B05DF804FB00
:109F240000B585B001900091019B98B2009B99B255
:109F34000DF10F030122FFF756FF9DF80F3018466D
:109F440005B05DF804FB00B585B00390029113469B
:109F54008DF80730039B98B2029B99B20DF1070369
:109F64000122FFF7E2FE00BF05B05DF804FB00B577
:109F740087B0039002911346ADF80630BDF8063061
:109F8400DBB28DF81430BDF806301B0A9BB2DBB28D
:109F94008DF81530039B98B2029B99B205AB02224F
:109FA400FFF7C3FE00BF07B05DF804FB00B587B040
:109FB400039002910192002305930CE0019BD9B216
:109FC40004AA059B13440A461A70019B1B0A0193B9
:109FD400059B01330593059B032BEFDD039B98B28F
:109FE400029B99B204AB0422FFF79FFE00BF07B0A7
:109FF4005DF804FB00B585B00190019B9BB21A4645
:10A0040004212D20FFF7B3FF032206212D20FFF7A3
:10A014009AFF002206212D20FFF795FF0A212D200B
:10A02400FFF73CFF0390039B184605B05DF804FB63
:10A0340008B5002202212C20FFF785FF022202210D
:10A044002C20FFF780FF00BF08BD00B583B001904E
:10A054006D2240F606012E20FFF775FF019B002BB1
:10A0640007D040F2076241F606012E20FFF77FFF7A
:10A0740006E041F2076241F606012E20FFF777FF62
:10A0840000BF03B05DF804FB08B50E2000F034F9FE
:10A094004FF4004206212D20FFF769FF012000F054
:10A0A400E7FD012000F028F900BF08BD00B585B028
:10A0B400019000211A20FFF7F1FE0390039B1B0D72
:10A0C4001B050393019BC3F31303039A13430393E5
:10A0D400039A00211A20FFF769FF00BF05B05DF85D
:10A0E40004FB000084B00390029101920093094B99
:10A0F4001B68039A9A62074B1B68029ADA62054B43
:10A104001B68019A1A63034B1B68009A5A6300BFC9
:10A1140004B07047A02C002010B584B0744B1C68A8
:10A1240000210F20FFF7BAFE0346E361E3690293BF
:10A13400029B03F48043002B73D04FF4DE420021D2
:10A144000F20FFF733FF6A4B1B68002283F824209B
:10A1540000211020FFF7C6FE0346ADF80630BDF817
:10A164000630C3F30903ADF80E30614B1B681B7A4C
:10A17400002B05D1BDF80E3003F07F03ADF80E308F
:10A184005B4B1B68BDF80E201A84BDF90630002B0A
:10A194000ADA574B1B6893F82420554B1B6842F08E
:10A1A4000102D2B283F82420514B1B6822330222CD
:10A1B40000211120FFF717FE029B03F00803002B78
:10A1C40018D04B4B1B6893F8223003F02003002B6C
:10A1D40010D1082200210F20FFF7E8FE444B1B6832
:10A1E400DA69434B1B6822F00802DA61404B1B68B2
:10A1F40000229A763E4B1B68DB6A002B07D03C4B4F
:10A204001B68DB6A3A4A12681C3210469847384B7E
:10A214001B685B7C002B04D0012203210D20FFF777
:10A2240092FE029B03F08003002B1FD0F822002132
:10A234000F20FFF7BBFE029B03F00803002B08D09E
:10A244002B4B1B689B7E002B03D000F00DF900F014
:10A254000FFA274B1B689B6A002B07D0244B1B6803
:10A264009B6A234A12681C3210469847029B03F4E7
:10A274000813002B1AD04FF4003200210F20FFF7EF
:10A2840095FE1B4B1B6800229A7600F0EDF800F057
:10A29400EFF9174B1B681B6B002B07D0144B1B6883
:10A2A4001B6B134A12681C3210469847029A114BD2
:10A2B4001340002B19D00F4A00210F20FFF776FE20
:10A2C4000B4B1B6800229A7600F0CEF800F0D0F910
:10A2D400074B1B685B6B002B07D0054B1B685B6B44
:10A2E400034A12681C321046984700BF04B010BDE0
:10A2F400A02C00200090052400B585B0019003AB8C
:10A30400022200213620FFF76EFD019B0E2B00F286
:10A314008D8001A252F823F06FA3020059A302001A
:10A3240089A3020031A4020031A4020031A4020076
:10A3340031A40200A3A30200CBA3020031A40200B3
:10A3440031A40200E9A30200F9A3020009A4020057
:10A3540023A4020000238DF80C309DF80D3023F067
:10A364000103DBB28DF80D3061E09DF80C305BB277
:10A3740023F003035BB243F001035BB2DBB28DF85D
:10A384000C3054E09DF80C305BB223F003035BB255
:10A3940043F002035BB2DBB28DF80C3047E09DF86A
:10A3A4000C305BB223F04C035BB243F048035BB266
:10A3B400DBB28DF80C309DF80D3063F07F03DBB217
:10A3C4008DF80D3033E09DF80C3023F04C03DBB2F4
:10A3D4008DF80C309DF80D3003F07F03DBB28DF85F
:10A3E4000D3024E09DF80D3043F00203DBB28DF80C
:10A3F4000D301CE09DF80D3023F00203DBB28DF824
:10A404000D3014E09DF80C305BB223F030035BB2E6
:10A4140043F020035BB2DBB28DF80C3007E001237C
:10A424008DF80C3003238DF80D3000E000BF03AB32
:10A43400012200213620FFF778FC03AB013301220F
:10A4440001213620FFF771FC00BF05B05DF804FB65
:10A4540008B50020FFF750FF002204213620FFF743
:10A4640086FD00BF08BD000000B583B000210E20AA
:10A47400FFF714FD019000F005FC0090002200217C
:10A484000E20FFF793FD402200210D20FFF75BFD16
:10A494000B4A00210F20FFF789FD00F015F8019AFF
:10A4A40000210E20FFF782FD009800F0EEFB054B23
:10A4B4001B6800229A7600BF03B05DF804FB00BF5E
:10A4C400F8FF2724A02C002000B583B003210F201F
:10A4D400FFF726FD03468DF807309DF807209DF809
:10A4E40007305B00534003F08003002B04D00122AB
:10A4F40003210D20FFF727FD00BF03B05DF804FB27
:10A5040000B585B00190019B03F00403002B01D139
:10A51400FFF7DAFF4FF48073ADF80E30019B03F0C0
:10A524000103002B05D0BDF80E3043F40073ADF8E1
:10A534000E30BDF80E301A4600210D20FFF717FD2E
:10A54400019B03F00103002B1CD003210F20FFF714
:10A55400E7FC03468DF80D309DF80D3003F0080339
:10A56400002B0FD0FFF780FF019B03F00203002BA9
:10A5740005D14FF4807200210D20FFF7F8FC4FF055
:10A58400FF3300E00023184605B05DF804FB00002B
:10A5940000B585B00346ADF8063003210420FFF76B
:10A5A400BFFC03468DF80F30BDF80630002B1CD0DD
:10A5B400BDF806301A4600210C20FFF7D8FC9DF8A0
:10A5C4000F3043F010038DF80F30144B1B685A6999
:10A5D400124B1B6842F080525A619DF80F301A46A4
:10A5E40003210420FFF7AFFC14E09DF80F3023F0A3
:10A5F40010038DF80F30094B1B685A69074B1B6811
:10A6040022F080525A619DF80F301A46032104202B
:10A61400FFF799FC00BF05B05DF804FBA02C0020F7
:10A6240000B585B001900B468DF8033000F02AFB8D
:10A63400029000210E20FFF731FC03909DF80330B7
:10A64400002B04D0039A019B1343039304E0019B62
:10A65400DB43039A13400393039A00210E20FFF770
:10A66400A5FC029800F011FB00BF05B05DF804FBE7
:10A6740008B5E02203213620FFF765FCF022032110
:10A684003620FFF760FC00BF08BD000008B5FFF7E7
:10A69400DFFE002200212C20FFF769FC00220621A6
:10A6A4002C20FFF750FCFFF7C3FC002203213620C7
:10A6B400FFF749FC012000F0DBFAF02203213620E9
:10A6C400FFF741FC024B1B6800229A7600BF08BDCD
:10A6D400A02C002000B585B003468DF807309DF905
:10A6E400073003F01F035BB243F060035BB28DF8E5
:10A6F4000F309DF80F301A460E212B20FFF723FC54
:10A7040000BF05B05DF804FB00B585B00190019B66
:10A71400002B0AD0074B43F001030393019B9B01D9
:10A724000293039B0298984700E000BF05B05DF8D0
:10A7340004FB00BF9022040000B583B00190019B8C
:10A744000433184604F050FD00BF03B05DF804FB69
:10A7540000B58FB003900291009313468DF8073033
:10A7640000230D93029B09939DF807300A93009BE5
:10A774000B939DF840300C93039B043309A90022EA
:10A78400184604F07FFE0D900D9B18460FB05DF83F
:10A7940004FB000000B583B00190019B1B681846C0
:10A7A40000F085F80346002B04D105494FF4F670F8
:10A7B400FCF798FD4FF0A043184603B05DF804FB86
:10A7C400F021040000B585B00190084611461A46F0
:10A7D40003468DF803300B468DF8023013468DF88E
:10A7E400013001AB1846FFF7D5FF03909DF8032015
:10A7F4009DF802305B001A439DF801309B001A4318
:10A804009DF818301B0242EA03019DF81C301B041A
:10A81400019A1943039B02F5E07243F8221000BF2A
:10A8240005B05DF804FB00B585B0039000230193E7
:10A83400002300930023012201210398FFF7C2FFA4
:10A8440000BF05B05DF804FB00B585B003900B466E
:10A854008DF80B309DF80B300022019200220092FB
:10A86400002200210398FFF7ADFF00BF05B05DF89B
:10A8740004FB00B585B0019001AB1846FFF78AFFD1
:10A884000390019B012202FA03F31946039800F096
:10A8940004F800BF05B05DF804FB82B0019000919C
:10A8A400019B009AC3F80C2500BF02B0704784B026
:10A8B4000190019B5B09029300230393029B002BED
:10A8C40003D14FF0FF33039300BF019B03F01F0339
:10A8D4000193039A019B22FA03F303F00103002B73
:10A8E40014BF01230023DBB2184604B0704700B53F
:10A8F40083B00190019B002B0AD04FF47A70FFF7CC
:10A9040003FF019B013B0193019B002BF5D100E068
:10A9140000BF03B05DF804FB82B001900091034BCB
:10A9240001221A7000BF02B0704700BF503B0020E4
:10A934002DE9F04F8FB002AF3961FA60BB60034676
:10A94400FB826B461E460023FB62FB8AFA681344B3
:10A95400FB62F96A0B46013BBB62002339607B60F2
:10A964004FF000024FF000037868C300386843EAF0
:10A9740050733868C20000238A469B464FF0000299
:10A984004FF000034FEACB0343EA5A734FEACA027B
:10A99400CB1DDB08DB00ADEB030D02AB00337B62A8
:10A9A400F96A0B46013B3B620023884699464FF007
:10A9B40000024FF000034FEAC90343EA58734FEA19
:10A9C400C80200230C461D464FF000024FF000035E
:10A9D400EB0043EA5473E200CB1DDB08DB00ADEB74
:10A9E400030D02AB0033FB61FA6A0021786A16F0AA
:10A9F40011F9FA6A0021F86916F00CF97B6ABB6157
:10AA0400FB8A1A463969B86916F0D2F8FB8ABA6922
:10AA14001344BB61FA680021B86916F0FBF8134BC4
:10AA240000221A70FB6ADAB2FB6ADBB20093FB699C
:10AA3400796A0F48FFF78CFE00BF0C4B1B78DBB222
:10AA440083F00103DBB2002BF7D1FB8AFA691344CC
:10AA5400BB61FA68B969B86816F0AAF80023B5466C
:10AA640018463437BD46BDE8F08F00BF503B002088
:10AA74007C2204002DE9F04F8FB002AF3961FA60F7
:10AA8400BB600346FB826B461E460023FB62FB8AC7
:10AA9400FA681344FB62F96A0B46013BBB6200236C
:10AAA40039607B604FF000024FF000037868C30008
:10AAB400386843EA50733868C20000238A469B46CC
:10AAC4004FF000024FF000034FEACB0343EA5A73FE
:10AAD4004FEACA02CB1DDB08DB00ADEB030D02AB72
:10AAE40000337B62F96A0B46013B3B6200238846D4
:10AAF40099464FF000024FF000034FEAC90343EABE
:10AB040058734FEAC80200230C461D464FF000025A
:10AB14004FF00003EB0043EA5473E200CB1DDB0863
:10AB2400DB00ADEB030D02AB0033FB61FA6A0021DD
:10AB3400786A16F06FF8FA6A0021F86916F06AF874
:10AB44007B6ABB61FB8A1A463969B86916F030F82A
:10AB5400FB8ABA691344BB61FA68B968B86916F02C
:10AB640027F80E4B00221A70FB6ADAB2FB6ADBB2DA
:10AB74000093FB69796A0A48FFF7EAFD00BF074BB7
:10AB84001B78DBB283F00103DBB2002BF7D1002387
:10AB9400B54618463437BD46BDE8F08F503B00201B
:10ABA4007C22040008B51820FFF73DFE1820FFF7AB
:10ABB40060FE0220FFF79BFE00211820FFF744FEF1
:10ABC4000220FFF794FE00BF08BD000010B586B058
:10ABD4000E4B01AC0FCB84E80F0011238DF8073026
:10ABE40001A900230A4A0B4803F028FF0590059B9E
:10ABF400002B04D0084AD421059807F0FDFF022059
:10AC0400FFF775FE00BF06B010BD00BF5C22040054
:10AC14001DA902007C2204002022040010B586B085
:10AC24000F48FFF789FD0F4B01AC0FCB84E80F00F1
:10AC340011238DF8073001A900230B4A084803F0BB
:10AC4400FDFE0590059B002B04D0084AE0210598E1
:10AC540007F0D2FF0220FFF74AFE00BF06B010BD86
:10AC64007C2204006C2204001DA90200202204009E
:10AC740000B583B001900198FFF739FE00BF03B01F
:10AC84005DF804FB00231846704782B0019000BFB2
:10AC940002B07047BFF34F8F00BF064BDB6803F46D
:10ACA400E0620449044B1343CB60BFF34F8F00BFF2
:10ACB40000BFFDE700ED00E00400FA0582B01D4B83
:10ACC4001B68B3F1FF3F0AD11B4B1B68DBB2019336
:10ACD4001A4B1B681B0903F00F03009305E0154B87
:10ACE4001B680193164B1B680093019B062B1DD117
:10ACF400009B033B042B17D801A252F823F000BF9A
:10AD040019AD02001DAD020021AD020025AD020007
:10AD140029AD020001230AE0012308E0012306E033
:10AD2400012304E0012302E0012300E0002318468C
:10AD340002B0704730010010E00F00F0E80F00F09F
:10AD44003401001082B0174B1B68DBB20193164B21
:10AD54001B681B0903F00F030093019B062B1DD1F5
:10AD6400009B033B042B17D801A252F823F000BF29
:10AD740089AD02008DAD020091AD020095AD0200D7
:10AD840099AD020001230AE0002308E0002306E055
:10AD9400002304E0002302E0002300E0002318461F
:10ADA40002B07047E00F00F0E80F00F082B01D4BD6
:10ADB4001B68B3F1FF3F0AD11B4B1B68DBB2019345
:10ADC4001A4B1B681B0903F00F03009305E0154B96
:10ADD4001B680193164B1B680093019B062B1DD126
:10ADE400009B033B042B17D801A252F823F000BFA9
:10ADF40009AE02000DAE020011AE020015AE020053
:10AE040019AE020001230AE0012308E0012306E051
:10AE1400012304E0012302E0012300E0002318469B
:10AE240002B0704730010010E00F00F0E80F00F0AE
:10AE34003401001082B0174B1B68DBB20193164B30
:10AE44001B681B0903F00F030093019B062B1DD104
:10AE5400009B033B042B17D801A252F823F000BF38
:10AE640079AE02007DAE020081AE020085AE020022
:10AE740089AE020001230AE0002308E0002306E073
:10AE8400002304E0002302E0002300E0002318462E
:10AE940002B07047E00F00F0E80F00F082B01D4BE5
:10AEA4001B68B3F1FF3F0AD11B4B1B68DBB2019354
:10AEB4001A4B1B681B0903F00F03009305E0154BA5
:10AEC4001B680193164B1B680093019B062B1DD135
:10AED400009B033B042B17D801A252F823F000BFB8
:10AEE400F9AE0200FDAE020001AF020005AF0200A0
:10AEF40009AF020001230AE0012308E0012306E070
:10AF0400012304E0012302E0012300E000231846AA
:10AF140002B0704730010010E00F00F0E80F00F0BD
:10AF24003401001082B0174B1B68DBB20193164B3F
:10AF34001B681B0903F00F030093019B062B1DD113
:10AF4400009B033B042B17D801A252F823F000BF47
:10AF540069AF02006DAF020071AF020075AF02006D
:10AF640079AF020001230AE0002308E0002306E091
:10AF7400002304E0002302E0002300E0002318463D
:10AF840002B07047E00F00F0E80F00F082B0174BFA
:10AF94001B68DBB20193164B1B681B0903F00F03FC
:10AFA4000093019B062B1DD1009B033B042B17D858
:10AFB40001A252F823F000BFD1AF0200D5AF0200C6
:10AFC400D9AF0200DDAF0200E1AF020001230AE0C5
:10AFD400002308E0002306E0002304E0002302E04D
:10AFE400002300E00023184602B07047E00F00F091
:10AFF400E80F00F082B01D4B1B68B3F1FF3F0AD18C
:10B004001B4B1B68DBB201931A4B1B681B0903F033
:10B014000F03009305E0154B1B680193164B1B6847
:10B024000093019B062B1DD1009B033B042B17D8D7
:10B0340001A252F823F000BF51B0020055B0020043
:10B0440059B002005DB0020061B0020000230AE0C2
:10B05400002308E0012306E0012304E0012302E0C9
:10B06400012300E00023184602B0704730010010AD
:10B07400E00F00F0E80F00F03401001082B01D4B27
:10B084001B68B3F1FF3F0AD11B4B1B68DBB2019372
:10B094001A4B1B681B0903F00F03009305E0154BC3
:10B0A4001B680193164B1B680093019B062B1DD153
:10B0B400009B033B042B17D801A252F823F000BFD6
:10B0C400D9B00200DDB00200E1B00200E5B0020038
:10B0D400E9B0020001230AE0012308E0012306E0AD
:10B0E400012304E0012302E0012300E000231846C9
:10B0F40002B0704730010010E00F00F0E80F00F0DC
:10B104003401001082B01D4B1B68B3F1FF3F0AD11C
:10B114001B4B1B68DBB201931A4B1B681B0903F022
:10B124000F03009305E0154B1B680193164B1B6836
:10B134000093019B062B1DD1009B033B042B17D8C6
:10B1440001A252F823F000BF61B1020065B1020010
:10B1540069B102006DB1020071B1020001230AE07D
:10B16400012308E0012306E0012304E0012302E0B7
:10B17400012300E00023184602B07047300100109C
:10B18400E00F00F0E80F00F03401001082B0154B1E
:10B194001B680193144B1B680093019B062B1DD164
:10B1A400009B033B042B17D801A252F823F000BFE5
:10B1B400C9B10200CDB10200D1B10200D5B1020083
:10B1C400D9B1020000230AE0002308E0002306E0CE
:10B1D400012304E0012302E0012300E000231846D8
:10B1E40002B07047300100103401001082B0154BDA
:10B1F4001B680193144B1B680093019B062B1DD104
:10B20400009B033B042B17D801A252F823F000BF84
:10B2140029B202002DB2020031B2020035B202009E
:10B2240039B2020000230AE0002308E0002306E00C
:10B23400002304E0012302E0012300E00023184678
:10B2440002B07047300100103401001008B5FFF758
:10B25400CDFF0346002B07D04FF010234FF0804260
:10B26400D3F80832C2F8583500BF08BD00BF044BFC
:10B27400D3F80034002BFAD000BF00BF704700BFE2
:10B2840000E0014000B583B00190054A019BC2F87B
:10B294000435FFF7EBFF00BF03B05DF804FB00BF0C
:10B2A40000E00140024B034A1A6000BF704700BF30
:10B2B400A42C00200090D00308B5FFF7FFFC034640
:10B2C400002B06D0964B1B681B0A964A03F01F03FB
:10B2D4001360FFF737FD0346002B02D0924B934ACD
:10B2E4001A60FFF763FD0346002B06D0904B1B68E2
:10B2F4005B0B904A03F007031360FFF79BFD0346C3
:10B30400002B05D08C4BDB688B4A23F08073D36011
:10B31400FFF7C4FD0346002B0ED04FF080430022FC
:10B32400C3F80C214FF080430022C3F810214FF0E2
:10B3340080430022C3F83825FFF7F4FD0346002BB1
:10B3440002D07E4B03221A60FFF720FE0346002B37
:10B354000BD07B4B05221A607A4B01221A607A4B80
:10B3640000221A60794B3F221A60FFF743FE03461E
:10B37400002B76D04FF08053754AD3F80434C2F8CA
:10B3840020354FF08053724AD3F80834C2F824357C
:10B394004FF080536E4AD3F80C34C2F828354FF07E
:10B3A40080536B4AD3F81034C2F82C354FF08053D5
:10B3B400674AD3F81434C2F830354FF08053644AE6
:10B3C400D3F81834C2F834354FF08053604AD3F8B8
:10B3D4001C34C2F840354FF080535D4AD3F8203412
:10B3E400C2F844354FF08053594AD3F82434C2F894
:10B3F40048354FF08053564AD3F82834C2F84C35B8
:10B404004FF08053524AD3F82C34C2F850354FF0E1
:10B4140080534F4AD3F83034C2F854354FF0805338
:10B424004B4AD3F83434C2F860354FF08053484A5D
:10B43400D3F83834C2F864354FF08053444AD3F813
:10B444003C34C2F868354FF08053414AD3F8403455
:10B45400C2F86C354FF080533D4AD3F84434C2F8F7
:10B464007035FFF70BFE0346002B05D0394B1B68E4
:10B47400394A03F04F031360FFF744FE0346002BE1
:10B484000DD04FF08043D3F8003403F00103002BB8
:10B4940005D04FF080436FF00102C3F80024FFF79A
:10B4A40075FE0346002B05D02C4B1B682B4A43F436
:10B4B400806313602A4BD3F88830294A43F470031D
:10B4C400C2F88830BFF34F8F00BFBFF36F8F00BF48
:10B4D400FFF7BCFE4FF01023D3F80032002B05DB3E
:10B4E4004FF01023D3F80432002B15DA0120FFF7B4
:10B4F400C9FE4FF010231522C3F80022FFF7B6FE51
:10B504004FF010231522C3F80422FFF7AFFE0020EA
:10B51400FFF7B8FEFFF7BEFBFFF7C4FE00BF08BD90
:10B52400240300104035014074C007400DF0ADBA4B
:10B53400440200103C050040F0ED00E0A00500408E
:10B5440010560040885600401856004014560040DB
:10B5540000C0004058020010E40E00403C170040B8
:10B5640000ED00E06DDF704700BF184679DF7047DB
:10B5740000BF18467DDF704700BF184664DF704780
:10B5840000BF184682B003460091ADF80630BDF8FE
:10B594000630DAB2009B1A70BDF806301B0A9AB264
:10B5A400009B0133D2B21A700223184602B07047CE
:10B5B40000B589B0039002911346ADF80630029BA2
:10B5C4001B8803F10902BDF806309A4201D90C2305
:10B5D40053E004AB1846FFF7C5FF0790079B06939B
:10B5E400069B002B01D0069B47E0029B1B881A4652
:10B5F400039B134408221A70029B1B8801339AB2DE
:10B60400029B1A80029B1B881A46039B13441B222D
:10B614001A70029B1B8801339AB2029B1A80029B08
:10B624001B881A46039B981804AB0133062219465B
:10B6340015F0BEFA029B1B8806339AB2029B1A804D
:10B644009DF8103023F00103DBB2002B07D1029BDD
:10B654001B881A46039B134400221A7006E0029BBF
:10B664001B881A46039B134401221A70029B1B88F1
:10B6740001339AB2029B1A800023184609B05DF880
:10B6840004FB00B589B0039002910192ADF8023039
:10B69400039B1B78012B05D1039B5B78002B01D105
:10B6A400072391E0019B1B889A1CBDF802309A4243
:10B6B4000ED8039B1B78012B0CD1019B1B881A46C7
:10B6C400039B5B7813449A1CBDF802309A4201D95B
:10B6D4000C2379E0019B1B88BDF80220D31A9BB28E
:10B6E400023BADF81C30BDF81C30ADF81230019BA4
:10B6F4001B880233029A13440DF1120211461846B4
:10B70400FFF738FF0690069B0593059B002B01D09D
:10B71400059B59E0039B1B78022B06D0039B5B78A7
:10B724001A46BDF812309A4209D3BDF81230BDF85A
:10B734001C209A4203D309238DF81F3016E00823F6
:10B744008DF81F30039B1B78012B0BD1039B5B7877
:10B754001A46BDF81C30934204D3039B5B78ADF8C2
:10B76400123003E0BDF81C30ADF81230BDF81230D1
:10B77400FE2B01D90C2327E0BDF81230DAB2019B6D
:10B784001B881946029B0B440132D2B21A70019BEA
:10B794001B8801339AB2019B1A80019B1B881A46AD
:10B7A400029B13449DF81F201A70019B1B880133D0
:10B7B4009AB2019B1A80019B1A88BDF81230134477
:10B7C4009AB2019B1A800023184609B05DF804FB65
:10B7D40000B589B0039002911346ADF80630029B80
:10B7E4001B881A1DBDF806309A4201D90C233AE091
:10B7F4000DF116031846FFF7B9FE0790079B069351
:10B80400069B002B01D0069B2DE0029B1B881A4649
:10B81400039B134403221A70029B1B8801339AB2C0
:10B82400029B1A80029B1B881A46039B134419220D
:10B834001A70029B1B8801339AB2029B1A80BDF8CE
:10B844001620029B1B881946039B0B44194610467D
:10B85400FFF798FE03461A46029B1B8813449AB2CC
:10B86400029B1A800023184609B05DF804FB84B0DB
:10B87400029101921A4603468DF80F301346ADF833
:10B884000C30019B1B88DA1CBDF80C309A4201D99C
:10B894000C2328E0019B1B881A46029B13440222B6
:10B8A4001A70019B1B8801339AB2019B1A80019B79
:10B8B4001B881A46029B134401221A70019B1B88A1
:10B8C40001339AB2019B1A80019B1B881A46029B82
:10B8D40013449DF80F201A70019B1B8801339AB200
:10B8E400019B1A800023184604B0704784B002916B
:10B8F40001921A4603468DF80F301346ADF80C300A
:10B90400019B1B88DA1CBDF80C309A4201D90C2328
:10B9140028E0019B1B881A46029B134402221A70DA
:10B92400019B1B8801339AB2019B1A80019B1B88DF
:10B934001A46029B13440A221A70019B1B88013386
:10B944009AB2019B1A80019B1B881A46029B1344DE
:10B954009DF80F201A70019B1B8801339AB2019B3A
:10B964001A800023184604B0704700B58FB00390C6
:10B9740001930B468DF80B3013468DF80A300023E3
:10B984008DF83330109B1B88ADF8303000230D93B5
:10B9940070E0039B5A680D9B9B001A4405AB10682A
:10B9A40018600DF11B0105AB00221846FFF7E6FDF8
:10B9B4000A900A9B0993099B002B01D0099B7BE009
:10B9C4009DF81B309DF80A209A4250D19DF83330DF
:10B9D400002B01D0002300E002238DF82330109BBC
:10B9E4001B881A469DF81B301A449DF823301A44CC
:10B9F400BDF844309A4201DD0C235DE09DF83330FC
:10BA040083F00103DBB2002B16D0109B1B8801339B
:10BA14009AB2109B1A80109B1B881A46019B1344F0
:10BA24009DF80B201A70109B1B8801339AB2109B4F
:10BA34001A8001238DF83330109B1B881A46019B12
:10BA44001A440DF11B0105AB1846FFF797FD0A9048
:10BA54000A9B0793079B002B01D0079B2CE0109BAC
:10BA64001B889DF81B2013449AB2109B1A800D9BCF
:10BA740001330D93039B1B881A460D9B934288DB6D
:10BA84009DF83330002B16D0109B1A88BDF8303047
:10BA9400D31A9BB2013BADF82E30BDF82E30FF2BEC
:10BAA40001D90C2308E0BDF83030019A1344BDF8E5
:10BAB4002E20D2B21A70002318460FB05DF804FB92
:10BAC40000B58BB0059003930B468DF813301346E5
