:020000022000DC
:106000000000012019620200016202000362020026
:10601000056202000762020009620200000000003F
:106020000000000000000000000000000B62020001
:106030000D620200000000000F6202001162020007
:1060400045F3020013620200A9000300136202007C
:10605000990C030013620200A5FF02001362020004
:106060001362020013620200136202001362020054
:106070001362020013620200136202001362020044
:106080001362020061460300136202001362020001
:10609000136202001362020071F503001362020032
:1060A0001362020013620200136202001362020014
:1060B00013620200136202000000000000000000F2
:1060C00013620200136202001362020013620200F4
:1060D000136202001362020013620200000000005B
:1060E00000000000000000000000000000000000B0
:1060F00000000000000000000000000000000000A0
:10610000000000000000000000000000000000008F
:10611000000000000000000000000000000000007F
:10612000000000000000000000000000000000006F
:10613000000000000000000000000000000000005F
:10614000000000000000000000000000000000004F
:10615000000000000000000000000000000000003F
:10616000000000000000000000000000000000002F
:10617000000000000000000000000000000000001F
:10618000000000000000000000000000000000000F
:1061900000000000000000000000000000000000FF
:1061A00000000000000000000000000000000000EF
:1061B00000000000000000000000000000000000DF
:1061C00000000000000000000000000000000000CF
:1061D00000000000000000000000000000000000BF
:1061E00000000000000000000000000000000000AF
:1061F000000000000000000000000000000000009F
:10620000FEE7FEE7FEE7FEE7FEE7FEE7FEE7FEE766
:10621000FEE7FEE700F002B8FFF7FCBF0F484FF0C3
:106220000701884385460E4880470E48016841F4BF
:1062300070010160BFF34F8FBFF36F8F00F01AB88A
:1062400009480A490A4A884207D0521A05D00378F9
:1062500001300B700131013AF9D170470000012083
:106260000DB8020088ED00E010150400D82A0020C7
:10627000202B00203A493B480A1A02D007229143BA
:106280008D46394939480A1A06D00722914381F3CD
:106290000988022282F3148835483649364A00F0CC
:1062A00041F836483649374A00F03CF83648374915
:1062B000374A00F037F837483749384A00F032F8A3
:1062C00037483849384A00F02DF838483849394AB3
:1062D00000F028F838483949394A00F023F839489D
:1062E0003949002200F036F838483949002200F0D8
:1062F00031F838483849091A1AF0E4FD374A90470E
:1063000025482649884205D00268043003B49047E6
:1063100003BCF7E700208646EC4600200021304A07
:106320009047FEE7884214D0521A12D003460B431E
:1063300013430324234206D1036804300B60043165
:10634000043AF9D17047037801300B700131013AFA
:10635000F9D17047884202D002700130FAE77047E5
:106360000000012000E000200000012000000120CA
:10637000C4590400202B00207C2D0020E46302007F
:10638000E463020036130400C4590400202B0020EB
:10639000202B00205815040058150400581504003F
:1063A0005815040058150400581504005815040029
:1063B00058150400C1590400205C04007C2D002005
:1063C0007C2D00207C2D0020944C0020944C00203B
:1063D000984C0020984C0020986C002041620200EC
:0463E000A98102008D
:1063E40033DF704700BF184641DF704700BF1846CF
:1063F40076DF704700BF18467ADF704700BF184643
:106404007CDF704700BF18467FDF704700BF184627
:106414008FDF704700BF1846B1DF704700BF1846D2
:1064240000B583B003460091ADF80630BDF80630E0
:10643400009A194603480CF087FE00BF03B05DF8CC
:1064440004FB00BFEFBEADDE00B583B00DF0AAFAC9
:106454000190019B0093009B002B04D0044A9021DF
:1064640000980CF071FE00BF03B05DF804FB00BFA0
:106474005815040000B587B09DF80030012262F37E
:1064840003038DF800309DF80030012262F30713F6
:106494008DF800306B460B221A491846FFF7B0FFFF
:1064A4000590059B0493049B002B04D0164AA3215A
:1064B40004980CF049FE01AB0822002118461AF09A
:1064C40051FE1023ADF804303C23ADF80630002310
:1064D400ADF808304FF4C873ADF80A3001AB184674
:1064E400FFF78AFF0590059B0393039B002B04D0C1
:1064F400054AAD2103980CF027FE00BF07B05DF8F4
:1065040004FB00BFB41504005815040000B583B0A3
:106514000190044ABA2101980CF016FE00BF03B0A2
:106524005DF804FB5815040000B587B00190019B89
:106534001B78002B5CD1304A304BD31ADB081B0488
:1065440043F004032E49184617F0E2FA2A4A2B4B6B
:10655400D31ADB081B0443F00400019B1969019B57
:106564009B8A1A4617F038FB002305932AE0019B07
:106574001A69059B13441B7818460DF09FFB049081
:10658400049B002B18D0049B112B15D01A4A1B4BCB
:10659400D31ADB081B0443F00103049A1949184673
:1065A40017F0C4FA049B0393039B002B04D0164AF0
:1065B400D82103980CF0C8FD049B112BD7D0059B60
:1065C40001330593019B9B8A1A46059B9342CED3C4
:1065D400019B1A69019B9B8A013B13441B780D2B79
:1065E40006D100BF0A200DF069FB0346112BF9D038
:1065F40000BF07B05DF804FB8814040058140400BD
:10660400C0150400F41504005815040000B587B043
:1066140000230193164B019301AB1946154807F06B
:1066240083FF0590059B0493049B002B04D0124A1E
:10663400F22104980CF088FD02AB042200211846D4
:106644001AF090FD0D4B029302AB19460C4808F06A
:10665400A7F90590059B0393039B002B04D0064ADE
:10666400FA2103980CF070FD00BF07B05DF804FB3D
:1066740011650200942D0020581504002D650200B8
:10668400282B002000B585B00190019B1B78002BBE
:1066940011D10B4B1B883B211846FFF7A9FE039031
:1066A400039B0293029B002B05D0064A4FF488718A
:1066B40002980CF049FD00BF05B05DF804FB00BF73
:1066C400442B00205815040000B583B00190054AFE
:1066D40040F21B1101980CF037FD00BF03B05DF8C8
:1066E40004FB00BF5815040000B58BB001AB1C229D
:1066F400002118461AF036FD002301934FF4A0330D
:1067040002934FF4F023039303238DF810300023F6
:10671400ADF8123000238DF814300C4B06930C4B5B
:10672400079301AB184606F0ADFD0990099B089349
:10673400089B002B05D0074A4FF4997108980CF078
:1067440003FD00BF0BB05DF804FB00BF89660200C7
:10675400CD6602005815040000B585B0002003F092
:10676400E9F80390039B0293029B002B05D0134A84
:1067740040F23D1102980CF0E7FC03F064FA039038
:10678400039B0193019B002B05D00C4A40F241115D
:1067940001980CF0D9FCFFF723FE0390039B0093B0
:1067A400009B002B05D0054A40F2451100980CF0DF
:1067B400CBFC00BF05B05DF804FB00BF5815040016
:1067C40000B585B003468DF807309DF80730002BDF
:1067D40011D0032B12D1022003F0ACF80390039BD9
:1067E4000293029B002B0BD0084A40F257110298E7
:1067F4000CF0AAFC04E0FFF7F7FD02E000BF00E0A4
:1068040000BF00BF05B05DF804FB00BF58150400CD
:1068140000B58DB001900091019B1B88562B00F0B0
:10682400DF80562B00F3EF80522B00F0B280522B06
:1068340000F3E980212B2DDC102BC0F2E480103B07
:10684400112B00F2E08001A252F823F0A1680200AB
:10685400056902000B6A02006F6902000B6A0200FC
:106864000B6A02000B6A02000B6A02000B6A020048
:106874000B6A02000B6A02000B6A02000B6A020038
:106884000B6A02000B6A02000B6A02000B6A020028
:10689400256902003B2B00F09080B4E0624A634B10
:1068A400D31ADB081B0443F003036149184617F0AD
:1068B4002FF9072003F03EF80B900B9B0593059BE3
:1068C400002B05D05B4A40F2711105980CF03CFC9A
:1068D400019B9A88584B1A80574B1B881946574876
:1068E40007F044FE0B900B9B0493049B002B00F0D9
:1068F4008C80504A4FF4BA7104980CF025FC84E063
:10690400494A4A4BD31ADB081B0443F003034C499E
:10691400184617F0FDF8484B4FF6FF721A807FE0D7
:10692400414A424BD31ADB081B0443F00403454994
:10693400184617F0EDF800238DF80C3000238DF87D
:106944000D30019B9B8803AA11461846FFF760FD92
:106954000B900B9B0793079B002B58D0354A4FF4A1
:10696400C37107980CF0F0FB51E0334B18880023F7
:1069740000228521FFF748FD0B900B9B0693069B95
:10698400002B46D02B4A4FF4C67106980CF0DCFB62
:106994003FE0294B1888002300220021FFF73CFD2B
:1069A4000B900B9B0993099B002B34D0214A4FF485
:1069B400C97109980CF0C8FB2DE0019B9B88132139
:1069C4001846FFF715FD0B900B9B0893089B002BB3
:1069D40023D0184A40F2991108980CF0B5FB1CE03A
:1069E400019B9B8813211846FFF702FD0B900B9B1C
:1069F4000A930A9B002B12D00E4A4FF4D0710A98C6
:106A04000CF0A2FB0BE000BF0AE000BF08E000BFEF
:106A140006E000BF04E000BF02E000BF00E000BFEA
:106A240000BF0DB05DF804FB881404005814040082
:106A34002016040058150400442B0020942D002037
:106A44002C1604003C16040000B587B018F0AEFC08
:106A54000590059B0493049B002B05D0164A40F235
:106A6400B31104980CF070FB0023019301AB194699
:106A7400012018F0B1FD0590059B0393039B002BA7
:106A840005D00D4A40F2B91103980CF05DFB01AB3F
:106A9400184618F0BFFE0590059B0293029B002B3D
:106AA40005D0054A40F2BD1102980CF04DFB00BF21
:106AB40007B05DF804FB00BF5815040000B583B0AF
:106AC40001900091009B5A88184B1B889A421AD156
:106AD400009B1B8840F67722934214D1009B9B882D
:106AE400033B9AB2124B1A80124A134BD31ADB0897
:106AF4001B0443F003000E4B1B881A460C4B1B88E7
:106B04000E4917F024F80B4A0B4BD31ADB081B046D
:106B140043F00400019B5B881A46019B1B880849CB
:106B240017F015F800BF03B05DF804FB442B0020F8
:106B3400462B002088140400581404005016040046
:106B44006C16040000B585B01149124807F0D6FB55
:106B54000390039B0293029B002B05D00E4A4FF433
:106B6400EC7102980CF0F0FAF7210A4807F0F1FBF7
:106B74000390039B0193019B002B05D0064A40F22E
:106B8400DB1101980CF0E0FA00BF05B05DF804FBDE
:106B9400C16A0200802D00205815040000B587B09A
:106BA40003468DF807309DF807300A2B06D00A2BD0
:106BB40036DC042B05D0072B19D031E0FFF7CCFDD0
:106BC40033E01C4B1B8813211846FFF711FC05907A
:106BD400059B082B26D0059B0393039B002B21D0F8
:106BE400154A4FF4F87103980CF0AEFA1AE0114B01
:106BF4001B884FF6FF72934216D1104806F0C3F972
:106C04000590059B082B0FD0059B0493049B002B38
:106C14000AD0094A4FF4FD7104980CF095FA03E088
:106C240000BF02E000BF00E000BF00BF07B05DF896
:106C340004FB00BF442B002058150400A02D0020A5
:106C440000B5AFB001ABAC22002118461AF08AFAA5
:106C540002238DF8043000238DF8063005238DF8C7
:106C640007300123ADF85030124B159301238DF8F2
:106C740080304023239344F2506324930E4B2A9391
:106C840001AB19460D4805F063FF2D902D9B2C9305
:106C94002C9B002B05D00A4A40F277212C980CF04B
:106CA40053FA0121054805F046FF00BF2FB05DF8F7
:106CB40004FB00BF482B0020C5670200A02D002064
:106CC4005815040000B587B001901749032002F05D
:106CD4004BFE0590059B0493049B002B05D0134A9F
:106CE40040F2862104980CF02FFA0DF10B0319469B
:106CF400002003F00BF80590059B0393039B002BE6
:106D040005D00A4A40F2892103980CF01DFA9DF837
:106D14000B30022B0CBF01230023DAB2019B1A7043
:106D240000BF07B05DF804FBA16B02005815040016
:106D340000B583B04FF48041002016F0D7FB0190DA
:106D4400019B0093009B002B05D0064A4FF425714C
:106D540000980CF0F9F916F055FB00BF03B05DF88C
:106D640004FB00BF5815040000B583B015F078FB90
:106D74000190019B0093009B002B05D0044A4FF423
:106D8400287100980CF0E0F900BF03B05DF804FB33
:106D94005815040000B583B00321094805F0B0FF7D
:106DA4000190019B0093009B002B05D0054A40F203
:106DB400B62100980CF0C8F900BF03B05DF804FBDD
:106DC400A02D00205815040000B583B0FFF7B0FFD4
:106DD400FFF73AFB0DF107031846FFF773FFFFF7C0
:106DE400C3FFFFF731FEFFF745FBFFF7ABFEFFF7ED
:106DF4000DFCFFF725FFFFF777FCFFF7CBFF00BF84
:106E040003B05DF804FB82B00190019B9B68D3F84A
:106E14004831C3F34003DBB2002B14BF012300232A
:106E2400DBB2184602B0704730B58DB0124B02ACDD
:106E34001D460FCD0FC495E80F0084E80F0005230D
:106E440002930B23039300238DF81C3002A9032320
:106E5400009301230122094812F032FC0B900B9B92
:106E64000A930A9B002B04D0054A6A210A980CF065
:106E74006BF900BF0DB030BDC4170400081F040037
:106E84006C17040000B583B0084812F057FC019059
:106E9400019B0093009B002B04D0054A71210098AC
:106EA4000CF052F900BF03B05DF804FB081F0400A6
:106EB4006C17040008B5024812F08CFC00BF08BD32
:106EC400081F040000B587B0059004910392039B4A
:106ED4000193049B0093039B044A0221059812F03A
:106EE40009FD00BF07B05DF804FB00BFE417040010
:106EF40000B585B003900291029B0093029B044A63
:106F04000221039812F0F6FC00BF05B05DF804FB03
:106F14001818040000B58DB00790069105920493EB
:106F2400069B9BB2ADF82030059B9BB2ADF8223096
:106F3400049B09930E9B03339B080A930E9B0293B5
:106F4400049B0193059B0093069B0D4A002107981F
:106F540012F0D0FC08AB194600200FF07DF90B901D
:106F64000B9B002B08D00B9800F014FD0346054A38
:106F74000221079812F0BEFC00BF0DB05DF804FBBF
:106F84004C1804009418040000B58DB001900091D1
:106F940008AB00221A605A609A6006AB00221A609D
:106FA4005A6006AB08AA47F2100148F210000FF02D
:106FB400EEF90346002B1FD148F21003ADF80C3054
:106FC40047F21003ADF80E30009B0493062305939B
:106FD40003AA08AB114618460FF04DF90B900B9B12
:106FE400002B0ED00B9800F0D5FC0346074A022173
:106FF400019812F07FFC04E0054A0221019812F086
:1070040079FC00BF0DB05DF804FB00BFBC180400A0
:10701400E818040000B58DB005900491039209AB03
:1070240000221A605A6006AB00221A605A609A6005
:10703400039B0093049B184A0021059812F05AFC04
:10704400049B98B2039B99B209AB06AA0FF09FF96F
:107054000346002B18D106AB18460FF021F90B900C
:107064000B9B002B09D00B9800F094FC03460B4AB1
:107074000221059812F03EFC0BE0069B084A002111
:10708400059812F037FC04E0064A0221059812F034
:1070940031FC0DB05DF804FB0C1904003819040030
:1070A400641904007819040000B587B003AB00220A
:1070B4001A605A606B4600221A605A609A6003AAEA
:1070C4006B46114618460FF053F90346002B0BD1BB
:1070D4006B4618460FF0E4F80590059B002B01D091
:1070E400002302E0012300E00023184607B05DF806
:1070F40004FB000000B585B003900291019203984F
:10710400FFF781FE0346002B05D0002200210398DF
:1071140012F01CFD0FE0029B022B04D008490398D7
:10712400FFF7E6FE07E0019B04331B68044A194697
:107134000398FFF7C7FE00BF05B05DF804FB00BF6E
:107144009419040000B593B00790069105920CAB16
:1071540000221A605A609A600AAB00221A605A60D0
:1071640061E008AB00221A605A6008AA0CAB114611
:1071740018460EF0E7FF1190119B48F20C629342FF
:107184000DD0119B48F20C62934214D8119B002B32
:107194001BD0119B48F20962934206D00BE02A4AA5
:1071A4000221079812F0A6FB3DE0284A0221079825
:1071B40012F0A0FB37E0119800F0ECFB0346244AE0
:1071C4000221079812F096FB2DE000BF099B109353
:1071D400109B1B7D002B01D01E4800E01E48109B15
:1071E4005B7D002B01D01B4B00E01B4B109A1268F7
:1071F400109904310291019200930346174A002129
:10720400079812F077FB0CAB18460EF0D9FF1190DB
:10721400119B0F930F9B002B05D0114A40F245118F
:107224000F980BF091FF0AAB0CAA47F2100148F239
:1072340010000FF0ACF80346002B92D000BF00BF43
:1072440013B05DF804FB00BF9C1904007819040016
:10725400B8190400D4190400D8190400DC19040076
:107264006C170400F0B597B00B900A91099210AB1B
:1072740000221A605A609A600EAB00221A605A60AB
:10728400F9E00CAB00221A605A600CAA10AB11464C
:1072940018460EF057FF1590159B48F20C62934266
:1072A4000DD0159B48F20C62934214D8159B002B09
:1072B4001BD0159B48F20962934206D00BE0764A34
:1072C40002210B9812F016FBD5E0744A02210B98A8
:1072D40012F010FBCFE0159800F05CFB0346704AF7
:1072E40002210B9812F006FBC5E000BF0D9B14931E
:1072F4006C4A00210B9812F0FDFA149B1B786A4A21
:1073040000210B9812F0F6FA149B5B78184601F0F2
:1073140013FC0346654A00210B9812F0EBFA149B08
:107324009B78184601F038FC0346614A00210B980B
:1073340012F0E0FA149BDB79184601F0E1FB0346F6
:107344005C4A00210B9812F0D5FA149B1B795A4A17
:1073540000210B9812F0CEFA149BDB78184601F04A
:10736400FDFB0346554A00210B9812F0C3FA149B07
:107374009B79534A00210B9812F0BCFA149B1B7A98
:10738400504A00210B9812F0B5FA149B1B8B9BB248
:107394004D4A00210B9812F0ADFA149B93F8223059
:1073A4004A4A00210B9812F0A5FA149BD3F86330D3
:1073B400474A00210B9812F09DFA149BD3F86730CA
:1073C400444A00210B9812F095FA149BD3F86B30C1
:1073D400414A00210B9812F08DFA149BD3F86F30B8
:1073E4003E4A00210B9812F085FA149BD3F87330AF
:1073F4003B4A00210B9812F07DFA149BD3F87730A6
:10740400384A00210B9812F075FA149B93F8213036
:107414001F46149B93F820301A46149BDB7F1946B1
:10742400149B9B7F1846149B5B7F1C46149B1B7FFD
:107434001D46149BDB7E1E46149B9B7E069305967D
:10744400049503940290019100923B46264A002140
:107454000B9812F04FFA10AB18460EF0B1FE1590CF
:10746400159B1393139B002B05D0204A40F28311E4
:1074740013980BF069FE0EAB10AA41F201014DF610
:10748400CA600EF084FF0346002B3FF4FAAE00BF3F
:1074940000BF17B0F0BD00BF9C19040078190400A8
:1074A400B8190400141A0400281A0400381A040035
:1074B400441A0400541A0400681A0400781A0400D8
:1074C400841A0400941A0400A41A0400B81A0400CC
:1074D400CC1A0400E01A0400F01A0400001B040093
:1074E400101B0400201B0400341B04006C17040050
:1074F40000B593B00790069105920DAB00221A6077
:107504005A600AAB00221A605A609A60384A002115
:10751400079812F0EFF95AE008AB00221A605A609B
:1075240008AA0AAB114618460EF00CFE1190119BE6
:1075340048F20C6293420DD0119B48F20C629342C4
:1075440014D8119B002B1BD0119B48F20962934263
:1075540006D00BE0274A0221079812F0CBF936E057
:10756400254A0221079812F0C5F930E0119800F07D
:1075740011FA0346214A0221079812F0BBF926E0CA
:1075840000BF089B5B889B001093089B9A68089B2C
:107594009B881946089B1B881846109B02930190F0
:1075A40000911346164A0021079812F0A3F90AAB7A
:1075B40018460EF005FE1190119B0F930F9B002BA4
:1075C40005D0104A4FF4DE710F980BF0BDFD0DAAE3
:1075D4000AAB114618460EF0CBFE034648F2096288
:1075E400934299D100BF00BF13B05DF804FB00BF04
:1075F400641B04009C19040078190400B8190400E1
:10760400881B04006C17040000B589B00590049130
:1076140003920598FFF7F7FB0346002B05D00022E1
:107624000021059812F092FA49E0049B042B04D03F
:1076340025490598FFF75CFC41E0039B04331B6874
:1076440010220021184618F0F3F90346ADF81E3055
:10765400039B08331B6810220021184618F0E8F930
:107664000346ADF81C30039B0C331B68184619F015
:1076740088FC0346FF2B07D8039B0C331B68184672
:1076840019F07FFC034601E04FF4807306934FF436
:10769400807200210D4819F065FD039B0C331B68B3
:1076A400069A1946094819F02BFDBDF81E10BDF8BD
:1076B4001C20069B0093054B0598FFF72BFC00BF8D
:1076C40009B05DF804FB00BFB01B04007C3500204A
:1076D40000B58BB00790069105920798FFF793FBCE
:1076E4000346002B05D000220021079812F02EFA41
:1076F40072E0069B052B04D039490798FFF7F8FB85
:107704006AE018220021374819F02CFD059B043348
:107714001B683549184619F0A7FC0346002B0CBF1B
:1077240001230023DAB22F4B1A75059B08331B681B
:107734002D49184619F098FC0346002B0CBF012371
:107744000023DAB2274B5A75059B0C331B680A22B7
:107754000021184618F06CF903461A46214B1A60AA
:10776400059B10331B68184619F00BFC03460F2BBE
:1077740008D8059B10331B68184619F002FC034611
:107784009BB200E01023ADF82630059B10331B6834
:10779400BDF826201946154819F0B2FC114B1B7D83
:1077A400002B01D0104900E011490E4B5B7D002BEA
:1077B40001D00D4B00E00E4B0A4A12680B480290B0
:1077C400019200930B460B4A0021079812F092F89D
:1077D40004490798FFF7D8FB00BF0BB05DF804FB22
:1077E400B81B04007C360020D41904008036002025
:1077F400D8190400C01B040000B587B0039002919F
:1078040001920398FFF7FFFA0346002B05D00022EC
:107814000021039812F09AF920E0029B022B04D86D
:1078240010490398FFF764FB18E0019B04331B68BD
:1078340010220021184618F0FBF803460593019B1B
:1078440008331B6810220021184618F0F1F803468B
:107854000493049A05990398FFF7DCFB00BF07B073
:107864005DF804FB041C040000B585B0039002918C
:1078740001920398FFF7C7FA0346002B05D00022B4
:107884000021039812F062F909E0029B012B04D055
:1078940005490398FFF72CFB01E000F045F900BF10
:1078A40005B05DF804FB00BF0C1C040070B592B079
:1078B4000990089107920998FFF7A5FA0346002B4F
:1078C40005D000220021099812F040F93AE00BABF0
:1078D40000221A605A609A60DA601A820BAB18466A
:1078E4000EF06CFD1190119B1093109B002B05D092
:1078F400164A40F2372110980BF026FCBDF82C30C4
:107904001E46BDF830301A46BDF832301344BDF877
:1079140030201146BDF832201046BDF838201446F8
:10792400BDF83A201546BDF83A2092000592049518
:1079340003940290019100933346054A002109986B
:1079440011F0D8FF00BF12B070BD00BF6C17040067
:10795400181C040000B587B00390029101920EF048
:10796400D5FC0590059B002B09D0059800F012F872
:107974000346054A0221039811F0BCFF00E000BF52
:1079840000BF07B05DF804FB901C040041DF7047A2
:1079940000BF184682B00190019BA3F50643034A39
:1079A40052F82330184602B0704700BFCC2B002099
:1079B40030B583B00190019B5B68002B11D1504A14
:1079C400504BD31ADB081B0443F00300019B1B78C4
:1079D4001A464D4B53F822301A464C4916F0A6F875
:1079E40018E0474A474BD31ADB081B0443F003044F
:1079F400019B1B781A46444B53F822301D46019BC9
:107A04005B681846FFF7C6FF03462A4640492046EE
:107A140016F09DF8019B1B78032B3AD0032B67DCEF
:107A2400002B02D0012B08D062E0019B5B68002B85
:107A340060D1384B01221A705CE0019B5B68002B1B
:107A44005AD12F4A2F4BD31ADB081B0443F00300EF
:107A5400019B9B681A46304916F068F8284A294B5E
:107A6400D31ADB081B0443F00300019B9B891A46CD
:107A74002A4916F05BF8224A224BD31ADB081B046E
:107A840043F00300019BDB891A46254916F04EF8A2
:107A940032E0019B5B68002B26D1194A194BD31A9B
:107AA400DB081B0443F00300019B9B681A461A4938
:107AB40016F03CF8124A134BD31ADB081B0443F0AC
:107AC4000300019B9B891A46144916F02FF80C4AAF
:107AD4000C4BD31ADB081B0443F00300019BDB8926
:107AE4001A460F4916F022F80E4B00225A7004E091
:107AF40000BF02E000BF00E000BF00BF03B030BD24
:107B040088140400581404009C2B0020B82004009E
:107B1400E020040012370020002104001421040096
:107B24002421040010370020024B01221A7000BFE8
:107B3400704700BF1037002008B5184B1B781A4651
:107B4400164B5B7883F00103DBB21340002B22D089
:107B5400134A144BD31ADB081B0443F003031249E2
:107B6400184615F0D5FFFFF79FFA03461A460B4B4C
:107B74001A700A4B1B7883F00103DBB2002B0AD086
:107B8400074A084BD31ADB081B0443F003030749D5
:107B9400184615F0BDFF00BF08BD00BF1037002018
:107BA40088140400581404003821040050210400EF
:107BB40008B5FFF7EBFE00BF08BD000008B501E003
:107BC400FFF7F6FF054B1B78DBB283F00103DBB252
:107BD400002BF5D100BF00BF08BD00BF1237002045
:107BE40000B5A1B0FFF720F9A04AA14BD31ADB08D6
:107BF4001B0443F003039F49184615F089FF9E4870
:107C04000EF08CF9994A9A4BD31ADB081B0443F003
:107C140003039A49184615F07BFF0EF0FBF91F90F9
:107C24001F9B1E931E9B002B05D0954A4FF4937106
:107C34001E980BF089FAFFF7C1FF8C4A8C4BD31ABC
:107C4400DB081B0443F003038E49184615F060FF5C
:107C5400864A874BD31ADB081B0443F003038A4983
:107C6400184615F055FF814A814BD31ADB081B04D3
:107C740043F003038549184615F04AFF7B4A7C4BC1
:107C8400D31ADB081B0443F003038149184615F09B
:107C94003FFF764A764BD31ADB081B0443F00303F9
:107CA4007C49184615F034FF704A714BD31ADB082F
:107CB4001B0443F003037849184615F029FF6B4A67
:107CC4006B4BD31ADB081B0443F0030373491846B8
:107CD40015F01EFF654A664BD31ADB081B0443F0FC
:107CE40003036F49184615F013FF604A604BD31A1B
:107CF400DB081B0443F003036A49184615F008FF28
:107D04005A4A5B4BD31ADB081B0443F0030366494E
:107D1400184615F0FDFE12AB00221A605A609A60F4
:107D2400DA601A8212AB18460EF048FB1F901F9BB4
:107D34001D931D9B002B05D0514A4FF49D711D9836
:107D44000BF002FA494A4A4BD31ADB081B0443F0EE
:107D54000303BDF84C205549184615F0E7FE434A85
:107D6400434BD31ADB081B0443F00303BDF84E2036
:107D74004F49184615F0DAFE0FAB00221A605A601C
:107D84009A600DAB00221A605A600DAB0FAA47F23D
:107D9400100148F210000EF0FAFA1F901F9B002BFE
:107DA4003ED106AB00221A605A6006AA0FAB1146F8
:107DB40018460EF0C7F91F901F9B1B931B9B002BAB
:107DC40005D02F4A40F24B111B980BF0BDF9079BCD
:107DD40018221946374819F093F9244A244BD31A28
:107DE400DB081B0443F00303324A12683249184685
:107DF40015F09CFE2F4B1B6801332E4A13600FAB0A
:107E040018460EF0DDF91F901F9B1A931A9B002B46
:107E140065D01B4A40F257111A980BF095F95EE0B1
:107E2400124A134BD31ADB081B0443F00303234900
:107E3400184615F06DFE0FAB214918460EF00CFAEA
:107E44001F901F9B002B3FD01F9B48F2066293425A
:107E54003AD1064A064BD31ADB081B0443F003034A
:107E64001849184615F054FE39E000BF8814040080
:107E740058140400D4210400B5790200EC21040054
:107E8400742104000022040014220400302204009F
:107E940054220400742204008C220400A82204004A
:107EA400C4220400E4220400042304002823040060
:107EB40040230400B42B002078230400A8230400EA
:107EC400CC250400C02304001F9B1C931C9B002B87
:107ED40005D0554A4FF4B8711C980BF035F90AAB2C
:107EE40000221A605A609A6008AB00221A605A6035
:107EF40008AB0AAA41F201014DF6CA600EF047FA36
:107F04001F901F9B002B39D104AB00221A605A60CA
:107F140004AA0AAB114618460EF014F91F901F9BD1
:107F24001893189B002B05D03F4A40F27F111898F4
:107F34000BF00AF9059B3D4A104619467B231A4665
:107F440019F0DEF83A4A3B4BD31ADB081B0443F022
:107F540003033949184615F0DBFD0AAB18460EF049
:107F64002FF91F901F9B1793179B002B56D02E4A57
:107F74004FF4C67117980BF0E7F84FE02B4A2F4BDC
:107F8400104619467B231A4619F0BAF8284A294B99
:107F9400D31ADB081B0443F003032949184615F0E0
:107FA400B7FD234A234BD31ADB081B0443F0030316
:107FB4002449184615F0ACFD4DF6CA63ADF80430FB
:107FC40041F20103ADF806301C4B02931F230393C7
:107FD40001AA0FAB114618460EF03EF91F901F9BE5
:107FE400002B10D01F9B48F2066293420BD1104A1B
:107FF400104BD31ADB081B0443F003031249184641
:1080040015F086FD0AE01F9B1993199B002B05D0E0
:10801400054A4FF4D97119980BF096F8FEF732FF20
:1080240000BF21B05DF804FB7421040094360020E5
:10803400881404005814040004240400D81F040005
:108044002024040048240400C02304004FF080438B
:10805400D3F800341846704782B001904FF0804244
:10806400019BC2F8003400BF02B0704700B583B072
:10807400FFF7ECFF0190414A414BD31ADB081B0484
:1080840043F00303019A3F49184615F04FFD019B45
:1080940003F00103002B0AD0384A394BD31ADB080A
:1080A4001B0443F003033849184615F031FD019BC6
:1080B40003F00203002B0AD0304A314BD31ADB08F9
:1080C4001B0443F003033149184615F021FD019BBD
:1080D40003F00403002B0AD0284A294BD31ADB08E7
:1080E4001B0443F003032A49184615F011FD019BB4
:1080F40003F00803002B0AD0204A214BD31ADB08D3
:108104001B0443F003032349184615F001FD019BAA
:1081140003F48033002B0AD0184A194BD31ADB0816
:108124001B0443F003031C49184615F0F1FC019BA2
:1081340003F40033002B0AD0104A114BD31ADB0886
:108144001B0443F003031549184615F0E1FC019B99
:1081540003F48023002B0AD0084A094BD31ADB0806
:108164001B0443F003030E49184615F0D1FC019893
:10817400FFF772FF00BF03B05DF804FB881404002E
:1081840058140400D8250400F02504000426040033
:10819400182604003426040048260400642604003B
:1081A4007C26040008B5FFF761FFFEF70DFEFFF71C
:1081B40017FD0C4817F002FD0B4A0C4BD31ADB08D1
:1081C4001B0443F003030A49184615F0A1FC00F010
:1081D400B5FA15F0B3FDFEF76DFEFFF7ADFC00F048
:1081E40083F8F6E79C26040088140400581404005D
:1081F400B026040000B583B00190019B1B681846AB
:1082040000F052F80346002B04D105494FF4F670F0
:10821400FEF706F94FF0A043184603B05DF804FBDF
:10822400DC26040000B585B00190084611461A46C4
:1082340003468DF803300B468DF8023013468DF853
:10824400013001AB1846FFF7D5FF03909DF80320DA
:108254009DF802305B001A439DF801309B001A43DD
:108264009DF818301B0242EA03019DF81C301B04E0
:10827400019A1943039B02F5E07243F8221000BFF0
:1082840005B05DF804FB00B585B0039000230193AD
:10829400002300930023012201210398FFF7C2FF6A
:1082A40000BF05B05DF804FB84B00190019B5B093D
:1082B400029300230393029B002B03D14FF0FF335F
:1082C400039300BF019B03F01F030193039A019BD7
:1082D40022FA03F303F00103002B14BF012300234C
:1082E400DBB2184604B070472DE9F04FADF5377D89
:1082F4007D4B1B78002B00F0F1800023B5931CE02C
:108304007A49B59A13465B0013441B010B440433AA
:1083140019687648B59A13465B0013441B0103445D
:108324002833D3E9002362A8CDE900230A46704923
:1083340018F005FBB59B0133B5936E4B1B68B59ADA
:108344009A42DDDB0023B49344E0B49B5A1C674992
:1083540013465B0013441B010B442833D3E9002369
:1083640010466249B49A13465B0013441B010B4444
:108374002833D3E900231346C11AB49B5A1C5B4823
:1083840013465B0013441B01034418331868574B0E
:108394004F93B49A13465B0013441B014F9A134442
:1083A40018331B68C31A1B02CB1A1946B6ABA3F5C4
:1083B400BC73B49A43F82210B6ABA3F5BC73B49A59
:1083C40053F8223062A8B49A4B4918F0B8FAB49B17
:1083D4000133B493474B1B68013BB49A9A42B4DB14
:1083E4000023B3935BE04149B39A13465B00134403
:1083F4001B010B440C331B68DA171C461546B6AB3D
:10840400A3F5A871B39A13465B001344DB000B4435
:10841400C3E900453549B39A13465B0013441B0175
:108424000B4410331B68DA171E461746B6ABA3F588
:10843400A871B39A13465B001344DB000B44083362
:10844400C3E900672949B39A13465B0013441B012F
:108454000B4414331B68DA1798469146B6ABA3F560
:10846400A871B39A13465B001344DB000B4410332A
:10847400C3E90089B6ABA3F5BC73B39A53F82230B1
:10848400DA179A469346B6ABA3F5A872B39B1E338C
:10849400DB001344C3E900ABB39B0133B393154B27
:1084A4001B68B39A9A429EDB124B1B681E46B6ABFE
:1084B400A3F5CC75B6ABA3F5A874684604F108031C
:1084C4004FF49C72194618F01BFE94E80C003146D8
:1084D400284600F079FA044B00221A7000BF0DF50B
:1084E400377DBDE8F08F00BFA4370020B0370020EF
:1084F4000C270400A837002020270400F0B587B01B
:108504004FF000024FF00003CDE9042301AB1846FD
:1085140001F0A6FE042303931EE0DDE904014FF0FD
:1085240000024FF000030B0243EA10630202CDE99C
:10853400042301AA039B13441B78DBB200221C46CC
:108544001546DDE9042342EA040643EA0507CDE9BA
:108554000467039B013B0393039B002BDDDADDE9F6
:1085640004231046194607B0F0BD000010B59CB0B6
:108574000190284B01221A600021102001F036FFDF
:10858400034603F07F031B931B9B7E2B06D81B9B88
:108594009BB200221946204801F04DFE4FF47A7038
:1085A40002F09EFA002002F053FA1C4817F006FB72
:1085B40004221B49184818F0BFFC0346002B25D1A0
:1085C400184B1A6813465B0013441B01164A1344E4
:1085D40024221149184618F093FD124B1C68FFF72A
:1085E4008DFF114A23465B0023441B0113442833A7
:1085F400C3E900010B4B1B6801330A4A1360094BA2
:108604001B68132B02DD074B00221A6000BF1CB04D
:1086140010BD00BF98370020143700203027040015
:10862400EC270400703B0020B037002000B583B075
:1086340001900D4B01221A60002002F051FA002033
:1086440002F006FA094817F0B9FA094B1B68094AFF
:108654001360074B00221A60074B01221A7000BFF7
:1086640003B05DF804FB00BF9C37002048270400DA
:10867400703B0020A8370020A437002000B583B049
:108684000190054B01221A60002002F0E1F900BFBD
:1086940003B05DF804FB00BFA037002082B0019056
:1086A400024B01221A6000BF02B0704794370020C9
:1086B40000B583B001900B468DF8033001F0D4FF70
:1086C40000BF03B05DF804FB00B585B007F0AAFA5B
:1086D4000346002B03D0154817F070FA01E007F0A9
:1086E4003DFA134A01AB1268114619800233120C89
:1086F4001A7000238DF8053001AB0E4A1946132079
:1087040007F09CFA0390039B0293029B002B05D075
:10871400094A40F2B51102980AF016FD012113200E
:1087240007F00AFB00BF05B05DF804FB60270400F6
:10873400E8270400B58602008827040000B583B04A
:10874400002301930EE00122019B02FA03F31A466F
:10875400244B1340002B02D00198FFF794FD019B9A
:1087640001330193019B1F2BEDD94FF0A0431D4A08
:10877400C3F80C254FF0A0430022C3F80825FFF7E7
:10878400A3FF02F0B7FC02F0C9FC012001F0DEFAFD
:108794000346B3F1FF3F00D1FEE702F0E7FC1248C5
:1087A40001F0A6FB114B124A1249134801F042FF93
:1087B4000121124802F0DCF944F2480001F01AFDEC
:1087C40044F2480001F027FD642001F017FF002067
:1087D40002F086F9002002F03BF900BF03B05DF817
:1087E40004FB00BF000040C0082C0020818602006A
:1087F4003186020071850200A186020080D0230424
:10880400F0B589B08DED060B8DED041B8DED022BBB
:108814008DED003BDDE90223DDE9060117F08CFD57
:1088240002460B4614461D46DDE90223DDE9060136
:1088340017F082FD02460B462046294617F080FDBC
:1088440002460B4614461D46DDE90023DDE904011A
:1088540017F072FD02460B4616461F46DDE900235B
:10886400DDE9040117F068FD02460B46304639463F
:1088740017F066FD02460B462046294617F03CFCDD
:1088840002460B4643EC172BB0EE470AF0EE670A9C
:1088940017F0C4F9B0EE407AF0EE607AB0EE470A11
:1088A400F0EE670A09B0F0BD0000000000B593B017
:1088B4008DED040B8DED021B0190424B93ED007B7B
:1088C400404B93ED026BB0EE463AF0EE663AB0EEF2
:1088D400472AF0EE672A9DED021B9DED040BFFF77E
:1088E4008FFF8DED0C0B4FF000024FF00003CDE92C
:1088F400102301230F9353E0324A0F9B1B011344AF
:1089040093ED007B2F4A0F9B1B011344083393ED17
:10891400006BB0EE463AF0EE663AB0EE472AF0EE5F
:10892400672A9DED021B9DED040BFFF769FF8DED9A
:108934000A0BDDE90C23DDE90A0117F0FDFC024610
:108944000B46104619461DA3D3E9002317F090FDEA
:1089540002460B46CDE908230F9B03F10053013B6C
:10896400DB00019A1344D3E90023DDE9080117F081
:10897400E3FC02460B46CDE90623DDE90623DDE9E7
:10898400060117F0DDFC02460B46DDE9100117F085
:10899400B3FB02460B46CDE910230F9B01330F9323
:1089A4000F9B022BA8DDDDE9102343EC172BB0EE5F
:1089B400470AF0EE670A13B05DF804FB00000000FC
:1089C40000707540182C002082B030B597B001902B
:1089D40000911AA981E80C004FF000024FF0000347
:1089E400CDE914234FF000024FF00003CDE9122328
:1089F4004FF0FF323F4BCDE910234FF000024FF010
:108A04000003CDE90E2345E04FF000024FF00003D0
:108A1400CDE90C2329E056AB18469DED0C1B9DEDCA
:108A24000E0BFFF743FF8DED0A0BDDE91023DDE9A3
:108A34000A0117F01DFE0346002B0BD0DDE90A23C3
:108A4400CDE91023DDE90E23CDE91423DDE90C2360
:108A5400CDE912234FF00002274BDDE90C0117F09A
:108A64004BFB02460B46CDE90C234FF00002234B8F
:108A7400DDE90C0117F0DEFD0346002BCBD14FF0EE
:108A840000021D4BDDE90E0117F036FB02460B46D2
:108A9400CDE90E234FF00002184BDDE90E0117F06B
:108AA400C9FD0346002BAFD1DDE9140117F0FCFD2D
:108AB40002460B46CDE90223DDE9120117F0F4FD6D
:108AC40002460B46CDE904234FF000024FF00003A9
:108AD400CDE90623019B1D4602AC0FCC0FC594E8DB
:108AE4000F0085E80F00019817B0BDE8304002B0D0
:108AF400704700BFFFFFEF7F0000F03F00005940C8
:108B040082B00190019B022B0ED0019B022B0EDC44
:108B1400019B002B03D0019B012B02D007E06E23A5
:108B240007E040F2523304E041F69A2301E04FF0AB
:108B3400FF33184602B0704782B00190019B012BAD
:108B440003D0019B022B02D003E0102303E0402357
:108B540001E04FF0FF33184602B0704782B0019035
:108B6400019B032B12D801A252F823F0818B02003F
:108B7400858B0200898B02008D8B0200082307E09D
:108B8400102305E0202303E0402301E04FF0FF33EE
:108B9400184602B0704700BF82B00190019B043BAD
:108BA400302B78D801A252F823F000BF978C020032
:108BB4009B8C02009B8C02009B8C0200818C020027
:108BC4009B8C02009B8C02009B8C02009B8C0200FD
:108BD4009B8C02009B8C02009B8C02009B8C0200ED
:108BE4009B8C02009B8C02009B8C0200938C0200E5
:108BF4009B8C02009B8C02009B8C02007B8C0200ED
:108C04009B8C02009B8C02009B8C02009B8C0200BC
:108C14009B8C02009B8C02009B8C02009B8C0200AC
:108C24009B8C02009B8C02009B8C02008D8C0200AA
:108C34009B8C02009B8C02009B8C0200758C0200B2
:108C44009B8C02009B8C02009B8C02009B8C02007C
:108C54009B8C02009B8C02009B8C02009B8C02006C
:108C64009B8C02009B8C02009B8C0200878C020070
:108C74004FF4006311E04FF4C0630EE04FF48063DF
:108C84000BE04FF4007308E04FF4807305E0802399
:108C940003E0402301E04FF0FF33184602B0704771
:108CA40000B583B00190019B1B68184600F011F9D0
:108CB4000346002B04D105494FF4F670FDF7B0FBD1
:108CC4004FF0A043184603B05DF804FBF0270400FE
:108CD40000B585B00190084611461A4603468DF842
:108CE40003300B468DF8023013468DF8013001AB8A
:108CF4001846FFF7D5FF03909DF803209DF8023036
:108D04005B001A439DF801309B001A439DF818300C
:108D14001B0242EA03019DF81C301B04019A19430B
:108D2400039B02F5E07243F8221000BF05B05DF822
:108D340004FB00B585B00390002301930023009346
:108D44000023012201210398FFF7C2FF00BF05B0F1
:108D54005DF804FB00B585B003900B468DF80B302D
:108D64009DF80B3000220192002200920022002183
:108D74000398FFF7ADFF00BF05B05DF804FB00B535
:108D840085B0019001AB1846FFF78AFF0390019B61
:108D9400012202FA03F31946039800F086F800BF93
:108DA40005B05DF804FB00B585B0019001AB184631
:108DB400FFF776FF0390019B012202FA03F31946A1
:108DC400039800F07CF800BF05B05DF804FB00B523
:108DD40085B0019001AB1846FFF762FF0390039B37
:108DE400D3F804350293029BDA43019B012101FA73
:108DF40003F31A40039BC3F80825019B01229A4000
:108E0400029B1A40039BC3F80C2500BF05B05DF814
:108E140004FB00B583B001900091009B002B03D1AB
:108E24000198FFF7C0FF02E00198FFF7A8FF00BF19
:108E340003B05DF804FB00B585B0019001AB1846A2
:108E4400FFF72EFF0390039800F01FF80246019BE2
:108E540022FA03F303F00103184605B05DF804FB9E
:108E640000B585B0019001AB1846FFF719FF0390D8
:108E7400039800F012F80246019B22FA03F303F070
:108E84000103184605B05DF804FB82B00190019B14
:108E9400D3F81035184602B0704782B00190019B98
:108EA400D3F80435184602B0704782B0019000919F
:108EB400019B009AC3F8082500BF02B0704782B036
:108EC40001900091019B009AC3F80C2500BF02B0E9
:108ED400704784B00190019B5B09029300230393C4
:108EE400029B002B03D14FF0FF33039300BF019B80
:108EF40003F01F030193039A019B22FA03F303F087
:108F04000103002B14BF01230023DBB2184604B075
:108F14007047000000B585B00190019B032B03D975
:108F240011493A20FDF77CFA104A019B13441B783F
:108F34001846FFF795FF0346002B14BF01230023B7
:108F44008DF80F309DF80F30002B14BF0123002340
:108F5400DBB283F00103DBB203F00103DBB218469A
:108F640005B05DF804FB00BF202804006828040055
:108F740000B583B00190019B032B03D9074941201D
:108F8400FDF74EFA064A019B13441B78002118464C
:108F9400FFF73FFF00BF03B05DF804FB2028040087
:108FA4006828040000B583B00190019B032B03D90A
:108FB40007494720FDF734FA064A019B13441B78FE
:108FC40001211846FFF725FF00BF03B05DF804FB3D
:108FD400202804006828040000B583B0002301930E
:108FE40005E00198FFF7DEFF019B01330193019B2C
:108FF400032BF6D900BF00BF03B05DF804FB00B536
:1090040083B00023019305E00198FFF7B1FF019BB2
:1090140001330193019B032BF6D900BF00BF03B0BA
:109024005DF804FB00B583B00190019B032B03D9C9
:1090340007495F20FDF7F4F9064A019B13441B78A6
:109044001846FFF7C4FE00BF03B05DF804FB00BF81
:10905400202804006828040000B583B0002301938D
:1090640009E0094A019B13441B781846FFF761FE87
:10907400019B01330193019B032BF2D9FFF7ACFF52
:1090840000BF03B05DF804FB6828040000B585B098
:109094000190019B032B03D91149AC20FDF7C0F9C2
:1090A400104A019B13441B781846FFF7C4FE03467D
:1090B400002B14BF012300238DF80F309DF80F30CF
:1090C400002B14BF01230023DBB283F00103DBB2C6
:1090D40003F00103DBB2184605B05DF804FB00BFE2
:1090E400202804006C28040000B583B000230193F9
:1090F4000AE0094A019B13441B7803211846FFF731
:1091040029FE019B01330193019B032BF1D900BF7D
:1091140000BF03B05DF804FB6C28040084B0019028
:109124004FF0FF330293002303930DE00A4A039B9D
:1091340013441B781A46019B934202D1039B02936A
:1091440005E0039B01330393039B032BEED9029B9E
:10915400184604B0704700BF6C28040000B583B003
:109164000190019B032B03D90549CB20FDF758F946
:10917400044A019B13441B78184603B05DF804FBB2
:10918400202804006C28040000B583B00190019BE2
:1091940003F00103002B01D0FFF75EFF019B03F0F6
:1091A4000203002B01D0FFF79FFF00BF03B05DF85F
:1091B40004FB000000B583B00190019B1B681846B6
:1091C40000F03DF80346002B04D105494FF4F67036
:1091D400FDF726F94FF0A043184603B05DF804FBF1
:1091E4007028040000B585B001900B468DF803305B
:1091F40001AB1846FFF7DEFF0390019A039B02F5CB
:10920400E07253F82230019A23F44031039B02F5B3
:10921400E07243F82210019A039B02F5E07253F8BE
:1092240022109DF803301B04019A1943039B02F595
:10923400E07243F8221000BF05B05DF804FB84B06F
:109244000190019B5B09029300230393029B002B73
:1092540003D14FF0FF33039300BF019B03F01F03BF
:109264000193039A019B22FA03F303F00103002BF9
:1092740014BF01230023DBB2184604B0704700B5C5
:1092840083B00190019B032B04D80198FFF7FEFEE5
:10929400034600E00023184603B05DF804FB000019
:1092A40000B587B003460A468DF8073013468DF89B
:1092B400063000238DF81730002304939DF80730FF
:1092C4001846FFF72BFF0490049B032B62D89DF8EC
:1092D4000630022B52D0022B5CDC002B31D0012B48
:1092E40058D13549049A13465B0013440B441B7848
:1092F4008DF817303049049A13465B0013440B442D
:1093040001331B78002B0ED02C4B2D4A4FF4804197
:1093140018460AF0BFFB0390039B002B03D1284A95
:109324009DF8073013702449049A13465B001344D4
:109334000B4402331978234A049B13440A461A70D7
:1093440028E01E4B18460AF0FDFB1E4A049B1344FA
:1093540019781948049A13465B00134403440233F2
:109364001B78994215D11449049A13465B0013449F
:109374000B4402331B788DF817300AE00E49049A27
:1093840013465B0013440B4401331B788DF81730EC
:1093940000E000BF9DF81730002B09D00A4B1B6872
:1093A400002B05D0084B1B689DF8172010469847E2
:1093B40000BF07B05DF804FB843B0020882C00202C
:1093C400903B0020943B0020803B002000B583B0FC
:1093D4000190019B1B7802211846FFF761FF00BF33
:1093E40003B05DF804FB000000B583B00C4B1B78A0
:1093F400002B0FD00023019308E0019B022B02D025
:109404000198FFF7CFFD019B01330193019B032BCF
:10941400F3D901E0FFF7E0FD00BF03B05DF804FB02
:109424007C3B00202DE9D04F92B003468DF83F30AD
:109434000023119300231093CC4B1B78002B04D0F2
:10944400CA4A00231370FFF7CFFF9DF83F30172B54
:1094540000F23F8201A252F823F000BFC19402003F
:10946400D9940200D9940200759502001196020065
:109474008D96020021970200419702005197020045
:109484007D9702009B970200B9970200D7970200CC
:10949400E5970200E5970200E5970200E5970200D0
:1094A400E597020079980200879802009B980200D1
:1094B400AF980200C9980200C9980200FFF794FF10
:1094C400AB4B18460AF03EFB1190AA4A9DF83F3078
:1094D4001370FFE10020FFF71DFD0346002B0DD0A4
:1094E4000020FFF75FFD9DF83F30022B02D14FF4BF
:1094F400E16301E04FF47A6310930BE00020FFF77F
:1095040037FD9DF83F30022B01D1C82301E04FF411
:10951400C8731093974A9DF83F301370944C109B76
:109524000022009301924FF000024FF00003DDE9A6
:1095340000673946CB03314643EA51433146CA03F7
:1095440012F57A71029143F1000303934FF4FA6226
:109554004FF00003DDE9020117F0E6F802460B467E
:1095640013460022194620460AF094FA1190B1E1FC
:109574000020FFF7CFFC0346002B0DD00020FFF79F
:1095840011FD9DF83F30032B02D14FF4487301E0E5
:109594004FF47A6310930BE00020FFF7E9FC9DF889
:1095A4003F30032B01D1C82301E04FF4C87310935B
:1095B400704A9DF83F3013706D4C109B0022049349
:1095C40005924FF000024FF00003DDE904673946CD
:1095D400CB03314643EA51433146CA0312F57A714B
:1095E400069143F1000307934FF4FA624FF000032E
:1095F400DDE9060117F098F802460B4613460022EF
:10960400194620460AF046FA119063E10020FFF75C
:1096140081FC0346002B06D00020FFF7C3FC4FF467
:109624007A63109305E00020FFF7A2FC4FF4C8739F
:109634001093504A9DF83F3013704D4C109B0022FC
:109644009A4693464FF000024FF000034FEACB33A3
:1096540043EA5A434FEACA3212F57A71089143F148
:10966400000309934FF4FA624FF00003DDE90801A7
:1096740017F05AF802460B461346002219462046B4
:109684000AF008FA119025E10020FFF743FC034695
:10969400002B0CD00020FFF785FC9DF83F30052BF4
:1096A40001D1C82301E04FF47A6310930BE000204A
:1096B400FFF75EFC9DF83F30052B01D1C82301E084
:1096C4004FF4C87310932B4A9DF83F301370284C05
:1096D400109B0022984691464FF000024FF0000381
:1096E4004FEAC93343EA58434FEAC83212F57A7154
:1096F4000A9143F100030B934FF4FA624FF0000315
:10970400DDE90A0117F010F802460B461346002261
:10971400194620460AF0BEF91190DBE00020FFF75D
:1097240081FC144A9DF83F301370114B002240F223
:10973400666118460AF0AEF91190CBE00020FFF7FD
:1097440017FC0C4A9DF83F301370C3E0074B01220D
:109754001A700120FFF766FC054B002240F2666197
:1097640018460AF097F91190B4E000BF753B002049
:10977400482C0020743B0020594B01221A70012010
:10978400FFF750FC574B00224FF4005118460AF0E3
:1097940081F911909EE0524B01221A700120FFF7CB
:1097A40041FC504B002240F2666118460AF072F9FF
:1097B40011908FE04A4B01221A700120FFF732FC0E
:1097C400484B00224FF4005118460AF063F91190F7
:1097D40080E0FFF714FC444A9DF83F30137079E0B1
:1097E400424B18460AF0AEF911909DF83F30C3F190
:1097F40011031093109B002B35D0119B002B32D1F9
:10980400109B012B28D9394C109B9BB21A46C823B4
:1098140002FB03F3DA171E4617464FF000024FF01F
:109824000003FB0343EA5643F20312F57A710C91E9
:1098340043F100030D934FF4FA624FF00003DDE9A6
:109844000C0116F071FF02460B461346002219461E
:1098540020460AF01FF911900220FFF789FB244BE0
:1098640001221A7036E00220FFF79CFB204B0022F5
:109874001A702FE0FFF7B8FD1B4A9DF83F301370B4
:1098840028E0FFF7B1FD0020FFF772FB164A9DF8B0
:109894003F3013701EE0FFF7A7FD0120FFF768FBC0
:1098A400114A9DF83F30137014E0FFF79DFD00202E
:1098B400FFF75EFB0120FFF75BFB0B4A9DF83F308F
:1098C400137007E0FFF79BFB074A9DF83F301370C6
:1098D40000E000BF119B184612B0BDE8D08F00BF56
:1098E400753B0020482C0020743B0020682C00208D
:1098F4007C3B002000B583B00190074B1B6803F04C
:109904000103002B04D0054B1B781846FFF78AFD92
:1099140000BF03B05DF804FB783B0020743B0020DB
:1099240000B583B001900220FFF77CFB00BF03B0B9
:109934005DF804FB00B585B003468DF807300023BD
:109944000393084B1B6803F00103002B05D09DF81B
:1099540007301846FFF766FD0390039B184605B0D1
:109964005DF804FB783B002000B585B001900091C0
:10997400002303932A4A019B13602A4A009B136025
:10998400019B03F00203002B2AD00023029308E07A
:1099940001220121029800F055F80390029B013343
:1099A4000293029B032B02D8039B002BF0D0039B52
:1099B400002B06D140F2333204211B4809F0C4FACB
:1099C4000390039B002B02D109F046FB0390039BF9
:1099D400002B05D1154A002115480AF021F80390FF
:1099E400019B03F00103002B14D00120FFF7CCFBF3
:1099F400039B002B05D10F4A00210F480AF010F8F1
:109A04000390039B002B05D10C4A01210C480AF05A
:109A140007F80390039B184605B05DF804FB00BFEC
:109A2400783B0020803B0020AC280400D193020046
:109A3400A8280400F9980200A0280400259902002F
:109A4400A428040084B001900B468DF8033013461B
:109A54008DF8023000230393019B032B3CD89DF81F
:109A64000230012B0BD19DF80330012B04D1019B53
:109A7400DBB20E33DBB200E000238DF802309DF838
:109A84000330022B0FD0022B23DC002B16D0012B2A
:109A94001FD11449019A13465B0013440B449DF8EB
:109AA40002201A701AE00F49019A13465B0013440E
:109AB4000B4401339DF802201A700FE00949019A02
:109AC40013465B0013440B4402339DF802201A70C2
:109AD40004E00723039301E007230393039B184641
:109AE40004B07047843B002000B585B001900B465C
:109AF4008DF80330019B032B14D89DF80330002B01
:109B040001D0032300E000238DF80F300198FFF704
:109B140025FB02469DF80F3019461046FFF762FBFD
:109B2400002300E00623184605B05DF804FB00B5E9
:109B340083B0019001210198FFF7D6FF0346184630
:109B440003B05DF804FB00B583B0012200210020BE
:109B5400FFF778FF0190019B002B04D0019B072B9A
:109B640001D0019B1CE0072202210120FFF76AFFBC
:109B74000190019B002B04D0019B072B01D0019B7A
:109B84000EE0042202210020FFF75CFF0190019BFC
:109B9400002B04D0019B072B01D0019B00E0002384
:109BA400184603B05DF804FB00B583B0012202211E
:109BB4000020FFF747FF0190019B002B04D0019B7D
:109BC400072B01D0019B1CE0072202210120FFF793
:109BD40039FF0190019B002B04D0019B072B01D07E
:109BE400019B0EE00A2200210020FFF72BFF0190C9
:109BF400019B002B04D0019B072B01D0019B00E0AB
:109C04000023184603B05DF804FB00B583B001904F
:109C14000120FFF734FB0346002B03D0019B0222F3
:109C24001A700CE00020FFF72AFB0346002B03D038
:109C3400019B0B221A7002E0019B00221A7000BFE4
:109C440003B05DF804FB00B583B00020FFF76FFF9D
:109C54000190019B002B04D0019B062B01D0019B9A
:109C64000CE00120FFF763FF0190019B002B04D05F
:109C7400019B062B01D0019B00E00023184603B092
:109C84005DF804FB00B585B001900091019B1B8831
:109C9400102B02D0112B18D02FE01A4B1B68002B6D
:109CA4000DD1FFF750FF0390039B002B07D0164BF9
:109CB4001B68002B03D0144B1B6803989847114B67
:109CC4001B6801330F4A136017E00E4B1B68013BFE
:109CD4000C4A13600B4B1B68002B0DD1FFF764FF7C
:109CE4000390039B002B07D0074B1B68002B03D06A
:109CF400054B1B680398984700BF00BF05B05DF88B
:109D040004FB00BF9C3B0020983B002000B585B0BD
:109D140001900091002303930A4A019B1360009B66
:109D2400002B02D00098FFF770FF074B1B68002B35
:109D340002D1FFF739FF0390039B184605B05DF885
:109D440004FB00BF983B00209C3B002030B589B049
:109D54000346ADF806300023ADF81E300023069309
:109D64005D4B1B6800225A745B4B1B6800229A7679
:109D7400594B1B6800221A83574B1B6800229A62B6
:109D8400554B1B680022DA62534B1B6800221A638E
:109D9400514B1B6800225A6300F0A2F803460022CC
:109DA4001C461546CDE90445DDE904234B4911441D
:109DB4000B4302D04FF0FF338AE000F00FFF002086
:109DC40000F042FD04220021242000F064FB1E2048
:109DD40000F0B8FB0346ADF81E30BDF81E301B0A78
:109DE4009AB23D4B1B68D2B25A72042000F0AAFB0F
:109DF4000690069BDBB2002B0DD0022212212D20EF
:109E040000F049FB344B1B681A8B334B1B6842F43C
:109E1400805292B21A83304B1C68062000F092FBE9
:109E2400034623602C4B1C68072000F08BFB034681
:109E34006360BDF81E30DAB2274B1B6802F01F02C4
:109E4400D2B21A74244B1B681B7C002B03D1224B07
:109E54001B6810221A74204B1B681B7C184600F0E8
:109E6400E1FEBDF8063003F00103002B0BD000F037
:109E7400B3FB194B1B681A8B174B1B6842F4006227
:109E840092B21A8313E00521362000F0D3FA034678
:109E9400ADF80E30BDF80E3023F40073ADF80E307B
:109EA400BDF80E301A460521362000F008FB0120CB
:109EB40000F0CAFC00220A212C2000F0ECFA064B28
:109EC4001C680021042000F091FA0346636100231A
:109ED400184609B030BD00BFA82C0020D0FE3521A3
:109EE40008B50021002000F081FA0346184608BD99
:109EF40000B587B0019000238DF8173000238DF84A
:109F04001630019B1B788DF81330019B5B791A4640
:109F1400AC4B33F81230ADF81430019B5B78013B45
:109F24008DF812309DF81330042B03D09DF81330B4
:109F3400072B01D1012300E000238DF81130019B90
:109F4400DB79002B0DD1A04B1B685A699E4B1B6813
:109F540042F480025A61BDF81430DB08ADF81430C5
:109F640007E0994B1B685A69974B1B6822F48002DF
:109F74005A61954B1B68019A127A1A72924B1B68AC
:109F84005A69914B1B6822F440325A618E4B1B680C
:109F94005969019B1B7A1B0403F440328A4B1B68EA
:109FA4000A435A61884B1B685B691A4600210420E6
:109FB40000F0A4FABDF814301A4642F604012E202B
:109FC40000F07DFA9DF81230184600F0E6FA9DF88C
:109FD40013307E4AD35C1A467D4B53F822301A461E
:109FE40007212B2000F08AFA9DF81330774AD35CBE
:109FF4001A46784B9B5C1A460B212B2000F04BFA37
:10A004009DF81130744AD35C1A460B21282000F0C5
:10A0140042FA9DF813306D4AD35C1A466F4B53F8DD
:10A0240022301A460C21282000F068FA019BDB79C3
:10A034001846019B9B791946694A43000B4432F840
:10A0440013301A460221272000F039FA9DF8123005
:10A05400644A32F813301A460421272000F02FFAFC
:10A06400019BDB79002B05D164220621272000F017
:10A0740026FA18E0019B9B78042B0AD110220621B2
:10A08400272000F01CFA10222621272000F003FAD2
:10A0940009E020220621272000F011FA2822262197
:10A0A400272000F0F8F99DF81230019AD278114671
:10A0B4004D4A9B000B4452F823301A4608212720AE
:10A0C40000F01CFA019B5B89002B03D1019B41F238
:10A0D40041025A81019B5B891A462021272000F006
:10A0E400EEF9424B1B681A460C21232000F006FAB5
:10A0F4009DF812303D4A5B0013449B881A460421A4
:10A10400232000F0DCF9019B9B79002B0FD0019BED
:10A11400DB791A46364B9B5C1A460021212000F05D
:10A12400BAF903238DF8173001238DF816309DF802
:10A13400133003F00F029DF813301B01DBB21A43F6
:10A14400019B5B789B0403F440231A439DF817306A
:10A154001B0503F440131A439DF816305B0403F403
:10A1640000331A43019B1B799B0503F0F8631A43E0
:10A17400019B5B79DB0613430393039A00211F20A1
:10A1840000F0BCF9019B9A78019B5B781343DBB226
:10A194001A04019BDB795B031A430B4B1B68DA60DF
:10A1A400094B1B68DB681A460021082000F0A6F959
:10A1B400422200210D2000F06EF900BF07B05DF8C7
:10A1C40004FB00BF4C290400A82C0020CC28040068
:10A1D400EC280400042904000C290400D4280400F9
:10A1E4001C290400282904002C2904001029040037
:10A1F4001829040000B583B00346ADF80630BDF855
:10A2040006301A4641F604012E2000F058F900BF2A
:10A2140003B05DF804FB00B583B00346ADF8063027
:10A22400BDF806301A460021182000F048F900BF96
:10A2340003B05DF804FB00B583B001900B46ADF8A4
:10A2440002301346ADF80030BDF80220BDF800100E
:10A25400019B112000F06FF800BF03B05DF804FB10
:10A2640000B583B00190019B05220021152000F068
:10A2740062F800BF03B05DF804FB00B587B002923A
:10A2840001930346ADF80E300B46ADF80C300023B5
:10A294000593BDF80C30002B0DD1BDF80E30DAB2A9
:10A2A400059B591C059162F07F02D2B218336B44AE
:10A2B40003F8082C34E0BDF80E30DAB2059B591CC3
:10A2C400059162F03F02D2B218336B4403F8082CB4
:10A2D400BDF80C307F2B0AD8059B5A1C0592BDF89B
:10A2E4000C20D2B218336B4403F8082C18E0BDF8E4
:10A2F4000C30DAB2059B591C059162F07F02D2B290
:10A3040018336B4403F8082CBDF80C30DB0999B200
:10A31400059B5A1C0592CAB218336B4403F8082CE7
:10A32400059B98B204A9019B029A00F04BFE00BF62
:10A3340007B05DF804FB00B587B0029201930346B1
:10A34400ADF80E300B46ADF80C3000230593BDF884
:10A354000C30002B0AD1059B5A1C0592BDF80E2027
:10A36400D2B218336B4403F8082C34E0BDF80E3035
:10A37400DAB2059B591C059142F04002D2B218335F
:10A384006B4403F8082CBDF80C307F2B0AD8059BCE
:10A394005A1C0592BDF80C20D2B218336B4403F852
:10A3A400082C18E0BDF80C30DAB2059B591C059155
:10A3B40062F07F02D2B218336B4403F8082CBDF864
:10A3C4000C30DB0999B2059B5A1C0592CAB21833AA
:10A3D4006B4403F8082C059B98B204A9019B029ACC
:10A3E40000F04EFD00BF07B05DF804FB00B587B078
:10A3F4000190009100230593019B98B2009B99B2B0
:10A4040003AB0422FFF797FF032304930AE0059BA1
:10A414001B0203A9049A0A44127813440593049B6B
:10A42400013B0493049B002BF1DA059B184607B00B
:10A434005DF804FB00B585B0019000910023ADF8F0
:10A444000E30019B98B2009B99B203AB0222FFF736
:10A4540072FF9DF80D301B029BB29DF80C20134433
:10A46400ADF80E30BDF80E30184605B05DF804FBAB
:10A4740000B585B001900091019B98B2009B99B200
:10A484000DF10F030122FFF756FF9DF80F30184618
:10A4940005B05DF804FB00B585B003900291134646
:10A4A4008DF80730039B98B2029B99B20DF1070314
:10A4B4000122FFF7E2FE00BF05B05DF804FB00B522
:10A4C40087B0039002911346ADF80630BDF806300C
:10A4D400DBB28DF81430BDF806301B0A9BB2DBB238
:10A4E4008DF81530039B98B2029B99B205AB0222FA
:10A4F400FFF7C3FE00BF07B05DF804FB00B587B0EB
:10A50400039002910192002305930CE0019BD9B2C0
:10A5140004AA059B13440A461A70019B1B0A019363
:10A52400059B01330593059B032BEFDD039B98B239
:10A53400029B99B204AB0422FFF79FFE00BF07B051
:10A544005DF804FB00B585B00190019B9BB21A46EF
:10A5540004212D20FFF7B3FF032206212D20FFF74E
:10A564009AFF002206212D20FFF795FF0A212D20B6
:10A57400FFF73CFF0390039B184605B05DF804FB0E
:10A5840008B5002202212C20FFF785FF02220221B8
:10A594002C20FFF780FF00BF08BD00B583B00190F9
:10A5A4006D2240F606012E20FFF775FF019B002B5C
:10A5B40007D040F2076241F606012E20FFF77FFF25
:10A5C40006E041F2076241F606012E20FFF777FF0D
:10A5D40000BF03B05DF804FB08B50E2000F034F9A9
:10A5E4004FF4004206212D20FFF769FF012000F0FF
:10A5F400E7FD012000F028F900BF08BD00B585B0D3
:10A60400019000211A20FFF7F1FE0390039B1B0D1C
:10A614001B050393019BC3F31303039A134303938F
:10A62400039A00211A20FFF769FF00BF05B05DF807
:10A6340004FB000084B00390029101920093094B43
:10A644001B68039A9A62074B1B68029ADA62054BED
:10A654001B68019A1A63034B1B68009A5A6300BF74
:10A6640004B07047A82C002010B584B0744B1C684B
:10A6740000210F20FFF7BAFE0346E361E36902936A
:10A68400029B03F48043002B73D04FF4DE4200217D
:10A694000F20FFF733FF6A4B1B68002283F8242046
:10A6A40000211020FFF7C6FE0346ADF80630BDF8C2
:10A6B4000630C3F30903ADF80E30614B1B681B7AF7
:10A6C400002B05D1BDF80E3003F07F03ADF80E303A
:10A6D4005B4B1B68BDF80E201A84BDF90630002BB5
:10A6E4000ADA574B1B6893F82420554B1B6842F039
:10A6F4000102D2B283F82420514B1B682233022278
:10A7040000211120FFF717FE029B03F00803002B22
:10A7140018D04B4B1B6893F8223003F02003002B16
:10A7240010D1082200210F20FFF7E8FE444B1B68DC
:10A73400DA69434B1B6822F00802DA61404B1B685C
:10A7440000229A763E4B1B68DB6A002B07D03C4BF9
:10A754001B68DB6A3A4A12681C3210469847384B29
:10A764001B685B7C002B04D0012203210D20FFF722
:10A7740092FE029B03F08003002B1FD0F8220021DD
:10A784000F20FFF7BBFE029B03F00803002B08D049
:10A794002B4B1B689B7E002B03D000F00DF900F0BF
:10A7A4000FFA274B1B689B6A002B07D0244B1B68AE
:10A7B4009B6A234A12681C3210469847029B03F492
:10A7C4000813002B1AD04FF4003200210F20FFF79A
:10A7D40095FE1B4B1B6800229A7600F0EDF800F002
:10A7E400EFF9174B1B681B6B002B07D0144B1B682E
:10A7F4001B6B134A12681C3210469847029A114B7D
:10A804001340002B19D00F4A00210F20FFF776FECA
:10A814000B4B1B6800229A7600F0CEF800F0D0F9BA
:10A82400074B1B685B6B002B07D0054B1B685B6BEE
:10A83400034A12681C321046984700BF04B010BD8A
:10A84400A82C00200090052400B585B0019003AB2E
:10A85400022200213620FFF76EFD019B0E2B00F231
:10A864008D8001A252F823F0BFA80200A9A802001B
:10A87400D9A8020081A9020081A9020081A90200CD
:10A8840081A90200F3A802001BA9020081A9020009
:10A8940081A9020039A9020049A9020059A90200AC
:10A8A40073A9020000238DF80C309DF80D3023F0BD
:10A8B4000103DBB28DF80D3061E09DF80C305BB222
:10A8C40023F003035BB243F001035BB2DBB28DF808
:10A8D4000C3054E09DF80C305BB223F003035BB200
:10A8E40043F002035BB2DBB28DF80C3047E09DF815
:10A8F4000C305BB223F04C035BB243F048035BB211
:10A90400DBB28DF80C309DF80D3063F07F03DBB2C1
:10A914008DF80D3033E09DF80C3023F04C03DBB29E
:10A924008DF80C309DF80D3003F07F03DBB28DF809
:10A934000D3024E09DF80D3043F00203DBB28DF8B6
:10A944000D301CE09DF80D3023F00203DBB28DF8CE
:10A954000D3014E09DF80C305BB223F030035BB291
:10A9640043F020035BB2DBB28DF80C3007E0012327
:10A974008DF80C3003238DF80D3000E000BF03ABDD
:10A98400012200213620FFF778FC03AB01330122BA
:10A9940001213620FFF771FC00BF05B05DF804FB10
:10A9A40008B50020FFF750FF002204213620FFF7EE
:10A9B40086FD00BF08BD000000B583B000210E2055
:10A9C400FFF714FD019000F005FC00900022002127
:10A9D4000E20FFF793FD402200210D20FFF75BFDC1
:10A9E4000B4A00210F20FFF789FD00F015F8019AAA
:10A9F40000210E20FFF782FD009800F0EEFB054BCE
:10AA04001B6800229A7600BF03B05DF804FB00BF08
:10AA1400F8FF2724A82C002000B583B003210F20C1
:10AA2400FFF726FD03468DF807309DF807209DF8B3
:10AA340007305B00534003F08003002B04D0012255
:10AA440003210D20FFF727FD00BF03B05DF804FBD1
:10AA540000B585B00190019B03F00403002B01D1E4
:10AA6400FFF7DAFF4FF48073ADF80E30019B03F06B
:10AA74000103002B05D0BDF80E3043F40073ADF88C
:10AA84000E30BDF80E301A4600210D20FFF717FDD9
:10AA9400019B03F00103002B1CD003210F20FFF7BF
:10AAA400E7FC03468DF80D309DF80D3003F00803E4
:10AAB400002B0FD0FFF780FF019B03F00203002B54
:10AAC40005D14FF4807200210D20FFF7F8FC4FF000
:10AAD400FF3300E00023184605B05DF804FB0000D6
:10AAE40000B585B00346ADF8063003210420FFF716
:10AAF400BFFC03468DF80F30BDF80630002B1CD088
:10AB0400BDF806301A4600210C20FFF7D8FC9DF84A
:10AB14000F3043F010038DF80F30144B1B685A6943
:10AB2400124B1B6842F080525A619DF80F301A464E
:10AB340003210420FFF7AFFC14E09DF80F3023F04D
:10AB440010038DF80F30094B1B685A69074B1B68BB
:10AB540022F080525A619DF80F301A4603210420D6
:10AB6400FFF799FC00BF05B05DF804FBA82C00209A
:10AB740000B585B001900B468DF8033000F02AFB38
:10AB8400029000210E20FFF731FC03909DF8033062
:10AB9400002B04D0039A019B1343039304E0019B0D
:10ABA400DB43039A13400393039A00210E20FFF71B
:10ABB400A5FC029800F011FB00BF05B05DF804FB92
:10ABC40008B5E02203213620FFF765FCF0220321BB
:10ABD4003620FFF760FC00BF08BD000008B5FFF792
:10ABE400DFFE002200212C20FFF769FC0022062151
:10ABF4002C20FFF750FCFFF7C3FC00220321362072
:10AC0400FFF749FC012000F0DBFAF0220321362093
:10AC1400FFF741FC024B1B6800229A7600BF08BD77
:10AC2400A82C002000B585B003468DF807309DF9A7
:10AC3400073003F01F035BB243F060035BB28DF88F
:10AC44000F309DF80F301A460E212B20FFF723FCFE
:10AC540000BF05B05DF804FB00B585B00190019B11
:10AC6400002B0AD0074B43F001030393019B9B0184
:10AC74000293039B0298984700E000BF05B05DF87B
:10AC840004FB00BF202A040000B583B00190019B9F
:10AC94000433184605F008FE00BF03B05DF804FB5A
:10ACA40000B58FB003900291009313468DF80730DE
:10ACB40000230D93029B09939DF807300A93009B90
:10ACC4000B939DF840300C93039B043309A9002295
:10ACD400184605F037FF0D900D9B18460FB05DF830
:10ACE40004FB000000B583B00190019B1B6818466B
:10ACF40000F085F80346002B04D105494FF4F670A3
:10AD0400FBF78EFB4FF0A043184603B05DF804FB3D
:10AD14008029040000B585B00190084611461A4602
:10AD240003468DF803300B468DF8023013468DF838
:10AD3400013001AB1846FFF7D5FF03909DF80320BF
:10AD44009DF802305B001A439DF801309B001A43C2
:10AD54009DF818301B0242EA03019DF81C301B04C5
:10AD6400019A1943039B02F5E07243F8221000BFD5
:10AD740005B05DF804FB00B585B003900023019392
:10AD8400002300930023012201210398FFF7C2FF4F
:10AD940000BF05B05DF804FB00B585B003900B4619
:10ADA4008DF80B309DF80B300022019200220092A6
:10ADB400002200210398FFF7ADFF00BF05B05DF846
:10ADC40004FB00B585B0019001AB1846FFF78AFF7C
:10ADD4000390019B012202FA03F31946039800F041
:10ADE40004F800BF05B05DF804FB82B00190009147
:10ADF400019B009AC3F80C2500BF02B0704784B0D1
:10AE04000190019B5B09029300230393029B002B97
:10AE140003D14FF0FF33039300BF019B03F01F03E3
:10AE24000193039A019B22FA03F303F00103002B1D
:10AE340014BF01230023DBB2184604B0704700B5E9
:10AE440083B00190019B002B0AD04FF47A70FFF776
:10AE540003FF019B013B0193019B002BF5D100E013
:10AE640000BF03B05DF804FB82B001900091034B76
:10AE740001221A7000BF02B0704700BFD83B002007
:10AE84002DE9F04F8FB002AF3961FA60BB60034621
:10AE9400FB826B461E460023FB62FB8AFA6813445E
:10AEA400FB62F96A0B46013BBB62002339607B609D
:10AEB4004FF000024FF000037868C300386843EA9B
:10AEC40050733868C20000238A469B464FF0000244
:10AED4004FF000034FEACB0343EA5A734FEACA0226
:10AEE400CB1DDB08DB00ADEB030D02AB00337B6253
:10AEF400F96A0B46013B3B620023884699464FF0B2
:10AF040000024FF000034FEAC90343EA58734FEAC3
:10AF1400C80200230C461D464FF000024FF0000308
:10AF2400EB0043EA5473E200CB1DDB08DB00ADEB1E
:10AF3400030D02AB0033FB61FA6A0021786A16F054
:10AF440011F9FA6A0021F86916F00CF97B6ABB6101
:10AF5400FB8A1A463969B86916F0D2F8FB8ABA69CD
:10AF64001344BB61FA680021B86916F0FBF8134B6F
:10AF740000221A70FB6ADAB2FB6ADBB20093FB6947
:10AF8400796A0F48FFF78CFE00BF0C4B1B78DBB2CD
:10AF940083F00103DBB2002BF7D1FB8AFA69134477
:10AFA400BB61FA68B969B86816F0AAF80023B54617
:10AFB40018463437BD46BDE8F08F00BFD83B0020AB
:10AFC4000C2A04002DE9F04F8FB002AF3961FA600A
:10AFD400BB600346FB826B461E460023FB62FB8A72
:10AFE400FA681344FB62F96A0B46013BBB62002317
:10AFF40039607B604FF000024FF000037868C300B3
:10B00400386843EA50733868C20000238A469B4676
:10B014004FF000024FF000034FEACB0343EA5A73A8
:10B024004FEACA02CB1DDB08DB00ADEB030D02AB1C
:10B0340000337B62F96A0B46013B3B62002388467E
:10B0440099464FF000024FF000034FEAC90343EA68
:10B0540058734FEAC80200230C461D464FF0000205
:10B064004FF00003EB0043EA5473E200CB1DDB080E
:10B07400DB00ADEB030D02AB0033FB61FA6A002188
:10B08400786A16F06FF8FA6A0021F86916F06AF81F
:10B094007B6ABB61FB8A1A463969B86916F030F8D5
:10B0A400FB8ABA691344BB61FA68B968B86916F0D7
:10B0B40027F80E4B00221A70FB6ADAB2FB6ADBB285
:10B0C4000093FB69796A0A48FFF7EAFD00BF074B62
:10B0D4001B78DBB283F00103DBB2002BF7D1002332
:10B0E400B54618463437BD46BDE8F08FD83B00203E
:10B0F4000C2A040008B51820FFF73DFE1820FFF7BE
:10B1040060FE0220FFF79BFE00211820FFF744FE9B
:10B114000220FFF794FE00BF08BD000010B586B002
:10B124000E4B01AC0FCB84E80F0011238DF80730D0
:10B1340001A900230A4A0B4803F078FE0590059BF9
:10B14400002B04D0084AD421059807F0FDFF022003
:10B15400FFF775FE00BF06B010BD00BFEC29040068
:10B164006DAE02000C2A0400B029040010B586B0AC
:10B174000F48FFF789FD0F4B01AC0FCB84E80F009C
:10B1840011238DF8073001A900230B4A084803F066
:10B194004DFE0590059B002B04D0084AE02105983C
:10B1A40007F0D2FF0220FFF74AFE00BF06B010BD31
:10B1B4000C2A0400FC2904006DAE0200B02904002E
:10B1C40000B583B001900198FFF739FE00BF03B0CA
:10B1D4005DF804FB00231846704782B0019000BF5D
:10B1E40002B07047BFF34F8F00BF064BDB6803F418
:10B1F400E0620449044B1343CB60BFF34F8F00BF9D
:10B2040000BFFDE700ED00E00400FA0582B01D4B2D
:10B214001B68B3F1FF3F0AD11B4B1B68DBB20193E0
:10B224001A4B1B681B0903F00F03009305E0154B31
:10B234001B680193164B1B680093019B062B1DD1C1
:10B24400009B033B042B17D801A252F823F000BF44
:10B2540069B202006DB2020071B2020075B202005E
:10B2640079B2020001230AE0012308E0012306E089
:10B27400012304E0012302E0012300E00023184637
:10B2840002B0704730010010E00F00F0E80F00F04A
:10B294003401001082B0174B1B68DBB20193164BCC
:10B2A4001B681B0903F00F030093019B062B1DD1A0
:10B2B400009B033B042B17D801A252F823F000BFD4
:10B2C400D9B20200DDB20200E1B20200E5B202002E
:10B2D400E9B2020001230AE0002308E0002306E0AB
:10B2E400002304E0002302E0002300E000231846CA
:10B2F40002B07047E00F00F0E80F00F082B01D4B81
:10B304001B68B3F1FF3F0AD11B4B1B68DBB20193EF
:10B314001A4B1B681B0903F00F03009305E0154B40
:10B324001B680193164B1B680093019B062B1DD1D0
:10B33400009B033B042B17D801A252F823F000BF53
:10B3440059B302005DB3020061B3020065B30200A9
:10B3540069B3020001230AE0012308E0012306E0A7
:10B36400012304E0012302E0012300E00023184646
:10B3740002B0704730010010E00F00F0E80F00F059
:10B384003401001082B0174B1B68DBB20193164BDB
:10B394001B681B0903F00F030093019B062B1DD1AF
:10B3A400009B033B042B17D801A252F823F000BFE3
:10B3B400C9B30200CDB30200D1B30200D5B3020079
:10B3C400D9B3020001230AE0002308E0002306E0C9
:10B3D400002304E0002302E0002300E000231846D9
:10B3E40002B07047E00F00F0E80F00F082B01D4B90
:10B3F4001B68B3F1FF3F0AD11B4B1B68DBB20193FF
:10B404001A4B1B681B0903F00F03009305E0154B4F
:10B414001B680193164B1B680093019B062B1DD1DF
:10B42400009B033B042B17D801A252F823F000BF62
:10B4340049B402004DB4020051B4020055B40200F4
:10B4440059B4020001230AE0012308E0012306E0C5
:10B45400012304E0012302E0012300E00023184655
:10B4640002B0704730010010E00F00F0E80F00F068
:10B474003401001082B0174B1B68DBB20193164BEA
:10B484001B681B0903F00F030093019B062B1DD1BE
:10B49400009B033B042B17D801A252F823F000BFF2
:10B4A400B9B40200BDB40200C1B40200C5B40200C4
:10B4B400C9B4020001230AE0002308E0002306E0E7
:10B4C400002304E0002302E0002300E000231846E8
:10B4D40002B07047E00F00F0E80F00F082B0174BA5
:10B4E4001B68DBB20193164B1B681B0903F00F03A7
:10B4F4000093019B062B1DD1009B033B042B17D803
:10B5040001A252F823F000BF21B5020025B50200C4
:10B5140029B502002DB5020031B5020001230AE06D
:10B52400002308E0002306E0002304E0002302E0F7
:10B53400002300E00023184602B07047E00F00F03B
:10B54400E80F00F082B01D4B1B68B3F1FF3F0AD136
:10B554001B4B1B68DBB201931A4B1B681B0903F0DE
:10B564000F03009305E0154B1B680193164B1B68F2
:10B574000093019B062B1DD1009B033B042B17D882
:10B5840001A252F823F000BFA1B50200A5B5020044
:10B59400A9B50200ADB50200B1B5020000230AE06E
:10B5A400002308E0012306E0012304E0012302E074
:10B5B400012300E00023184602B070473001001058
:10B5C400E00F00F0E80F00F03401001082B01D4BD2
:10B5D4001B68B3F1FF3F0AD11B4B1B68DBB201931D
:10B5E4001A4B1B681B0903F00F03009305E0154B6E
:10B5F4001B680193164B1B680093019B062B1DD1FE
:10B60400009B033B042B17D801A252F823F000BF80
:10B6140029B602002DB6020031B6020035B602008A
:10B6240039B6020001230AE0012308E0012306E001
:10B63400012304E0012302E0012300E00023184673
:10B6440002B0704730010010E00F00F0E80F00F086
:10B654003401001082B01D4B1B68B3F1FF3F0AD1C7
:10B664001B4B1B68DBB201931A4B1B681B0903F0CD
:10B674000F03009305E0154B1B680193164B1B68E1
:10B684000093019B062B1DD1009B033B042B17D871
:10B6940001A252F823F000BFB1B60200B5B6020011
:10B6A400B9B60200BDB60200C1B6020001230AE029
:10B6B400012308E0012306E0012304E0012302E062
:10B6C400012300E00023184602B070473001001047
:10B6D400E00F00F0E80F00F03401001082B0154BC9
:10B6E4001B680193144B1B680093019B062B1DD10F
:10B6F400009B033B042B17D801A252F823F000BF90
:10B7040019B702001DB7020021B7020025B70200D5
:10B7140029B7020000230AE0002308E0002306E022
:10B72400012304E0012302E0012300E00023184682
:10B7340002B07047300100103401001082B0154B84
:10B744001B680193144B1B680093019B062B1DD1AE
:10B75400009B033B042B17D801A252F823F000BF2F
:10B7640079B702007DB7020081B7020085B70200F5
:10B7740089B7020000230AE0002308E0002306E062
:10B78400002304E0012302E0012300E00023184623
:10B7940002B07047300100103401001008B5FFF703
:10B7A400CDFF0346002B07D04FF010234FF080420B
:10B7B400D3F80832C2F8583500BF08BD00BF044BA7
:10B7C400D3F80034002BFAD000BF00BF704700BF8D
:10B7D40000E0014000B583B00190054A019BC2F826
:10B7E4000435FFF7EBFF00BF03B05DF804FB00BFB7
:10B7F40000E00140024B034A1A6000BF704700BFDB
:10B80400AC2C00200090D00308B5FFF7FFFC0346E2
:10B81400002B06D0964B1B681B0A964A03F01F03A5
:10B824001360FFF737FD0346002B02D0924B934A77
:10B834001A60FFF763FD0346002B06D0904B1B688C
:10B844005B0B904A03F007031360FFF79BFD03466D
:10B85400002B05D08C4BDB688B4A23F08073D360BC
:10B86400FFF7C4FD0346002B0ED04FF080430022A7
:10B87400C3F80C214FF080430022C3F810214FF08D
:10B8840080430022C3F83825FFF7F4FD0346002B5C
:10B8940002D07E4B03221A60FFF720FE0346002BE2
:10B8A4000BD07B4B05221A607A4B01221A607A4B2B
:10B8B40000221A60794B3F221A60FFF743FE0346C9
:10B8C400002B76D04FF08053754AD3F80434C2F875
:10B8D40020354FF08053724AD3F80834C2F8243527
:10B8E4004FF080536E4AD3F80C34C2F828354FF029
:10B8F40080536B4AD3F81034C2F82C354FF0805380
:10B90400674AD3F81434C2F830354FF08053644A90
:10B91400D3F81834C2F834354FF08053604AD3F862
:10B924001C34C2F840354FF080535D4AD3F82034BC
:10B93400C2F844354FF08053594AD3F82434C2F83E
:10B9440048354FF08053564AD3F82834C2F84C3562
:10B954004FF08053524AD3F82C34C2F850354FF08C
:10B9640080534F4AD3F83034C2F854354FF08053E3
:10B974004B4AD3F83434C2F860354FF08053484A08
:10B98400D3F83834C2F864354FF08053444AD3F8BE
:10B994003C34C2F868354FF08053414AD3F8403400
:10B9A400C2F86C354FF080533D4AD3F84434C2F8A2
:10B9B4007035FFF70BFE0346002B05D0394B1B688F
:10B9C400394A03F04F031360FFF744FE0346002B8C
:10B9D4000DD04FF08043D3F8003403F00103002B63
:10B9E40005D04FF080436FF00102C3F80024FFF745
:10B9F40075FE0346002B05D02C4B1B682B4A43F4E1
:10BA0400806313602A4BD3F88830294A43F47003C7
:10BA1400C2F88830BFF34F8F00BFBFF36F8F00BFF2
:10BA2400FFF7BCFE4FF01023D3F80032002B05DBE8
:10BA34004FF01023D3F80432002B15DA0120FFF75E
:10BA4400C9FE4FF010231522C3F80022FFF7B6FEFB
:10BA54004FF010231522C3F80422FFF7AFFE002095
:10BA6400FFF7B8FEFFF7BEFBFFF7C4FE00BF08BD3B
:10BA7400240300104035014074C007400DF0ADBAF6
:10BA8400440200103C050040F0ED00E0A005004039
:10BA94001056004088560040185600401456004086
:10BAA40000C0004058020010E40E00403C17004063
:10BAB40000ED00E06DDF704700BF184679DF704786
:10BAC40000BF18467DDF704700BF184664DF70472B
