:020000022000DC
:10300000000001203D310200DD300200DF3002000F
:10301000E1300200E3300200E53002000000000071
:10302000000000000000000000000000E730020087
:10303000E930020000000000EB300200ED30020039
:1030400081480200F3300200AD4D0200F73002006B
:10305000F9300200FB300200814B0200FF30020019
:103060000131020003310200053102000731020084
:10307000093102000B3102000D3102000F31020054
:1030800011310200515302001531020017310200C4
:10309000ED5302001B310200056102001F310200E6
:1030A00021310200233102002531020027310200C4
:1030B000293102002B310200EF300200EF30020014
:1030C0002D3102002F310200313102003331020074
:0C30D000353102003731020039310200B6
:1030DC00FEE7FEE7FEE7FEE7FEE7FEE7FEE7FEE7BC
:1030EC00FEE7FEE7FEE7FEE7FEE7FEE7FEE7FEE7AC
:1030FC00FEE7FEE7FEE7FEE7FEE7FEE7FEE7FEE79C
:10310C00FEE7FEE7FEE7FEE7FEE7FEE7FEE7FEE78B
:10311C00FEE7FEE7FEE7FEE7FEE7FEE7FEE7FEE77B
:10312C00FEE7FEE7FEE7FEE7FEE7FEE7FEE700BF91
:10313C000F484FF00701884385460E4880470E48DC
:10314C00016841F470010160BFF34F8FBFF36F8FC3
:10315C0000F01AB809480A490A4A884207D0521A9C
:10316C0005D0037801300B700131013AF9D1704769
:10317C0000000120A137020088ED00E0C0640200CD
:10318C0080210020F82100203A493B480A1A02D03D
:10319C00072291438D46394939480A1A06D007222D
:1031AC00914381F30988022282F314883548364909
:1031BC00364A00F041F836483649374A00F03CF8B8
:1031CC0036483749374A00F037F837483749384AD4
:1031DC0000F032F837483849384A00F02DF83848B2
:1031EC003849394A00F028F838483949394A00F04A
:1031FC0023F839483949002200F036F83848394963
:10320C00002200F031F838483849091A03F098F8D0
:10321C00374A904725482649884205D00268043031
:10322C0003B4904703BCF7E700208646EC46002029
:10323C000021304A9047FEE7884214D0521A12D02F
:10324C0003460B4313430324234206D10368043083
:10325C000B600431043AF9D17047037801300B70DC
:10326C000131013AF9D17047884202D00270013025
:10327C00FAE770470000012000F800200000012050
:10328C000000012070700200F821002008220020AC
:10329C000433020004330200286402007070020040
:1032AC00F8210020F8210020386502003865020062
:1032BC003865020038650200386502003865020086
:1032CC0038650200386502007070020080700200E0
:1032DC00082200200822002008220020282A002092
:1032EC00282A0020282A0020282A0020282C002008
:0832FC0061310200613502009E
:1033040073DF704776DF70477ADF70477CDF704782
:103314007FDF70478FDF7047A8DF7047A9DF7047F2
:1033240066DF70473EDF704701F02ABF1FB50021FA
:103334001022684603F046F8402301216846ADF8A0
:103344000A30FFF7DDFF08B101F01AFF002000F09A
:10335400C1F905B05DF804FB1FB50388212B0446B1
:103364006AD013D8112B4ED006D8012B00F08D80D3
:10337400102B2ED004B010BD132BFBD145480023D5
:103384001A4685210088FFF7C3FF35E0522B67D02A
:1033940018D83B2B6CD0512BECD18379827B002B3A
:1033A400E8D0043A022AE5D8022B18BF01238DF88D
:1033B400003069464FF4C1738088ADF80430FFF7DC
:1033C400ABFF48E0562BD5D1334B34491888000461
:1033D40052E0314B32491888000440F0030002F0F7
:1033E400BDFD012000F076F9002000F07FF9294BA3
:1033F400A2881A8001F094FE0028BBD004B0BDE876
:10340400104001F0BDBE244B26491888000440F04A
:10341400030002F0A3FD012000F068F91D4B4FF6F4
:10342400FF721A8001F092FE08B101F0A9FE04B007
:10343400BDE81040FFF77ABF174B1B4918880004FA
:1034440040F0040002F08AFD0023A088ADF80030AB
:103454006946FFF75FFF00288CD001F091FE89E7F1
:103464000C4800231A4619460088FFF757FFC3E7A4
:10347400094B0E491888000440F0040002F06EFD68
:10348400A0881321FFF73EFFB6E700218088FFF7ED
:1034940047FFB1E700220020802100207865020068
:1034A40038650200426502004F6502006365020050
:1034B40008B503784BB9054B3B211888FFF722FF69
:1034C40018B1BDE8084001F05BBE08BD0022002031
:1034D4000D2810B50C4618D10E4B0F49188800045E
:1034E40040F0030002F03AFD0C4B0D4918882246C7
:1034F40001F016F930F008020BD043F202029042B8
:1035040007D043F20142904203D0BDE8104001F0DD
:1035140037BE10BD802100208D65020000220020EE
:103524001C22002010B50220094C52B100F0D2F840
:10353400208808490004BDE8104040F0030002F070
:103544000DBD00F0D3F8208803490004F3E700BF61
:1035540080210020A7650200B865020000B5A1B073
:1035640000F0DFF802F0A4F808B101F009FE002031
:1035740002F086FB08B101F003FE4C4840F266629B
:10358400012101F07BFD08B101F0FAFD02F066FDB6
:1035940008B101F0F5FD002311A90120119302F0F7
:1035A400DDFD08B101F0ECFD11A802F071FE08B1D7
:1035B40001F0E6FD11233E498DF808300D2202A8E2
:1035C400FFF7A4FE08B101F0DBFD0023ADF848309D
:1035D400384B119311A84FF4C873ADF84A30FFF774
:1035E40093FE08B101F0CCFD3348002100F02AFE1F
:1035F40008B101F0C5FD314B3148119311A900F018
:10360400EBFF08B101F0BCFD41F22353ADF80430E7
:103614002B4B3C229B7C8DF80630002102A802F043
:10362400D1FE02238DF80830002140F201633C22D0
:1036340011A8ADF80A3002F0C5FE0123ADF85430EC
:1036440011A901AB02A8169300F003FC08B101F024
:1036540097FD1422002111A802F0B4FE4FF4203388
:103664004FF42022CDE9122303238DF85030154B5B
:10367400169311A8144B179300F01EFD08B101F026
:103684007FFD124B12491888000440F0030002F039
:1036940065FCFFF74BFE02F027FB0028FBD1FFF788
:1036A40041FE0028F7D001F06BFDF4E7F82100207B
:1036B400CA6502005000A00008220020293502003B
:1036C4001C220020B53402002D330200802100208A
:1036D400D8650200044B1A5C012393404FF0A042CA
:1036E400C2F80C35704700BF006F0200044B1A5C2F
:1036F400012393404FF0A042C2F80835704700BF41
:10370400006F020008B50020FFF7F0FF0120FFF76B
:10371400EDFF0220FFF7EAFFBDE808400320FFF7B2
:10372400E5BF4FF0A0430322C3F87827C3F87C27F2
:10373400C3F85827C3F83827FFF7E4BF4FF07043A6
:1037440093F8E02F062A10D1D3F8E42F12070CD1F6
:10375400D3F8E80F00F0F003302B08D000F0E000BD
:10376400A0F140035842584170470020704701209F
:1037740070474FF0704393F8E02F062A0CD1D3F82A
:10378400E42F120708D1D3F8E80F00F0F000A0F1FD
:1037940030035842584170470020704708B5FFF77E
:1037A400CDFF40B14FF08053804AD3F82433C3F3A4
:1037B4000423C2F84035FFF7DCFF10B17C4B7D4A8F
:1037C4005A67FFF7BBFF48B14FF080534FF0804278
:1037D400D3F84432C3F34233C2F83C35FFF7C9FF90
:1037E40030B1754AD2F8FC3023F08073C2F8FC3053
:1037F400FFF7A4FF40B14FF080430022C3F80C212F
:10380400C3F81021C3F83825FFF7B3FF20B14FF0F8
:1038140080430322C3F8A025FFF7ABFF60B1674BD9
:103824000522C3F810260122C3F888260022C3F813
:1038340018263F22C3F814264FF0704393F8E02F64
:10384400062A50D1D3F8E42F11074CD1D3F8E83F1E
:1038540003F0F003502B46D14FF08052584BD2F86E
:103864000414C3F82015D2F80814C3F82415D2F8A8
:103874000C14C3F82815D2F81014C3F82C15D2F878
:103884001414C3F83015D2F81814C3F83415D2F848
:103894001C14C3F84015D2F82014C3F84415D2F808
:1038A4002414C3F84815D2F82814C3F84C15D2F8D8
:1038B4002C14C3F85015D2F83014C3F85415D2F8A8
:1038C4003414C3F86015D2F83814C3F86415D2F868
:1038D4003C14C3F86815D2F84014C3F86C15D2F838
:1038E4004424C3F87025FFF729FF48B14FF08053F3
:1038F4004FF08042D3F8583203F04F03C2F8E43E4D
:10390400FFF71CFF48B14FF08043D3F80024D207DF
:1039140044BF6FF00102C3F80024274AD2F888306C
:1039240043F47003C2F88830BFF34F8FBFF36F8F37
:103934004FF01023D3F80022002A03DBD3F804321B
:10394400002B2EDA1F4B0122C3F80425D3F80024E0
:10395400002AFBD04FF010221521C2F80012D3F830
:103964000024002AFBD04FF010231522C3F80422B0
:10397400144BD3F80024002AFBD00022C3F80425FA
:10398400D3F80024002AFBD0BFF34F8F0A490E4B13
:10399400CA6802F4E0621343CB60BFF34F8F00BFE9
:1039A400FDE70A4B0A4A1A6008BD00BF0030014017
:1039B40000C007400DF0ADBA00ED00E0005000403B
:1039C40000C0004000E001400400FA050422002089
:1039D4000090D0036DDF704772DF704779DF704766
:1039E4007DDF704764DF70472DE9F04F85B0002616
:1039F4000E9CBDF83CB0B4F800A001910746904677
:103A04001D46B1463A884A4505DC002E37D10020D0
:103A140005B0BDE8F08F7A6852F8290003900022BF
:103A24000DF10B0103A8FFF7DDFF0028F0D19DF88D
:103A34000B20424520D1228886F0010002EB0801C8
:103A440001EB4001594524DC3EB9013292B2019B9D
:103A54002280AB5422880132228022880DF10B018E
:103A64002A4403A8FFF7BEFF0028D1D121889DF87E
:103A74000B200A442280012609F10109C2E72388A8
:103A8400013BA3EB0A039BB2FF2B02D805F80A30D3
:103A9400BDE70C20BCE72DE9F341089FBDF8248065
:103AA4001546CDE90078022204461E46FFF79CFF26
:103AB40050B93346102229462046CDE9087802B091
:103AC400BDE8F041FFF790BF02B0BDE8F0812DE9F9
:103AD400F04F0023178885B0138090F82D300646E8
:103AE4000D4614465BB3082F40F2AF8102A8FFF7DE
:103AF40071FF002840F0E2802388DDF809100822D5
:103B0400EA54238801339BB21B222380EA5423887E
:103B140001339BB2EA182380E950BDF80D3093803D
:103B240023889DF8082006339BB2012A88BF01220E
:103B3400238094BFE854EA54238801332380B37864
:103B440003B323880433BB4200F27F8102A8FFF74A
:103B540045FF002840F0B28023880322EA542388DA
:103B640001339BB219222380EA542388BDF808202C
:103B740001339BB2E9182380EA54120A4A7023885D
:103B840002332380F278A2B12388D91CB94200F20F
:103B94005C810221E954238801339BB201212380F3
:103BA400E95423880B449BB22380EA5423880B44B2
:103BB40023807368B3B193F900202388D91CB942D8
:103BC40000F243810221E954238801339BB20A2184
:103BD4002380E954238801339BB22380EA54238849
:103BE400013323803389002B5DD1338A53B1CDE96E
:103BF40000472B460722032106F11000FFF74BFF75
:103C040000285BD1338B53B1CDE900472B461522F5
:103C1400142106F11800FFF73EFF00284ED1326A46
:103C2400002A4ED1D6F82480B8F1000F31D0B8F86C
:103C340004302188981C8A1C0244BA4200F205818F
:103C4400FE2800F2028103336B54238801339BB2B4
:103C5400FF222380EA54238801339BB22380B8F8DF
:103C64000020EA54E918120A4A702088023080B20F
:103C74002080B8F8042062B1D8F80810002900F0B8
:103C8400E680284402F06CFB2388B8F8042013442F
:103C9400238096F82C30002B59D13378002B40F038
:103CA400978000200AE0CDE900472B460622022136
:103CB40006F10800FFF7EFFE002896D005B0BDE836
:103CC400F08FB4F800C00CF10603BB4200F2BD80D3
:103CD4001188052940F2BB806FF4486E01EB0E0396
:103CE4009BB24FF27D3E734540F2B1805388052B61
:103CF40040F2AD806FF44860181880B2704540F20D
:103D0400A6804FF6FF70814202D0994200F29F8054
:103D1400052305F80C30238801339BB2122123803C
:103D2400E954238801339BB223801188E954E818AD
:103D3400090A4170238802339BB223805288EA54D3
:103D4400E918120A4A702388023323806AE7B36AA7
:103D5400002B7CD04FF000094FF00C0A4FF0160BEB
:103D640096F82C305FFA89F2934296D9B16A0AFB2D
:103D740002F201EB0208B8F80430981CFE2864D85B
:103D8400208803332B54238801339BB2238005F806
:103D940003B0238801339BB223808A5AEA54E9187A
:103DA400120A4A702088023080B22080B8F80420B9
:103DB4005AB1D8F80810002949D0284402F0D0FAA2
:103DC4002388B8F804201344238009F10109C7E7C4
:103DD4003288012A3BD02288901CB84235D8012B66
:103DE40004D17378023313449F422ED3023FBF1A87
:103DF400BFB202A92844ADF80870FFF7F1FD00280E
:103E04007FF45CAF3378022B16D1BDF80830BB4287
:103E140019D9ADF808700821BDF80830FE2B14D864
:103E240022880133AB542288013292B22280A954F1
:103E340022881344238034E7012BEAD173789F420C
:103E440028BF1F46E5E70921E6E70C2036E70720EF
:103E540034E730B593B01F230D46ADF80430ADF808
:103E64000630044610B3C3785B0702D4072013B0AE
:103E740030BD01AA02A9FFF72AFE0028F7D102AC3F
:103E8400BDB1EB78002BF1D10DF106020AA9284649
:103E9400FFF71DFE0028EAD10AAD9DF806309DF813
:103EA40004102A462046FFF797FDE0E7ADF804002A
:103EB400E6E7ADF80650F0E775DF704776DF704748
:103EC4007ADF70477BDF7047034B1A8882420CBF4E
:103ED40018460020704700BF58220020024B9B69FF
:103EE40003B11847704700BF3C22002073B585B268
:103EF4002846FFF7E9FF044668B1174E027A337B80
:103F04009A4211D200F10A012846FFF7D5FF20B9E1
:103F1400237A0133237202B070BD1128FBD002B0A2
:103F2400BDE87040FFF7DABF00230372337C43B16E
:103F34003B212846FFF7C2FF30F0080301D0FFF70A
:103F4400CDFF7369002BE6D000228DF80420ADF874
:103F5400065001A89847DEE73C22002013B50B4623
:103F6400497A02460E4871B9D0E90141187A00280D
:103F740008BF2146586801F0DDFB78B102B0BDE806
:103F84001040FFF7ABBF00211972436933B101211F
:103F94008DF80410ADF8062001A8984702B010BDB2
:103FA4003C2200204B8802889A4212D842889A42C6
:103FB4000FD380888B8840F2F311884294BF021A91
:103FC400421A9A4205D80844984234BF002001207E
:103FD40070470020704700000388122B70B501461B
:103FE40059D004D8102B1ED0112B44D070BD502BA7
:103FF400FCD12F4BC288DB899A42F7D1038A022B6A
:10400400F4D186883046FFF75FFF05460028EDD0DF
:1040140001F1120000F00CF938BB686801F0D2FB22
:104024000028E3D00AE0C37B8688012BDED14FF65B
:10403400FF70FFF749FF054620B90420BDE8704032
:10404400FFF74CBF1B4A0680002303721368C0F8B5
:104054000A305368C0F80E3010310A30FFF7A2FF5F
:10406400134B6872DB89002BC0D129463046BDE86A
:104074007040FFF773BF8088FFF726FF04460028CF
:10408400B4D0406801F09EFB08B1FFF727FF4FF65C
:10409400FF732380AAE786883046FFF715FF05469D
:1040A4000028A3D008310A30FFF77CFF6872DCE7F0
:1040B4003C22002034220020F8B5064648B30546C9
:1040C4000FCD154F3C460FC495E8070084E8070060
:1040D4003068124C3C60B0B1FFF7F2FE90B9326820
:1040E40013682360536863600D480E4A4FF6FF73EC
:1040F40003800D4B40F8043F002101F009FB002828
:1041040018BF0320F8BD2046FFF7DCFE0028EBD0E3
:10411400F8E70E20F6E700BF3C22002034220020FE
:1041240058220020F13E02006C2200202DE9F043C9
:104134000388112B95B004464DD01A2B51D0102B67
:1041440064D1344DD5E91132291D23EA020203A8B2
:1041540001F0DAFC00260DF10E07B04605F1440922
:10416400039B9E420ED3686CA688C04301F08EFC6C
:104174004FF6FF73984210D1042015B0BDE8F04308
:1041840000F0FEBFCDF8008037F8023F22481D2220
:10419400494601F091FC0136E2E7204905EB400570
:1041A4000123A1F144003246AE8001F0A4FC1C4975
:1041B4000123A1F14000324601F09DFCE37B194943
:1041C4009A1E53425341A288A1F1480015B0BDE89C
:1041D400F04301F090BC114982880023A1F144000E
:1041E400F4E7037A104982881F2B94BF002301232C
:1041F400A1F14C0001F07FFC237A0C49A2882F2BFB
:1042040094BF00230123A1F15000DFE715B0BDE8FE
:10421400F08300BF8C22002090220020D4220020B2
:10422400D0220020D8220020DC220020E02200201E
:10423400008800F00100704790DF70479EDF7047F0
:10424400ADDF704778B14FF0171303601B23037180
:104254001723C380038141F61B320023016143818C
:104264008281184670470E20704700002DE9FF47F1
:10427400868805460C46002E40F066810388242B70
:1042840000F0E68022D8112B00F0B880232B00F038
:104294001E81102B59D0A37A002B00F05581E188A0
:1042A4000020FFF7CBFF0346002840F03F814FF486
:1042B40080726281A64AA7491088E288000440F00F
:1042C400040004B0BDE8F04701F055BE3A2B00F0FD
:1042D4009D80552BDFD19E4FC58838889E490004A8
:1042E4002B46324640F0040001F045FEE38838884E
:1042F4009A49A672172D2A4638BF17229A4228BF18
:104304001A460004228140F00400009601F03DFEAC
:10431400E1883046FFF794FF024630B1388890496F
:10432400000440F0010001F01DFEE37A002BB2D13D
:104334002369002BAFD040F6772202922289ADF890
:104344000C2002A920469847A5E7C37B0A790A7383
:10435400012B3CD0022B3DD0E2882389934210D21A
:104364007B4D804928880004002340F0040001F0BC
:1043740002FEE1880020FFF761FF024660BB0123D3
:10438400E372227B637B934285D2714E76493088F7
:1043940000040025002340F0040001F0ECFD237B21
:1043A400ADF808302A4602A92846ADF80A3003952C
:1043B400FFF742FF034600283FF46DAF30886B4996
:1043C40000042A4640F0010001F0D5FD63E70B88A4
:1043D400E380C1E74B88FBE72888112A4FEA0040B5
:1043E40005BF012362496349A37206BF002240F05E
:1043F400040040F0010001F0B5FDC2E71723CB80B3
:104404000B8141F61B334E818B8144E74289CB8873
:104414009A4228BF1A464E4B1888172A38BF1722CB
:1044240000040A813346544940F0040001F0A3FD1E
:10443400236953B1E27A42B140F67722029222898B
:10444400ADF80C2002A9204698470023638122E797
:104454003F4DB0F80890B0F80AA08789B0F80E80F4
:10446400027A28884A7300043346444940F0040021
:1044740001F081FD288842490004524640F00400BE
:1044840001F070FD28883F4900044A4640F00400CA
:1044940001F068FD28883C490004424640F00400CD
:1044A40001F060FD2888394900043A4640F00400D0
:1044B40001F058FD2369002B3FF4EDAE4DF67A224E
:1044C4000292627B8DF80D608DF80C2039E7204F45
:1044D40090F8088038882E4900044346324640F05C
:1044E400040001F048FD227B3888AB8829490396F3
:1044F40042454FEA004028BF424640F00400ADF870
:104504000820ADF80A2001F036FD3246A88802A939
:10451400FFF792FE024600283FF4BDAE38881E49DC
:10452400000440F0010001F01DFDB4E611280BD099
:10453400074A1049108800041A4640F0010004B0EC
:10454400BDE8F04701F00EBD04B0BDE8F08700BF40
:10455400982100207E69020096670200D06702005D
:104564000F680200F0650200C3660200FE660200E6
:104574002D6602007F6602005B670200516802003C
:104584008068020092680200A4680200B468020015
:10459400C46802000169020036690200A0DF7047A6
:1045A400A2DF7047A6DF704762DF70470288502A97
:1045B40010B40DD1C4884A88944209D1028A012AD0
:1045C40006D14B6923B1827C5DF8044B808818477F
:1045D4005DF8044B704700002DE9F0470B6894B078
:1045E40043614E4B04AA054603F1100716461868AA
:1045F4005968144603C40833BB422246F7D105F177
:1046040012013046FFF7D0FF0446002840F08180B5
:10461400AB7C8DF80A302A4641F2235302A90120CB
:10462400ADF80830FFF7BAFF0446002871D14FF007
:104634000108034668F3420301461C22814641F205
:10464400111A0DA88DF80230ADF800A001F0BAFEE1
:104654009DF83430ADF8044023F0120343F0120304
:104664008DF83430AB7C8DF80E3041F22453ADF824
:104674000C3011238DF80430234668F342038DF87F
:1046840006302B4601AE33F80A0BCDF82A4003AFAF
:1046940008AA0DA9CDF82E40ADF83240CDE9087630
:1046A400CDF848D0ADF82880ADF82C80FFF778FF1E
:1046B400044670BB01461C220DA801F083FE9DF840
:1046C4003430CDF82A4023F00A0343F00A038DF86E
:1046D4003430AB7C8DF80E3041F22553ADF80C30FC
:1046E4004B4668F342038DF806302B4608AA33F88C
:1046F400020BCDF82E400DA9CDE90876ADF804A043
:10470400ADF83290ADF82880ADF82C80FFF748FF63
:104714000446204614B0BDE8F08700BF046F0200D1
:1047240000B589B00123ADF80E308DF812304B89F5
:10473400ADF810300DF107038DF807200793002220
:104744000DF10E0304A9CDF813208DF8172006935C
:10475400FFF728FF09B05DF804FB000038B5074CEB
:10476400051EA4F1080308BF1C4623682BB11A6870
:1047740022605B6828469847F7E738BD5423002039
:1047840008B9FFF7EBBF70474FF080420123D360B5
:10479400D2F8183413F48033FAD1014A9370704775
:1047A4004423002010B50E4C2378BBB96360A3608A
:1047B400E36023610B4B186810F0010002D107215C
:1047C40000F08CF801F082FC20B94FF08043012204
:1047D400C3F8182501232370002010BD8520FCE7B1
:1047E4004423002000E100E007B500230DF1070099
:1047F4008DF8073000F0F6FF074BDA68013ADA600B
:10480400DB680BB9FFF7C0FF9DF8070001F00EF855
:1048140003B05DF804FB00BF44230020012813B556
:1048240008D003281CD018B9124B0122C3F88020E9
:1048340002B010BD104C00230DF107008DF80730B5
:1048440000F0D0FF23780BB9FFF7ACFFE3689DF8C5
:1048540007000133E3600123A37000F0E7FFE7E7FB
:104864000721002000F03AF802B0BDE81040FFF73D
:10487400BBBF00BF00E100E0442300204FF08043B1
:1048840007B5D3F800216AB10020C3F80001D3F8BA
:1048940000210092009A0122C3F808230E4B5A709B
:1048A400FFF75CFF4FF08043D3F804218AB1002264
:1048B400C3F80421D3F804210192019A0222C3F817
:1048C4000823054B0120987003B05DF804EBFFF753
:1048D40045BF03B05DF804FB442300200028ADBFAE
:1048E40000F160430C4B00F00F0203F561434FEA03
:1048F4004111C9B2B4BF995483F80013012200F0E6
:104904001F039A4043099B0003F1604303F561438D
:10491400C3F880211A60704714ED00E000F1804074
:1049240000F5C040002382B0036003680193019B3B
:1049340002B07047800000F1A040D0F8003723F4A3
:104944004033C0F80037D0F8003743EA0143C0F8D9
:1049540000377047054B4FF0FF32072843F82020FB
:1049640084BF1B1883F84820704700BF58230020D9
:1049740038B5124D95F85440ECB92022FF2105F1C9
:10498400300001F01FFDE0B20134FFF7E3FF0C2C0F
:10499400F9D106200721FFF7A1FF4FF4BE70FFF7FE
:1049A400BDFF074B4FF00042C3F80423012385F8F1
:1049B4005430002038BD0820FCE700BF58230020F5
:1049C40000600040034B93F85400003818BF0120E6
:1049D400704700BF58230020F0B5314E331893F9C7
:1049E4003030002B5ADACF78002F0BBF0823002376
:1049F4004FF00C0C4FF0080C634501D10420F0BDBE
:104A040056F8235001354FEA830431D106EB000CEC
:104A14005DB246F823208CF8305017B9334483F83C
:104A240048008B7833B3830003F1A043D3F8002705
:104A340022F00202C3F800270A7827B304F1804366
:104A440003F5C0430002D3F8101521F4473121F4D3
:104A54004071C3F810151204D3F8101500F4F8507F
:104A640002F4403210430843C3F810050020C6E79F
:104A74000133C1E74A7800F5E0734FF0A04C92008F
:104A84004CF82320D8E7A5F1080346FA83F393F8FA
:104A9400501041EA821283F85020E7E70820AEE77D
:104AA4005823002010B51D4C231893F93020072AF1
:104AB40016DD144494F848309B09032B0BD14FF0B6
:104AC400A043D3F81015C14001F001010231BDE843
:104AD4001040FFF72FBF012B0CBF02210321F6E783
:104AE400D3B2072B19D8930003F1804303F5C043D5
:104AF400D3F8100540F00100C3F8100502F140009E
:104B0400800080B2FFF70AFF39B154F8223023B194
:104B140001239340024AC2F8043310BD58230020F5
:104B2400006000400E4B034493F93020072A02DD55
:104B34000021FFF7FFBED3B2072B0FD8930003F178
:104B4400804303F5C043D3F8101521F00101C3F8E5
:104B5400101501239340034AC2F80833704700BF7D
:104B640058230020006000404FF0A043D3F81035D4
:104B740023FA00F000F00100704700002DE9F04F27
:104B840085B000245C4D01944FF48072012102F140
:104B9400804303F5C0431B68012B07D1D5F80433C8
:104BA400194203D090B2FFF7B9FE0C430432B2F5B8
:104BB400907F4FEA4101EAD14F4BD3F87C31012B6E
:104BC4000AD14FF4BE70FFF7A9FE4FF0A04344F0A2
:104BD4000044D3F810350193E3B2D3B1474F002515
:104BE4000126344210D0AB0003F1804303F5C043E7
:104BF400D3F81005D3F8101557F8253023B1C1F3B5
:104C04000141C0F3042098470135082D4FEA4606B8
:104C1400E7D1002C6DDA00214FF0FF33CDE9021308
:104C2400364D374C4FF00008C14601264FF0A047DF
:104C340014F9013F5A1C49D0C3F3C20101F1100019
:104C44006844DAB210F804CC03F03F0A03F0070317
:104C540006FA03F31CEA030F38D005EB0A0C920999
:104C64009CF930C055F82CB0BBF1000F0AD1032ACF
:104C74002CD10DF1080E1EF801C04CEA030C0EF8FD
:104C840001C001E0032AF4D00AF5E07110F80C0C1D
:104C940057F821101842C1F3014105D0022915D15A
:104CA400032A0DD1114604E003290FD1032A07D1A9
:104CB40002215046FFF73EFE08F101085FFA88F82A
:104CC400BBF1000F02D011465046D84709F1010943
:104CD400B9F1040FACD1B8F1000F0AD04FF0A043E2
:104CE400019AD3F810359A4203D00193029B03939F
:104CF40097E705B0BDE8F08F00600040582300201E
:104D0400A7230020002382B0435043580193019B02
:104D140002B070470A4610B54FF48E71FFF7F2FFE8
:104D2400938A91689BB2C95C938A01339BB2938244
:104D3400C0F81C1510BD1FB582688DF8081000233B
:104D44008DF8003083750192D0E9001368469847C6
:104D540005B05DF804FB10B5CB7D0A464FF48471B1
:104D640023B9FFF7CFFFD0F8183510BDFFF7CAFFFE
:104D7400537ED168D0F81805C854537E0133DBB292
:104D84005376F2E71FB501238DF80030054B8DF8FB
:104D9400080001916846D3E90012904705B05DF818
:104DA40004FB00BFB02300207FB57A4C7A4A237FEE
:104DB400002B67D0D2F82461002E42D04FF49271B8
:104DC4001046FFF79FFF02238DF80030D2F880349D
:104DD400C2F880340393D2F83C358DF80830E36888
:104DE40001930023E37523766846D4E900139847BA
:104DF4006948D0F844316BB14FF4A271FFF782FFD8
:104E0400E37D3BB10023E375D0F83C05E168C0B213
:104E1400FFF7B8FF6048D0F82031002B00F0B780CE
:104E24004FF49071FFF76EFFA37D002B00F0AF806D
:104E3400D0F84C155748C9B204B0BDE87040FFF72C
:104E44007ABFD2F81031002BD2D010464FF48871BB
:104E5400FFF758FFD2F83C35E07DDBB29842C7D16A
:104E6400237EE16863B1D2F8005225F02005C2F830
:104E74000052E3752369E3602676FFF783FFB7E703
:104E8400E375FAE7D2F8043399054AD5D2F8243108
:104E9400002B46D04FF492711046FFF733FF4FF4C6
:104EA4000173C2F80833A37E0BB9012353603A4A55
:104EB40002238DF80030D2F88034C2F88034039392
:104EC400E37D8DF80830E36801930023E3752376CE
:104ED4006846D4E9001398472F48D0F81C313BB1F9
:104EE400A38AA27D9BB2934246D22A49FFF712FFBE
:104EF4002948D0F84431002B49D04FF4A271FFF770
:104F040001FFA37E0BB101230360E37D002B3ED0A0
:104F1400607EE1680023E37504B0BDE87040FFF7EC
:104F240031BF1D4DD5F804335B07D5D5D5F808310D
:104F3400002BD1D017492846FFF70DFF637EE27D91
:104F44009A42C9D1237EE1684BB1E3752369E360DA
:104F54000023607E23766376FFF714FFBCE7A37E0D
:104F64000BB901236B600C4B4FF40172C3F8082397
:104F74000023607EE375EFE74FF48E71FFF7C2FE06
:104F8400002AB5D003481146FFF7D5FEB0E704B0B8
:104F940070BD00BFB0230020002000402DE9F84F71
:104FA4001B4FDFF878801B4E4FF000093B785FFA07
:104FB40089F5AB4201D8BDE8F88FD8F800B0336862
:104FC4001BF83500012404FA00F213420BEBC50A66
:104FD4001BD023EA02033360FFF7C6FD0E4A0346E3
:104FE4001BF8350012688440144003FA00F294421E
:104FF4000BD1DAF804209AF8011032B14C1E614248
:105004006141CD1A69426941904709F10109CDE72F
:10501400FC230020D0230020D423002000240020DF
:1050240070B50646114800F0CDFBF0B9104D0124CF
:105034002B68B440234215D13046FFF795FD0D4A45
:10504400136860B1234313602B68084823432B6023
:10505400094BBDE870401968002200F06BBB23EADD
:105064000403F0E723EA04032B6070BDD823002077
:10507400D0230020D4230020F8230020042A2DE983
:10508400F34105460C46164637D9FFF79BFCC8B1D9
:105094001B4BDFF888801D601A4B1C701A4B1E6076
:1050A4001A4B00261E601A4B013C1E60E4B2032713
:1050B400FF2C0ED1174A1848002102B0BDE8F04178
:1050C40000F026BBFFF754FC0028E1D002B0BDE895
:1050D400F08105EBC40315F834009B788DF8047057
:1050E400424601A9ADF806608DF80530FFF774FC5F
:1050F400013CE4B20028DBD0E8E70720E6E700BF84
:1051040000240020FC230020F8230020D4230020C6
:10511400D0230020A14F0200146F0200255002008A
:1051240070B5084D084E00242B789C4201D3002012
:1051340070BD3368012113F83400FFF7B3FC013468
:10514400F2E700BFFC2300200024002070B5094DC5
:10515400094E00242B789C4204D3BDE870400748D4
:1051640000F030BB336813F83400FFF7DBFC013484
:10517400F0E700BFFC23002000240020D8230020F7
:105184001FB50021CDE9021001AA44F20100ADF8D7
:10519400041000F003F805B05DF804FB38B500F026
:1051A40001FF00F0A1FD0028FBD1104D104C288810
:1051B4001049000440F0010000F0D0FED4F8F030B3
:1051C400DB0700D5FFDE28880B49000440F002000D
:1051D40000F0C4FEBFF34F8FE268084B02F4E062B4
:1051E4001343E360BFF34F8F00BFFDE7802100202E
:1051F40000ED00E0DE690200EA6902000400FA053D
:10520400094B5A7899780132D2B2914208BF0022F0
:10521400197891421FBF02705A78182101FB02309D
:1052240014BF0430002070471824002073B50546CD
:1052340000240DF107000E468DF8074000F0D2FA65
:105244000DF10600FFF7DCFF90B10A4B9DF8062034
:10525400067045605A709DF8070000F0E7FA24B91B
:10526400054B4FF48012C3F80021204602B070BDF4
:105274000424F0E71824002000E100E0204B214939
:105284001A682F2300BF00BF00BF00BF00BF00BFCC
:1052940000BF00BF8A422FD000BF00BF00BF00BFC5
:1052A40000BF00BF00BF00BF00BF00BF00BF00BF02
:1052B40000BF00BF00BF00BF00BF00BF00BF00BFF2
:1052C40000BF00BF00BF00BF00BF00BF00BF00BFE2
:1052D40000BF00BF00BF00BF00BF00BF00BF00BFD2
:1052E40000BF00BF00BF00BF00BF00BF00BF00BFC2
:1052F40000BF00BF00BF00BF013BC3D1704700BF68
:10530400042200200024F4000C4B0D484FF400321A
:1053140010B5C3F8802001244FF48033C0F848331B
:10532400C0F808334460FFF7A9FF064B84600020EF
:105334001860FFF7A3FF044B187010BD00E100E0F4
:10534400001001401024002005240020F8B51F4B54
:105354001F491B680025C1F84051C1F84451C1F8E8
:105364004851C1F84C51C1F80051C1F804514BB334
:10537400D1F8044517490968641A24F07F442F467C
:105384001A68A24209D8A41A15441A7CDE691AB113
:10539400D3E905201F749047AEB90F4A0F4B11781B
:1053A4001B788B4205D10133DBB2022B08BF0023EB
:1053B400137012780A4B43F822500A4B4FF48012B0
:1053C400C3F80021F8BD3346DAE700BF14240020F7
:1053D400001001401024002006240020072400208F
:1053E4000824002000E100E02DE9F74FA549A64A72
:1053F4000B781278A54C9A4200F091800133DBB20D
:10540400022B08BF0023A24A0B70A249176851F867
:1054140023003B1823F07F431360002223681546C2
:105424001646944613B942B1236006E019688142D6
:1054340063D902B12360091A19604FF00108236887
:10544400954EDFF864A2009300277378002D69D18C
:1054540032789A4240F0828023682FB9009A9A42A7
:1054640002D1B8F1000F42D0002B00F00781D3F82D
:1054740000908A4C864BD4F804651868884F351A16
:105484003B7825F07F4503359BB94FF48033C4F84E
:105494004433C4F80433834B4FF400324FF0010813
:1054A400C3F880211A60C4F80080FFF7E7FE87F88C
:1054B4000080A9452CBF4844401920F07F40C4F81F
:1054C4004005D4F804359B1B23F07F43801B033332
:1054D40020F07F4083420AD9D4F80435C4F840351B
:1054E400FFF7CCFE6F4B4FF40032C3F800216E4B34
:1054F40000221A7003B0BDE8F08F401A0E44D96838
:10550400D3F81CE0C3F800C031B1BA1922F07F42CD
:10551400C3E90121DD611D467346012282E70025AE
:10552400A8468CE72846ED69594BD0F804C01A68A0
:10553400DFF878E18368ACEB020121F07F4171452B
:1055440072D80B4401210174216803600022C0E970
:105554000122C261002970D1206076E7531CB17822
:10556400D4F800B0DBB2994208BF0023337018238B
:1055740003FB026213799068022B1FD0032B50D0D7
:10558400012B7FF462AF037C002B7FF45EAFD2E982
:10559400031383605369C36093699AF8002083619D
:1055A400002A18BF29464160BEE7904209D09146BF
:1055B400D269002AF9D10023037446E75A46D94632
:1055C400F7E7484512D1DBF81C10216071B9DFF808
:1055D400CCE001920123CEF80830DFF8B4E0CEF835
:1055E400001031490B70FFF749FE019A1168D26926
:1055F400C9F81C2012B113680B44136023685B457F
:1056040018BF0127D7E78BF81020DBF81CB0012363
:10561400BBF1000FF7D1002B3FF417AFC4F800B073
:1056240013E72B462A46F3E7A2EB0C0222F07F4253
:105634009A4234BF9B1A002384E70A689A421BD318
:10564400D21A0A60C16187E7A3EB0C03D2F81CC02D
:105654001146BCF1000F0AD06246D2F800C063457F
:10566400F2D8ACEB030CC2F800C094460A460360BF
:10567400C0F81CC0D061E8E60A46EEE7FFF744FE36
:1056840035E700BF0724002006240020142400204E
:1056940010240020082400201824002000100140B9
:1056A4000524002000E100E004240020FEFF7F0028
:1056B40008B5FFF729FE104B00200B2218809A70C2
:1056C4000E4B18600E4B18700E4B18700E4B4FF4A7
:1056D4008012E021C3F8802183F814131A6002F1C8
:1056E4008042A2F56F22C2F8080583F81113074B14
:1056F400D2F804251A6008BD1824002014240020C0
:10570400072400200624002000E100E010240020EB
:10571400074B9B784BB132B128B10368187C20B990
:1057240059745A617047072070470820704700BFBA
:10573400182400202DE9F743DFF8848098F802301C
:1057440005460E461746ABB3A0B3042930D94369C6
:1057540083B3437C0024012B0DF107000CBF894661
:10576400A1468DF8074000F03DF80DF10600FFF763
:1057740047FDD8B1012303700F4B4560D3F80435BE
:10578400C0E90497C0E902369DF8063088F8013074
:105794009DF8070000F04AF824B9084B4FF4801232
:1057A400C3F80021204603B0BDE8F0830424EFE7EA
:1057B4000724F7E70824F5E70010014000E100E0C2
:1057C40018240020064A92783AB130B1426922B1D5
:1057D400002202740221FFF729BD0820704700BF90
:1057E4001824002070B5EFF3108672B60C4A946842
:1057F400012384B993600B4B0B4DD3F880102940DF
:105804001160C3F88050D3F8841051604FF0FF3218
:10581400C3F884202346037006B962B670BD00BF86
:105824002425002000E100E0FC06FFBD084B9A6837
:1058340010B55AB150B9EFF3108172B6054A1C681D
:1058440014605C685460986001B962B610BD00BF12
:105854002425002000E100E010B590B1D0E9012337
:1058640001689B1ADBB20A60013BDBB2FF2B0268C2
:1058740002D10020107110BD11684C1C14600B7013
:10588400F2E70E20F7E737B5054600240DF10700CF
:105894008DF80740FFF7A6FF2A68696813688B42F2
:1058A4000ED9591E116013F8013C288AEC6800FBDC
:1058B4000344AB685B1A1179DBB2994238BF1371A8
:1058C4009DF80700FFF7B2FF204603B030BD37B59F
:1058D400054600230DF107000C468DF80730FFF74D
:1058E40081FF2A681368591C1160EA68A41A2A8A7D
:1058F400B4FBF2F41C709DF80700FFF797FF03B0A8
:1059040030BDFFF7A9BFF8B546790146721E0546BA
:10591400002393422D6803D30024A64202D8F8BD85
:105924000133F6E70F682846FFF7D1FF0134394603
:10593400F3E72DE9F041078ACD1C0646FFF7A3FFE4
:10594400043F3D440446B5FBF7F5D0B14FF48073F2
:10595400EDB2C7808380013D066080460027AF42D8
:1059640010D23046FFF78FFF40B163790133637182
:105974000137C8F8000006608046F0E72046FFF7CC
:10598400C2FF00242046BDE8F08110B50430012395
:1059940050E8002F02EB030140E8001494F0000FDC
:1059A400F6D110BD30B4031D012153E8004FA4EB20
:1059B400010243E8002595F0000FF6D1D2B212B9E6
:1059C40030BCFFF7A0BF30BC70472DE9F843B0F8F6
:1059D400068004330546B3FBF8F40F46164608FB6D
:1059E40014333CB9A8EB0309B14528BFB14626B925
:1059F400BDE8F8832D68013CF3E70433E818A6EB0F
:105A040009064A46391900F0ABFCB0454C442D68F0
:105A1400C1464FF0000328BFB146E8E7D1E90032A0
:105A2400934208BF0023016043607047436843B159
:105A34000268916852680B449342436004BF002398
:105A44004360704710B50B4AA2F1F0039A4201D8A3
:105A540000200CE0D11A091103EBC10453F83110F2
:105A6400814205D802D204F10803EFE7606810BD53
:105A74002246EBE70870020008B5FFF7E3FF024B8C
:105A8400002808BF184608BD08700200C30710B5F7
:105A940010D401231A46202B02D14FF6FF7006E0E2
:105AA40002FA03F4044203F1010101D098B210BDDB
:105AB4000B46F0E70020FAE770B59DF8105098B156
:105AC40091B18AB1002430F814609E420FD10120B4
:105AD400A040C44301EB820251F8043B2DB10343BF
:105AE400914241F8043CF7D170BD2340F8E70134FA
:105AF400202CE8D1F8E707B5009313460122FFF7FD
:105B0400DBFF03B05DF804FBF0B599B100231C463C
:105B1400012505FA03F616421EBF00EB440631F8D0
:105B24001370B78003F1010318BF0134202BF0D1A7
:105B34000460F0BD0C46FBE72DE9F04F89B0002767
:105B440001900DF113000E468DF81370FFF74AFE15
:105B5400494A14683460D2E90160A31C0393019B91
:105B6400394600EB0609012709F10109043300EB6A
:105B74000708A9EB0409029302F2144C8E46A8EB21
:105B84000408029B994515D301B1566004400334BF
:105B9400019D12F824309DF8130043F0030302F82A
:105BA4002430039B1D441560FFF740FE012009B01B
:105BB400BDE8F08F314D55E8003F43EA070945E859
:105BC400009A9AF0000FF6D15CE8003F43EA070917
:105BD4004CE8009A9AF0000FF6D100EA060909F1A0
:105BE400030902EB8909334699F800A01AF0030F60
:105BF4002AD000EA030902EB89090233D9F80C9090
:105C0400CDF8149009F00309B9F1010F2ED0B9F1C0
:105C1400020F07D1BDF81690C9F3891909F10309D8
:105C240003EB99035CE8009F09EA0E0A4CE800AB19
:105C34009BF0000FF6D1B9F1000F0CBF33460121E0
:105C440008EB03091E469CE703F1010AB9F800308A
:105C5400B9F802B0C3F3891303EB9B13534400EA6E
:105C6400030909F1030902EB8909BDE7BDF81490A2
:105C7400C9F383194B44D5E7302500204829002077
:105C840038B50F4B0F48FF229A600022C3F818243E
:105C9400C3E90022C3F8142483F81C24FFF731FE5F
:105CA40040B9094A094B0A4C9B1ADB0802460C21ED
:105CB4009A4200D138BD01FB02F562530132F7E785
:105CC400302500201C70020058640200A864020001
:105CD40080210020034BD3E90030C31A58425841B5
:105CE400704700BF302500202DE9FF47FFF7F2FF82
:105CF40018B1002004B0BDE8F087DFF8D481C8F8FB
:105D04001804BFF34F8FD8E9013404EA03020332C5
:105D140008EB8202591C107880075ED003EA040263
:105D240008EB8202214008EB8101D26801929F1C9A
:105D3400CB68029302F00303022B62D1BDF8063054
:105D44006148C3F38916502EB14628BF4FF050095D
:105D540069F38F1309F10801ADF80630FFF7E9FD87
:105D64000546002800F08C80FFF70FFE002328462C
:105D7400082201A9FFF729FE24EA07030133B9EB3E
:105D8400830F4FEA830034D95FFA89F968B304EAD0
:105D94000701C4B2A9EB040A0331A1464B4C08EB3A
:105DA40081015FFA8AFA08234A462846FFF70DFE66
:105DB40034B109F10803524621462846FFF705FE8F
:105DC400033607EB9606D8F81834D8F81044002B9D
:105DD40064D02846FFF7E6FD52E013885088C3F3E9
:105DE400891303EB90130B448FE73849044682462A
:105DF400D9E704EA0701033108234A4608EB810185
:105E0400DBE7012B35D1BDF804302F48C3F38311F0
:105E1400062928BF062161F38913023101F00F011D
:105E24008900ADF80430FFF784FD054640B3FFF761
:105E3400ACFD0023082201A92846FFF7C6FD4FF058
:105E44000009BDF80420C2F383124FEA89034A45CE
:105E540003F1080309EB0706B5D906EA0401033187
:105E6400042208EB81012846FFF7AFFD09F101097F
:105E7400E7E7032B04D1D8F81834002B3FF439AFEB
:105E8400FFF728FF80F00100C0B233E7637A23B143
:105E9400236829461B68204698476468002CF5D17E
:105EA4002846FFF77FFD0DF103008DF80340FFF74F
:105EB40099FCD8F818340BB9C8F804609DF80300AD
:105EC400FFF7B4FCDCE700BF1C7002003C25002097
:105ED400302500202DE9F3471F4F04460E4618468F
:105EE40001A9D7F8088091469A46FFF725FEF8B134
:105EF400019D0021AB1C514501EB030C22D16B1C0D
:105F040003EA080307EB8303220CDA60A30803F017
:105F14000403E40043F0010304F0380405EA08052F
:105F24002343033543EA811343EA862347F82530A4
:105F340097F81C341BB1FFF7D7FE0028FBD102B041
:105F4400BDE8F0870CEA080C07EB8C0C59F821200B
:105F5400CCF80C200131CEE73025002000231A466E
:105F6400FFF7B8BF07B50123019201AAFFF7B2FFFB
:105F740003B05DF804FB07B5CDE9002302236A46AC
:105F8400FFF7A8FF03B05DF804FB1FB5CDE90123BB
:105F9400069B039301AA0323FFF79CFF05B05DF85A
:105FA40004FB000038B5074B0125D3F8104483F8EF
:105FB4001C5404B938BD2368657220465B68984751
:105FC4006468F6E73025002010DF704713B50446F7
:105FD40009496846FFF722FD019808B902B010BDCF
:105FE400D0E900312046984718B16846FFF71EFDF6
:105FF400F2E71120F2E700BF4870020013B504462F
:1060040007496846FFF70AFD019B0BB902B010BDB2
:106014002046D3E9002190476846FFF707FDF3E7E0
:106024003C7002000B4991F8162313235209D34004
:10603400DB0706D4084B9A683AB94FF480030B6027
:10604400704742F20200FFF79BB81A6842F48002DC
:106054001A60704700E100E024250020F7B5154FD1
:106064003C782CBB144E012520463570FFF7AEFF5B
:1060740011281AD02046FFF7C1FF104B10491868A9
:10608400019001A8FFF7A0FF044670B90D4B3070D2
:1060940018700D4B3D70E02283F8162383F8152306
:1060A400FFF7C0FF2846FFF7A9FF204603B0F0BD65
:1060B4000824FAE7222A0020202A00205470020033
:1060C400A1510200212A002000E100E0014B1878D0
:1060D400704700BF222A002007B508496846FFF729
:1060E4009DFC019B13B903B05DF804FBD3E90020C8
:1060F40090476846FFF79AFCF3E700BF3070020050
:10610400FFF7EABF60DF704769DF704761DF704700
:1061140030B5114D93B038240DF1060104A8ADF843
:106124000640FFF7F3FF70B9294602A8FFF776FC93
:10613400039B002BF0D004A8D3E90021904702A8C8
:10614400FFF774FCF4E7052804D013B0BDE8304031
:10615400FFF716B813B030BD5870020030B50C46C6
:1061640085B0002900F083800023CDE90133414A42
:10617400039301230A608DF804008DF8063001A909
:1061840003232020ADF80830FFF7BEFF58B13A4B87
:106194001D88FFF771FC2D0445F0010502463749BF
:1061A4002846FFF7DFFE0023CDE90133039322687D
:1061B400012301A940208DF80430FFF7A5FF58B151
:1061C4002D4B1D88FFF758FC2D0445F001050246B0
:1061D4002B492846FFF7C6FE0023CDE9013303937C
:1061E40022680A2301A901208DF80430FFF78CFFEF
:1061F40058B1214B1D88FFF73FFC2D0445F00105E4
:10620400024620492846FFF7ADFE0023CDE90233BC
:1062140022684FF4B06301A9A1200193FFF774FF32
:1062240058B1154B1D88FFF727FC2D0445F00105D7
:10623400024615492846FFF795FE0023226803937A
:1062440001A9A020CDE90133FFF75EFF10B90020BA
:1062540005B030BD084B1C88FFF70EFC240444F045
:106264000104024609492046FFF77CFEEFE70E20B1
:10627400EEE700BF80210020C8210020FA6C020054
:10628400406D02008C6D0200D86D0200296E020080
:10629400F8B505460768FFF735FF2B68BB4204468F
:1062A40018D0144E1449308800043A4640F00200D5
:1062B400FFF761FE4FF080533088D3F80C312A6821
:1062C4000E499B0203F1005300049A1A40F00200A5
:1062D400FFF748FE64B1074B20461D88FFF7CCFB4F
:1062E4002D0445F00105024605492846FFF73AFE0C
:1062F4002046F8BDC82100207C6E0200A96E020071
:10630400CB6E020048DF70471FB50E4C01A8FFF7A3
:10631400F9FF70B9214602A8FFF780FB039B002B0D
:10632400F4D00198D3E90021904702A8FFF77EFB3F
:10633400F4E7052804D004B0BDE81040FEF720BF00
:1063440004B010BD64700200082938BF7047416072
:1063540042F62421C2F20001086000210160704766
:106364005AB3844690EA01039B071FD1830707D0E1
:1063740011F8013B00F8013B013AF7D11CE08446D7
:10638400203A09D32DE9F007B1E8F807A0E8F807A7
:10639400203AF9D2BDE8F0071C3205D451F8043B89
:1063A40040F8043B043AF9D2043205D011F8013B19
:1063B40000F8013B013AF9D16046704700220B0016
:1063C40011001A0084465AB3830704D000F8011B55
:1063D400013AF9D124E0C9B241EA012141EA01417B
:1063E400202A11D3203A2DE9F0030B460C460D4622
:1063F4000E460F4688468946A0E8FA03203AFBD2A7
:10640400BDE8F00320320BD0042A05D340F8041B66
:10641400043A05D0042AF9D200F8011B013AFBD151
:046424006046704717
:0864280085470200000000009E
:1064300031410200000000007142020008220020E9
:10644000DD3F020000000000B14502001C220020D8
:086450005D33020000000000B2
:10645800EE6C020000000400F76902000000000072
:10646800C369020000000400CC69020000000000BB
:10647800D269020000000000F26C02000000030074
:10648800E86E020000000300F46E02000000030042
:10649800FE69020000000000D96902000000000047
:0864A800214802000000000081
:1064B00015610200000000000D63020000000000F2
:1064C00000000000000000000000000000000000CC
:1064D00000000000000000000000000000000000BC
:1064E00000000000000000000000000000000000AC
:1064F000000000000000000000000000000000009C
:10650000000000000000000000000000000000008B
:10651000000000000000000000000000000000007B
:10652000000000000000000000000000000000006B
:08653000000000000000000063
:10653800436F6E6E656374656400446973636F6E60
:106548006E656374656400504859207570646174A1
:106558006520726571756573742E00474154542027
:10656800436C69656E742054696D656F75742E008F
:1065780047415454205365727665722054696D659D
:106588006F75742E0053656E6420627574746F6E37
:10659800207374617465206368616E67652E0052AC
:1065A80065636569766564204C4544204F4E21003B
:1065B8005265636569766564204C4544204F4646BC
:1065C80021004E6F726469635F426C696E6B79007B
:1065D800426C696E6B79206578616D706C652073AB
:1065E8007461727465642E0052657175657374699F
:1065F8006E6720746F20757064617465204154540F
:10660800204D545520746F20257520627974657368
:10661800206F6E20636F6E6E656374696F6E2030D5
:106628007825782E0073645F626C655F67617474A7
:10663800635F65786368616E67655F6D74755F72C7
:106648006571756573742829206F6E20636F6E6E8F
:10665800656374696F6E203078257820726574756B
:10666800726E656420627573792C2077696C6C2072
:1066780072657472792E0073645F626C655F67611E
:106688007474635F65786368616E67655F6D747560
:106698005F726571756573742829207265747572E7
:1066A8006E656420756E65787065637465642076C0
:1066B800616C756520307825782E00526571756596
:1066C8007374696E6720746F2075706461746520D7
:1066D80064617461206C656E67746820746F20252E
:1066E80075206F6E20636F6E6E656374696F6E20C0
:1066F800307825782E0073645F626C655F6761701F
:106708005F646174615F6C656E6774685F757064FF
:10671800617465282920287265717565737429204C
:106728006F6E20636F6E6E656374696F6E2030786C
:1067380025782072657475726E656420756E65784B
:106748007065637465642076616C756520307825A2
:10675800782E00415454204D54552075706461744E
:10676800656420746F202575206279746573206FC5
:106778006E20636F6E6E656374696F6E2030782566
:10678800782028726573706F6E7365292E005065C6
:106798006572206F6E20636F6E6E656374696F6ECD
:1067A800203078257820726571756573746564206A
:1067B800616E20415454204D5455206F6620257534
:1067C8002062797465732E005570646174696E6710
:1067D80020415454204D545520746F202575206253
:1067E800797465732028646573697265643A202535
:1067F8007529206F6E20636F6E6E656374696F6EA6
:1068080020307825782E0073645F626C655F67615D
:106818007474735F65786368616E67655F6D7475BE
:106828005F7265706C7928292072657475726E655F
:106838006420756E65787065637465642076616C34
:10684800756520307825782E0044617461206C6568
:106858006E677468207570646174656420746F2055
:106868002575206F6E20636F6E6E656374696F6E39
:106878002030782530782E006D61785F72785F6FF0
:1068880063746574733A202575006D61785F747858
:106898005F6F63746574733A202575006D61785F66
:1068A80072785F74696D653A202575006D61785F4F
:1068B80074785F74696D653A202575005065657256
:1068C800206F6E20636F6E6E656374696F6E203023
:1068D8007825782072657175657374656420612008
:1068E80064617461206C656E677468206F6620252A
:1068F800752062797465732E005570646174696ED1
:10690800672064617461206C656E67746820746FB9
:10691800202575206279746573206F6E20636F6E11
:106928006E656374696F6E20307825782E00736405
:106938005F626C655F6761705F646174615F6C65FD
:106948006E6774685F7570646174652829202872A1
:1069580065706C79292072657475726E656420752E
:106968006E65787065637465642076616C75652002
:10697800307825782E0052657175657374696E6775
:1069880020746F2075706461746520415454204DE3
:10699800545520746F202575206279746573206FB3
:1069A8006E20636F6E6E656374696F6E2030782534
:1069B8007820287265747279292E00626C655F6789
:1069C80061747400636C6F636B006770696F7465E2
:1069D800007561727400466174616C206572726F33
:1069E800720053797374656D207265736574006203
:1069F800616C6C6F63007077725F6D676D74004EC9
:106A080052465F53554343455353004E52465F45E4
:106A180052524F525F5356435F48414E444C455281
:106A28005F4D495353494E47004E52465F455252B7
:106A38004F525F534F46544445564943455F4E4F66
:106A4800545F454E41424C4544004E52465F4552C4
:106A5800524F525F494E5445524E414C004E524699
:106A68005F4552524F525F4E4F5F4D454D004E525B
:106A7800465F4552524F525F4E4F545F464F554EF8
:106A880044004E52465F4552524F525F4E4F545F3C
:106A9800535550504F52544544004E52465F45524C
:106AA800524F525F494E56414C49445F5041524102
:106AB8004D004E52465F4552524F525F494E564125
:106AC8004C49445F5354415445004E52465F455229
:106AD800524F525F494E56414C49445F4C454E47D0
:106AE8005448004E52465F4552524F525F494E56E7
:106AF800414C49445F464C414753004E52465F451E
:106B080052524F525F494E56414C49445F4441549A
:106B180041004E52465F4552524F525F44415441E4
:106B28005F53495A45004E52465F4552524F525F95
:106B380054494D454F5554004E52465F4552524FA9
:106B4800525F4E554C4C004E52465F4552524F5282
:106B58005F464F5242494444454E004E52465F45B7
:106B680052524F525F494E56414C49445F4144444A
:106B780052004E52465F4552524F525F425553594A
:106B8800004E52465F4552524F525F4D4F44554C4E
:106B9800455F4E4F545F494E495449414C5A45440C
:106BA800004E52465F4552524F525F4D555445581C
:106BB8005F494E49545F4641494C4544004E524650
:106BC8005F4552524F525F4D555445585F4C4F43A5
:106BD8004B5F4641494C4544004E52465F45525230
:106BE8004F525F4D555445585F554E4C4F434B5F80
:106BF8004641494C4544004E52465F4552524F5219
:106C08005F4D555445585F434F4E445F494E495474
:106C18005F4641494C4544004E52465F4552524FEB
:106C2800525F4D4F44554C455F414C524541445984
:106C38005F494E495449414C495A4544004E5246D1
:106C48005F4552524F525F53544F524147455F463A
:106C5800554C4C004E52465F4552524F525F415080
:106C6800495F4E4F545F494D504C454D454E544534
:106C780044004E52465F4552524F525F464541547A
:106C88005552455F4E4F545F454E41424C45440076
:106C98004E52465F4552524F525F4452565F5457C8
:106CA800495F4552525F4F56455252554E004E521B
:106CB800465F4552524F525F4452565F5457495FA0
:106CC8004552525F414E41434B004E52465F45523A
:106CD800524F525F4452565F5457495F4552525F74
:106CE800444E41434B00617070006E72665F73647E
:106CF800680073645F626C655F6366675F73657481
:106D080028292072657475726E6564202573207752
:106D180068656E20617474656D7074696E6720743F
:106D28006F2073657420424C455F434F4E4E5F435E
:106D380046475F4741502E0073645F626C655F632E
:106D480066675F73657428292072657475726E654D
:106D580064202573207768656E20617474656D7092
:106D680074696E6720746F2073657420424C455FA8
:106D78004741505F4346475F524F4C455F434F552D
:106D88004E542E0073645F626C655F6366675F7361
:106D9800657428292072657475726E656420257380
:106DA800207768656E20617474656D7074696E67AC
:106DB80020746F2073657420424C455F434F4D4DDE
:106DC8004F4E5F4346475F56535F555549442E0023
:106DD80073645F626C655F6366675F7365742829B7
:106DE8002072657475726E656420257320776865F6
:106DF8006E20617474656D7074696E6720746F209D
:106E080073657420424C455F47415454535F434671
:106E1800475F415454525F5441425F53495A452E8B
:106E28000073645F626C655F6366675F736574288F
:106E3800292072657475726E6564202573207768E1
:106E4800656E20617474656D7074696E6720746F07
:106E58002073657420424C455F47415454535F4347
:106E680046475F534552564943455F4348414E475D
:106E780045442E0052414D20737461727473206131
:106E88007420307825782C2063616E20626520613B
:106E9800646A757374656420746F20307825782E61
:106EA8000052414D2073697A652063616E206265E6
:106EB8002061646A757374656420746F2030782566
:106EC800782E0073645F626C655F656E61626C65E5
:106ED80028292072657475726E65642025732E00EA
:106EE8006E72665F7364685F626C65006E72665F7F
:106EF8007364685F736F63001E1F160E23D1BCEAAC
:106F08005F782315DEEF121200000000D82300205E
:106F180000000000076A020001000000136A020076
:106F280002000000316A020003000000526A0200F9
:106F380004000000656A020005000000766A02008D
:106F4800060000008A6A020007000000A26A020028
:106F580008000000BA6A020009000000D26A0200B4
:106F68000A000000EB6A02000B000000036B02003D
:106F78000C0000001A6B02000D0000002E6B0200CE
:106F88000E000000406B02000F0000004F6B020073
:106F980010000000636B0200110000007A6B020011
:106FA80080000000896B020081000000A96B0200CC
:106FB80082000000C56B020083000000E16B020044
:106FC80084000000FF6B020085000000206C0200B6
:106FD80086000000456C0200900000005C6C020016
:106FE800910000007A6C020000820000986C020098
:106FF80001820000B66C020002820000D26C02001E
:10700800556E6B6E6F776E206572726F7220636F4C
:107018006465000050290020182A0020202A00203A
:107028005829002018000000B0640200C064020063
:1070380008000000A8640200B06402000800000014
:10704800A8640200A864020008000000010000070C
:10705800306402005864020008000000286402003E
:08706800306402000800000082
:107070000D000300D5340200FFFF00000090D00394
:040000032000313D6B
:00000001FF
