:020000022000DC
:10300000000001204D320200A5320200A73202006A
:10301000A9320200AB320200AD3202000000000013
:10302000000000000000000000000000AF320200BD
:10303000B132020000000000B3320200B5320200DB
:10304000155C0200BB3202003D700200BF3202007C
:10305000C1320200C332020091670200C73202008F
:10306000C9320200CB320200CD320200CF32020060
:10307000D1320200D3320200D5320200D732020030
:10308000D9320200C54B0200DD320200DF320200FD
:10309000054C0200E3320200E5A20200E732020022
:1030A000E9320200EB320200ED320200EF320200A0
:1030B000F1320200F3320200B7320200B7320200EE
:1030C000F5320200F7320200F9320200FB32020050
:0C30D000FD320200FF320200013302005A
:1030DC003A493B480A1A02D0072291438D46394996
:1030EC0039480A1A06D00722914381F30988022233
:1030FC0082F3148835483649364A00F041F8364890
:10310C003649374A00F03CF836483749374A00F020
:10311C0037F837483749384A00F032F837483849D9
:10312C00384A00F02DF838483849394A00F028F868
:10313C0038483949394A00F023F8394839490022CE
:10314C0000F036F838483949002200F031F8384898
:10315C003849091A07F0BEFA374A904725482649DC
:10316C00884205D00268043003B4904703BCF7E7EB
:10317C0000208646EC4600200021304A9047FEE7AE
:10318C00884214D0521A12D003460B431343032423
:10319C00234206D1036804300B600431043AF9D1A0
:1031AC007047037801300B700131013AF9D1704747
:1031BC00884202D002700130FAE77047000001200B
:1031CC0000F80020000001200000012020BD0200BA
:1031DC00F8210020082200200433020004330200EE
:1031EC00BCA7020020BD0200F8210020F82100201D
:1031FC00CCA80200CCA80200CCA80200CCA80200EB
:10320C00CCA80200CCA80200CCA80200CCA80200DA
:10321C0020BD020030BD0200082200200822002040
:10322C0008220020482A0020482A0020482A002092
:10323C00482A0020482C00207132020091790200AB
:10324C000F484FF00701884385460E4880470E48CB
:10325C00016841F470010160BFF34F8FBFF36F8FB2
:10326C00FFF736BF09480A490A4A884207D0521A62
:10327C0005D0037801300B700131013AF9D1704758
:10328C00000001201995020088ED00E054A802000E
:10329C0080210020F8210020FEE7FEE7FEE7FEE794
:1032AC00FEE7FEE7FEE7FEE7FEE7FEE7FEE7FEE7EA
:1032BC00FEE7FEE7FEE7FEE7FEE7FEE7FEE7FEE7DA
:1032CC00FEE7FEE7FEE7FEE7FEE7FEE7FEE7FEE7CA
:1032DC00FEE7FEE7FEE7FEE7FEE7FEE7FEE7FEE7BA
:1032EC00FEE7FEE7FEE7FEE7FEE7FEE7FEE7FEE7AA
:0832FC00FEE7FEE7FEE700BF5C
:1033040000B583B001900091019B1B681B68009974
:103314000198984700BF03B05DF804FB00B583B083
:103324000190019B1B685B680198984700BF03B03C
:103334005DF804FB82B00190019B01225A7200BF28
:1033440002B0704782B00190019B5B7A184602B0CC
:10335400704710B487B001900091019B009A53E824
:10336400004F44EA020043E8000191F0000FF6D157
:10337400059404900391049B184607B05DF8044B30
:10338400704710B487B001900091019B009A53E8F4
:10339400004F04EA020043E8000191F0000FF6D167
:1033A400059404900391059B184607B05DF8044BFF
:1033B400704700B583B0019001210198FFF7C9FF60
:1033C4000346184603B05DF804FB00B583B00190D2
:1033D40000210198FFF7D5FF0346184603B05DF8B6
:1033E40004FB000000B587B001901F4BFF229A60D8
:1033F4001D4B00221A601C4B00225A601A4B0022FB
:10340400C3F81824184B0022C3F81424164B0022C6
:1034140083F81C24154801F0ADFE0490049B002B96
:1034240001D0049B1CE0124A124BD31ADB0803930D
:10343400002305930FE0059A13465B0013449B0099
:103444001A460D4B13440293059B9AB2029B1A80B1
:10345400059B01330593059A039B9A42EBD3002302
:10346400184607B05DF804FBD8220020CCA802005F
:103474003CA80200ECA7020080210020024A034B72
:10348400D31ADB08184670473CA80200ECA70200D8
:1034940000B589B04148FFF78CFF4148FFF789FF29
:1034A400404B5B6807933F4B9B680493079A049BCC
:1034B400134002339B003B4A1344043306931BE03E
:1034C400079B01330793069B5B88C3F389139BB265
:1034D4001A46069B1B88C3F389139BB213441A46EE
:1034E400079B13440793079A049B134002339B00E2
:1034F4002C4A134404330693069B1B7803F00303FE
:10350400DBB2002BDCD00023059311E0079B5A1C8F
:103514000792049A1340059A920069460A44214985
:1035240002339B000B445B681360059B01330593D6
:10353400059B012BEAD99DF80030C3F30103DBB2EC
:10354400012B0CD0022B14D1BDF80230C3F3891324
:103554009BB203339B08079A134407930FE0BDF80B
:103564000030C3F38313DBB21A46079B134407935B
:1035740005E00D4940F24D1003F09AFD00BF0848E4
:10358400FFF723FF0390039B002B02D0054A079B00
:10359400536000BF09B05DF804FB00BFF0260020B3
:1035A400EC260020D8220020F0A8020010B586B036
:1035B4000390029101920093039B1B0CADF816300B
:1035C400BDF81640FFF75AFF03469C4204D3234933
:1035D4004FF4B27003F06CFD009B5A1C089B13401F
:1035E400BDF816201E4902339B000B445A60009A12
:1035F400089B134002339B00194A13440433049379
:10360400039B1B0903F00103D9B2049A137861F3F5
:1036140082031370039B03F00703D9B2049A13784F
:1036240061F3C5031370019B03F00F03D9B2049A2D
:10363400138861F389131380029BC3F31501049A61
:10364400136861F39F231360049A1378012161F3D3
:103654000103137000BF06B010BD00BFF0A8020044
:10366400D822002000B58BB001900091019B023359
:1036740008930223079301238DF81B3000238DF850
:103684000F300DF10F03184601F0ECFB214B1A68C3
:10369400009B1A601F4B9A681E4B59681D4B1B6890
:1036A400CB1A134401330993089A079B13440593D7
:1036B4000BE0FFF7EDFE174B9A68164B5968154B54
:1036C4001B68CB1A134401330993059A099B9A4248
:1036D400EFD8104B1A680F4B9B68134002339B00C2
:1036E4000C4A134404330493049A137843F00303F9
:1036F4001370084B1A68089B1344064A13609DF81C
:103704000F30184601F0C4FB9DF81B3018460BB06F
:103714005DF804FBD822002000B58BB0059004911D
:10372400039202931E4B9B68079306AB19460298BB
:10373400FFF798FF0346002B24D0069B023309931E
:103744000023089311E0089B9B00039A1A44099BE9
:10375400591C099107990B401268114902339B00C7
:103764000B445A60089B01330893089A029B9A42BF
:10377400E9D3069A079B00931346029A0499059885
:10378400FFF714FF064B93F81C34002B04D000F011
:1037940079F80346002BFAD100BF0BB05DF804FBA7
:1037A400D822002000B583B00190009100230022AC
:1037B40000990198FFF7B0FF00BF03B05DF804FB68
:1037C40000B587B0039002910192019B059305AA6D
:1037D400012302990398FFF79FFF00BF07B05DF82C
:1037E40004FB00B587B00390029101920093019B02
:1037F4000493009B059304AA022302990398FFF7FC
:103804008BFF00BF07B05DF804FB00B589B00390DF
:10381400029101920093019B0593009B06930A9BDE
:10382400079305AA032302990398FFF775FF00BFC6
:1038340009B05DF804FB00B589B0039002910192D0
:103844000093019B0493009B05930A9B06930B9B97
:10385400079304AA042302990398FFF75DFF00BFAE
:1038640009B05DF804FB0000054B5A68044B1B6863
:103874009A420CBF01230023DBB21846704700BFF5
:10388400D822002000B599B0FFF7EEFF0346002BC5
:1038940001D00023B3E19C4B0022C3F81824BFF3EA
:1038A4004F8F00BF984B5B681793974B9B6810939F
:1038B400179A109B134002339B00934A134404331A
:1038C4001693002315930023149300230F931BE0F6
:1038D400179B01331793169B5B88C3F389139BB221
:1038E4001A46169B1B88C3F389139BB213441A46CA
:1038F400179B13441793179A109B134002339B0092
:10390400814A134404331693169B1B7803F0030374
:10391400DBB2002BDCD00023139311E0179B5A1C5D
:103924001792109A1340139A920002A90A447649F6
:1039340002339B000B445B681360139B01331393A6
:10394400139B012BEAD99DF8083003F00303DBB283
:10395400022B40F09C80BDF80A30C3F389139BB25C
:103964000D93BDF80A30C3F389139BB2502B28BFC3
:1039740050239BB20C930C9BC3F309039AB2BDF87A
:103984000A3062F38F13ADF80A300C9B08330B93A3
:103994009DF80830C3F3C203DBB20F930B995B4865
:1039A40001F0F3FB1590159B002B00F0E0801598B7
:1039B40001F07CFC02A9149B0822159801F022FD59
:1039C400149B08331493179BDA43109B1340013361
:1039D4009B000A930C9A0A9B9A4242D90A9B002B99
:1039E40008D0179A109B134002339B00464A134495
:1039F400043300E0464B08930A9B002B02D00A9B39
:103A0400DBB201E00C9BDBB28DF81F300A9B002B6C
:103A140001D03F4B00E0002306930A9B002B06D005
:103A24000C9BDAB20A9BDBB2D31ADBB200E00023B0
:103A34008DF817309DF81F20149B0899159801F0F4
:103A4400E1FC9DF81F30149A13441493069B002B39
:103A540016D09DF81720149B0699159801F0D2FCF6
:103A64000EE0179A109B134002339B00264A13441E
:103A740004330993149B0C9A0999159801F0C2FC1C
:103A84000D9B03339B08179A134417936FE09DF81B
:103A9400083003F00303DBB2012B5AD1BDF8083020
:103AA400C3F38313DBB2062B28BF0623DAB2BDF8B7
:103AB400083062F38913ADF80830BDF80830C3F359
:103AC4008313DBB202330E939DF80830C3F3C203B1
:103AD400DBB20F930E9B9B0019460C4801F055FB7B
:103AE4001590159B002B42D0159801F0DFFB02A91D
:103AF400149B0822159801F085FC149B0833149339
:103B0400002313931BE000BFD8220020CCA802009E
:103B1400E4220020179B5A1C1792109A1340023378
:103B24009B00394A1344191D149B0422159801F073
:103B340069FC149B04331493139B01331393BDF852
:103B44000830C3F38313DBB21A46139B9342E1D3C9
:103B54000DE09DF8083003F00303DBB2032B06D11C
:103B6400294BD3F81834002B01D1002347E0159BCF
:103B7400002B3ED0244BD3F810341293224BD3F8AD
:103B84001834002B1AD0159801F09FFB31E0002364
:103B94008DF847301298FFF7D5FB0346002B02D06F
:103BA40001238DF847309DF84730002B03D0159939
:103BB4001298FFF7A5FB129B5B681293129B002BD4
:103BC400E5D1159801F081FB00238DF807300DF144
:103BD4000703184601F046F90B4BD3F81834002BB1
:103BE40002D1094A179B53609DF80730184601F02B
:103BF4004FF9FFF739FE034683F00103DBB21846A1
:103C040019B05DF804FB00BFD822002000B583B0D2
:103C14000C4BD3F8103401930A4B012283F81C2473
:103C240008E00198FFF786FB0198FFF777FB019BFB
:103C34005B680193019B002BF3D100BF00BF03B06D
:103C44005DF804FBD822002000B589B00190002360
:103C54008DF81F3051E02E4B1A689DF81F30DB00A1
:103C640013440693069B1B781A460123934005933D
:103C7400284B1A68059B1340002B39D0059BDA4367
:103C8400244B1B681340234A1360069B1B78184679
:103C940002F062FD03468DF81330069B1B781A462A
:103CA400012393401A461C4B1B6813409DF81320B4
:103CB400069909788A4093421AD19DF81330069ADE
:103CC4005278012A0CBF01220022D2B293420CBFC7
:103CD40001230023DBB20393069B5B68002B07D010
:103CE400069B5B68069A12780399C9B210469847F6
:103CF4009DF81F3001338DF81F30084B1B789DF859
:103D04001F209A42A7D300BF00BF09B05DF804FB8F
:103D1400F82600202827002024270020FC26002045
:103D240000B585B001900B468DF803300122019B4C
:103D340002FA03F303931E4B184600F0FDFF0290B2
:103D4400029B002B30D11B4B1A68039B1340002BA2
:103D540022D1019802F000FD0346002B06D0164B39
:103D64001A68039B1343144A136006E0039BDA4367
:103D7400114B1B681340104A13600E4B1A68039BC7
:103D840013430C4A13600A480C4B1B680022194663
:103D940000F0A0FF029008E0039BDA43054B1B6888
:103DA4001340044A136000E000BF05B05DF804FB53
:103DB4000427002028270020242700200027002093
:103DC40000B589B003900B4601928DF80B30019B2E
:103DD400042B01D8072351E002F088FB034683F04B
:103DE4000103DBB2002B07D002F038FB0790079BDE
:103DF400002B01D0079B41E0224A039B1360224A17
:103E04009DF80B301370214A019B1360204B002254
:103E14001A60204B00221A6023E09DF80B30DB006F
:103E2400039A1344069303238DF8143000238DF86A
:103E3400153000238DF8163000238DF81730069BBB
:103E44009B788DF81530069B1B78184605AB124AF3
:103E5400194602F057FB0790079B002B01D0079BE4
:103E64000CE09DF80B305A1E8DF80B20002BD4D19A
:103E74000A4A00210A4800F0FDFE0346184609B02C
:103E84005DF804FBF8260020FC2600200027002013
:103E94002427002028270020253D02004D3C020055
:103EA40058A9020000B583B0114B1B68002B03D145
:103EB4001049B62003F0FCF8002301930CE00C4BEE
:103EC4001A68019BDB0013441B780121184602F099
:103ED4007DFB019B01330193074B1B781A46019B21
:103EE4009342ECD30023184603B05DF804FB00BFF3
:103EF400F82600205CA90200FC26002000B583B04F
:103F0400124B1B68002B03D11149C42003F0D0F8D5
:103F1400002301930BE00D4B1A68019BDB00134453
:103F24001B78184602F0DAFB019B01330193094B1D
:103F34001B781A46019B9342EDD3074B184600F0B9
:103F4400FBFE0346184603B05DF804FBF826002088
:103F54005CA90200FC2600200427002000B589B0DB
:103F6400039002910192029B9BB2ADF81430019B25
:103F74000693039B079305AB1A46002144F2010004
:103F840000F052F800BF09B05DF804FB86B003905E
:103F94000291019201238DF817309DF81730214AC0
:103FA400039B13601F4A029B53601E4A019B93604C
:103FB400039B44F20102934213D0039B44F2020296
:103FC400934222D1019B174AD360164BDB681B88AE
:103FD4001A46144B9A61134BDB685B68114AD36130
:103FE40013E0019B0F4A13610E4B1B699B680D4A3A
:103FF40053610C4B1B691B881A460A4B9A61094B87
:104004001B695B68074AD36100BF72B600BF00BF7B
:104014009DF81730DBB2002BFAD162B600BF00BFA7
:1040240006B070472C27002030B589B00590049164
:104034000392FFF7EBFDFFF725FC0346002BFAD1B3
:10404400059B44F2020293422BD0059B44F20202E8
:10405400934254D8059B44F20102934231D0059B0C
:1040640044F2010293424AD8059B012B05D0059BDB
:1040740041F2010293420AD041E02E4B1B881B04FB
:1040840043F001032C491846FFF78CFB42E0294B0F
:104094001B881B0443F0010328491846FFF782FBE1
:1040A40038E0039B0793234B1B881B0443F0010058
:1040B400079B5B681A46079B1B882149FFF791FB06
:1040C40028E0039B06931B4B1B881B0443F001044D
:1040D400069B9D68069B9B68184601F001FA0346FF
:1040E4001946069B5B681A46069B1B88019300923F
:1040F4000B462A4613492046FFF79DFB0AE00D4B69
:104104001B881B0443F00103049A0F491846FFF768
:1041140057FB00BF0D4B1B6803F00103002B00D0BD
:10412400FFDE039A04990598FFF730FF00BF09B03A
:1041340030BD00BF80210020B0A90200D0A9020038
:10414400F4A9020010AA020028AA0200F0ED00E07F
:1041540082B003468DF807309DF8073003F01F0244
:1041640005499DF907305B09012000FA02F241F884
:10417400232000BF02B0704700E100E082B0034694
:104184008DF807309DF8073003F01F0206499DF9AA
:1041940007305B09012000FA02F2203341F82320A2
:1041A40000BF02B0704700BF00E100E082B00346E8
:1041B4008DF807309DF8073003F01F0206499DF97A
:1041C40007305B09012000FA02F2403341F8232052
:1041D40000BF02B0704700BF00E100E082B00346B8
:1041E4008DF807309DF8073003F01F0206499DF94A
:1041F40007305B09012000FA02F2603341F8232002
:1042040000BF02B0704700BF00E100E082B0034687
:1042140000918DF807309DF90730002B0CDA009BD4
:10422400DAB20C499DF8073003F00F03043B520146
:10423400D2B20B441A7609E0009BDAB206499DF922
:1042440007305201D2B20B4483F8002300BF02B0FE
:10425400704700BF00ED00E000E100E084B0019091
:10426400244B0393019B002B40D0234B1A680399E2
:10427400019B00BF00BF00BF00BF00BF00BF00BF65
:1042840000BF8A422FD000BF00BF00BF00BF00BFE5
:1042940000BF00BF00BF00BF00BF00BF00BF00BF22
:1042A40000BF00BF00BF00BF00BF00BF00BF00BF12
:1042B40000BF00BF00BF00BF00BF00BF00BF00BF02
:1042C40000BF00BF00BF00BF00BF00BF00BF00BFF2
:1042D40000BF00BF00BF00BF00BF00BF00BF00BFE2
:1042E40000BF00BF00BF013BC3D1019300BF04B0B6
:1042F400704700BF0024F4000422002000B583B0FE
:104304000190064A019BC2F8083507211120FFF7E6
:104314007DFF00BF03B05DF804FB00BF0010014047
:1043240008B50D4B4FF48032C3F844230A4B4FF4C5
:104334008032C3F804231120FFF750FF1120FFF748
:1043440007FF054B01221A602F20FFF787FF034B5D
:1043540001221A7000BF08BD001001406A28002025
:1043640008B51120FFF70AFF0E4B4FF48032C3F853
:1043740048230C4B4FF48032C3F80823094B012225
:104384005A602F20FFF76AFF064B01229A60064B02
:1043940000221A602F20FFF761FF044B00221A70DD
:1043A40000BF08BD001001405C2800206A280020DE
:1043B400024BD3F804351846704700BF0010014083
:1043C40082B001900091019A009BD31A23F07F439D
:1043D400184602B07047000082B00190034A019B66
:1043E400C2F8403500BF02B0704700BF0010014062
:1043F40086B00190284B1B68002B03D1264A019BF1
:10440400136045E0019B1A68234B1B681B689A42A2
:1044140010D8214B1B681968019B1A681E4B1B6836
:104424008A1A1A601C4B1A68019BDA611A4A019BAA
:1044340013602DE0019B1B680393174B1B680593C6
:10444400154B1B68049309E0049B1B68039AD31A59
:104454000393049B0593049BDB690493049B002B47
:1044640004D0049B1B68039A9A42EDD8049B002B4A
:1044740005D0049B1A68039BD21A049B1A60019B03
:10448400039A1A60019B049ADA61059B019ADA6126
:1044940000BF06B0704700BF5828002000B587B0A1
:1044A40001902A4B1B680393284B1B680593059BBB
:1044B400049308E0049A019B9A4208D0049B059354
:1044C400049BDB690493049B002BF3D100E000BF41
:1044D400049B002B01D1002333E0059A049B9A42EC
:1044E40014D11A4B1B68DB69184A1360174B1B68FD
:1044F400002B0BD1164B01229A60164B00221A6036
:10450400154B01221A702F20FFF7A8FE049B1B688D
:104514000293049BDA69059BDA61059BDB690493CA
:10452400049B002B05D0049B1A68029B1A44049B2D
:104534001A60064B1B68039A9A4214BF0123002396
:10454400DBB2184607B05DF804FB00BF5828002012
:10455400001001405C2800206B28002008B51120C1
:10456400FFF724FE00BF08BD08B51420FFF71EFEA8
:1045740000BF08BD00B583B00190019B5B69019A3F
:1045840092691046984700BF03B05DF804FB000031
:1045940000B585B02B4B1B68002B4ED00023019334
:1045A400FFF706FF0246284B1B6819461046FFF723
:1045B40007FF0290234B1B6803931DE0039B1B68BA
:1045C400029A9A421CD3039B1B68029AD31A029341
:1045D400039B1B68019A13440193039B0093039B61
:1045E400DB690393009B1B7C002B05D0009B0022FE
:1045F4001A740098FFF7BEFF039B002BDED100E086
:1046040000BF124B1A78124B1B789A420CD1104BF4
:104614001B780133DAB20E4B1A700D4B1B78022B48
:1046240002D10B4B00221A70094B1B781946094A18
:10463400019B42F82130FFF797FF00BF05B05DF8FA
:1046440004FB00BF582800205C28002068280020B4
:10465400692800206028002082B00190184B1A7845
:10466400184B1B789A4223D0154B1B780133DAB2CE
:10467400134B1A70124B1B78022B02D1104B0022E1
:104684001A700F4B1B781A460F4B53F82220019BCC
:104694001A60019B1A680D4B1B6813440B4A136084
:1046A4000A4B1B6823F07F43084A1360012303E08D
:1046B400019B00221A600023184602B0704700BF15
:1046C4006828002069280020602800205C28002039
:1046D40088B00390029101920023079338E0204BA5
:1046E4001B680693069B1B68039A9A4206D2069B94
:1046F4001A68039BD21A069B1A602EE0069B1B685D
:10470400039AD31A0393069B1B68079A13440793CF
:10471400069B00221A60124B1B680593069BDB69FB
:104724000F4A1360069BDB68002B11D0029A079B8B
:10473400134423F07F42069B5A60069BDA68069B6B
:104744009A60019B1A68069BDA61019B059A1A60BC
:10475400034B1B68002BC2D100BF00BF08B07047D9
:104764005828002000B589B0019000238DF81F302F
:10477400664B1B680593AAE0019B002B05D0019BA7
:104784000693069BDB69019361E0614B1B781A4633
:1047940013465B001344DB005D4A13440433049363
:1047A4005B4B1B780133DAB2594B1A70584B1A78A9
:1047B400574B9B789A4202D1554B00221A70049BA6
:1047C4005B680693049B1B78032B1ED0032B7EDCB3
:1047D400012B1FD0022B7AD1049B5B681846FFF78C
:1047E4005DFE0346002B02D001238DF81F30069B8B
:1047F40000221A746BE0454B1B680393039B002251
:104804001A74039BDB69414A1360404B1B68002BFD
:10481400F1D15CE000BF069B1B7C002B00D056E06E
:10482400049B9A68069B5A60049BDA68069B9A600C
:10483400049B1A69069BDA60049B5A69069B9A6179
:10484400344B1B78002B02D0069B00225A60069B37
:104854005A68314B1B68D31A23F07F432F4A934283
:104864000ED8069B5B682C4A126811461846FFF75F
:10487400A7FD0246069B9B681A44069B1A6017E034
:10488400254B1A68069B5B6819461046FFF798FD8E
:104894000290069B9B68029A9A4206D2069B9A68EB
:1048A400029BD21A069B1A6002E0069B00221A6041
:1048B400069B00225A60069B00229A60069B0122F6
:1048C4001A74069B0022DA610698FFF791FD019B9A
:1048D400002B7FF451AF0E4B1A780D4B5B789A4244
:1048E4007FF44AAF9DF81F30002B04D1074B1B689F
:1048F400059A9A4201D0012300E0002303F001034A
:10490400DBB2184609B05DF804FB00BF582800204C
:104914004C2700206B2800205C280020FEFF7F002D
:1049240010B588B00190274B1B68002B44D0254B51
:104934001B681B680793FFF73BFD0690224B1B681F
:10494400059305990698FFF73BFD0346033304934B
:104954001E4B1B7883F00103DBB2002B01D0FFF761
:10496400DFFC049A079B934238BF1346059A13440D
:104974000593059B23F07F4305930598FFF72CFDD2
:10498400FFF716FD039006990398FFF719FD0346F8
:10499400DC1C06990598FFF713FD03469C420DD9CC
:1049A400FFF706FD03461846FFF716FD2F20FFF715
:1049B40055FCFFF7D3FD01E0FFF7D2FC00BF08B0C0
:1049C40010BD00BF582800205C2800206A28002061
:1049D40000B587B00023019300238DF81730194BDD
:1049E4001B680493184B1B6803936B461846FFF728
:1049F40033FE03468DF80B309DF80B30002B08D0A6
:104A0400009B01AA04991846FFF762FE01238DF862
:104A14001730019B1846FFF7A5FE0346002B02D072
:104A240001238DF817309DF81730002B02D003981E
:104A3400FFF776FF054B00221A7000BF07B05DF840
:104A440004FB00BF5C280020582800206B280020AD
:104A540082B003468DF80730034A9DF8073053703F
:104A640000BF02B0704700BF4C27002084B0019003
:104A7400144B5B7801338DF80F30124B9B789DF803
:104A84000F209A4202D100238DF80F300D4B1B7872
:104A94009DF80F209A4201D100230FE0019B9DF85D
:104AA4000F201A70074B5B781A4613465B001344B9
:104AB400DB00044A134404330293029B184604B0F7
:104AC400704700BF4C27002000B589B003900291C5
:104AD400019200930023079300238DF816300DF103
:104AE4001603184600F0BEF90DF117031846FFF738
:104AF400BDFF0690069B002B02D10423079318E008
:104B0400069B01221A70069B039A5A60FFF750FC19
:104B14000246069B9A60069B029ADA60069B019AFB
:104B24001A61069B009A5A619DF817301846FFF7E0
:104B34008FFF9DF81630184600F0AAF9079B002B4A
:104B440001D1FFF711FD079B184609B05DF804FB7E
:104B540000B587B001900B468DF803300023059310
:104B640000238DF80E300DF10E03184600F07AF98B
:104B74000DF10F031846FFF779FF0490049B002BF7
:104B840002D1042305930BE0049B9DF803201A70C3
:104B9400049B019A5A609DF80F301846FFF758FF9E
:104BA4009DF80E30184600F073F9059B002B01D1D7
:104BB400FFF7DAFC059B184607B05DF804FB00001C
:104BC40008B50E4B0022C3F840210C4B0022C3F859
:104BD40044210A4B0022C3F84821084B0022C3F8A1
:104BE4004C21064B0022C3F80021044B0022C3F8D9
:104BF4000421FFF7CDFC00BF08BD00BF0010014039
:104C040008B5FFF7E5FE00BF08BD000008B5FFF7D3
:104C1400A7FB134B00221A70114B00225A70104B41
:104C24000B229A700F4B00221A600F4B00221A704D
:104C34000E4B00221A701420FFF7D0FA072114201B
:104C4400FFF7E4FA1420FFF783FA0020FFF756FB7E
:104C5400FFF7AEFB0346064A13600023184608BD5F
:104C64004C270020582800206828002069280020AC
:104C74005C28002086B003900B4601928DF80B301F
:104C8400134B9B78002B01D108231EE0019B002BC2
:104C940001D1072319E0039B002B01D1072314E062
:104CA400039B1B681B7C002B01D008230DE0039B96
:104CB4001B680593059B00221A74059B9DF80B2025
:104CC4005A74059B019A5A610023184606B070472E
:104CD4004C27002000B587B0039002910192039BFA
:104CE4000593144B9B78002B01D108231EE0039BF2
:104CF400002B01D1082319E0029B042B01D80723C0
:104D040014E0059B5B69002B01D108230EE0059B91
:104D14005B7C012B01D1029B00E000230493019BE7
:104D2400049A02990598FFF7CFFE0346184607B088
:104D34005DF804FB4C27002000B585B00190019B71
:104D440003930D4B9B78002B01D1082310E0019BAA
:104D5400002B03D0039B5B69002B01D1082307E0E0
:104D6400039B00221A7402210398FFF7F1FE034605
:104D7400184605B05DF804FB4C27002082B0EFF321
:104D840010830093009B019372B600BF019B1846E9
:104D940002B0704762B600BF00BF704700B585B06F
:104DA4000190FFF7EBFF0390164B9B68002B1BD180
:104DB400144B01229A60144BD3F88020134B1340F8
:104DC400104A1360104B114AC3F880200E4BD3F8DD
:104DD40084300C4A53600C4B4FF0FF32C3F88420EC
:104DE400019B00221A7002E0019B01221A70039BAE
:104DF400002B01D1FFF7CEFF0023184605B05DF864
:104E040004FB00BF6C28002000E100E0FC06FFBDAD
:104E140000B585B003468DF80730104B9B68002B16
:104E240016D09DF80730002B12D1FFF7A7FF03908F
:104E34000B4A0A4B1B681360094A084B5B685360B2
:104E4400064B00229A60039B002B01D1FFF7A2FFBF
:104E54000023184605B05DF804FB00BF6C28002051
:104E640000E100E000B583B0019000F02BF80346A8
:104E7400012B03D00549432002F01AF90198FFF7EA
:104E84008DFF00BF03B05DF804FB00BF40AA020021
:104E940000B583B003468DF8073000F013F80346DD
:104EA400012B03D00649512002F002F99DF8073086
:104EB4001846FFF7ADFF00BF03B05DF804FB00BF69
:104EC40040AA020084B0EFF305830193019BC3F36E
:104ED40008030393039B002B0DD1EFF3148300937A
:104EE400009B0293029B03F00103002B0CBF0123E0
:104EF4000023DBB200E00123184604B07047000031
:104F040000B583B001900B468DF80330019B002B54
:104F140003D10849AF2002F0CBF8019BDA689DF871
:104F240003300199098A01FB03F31344184603B0C3
:104F34005DF804FBA4AA020000B583B001900091BF
:104F4400019B002B03D10849BC2002F0B1F8009B5F
:104F5400019AD2689B1A019A128AB3FBF2F3DBB26C
:104F6400184603B05DF804FBA4AA020000B585B09E
:104F74000190019B002B01D10E2348E0019B1B688B
:104F8400002B03D12449C62002F092F8019B5B68F0
:104F9400002B03D12049C72002F08AF8019B9B68AB
:104FA400002B03D11C49C82002F082F8019BDB6866
:104FB400002B03D11849C92002F07AF8019B1B8AFF
:104FC400002B03D11449CA2002F072F8019B9A689D
:104FD400019B5B68D31A8DF80F30019B1B68019A03
:104FE40052681A6007E0019B1A681368591C116023
:104FF4009DF80F201A709DF80F305A1E8DF80F205F
:10500400002BF0D1019B1B6800221A710023184663
:1050140005B05DF804FB00BFA4AA020000B585B08A
:105024000190019B002B03D11F49EC2002F040F8B2
:105034000023039300238DF80A300DF10A03184668
:10504400FFF710FF019B1B681A68019B5B689A427B
:105054001FD9019B1B681A68013A1A601B681B78E8
:1050640019460198FFF74CFF0390019B9A68019B36
:105074001B681B68D31A8DF80B30019B1B681B79C6
:105084009DF80B209A4204D9019B1B689DF80B20C4
:105094001A719DF80A301846FFF7FAFE039B18466A
:1050A40005B05DF804FB00BFA4AA020010B584B0EB
:1050B40001900091019B002B04D115494FF4887095
:1050C40001F0F6FF009B002B04D1114940F21110AE
:1050D40001F0EEFF009B039300238DF80B300DF1DC
:1050E4000B031846FFF7BEFE019B1B681C68621C7D
:1050F4001A6003990198FFF71FFF034623709DF878
:105104000B301846FFF7C4FE00BF04B010BD00BF4B
:10511400A4AA020010B487B001900091019B009AE8
:1051240053E8004F04EB020043E8000191F0000F44
:10513400F6D1059404900391049B184607B05DF8DA
:10514400044B704710B487B001900091019B009A02
:1051540053E8004FA4EB020043E8000191F0000F74
:10516400F6D1059404900391049B184607B05DF8AA
:10517400044B704700B583B001900198FFF7F6FE29
:105184000346184603B05DF804FB00B58BB00190EC
:105194000091019B1B8A043B0793009A079B1344CD
:1051A400DA1C079BB2FBF3F38DF81B300198FFF771
:1051B40035FF0590059B002B01D1002338E0059BAA
:1051C40000221A71059B01225A71079B9AB2059B12
:1051D400DA80059B09939DF81B30013B0493099BDE
:1051E400019A1A60002308931DE00198FFF716FF47
:1051F4000390039B002B0ED0059B5B790133DAB23D
:10520400059B5A71099B039A1A60039B019A1A60C1
:10521400039B099304E0059800F00EF8002307E0CF
:10522400089B01330893089A049B9A42DDD3059B9B
:1052340018460BB05DF804FB00B58BB00190019BE0
:105244000793079B5B798DF81B30019B08939DF8AE
:105254001B30013B05930023099305E0089B1B6861
:105264000893099B01330993099A059B9A42F5D344
:10527400089B1B680493019B0893002309930BE08C
:10528400089B1B68039308990498FFF70FFF039B7F
:105294000893099B013309939DF81B30099A9A429C
:1052A400EED300BF00BF0BB05DF804FB00B585B0C2
:1052B4000190019B0393039B043301211846FFF7DC
:1052C40029FF00BF05B05DF804FB00B587B001906D
:1052D400019B0593059B043301211846FFF732FF18
:1052E4000346039303AB0493049B1B78002B02D166
:1052F4000198FFF7A1FF00BF07B05DF804FB0000B1
:1053040000B58DB00390029101920093039B069324
:10531400069BDB880593039B0B93009B1A1D059B3F
:10532400B2FBF3F30A93009B0433059AB3FBF2F246
:10533400059901FB02F29B1A0993009A019B1A44F6
:10534400059B1344DA1C059BB2FBF3F38DF8133071
:10535400069B5B799DF813209A420AD92849BA2002
:1053640001F0A6FE05E00B9B1B680B930A9B013B17
:105374000A930A9B002BF6D100230893059A099BF4
:10538400D31A0793079A019B934228BF13460793A6
:105394002DE09DF83830002B0BD0029A089BD018D2
:1053A4000B9A099B13440433079A194605F0A2F992
:1053B4000AE00B9A099B1344181D029A089B134494
:1053C400079A194605F096F9002309930B9B1B686D
:1053D4000B93019A079BD31A0193089A079B1344D2
:1053E4000893059A019B934228BF13460793019B98
:1053F400002BCED100BF00BF0DB05DF804FB00BF91
:10540400F8AA020000B587B00590049103920293B4
:1054140000230093029B039A04990598FFF770FFF9
:1054240000BF07B05DF804FB00B583B001900091A4
:10543400019B002B03D11049502001F039FE009B41
:10544400002B03D10C49512001F032FE019B009A3C
:105454001A60019B1B681A68019B5A60019B5A6879
:10546400019B1B685B689A4202D1019B00225A602F
:1054740000BF03B05DF804FB4CAC020000B583B080
:105484000190019B002B03D11449632001F010FE0D
:10549400019B1B68002B03D11049642001F008FE16
:1054A400019B5B68002B14D0019B5B681A46019B2F
:1054B4001B689B6813441A46019B5A60019B5A68F7
:1054C400019B1B685B689A4204D1019B00225A60CD
:1054D40000E000BF03B05DF804FB00BF4CAC020069
:1054E40000B585B00190019800F00EF80390039B7D
:1054F400002B01D0039B00E0024B184605B05DF879
:1055040004FB00BFBCAC020086B00190164B0593AF
:10551400164B04931FE0049A059BD31ADB10DA0F91
:1055240013445B10DB00059A13440393039B1B682D
:105534000293029A019B9A4202D9039B04930AE0C4
:10554400029A019B9A4203D2039B0833059302E01B
:10555400039B5B6804E0059A049B9A42DBD3002317
:10556400184606B0704700BFD8AF0200C8B00200AA
:1055740082B001900B46ADF80230019B1A68BDF869
:105584000230012101FA03F31A43019B1A6000BFA0
:1055940002B0704782B001900B46ADF80230019B17
:1055A4001A68BDF80230012101FA03F3DB431A4003
:1055B400019B1A6000BF02B0704782B001900B4695
:1055C400ADF80230BDF80230012202FA03F31A46A4
:1055D400019B1340002B14BF01230023DBB21846A8
:1055E40002B0704700B585B001900023ADF80E30CD
:1055F40010E0BDF80E3019460198FFF7DEFF0346B0
:10560400002B02D0BDF80E300AE0BDF80E30013395
:10561400ADF80E30BDF80E301F2BEAD94FF6FF73EC
:10562400184605B05DF804FB00B587B005900491F9
:1056340011461A460B46ADF80E3013468DF80D3060
:10564400BDF80E209DF80D300093134601220499F5
:10565400059800F004F800BF07B05DF804FB00B53E
:1056640087B0039002910192ADF80230039B002BA6
:105674003BD0029B002B38D0019B002B35D000235C
:1056840005932FE0059B5B00039A13441B88BDF828
:1056940002209A4223D1002304931BE09DF820307A
:1056A400002B0AD0049B9B00029A1344059A92B2E1
:1056B40011461846FFF75CFF09E0049B9B00029A21
:1056C4001344059A92B211461846FFF763FF049BF0
:1056D40001330493049A019B9A42DFD305E0059BAE
:1056E40001330593059B1F2BCCD907B05DF804FB50
:1056F40000B597B003900291019200230493029B9A
:10570400002B1ED00023159318E0159B9BB219465D
:105714000198FFF752FF0346002B0CD0159B5B004A
:10572400029A1A44049B591C049112885B00583352
:105734006B4423F8442C159B01331593159B1F2BA5
:10574400E3D9039B184604AB4422194604F0D2FF64
:10575400039817B05DF804FB00B583B00190019B7A
:105764001B681F2B04D905494FF4E87001F0A0FC15
:105774004FF0A043184603B05DF804FBC8B0020024
:1057840000B585B00190084611461A4603468DF8C7
:1057940003300B468DF8023013468DF8013001AB0F
:1057A4001846FFF7D9FF03909DF803209DF80230B7
:1057B4005B001A439DF801309B001A439DF8183092
:1057C4001B0242EA03019DF81C301B04019A194391
:1057D400039B02F5E07243F8221000BF05B05DF8A8
:1057E40004FB00B585B003900023019300230093CC
:1057F4000023012201210398FFF7C2FF00BF05B077
:105804005DF804FB00B585B0019001AB1846FFF7C5
:10581400A3FF0390019B012202FA03F319460398A4
:1058240000F02AF800BF05B05DF804FB00B585B0B0
:10583400019001AB1846FFF78FFF0390019B0122F3
:1058440002FA03F31946039800F020F800BF05B0EC
:105854005DF804FB00B583B001900091009B002B20
:1058640003D10198FFF7E2FF02E00198FFF7CAFFB6
:1058740000BF03B05DF804FB82B001900091019B6E
:10588400009AC3F8082500BF02B0704782B00190A7
:105894000091019B009AC3F80C2500BF02B0704729
:1058A40000B583B00190019B032B03D907493E2027
:1058B40001F0FEFB064A019B13441B7800211846A5
:1058C400FFF7C8FF00BF03B05DF804FB00B102009E
:1058D40048B1020000B583B00190019B032B03D9AA
:1058E4000749442001F0E4FB064A019B13441B785A
:1058F40001211846FFF7AEFF00BF03B05DF804FBBB
:1059040000B1020048B1020000B583B00023019346
:1059140005E00198FFF7DEFF019B01330193019B32
:10592400032BF6D900BF00BF03B05DF804FB0000F1
:1059340000B583B00023019309E0094A019B134495
:105944001B781846FFF74DFF019B01330193019B20
:10595400032BF2D9FFF7D8FF00BF03B05DF804FBB7
:1059640048B1020082B003468DF807309DF8073035
:1059740003F01F0206499DF907305B09012000FA74
:1059840002F2203341F8232000BF02B0704700BF69
:1059940000E100E082B001904FF08042019BC2F828
:1059A400083300BF02B0704782B003468DF8073059
:1059B4009DF8073003F1804301221A6000BF02B052
:1059C400704784B00346ADF80630BDF8063003F1E5
:1059D400804300221A60BDF8063003F180431B683F
:1059E4000393039B00BF04B0704782B00346ADF835
:1059F4000630BDF8063003F180431B68002B14BF4A
:105A040001230023DBB2184602B0704782B003467C
:105A14008DF807309DF807304FF0804203F0030300
:105A2400C2F8183500BF02B070474FF08043D3F876
:105A340018341B0C03F00103002B14BF01230023B3
:105A4400DBB218467047000082B003468DF8073079
:105A54000A4A9DF907305B0952F823209DF8073064
:105A640003F01F0322FA03F303F00103002B14BF16
:105A740001230023DBB2184602B0704700E100E0C6
:105A840008B50020FFF7E0FF034683F00103DBB213
:105A9400002B03D00721002000F09AF900BF08BDB5
:105AA40008B504F0EFFB034683F00103DBB2002BDF
:105AB40003D10949842001F0FBFA0C20FFF774FF9D
:105AC40000BFFFF7B2FF0346002BFAD1034B0022BD
:105AD4009A7000BF08BD00BF54B1020078280020AE
:105AE40000B583B000230193134B1B78002B02D025
:105AF400852301931BE0104B00229A600E4B002279
:105B04005A600D4B00221A610B4B0022DA60FFF73A
:105B1400B7FF04F0B7FB034683F00103DBB2002BAD
:105B240002D00120FFF772FF034B01221A70019B80
:105B3400184603B05DF804FB7828002084B0019077
:105B4400019B1B680393039B002B03D0039B1A68E0
:105B5400019B1A60039B184604B0704700B583B0DC
:105B6400164B1B78002B04D115494FF48E7001F0AD
:105B74009FFA124BDB68002B04D1114940F21D102F
:105B840001F096FA00238DF807300DF1070318464B
:105B9400FFF768F9094BDB68013B084AD360074B00
:105BA400DB68002B01D1FFF77BFF9DF80730184617
:105BB400FFF76EF900BF03B05DF804FB78280020FE
:105BC40054B1020000B585B003468DF807309DF846
:105BD4000730002B02D10C4B039301E00B4B0393D2
:105BE4000398FFF7ABFF0290029B002B06D0029BA9
:105BF4005B689DF8072010469847F1E700BF00BF97
:105C040005B05DF804FB00BF802800208828002030
:105C140008B54FF48070FFF7E8FE0346002B0CD064
:105C24004FF48070FFF7CDFE0120FFF7B3FE0E4B5B
:105C340001225A700020FFF7C5FF4FF48270FFF76E
:105C4400D4FE0346002B0CD04FF48270FFF7B9FE4C
:105C54000220FFF79FFE044B01229A700120FFF7F8
:105C6400B1FF00BF08BD00BF7828002000B583B095
:105C740001900091019B002B02D10020FFF7A2FFAD
:105C840000BF03B05DF804FB00B585B00346009186
:105C94008DF807309DF80730032B29D0032B37DC10
:105CA400002B02D0012B04D032E00020FFF75AFE73
:105CB4002FE000238DF80F300DF10F031846FFF786
:105CC400D1F8164B1B7883F00103DBB2002B01D013
:105CD400FFF706FF114BDB680133104AD3600F4B0B
:105CE40001229A709DF80F301846FFF7D1F810E0A2
:105CF4000A4B1B78002B04D1094940F25B2001F0C8
:105D0400D7F90721002000F063F8FFF727FF00E030
:105D140000BF00BF05B05DF804FB00BF7828002079
:105D240054B1020082B003468DF807309DF8073065
:105D340003F01F0205499DF907305B09012000FAB1
:105D440002F241F8232000BF02B0704700E100E0F6
:105D540082B003468DF807309DF8073003F01F0228
:105D640006499DF907305B09012000FA02F260330D
:105D740041F8232000BF02B0704700BF00E100E0FB
:105D840082B0034600918DF807309DF90730002B4F
:105D94000CDA009BDAB20C499DF8073003F00F03CC
:105DA400043B5201D2B20B441A7609E0009BDAB2EA
:105DB40006499DF907305201D2B20B4483F80023FF
:105DC40000BF02B0704700BF00ED00E000E100E05A
:105DD40000B583B003460A468DF8073013468DF8A4
:105DE40006309DF80630012B03D99DF80630032BAD
:105DF4000CD99DF80630042B03D99DF80630072BE7
:105E040004D90D494FF4927001F052F99DF806201F
:105E14009DF9073011461846FFF7B2FF9DF9073088
:105E24001846FFF795FF9DF907301846FFF77AFFEC
:105E340000BF03B05DF804FBACB1020000B583B051
:105E44000346ADF80630BDF80630184600F026F8D3
:105E540003461B68012B0CBF01230023DBB2184649
:105E640003B05DF804FB00B585B00346ADF8063019
:105E7400BDF80630184600F011F803461A46002310
:105E84001360BDF80630184600F008F803461B6896
:105E94000393039B00BF05B05DF804FB82B0034687
:105EA400ADF80630BDF8063003F1804303F5C04376
:105EB400184602B07047000082B00190034A019B6B
:105EC400C2F8043300BF02B0704700BF0060004056
:105ED40082B00190034A019BC2F8083300BF02B0AC
:105EE400704700BF0060004082B00190034BD3F8BC
:105EF4000423019B1340184602B070470060004021
:105F040082B00190084A019B03F5A27352F8233032
:105F1400054943F00102019B03F5A27341F82320D4
:105F240000BF02B0704700BF0060004082B0019023
:105F3400084A019B03F5A27352F82330054923F064
:105F44000102019B03F5A27341F8232000BF02B0B4
:105F5400704700BF0060004084B003900291134674
:105F64008DF80730144A039B03F5A27352F82330CB
:105F7400114923F4473323F44073039A02F5A272C0
:105F840041F822300C4A039B03F5A27352F82320F4
:105F9400029B1B0203F4F8519DF807301B0403F421
:105FA40040330B4304491A43039B03F5A27341F89E
:105FB400232000BF04B070470060004082B001900D
:105FC400054A019B03F5A27352F823301B0A03F020
:105FD4001F03184602B070470060004082B0019071
:105FE400064A019B03F5A27352F823301B0C03F0FD
:105FF4000303DBB2184602B0704700BF00600040E4
:1060040000B583B00190019B1B681F2B04D905497F
:106014004FF4E87001F04CF84FF0A043184603B079
:106024005DF804FB08B2020000B585B00190084693
:1060340011461A4603468DF803300B468DF802309C
:1060440013468DF8013001AB1846FFF7D9FF0390D2
:106054009DF803209DF802305B001A439DF801303F
:106064009B001A439DF818301B0242EA03019DF875
:106074001C301B04019A1943039B02F5E07243F898
:10608400221000BF05B05DF804FB00B585B0039095
:106094000B468DF80B309DF80B3000220192002244
:1060A4000092002200210398FFF7BEFF00BF05B055
:1060B4005DF804FB00B585B0019001AB1846FFF70D
:1060C4009FFF0390019A039B02F5E07253F822307C
:1060D40023F002030293019A039B02F5E0720299F2
:1060E40043F8221000BF05B05DF804FB00B585B08D
:1060F40001900B468DF8033001AB1846FFF780FF83
:106104000390019A039B02F5E07253F82230019A3E
:1061140023F44031039B02F5E07243F82210019A04
:10612400039B02F5E07253F822109DF803301B0420
:10613400019A1943039B02F5E07243F8221000BF51
:1061440005B05DF804FB00B585B0019001AB1846BD
:10615400FFF756FF0390039800F020F80246019BD6
:1061640022FA03F303F00103184605B05DF804FBBB
:1061740000B585B0019001AB1846FFF741FF0390CD
:10618400019A039B02F5E07253F822301B0C03F0D2
:106194000303DBB2184605B05DF804FB82B001903E
:1061A400019BD3F81035184602B0704700B587B08C
:1061B4000390029101924FF0A0430493039A029B2F
:1061C4001344012B04D912494FF43A7000F070FFC4
:1061D400039B059311E0059B9B0018336B4453F814
:1061E400083C1846FFF7DAFF0246019B1A60019B40
:1061F40004330193059B01330593039A029B1344D3
:10620400059A9A42E7D300BF00BF07B05DF804FBCC
:1062140008B2020084B001900091009B0393019B9B
:10622400DB080293019B03F0070301930122019B06
:1062340002FA03F30399029A0A44127813401846A7
:1062440004B0704784B001900091009B0393019BBC
:10625400DB080293019B03F007030193039A029B5B
:1062640013441B785AB20121019B01FA03F35BB278
:10627400134359B2039A029B1344CAB21A7000BF63
:1062840004B0704782B001900C4A019B1344303330
:1062940093F90030002B09DB084A019B1344303387
:1062A40093F90030072B01DC012300E0002303F005
:1062B4000103DBB2184602B0704700BF8C280020EF
:1062C40082B00190064A019B1344303393F90030A5
:1062D400072BCCBF01230023DBB2184602B0704762
:1062E4008C28002082B00190064A019B134430336D
:1062F40093F90030DB43DBB2DB09DBB2184602B0B2
:10630400704700BF8C28002084B003900291019252
:106314008DF80330029B59B20E4A039B1344303369
:106324000A461A700B49029B019A41F823209DF8F2
:10633400033083F00103DBB2002B08D0029B083B3F
:10634400039A51B2034A13440A4683F8502000BF0B
:1063540004B070478C28002082B00190044A019B4D
:1063640013443033FF221A7000BF02B0704700BFDD
:106374008C28002082B00190044A019B13443033DE
:1063840093F90030184602B0704700BF8C280020F3
:1063940082B00190034A019B52F82330184602B0A0
:1063A400704700BF8C28002000B589B0039002918B
:1063B40013468DF80730FF238DF81F309DF8073002
:1063C400002B01D0002300E0082305939DF807303B
:1063D400002B01D0082300E00C230493059B0693B3
:1063E40014E00F4A069B52F82330B3F1FF3F0AD161
:1063F4009DF80730029A06990398FFF785FF069BDC
:106404008DF81F3006E0069B01330693069A049B21
:106414009A42E6D39DF91F30184609B05DF804FB93
:106424008C28002082B003468DF807309DF8073091
:10643400094A4FF0FF3142F823109DF80730072B2B
:1064440007D99DF80730083B034A1344FF2283F819
:10645400502000BF02B070478C28002000B583B0E4
:10646400214B93F85430002B03D008230093009B56
:1064740036E000238DF8073009E09DF80730184610
:10648400FFF76AFF9DF8073001338DF807309DF858
:1064940007301F2BF1D900238DF8073009E09DF850
:1064A40007301846FFF7BEFF9DF8073001338DF81B
:1064B40007309DF807300B2BF1D907210620FFF791
:1064C40087FC4FF4BE70FFF7CEFC4FF00040FFF79F
:1064D400F3FC054B012283F8542000230093009B16
:1064E400184603B05DF804FB8C280020044B93F895
:1064F4005430002B14BF01230023DBB2184670472D
:106504008C28002000B587B0039002910192039B70
:106514001F2B04D92B4940F2F71000F0C9FD0023CA
:1065240005930398FFF7DEFE0346002B02D00823F1
:10653400059342E0029BDB781A4601990398FFF722
:1065440033FF03468DF813309DF91330B3F1FF3F49
:1065540031D0029B9B78002B03D00398FFF7AAFD50
:1065640005E0029B5B7819460398FFF78EFD029BBA
:10657400DB78002B08D09DF91300029B1B781A4688
:106584000399FFF7E9FC18E09DF91330083B0E4A24
:10659400134493F95010029B1B785BB29B015AB2CF
:1065A4009DF91330083B0A4351B2074A13440A4683
:1065B40083F8502001E004230593059B184607B097
:1065C4005DF804FB48B202008C28002000B589B0B5
:1065D40001900B468DF80330019B1F2B04D93D49D4
:1065E40040F2252000F064FD0198FFF77BFE03468E
:1065F400002B04D1374940F2262000F059FD0198C0
:10660400FFF75EFE0346002B2FD00198FFF7B2FE82
:106614000346083B304A134493F950308DF80F3049
:106624009DF80F309B098DF80E309DF80E30032B2A
:106634000BD10198FFF787FD0346002B01D00323FC
:1066440000E002238DF81F3008E09DF80E30012B86
:1066540001D1022300E003238DF81F309DF81F3081
:1066640019460198FFF742FD30E00198FFF70AFE52
:106674000346002B2AD00198FFF77CFE03460693BD
:10668400069B9BB240339BB29B00ADF81630069B31
:106694001846FFF735FCBDF816301846FFF7E3FB44
:1066A4009DF80330002B11D00198FFF763FE0346D9
:1066B4001846FFF76DFE0490049B002B06D00122C0
:1066C400069B02FA03F31846FFF7F6FB00BF09B076
:1066D4005DF804FB48B202008C28002000B585B0A8
:1066E4000190019B1F2B04D91A4940F2522000F05B
:1066F400DFFC0198FFF7F6FD0346002B04D1154992
:1067040040F2532000F0D4FC0198FFF7D9FD034672
:10671400002B04D000210198FFF7E8FC15E0019854
:10672400FFF7B0FD0346002B0FD00198FFF722FEC0
:1067340003460393039B1846FFF7F8FB0122039BD0
:1067440002FA03F31846FFF7C3FB00BF05B05DF878
:1067540004FB00BF48B2020000B583B00190019B66
:106764001F2B04D9084940F2722000F0A1FC0198C3
:10677400FFF7E9FC0346002B14BF01230023DBB21F
:10678400184603B05DF804FB48B2020000B597B0A8
:1067940000231093002304934FF48073ADF84A3020
:1067A400012311930023139321E0BDF84A301846C6
:1067B400FFF744FB0346002B0ED01198FFF794FB20
:1067C4000346002B08D0BDF84A301846FFF74BFBB0
:1067D400109A119B13431093119B5B001193BDF806
:1067E4004A300433ADF84A30139B01331393139B9F
:1067F400072BDAD94FF4BE70FFF720FB0346002BBA
:106804000DD04FF4BE70FFF72EFB109B43F00043F6
:10681400109304AB1A4601210020FFF7C7FC109B1C
:10682400DBB2002B29D0012311930023139321E021
:10683400119A109B1340002B16D01398FFF7BEFB40
:106844000E901398FFF7CAFB03468DF83730139860
:10685400FFF79EFD0C900C9B002B05D09DF8372074
:106864000C9B11460E989847119B5B001193139B48
:1068740001331393139B072BDAD9109B002B80F25F
:10688400EE8000238DF853300023039300231593E7
:106894000AE0159B9B0058336B444FF0FF3243F8DA
:1068A400502C159B01331593159B002BF1D000231D
:1068B4008DF853300023139378E06B4A139B1344F1
:1068C400503393F900308DF82F309DF82F3023F09A
:1068D400C0030A93644A139B1344503393F9003062
:1068E400B3F1FF3F5FD002AB19460A98FFF792FC61
:1068F4000346002B57D09DF82F309B098DF8273085
:106904000A98FFF737FD03461846FFF741FD089044
:10691400089B002B03D19DF82730032B43D19DF80E
:106924002730032B04D103AB19460A98FFF78AFCDE
:106934000A98FFF71DFC03468DF81F3004AB194677
:106944000A98FFF767FC0690069B002B03D09DF87E
:106954001F30022B06D0069B002B24D19DF81F303C
:10696400032B20D19DF82730032B13D19DF81F3022
:10697400022B01D1032300E002238DF817309DF888
:10698400173019460A98FFF7B1FB9DF853300133CD
:106994008DF85330089B002B05D09DF82720089BC9
:1069A40011460A989847139B01331393139B032BA7
:1069B40083D99DF85330002B4CD001238DF83F3000
:1069C40001AB1A4601210020FFF7F0FB00231593C9
:1069D40014E0159B9B0058336B4453F8542C159BBF
:1069E4009B0058336B4453F8483C9A4203D000232D
:1069F4008DF83F3005E0159B01331593159B002B53
:106A0400E7D09DF83F30002B03D000238DF853309E
:106A140020E0002315931AE0159B9B0058336B4428
:106A240053F8542C159B9B0058336B4443F8482C63
:106A3400159B9B0058336B4453F84C2C159B9B00BF
:106A440058336B4443F8502C159B01331593159B15
:106A5400002BE1D09DF85330002B7FF428AF00BF0A
:106A640017B05DF804FB00BF8C28002084B00190AF
:106A74000B46ADF80230BDF80230019A13440022EF
:106A84001A60BDF80230019A13441B680393039BF8
:106A940000BF04B0704782B001900B46ADF80230DD
:106AA400BDF80230019A13441B68002B14BF012364
:106AB4000023DBB2184602B0704782B00190009107
:106AC400019BD3F80423009B1340002B14BF012324
:106AD4000023DBB2184602B0704782B001900091E7
:106AE400019B009AC3F8082300BF02B0704784B02A
:106AF4000190019BD3F880340393019B039AC3F85C
:106B04008024039B184604B0704782B00190019B17
:106B1400D3F81835DBB2184602B0704782B0019042
:106B24000B468DF803309DF80320019BC3F81C2508
:106B340000BF02B0704782B001900B468DF803305D
:106B44009DF80330019A134401221A6000BF02B079
:106B5400704784B001900B46ADF80230BDF80230A6
:106B6400019A134400221A60BDF80230019A1344BA
:106B74001B680393039B00BF04B0704782B001906D
:106B84000B46ADF80230BDF80230019A13441B687D
:106B9400002B14BF01230023DBB2184602B0704758
:106BA40082B001900091019BD3F80022009BDB434B
:106BB4001A40019BC3F8002200BF02B0704784B0A2
:106BC4000190019BD3F880340393019B039AC3F88B
:106BD4008024039B184604B0704782B00190019B47
:106BE400D3F84C35184602B0704782B00190019B2F
:106BF400D3F83C35184602B0704700B585B0019013
:106C040000914FF48E710198FFF730FF009B9B6851
:106C1400009A928A92B213441B788DF80F30009B2D
:106C24009B8A9BB201339AB2009B9A829DF80F30E3
:106C340019460198FFF772FF00BF05B05DF804FB29
:106C440010B582B001900091009BDB7D002B08D130
:106C54004FF484710198FFF709FF0198FFF755FF7E
:106C640016E04FF484710198FFF700FF009BDB6886
:106C7400009A527ED2B29C180198FFF746FF034651
:106C84002370009B5B7EDBB20133DAB2009B5A7641
:106C940002B010BD00B589B003900B4601928DF887
:106CA4000B3001238DF810309DF80B308DF818301F
:106CB400019B0593039B5B68039A116804AA104621
:106CC400984700BF09B05DF804FB00B587B0019098
:106CD4000B468DF8033000238DF808309DF80330FF
:106CE4008DF81030019B9B680393019B00229A75D9
:106CF400019B5B68019A116802AA1046984700BF7D
:106D040007B05DF804FB00B589B0019000914FF421
:106D140000710198FFF7D1FE0346002B39D04FF4E0
:106D240092710198FFF7B7FE0346002B31D04FF460
:106D340092710198FFF79AFE4FF401710198FFF7E1
:106D4400CCFE009B9B7E83F00103DBB2002B03D0BF
:106D540004210198FFF7EFFE02238DF80830019813
:106D6400FFF7C5FE03460593009BDB7D8DF81030CD
:106D7400009BDB680393009B0022DA75009B0022D2
:106D84001A76009B5B68009A116802AA104698471D
:106D940056E004210198FFF790FE0346002B4FD0E4
:106DA4004FF484710198FFF776FE0346002B47D019
:106DB40000990198FFF744FF009BDA7D009B5B7EFE
:106DC400DBB29A423CD1009B1B7E002B1CD0009B63
:106DD400DB680793009B5B7E8DF81B30009B1A7E5B
:106DE400009BDA75009B1A69009BDA60009B002205
:106DF4001A76009B00225A769DF81B30079A194692
:106E04000098FFF747FF1BE0009B9B7E83F0010384
:106E1400DBB2002B03D004210198FFF78CFE4FF462
:106E240001710198FFF759FE009B0022DA75009B5F
:106E34005B7ED9B2009BDB681A460098FFF72AFFF5
:106E44004FF48E710198FFF726FE0346002B1AD0EB
:106E5400009B9B8A9BB2009A927D934204D2009934
:106E64000198FFF7CAFE0EE04FF48E710198FFF708
:106E7400FDFD009B9B7D002B05D0009B9B7D19464F
:106E84000098FFF722FF4FF4A2710198FFF703FE69
:106E94000346002B1CD04FF4A2710198FFF7E6FDC6
:106EA400009B9B7E002B03D000210198FFF743FE3B
:106EB400009BDB7D002B0BD0009B0022DA75009B2E
:106EC4005B7ED9B2009BDB681A460098FFF7E2FEAE
:106ED40000BF09B05DF804FB00B589B001900091D2
:106EE4004FF492710198FFF749FE0346002B24D01A
:106EF4004FF492710198FFF72CFE02238DF80830AD
:106F04000198FFF75CFE034605930198FFF76DFEB9
:106F14000346DBB28DF81030009BDB680393009BC3
:106F24000022DA75009B00221A76009B5B68009AA7
:106F3400116802AA1046984741E04FF488710198FD
:106F4400FFF71CFE0346002B39D04FF488710198DB
:106F5400FFF7FFFD0198FFF748FE03468DF81F3049
:106F6400009BDB7D9DF81F209A4228D1009B1B7E4D
:106F7400002B19D0009BDB68069320210198FFF7B2
:106F84000FFE009B1A7E009BDA75009B1A69009B1A
:106F9400DA60009B00221A769DF81F30069A194683
:106FA4000098FFF777FE0AE0009B0022DA75009B49
:106FB400DA689DF81F3019460098FFF76BFE4FF40E
:106FC400A2710198FFF7DAFD0346002B16D04FF4A7
:106FD400A2710198FFF7BDFD009BDB7D002B0DD056
:106FE400009B0022DA750198FFF7FFFD0346D9B232
:106FF400009BDB681A460098FFF74CFE4FF4907133
:107004000198FFF7BBFD0346002B11D04FF490719C
:107014000198FFF79EFD009B9B7D002B08D00198F3
:10702400FFF7DBFD0346DBB219460098FFF74DFE80
:1070340000BF09B05DF804FB08B5074B1B7F002BAC
:1070440004D005490548FFF747FF03E00249034818
:10705400FFF759FE00BF08BDE428002000200040CF
:1070640073DF704700BF184676DF704700BF1846CD
:107074007ADF704700BF18467CDF704700BF1846B0
:107084007FDF704700BF18468FDF704700BF184688
:10709400A8DF704700BF1846A9DF704700BF184635
:1070A40066DF704700BF18463EDF704700BF1846D2
:1070B40000B583B003460091ADF80630BDF8063044
:1070C400009A19460348FCF749FF00BF03B05DF876
:1070D40004FB00BFEFBEADDE08B5FEF729FC00BF20
:1070E40008BD000000B583B0FDF790FD0190019B41
:1070F4000093009B002B04D0044A8C210098FCF7D9
:107104002DFF00BF03B05DF804FB00BF3CB30200D9
:1071140000B587B09DF80030012262F303038DF8B7
:1071240000309DF80030012262F307138DF800301F
:107134006B460D221A491846FFF79EFF0590059BE2
:107144000493049B002B04D0164AA0210498FCF756
:1071540005FF01AB08220021184603F0FDFA502375
:10716400ADF80430A023ADF806300023ADF80830A4
:107174004FF4C873ADF80A3001AB1846FFF778FF37
:107184000590059B0393039B002B04D0054AAA2179
:107194000398FCF7E3FE00BF07B05DF804FB00BFF3
:1071A40098B302003CB3020000B583B00021094843
:1071B40002F0A8F80190019B0093009B002B04D0DF
:1071C400054AB3210098FCF7C9FE00BF03B05DF87F
:1071D40004FB00BF1C2900203CB3020000B5A3B08F
:1071E40041F22353ADF80430194B9B7C8DF80630E3
:1071F40011AB3C220021184603F0AEFA02238DF8AD
:10720400443001238DF8463006238DF8473002AB15
:107214003C220021184603F09FFA0123ADF81830F0
:1072240001AB079302AA11AB1146184601F041F9CC
:107234002190219B2093209B002B04D0054AD1212F
:107244002098FCF78BFE00BF23B05DF804FB00BF61
:10725400042900203CB3020000B583B0034600912A
:10726400ADF8063013468DF805309DF80530002B37
:107274000CD00220FEF714FB0C4B1B881B0443F0BC
:1072840003030B491846FCF78DFA0BE00220FEF7C6
:1072940021FB064B1B881B0443F0030305491846D6
:1072A400FCF780FA00BF03B05DF804FB80210020E6
:1072B400A8B30200BCB3020000B585B00A4B019329
:1072C40001AB1946094802F063FD0390039B029346
:1072D400029B002B04D0064AF3210298FCF73EFEE1
:1072E40000BF05B05DF804FB5D72020004290020B4
:1072F4003CB3020000B585B00190019B1B78002BC4
:1073040011D10B4B1B883B211846FFF7ADFE0390B0
:10731400039B0293029B002B05D0064A40F20911FD
:107324000298FCF71BFE00BF05B05DF804FB00BF2C
:10733400F82100203CB3020000B583B00190054A57
:107344004FF48A710198FCF709FE00BF03B05DF8A1
:1073540004FB00BF3CB3020000B58BB001AB1C22A0
:107364000021184603F0F8F9002301934FF4202379
:1073740002934FF42033039303238DF8103000233A
:10738400ADF8123000238DF814300C4B06930C4BDF
:10739400079301AB184601F02DFA0990099B089355
:1073A400089B002B05D0074A40F22B110898FCF7E4
:1073B400D5FD00BF0BB05DF804FB00BFF9720200FD
:1073C4003D7302003CB3020000B587B06B46102247
:1073D4000021184603F0C0F900238DF80030002383
:1073E400019300238DF808304023ADF80A300023C0
:1073F400ADF80C306B4601211846FFF731FE0590BD
:10740400059B0493049B002B05D0064A4FF4A071FE
:107414000498FCF7A3FD0020FEF742FA00BF07B072
:107424005DF804FB3CB3020010B596B001900091E6
:10743400019B1B88212B00F38D80002B40DCA8E1ED
:107444003B3B1B2B00F2A58101A252F823F000BFA5
:107454008B760200977702009777020097770200F5
:1074640097770200977702009777020097770200D8
:1074740097770200977702009777020097770200C8
:1074840097770200977702009777020097770200B8
:1074940097770200977702009777020097770200A8
:1074A4009777020097770200217702006176020045
:1074B400977702009777020097770200C37602005D
:1074C400013B202B00F2658101A252F823F000BF9A
:1074D400FB76020097770200977702009777020005
:1074E4009777020097770200977702009777020058
:1074F4009777020097770200977702009777020048
:107504009777020097770200977702006775020069
:10751400AD75020097770200EF75020097770200BD
:107524009777020097770200977702009777020017
:107534009777020097770200977702009777020007
:1075440097770200977702009777020097770200F7
:1075540019760200562B00F31C813B2BBFF670AF4B
:1075640017E1964B1B881B0443F003039449184608
:10757400FCF718F90120FEF793F90020FEF7AAF9A9
:10758400019B9A888F4B1A80FCF78CFC1590159BF5
:107594000D930D9B002B00F0FE808B4A40F2571197
:1075A4000D98FCF7DBFCF6E0844B1B881B0443F0CE
:1075B400030386491846FCF7F5F80120FEF78AF91B
:1075C400804B4FF6FF721A80FCF798FC1590159BC0
:1075D4000E930E9B002B05D07B4A40F25F110E9850
:1075E400FCF7BCFCFFF7F0FEE4E0764B18880023C0
:1075F40000228521FFF744FD1590159B0F930F9BE7
:10760400002B00F0CA80704A40F269110F98FCF711
:10761400A5FCC2E0694B1B881B0443F004036C49BE
:107624001846FCF7BFF800238DF82C3000238DF8A2
:107634002D30019B9B880BAA11461846FFF724FDA9
:107644001590159B1093109B002B00F0A8805E4AA8
:107654004FF4BB711098FCF781FCA0E0594B1888DB
:10766400002300220021FFF717FD1590159B1393AB
:10767400139B002B00F09580534A40F27D11139820
:10768400FCF76CFC8DE04D4B1B881B0443F004039A
:1076940050491846FCF786F8019B9B88132118462D
:1076A400FFF7E2FC1590159B1193119B002B7AD0E8
:1076B400454A40F285111198FCF750FC73E03F4BAA
:1076C4001B881B0443F0040343491846FCF76AF87B
:1076D400019B9B8813211846FFF7C6FC1590159B48
:1076E4001493149B002B60D0374A40F28D111498E8
:1076F400FCF734FC59E0019B9B8800211846FFF7F6
:10770400CFFC1590159B0C930C9B002B4FD02E4A4D
:107714004FF4C9710C98FCF721FC48E0019B07ACBD
:107724000633186859689A68DB680FC49DF81C30E2
:10773400002B3ED09DF82430042B07D09DF8243034
:10774400062B03D09DF82430052B32D19DF81C3034
:10775400022B03D102238DF80C3002E001238DF8B3
:107764000C304FF4C173ADF81030019B9B8803AA11
:1077740011461846FFF78CFC1590159B1293129B2B
:10778400002B16D0104A40F2AD111298FCF7E6FB1C
:107794000FE000BF0EE000BF0CE000BF0AE000BF36
:1077A40008E000BF06E000BF04E000BF02E000BF45
:1077B40000E000BF00BF16B010BD00BF8021002054
:1077C400D0B30200F82100203CB30200DCB3020075
:1077D400ECB3020000B4020018B4020000B587B094
:1077E40002F00CFD0590059B0493049B002B05D02F
:1077F400164A4FF4E1710498FCF7B0FB002301939F
:1078040001AB1946012002F0A1FD0590059B0393ED
:10781400039B002B05D00D4A4FF4E4710398FCF749
:107824009DFB01AB184602F079FE0590059B02937F
:10783400029B002B05D0054A4FF4E6710298FCF731
:107844008DFB00BF07B05DF804FB00BF3CB3020032
:1078540000B585B003460A468DF8073013468DF807
:1078640006309DF807300D2B2DD11E4B1B881B04B1
:1078740043F003031C491846FBF794FF1B4B1B887A
:107884009DF806201A49184602F0CCFA0390039B8F
:10789400002B21D0039B43F2020293421CD0039B92
:1078A400082B19D0039B43F20142934214D0039B4B
:1078B4000293029B002B0FD00E4A4FF4F3710298EF
:1078C400FCF74CFB08E09DF807300A4A40F2EB1144
:1078D4001846FCF743FB00E000BF00BF05B05DF8AD
:1078E40004FB00BF8021002030B40200F8210020F6
:1078F400042900203CB3020000B583B040F2666264
:1079040001210948FCF75CFA0190019B0093009B5C
:10791400002B05D0054A40F2FF110098FCF71EFB2E
:1079240000BF03B05DF804FBFC2100203CB302005F
:1079340000B583B00020FBF755FD0190019B009337
:10794400009B002B05D0054A40F206210098FCF765
:1079540005FB00BF03B05DF804FB00BF3CB30200AD
:1079640000B583B0FFF7A0FB0190019B0093009B3F
:10797400002B05D0044A4FF404710098FCF7EEFA8A
:1079840000BF03B05DF804FB3CB3020008B5FFF789
:10799400A3FBFFF7A7FBFFF7CBFFFFF7ADFFFFF755
:1079A4001DFFFFF7B5FBFFF7FFFBFFF785FCFFF7B4
:1079B40015FCFFF7D1FC0B4B1B881B0443F003039E
:1079C40009491846FBF7EEFEFFF7FEFCFBF75AFFEA
:1079D400034683F00103DBB2002BF7D0FFF7C0FFAF
:1079E400F4E700BF802100204CB402006DDF704733
:1079F40000BF184672DF704700BF184679DF704732
:107A040000BF18467DDF704700BF184664DF70472B
:107A140000BF184682B003460091ADF80630BDF8A9
:107A24000630DAB2009B1A70BDF806301B0A9AB20F
:107A3400009B0133D2B21A700223184602B0704779
:107A440000B589B0039002911346ADF80630029B4D
:107A54001B8803F10902BDF806309A4201D90C23B0
:107A640051E005AB1846FFF7C1FF0790079B002BB9
:107A740001D0079B47E0029B1B881A46039B1344D3
:107A840008221A70029B1B8801339AB2029B1A8047
:107A9400029B1B881A46039B13441B221A70029BE9
:107AA4001B8801339AB2029B1A80029B1B881A46D8
:107AB400039B981805AB01330622194602F01AFEFF
:107AC400029B1B8806339AB2029B1A809DF81430DD
:107AD40023F00103DBB2002B07D1029B1B881A465B
:107AE400039B134400221A7006E0029B1B881A466B
:107AF400039B134401221A70029B1B8801339AB220
:107B0400029B1A800023184609B05DF804FB00B5F7
:107B140089B0039002910192ADF80230039B1B7867
:107B2400012B05D1039B5B78002B01D1072388E04F
:107B3400019B1B889A1CBDF802309A420ED8039B05
:107B44001B78012B0CD1019B1B881A46039B5B7885
:107B540013449A1CBDF802309A4201D90C2370E0F8
:107B6400019B1B88BDF80220D31A9BB2023BADF8DF
:107B74001C30BDF81C30ADF81630019B1B88023355
:107B8400029A13440DF1160211461846FFF73AFF04
:107B94000690069B002B01D0069B52E0039B1B78AA
:107BA400022B09D1BDF81630BDF81C209A4203D32C
:107BB40009238DF81F3016E008238DF81F30039B2E
:107BC4001B78012B0BD1039B5B781A46BDF81C3044
:107BD400934204D3039B5B78ADF8163003E0BDF801
:107BE4001C30ADF81630BDF81630FE2B01D90C232D
:107BF40027E0BDF81630DAB2019B1B881946029BB8
:107C04000B440132D2B21A70019B1B8801339AB221
:107C1400019B1A80019B1B881A46029B13449DF802
:107C24001F201A70019B1B8801339AB2019B1A8092
:107C3400019B1A88BDF8163013449AB2019B1A802E
:107C44000023184609B05DF804FB00B587B0039023
:107C540002911346ADF80630029B1B881A1DBDF82D
:107C640006309A4201D90C2338E00DF1120318466C
:107C7400FFF7C4FE0590059B002B01D0059B2DE06A
:107C8400029B1B881A46039B134403221A70029B0F
:107C94001B8801339AB2029B1A80029B1B881A46E6
:107CA400039B134419221A70029B1B8801339AB256
:107CB400029B1A80BDF81220029B1B881946039B65
:107CC4000B4419461046FFF7A5FE03461A46029BCD
:107CD4001B8813449AB2029B1A800023184607B0EB
:107CE4005DF804FB84B0029101921A4603468DF8B4
:107CF4000F301346ADF80C30019B1B88DA1CBDF81D
:107D04000C309A4201D90C2328E0019B1B881A46A7
:107D1400029B134402221A70019B1B8801339AB2FE
:107D2400019B1A80019B1B881A46029B1344012263
:107D34001A70019B1B8801339AB2019B1A80019B24
:107D44001B881A46029B13449DF80F201A70019B4E
:107D54001B8801339AB2019B1A800023184604B091
:107D6400704784B0029101921A4603468DF80F3091
:107D74001346ADF80C30019B1B88DA1CBDF80C309F
:107D84009A4201D90C2328E0019B1B881A46029BC6
:107D9400134402221A70019B1B8801339AB2019B7F
:107DA4001A80019B1B881A46029B13440A221A70EC
:107DB400019B1B8801339AB2019B1A80019B1B888B
:107DC4001A46029B13449DF80F201A70019B1B88CE
:107DD40001339AB2019B1A800023184604B07047FD
:107DE40000B58BB0039001930B468DF80B3013460E
:107DF4008DF80A3000238DF823300C9B1B88ADF8D6
:107E04002030002309936CE0039B5A68099B9B0074
:107E14001A4404AB106818600DF1160104AB00227B
:107E24001846FFF7F3FD0690069B002B01D0069B36
:107E340079E09DF816309DF80A209A424ED19DF8BB
:107E44002330002B01D0002300E002238DF81730EB
:107E54000C9B1B881A469DF816301A449DF817305F
:107E64001A44BDF834309A4201DD0C235BE09DF8DE
:107E7400233083F00103DBB2002B16D00C9B1B884C
:107E840001339AB20C9B1A800C9B1B881A46019BE7
:107E940013449DF80B201A700C9B1B8801339AB273
:107EA4000C9B1A8001238DF823300C9B1B881A46E7
:107EB400019B1A440DF1160104AB1846FFF7A6FD09
:107EC4000690069B002B01D0069B2CE00C9B1B8884
:107ED4009DF8162013449AB20C9B1A80099B013317
:107EE4000993039B1B881A46099B93428CDB9DF8DC
:107EF4002330002B16D00C9B1A88BDF82030D31ADF
:107F04009BB2013BADF81E30BDF81E30FF2B01D9EA
:107F14000C2308E0BDF82030019A1344BDF81E205C
:107F2400D2B21A70002318460BB05DF804FB00B5FA
:107F340089B0059003930B468DF8133013468DF8E2
:107F440012309DF81310BDF82C3001930A9B009356
:107F5400039B02220598FFF743FF0790079B002B22
:107F640001D0079B12E09DF81210BDF82C3001934C
:107F74000A9B0093039B10220598FFF731FF07909B
:107F8400079B002B01D0079B00E00023184609B093
:107F94005DF804FB82B00190019B1B88052B0AD974
:107FA400019B1B88B3F5486F07D9019B1B884FF6CB
:107FB400FF72934201D0072325E0019B5B88052BC8
:107FC4000AD9019B5B88B3F5486F07D9019B5B888D
:107FD4004FF6FF72934201D0072314E0019B1B88E4
:107FE4004FF6FF7293420DD0019B5B884FF6FF72F0
:107FF400934207D0019B1A88019B5B889A4201D95E
:10800400072300E00023184602B0704700B587B08C
:10801400039002910192ADF80230019B1B889A1DD6
:10802400BDF802309A4201D90C2349E00398FFF7C6
:10803400B1FF0590059B002B01D0059B40E0019BFF
:108044001B881A46029B134405221A70019B1B8845
:1080540001339AB2019B1A80019B1B881A46029B2A
:10806400134412221A70019B1B8801339AB2019B9C
:108074001A80039B1A88019B1B881946029B0B4498
:1080840019461046FFF7C6FC03461A46019B1B8897
:1080940013449AB2019B1A80039B5A88019B1B8844
:1080A4001946029B0B4419461046FFF7B3FC0346DE
:1080B4001A46019B1B8813449AB2019B1A80002321
:1080C400184607B05DF804FB00B587B00390029131
:1080D4000192ADF80230039B9B8802330593019B08
:1080E4001B881A46059B13449A1CBDF802309A4219
:1080F40001D90C2353E0059BFE2B01D90C234EE040
:10810400059BDAB2019B1B881946029B0B44013282
:10811400D2B21A70019B1B8801339AB2019B1A8058
:10812400019B1B881A46029B1344FF221A70019B71
:108134001B8801339AB2019B1A80039B1A88019B06
:108144001B881946029B0B4419461046FFF762FC34
:1081540003461A46019B1B8813449AB2019B1A805A
:10816400039B9B88002B19D0039B9B68002B01D198
:10817400072314E0019B1B881A46029B9818039B53
:108184009968039B9B881A4602F0B4FA019B1A88EB
:10819400039B9B8813449AB2019B1A8000231846C0
:1081A40007B05DF804FB00B589B003900291019219
:1081B400ADF80230039B9B6A002B01D1072371E0C9
:1081C40000238DF81F3065E0039B996A9DF81F20FA
:1081D40013465B0013449B000B440693069B9B8849
:1081E40002330593059BFE2B01D90C235AE0059B12
:1081F400DAB2019B1B881946029B0B440132D2B2AE
:108204001A70019B1B8801339AB2019B1A80019B4F
:108214001B881A46029B134416221A70019B1B8862
:1082240001339AB2019B1A80069B1A88019B1B8812
:108234001946029B0B4419461046FFF7EBFB034615
:108244001A46019B1B8813449AB2019B1A80069B11
:108254009B88002B19D0069B9B68002B01D1072318
:1082640020E0019B1B881A46029B9818069B99687C
:10827400069B9B881A4602F03DFA019B1A88069BCE
:108284009B8813449AB2019B1A809DF81F300133D6
:108294008DF81F30039B93F82C309DF81F209A42D1
:1082A40092D30023184609B05DF804FB00B589B0E9
:1082B40005900491039200230793039B1B88ADF858
:1082C4001A30039B00221A80059B93F82D30002B53
:1082D4000CD0BDF81A301A4603990498FFF7B0FB86
:1082E4000790079B002B01D0079BC4E0059B9B785C
:1082F400002B0CD0BDF81A301A4603990498FFF7E6
:10830400A4FC0790079B002B01D0079BB3E0059BBF
:10831400DB78002B0ED0059BDB7858B2BDF81A3001
:10832400039A0499FFF7DEFC0790079B002B01D00A
:10833400079BA0E0059B5B68002B0FD0059B5B6847
:1083440093F90000BDF81A30039A0499FFF709FD68
:108354000790079B002B01D0079B8CE0059B1B8992
:10836400002B12D0059B03F10800BDF81A300193CD
:10837400039B0093049B06220221FFF7D8FD07907C
:10838400079B002B01D0079B75E0059B1B8A002BE4
:1083940012D0059B03F11000BDF81A300193039B22
:1083A4000093049B07220321FFF7C1FD0790079B5D
:1083B400002B01D0079B5EE0059B1B8B002B12D08A
:1083C400059B03F11800BDF81A300193039B009339
:1083D400049B15221421FFF7AAFD0790079B002B8D
:1083E40001D0079B47E0059B1B6A002B0DD0059B22
:1083F400186ABDF81A30039A0499FFF707FE07902C
:10840400079B002B01D0079B35E0059B5B6A002B83
:108414000DD0059B586ABDF81A30039A0499FFF7EA
:1084240053FE0790079B002B01D0079B23E0059B7D
:1084340093F82C30002B0CD0BDF81A30039A049911
:108444000598FFF7B0FE0790079B002B01D0079B10
:1084540011E0059B1B78002B0CD0BDF81A30039A51
:1084640004990598FFF753FB0790079B002B01D055
:10847400079B00E0079B184609B05DF804FB82B037
:108484000190019BDB7803F00403002B01D1072347
:1084940000E00023184602B0704782B00190019BAF
:1084A400DB78002B01D0072300E00023184602B03C
:1084B400704700B597B0019000911F23ADF84A3082
:1084C4001F23ADF84830019B002B18D00198FFF70B
:1084D400D6FF1390139B002B01D0139B3FE00DF1AB
:1084E4004A020AAB19460198FFF7E0FE1390139B6A
:1084F400002B01D0139B32E00AAB159304E0002358
:1085040015930023ADF84A30009B002B17D0009838
:10851400FFF7C3FF1390139B002B01D0139B1EE0A6
:1085240012AA02AB19460098FFF7C0FE1390139BE2
:10853400002B01D0139B12E002AB149304E0002340
:1085440014930023ADF84830BDF84A30D9B2BDF8D1
:108554004830DBB2149A1598FFF74CFA03461846D4
:1085640017B05DF804FB75DF704700BF184676DF6F
:10857400704700BF18467ADF704700BF18467BDF9C
:10858400704700BF1846000084B00346ADF80630BB
:108594000023039316E00F49039A13469B001344E8
:1085A4009B000B441B88BDF806209A4207D1039A0E
:1085B40013469B0013449B00064A134406E0039BA6
:1085C40001330393039B002BE5D00023184604B02A
:1085D400704700BF5029002082B001900B46ADF8CF
:1085E4000230019BBDF802201A80019B00221A72FE
:1085F400019B054903F10A020B4603CB106051604D
:1086040000BF02B0704700BF8029002082B00190F3
:10861400019B4FF6FF721A8000BF02B0704788B00A
:108624000390029111461A460B46ADF806301346E4
:10863400ADF80430039B9B881A46BDF806301344FA
:108644000793039B9B881946039B9B88BDF80620D0
:10865400934228BF13469BB2CB1A0693039BDB8835
:108664001A46BDF8043013440593039BDB8819466E
:10867400039BDB88BDF80420934228BF13469BB2BA
:10868400CB1A0493029B5A88039B1B889A4205D3F6
:10869400029B5A88039B5B889A4201D900231CE001
:1086A400029B9B881A46069B934205D8029B9B8893
:1086B4001A46079B934201D200230EE0029BDB88FB
:1086C4001A46049B934205D8029BDB881A46059BF5
:1086D400934201D2002300E00123184608B07047FA
:1086E40000B583B00190064B9B69002B03D0044B6B
:1086F4009B690198984700BF03B05DF804FB00BF75
:108704006429002000B585B003460091ADF8063019
:10871400BDF8063000991846FFF725FF0390039B28
:10872400002B05D0039B112B02D00398FFF7D8FF31
:10873400039B002B0CBF01230023DBB2184605B0BA
:108744005DF804FB00B589B00190019B0793079B7A
:108754009BB21846FFF718FF0690069B002B42D0E9
:10876400069B1A7A224B1B7B9A4215D2079B9AB21C
:10877400069B0A3319461046FFF7C4FF03468DF8DB
:1087840013309DF81330002B2DD0069B1B7A013338
:10879400DAB2069B1A7226E0069B00221A72144B68
:1087A4001B7C002B0FD0079B9BB23B211846FFF785
:1087B400DEFE0590059B002B05D0059B082B02D0FF
:1087C4000598FFF78DFF0A4B5B69002B0BD0002344
:1087D4008DF80C30079B9BB2ADF80E30044B5B69EF
:1087E40003AA1046984700BF09B05DF804FB00BF18
:1087F4006429002030B587B00190019B002B01D182
:108804000E2353E02B4A019B14461D460FCD0FC483
:1088140095E8070084E80700264B274A1A60019B65
:108824001B68002B11D0019B1B681846FFF7A3FEA1
:108834000490049B002B01D0049B37E0019B1A6831
:108844001D4B1068516803C308E01B48FFF797FEEF
:108854000490049B002B01D0049B27E00023059384
:1088640020E0059A13469B0013449B00134A1344CB
:1088740003930398FFF7CAFE059B5B01104A1A4451
:10888400039B5A60039B04330E4A00211846FCF7ED
:10889400F1F90490049B002B01D0032306E0059B0F
:1088A40001330593059B002BDBD00023184607B04A
:1088B40030BD00BF642900208029002050290020F9
:1088C400302900204987020000B587B00346009193
:1088D400ADF80630009B5B7A002B1AD1009B1B7A03
:1088E400002B03D1164B5B68059302E0144B9B6885
:1088F4000593009B5B68BDF8062005991846FCF7B4
:10890400E9F90490049B002B16D00498FFF7E8FEC5
:1089140012E0009B00221A72094B5B69002B0BD0FA
:1089240001238DF80C30BDF80630ADF80E30044B41
:108934005B6903AA1046984700BF07B05DF804FBC3
:108944006429002000B585B00190019BDB7B8DF884
:108954000F30019B9B88ADF80C309DF80F30012B34
:108964002CD14FF6FF70FFF70FFE0290029B002BF5
:1089740003D10420FFF7B4FE21E0BDF80C30194602
:108984000298FFF729FE029B03F10A00019B03F101
:1089940010014FF6FF7340F2F312FFF740FE034657
:1089A4001A46029B5A72074BDB89002B07D1BDF88C
:1089B4000C3002991846FFF787FF00E000BF05B0AE
:1089C4005DF804FB6429002000B587B00190019B89
:1089D4009B88ADF81630BDF816301846FFF7D4FD65
:1089E4000490049B002B0ED0049B5B681846FCF794
:1089F400A3F90390039B002B02D00398FFF770FEAA
:108A04000498FFF703FE00BF07B05DF804FB000005
:108A140000B587B00190019B06330593059B1A8826
:108A2400194BDB899A422BD1059B5B89022B27D1F9
:108A3400019B9B88ADF81230BDF812301846FFF741
:108A4400A3FD0390039B002B1AD0059B0C331846FF
:108A540000F07BF90346002B06D0BDF812300399D1
:108A64001846FFF731FF0BE0039B5B681846FCF7E1
:108A740063F90290029B002B02D00298FFF730FEAC
:108A840000BF07B05DF804FB6429002000B585B081
:108A94000190019B9B88ADF80E30BDF80E3018464E
:108AA400FFF772FD0290029B002B15D0029B03F18D
:108AB4000A00019B03F108014FF6FF7340F2F31221
:108AC400FFF7ADFD03461A46029B5A72BDF80E30FD
