:020000022000DC
:10300000000001203D310200DD300200DF3002000F
:10301000E1300200E3300200E53002000000000071
:10302000000000000000000000000000E730020087
:10303000E930020000000000EB300200ED30020039
:10304000F1300200F3300200B95F0200F7300200F5
:10305000F9300200FB300200FD300200FF300200B8
:103060000131020003310200053102000731020084
:10307000093102000B3102000D3102000F31020054
:10308000113102007D6C020015310200173102007F
:10309000BD6C02001B310200450D03001F31020010
:1030A00021310200233102002531020027310200C4
:1030B000293102002B310200EF300200EF30020014
:1030C0002D3102002F310200313102003331020074
:0C30D000353102003731020039310200B6
:1030DC00FEE7FEE7FEE7FEE7FEE7FEE7FEE7FEE7BC
:1030EC00FEE7FEE7FEE7FEE7FEE7FEE7FEE7FEE7AC
:1030FC00FEE7FEE7FEE7FEE7FEE7FEE7FEE7FEE79C
:10310C00FEE7FEE7FEE7FEE7FEE7FEE7FEE7FEE78B
:10311C00FEE7FEE7FEE7FEE7FEE7FEE7FEE7FEE77B
:10312C00FEE7FEE7FEE7FEE7FEE7FEE7FEE700BF91
:10313C000F484FF00701884385460E4880470E48DC
:10314C00016841F470010160BFF34F8FBFF36F8FC3
:10315C0000F01AB809480A490A4A884207D0521A9C
:10316C0005D0037801300B700131013AF9D1704769
:10317C00000001208942020088ED00E0E419030000
:10318C00E02000208C2100203A493B480A1A02D04A
:10319C00072291438D46394939480A1A06D007222D
:1031AC00914381F30988022282F314883548364909
:1031BC00364A00F041F836483649374A00F03CF8B8
:1031CC0036483749374A00F037F837483749384AD4
:1031DC0000F032F837483849384A00F02DF83848B2
:1031EC003849394A00F028F838483949394A00F04A
:1031FC0023F839483949002200F036F83848394963
:10320C00002200F031F838483849091A0EF094F9C8
:10321C00374A904725482649884205D00268043031
:10322C0003B4904703BCF7E700208646EC46002029
:10323C000021304A9047FEE7884214D0521A12D02F
:10324C0003460B4313430324234206D10368043083
:10325C000B600431043AF9D17047037801300B70DC
:10326C000131013AF9D17047884202D00270013025
:10327C00FAE770470000012000F800200000012050
:10328C00000001209C4203008C210020A822002079
:10329C0004330200043302000A1903009C420300A9
:1032AC008C2100208C210020901A0300901A03001E
:1032BC00901A0300901A0300901A0300901A03004E
:1032CC00901A0300901A030099420300B8430300BC
:1032DC00A8220020A8220020A8220020C02F002015
:1032EC00C02F0020C42F0020C42F0020C431002088
:0832FC0061310200DD3E020019
:1033040082B00190019B9B6893F83D31C3F3400365
:10331400DBB2002B14BF01230023DBB2184602B03A
:103324007047000030B58DB0124B02AC1D460FCD76
:103334000FC495E80F0084E80F00052302930B23C4
:10334400039300238DF81C3002A903230093012367
:103354000122094808F04CFD0B900B9B0A930A9B31
:10336400002B04D0054A67210A9802F037FE00BFFB
:103374000DB030BD2C1B030018210300DC1A030020
:1033840000B583B0084808F071FD0190019B0093DB
:10339400009B002B04D0054A6E21009802F01EFE0B
:1033A40000BF03B05DF804FB18210300DC1A03001E
:1033B40008B5024808F0A6FD00BF08BD18210300A7
:1033C40000B587B0059004910392039B0193049B7D
:1033D4000093039B044A0221059808F0FBFD00BFFB
:1033E40007B05DF804FB00BF4C1B030000B585B0BB
:1033F40003900291029B0093029B044A02210398CA
:1034040008F0E8FD00BF05B05DF804FB801B030075
:1034140000B58DB00790069105920493069B9BB26C
:10342400ADF82030059B9BB2ADF82230049B099384
:103434000E9B03339B080A930E9B0293049B0193F8
:10344400059B0093069B0D4A0021079808F0C2FDD6
:1034540008AB1946002005F063FC0B900B9B002B76
:1034640008D0074A0B9B52F82330064A02210798DA
:1034740008F0B0FD00BF0DB05DF804FBB41B030001
:10348400BC210020001C030000B58DB00190009108
:1034940008AB00221A605A609A6006AB00221A60D8
:1034A4005A6006AB08AA47F210014FF2100005F06B
:1034B400CEFC0346002B1FD14FF21003ADF80C30A5
:1034C40047F21003ADF80E30009B049306230593D6
:1034D40003AA08AB1146184605F031FC0B900B9B70
:1034E400002B0ED0094A0B9B52F82330084A0221C4
:1034F400019808F06FFD04E0064A0221019808F0E3
:1035040069FD00BF0DB05DF804FB00BFBC210020C5
:103514002C1C0300581C030000B58DB005900491C9
:10352400039209AB00221A605A6006AB00221A60AB
:103534005A609A60039B0093049B184A00210598E3
:1035440008F048FD049B98B2039B99B209AB06AA04
:1035540005F07DFC0346002B18D106AB184605F098
:1035640003FC0B900B9B002B09D00D4A0B9B52F8CC
:1035740023300C4A0221059808F02CFD0BE0069B31
:10358400094A0021059808F025FD04E0074A0221B4
:10359400059808F01FFD0DB05DF804FB801C0300C6
:1035A400BC210020AC1C0300D81C0300EC1C03004D
:1035B40000B587B003AB00221A605A606B46002244
:1035C4001A605A609A6003AA6B461146184605F0C1
:1035D4002FFC0346002B0BD16B46184605F0C4FBA9
:1035E4000590059B002B01D0002302E0012300E09D
:1035F4000023184607B05DF804FB000000B585B051
:103604000390029101920398FFF77AFE0346002B80
:1036140005D000220021039808F00CFE0FE0029B65
:10362400022B04D008490398FFF7E0FE07E0019B52
:1036340004331B68044A19460398FFF7C1FE00BF10
:1036440005B05DF804FB00BF081D030000B593B08E
:103654000790069105920CAB00221A605A609A609A
:103664000AAB00221A605A605BE008AB00221A60C1
:103674005A6008AA0CAB1146184605F0BBFA119023
:10368400119B0D2B09D0119B0D2B12D8119B002BD4
:1036940019D0119B0A2B06D00BE02A4A0221079865
:1036A40008F098FC3DE0284A0221079808F092FCB3
:1036B40037E0264A119B52F82330254A0221079805
:1036C40008F088FC2DE000BF099B1093109B1B7D24
:1036D400002B01D01F4800E01F48109B5B7D002B8E
:1036E40001D01C4B00E01C4B109A12681099043155
:1036F4000291019200930346184A0021079808F0AA
:1037040069FC0CAB184605F0C3FA1190119B0F939A
:103714000F9B002B05D0124A4FF4A1710F9802F0B1
:103724005DFC0AAB0CAA47F210014FF2100005F041
:103734008EFB0346002B98D000BF00BF13B05DF88A
:1037440004FB00BF101D0300EC1C0300BC2100207F
:103754002C1D03004C1D0300501D0300541D0300C9
:10376400DC1A030000B593B00790069105920DABE7
:1037740000221A605A600AAB00221A605A609A60EA
:10378400344A0021079808F025FC54E008AB0022D5
:103794001A605A6008AA0AAB1146184605F02AFABC
:1037A4001190119B0D2B09D0119B0D2B12D8119B3D
:1037B400002B19D0119B0A2B06D00BE0264A0221BC
:1037C400079808F007FC36E0244A0221079808F01D
:1037D40001FC30E0224A119B52F82330214A022195
:1037E400079808F0F7FB26E000BF089B5B889B0066
:1037F4001093089B9A68089B9B881946089B1B8812
:103804001846109B0293019000911346164A00211A
:10381400079808F0DFFB0AAB184605F039FA119057
:10382400119B0F930F9B002B05D0104A4FF4BE71D0
:103834000F9802F0D3FB0DAA0AAB1146184605F007
:10384400F7FA03460A2BA1D100BF00BF13B05DF8FD
:1038540004FB00BF901D0300101D0300EC1C0300BB
:10386400BC2100202C1D0300B41D0300DC1A03003E
:1038740000B589B00590049103920598FFF740FDC7
:103884000346002B05D000220021059808F0D2FC45
:1038940049E0049B042B04D025490598FFF7A6FDB5
:1038A40041E0039B04331B681022002118460DF0ED
:1038B40069FC0346ADF81E30039B08331B681022D5
:1038C400002118460DF05EFC0346ADF81C30039B46
:1038D4000C331B6818460DF06FFE0346FF2B07D808
:1038E400039B0C331B6818460DF066FE034601E08B
:1038F4004FF4807306934FF4807200210D480DF04D
:1039040027FF039B0C331B68069A194609480DF0E0
:10391400EDFEBDF81E10BDF81C20069B0093054B60
:103924000598FFF775FD00BF09B05DF804FB00BF03
:10393400DC1D03006426002000B58BB007900691BF
:1039440005920798FFF7DCFC0346002B05D0002204
:103954000021079808F06EFC6DE0069B052B04D04F
:1039640037490798FFF742FD65E0059B04331B6860
:10397400344918460DF06EFE0346002B0CBF01239C
:103984000023DAB2304B1A75059B08331B682D49A6
:1039940018460DF05FFE0346002B0CBF01230023E5
:1039A400DAB2294B5A75059B0C331B680A22002195
:1039B40018460DF0E7FB03461A46234B1A60059B95
:1039C40010331B6818460DF0F7FD03460F2B08D87B
:1039D400059B10331B6818460DF0EEFD03469BB2A1
:1039E40000E01023ADF82630059B10331B68BDF8AA
:1039F4002620194615480DF079FE134B1B7D002B2C
:103A040001D0104900E012490F4B5B7D002B01D01F
:103A14000C4B00E00E4B0C4A12680C4802900192C9
:103A240000930B460B4A0021079808F0D3FA064985
:103A34000798FFF729FD00BF0BB05DF804FB00BF3A
:103A4400E41D03004C1D03006427002068270020A8
:103A5400501D0300EC1D030000B587B003900291D4
:103A640001920398FFF74CFC0346002B05D000227B
:103A74000021039808F0DEFB20E0029B022B04D80F
:103A840010490398FFF7B2FC18E0019B04331B684C
:103A94001022002118460DF075FB03460593019B87
:103AA40008331B681022002118460DF06BFB0346F7
:103AB4000493049A05990398FFF72EFD00BF07B0FD
:103AC4005DF804FB301E030000B585B0039002913D
:103AD40001920398FFF714FC0346002B05D0002243
:103AE4000021039808F0A6FB09E0029B012B04D0F7
:103AF40005490398FFF77AFC01E000F02FF900BFB5
:103B040005B05DF804FB00BF381E030070B592B029
:103B14000990089107920998FFF7F2FB0346002BDE
:103B240005D000220021099808F084FB3AE00BAB91
:103B340000221A605A609A60DA601A820BAB184647
:103B440005F09CF91190119B1093109B002B05D04C
:103B5400164A40F2F511109802F040FABDF82C30E4
:103B64001E46BDF830301A46BDF832301344BDF855
:103B740030201146BDF832201046BDF838201446D6
:103B8400BDF83A201546BDF83A20920005920495F6
:103B940003940290019100933346054A0021099849
:103BA40008F018FA00BF12B070BD00BFDC1A0300A1
:103BB400441E030000B587B003900291019205F002
:103BC40007F90590059B002B09D0074A059B52F87D
:103BD4002330064A0221039808F0FCF900E000BFF4
:103BE40000BF07B05DF804FBBC210020C41E030025
:103BF4003EDF704700BF184600B583B001904E4BBE
:103C04005B68022B14D94C4B1B881B0443F0030044
:103C1400019B1B781A46494B53F822301946019BE5
:103C24005B68474A52F823300A4646490BF0F7FED0
:103C3400019B1B78032B40D0032B73DC002B02D099
:103C4400012B08D06EE0019B5B68002B6CD13E4BCE
:103C540001221A7068E0019B5B68002B66D1364B29
:103C64005B68022B0AD9344B1B881B0443F0030006
:103C7400019B9B681A4635490BF0C0FE2E4B5B68CE
:103C8400022B0AD92C4B1B881B0443F00300019B15
:103C94009B891A462E490BF0B1FE274B5B68022B19
:103CA40044D9254B1B881B0443F00300019BDB898B
:103CB4001A4628490BF0A2FE38E0019B5B68002BF2
:103CC4002CD11D4B5B68022B0AD91B4B1B881B0490
:103CD40043F00300019B9B681A461C490BF08EFEBF
:103CE400154B5B68022B0AD9134B1B881B0443F04A
:103CF4000300019B9B891A4615490BF07FFE0E4B6E
:103D04005B68022B0AD90C4B1B881B0443F003008D
:103D1400019BDB891A460F490BF070FE0E4B002203
:103D24005A7004E000BF02E000BF00E000BF00BF23
:103D340003B05DF804FB00BF2C210020FC2100200F
:103D4400BC210020D82303007E270020F823030091
:103D54000C2403001C2403007C270020024B0122B6
:103D64001A7000BF704700BF7C27002008B51A4BAB
:103D74001B781A46184B5B7883F00103DBB21340BF
:103D8400002B26D0154B5B68022B08D9134B1B88DC
:103D94001B0443F00303124918460BF021FEFFF7FE
:103DA40007FC03461A460C4B1A700B4B1B7883F026
:103DB4000103DBB2002B0CD0084B5B68022B08D943
:103DC400064B1B881B0443F00303064918460BF0FB
:103DD40007FE00BF08BD00BF7C2700202C21002067
:103DE400302403004824030000B587B00CF0E4FE3F
:103DF4000590059B0493049B002B04D0134ACE2109
:103E0400049802F0EBF801AB194601200CF0CEFF48
:103E14000590059B0393039B002B04D00B4AD121EF
:103E2400039802F0DBF801AB18460DF0BBF80590DF
:103E3400059B0293029B002B04D0044AD4210298D0
:103E440002F0CCF800BF07B05DF804FB6C2403005B
:103E540000B583B002F036FF0190019B0093009BF4
:103E6400002B04D0044AE921009802F0B7F800BFFF
:103E740003B05DF804FB00BF6C24030000B583B0FD
:103E840000200BF05DFA0190019B0093009B002B36
:103E940004D0044AF121009802F0A0F800BF03B056
:103EA4005DF804FB6C24030008B5FFF7A1FE00BF16
:103EB40008BD000008B501E0FFF7F6FF054B1B78CD
:103EC400DBB283F00103DBB2002BF5D100BF00BFEE
:103ED40008BD00BF7E27002000B595B0FFF784FF22
:103EE400FFF7B6FFFFF7CAFFFFF71CFAA34B5B68A7
:103EF400022B08D9A14B1B881B0443F00303A049E0
:103F040018460BF06DFD9F4804F076FD9B4B5B68F3
:103F1400022B08D9994B1B881B0443F003039A49CD
:103F240018460BF05DFD04F0D5FD1390139B12931E
:103F3400129B002B05D0954A4FF49071129802F011
:103F44004DF8FFF7B7FF8D4B5B68022B08D98B4BFD
:103F54001B881B0443F003038D4918460BF040FDF6
:103F6400864B5B68022B08D9844B1B881B0443F0E7
:103F74000303884918460BF033FD804B5B68022B22
:103F840008D97E4B1B881B0443F00303824918465F
:103F94000BF026FD794B5B68022B08D9774B1B8805
:103FA4001B0443F003037D4918460BF019FD734BC2
:103FB4005B68022B08D9714B1B881B0443F0030375
:103FC400774918460BF00CFD6C4B5B68022B08D943
:103FD4006A4B1B881B0443F00303724918460BF019
:103FE400FFFC664B5B68022B08D9644B1B881B04DF
:103FF40043F003036C4918460BF0F2FC5F4B5B681B
:10400400022B08D95D4B1B881B0443F0030367494B
:1040140018460BF0E5FC594B5B68022B08D9574B4B
:104024001B881B0443F00303614918460BF0D8FCBA
:10403400524B5B68022B08D9504B1B881B0443F07E
:1040440003035C4918460BF0CBFC08AB00221A6052
:104054005A609A60DA601A8208AB184604F00EFFC0
:104064001390139B1193119B002B05D0474A4FF4D7
:104074009A71119801F0B2FF404B5B68022B0AD988
:104084003E4B1B881B0443F00303BDF824204A491C
:1040940018460BF0B3FC394B5B68022B0AD9374B3B
:1040A4001B881B0443F00303BDF82620434918462C
:1040B4000BF0A4FC05AB00221A605A609A6003ABB3
:1040C40000221A605A6003AB05AA47F210014FF2AE
:1040D400100004F0BCFE1390139B002B7AD101ABAB
:1040E40000221A605A6001AA05AB1146184604F072
:1040F40081FD1390139B0F930F9B002B05D0234A34
:1041040040F245110F9801F069FF029B18221946ED
:104114002B480DF0EBFA194B5B68022B0AD9174BAD
:104124001B881B0443F00303254A126825491846DB
:104134000BF064FC224B1B680133214A136005AB6E
:10414400184604F0A5FD1390139B0E930E9B002BB1
:1041540005D00E4A40F251110E9801F03FFF05AB15
:104164001949184604F0EBFD1390139B0D930D9B16
:10417400002B4DD0054A40F2551127E02C21002098
:10418400BC240300FD3B0200D42403006C24030080
:10419400E8240300FC240300182503003C25030045
:1041A4005C2503007425030090250300AC2503005F
:1041B400CC250300EC250300102603002826030069
:1041C4001422002060260300A82603000D9801F0A5
:1041D40005FF1DE0174B5B68022B08D9154B1B88A4
:1041E4001B0443F00303144918460BF0F9FB05AB19
:1041F4001249184604F094FD1390139B1093109BDE
:10420400002B05D00E4A40F25D11109801F0E6FE35
:10421400FFF7B6F80BF03EFC034683F00103DBB274
:10422400002B01D0FFF740FEFFF7C2F8FFF79EFD19
:10423400F0E700BF2C21002090260300A8260300ED
:104244006C240300BFF34F8F00BF074BDB6803F4FC
:10425400E0620549054B1343CB60BFF34F8F00BFAA
:1042640000BF00BFFCE700BF00ED00E00400FA055A
:10427400024B034A1A6000BF704700BF2C22002083
:104284000090D00308B500F05DF90346002B06D07A
:104294009B4B1B681B0A9B4A03F01F03136000F02F
:1042A4007DF90346002B02D0974B984A1A6000F020
:1042B40091F90346002B06D0954B1B685B0B954A7E
:1042C40003F00703136000F0B1F90346002B05D097
:1042D400914BDB68904A23F08073D36000F0C2F9FD
:1042E4000346002B0ED04FF080430022C3F80C216C
:1042F4004FF080430022C3F810214FF08043002286
:10430400C3F8382500F0DAF90346002B02D0834BBA
:1043140003221A6000F0EEF90346002B0BD0804B09
:1043240005221A607F4B01221A607F4B00221A601B
:104334007E4B3F221A6000F0F9F90346002B76D039
:104344004FF080537A4AD3F80434C2F820354FF042
:104354008053774AD3F80834C2F824354FF0805399
:10436400734AD3F80C34C2F828354FF08053704A9E
:10437400D3F81034C2F82C354FF080536C4AD3F87C
:104384001434C2F830354FF08053694AD3F81834E6
:10439400C2F834354FF08053654AD3F81C34C2F860
:1043A40040354FF08053624AD3F82034C2F8443584
:1043B4004FF080535E4AD3F82434C2F848354FF0A6
:1043C40080535B4AD3F82834C2F84C354FF08053FD
:1043D400574AD3F82C34C2F850354FF08053544A1E
:1043E400D3F83034C2F854354FF08053504AD3F8E0
:1043F4003434C2F860354FF080534D4AD3F8383422
:10440400C2F864354FF08053494AD3F83C34C2F8BB
:1044140068354FF08053464AD3F84034C2F86C35BF
:104424004FF08053424AD3F84434C2F8703500F058
:1044340099F90346002B05D03E4B1B683E4A03F016
:104444004F03136000F0BAF90346002B0DD04FF070
:104454008043D3F8003403F00103002B05D04FF060
:1044640080436FF00102C3F80024344BD3F8883042
:10447400324A43F47003C2F88830BFF34F8F00BF51
:10448400BFF36F8F00BF4FF01023D3F80032002B1F
:1044940005DB4FF01023D3F80432002B2BDA284B22
:1044A4000122C3F8042500BF254BD3F80034002BA8
:1044B400FAD04FF010231522C3F8002200BF204B7E
:1044C400D3F80034002BFAD04FF010231522C3F890
:1044D400042200BF1A4BD3F80034002BFAD0184B37
:1044E4000022C3F8042500BF154BD3F80034002B79
:1044F400FAD0FFF7A7FEFFF7BBFE00BF08BD00BF61
:10450400240300104035014074C007400DF0ADBADB
:10451400440200103C050040F0ED00E0A00500401E
:10452400105600408856004018560040145600406B
:1045340000C0004058020010E40E004000ED00E00E
:1045440000E00140124B1B68DBB2062B1DD1114B5E
:104554001B6803F00F03002B17D10F4B1B6803F0EC
:10456400F003302B01D1012310E00B4B1B6803F047
:10457400F003402B01D1012308E0074B1B6803F033
:10458400F003502B01D1012300E0002318467047AB
:10459400E00F00F0E40F00F0E80F00F00A4B1B6896
:1045A400DBB2062B0DD1094B1B6803F00F03002B64
:1045B40007D1074B1B6803F0F003302B01D1012313
:1045C40000E0002318467047E00F00F0E40F00F00D
:1045D400E80F00F0124B1B68DBB2062B1DD1114B08
:1045E4001B6803F00F03002B17D10F4B1B6803F05C
:1045F400F003302B01D1012310E00B4B1B6803F0B7
:10460400F003402B01D1012308E0074B1B6803F0A2
:10461400F003502B01D1012300E00023184670471A
:10462400E00F00F0E40F00F0E80F00F00A4B1B6805
:10463400DBB2062B0DD1094B1B6803F00F03002BD3
:1046440007D1074B1B6803F0F003302B01D1012382
:1046540000E0002318467047E00F00F0E40F00F07C
:10466400E80F00F0124B1B68DBB2062B1DD1114B77
:104674001B6803F00F03002B17D10F4B1B6803F0CB
:10468400F003302B01D1012310E00B4B1B6803F026
:10469400F003402B01D1012308E0074B1B6803F012
:1046A400F003502B01D1012300E00023184670478A
:1046B400E00F00F0E40F00F0E80F00F00A4B1B6875
:1046C400DBB2062B0DD1094B1B6803F00F03002B43
:1046D40007D1074B1B6803F0F003302B01D10123F2
:1046E40000E0002318467047E00F00F0E40F00F0EC
:1046F400E80F00F00A4B1B68DBB2062B0DD1094B07
:104704001B6803F00F03002B07D1074B1B6803F052
:10471400F003302B01D1012300E000231846704739
:10472400E00F00F0E40F00F0E80F00F00A4B1B6804
:10473400DBB2062B0DD1094B1B6803F00F03002BD2
:1047440007D1074B1B6803F0F003502B01D1012361
:1047540000E0002318467047E00F00F0E40F00F07B
:10476400E80F00F0124B1B68DBB2062B1DD1114B76
:104774001B6803F00F03002B17D10F4B1B6803F0CA
:10478400F003302B01D1012310E00B4B1B6803F025
:10479400F003402B01D1012308E0074B1B6803F011
:1047A400F003502B01D1012300E000231846704789
:1047B400E00F00F0E40F00F0E80F00F0124B1B686C
:1047C400DBB2062B1DD1114B1B6803F00F03002B2A
:1047D40017D10F4B1B6803F0F003302B01D10123D9
:1047E40010E00B4B1B6803F0F003402B01D10123B5
:1047F40008E0074B1B6803F0F003502B01D10123A1
:1048040000E0002318467047E00F00F0E40F00F0CA
:10481400E80F00F082B003468DF807309DF80730AA
:1048240003F01F0205499DF907305B09012000FAD6
:1048340002F241F8232000BF02B0704700E100E01B
:1048440082B003468DF807309DF8073003F01F024D
:1048540006499DF907305B09012000FA02F2603332
:1048640041F8232000BF02B0704700BF00E100E020
:1048740082B0034600918DF807309DF90730002B74
:104884000CDA009BDAB20C499DF8073003F00F03F1
:10489400043B5201D2B20B441A7609E0009BDAB20F
:1048A40006499DF907305201D2B20B4483F8002324
:1048B40000BF02B0704700BF00ED00E000E100E07F
:1048C40000B583B003460A468DF8073013468DF8C9
:1048D40006309DF80630012B03D99DF80630032BD2
:1048E4000CD99DF80630042B03D99DF80630072B0C
:1048F40004D90D494FF4927004F06CFB9DF8062026
:104904009DF9073011461846FFF7B2FF9DF90730AD
:104914001846FFF795FF9DF907301846FFF77AFF11
:1049240000BF03B05DF804FBB426030082B0034665
:104934008DF807309DF8073003F01F0206499DF9F2
:1049440007305B09012000FA02F2203341F82320EA
:1049540000BF02B0704700BF00E100E084B00190E6
:104964000B46ADF80230BDF80230019A1344002220
:104974001A60BDF80230019A13441B680393039B29
:1049840000BF04B0704782B001900B46ADF802300E
:10499400BDF80230019A13441B68002B14BF012395
:1049A4000023DBB2184602B0704782B00190009138
:1049B400019B009AC3F8042300BF02B0704782B081
:1049C40001900091019BD3F80423009B1340002B1A
:1049D40014BF01230023DBB2184602B0704782B033
:1049E40001900091019B009AC3F8082300BF02B014
:1049F400704784B00190019BD3F880340393019BEA
:104A0400039AC3F88024039B184604B0704782B00D
:104A14000190019B0422C3F8002500BF02B0704737
:104A240082B00190019B0022C3F8002500BF02B0B0
:104A3400704784B0039002910192039B019AC3F8DA
:104A44001425039B029AC3F80C2500BF04B07047D9
:104A540000B583B001904FF0FF324FF0FF31019861
:104A6400FFF7E7FF00BF03B05DF804FB82B00190DD
:104A7400019BD3F80C35184602B0704782B0019000
:104A8400019BD3F81435184602B0704782B00190E8
:104A9400019BD3F80835184602B0704782B00190E4
:104AA400019BD3F81035184602B0704784B00390C8
:104AB40002910192039B029AC3F80825039B019A71
:104AC400C3F8102500BF04B0704700B583B001904F
:104AD4004FF0FF324FF0FF310198FFF7E7FF00BFBF
:104AE40003B05DF804FB82B00190019BD3F8183544
:104AF400DBB2184602B0704782B001900B468DF8C5
:104B040003309DF80320019BC3F81C2500BF02B0AD
:104B1400704782B001900B468DF803309DF8033046
:104B2400019A134401221A6000BF02B0704782B098
:104B340001900B468DF8033013468DF802309DF832
:104B440003209DF802301343DBB21A46019BC3F8DD
:104B54006C2500BF02B0704782B001900091019BA8
:104B6400009AC3F8242500BF02B0704784B00190B6
:104B74000B46ADF80230BDF80230019A134400220E
:104B84001A60BDF80230019A13441B680393039B17
:104B940000BF04B0704782B001900B46ADF80230FC
:104BA400BDF80230019A13441B68002B14BF012383
:104BB4000023DBB2184602B0704782B00190009126
:104BC400019BD3F80022009B1A43019BC3F80022E7
:104BD40000BF02B0704782B001900091019BD3F8EE
:104BE4000022009BDB431A40019BC3F8002200BF54
:104BF40002B0704782B001900091019B009AC3F803
:104C0400042300BF02B0704782B001900091019B61
:104C1400009AC3F8082300BF02B0704784B0019023
:104C2400019BD3F880340393019B039AC3F8802437
:104C3400039B184604B0704782B00190019B082280
:104C4400C3F8002500BF02B0704782B00190019BF9
:104C54000022C3F8002500BF02B0704784B003905F
:104C640002910192039B029AC3F80C25039B019ABB
:104C7400C3F8142500BF04B0704700B583B0019099
:104C84004FF0FF324FF0FF310198FFF7E7FF00BF0D
:104C940003B05DF804FB82B00190019BD3F80C359E
:104CA400184602B0704782B00190019BD3F81435C6
:104CB400184602B0704782B00190019BD3F80835C2
:104CC400184602B0704782B00190019BD3F81035AA
:104CD400184602B0704784B0039002910192039B7E
:104CE400029AC3F80825039B019AC3F8102500BF54
:104CF40004B0704700B583B001904FF0FF324FF01D
:104D0400FF310198FFF7E7FF00BF03B05DF804FB34
:104D140082B001900B468DF803309DF80330019A60
:104D2400134401221A6000BF02B0704782B00190A0
:104D34000B468DF8033013468DF802309DF803209E
:104D44009DF802301343DBB21A46019BC3F86C256D
:104D540000BF02B0704782B001900091019B009A9D
:104D6400C3F8242500BF02B0704784B003900291B9
:104D740013468DF80730029A039BC3F844259DF827
:104D84000720039BC3F8482500BF04B0704782B0D6
:104D94000190019BD3F84C35184602B0704784B09B
:104DA4000390029113468DF80730029A039BC3F8CF
:104DB40034259DF80720039BC3F8382500BF04B0B1
:104DC400704782B00190019BD3F83C35184602B07D
:104DD400704700B583B003468DF807309DF907305E
:104DE4001846FFF7A3FD00BF03B05DF804FB84B0D1
:104DF4000190019B1B0B8DF80F309DF90F30184665
:104E040004B0704782B00190019B03F06043B3F19A
:104E1400005F0CBF01230023DBB2184602B07047C9
:104E240000B583B00190019B1B681F2B04D9054971
:104E34004FF4E87004F0CEF84FF0A043184603B0E6
:104E44005DF804FB1027030000B585B00190084607
:104E540011461A4603468DF803300B468DF802308E
:104E640013468DF8013001AB1846FFF7D9FF0390C4
:104E74009DF803209DF802305B001A439DF8013031
:104E84009B001A439DF818301B0242EA03019DF867
:104E94001C301B04019A1943039B02F5E07243F88A
:104EA400221000BF05B05DF804FB00B585B0039087
:104EB400002301930023009300230122012103987E
:104EC400FFF7C2FF00BF05B05DF804FB00B585B075
:104ED40003900B468DF80B309DF80B3000220192A5
:104EE40000220092002200210398FFF7ADFF00BFCB
:104EF40005B05DF804FB00B585B003900023019371
:104F0400002300930023012200210398FFF79CFF54
:104F140000BF05B05DF804FB00B585B0019001AB9E
:104F24001846FFF77DFF0390019B012202FA03F369
:104F34001946039800F004F800BF05B05DF804FBBF
:104F440082B001900091019B009AC3F8082500BF2C
:104F540002B0704700B583B001900091009B1B68BC
:104F6400B3F1FF3F09D0009B1B681846FFF7D4FF3D
:104F7400009B1B681846FFF798FF009B5B68B3F122
:104F8400FF3F05D0009B5B6800211846FFF79EFF9A
:104F9400019B1B79464A5B0113441C331B78002B8D
:104FA40041D0019B1A68009B9B6919461046FFF784
:104FB400D2FE019B1868009B597D009B1B7D1A46FD
:104FC400FFF7B4FE019B1868009B1968009B5B689F
:104FD4001A46FFF743FE009B1B7D012B64D1009B07
:104FE4009B68B3F1FF3F05D0009B9B6800211846E6
:104FF400FFF76CFF009BDB68B3F1FF3F09D0009B18
:10500400DB681846FFF788FF009BDB681846FFF74C
:105014004CFF019B1868009BD968009B9B681A464B
:10502400FFF759FE40E0019B1A68009B9B691946F3
:105034001046FFF791FD019B1868009B597D009B6A
:105044001B7D1A46FFF773FD019B1868009B1968C6
:10505400009B5B681A46FFF7ECFC009B1B7D012B51
:1050640022D1009B9B68B3F1FF3F05D0009B9B6856
:1050740000211846FFF72AFF009BDB68B3F1FF3FCE
:1050840009D0009BDB681846FFF746FF009BDB68EE
:105094001846FFF70AFF019B1868009BD968009B1C
:1050A4009B681A46FFF702FD00BF03B05DF804FBDE
:1050B4008027002000B583B001900B468DF80330A3
:1050C400019B1B792D4A5B0113441C331B78002B75
:1050D4002FD0019B1B684FF488711846FFF746FDDB
:1050E400019B1B684FF490711846FFF73FFD019B2D
:1050F4001B684FF492711846FFF738FD019B1B683B
:105104004FF4A2711846FFF731FD019B1B681C493F
:105114001846FFF76FFD019B1B681846FFF767FEF3
:1051240003461A469DF8033019461046FFF7C8FB9C
:1051340020E0019B1B684FF48E711846FFF70EFCAC
:10514400019B1B684FF4A2711846FFF707FC019BF3
:105154001B680C491846FFF728FC019B1B6818467E
:10516400FFF745FE03461A469DF8033019461046DC
:10517400FFF7A6FB00BF03B05DF804FB8027002007
:10518400100302008000020000B583B00190019B6F
:105194001B79154A5B0113441C331B78002B0FD079
:1051A400019B1B6811491846FFF72EFD019B1B68E4
:1051B4001846FFF71CFE03461846FFF70AFE0EE0EA
:1051C400019B1B680A491846FFF709FC019B1B68F1
:1051D4001846FFF70CFE03461846FFF7FAFD00BF1A
:1051E40003B05DF804FB00BF802700201003020019
:1051F4008402020000B587B00190019B1B79364AF6
:105204005B0113441C331B78002B22D0019B1B68C9
:105214001846FFF740FD0590019B1B681846FFF7F1
:1052240042FD0490019B1B681846FFF744FD039060
:10523400019B1B681846FFF746FD0290019B1B6803
:105244001846FFF71AFD019B1B681846FFF752FD2D
:1052540021E0019B1B681846FFF708FC0590019BA1
:105264001B681846FFF70AFC0490019B1B6818464C
:10527400FFF70CFC0390019B1B681846FFF70EFC1C
:105284000290019B1B681846FFF7E2FB019B1B6819
:105294001846FFF71AFC059BB3F1FF3F02D00598AF
:1052A400FFF729FE049BB3F1FF3F02D00498FFF7F8
:1052B40022FE029BB3F1FF3F02D00298FFF71BFED0
:1052C400039BB3F1FF3F02D00398FFF714FE00BF26
:1052D40007B05DF804FB00BF8027002000B583B051
:1052E4000190019B1B790B4A5B0113441C331B780F
:1052F400002B05D0019B1B681846FFF79DFC04E0BA
:10530400019B1B681846FFF782FB00BF03B05DF8E2
:1053140004FB00BF8027002000B583B00190019BEF
:105324001B790B4A5B0113441C331B78002B05D0FB
:10533400019B1B681846FFF788FC04E0019B1B686F
:105344001846FFF76DFB00BF03B05DF804FB00BF18
:105354008027002000B587B0039002910192029B40
:10536400002B04D122494FF4887003F033FE039BD1
:105374001B795B011F4A1344059300230493059B87
:10538400DB7E002B03D008230493049B2BE0029BB9
:105394005A7F059B1A7702990398FFF7DBFD059B5B
:1053A400019A5A60029B1A69059B1A60059B5B6807
:1053B400002B05D0029B1B7F19460398FFF77AFE4A
:1053C4000398FFF78BFF059B0022DA75059B0022EB
:1053D4001A76059B00229A75059B0122DA76059BB5
:1053E40000229A76049B184607B05DF804FB00BFC0
:1053F400502703008027002000B585B00190019B51
:105404001B795B010C4A134403930198FFF784FF53
:10541400039B5B68002B02D00198FFF7B5FE01984F
:10542400FFF7E8FE039B0022DA76039B00225A6012
:1054340000BF05B05DF804FB8027002000B585B0EF
:10544400019000914FF48E710198FFF787FA009B49
:105454009B68009A928A92B213441B788DF80F309D
:10546400009B9B8A9BB201339AB2009B9A829DF85F
:105474000F3019460198FFF73FFB00BF05B05DF8F8
:1054840004FB000000B585B00190019B1B795B0112
:10549400344A1344029300230393019B1B684FF483
:1054A4008E711846FFF75AFA019B1B6808211846AB
:1054B400FFF72FFB019B1B6802991846FFF7BEFFFD
:1054C400029B5B68002B47D11FE000BF019B1B6858
:1054D4004FF48E711846FFF756FA034683F0010322
:1054E400DBB2002B05D0029B9B8A9BB2B3F5807F75
:1054F400ECD1029B9B8A9BB2B3F5807F05D0019BC4
:105504001B6802991846FFF799FF029B9B8A9BB27E
:10551400029A927D9342D8D3029B9B8A9BB2B3F5A5
:10552400807F02D10F23039313E000BF019B1B680C
:105534004FF48E711846FFF726FA034683F00103F1
:10554400DBB2002BF2D1019B1B680C211846FFF73C
:10555400E0FA029B00229A75039B184605B05DF899
:1055640004FB00BF8027002000B587B00190019B99
:105574001B795B012A4A1344049300230593019B7E
:105584001B684FF490711846FFF7F0FA019B1B68F3
:105594004FF4AC711846FFF7E9FA019B1868049BB5
:1055A4009968049B9B7D1A46FFF7DFFB019B1B68F0
:1055B40008211846FFF7ACFB049B5B68002B2AD13B
:1055C400019B1B684FF490711846FFF7E4FA0346F9
:1055D4008DF80F30019B1B684FF4AC711846FFF730
:1055E400DAFA03468DF80E309DF80F3083F001038C
:1055F400DBB2002B06D09DF80E3083F00103DBB242
:10560400002BDDD19DF80E30002B01D00F23059324
:10561400049B00229A75059B184607B05DF804FBAD
:105624008027002000B587B00390029113468DF8BF
:105634000730039B1B795B012E4A13440493049B9C
:10564400DB7E012B04D02C494FF4CC7003F0C2FC58
:105654009DF80730002B04D1274940F2991003F03C
:10566400B9FC029B002B04D123494FF4CD7003F005
:10567400B1FC039B1B791F4A5B0113441C331B7849
:10568400002B0CD00298FFF7BDFB034683F0010307
:10569400DBB2002B03D010230593059B25E0039870
:1056A40000F02CF80346002B03D011230593059B2F
:1056B4001BE0049B9DF807209A75049B029A9A604C
:1056C400049B00229A82039B1B790A4A5B011344C0
:1056D4001C331B78002B04D00398FFF745FF0346C7
:1056E40003E00398FFF7CEFE0346184607B05DF8C3
:1056F40004FB00BF802700205027030082B00190E4
:10570400019B1B79064A5B01134416331B78002B5B
:1057140014BF01230023DBB2184602B0704700BF58
:105724008027002000B583B00190019B1B684FF4D3
:1057340092711846FFF712F9019B1B684FF48471AC
:105744001846FFF70BF9019B1B6800211846FFF769
:10575400E0F900BF03B05DF804FB10B582B001901E
:105764000091009BDB7D002B08D14FF484710198DC
:10577400FFF7F4F80198FFF7B6F916E04FF48471D7
:105784000198FFF7EBF8009BDB68009A527ED2B2D7
:105794009C180198FFF7A7F903462370009B5B7ED2
:1057A400DBB20133DAB2009B5A7602B010BD0000BE
:1057B40000B589B00390029111461A460B468DF844
:1057C400073013468DF80630039B1B795B014D4A65
:1057D40013440793079B9B7E83F00103DBB2002BEA
:1057E40009D09DF8063083F00103DBB2002B02D010
:1057F4000398FFF797FF079B5B68002B73D1039B0C
:105804001B684FF4A2711846FFF7A8F8039B1B68A6
:105814004FF492711846FFF7B6F803468DF81B3023
:10582400039B1B684FF484711846FFF7ACF80346DA
:105834008DF81A30039B1B684FF4A2711846FFF7CA
:10584400A2F803468DF819309DF81A3083F001034D
:10585400DBB2002B0DD09DF8193083F00103DBB2CD
:10586400002B06D09DF81B3083F00103DBB2002B24
:10587400CCD19DF81B30002B10D19DF81930002B92
:105884000CD1039B1B6807991846FFF766FF079B1B
:10589400DA7D079B5B7EDBB29A42B7D8079B002276
:1058A400DA759DF81B30002B03D003230593059B69
:1058B40023E09DF81930002B03D00F230593059B9B
:1058C4001BE0079B9B7E002B06D0039B1B680021DB
:1058D4001846FFF71EF90DE0039B1B6804211846C8
:1058E400FFF717F906E0039B1B684FF40171184694
:1058F400FFF75BF800230593059B184609B05DF894
:1059040004FB00BF8027002000B587B003900291FC
:1059140011461A460B468DF8073013468DF80630AB
:1059240000230593039B1B684FF488711846FFF707
:105934001DF9039B1B684FF4A2711846FFF716F973
:10594400039B1B689DF8072002991846FFF727FA66
:105954009DF8063083F00103DBB2002B06D0039BD5
:105964001B6800211846FFF7D3F905E0039B1B6869
:1059740020211846FFF721F9039B1B792D4A5B016F
:10598400134404331B68002B47D1039B1B684FF45B
:1059940088711846FFF7FFF803468DF81330039B10
:1059A4001B684FF4A2711846FFF7F5F803468DF80B
:1059B4001230039B1B684FF492711846FFF7EBF803
:1059C40003468DF811309DF8133083F00103DBB2E8
:1059D400002B0DD09DF8123083F00103DBB2002BB5
:1059E40006D09DF8113083F00103DBB2002BCCD13B
:1059F400039B1B790F4A5B011344173300221A706F
:105A04009DF81130002B01D0032305939DF812302B
:105A1400002B09D00F23059306E0039B1B684FF46A
:105A240004711846FFF7E6F8059B184607B05DF8C1
:105A340004FB00BF8027002000B589B003900291C9
:105A440013468DF80730039B1B795B015A4A1344B4
:105A54000593039B1B79584A5B0113441B331B7842
:105A6400012B04D055494FF4167003F0B3FA9DF896
:105A74000730002B04D1514940F2592003F0AAFA0F
:105A8400039B1B794C4A5B0113441C331B78002B8A
:105A94000CD00298FFF7B6F9034683F00103DBB29A
:105AA400002B03D010230793079B81E000238DF87C
:105AB4001B30059B5B68002B17D0039B1B793E4A68
:105AC4005B0113441C331B78002B07D0039B1B681A
:105AD4004FF404711846FFF797F806E0039B1B6820
:105AE4004FF401711846FEF77AFF059BDB7D002B0E
:105AF40026D0059B1B7E002B1FD0059B5B68002BCB
:105B040017D0039B1B792C4A5B0113441C331B786D
:105B1400002B07D0039B1B684FF404711846FFF752
:105B240069F806E0039B1B684FF401711846FEF701
:105B34003CFF11230793079B3AE001238DF81B30A8
:105B44009DF81B3083F00103DBB2002B0DD0059BC5
:105B54009DF80720DA75059B029ADA60059B0022FE
:105B64005A76059B00221A7606E0059B029A1A6172
:105B7400059B9DF807201A76039B1B790E4A5B014F
:105B840013441C331B78002B09D09DF81B309DF85F
:105B9400072002990398FFF7B7FE034608E09DF833
:105BA4001B309DF8072002990398FFF701FE034676
:105BB400184609B05DF804FB802700205027030035
:105BC40000B589B003900B4601928DF80B30012388
:105BD4008DF810309DF80B308DF81830019B05932B
:105BE400039B5B68039A116804AA1046984700BF98
:105BF40009B05DF804FB00B587B001900B468DF841
:105C0400033000238DF808309DF803308DF81030F0
:105C1400019B9B680393019B00229A75019B5B681F
:105C2400019A116802AA1046984700BF07B05DF8B0
:105C340004FB000000B583B00190019B1B790F4A5F
:105C44005B0113441C331B78002B06D0019B1B689B
:105C540004211846FFF75CF80CE0019B1B684FF425
:105C640001711846FEF7BBFE019B1B680421184610
:105C7400FEF74FFF00BF03B05DF804FB8027002050
:105C840000B589B0019000914FF400710198FEF7BE
:105C940096FE0346002B39D04FF492710198FEF71B
:105CA40072FE0346002B31D04FF492710198FEF737
:105CB40055FE4FF401710198FEF791FE009B9B7E07
:105CC40083F00103DBB2002B03D004210198FEF71B
:105CD40020FF02238DF808300198FEF78AFE034660
:105CE4000593009BDB7D8DF81030009BDB680393EC
:105CF400009B0022DA75009B00221A76009B5B68E9
:105D0400009A116802AA1046984756E004210198A7
:105D1400FEF755FE0346002B4FD04FF484710198D3
:105D2400FEF731FE0346002B47D000990198FFF798
:105D340014FD009BDA7D009B5B7EDBB29A423CD172
:105D4400009B1B7E002B1CD0009BDB680793009BF1
:105D54005B7E8DF81B30009B1A7E009BDA75009BDE
:105D64001A69009BDA60009B00221A76009B0022CD
:105D74005A769DF81B30079A19460098FFF720FFC2
:105D84001BE0009B9B7E83F00103DBB2002B03D05E
:105D940004210198FEF7BDFE4FF401710198FEF74E
:105DA4001EFE009B0022DA75009B5B7ED9B2009B2D
:105DB400DB681A460098FFF703FF4FF48E710198D1
:105DC400FEF7E1FD0346002B1AD0009B9B8A9BB291
:105DD400009A927D934204D200990198FFF72EFB1A
:105DE4000EE04FF48E710198FEF7B8FD009B9B7D89
:105DF400002B05D0009B9B7D19460098FFF7FBFE06
:105E04004FF4A2710198FEF7BEFD0346002B1CD08F
:105E14004FF4A2710198FEF7A1FD009B9B7E002B1D
:105E240003D000210198FEF774FE009BDB7D002B5C
:105E34000BD0009B0022DA75009B5B7ED9B2009BDD
:105E4400DB681A460098FFF7BBFE00BF09B05DF897
:105E540004FB00B589B0019000914FF49271019850
:105E6400FEF799FE0346002B24D04FF4927101985B
:105E7400FEF77CFE02238DF808300198FEF7CEFE73
:105E8400034605930198FEF79CFF0346DBB28DF8A9
:105E94001030009BDB680393009B0022DA75009BA3
:105EA40000221A76009B5B68009A116802AA1046C9
:105EB400984741E04FF488710198FEF76CFE034661
:105EC400002B39D04FF488710198FEF74FFE0198EA
:105ED400FEF777FF03468DF81F30009BDB7D9DF8AE
:105EE4001F209A4228D1009B1B7E002B19D0009BB7
:105EF400DB68069320210198FEF76DFE009B1A7E55
:105F0400009BDA75009B1A69009BDA60009B0022F3
:105F14001A769DF81F30069A19460098FFF750FE2E
:105F24000AE0009B0022DA75009BDA689DF81F30B6
:105F340019460098FFF744FE4FF4A2710198FEF74A
:105F44002AFE0346002B16D04FF4A2710198FEF7E7
:105F54000DFE009BDB7D002B0DD0009B0022DA752B
:105F64000198FEF72EFF0346D9B2009BDB681A4660
:105F74000098FFF725FE4FF490710198FEF70BFE91
:105F84000346002B11D04FF490710198FEF7EEFDFB
:105F9400009B9B7D002B08D00198FEF7F8FE03467A
:105FA400DBB219460098FFF726FE00BF09B05DF882
:105FB40004FB000008B5074B1B7F002B04D00549E8
:105FC4000548FFF746FF03E002490348FFF758FE80
:105FD40000BF08BD802700200020004000B589B024
:105FE400039002910192029B9BB2ADF81430019B85
:105FF4000693039B079305AB1A46002144F2010064
:1060040000F052F800BF09B05DF804FB86B00390BD
:106014000291019201238DF817309DF81730214A1F
:10602400039B13601F4A029B53601E4A019B9360AB
:10603400039B44F20102934213D0039B44F20202F5
:10604400934222D1019B174AD360164BDB681B880D
:106054001A46144B9A61134BDB685B68114AD3618F
:1060640013E0019B0F4A13610E4B1B699B680D4A99
:1060740053610C4B1B691B881A460A4B9A61094BE6
:106084001B695B68074AD36100BF72B600BF00BFDB
:106094009DF81730DBB2002BFAD162B600BF00BF07
:1060A40006B07047A027002030B589B00590049150
:1060B400039209F065FF09F0EDFC0346002BFAD1C9
:1060C400059B44F20202934233D0059B44F2020240
:1060D400934264D8059B44F2010293423DD0059B50
:1060E40044F2010293425AD8059B012B05D0059B2B
:1060F40041F2010293420ED051E03C4B5B68002B0D
:106104005CD03A4B1B881B0443F001033849184602
:1061140009F066FC52E0354B5B68002B50D0334BE2
:106124001B881B0443F001033249184609F058FC4C
:1061340046E0039B07932D4B5B68002B42D02B4B0F
:106144001B881B0443F00100079B5B681A46079BEE
:106154001B88294909F063FC34E0039B0693234B15
:106164005B68002B30D0214B1B881B0443F00104D7
:10617400069B9D68069B9B68184609F00DF803462C
:106184001946069B5B681A46069B1B88019300927E
:106194000B462A461949204609F055FC14E0134BD6
:1061A4005B68002B12D0114B1B881B0443F00103C6
:1061B400049A1349184609F021FC07E000BF06E0E1
:1061C40000BF04E000BF02E000BF00E000BF0D4BD1
:1061D4001B6803F00103002B00D0FFDE039A04992F
:1061E4000598FFF713FF00BF09B030BD2C21002034
:1061F400A8270300C8270300EC270300082803008E
:1062040020280300F0ED00E082B003468DF807304B
:106214009DF8073003F01F0205499DF907305B091B
:10622400012000FA02F241F8232000BF02B07047B7
:1062340000E100E082B003468DF807309DF8073096
:1062440003F01F0206499DF907305B09012000FA9B
:1062540002F2203341F8232000BF02B0704700BF90
:1062640000E100E082B003468DF807309DF8073066
:1062740003F01F0206499DF907305B09012000FA6B
:1062840002F2403341F8232000BF02B0704700BF40
:1062940000E100E082B003468DF807309DF8073036
:1062A40003F01F0206499DF907305B09012000FA3B
:1062B40002F2603341F8232000BF02B0704700BFF0
:1062C40000E100E082B0034600918DF807309DF9AB
:1062D4000730002B0CDA009BDAB20C499DF807302A
:1062E40003F00F03043B5201D2B20B441A7609E0C7
:1062F400009BDAB206499DF907305201D2B20B4431
:1063040083F8002300BF02B0704700BF00ED00E037
:1063140000E100E084B00190244B0393019B002B27
:1063240040D0234B1A680399019B00BF00BF00BFF4
:1063340000BF00BF00BF00BF00BF8A422FD000BF14
:1063440000BF00BF00BF00BF00BF00BF00BF00BF51
:1063540000BF00BF00BF00BF00BF00BF00BF00BF41
:1063640000BF00BF00BF00BF00BF00BF00BF00BF31
:1063740000BF00BF00BF00BF00BF00BF00BF00BF21
:1063840000BF00BF00BF00BF00BF00BF00BF00BF11
:1063940000BF00BF00BF00BF00BF00BF00BF013B84
:1063A400C3D1019300BF04B0704700BF0024F400C0
:1063B4002C22002000B583B00190064A019BC2F84C
:1063C400083507211120FFF77DFF00BF03B05DF8FA
:1063D40004FB00BF0010014008B50D4B4FF48032A0
:1063E400C3F844230A4B4FF48032C3F8042311202A
:1063F400FFF750FF1120FFF707FF054B01221A603A
:106404002F20FFF787FF034B01221A7000BF08BD3E
:1064140000100140DE28002008B51120FFF70AFF14
:106424000E4B4FF48032C3F848230C4B4FF48032A8
:10643400C3F80823094B01225A602F20FFF76AFF93
:10644400064B01229A60064B00221A602F20FFF7A8
:1064540061FF044B00221A7000BF08BD0010014008
:10646400D0280020DE280020024BD3F8043518463B
:10647400704700BF0010014082B001900091019A62
:10648400009BD31A23F07F43184602B070470000E4
:1064940082B00190034A019BC2F8403500BF02B0AC
:1064A400704700BF0010014086B00190284B1B6864
:1064B400002B03D1264A019B136045E0019B1A6817
:1064C400234B1B681B689A4210D8214B1B68196820
:1064D400019B1A681E4B1B688A1A1A601C4B1A68A7
:1064E400019BDA611A4A019B13602DE0019B1B6832
:1064F4000393174B1B680593154B1B68049309E022
:10650400049B1B68039AD31A0393049B0593049B6F
:10651400DB690493049B002B04D0049B1B68039A3F
:106524009A42EDD8049B002B05D0049B1A68039B68
:10653400D21A049B1A60019B039A1A60019B049A65
:10654400DA61059B019ADA6100BF06B0704700BFAB
:10655400CC28002000B587B001902A4B1B68039318
:10656400284B1B680593059B049308E0049A019B40
:106574009A4208D0049B0593049BDB690493049B13
:10658400002BF3D100E000BF049B002B01D10023BA
:1065940033E0059A049B9A4214D11A4B1B68DB69B9
:1065A400184A1360174B1B68002B0BD1164B0122A2
:1065B4009A60164B00221A60154B01221A702F2084
:1065C400FFF7A8FE049B1B680293049BDA69059BF2
:1065D400DA61059BDB690493049B002B05D0049BC3
:1065E4001A68029B1A44049B1A60064B1B68039AA0
:1065F4009A4214BF01230023DBB2184607B05DF8AA
:1066040004FB00BFCC28002000100140D02800204B
:10661400DF28002008B51120FFF724FE00BF08BDC5
:1066240008B51420FFF71EFE00BF08BD00B583B0F7
:106634000190019B5B69019A92691046984700BFDB
:1066440003B05DF804FB000000B585B02B4B1B685C
:10665400002B4ED000230193FFF706FF0246284B80
:106664001B6819461046FFF707FF0290234B1B686F
:1066740003931DE0039B1B68029A9A421CD3039B5D
:106684001B68029AD31A0293039B1B68019A134452
:106694000193039B0093039BDB690393009B1B7C87
:1066A400002B05D0009B00221A740098FFF7BEFF50
:1066B400039B002BDED100E000BF124B1A78124B73
:1066C4001B789A420CD1104B1B780133DAB20E4B73
:1066D4001A700D4B1B78022B02D10B4B00221A703F
:1066E400094B1B781946094A019B42F82130FFF7F0
:1066F40097FF00BF05B05DF804FB00BFCC28002065
:10670400D0280020DC280020DD280020D428002008
:1067140082B00190184B1A78184B1B789A4223D0F8
:10672400154B1B780133DAB2134B1A70124B1B78DA
:10673400022B02D1104B00221A700F4B1B781A4601
:106744000F4B53F82220019B1A60019B1A680D4BD2
:106754001B6813440B4A13600A4B1B6823F07F43E6
:10676400084A1360012303E0019B00221A600023FE
:10677400184602B0704700BFDC280020DD28002046
:10678400D4280020D028002088B0039002910192E0
:106794000023079338E0204B1B680693069B1B6875
:1067A400039A9A4206D2069B1A68039BD21A069B46
:1067B4001A602EE0069B1B68039AD31A0393069B68
:1067C4001B68079A13440793069B00221A60124B16
:1067D4001B680593069BDB690F4A1360069BDB6805
:1067E400002B11D0029A079B134423F07F42069B8F
:1067F4005A60069BDA68069B9A60019B1A68069B9E
:10680400DA61019B059A1A60034B1B68002BC2D105
:1068140000BF00BF08B07047CC28002000B589B085
:10682400019000238DF81F30664B1B680593AAE086
:10683400019B002B05D0019B0693069BDB6901930A
:1068440061E0614B1B781A4613465B001344DB007E
:106854005D4A1344043304935B4B1B780133DAB26F
:10686400594B1A70584B1A78574B9B789A4202D15D
:10687400554B00221A70049B5B680693049B1B789B
:10688400032B1ED0032B7EDC012B1FD0022B7AD1CD
:10689400049B5B681846FFF75DFE0346002B02D09D
:1068A40001238DF81F30069B00221A746BE0454BC0
:1068B4001B680393039B00221A74039BDB69414A00
:1068C4001360404B1B68002BF1D15CE000BF069BBA
:1068D4001B7C002B00D056E0049B9A68069B5A60F0
:1068E400049BDA68069B9A60049B1A69069BDA602B
:1068F400049B5A69069B9A61344B1B78002B02D087
:10690400069B00225A60069B5A68314B1B68D31AB7
:1069140023F07F432F4A93420ED8069B5B682C4A90
:10692400126811461846FFF7A7FD0246069B9B68AE
:106934001A44069B1A6017E0254B1A68069B5B688D
:1069440019461046FFF798FD0290069B9B68029A31
:106954009A4206D2069B9A68029BD21A069B1A6038
:1069640002E0069B00221A60069B00225A60069BE6
:1069740000229A60069B01221A74069B0022DA61A7
:106984000698FFF791FD019B002B7FF451AF0E4B4E
:106994001A780D4B5B789A427FF44AAF9DF81F300A
:1069A400002B04D1074B1B68059A9A4201D001239E
:1069B40000E0002303F00103DBB2184609B05DF8E0
:1069C40004FB00BFCC280020C0270020DF280020C3
:1069D400D0280020FEFF7F0010B588B00190274B1F
:1069E4001B68002B44D0254B1B681B680793FFF7DB
:1069F4003BFD0690224B1B68059305990698FFF70B
:106A04003BFD0346033304931E4B1B7883F00103C1
:106A1400DBB2002B01D0FFF7DFFC049A079B934203
:106A240038BF1346059A13440593059B23F07F430F
:106A340005930598FFF72CFDFFF716FD03900699C3
:106A44000398FFF719FD0346DC1C06990598FFF728
:106A540013FD03469C420DD9FFF706FD0346184675
:106A6400FFF716FD2F20FFF755FCFFF7D3FD01E0DC
:106A7400FFF7D2FC00BF08B010BD00BFCC28002037
:106A8400D0280020DE28002000B587B00023019321
:106A940000238DF81730194B1B680493184B1B689F
:106AA40003936B461846FFF733FE03468DF80B300D
:106AB4009DF80B30002B08D0009B01AA04991846BE
:106AC400FFF762FE01238DF81730019B1846FFF78C
:106AD400A5FE0346002B02D001238DF817309DF844
:106AE4001730002B02D00398FFF776FF054B0022E6
:106AF4001A7000BF07B05DF804FB00BFD028002067
:106B0400CC280020DF28002082B003468DF807300F
:106B1400034A9DF80730537000BF02B0704700BFAE
:106B2400C027002084B00190144B5B7801338DF8AA
:106B34000F30124B9B789DF80F209A4202D100230C
:106B44008DF80F300D4B1B789DF80F209A4201D120
:106B540000230FE0019B9DF80F201A70074B5B7810
:106B64001A4613465B001344DB00044A13440433FF
:106B74000293029B184604B0704700BFC027002050
:106B840000B589B00390029101920093002307930A
:106B940000238DF816300DF11603184600F0BEF9E7
:106BA4000DF117031846FFF7BDFF0690069B002B57
:106BB40002D10423079318E0069B01221A70069B56
:106BC400039A5A60FFF750FC0246069B9A60069BA4
:106BD400029ADA60069B019A1A61069B009A5A612E
:106BE4009DF817301846FFF78FFF9DF816301846AA
:106BF40000F0AAF9079B002B01D1FFF711FD079BB9
:106C0400184609B05DF804FB00B587B001900B4647
:106C14008DF803300023059300238DF80E300DF119
:106C24000E03184600F07AF90DF10F031846FFF72A
:106C340079FF0490049B002B02D1042305930BE0FD
:106C4400049B9DF803201A70049B019A5A609DF8D6
:106C54000F301846FFF758FF9DF80E30184600F025
:106C640073F9059B002B01D1FFF7DAFC059B18464D
:106C740007B05DF804FB000008B50E4B0022C3F812
:106C840040210C4B0022C3F844210A4B0022C3F8D4
:106C94004821084B0022C3F84C21064B0022C3F8BC
:106CA4000021044B0022C3F80421FFF7CDFC00BFF0
:106CB40008BD00BF0010014008B5FFF7E5FE00BFA6
:106CC40008BD000008B5FFF7A7FB134B00221A709C
:106CD400114B00225A70104B0B229A700F4B00225A
:106CE4001A600F4B00221A700E4B00221A701420E7
:106CF400FFF7D0FA07211420FFF7E4FA1420FFF776
:106D040083FA0020FFF756FBFFF7AEFB0346064A63
:106D140013600023184608BDC0270020CC2800209B
:106D2400DC280020DD280020D028002086B0039035
:106D34000B4601928DF80B30134B9B78002B01D13D
:106D440008231EE0019B002B01D1072319E0039BBC
:106D5400002B01D1072314E0039B1B681B7C002B31
:106D640001D008230DE0039B1B680593059B0022BB
:106D74001A74059B9DF80B205A74059B019A5A615D
:106D84000023184606B07047C027002000B587B01E
:106D9400039002910192039B0593144B9B78002B63
:106DA40001D108231EE0039B002B01D1082319E025
:106DB400029B042B01D8072314E0059B5B69002B7D
:106DC40001D108230EE0059B5B7C012B01D1029BC2
:106DD40000E000230493019B049A02990598FFF7AD
:106DE400CFFE0346184607B05DF804FBC027002019
:106DF40000B585B00190019B03930D4B9B78002B4C
:106E040001D1082310E0019B002B03D0039B5B6995
:106E1400002B01D1082307E0039B00221A740221EE
:106E24000398FFF7F1FE0346184605B05DF804FB2E
:106E3400C027002082B0EFF310830093009B0193DE
:106E440072B600BF019B184602B0704762B600BF1D
:106E540000BF704700B585B00190FFF7EBFF0390CA
:106E6400164B9B68002B1BD1144B01229A60144BC8
:106E7400D3F88020134B1340104A1360104B114A6F
:106E8400C3F880200E4BD3F884300C4A53600C4B6B
:106E94004FF0FF32C3F88420019B00221A7002E0F5
:106EA400019B01221A70039B002B01D1FFF7CEFF37
:106EB4000023184605B05DF804FB00BFE02800205D
:106EC40000E100E0FC06FFBD00B585B003468DF887
:106ED4000730104B9B68002B16D09DF80730002B11
:106EE40012D1FFF7A7FF03900B4A0A4B1B681360EC
:106EF400094A084B5B685360064B00229A60039B67
:106F0400002B01D1FFF7A2FF0023184605B05DF85E
:106F140004FB00BFE028002000E100E000B583B0DE
:106F2400019000F02BF80346012B03D005494320C0
:106F340002F050F80198FFF78DFF00BF03B05DF831
:106F440004FB00BF3828030000B583B003468DF866
:106F5400073000F013F80346012B03D006495120F3
:106F640002F038F89DF807301846FFF7ADFF00BF70
:106F740003B05DF804FB00BF3828030084B0EFF3CE
:106F840005830193019BC3F308030393039B002B25
:106F94000DD1EFF314830093009B0293029B03F043
:106FA4000103002B0CBF01230023DBB200E001230B
:106FB400184604B0704786B0039002910192019B79
:106FC400002B02D0019B1B8801E04FF6FF73ADF844
:106FD4001630002304933CE0BDF816301B0A9BB224
:106FE400DBB21AB2BDF916301B021BB213431BB23B
:106FF400ADF81630039A049B13441B781A46BDF867
:1070040016305340ADF81630BDF81630DBB21B090C
:10701400DBB21A46BDF816305340ADF81630BDF950
:1070240016301B031AB2BDF9163053401BB2ADF82B
:107034001630BDF916305B011BB203F4FF531AB2CC
:10704400BDF9163053401BB2ADF81630049B013322
:107054000493049A029B9A42BED3BDF81630184694
:1070640006B0704782B00190019B03F00303002B2C
:107074000CBF01230023DBB2184602B0704710B4E2
:1070840087B001900091019B009A53E8004F44EAB5
:10709400020043E8000191F0000FF6D1059404903A
:1070A4000391059B184607B05DF8044B704710B474
:1070B40087B001900091019B009A53E8004F04EBC4
:1070C400020043E8000191F0000FF6D1059404900A
:1070D4000391059B184607B05DF8044B704710B444
:1070E40087B001900091019B009A53E8004F04EB94
:1070F400020043E8000191F0000FF6D105940490DA
:107104000391049B184607B05DF8044B704710B414
:1071140087B001900091019B009A53E8004FA4EBC3
:10712400020043E8000191F0000FF6D105940490A9
:107134000391049B184607B05DF8044B704700B5F3
:1071440083B0019001210198FFF799FF0346184687
:1071540003B05DF804FB000000B585B00190002386
:1071640003930EE00B4A039B52F82330002B05D007
:10717400084A039B52F8233001989847039B013334
:107184000393039B032BEDD900BF00BF05B05DF84B
:1071940004FB00BFFC28002082B001900091019BF9
:1071A4001B78013B052B61D801A252F823F000BFE4
:1071B400CD710200D5710200FB7102002D72020034
:1071C4004D72020069720200009B00221A704EE0A8
:1071D400009B01221A70019B1A89009B9A81019BD2
:1071E4009A88009BDA81019BDA68009B9A60009B75
:1071F40000221A743BE0009B02221A70019B1A8938
:10720400009B9A81019B9A88009BDA81019BDA6832
:10721400009B9A60019B9B7D062B0CBF01230023DE
:10722400DAB2009B1A7422E0009B03221A70019BBD
:10723400DA88009B9A81019B1A89009BDA81019B61
:10724400DA68009B9A6012E0009B04221A70019B8A
:10725400DA88009B9A81009B0022DA81009B00223D
:107264009A6004E0009B05221A7000E000BF00BF92
:1072740002B0704784B001900091019B0393039A7C
:10728400009B9A4206D2039B1B68B3F1FF3F01D0D7
:10729400012300E0002303F00103DBB2184604B02D
:1072A400704782B00190019B5B8803339B00019A75
:1072B4001344184602B0704700B583B001900091A2
:1072C4000198FFF7EEFF0246009B934201D202238E
:1072D4000CE0019B9B884FF6FF72934203D0019B05
:1072E4001B88002B01D1012300E00023184603B0C2
:1072F4005DF804FB00B583B00190019B002B13D013
:107304000D4BDB681A46019B93420DD30A4B1B6954
:107314001A46019B934207D80198FFF7A3FE034640
:10732400002B01D0012300E0002303F00103DBB2B2
:10733400184603B05DF804FB1821002082B00190C8
:10734400019B002B04D0019B1B680B4A934201D084
:1073540003230DE0019B04331B68084A934204D0C5
:10736400074A934203D1012302E0002300E00323F0
:10737400184602B0704700BFDEC0ADDEFE011EF14C
:10738400FF011EF184B00190002303930CE0039BE2
:107394009B00019A13441B68B3F1FF3F01D0002303
:1073A40007E0039B01330393039BB3F5806FEED394
:1073B4000123184604B0704782B003460A46ADF86C
:1073C40006301346ADF80430BDF8062013491346C1
:1073D4009B0013449B000B4408331A88BDF8043007
:1073E4001344ADF80430BDF806200C4913469B0045
:1073F40013449B000B440A331A88BDF80430134429
:10740400ADF80430BDF8043040F2FF32934294BF2B
:1074140001230023DBB2184602B07047AC290020D8
:1074240084B0019000910A2303930023ADF80A303D
:1074340027E0BDF80A20174913469B0013449B001C
:107444000B4404331B68009A9A4215D9BDF80A20EC
:10745400104913469B0013449B000B4404331B68E0
:1074640003F58053009A9A4206D200230393019BAA
:10747400BDF80A201A8008E0BDF80A300133ADF8DF
:107484000A30BDF80A30012BD3D9039B184604B047
:10749400704700BFAC29002000B589B00390029169
:1074A4000192039B03F580530693039B08330393D4
:1074B400029B02221A80039B079332E006990798E5
:1074C400FFF7FAFE03468DF817309DF81730002BAE
:1074D4000AD1079B9A68184B1B689A4213D9079BD9
:1074E4009B68154A13600EE0019B002B02D0019BA0
:1074F40001221A709DF81730022B04D1029B4FF41D
:1075040080621A8014E0029B1A88079B5B881344EC
:107514009BB203339AB2029B1A800798FFF7C1FE0D
:10752400079006990798FFF7A5FE0346002BC5D1DF
:1075340009B05DF804FB00BF0C29002082B0019063
:107544000B46ADF80230019B1A89BDF80230134492
:107554009BB203339AB2019B1A81019B5A89BDF8ED
:107564000230D31A9BB2033B9AB2019B5A8100BFEB
:1075740002B0704700B583B0074B1B68194600235F
:1075840000930823054A064806F06DFB0346184697
:1075940003B05DF804FB00BFD4290020E0280300F9
:1075A4001821002000B585B00390039900230093AF
:1075B4000823044A044806F056FB0346184605B05F
:1075C4005DF804FBE82803001821002000B585B00D
:1075D40003460091ADF8063000238DF80F30BDF856
:1075E40006300333ADF80A30BDF80A3040F2FD32FC
:1075F400934201D909234AE00023ADF80C303BE063
:10760400BDF80C20244913469B0013449B000B44F3
:107614001B78002B2BD1BDF80A20BDF80C30114685
:107624001846FFF7C9FE0346002B20D001238DF82E
:107634000F30009BBDF80C201A80BDF80C201649B1
:1076440013469B0013449B000B440A331988BDF86E
:107654000C20BDF80A300B4498B20F4913469B0026
:1076640013449B000B440A3302461A8008E0BDF819
:107674000C300133ADF80C30BDF80C30012BBFD900
:107684009DF80F30002B01D0002300E0072318469B
:1076940005B05DF804FB00BFAC29002082B00346AE
:1076A4000A46ADF806301346ADF80430BDF80420A0
:1076B4000D4913469B0013449B000B440A331A885C
:1076C400BDF80630D31A9BB2BDF80420033B98B230
:1076D400054913469B0013449B000B440A3302469E
:1076E4001A8000BF02B07047AC29002008B5012100
:1076F4000248FFF7F4FC0346184608BD0C29002095
:1077040000B585B003460091ADF80630BDF80620FB
:10771400244913469B0013449B000B4404331B6809
:1077240003F580530293009B1B680393039B002B78
:1077340004D00398FFF7B5FD039026E0BDF80620BA
:10774400184913469B0013449B000B4404331B68E5
:107754000833039319E002990398FFF7ADFD03463C
:10776400022B10D0022B10DC002B02D0012B05D0F1
:107774000BE0009B039A1A6001230EE00398FFF7C5
:1077840090FD039001E0002307E002990398FFF7BE
:1077940071FD0346002BDED10023184605B05DF8C9
:1077A40004FB00BFAC29002000B585B00190009116
:1077B400019B5B681846FFF79DFD0346002B19D01B
:1077C400019B1A89244B1B899A4213D1019B1A6885
:1077D400019B5B689B689A420CD1019B5B681946CC
:1077E4000098FFF71DFE0346002B0CBF0123002366
:1077F400DBB22CE0009B00221A8023E000230293DA
:1078040010E0029B0393039B9A68019B1B689A42B6
:1078140008D1029A019B5A600F4B1A89019B1A8165
:10782400012314E0009B1B8802AA11461846FFF7A7
:1078340067FF0346002BE4D1009B1B8801339AB2F7
:10784400009B1A80009B1B88012BD7D90023184664
:1078540005B05DF804FB00BFDC29002000B587B04B
:107864000390029101920093304B1B78DBB283F0BA
:107874000103DBB2002B01D0022353E0019B002B58
:1078840002D0009B002B48D105234BE0009B9B8832
:107894001946274A0B469B000B449B0013441B7854
:1078A400002B33D124E0009B1B680593039B002B22
:1078B40006D0059B9A88039B1B889A4200D017E048
:1078C400029B002B06D0059B1A88029B1B889A42B8
:1078D40000D00DE0059B9A68019B1A60009B1A6812
:1078E400019B5A60134B1A89019B1A81002319E0EA
:1078F400009B9B88009A11461846FFF701FF034638
:10790400002BD0D1009B00221A6000E000BF009B36
:107914009B8801339AB2009B9A80009B9B88012B21
:10792400B4D90A23184607B05DF804FBEC280020FC
:10793400AC290020DC29002000B587B00291019217
:1079440000930346ADF80E30BDF80E2032491346BD
:107954009B0013449B000B4404331B6808330593BA
:10796400BDF80E202C4913469B0013449B000B4486
:1079740004331B6803F58053049342E0049905988B
:10798400FFF79AFC0346022B25D0022B38DC002B90
:1079940016D0012B34D1019B1B8801339AB2019B71
:1079A4001A80009B1A88059B5B8813449BB203339F
:1079B4009AB2009B1A800598FFF773FC059020E0AB
:1079C400029B1B8801339AB2029B1A800598FFF729
:1079D40068FC059015E0019B1B8801339AB2019B5A
:1079E4001A80009B1A880499059BCB1A9B109BB2A2
:1079F40013449AB2009B1A80089B01221A7007E074
:107A040000BF04990598FFF735FC0346002BB5D158
:107A140007B05DF804FB00BFAC29002000B585B0B9
:107A24000190084B0199184601F0CBFB03901C22EE
:107A34000021039809F08CFE039B184605B05DF8FD
:107A440004FB00BF9C29002000B583B00190044BC7
:107A54000199184601F0CCFB00BF03B05DF804FBAC
:107A64009C29002000B583B00190054B019918466C
:107A740001F0D2FB0346184603B05DF804FB00BFD7
:107A84009C29002000B583B00190044B019918464D
:107A940001F0D9FB00BF03B05DF804FB9C29002072
:107AA40008B50A4B1B68002B04D1094940F2712028
:107AB40001F090FA01210548FFF729FB0346002B4A
:107AC40014BF01230023DBB2184608BDF4280020AC
:107AD4009428030000B587B0002305930023ADF874
:107AE40012300323ADF8103000238DF80F3000233B
:107AF400ADF80C30F3E0BDF80C301A03804BDB68B2
:107B0400134402930298FFF719FC03468DF80730DB
:107B14009DF80730032B08D0032B00F3DA80002BE9
:107B240065D0012B00F09880D3E00298FFF72AFC7F
:107B34000346002B3BD0734B1B68002B29D0BDF8A8
:107B44001220714913469B0013449B000B440222EC
:107B54001A70BDF812206C4913469B0013449B0015
:107B64000B440433029A1A60BDF812206649134686
:107B74009B0013449B000B44083302221A80634A7F
:107B8400BDF812305380BDF812300133ADF8123015
:107B940008E05C4A029B13605A4B02229A8001233C
:107BA4008DF80F30059B43F00103059392E0BDF877
:107BB4001030013BADF81030BDF812205249134685
:107BC4009B0013449B000B440433029A1A60BDF8D3
:107BD40012204D4913469B0013449B000B4403227F
:107BE4001A70BDF812300133ADF8123072E0BDF8EE
:107BF4001220454913469B0013449B000B4400226A
:107C04001A70BDF81220404913469B0013449B0090
:107C14000B440433029A1A60BDF8122013469B00E9
:107C240013449B000833384A9918BDF812201346B0
:107C34009B0013449B001033334A13441A460298A2
:107C4400FFF72AFC059B43F002030593BDF81230AD
:107C54000133ADF812303DE09DF80F30002B25D0F4
:107C6400BDF81220284913469B0013449B000B4483
:107C740002221A70BDF81220224B196822481346BA
:107C84009B0013449B00034404331960BDF8122085
:107C94001D4913469B0013449B000B4408330222E6
:107CA4001A80BDF812300133ADF81230154A029B28
:107CB4001360002216490298FFF7EEFB114B9B88D4
:107CC400022B01D1042300E00823059A13430593F2
:107CD40000E000BFBDF80C300133ADF80C30BDF846
:107CE4000C30022B7FF607AFBDF81030012B01D802
:107CF40000230593059BDBB2184607B05DF804FB2F
:107D040018210020D4290020AC290020DC290020DF
:107D1400D829002000B587B003900291039B02226A
:107D24009A750299039B1A1D0023009304230748A4
:107D340005F099FF0590059B002B01D1002300E07D
:107D44000E23184607B05DF804FB00BF182100207D
:107D540000B587B003900291039B1B69002B01D0EF
:107D6400032200E00122039B9A75029B0833194603
:107D7400039B03F10C02002300930423064805F03F
:107D840072FF0590059B002B01D1002300E00E2318
:107D9400184607B05DF804FB1821002000B587B031
:107DA40003900291039B1B78032B01D1052200E071
:107DB4000622039B9A75029B04331946039B03F125
:107DC4000802002300930423064805F04CFF0590A5
:107DD400059B002B01D1002300E00E23184607B0B9
:107DE4005DF804FB1821002000B587B003900B4612
:107DF400ADF80A3003990023009304230C4A0D487C
:107E040005F031FF0590059B002B01D00E230BE0FC
:107E1400BDF80A20084913469B0013449B000B44F9
:107E2400103301221A700023184607B05DF804FBD2
:107E3400F028030018210020AC29002000B589B0E7
:107E4400019002AB00221A605A609A60019BDB68C1
:107E540002930DF1160202AB11461846FFF7A4FC7B
:107E64000346002B12D0039B0693069B9A88019B22
:107E7400DA80069B1A88019B1A81039BBDF81620A1
:107E840011461846FFF7B0FF079001E00A23079355
:107E9400079B184609B05DF804FB000000B587B0E5
:107EA4000190019B981D02AA0D4B0021FFF7D6FCFF
:107EB4000590059B002B08D1039B094A9288114623
:107EC4001846FFF791FF059004E0082200210448BA
:107ED40009F03EFC059B184607B05DF804FB00BFA3
:107EE400EC29002000B587B003900291039B012286
:107EF4009A75029B0C331846039B1A69039BDB8813
:107F04009B00002100910146064805F0ACFE059057
:107F1400059B002B01D1002300E00E23184607B077
:107F24005DF804FB1821002000B585B003460092DB
:107F3400ADF806300B46ADF8043000220621009857
:107F4400FFF739F80346ADF80E30009B03F1080043
:107F5400BDF8043001339B000DF10E021946FFF702
:107F64002AF80346ADF80E30BDF80E30BDF80620F1
:107F74009A420CBF01230023DBB2184605B05DF81A
:107F840004FB000082B0184B1B8901339AB2164BD4
:107F94001A81154B00225A80134B00221A730023B6
:107FA400ADF8063018E0BDF80620104913469B00D2
:107FB40013449B000B441A78BDF80630002A0CBF0A
:107FC40001220022D1B2084A13440A469A72BDF82B
:107FD40006300133ADF80630BDF80630012BE2D986
:107FE40000BF00BF02B07047DC290020AC2900208C
:107FF40084B0019000238DF80F300023ADF80C30CD
:1080040031E0BDF80C301C4A13449B7A002B25D078
:10801400BDF80C30184A134400229A72BDF80C20A3
:10802400164913469B0013449B000B440C331B68F6
:10803400002B13D1BDF80C20104913469B001344A8
:108044009B000B4410331B78002B07D0019BBDF819
:108054000C201A8001238DF80F3008E0BDF80C3095
:108064000133ADF80C30BDF80C30012BC9D99DF8A3
:108074000F30184604B07047DC290020AC290020DA
:1080840008B5084B05221A70074B02229A80064B4A
:108094001B68194600230122044805F036FE0346F6
:1080A400184608BDDC290020D4290020182100200E
:1080B40000B583B0164B5B88ADF80230BDF80220E2
:1080C400144913469B0013449B000B440C331B6858
:1080D400002B14D10E4B04221A70BDF802200D4956
:1080E40013469B0013449B000B4404331B6819463E
:1080F40000230122084805F008FE019002E0FFF782
:10810400BFFF0190019B184603B05DF804FB00BF5C
:10811400DC290020AC2900201821002000B587B0FC
:10812400104B5B680593104B1A680F4B9B889B00A0
:1081340013440493059B5B880333ADF80E30094B5D
:1081440003221A700499074B5A68BDF80E309B003D
:1081540000200090054805F086FD0346184607B048
:108164005DF804FBDC290020D4290020182100201C
:1081740000B583B00A4B5B880A491846FFF7C0FA7A
:108184000346002B03D0FFF7C9FF019002E0FFF77D
:108194008FFF0190019B184603B05DF804FB00BFFC
:1081A400DC290020E029002008B50A4B06221A70B9
:1081B400084B5B881946084A0B469B000B449B00FE
:1081C400134404331B681846FFF7ECF903461846BA
:1081D40008BD00BFDC290020AC29002008B5054BF0
:1081E40007221A70034B00225A60FFF7C3F90346B3
:1081F400184608BDDC29002008B50D48FFF7F8FE35
:10820400034683F00103DBB2002B0BD0094B0022A1
:108214001A70084B00225A80064B00225A6041F61D
:108224001D5302E0FFF7A4FF0346184608BD00BF34
:10823400DE290020DC29002082B0094B5B68019311
:10824400019B5B880333ADF80230064B9A88BDF876
:10825400023013449AB2034B9A8000BF02B07047B5
:10826400DC290020D429002082B0184B1B6801931C
:10827400174B5B881946174A0B469B000B449B001F
:10828400134404331B68114A1360114B5B8819466D
:10829400104A0B469B000B449B0013440433019A81
:1082A4001A600B4B5B881946084B9888094A0B46A1
:1082B4009B000B449B001344083302461A80034B73
:1082C40002229A8000BF02B0704700BFD429002068
:1082D400DC290020AC29002008B51A4B1B78072B99
:1082E4002CD801A252F823F00D830200418302002E
:1082F40041830200198302002583020031830200B6
:108304003183020039830200FFF73CFE0D4B01224A
:108314001A7014E0FFF790FF0A4B02221A700EE065
:10832400FFF7A2FF074B06221A7008E0054B07224D
:108334001A7004E0034B01221A7000E000BF00BF72
:1083440008BD00BFDC29002000B587B00190009172
:108354000F230593019B002B04D0624B00225A602B
:108364000123BBE0009B1B79032B00F2AB8001A22D
:1083740052F823F0898302009783020025840200C7
:1083840045840200009B01221A71FFF7F3F805905F
:108394009BE000238DF813300023ADF810302BE060
:1083A400BDF81020504913469B0013449B000B4416
:1083B4001B78022B1BD1BDF810204B4913469B00A0
:1083C40013449B000B4400221A7001238DF81330D0
:1083D400BDF81020444913469B0013449B000B44F2
:1083E40004331B681846FFF7DDF8059008E0BDF874
:1083F40010300133ADF81030BDF81030012BCFD957
:108404009DF8133083F00103DBB2002B5CD0354BB5
:1084140001221A70334B00225A6041F61D535DE06D
:10842400009B00221A71314B02229A802F4B1B6849
:108434001946002301222E4805F067FC059044E00C
:10844400009B00221A71294B1B681846FFF7AAF8F3
:108454000590284B5B88ADF80E30244B1B680293C3
:10846400BDF80E20204913469B0013449B000B4487
:1084740004331B681D4A1360BDF80E201A491346C5
:108484009B0013449B000B440433029A1A60BDF80A
:108494000E20164B9888144913469B0013449B00E6
:1084A4000B44083302461A80104B02229A80BDF80E
:1084B4000E200D4913469B0013449B000B440022DD
:1084C4001A7002E000BF00E000BF059B002B04D03F
:1084D400044B00225A600E2300E00023184607B024
:1084E4005DF804FBEC280020AC290020D4290020EE
:1084F40018210020DC29002000B587B001900091EC
:10850400009B9B8A1A4613469B0013449B003C4ADB
:1085140013440493019B002B07D0009BDB8819466E
:108524000498FFF70BF8012365E0049B5A68049B49
:108534001B899B0013440393009B9B7D062B4DD802
:1085440001A252F823F000BF8F850200B385020018
:108554009B850200A785020069850200BF85020091
:10856400D9850200274B00225A60009B9B69254A4B
:10857400136025492348FFF717F9034683F00103E5
:10858400DBB2002B01D00A2335E003990098FFF7F2
:10859400C1FB059025E003990098FFF7D9FB0590EE
:1085A4001FE003990098FFF79DFC059019E00399DB
:1085B4000098FFF7F3FB059013E0009B06229A75E1
:1085C400104B5B68104A128811461846FFF70CFCE2
:1085D400059006E041F61D53059302E00F23059331
:1085E40000BF059B002B05D0009BDB88194604982F
:1085F400FEF7A4FF059B184607B05DF804FB00BF17
:10860400AC290020F4290020002A002000B585B000
:1086140001900091019B002B01D0012326E0009BD7
:108624001B79022B19D0022B1BDC002B02D0012B4F
:1086340008D016E0009B02221A710098FFF7FEFB97
:10864400039012E00098FFF729FC0390039B0A2B88
:108654000AD141F61D53039306E041F61D530393DB
:1086640003E00F23039300E000BF039B184605B00B
:108674005DF804FB00B585B00190019B002B01D08F
:1086840001233BE01F4B1B7B002B03D01D4B00221F
:108694001A7301E0FFF720FE1A4B1B78013B062BEF
:1086A40028D801A252F823F0C9860200D18602001C
:1086B400D9860200E1860200F9860200E9860200FA
:1086C400F1860200FFF798FD039016E0FFF750FDD6
:1086D400039012E0FFF722FD03900EE0FFF7E8FCA1
:1086E40003900AE0FFF760FD039006E0FFF776FDD4
:1086F400039002E00F23039300BF039B184605B0C9
:108704005DF804FBDC29002000B589B001903F4BE3
:108714001B68002B05D13E48FFF7A4F903463B4AEA
:1087240013603A4B1B68002B04D13A4940F279504C
:1087340000F050FC354B1B681B78013B052B2CD8F3
:1087440001A252F823F000BF65870200758702007A
:1087540075870200858702008587020095870200DD
:108764002A4B1B6819460198FFF7EEFD019017E0AC
:10877400264B1B6819460198FFF7BEFE01900FE0D7
:10878400224B1B6819460198FFF740FF019007E050
:108794000198FFF76FFF019002E00F23019300BFE0
:1087A400019B002B2BD003AB14220021184608F0A8
:1087B400CFFF019B41F61D52934204D10023049341
:1087C4000023019301E0019B0493104B1B6803AA4F
:1087D40011461846FEF7E0FC03AB1846FEF7BCFC56
:1087E4000A4B00221A600A48FFF74CF9FFF758F9C0
:1087F400034683F00103DBB2002B02D187E700BFFD
:1088040000E000BF00BF09B05DF804FB042A0020AB
:10881400082A00209428030008B501210548FEF722
:1088240046FC0346002B02D10020FFF76DFF00BF7A
:1088340008BD00BFF428002000B583B00190019B5F
:108844005B681846FFF760FF00BF03B05DF804FBE8
:1088540000B58BB00390029101928DF80330002390
:10886400ADF818300023ADF82630614B1B78DBB22D
:1088740083F00103DBB2002B01D00223B3E0029B9F
:10888400002B01D10523AEE0029B1B884FF6FF723B
:10889400934203D0029B5B88002B01D10423A2E006
:1088A400029B5B681846FEF7DDFB034683F0010379
:1088B400DBB2002B01D0032395E0019B002B11D1E7
:1088C400029B9B68ADF826300DF11A02BDF82630E4
:1088D40011461846FEF77AFE0890089B002B09D033
:1088E400089B80E0019B1B88ADF81A30019B5B88D4
:1088F400ADF8263005AB1846FFF790F80790079BB4
:10890400002B09D1BDF81A20BDF8263011461846AF
:10891400FEF7C4FE082366E0079B9DF803201A7047
:10892400079B00229A75BDF81A20079B9A82029B26
:108934005A68079B1A61FEF7D9FE0246079BDA6064
:10894400029B1A88079B1A81029B5A88079B9A806C
:10895400079BBDF82620DA809DF80330032B06D14F
:10896400079B04229A75039B1A68079B9A61079BCD
:108974000433002206211846FEF71DFB0346ADF81A
:108984001830079B0C3306AA04211846FEF713FB84
:108994000346ADF81830029B5868029B9B689B0005
:1089A40006AA1946FEF707FB0346ADF81830BDF8D2
:1089B4001820079B5A8105AB1846FFF745F8039B1F
:1089C400002B0DD0039B00225A60079BDA68039B9F
:1089D4001A60039B00229A72064B1A89039B1A8120
:1089E400FFF71AFF002318460BB05DF804FB00BF25
:1089F400EC280020DC29002000B585B001900C4B48
:108A04001B68042B02D10C2303930BE0084B1B6857
:108A14000849019A41F8232001210548FEF75FFB2C
:108A240000230393039B184605B05DF804FB00BFC5
:108A3400F8280020FC28002084B04FF010235B6944
:108A440003934FF080531B6902934FF080535B698B
:108A54000193039BB3F1FF3F04D1019B029A02FBF4
:108A640003F300E0039B184604B0704700B583B0DD
:108A74004FF440530193FFF7DFFF0346054A1361A8
:108A8400044B1A69019BD31A024AD36000BF03B096
:108A94005DF804FB1821002008B5FFF7E7FF00226A
:108AA4000349044805F0C4F80346184608BD00BF4E
:108AB400003103001821002008B504481C238C222F
:108AC400034900F037FB00BF08BD00BF9C2900200C
