:0200000270008C
:10800000000001204D820700A5820700A78207001B
:10801000A9820700AB820700AD82070000000000C4
:10802000000000000000000000000000AF82070018
:10803000B182070000000000B3820700B58207008C
:108040001D9C0700BB82070031A20700BF8207000A
:10805000C1820700C3820700059D0700C782070091
:10806000C9820700CB820700CD820700CF820700BC
:10807000D1820700D3820700D5820700D78207008C
:10808000D9820700FD8E0700DD820700DF8207002E
:10809000998F0700E382070019BB0700E7820700FA
:1080A000E9820700EB820700ED820700EF820700FC
:1080B000F1820700F3820700B7820700B78207004A
:1080C000F5820700F7820700F9820700FB820700AC
:0C80D000FD820700FF820700018307000B
:1080DC003A493B480A1A02D0072291438D46394946
:1080EC0039480A1A06D00722914381F309880222E3
:1080FC0082F3148835483649364A00F041F8364840
:10810C003649374A00F03CF836483749374A00F0D0
:10811C0037F837483749384A00F032F83748384989
:10812C00384A00F02DF838483849394A00F028F818
:10813C0038483949394A00F023F83948394900227E
:10814C0000F036F838483949002200F031F8384848
:10815C003849091A03F0CCFD374A9047254826497F
:10816C00884205D00268043003B4904703BCF7E79B
:10817C0000208646EC4600200021304A9047FEE75E
:10818C00884214D0521A12D003460B4313430324D3
:10819C00234206D1036804300B600431043AF9D150
:1081AC007047037801300B700131013AF9D17047F7
:1081BC00884202D002700130FAE7704700000120BB
:1081CC0000F800200000012000000120A8D40700C6
:1081DC00142C00203C2C002004830700048307008F
:1081EC00A6D00700A8D40700142C0020142C0020C3
:1081FC00DCD00700DCD00700DCD00700DCD00700A7
:10820C00DCD00700DCD00700DCD00700DCD0070096
:10821C00A8D40700D0D407003C2C00203C2C002014
:10822C003C2C0020443700204437002044370020E9
:10823C0044370020443900207182070065A40700F0
:10824C000F484FF00701884385460E4880470E487B
:10825C00016841F470010160BFF34F8FBFF36F8F62
:10826C00FFF736BF09480A490A4A884207D0521A12
:10827C0005D0037801300B700131013AF9D1704708
:10828C000000012049B5070088ED00E0C8D00700C8
:10829C00002C0020142C0020FEE7FEE7FEE7FEE792
:1082AC00FEE7FEE7FEE7FEE7FEE7FEE7FEE7FEE79A
:1082BC00FEE7FEE7FEE7FEE7FEE7FEE7FEE7FEE78A
:1082CC00FEE7FEE7FEE7FEE7FEE7FEE7FEE7FEE77A
:1082DC00FEE7FEE7FEE7FEE7FEE7FEE7FEE7FEE76A
:1082EC00FEE7FEE7FEE7FEE7FEE7FEE7FEE7FEE75A
:0882FC00FEE7FEE7FEE700BF0C
:10830400044B1A5C012393404FF0A042C2F80C3591
:10831400704700BFDCD00700044B1A5C0123934074
:108324004FF0A042C2F80835704700BFDCD0070008
:1083340008B50020FFF7F0FF0120FFF7EDFF022052
:10834400FFF7EAFFBDE808400320FFF7E5BF4FF061
:10835400A0430322C3F87827C3F87C27C3F858271F
:10836400C3F83827FFF7E4BF30B50D490D4C8A6BCD
:1083740085B06D4628465C3102F090FD95E80F000B
:1083840084E80F00084BE360084B09490022C3E965
:1083940000222046074A03F017F805B030BD00BF9D
:1083A400F8340020E82C0020ED830700C02C0020C6
:1083B400E0D00700F82C00200A4B10B51C682046BA
:1083C40000F0D6FF08B102F03FF800224FF470111C
:1083D400204600F085FF18B1BDE8104002F034B823
:1083E40010BD00BF94D307005B689A68054B9A429E
:1083F40006D1D0E9012304490132013B0A604B60F4
:10840400704700BF7CD10700C02C002010B50B4C76
:10841400237893B90A4A0B48012100F04FFF08B1B1
:1084240002F012F80848002240F2666100F058FF9A
:1084340008B102F009F80123237010BD3C2C002080
:108444005184070064D20700C82C002008B5094BEA
:108454001B7873B102F0E0F9BFF34F8F0649074B65
:10846400CA6802F4E0621343CB60BFF34F8F00BFCE
:10847400FDE708BD852E002000ED00E00400FA05AC
:10848400034B1B7813B1034B01221A70704700BFD2
:10849400842E0020852E002038B5002002F0D4F868
:1084A4000546D0B90E4CA36BA3B1FFF75DFF88B1AD
:1084B400236A0BB9A06920B9E36A73B9A36963B1EC
:1084C400606A084B084A1860002102F021FB074B40
:1084D40001221A70002002F0E3F8284638BD00BFDC
:1084E400F8340020882E00208C2E0020862E0020B8
:1084F4002DE9F74F0C78012C0F46164601D0062CB7
:1085040004D13B79012B0DD1A34A1370A24B1D78E2
:10851400012D0BD0022D00F07A810525284603B0E9
:10852400BDE8F08F022BEFD00725F7E7631E052B7C
:1085340000F25A83DFE813F00600250045001F000F
:1085440058036201BB6833B3B3F5807F01D90425B6
:10855400E4E7924B186800F00BFF0024904B91481D
:108564001C702022214603F02BFC8F4BBA681C633D
:108574009A6301244EE08C4BDA6B1B6C7260B3601F
:108584001DE0894CBA68E06BA36B1118994204D9B9
:10859400236C7060B3600325C0E75C3079682044C5
:1085A40003F0DCFBB968E36B78680B4404F1400228
:1085B400E36300F027FFE36B2064C6E90130012583
:1085C400ACE7794ED6E90E329A4201D00825A5E7E8
:1085D400DFF8CC8198F80030002BF0D1FFF7C4FE0F
:1085E40001289AD1714D95F8A430002B00F0FA803F
:1085F40095F8AA30002B75D06D4BD3E9001201B168
:108604000AB9042013E095F83B313BB195F83C31AD
:1086140023B10A24FFF7D0FE25467FE795F8B4304E
:10862400002BEED0D5F8B830342B0ED0062002F053
:1086340037F801280446EDD1002002F07FF8002825
:10864400E7D1012388F8003093E795F80131032B33
:1086540012D095F8BCC0574F00204FF4405E6045DF
:1086640001DB0720E3E7BEF80C9057F804AFCA45D6
:1086740000F0BE820130F2E795F8AC30002BC0D098
:10868400F068D5F8B030984280F0C68295F8483149
:1086940053BB494B5E781878484B40EA062003F0F8
:1086A400F7FA06460028B4D1DFF8349195F8493139
:1086B400D9F804209A42ACD14149D9F8000003F01A
:1086C4004DFB404B40495A781F789B7847EA022774
:1086D40047EA034706F07F40384A4B46384303F0E5
:1086E40049FA18B1052495E70B20A0E7374B95F814
:1086F40001211860032A84D8DFE802F0023021380F
:1087040095F81021002A3FF47CAFD5F814211A60A3
:108714002F49304A096802F1200052F8045B41F8FD
:10872400045B8242F9D1186800283FF473AF2A4AE7
:10873400002102F0EDF900283FF47EAF0CE095F83B
:108744000821002A3FF45DAFD5F80C111960234AC3
:10875400C2F5FC229142DBD904245BE795F802219F
:10876400002A3FF44EAFD5F80421D0E795F808214C
:10877400002A3FF446AF95F80221002A3FF441AFA6
:10878400D5F80421D5F80C1150181860002A3FF4CC
:1087940041AF0029DBD13DE7142C002098D307001A
:1087A400862E002030350020F8340020F82C0020DC
:1087B400C02C0020B42D00205FD20700202C002004
:1087C400422E00205CD20700302C0020882E00208E
:1087D400182C0020132E00208C2E0020008007006F
:1087E400282C00202B78002B3FF497AE032001F0B7
:1087F40057FF012804463FF424AF0BE7A84BDA6B7C
:108804001B6CB36072604FF480733360D7E6013C35
:10881400052C3FF683AE01A353F824F039880700F2
:10882400B1880700158A07000B8A07002185070015
:10883400DD8B0700BA68002A3FF4ADAEC2F30B0328
:108844003BB1974B97495B6D096813448B427FF4A6
:10885400A2AEB2F5805F3FF67AAE934B1B78002B45
:108864003FF4B4AE8E4B8F49586D096814188C428E
:108874003FF6ACAED96C1865C3E911215A69186387
:1088840002B91A62894A1378013303F0030313709F
:10889400874B00221A80874B1B680121184401F082
:1088A400EFFE00287FF439AE0125F3E07C4CA26C86
:1088B400236DB2607C4A73601278002A3FF486AE5E
:1088C400B96880293FF643AE626D9B1A626C0B4413
:1088D40093423FF660AE04F148027868744DDFF8C5
:1088E400CC81DFF8D4A100F08DFDBA68236DB5F812
:1088F4000090A06413442365C6E9013002EB090328
:108904007F2B796833D898F8000009EBC0105044E5
:1089140003F024FABB684B442B80654B1A88002A69
:108924003FF44DAE636D206B616CD31A03448B42EC
:10893400FFF445AE5F4B98F800C01F685E49002302
:1089440001EBCC11384401F089FE002854D1584B76
:108954001A88236B1344236398F80030544A013374
:1089640003F0030388F800300023138027E698F807
:108974000020C9F180039BB209EBC2104FEAC21B6D
:1089840050441A46019303F0E9F9494BB968256B41
:1089940080221A80019BC91AB96079681944454B31
:1089A400796018680AEB0B010023284401F056FE95
:1089B400D8B93F4B1A88236B1344236398F80030CB
:1089C4003B49002201330A80BA6803F0030388F8A4
:1089D4000030002AA1D03848796800EBC31003F0B6
:1089E400BDF9334ABB68138097E7E36C626DA364F7
:1089F4002265C6E90123E1E7E36C626DA3642265A5
:108A0400C6E90123A8E7264B1A6D72609B6CB6E594
:108A1400234CD4E91423616CD31A99427FF4D6AD64
:108A2400A36C626500206064E36401F087FE07467E
:108A3400002840F0DB80DFF86C80226DD8F800302D
:108A44009A427FF431AF1D4E96F81931032B24D18D
:108A54001B490B78497843EA0123164963F30F0055
:108A64000968184B03F014F9164B00284FF0200244
:108A7400186806F21B1114BF0A25012503F048F9F2
:108A840018B10C2001F00CFE05466269E2B1012A1E
:108A940023D00A25FFF790FC40E50920F2E700BF48
:108AA400F8340020882E0020862E0020902E0020EE
:108AB400922E00208C2E0020942E0020F82C0020D2
:108AC4005FD20700182C0020544B96F8011103299B
:108AD4007BD8DFE801F06704673F514BF5E74FF4BB
:108AE40040521178142982BF51694E4AB1FBF2F108
:108AF4004D4A126802F5005298BF002110781428DC
:108B040083BF52694748B2FBF0F20022914261D11F
:108B1400012D5BD1A5229A60D6F804216263A26C70
:108B2400D8F800705A6001251F60202200213F48B8
:108B340003F046F9FC223E48FF2103F041F90023EB
:108B440023633C4B3C4801221A7001F0F7FD0028D6
:108B5400A0D09EE74FF440510878142882BF48699A
:108B64003049B0FBF1F03049096801F5005198BF74
:108B7400002091F800C0BCF1140F83BF4969DFF8ED
:108B8400A4C0B1FBFCF10021884203D0012A01D129
:108B940000222262012D19D1AC229A60D6F8042158
:108BA40062630EE0012D11D1022908D0012A9D60D3
:108BB40001D100222262D6F8B020A260AFE7AA2237
:108BC4009A60D6F8B020E260A9E70A250022C3E93A
:108BD4000122A9E70525F9E7184B9A6C1B6D736010
:108BE400B2604FF4805310E6022597E40A2595E419
:108BF400012B3FF44BAD022B3FF43EAD002B7FF431
:108C040000AD95F8AC30002B3FF4FBACB068D5F860
:108C1400B03098427FF63AAD052008E510350020C3
:108C24001C35002040420F008C2E002030350020DF
:108C340054350020842E002011840700F8340020CD
:108C44004B1C30B5DB00044612F003009BB20DD17F
:108C5400074D2A601A44074B1A60074B1870074BDC
:108C64001870074B1C80074B198030BD0720FCE7A8
:108C7400A03000209C300020983000209930002043
:108C840096300020943000202DE9F743DFF8BC80B3
:108C9400B8F800308B4206460D46174648D30024E8
:108CA4000DF107008DF8074000F072FB224B234AB8
:108CB40023481B78008892F800C084455FFA8CF141
:108CC40038BF0131DBB238BFCCB2A34229D014780B
:108CD4001178CBB2884286BF0133DBB20023E4B201
:108CE40013709DF8070000F077FB4FF6FF739C426A
:108CF40020D0144B1B6843F8347003EBC4099EB1B5
:108D040095B1114BB8F800001B682A46314604FBA4
:108D1400003003F023F8A9F80450002003B0BDE8A4
:108D2400F0834FF6FF74DCE70023A9F80430F4E77E
:108D34000920F3E70420F1E799300020983000205F
:108D440094300020A03000209C3000209630002079
:108D540070B5104C104D22782B789A4200D170BD1A
:108D64000E480F4A2378126806880E4802EBC301A6
:108D7400006852F83320898803FB060090470A49AB
:108D840022780988D3B2914286BF0133DBB2002333
:108D94002370E0E7993000209830002096300020BE
:108DA400A03000209C30002094300020094B5A78D9
:108DB40099780132D2B2914208BF002219789142C7
:108DC4001FBF02705A78182101FB023014BF04300F
:108DD40000207047B830002073B5054600240DF11B
:108DE40007000E468DF8074000F0D2FA0DF1060098
:108DF400FFF7DCFF90B10A4B9DF806200670456032
:108E04005A709DF8070000F0E7FA24B9054B4FF4B7
:108E14008012C3F80021204602B070BD0424F0E79C
:108E2400B830002000E100E0204B21491A682F23CC
:108E340000BF00BF00BF00BF00BF00BF00BF00BF36
:108E44008A422FD000BF00BF00BF00BF00BF00BFD9
:108E540000BF00BF00BF00BF00BF00BF00BF00BF16
:108E640000BF00BF00BF00BF00BF00BF00BF00BF06
:108E740000BF00BF00BF00BF00BF00BF00BF00BFF6
:108E840000BF00BF00BF00BF00BF00BF00BF00BFE6
:108E940000BF00BF00BF00BF00BF00BF00BF00BFD6
:108EA40000BF00BF013BC3D1704700BF382C002076
:108EB4000024F4000C4B0D484FF4003210B5C3F8F5
:108EC400802001244FF48033C0F84833C0F80833BD
:108ED4004460FFF7A9FF064B846000201860FFF789
:108EE400A3FF044B187010BD00E100E00010014026
:108EF400B0300020A5300020F8B51F4B1F491B6877
:108F04000025C1F84051C1F84451C1F84851C1F895
:108F14004C51C1F80051C1F804514BB3D1F8044588
:108F240017490968641A24F07F442F461A68A2423C
:108F340009D8A41A15441A7CDE691AB1D3E90520AC
:108F44001F749047AEB90F4A0F4B11781B788B42B0
:108F540005D10133DBB2022B08BF00231370127852
:108F64000A4B43F822500A4B4FF48012C3F80021F5
:108F7400F8BD3346DAE700BFB430002000100140EA
:108F8400B0300020A6300020A7300020A8300020F8
:108F940000E100E02DE9F74FA549A64A0B781278C5
:108FA400A54C9A4200F091800133DBB2022B08BF3A
:108FB4000023A24A0B70A249176851F823003B18FA
:108FC40023F07F4313600022236815461646944617
:108FD40013B942B1236006E01968814263D902B132
:108FE4002360091A19604FF001082368954EDFF8D1
:108FF40064A2009300277378002D69D132789A42D5
:1090040040F0828023682FB9009A9A4202D1B8F1C5
:10901400000F42D0002B00F00781D3F800908A4C57
:10902400864BD4F804651868884F351A3B7825F0C8
:109034007F4503359BB94FF48033C4F84433C4F8F7
:109044000433834B4FF400324FF00108C3F88021FE
:109054001A60C4F80080FFF7E7FE87F80080A9458E
:109064002CBF4844401920F07F40C4F84005D4F890
:1090740004359B1B23F07F43801B033320F07F4088
:1090840083420AD9D4F80435C4F84035FFF7CCFE3E
:109094006F4B4FF40032C3F800216E4B00221A705C
:1090A40003B0BDE8F08F401A0E44D968D3F81CE031
:1090B400C3F800C031B1BA1922F07F42C3E90121DB
:1090C400DD611D467346012282E70025A8468CE730
:1090D4002846ED69594BD0F804C01A68DFF878E1E6
:1090E4008368ACEB020121F07F41714572D80B44D7
:1090F40001210174216803600022C0E90122C261D8
:10910400002970D1206076E7531CB178D4F800B000
:10911400DBB2994208BF00233370182303FB0262B9
:1091240013799068022B1FD0032B50D0012B7FF4AE
:1091340062AF037C002B7FF45EAFD2E9031383603C
:109144005369C36093699AF800208361002A18BFA9
:1091540029464160BEE7904209D09146D269002A6F
:10916400F9D10023037446E75A46D946F7E7484540
:1091740012D1DBF81C10216071B9DFF8CCE0019248
:109184000123CEF80830DFF8B4E0CEF800103149FE
:109194000B70FFF749FE019A1168D269C9F81C20C7
:1091A40012B113680B44136023685B4518BF012791
:1091B400D7E78BF81020DBF81CB00123BBF1000FBC
:1091C400F7D1002B3FF417AFC4F800B013E72B46D8
:1091D4002A46F3E7A2EB0C0222F07F429A4234BF04
:1091E4009B1A002384E70A689A421BD3D21A0A60A6
:1091F400C16187E7A3EB0C03D2F81CC01146BCF194
:10920400000F0AD06246D2F800C06345F2D8ACEB36
:10921400030CC2F800C094460A460360C0F81CC0A0
:10922400D061E8E60A46EEE7FFF744FE35E700BF03
:10923400A7300020A6300020B4300020B030002039
:10924400A8300020B830002000100140A5300020D4
:1092540000E100E0A4300020FEFF7F0008B5FFF726
:1092640029FE104B00200B2218809A700E4B1860B8
:109274000E4B18700E4B18700E4B4FF48012E021F9
:10928400C3F8802183F814131A6002F18042A2F516
:109294006F22C2F8080583F81113074BD2F804258E
:1092A4001A6008BDB8300020B4300020A730002078
:1092B400A630002000E100E0B0300020074B9B788E
:1092C4004BB132B128B10368187C20B959745A6182
:1092D4007047072070470820704700BFB83000204F
:1092E4002DE9F743DFF8848098F8023005460E46EE
:1092F4001746ABB3A0B3042930D9436983B3437C85
:109304000024012B0DF107000CBF8946A1468DF8FE
:10931400074000F03DF80DF10600FFF747FDD8B116
:10932400012303700F4B4560D3F80435C0E904975B
:10933400C0E902369DF8063088F801309DF8070030
:1093440000F04AF824B9084B4FF48012C3F8002106
:10935400204603B0BDE8F0830424EFE70724F7E7D1
:109364000824F5E70010014000E100E0B8300020D7
:10937400064A92783AB130B1426922B100220274AD
:109384000221FFF729BD0820704700BFB830002034
:1093940070B5EFF3108672B60C4A9468012384B951
:1093A40093600B4B0B4DD3F8801029401160C3F828
:1093B4008050D3F8841051604FF0FF32C3F88420FA
:1093C4002346037006B962B670BD00BFC4310020E5
:1093D40000E100E0FC06FFBD084B9A6810B55AB1E5
:1093E40050B9EFF3108172B6054A1C6814605C68CA
:1093F4005460986001B962B610BD00BFC43100204A
:1094040000E100E030B53AB11368DB430A4D014492
:10941400884204D1D84330BD4FF0FF33F6E710F84B
:10942400012B5340082213F0010418BF2C46013AC3
:1094340084EA5303F7D1EBE72083B8ED0B4610B46D
:10944400114628B123B103605DF8044B1B6818472B
:109454000E205DF8044B70472DE9F043DDF81C80C5
:1094640018B312B3D0F800E0BEF1000F20D00BB354
:109474004768D7F80490B3FBF9F709FB1737CFB95E
:1094840042EA010C1CF0030F16D1C768B94213D38A
:1094940005694C1E1C44AC420ED8CDF81C80DEF885
:1094A4000C40A446BDE8F04360470E20BDE8F083BD
:1094B4000820FBE70920F9E71020F7E7F0B5D8B159
:1094C400D0F800C0BCF1000F18D0CAB14768D7F873
:1094D40000E00EF1FF370F4214D1C768B94211D32F
:1094E40005694C1E02FB0E44AC420BD8DCF810405C
:1094F400A446BDE8F04060470E20F0BD0820FCE71C
:109504000920FAE71020F8E7014B43600020704778
:1095140088D207000846704700207047024B18683D
:10952400003818BF01207047D031002008B510461C
:109534001A4602F013FC002008BD000010B5064BCB
:10954400002253E8001F01EA020043E8000494F0FB
:10955400000FF6D110BD00BFD031002008B5FFF7D1
:10956400EDFF002008BD00002DE9F0410E461D4628
:1095740086B0134B074611464FF0010853E8004FDD
:1095840044EA080243E8002090F0000FF6D1A4B9A1
:10959400AA08304600F0E0FEFFF7D0FFBB6843B1F5
:1095A4000C9A8DF80480CDE902460495059201A831
:1095B4009847204606B0BDE8F0811124F9E700BFC2
:1095C400D03100202DE9F0431546984687B0164B5C
:1095D40081460E46012253E8004F44EA020143E863
:1095E400001090F0000FF6D1DCB92746BD4212D12D
:1095F400FFF7A4FFD9F808304BB102228DF80420FC
:109604000022CDE90226CDE9045801A89847204656
:1096140007B0BDE8F08306EB073000F085FE0137A4
:10962400E4E71124F3E700BFD0310020D1E9003290
:10963400934208BF0023016043607047436843B10D
:109644000268916852680B449342436004BF00234C
:10965400436070472DE9F04FC9B008AA01F14005F5
:1096640014464B780E781B0443EA0663CE783343E2
:109674008E78043143EA06238D4244F8043BF0D14A
:109684001024916B16464FEAF14383EA714383EA4F
:109694009123716A366852F8045F31440B444FEAEF
:1096A400B54181EAF51181EAD50101340B44402C1E
:1096B400D363E6D1D0E914E30093836D0193C36DC2
:1096C4000293036E0393436E0493836E0593C36EF8
:1096D4000693DDE9057ADDE9031CDDE901592B4B2D
:1096E400009E079374464FF00008079A08AB52F89F
:1096F40004BB53F8283007924FEAF12282EAB112F0
:109704009B4482EA71625A4427EA010301EA0C0B82
:1097140083EA0B031A44524486EA05034FEA743A77
:1097240006EA050B8AEAB40A23408AEAB45A83EAB1
:109734000B0308F101085344B8F1400F02EB090B85
:109744001344A946BA4619D173440365009B2344C4
:109754004365019B33448365029B2B44C365039B90
:109764005B440366049B0B444366059B6344836626
:10977400069B3B44C36649B0BDE8F08F6746354657
:109784008C46264659461C46AFE700BF94D20700D4
:1097940030B5E0B10F4A104900240025C0E9124554
:1097A400C0E914120D4C0E4A0E4DC0E916420E4A81
:1097B400C0E918520D4A826602F17452A2F52302DE
:1097C4000023A2F692420364C266184630BD0E20FE
:1097D400FCE700BF85AE67BB67E6096A72F36E3CBF
:1097E4003AF54FA57F520E518C68059BABD9831F68
:1097F40070B50C4640B12AB9A5180026AC4205D173
:10980400002070BD0029F7D10E20FAE7036C14F88C
:10981400012BC2540133402B0364EFD10146FFF7FF
:1098240019FFD0E9123213F5007342F10002C0E9C6
:1098340012320664E2E7F8B50D46164604460028DF
:109844007BD0002979D0076C8022372FC25500EBDA
:10985400070341D800F137020021934239D1D4E9FA
:1098640012230821E7FB0123C4E9122312BAE2639D
:1098740023FA01F284F83B3084F83A201A0C1B0EC8
:10988400214684F8392084F838302046FFF7E2FE78
:10989400691E9EB30023E26EDA4001F8012FA26E26
:1098A400DA400A71626EDA400A72226EDA400A7392
:1098B400E26DDA400A74A26DDA400A75626DDA402C
:1098C4000A76226DDA400833202B0A77E3D1002090
:1098D400F8BD03F8011FC0E7C0F101010020CA1858
:1098E4003F2A08D921462046FFF7B4FE382200213A
:1098F40002F066FAB3E703F8010FF0E71823226DCC
:10990400DA4001F8012F626DDA400A71A26DDA4083
:109914000A72E26DDA400A73226EDA400A74626EE9
:10992400DA400A75A26EDA400A76E26EDA40083B43
:1099340013F1080F0A77E2D1C9E70E20C8E7F0B5A2
:1099440068B361B35BB300241C600A44DB274FF0A7
:10995400DC0C4FF0DD0E1C68914204F1010504D1CA
:109964001D60C02303550020F0BD0E78C02E05D025
:10997400DB2E0CD01D600D78055506E01D600755E3
:109984001C68651C1D6000F804C00131E3E71D601C
:1099940006551C68651C1D6000F804E0F5E70E2000
:1099A400E2E710B5034688B3D0E9022082422FD003
:1099B4001878012810D0022822D008B1112010BD37
:1099C400C029FCD0DB2902D101221A70F6E75868BD
:1099D400541C9C608154F1E7DC2905D0DD290AD0B0
:1099E40002221A700B20EAE7501C59689860C020C4
:1099F40088540022E9E7501C98605968DB20F7E797
:109A0400C029DBD100221A709A60D7E70E20D6E76E
:109A14000420D4E740DF704738B5074C051EA4F195
:109A2400080308BF1C4623682BB11A6822605B68D0
:109A340028469847F7E738BDE431002008B9FFF716
:109A4400EBBF704708B502F049F818B1BDE808400B
:109A5400FFF7E0BF4FF0804201235360D2F80C348B
:109A640003F00113B3F1011FF8D0024B00225A7026
:109A740008BD00BFD43100204FF080420123D360E1
:109A8400D2F8183413F48033FAD1014A9370704732
:109A9400D431002010B50E4C2378BBB96360A360A9
:109AA400E36023610B4B186810F0010002D1072119
:109AB40000F0EAF802F012F820B94FF080430122D6
:109AC400C3F8182501232370002010BD8520FCE76E
:109AD400D431002000E100E008B500F0CDF84FF0EB
:109AE40080434FF0FF32C3F80823FFF7C5FFFFF7A9
:109AF400A9FF024B00221A7008BD00BFD431002018
:109B040037B51F4CA378054603F0FF0293B110B19B
:109B1400436801209847002301A88DF80430FFF71B
:109B240037FCE3689DF804000133E360FFF754FC5D
:109B340003B030BD0DF103008DF80320FFF728FCBE
:109B440025B122691346B3B92A602561E26862B976
:109B54004FF08043C3F80421D3F804210192019A01
:109B64000222C3F8042301229A60E3689DF80300EB
:109B74000133E360DAE79D42E8D01B68E3E700BF06
:109B8400D431002007B500230DF107008DF807300C
:109B9400FFF7FEFB074BDA68013ADA60DB680BB9C2
:109BA400FFF76AFF9DF80700FFF716FC03B05DF8A6
:109BB40004FB00BFD4310020012813B508D00328CA
:109BC4001CD018B9124B0122C3F8802002B010BD7A
:109BD400104C00230DF107008DF80730FFF7D8FB78
:109BE40023780BB9FFF756FFE3689DF807000133AC
:109BF400E3600123A370FFF7EFFBE7E707210020F1
:109C040000F042F802B0BDE81040FFF7BBBF00BF50
:109C140000E100E0D43100204FF0804307B5D3F8D1
:109C240000216AB10020C3F80001D3F8002100929A
:109C3400009A0122C3F808230E4B5A70FFF7ECFE7A
:109C44004FF08043D3F804218AB10022C3F80421E1
:109C5400D3F804210192019A0222C3F80823054B88
:109C64000120987003B05DF804EBFFF7D5BE03B094
:109C74005DF804FBD4310020024B0122C3F880209C
:109C8400704700BF00E100E00028ADBF00F1604371
:109C94000C4B00F00F0203F561434FEA4111C9B2C6
:109CA400B4BF995483F80013012200F01F039A40B3
:109CB40043099B0003F1604303F56143C3F880212A
:109CC4001A60704714ED00E000F1804000F5C040D8
:109CD400002382B0036003680193019B02B07047C4
:109CE400800000F1A040D0F8003723F44033C0F8DE
:109CF4000037D0F8003743EA0143C0F80037704713
:109D04002DE9F04F85B000245C4D01944FF480722E
:109D1400012102F1804303F5C0431B68012B07D1E5
:109D2400D5F80433194203D090B2FFF7CDFF0C43AA
:109D34000432B2F5907F4FEA4101EAD14F4BD3F898
:109D44007C31012B0AD14FF4BE70FFF7BDFF4FF0F9
:109D5400A04344F00044D3F810350193E3B2D3B1E7
:109D6400474F01260025344210D0AB0003F1804355
:109D740003F5C043D3F81005D3F8101557F8253070
:109D840023B1C1F30141C0F3042098470135082DE4
:109D94004FEA4606E7D1002C6DDA00214FF0FF337D
:109DA400CDE90213364D374C4FF00008C146012669
:109DB4004FF0A04714F9013F5A1C49D0C3F3C20124
:109DC40001F110006844DAB210F804CC03F03F0A41
:109DD40003F0070306FA03F31CEA030F38D005EB7C
:109DE4000A0C92099CF930C055F82CB0BBF1000F55
:109DF4000AD1032A2CD10DF1080E1EF801C04CEA39
:109E0400030C0EF801C001E0032AF4D00AF5E07156
:109E140010F80C0C57F821101842C1F3014105D079
:109E2400022915D1032A0DD1114604E003290FD1CB
:109E3400032A07D102215046FFF752FF08F1010817
:109E44005FFA88F8BBF1000F02D011465046D8479C
:109E540009F10109B9F1040FACD1B8F1000F0AD02E
:109E64004FF0A043019AD3F810359A4203D00193DE
:109E7400029B039397E705B0BDE8F08F00600040B4
:109E8400E831002037320020002382B04350435889
:109E94000193019B02B070471FB501238DF8003078
:109EA400054B8DF8080001916846D3E900129047EC
:109EB40005B05DF804FB00BF403200202DE9F041FD
:109EC400444C06791C2303FB06430546DB7E002B2A
:109ED4007DD10B6800685F1C0BD04FF0A04C0127AC
:109EE4009F40CCF8087503F5E0774FF0030E4CF86B
:109EF40027E0D1F804C0BCF1FF3F1FBF0CF5E077A9
:109F04004FF0A04E4FF000084EF827808F69C0F83C
:109F1400247591F814E04F7DBEF1010F4EEA070756
:109F2400C0F86C75C0F80C35C0F814C520D18F6822
:109F34007B1C1FBF07F5E0734FF0A04C4FF0000EE1
:109F44004CF823E0CB68B3F1FF3F0DD04FF0A04EA7
:109F54004FF0010C0CFA03FCCEF808C503F5E07CC5
:109F64004FF003084EF82C80C0F80835C0F810757F
:109F74001C237343E7187A600F69E750C2B10A7F64
:109F84004FF48871FFF780FF4FF49071FFF77CFF67
:109F94004FF49271FFF778FF4FF4A271FFF774FF4B
:109FA4000D4BC0F80433114640F30730FFF76CFE45
:109FB4002B680822C3F800251C2303FB0644002059
:109FC4004FF48073E08220766383BDE8F08108203B
:109FD400FBE700BF4032002010030200F0B5036825
:109FE40007790022C3F80025294A1C2101FB072117
:109FF400496871B12749C3F8081343F30731480985
:10A00400012401F01F018C4000F12001224840F896
:10A014002140D3F80C55D3F81445D3F80815D3F8D8
:10A0240010054FF0FF36B542C3F80C6518BF05F5AF
:10A03400E075C3F81465C3F80865C3F810651EBF5E
:10A044004FF0A043022643F82560651C1FBF4FF064
:10A05400A04304F5E074022543F82450441C1FBFB8
:10A0640000F5E0704FF0A043022443F820404B1C5D
:10A074001FBF4FF0A04301F5E071022043F8210017
:10A084001C2303FB07230022DA765A60F0BD00BFCD
:10A09400403200201003020000E100E00279044B8A
:10A0A4001C2101FB0233987D003818BF0120704742
:10A0B400403200202DE9F84301F06043B3F1005F22
:10A0C40005460F46904630D1FFF7E8FF044670BBC3
:10A0D40095F80490184A2D681C2606FB09264FF4AF
:10A0E4009071B082284686F81680B760FFF7CCFEE0
:10A0F4004FF4AC71FFF7C8FE0123C5F84475C5F8E9
:10A104004885AB607368A3B9D5F82031D5F85801F8
:10A114000343F9D01C2303FB092200284FF000035A
:10A1240018BF0F209375BDE8F8831020FBE71120BA
:10A13400F9E72046F7E700BF403200202DE9F84355
:10A1440001F06043B3F1005F0E4669D10779354DE4
:10A154001C2303FB0753D3F80480B8F1000F04D089
:10A1640003684FF40471C3F808131C2303FB07535B
:10A17400D97D69B1197E00293ED0B8F1000F04D011
:10A1840003684FF40472C3F804231120BDE8F88374
:10A19400DA75DE60597689461C23046803FB07538D
:10A1A400204619764FF48871FFF76EFE4FF4A271C2
:10A1B400FFF76AFEC4F83465C4F83825B9F1000F16
:10A1C4001FD101232360B8F1000F23D1D4F810313B
:10A1D400D4F84421D4F82401134319D10028F5D02C
:10A1E4001C2202FB07550022904218BF0320934211
:10A1F400EA7518BF0F20C9E71E6111464FF0010927
:10A20400CAE7D4F8003243F02003C4F80032DAE796
:10A214001346E5E74FF40473C4F804330020B5E7AC
:10A224001020B3E740320020704700007FB5384A61
:10A23400D2F82461002E48D010464FF49271FFF7F3
:10A2440023FE02238DF80030D2F88034C2F8803423
:10A254000393D2F83C358DF808302E4BDA6801921E
:10A264000022DA751A766846D3E900129047284826
:10A27400D0F8443173B14FF4A271FFF705FE254BBA
:10A28400DA7D3AB10022DA75D0F83C05D968C0B25B
:10A29400FFF702FE1E48D0F82031A3B14FF49071AD
:10A2A400FFF7F2FD1B4B9A7D6AB1D0F84C158DF87F
:10A2B4000810002299688DF8002001919A7568466B
:10A2C400D3E90012904704B070BDD2F81031002BCE
:10A2D400CDD04FF488711046FFF7D6FD0D4BD2F860
:10A2E4003C15D87DC9B28842C1D11C7ED96864B1FD
:10A2F400D2F8005225F02005C2F800521A69DC7524
:10A30400DA601E76FFF7C8FDB1E7DC75FAE700BF37
:10A314000020004040320020024AD2F80034002BD2
:10A32400FBD0704700E001400A4908B50223C1F898
:10A334000435BFF36F8FBFF34F8FC1F80805FFF7E4
:10A34400EBFF0023C1F80435BFF36F8FBFF34F8FCA
:10A3540008BD00BF00E0014070B50E4E0123154654
:10A36400C6F80435BFF36F8FBFF34F8F0024AC42A0
:10A3740007D10023C6F80435BFF36F8FBFF34F8FA7
:10A3840070BD51F8243040F82430FFF7C5FF013484
:10A39400EDE700BF00E0014082B00190C0B2013897
:10A3A400082820D8DFE800F019051C101316051C36
:10A3B4001000182230239DF805008B60C1E900329B
:10A3C4000C3102B000F016B820224023F3E730220B
:10A3D4006023F0E742228423EDE714222823EAE7EE
:10A3E4001C223823E7E700230620C1E900338B60F1
:10A3F40002B070470138062811D8DFE800F00410D5
:10A4040004080A0C0E0014230B60002070471C2360
:10A41400FAE72023F8E73023F6E74023F4E70620A1
:10A4240070470000BFF34F8F0549064BCA6802F41A
:10A43400E0621343CB60BFF34F8F00BFFDE700BF63
:10A4440000ED00E00400FA0508B5FFF7EBFF4FF05C
:10A45400A043D3F8100580F48030C0F30040704767
:10A4640010B5FDF774FF0220FDF74AFF4FF0A0433B
:10A47400074AC3F8402700F00FF8044608B1FFF775
:10A48400D1FF4FF44053986800F010F8204610BDF7
:10A494000C0003000020704708B5FFF7FBFF08B964
:10A4A40000F05CF808BD13DF7047000010B50446E7
:10A4B40000F029F978B9084B4FF0FF32C3F8802037
:10A4C4002046C3F88021FFF7EEFF20B92046BDE8FF
:10A4D400104000F003B810BD00E100E0F0B5034601
:10A4E400186880F308885868FF2464B2EFF3058580
:10A4F400002D08D1EFF31481022221EA020181F335
:10A504001488A64600472546064621273FBAF0B4DC
:10A514000024002500260027F0B4F92040B20047AB
:10A52400F0BD00BF10B5FFF792FF014680B94FF0B0
:10A534008042D2F81C25D2B2B12A09D0064A946DC1
:10A54400012C06D1906500F0F9F808B1FFF77CFF03
:10A554000121084610BD00BFF834002013B50020C7
:10A56400019000F013F9FFF795FA08B1FFF76CFFBB
:10A574000020FFF7C5FA4FF08042D2F81834DB030D
:10A58400FBD5FEF76BFE08B1FFF75EFF244A2548B2
:10A594000021FEF793FE08B1FFF756FF01A800F073
:10A5A400E3F908B101230193FFF7BCFF08B10123CC
:10A5B40001934FF080430022C3F81C25019BCBB1CB
:10A5C400194A10210820FEF73BFB08B1FFF73CFFB6
:10A5D400164800224FF47011FEF782FE0446D8B9E3
:10A5E40000F004F90446B8B9FDF756FFFEF7B0FBD6
:10A5F40020BFFBE700F056FA0028E1D000F0F4F8A1
:10A60400044648B900F04EFA30B1FFF765FA4FF44A
:10A6140040539868FFF74AFF204602B010BD00BFC0
:10A6240049A8070094D307005C3200206C33002053
:10A63400044B1A6812B11A68013A1A60036903B12B
:10A64400184770478C330020024903480022FEF764
:10A65400F5BE00BF68D20700002C002037B5064DB8
:10A664002C6801342C60009313460A4601460348C3
:10A67400FEF7F2FE03B030BD8C330020002C002026
:10A6840030B4054D2C68013413462C600A4630BCA6
:10A6940001460248FEF712BF8C330020002C002034
:10A6A400014B18700B20704790330020024B00229E
:10A6B40018781A70704700BF9033002018DF704775
:10A6C40030B585B0054610220C466846002101F0DD
:10A6D40077FBA408684601950294FFF7EFFF05B0E5
:10A6E40030BD1FB59308C2F3890252B9CDE9020304
:10A6F40001226846CDE90021FFF7E0FF05B05DF8CF
:10A7040004FB0920FAE71FB50023CDE901330393C5
:10A71400684602230093FFF7D1FF05B05DF804FB00
:10A724001FB50323CDE900309208684602910392D5
:10A73400FFF7C4FF05B05DF804FB000038B5002244
:10A74400044601210E48FFF79BFF024608B103208F
:10A7540038BD0C4D58212846FEF754FE29464FF4C7
:10A76400B27241F8040D084801F0F8FA06490448A9
:10A7740023464FF4B272FFF771FF0028E8D0E6E7F2
:10A7840000F00700FC3400209433002010B5FFF7DC
:10A794005BFF08B1FFF758FE114C12494FF4B27237
:10A7A400204601F0DBFA236801330FD10C484FF443
:10A7B400B272002101F004FB012300206360FFF763
:10A7C400BDFF58B1BDE81040FFF73EBE002258213E
:10A7D400201DFEF717FE23688342E7D110BD00BF9A
:10A7E400F834002000F007000020704770B5084ED0
:10A7F400084CA41BE4080025A54201D1002070BD2B
:10A8040056F8353098470028F9D10135F4E700BFF0
:10A81400A8D00700B0D0070070B5084E084CA41BA0
:10A82400E40800250436A54201D1002070BD56F885
:10A83400353098470028F9D10135F4E7A8D007004E
:10A84400B0D00700BFF34F8F0549064BCA6802F426
:10A85400E0621343CB60BFF34F8F00BFFDE700BF3F
:10A8640000ED00E00400FA05044A0023C0E90033C7
:10A874008360C2E90C33C2E904337047F834002022
:10A88400124B70B55B6B0D68ED1A8B68AC2B0446EC
:10A894000E460BD00E482A462146FFF741FF68B109
:10A8A40029462046BDE87040FFF70ABFA0F5804165
:10A8B4002A460748FFF734FF0028EBD13046FFF75C
:10A8C400D3FFBDE870400348FFF738BFF8340020D9
:10A8D40000800700D9AA07002DE9F843DFF8849027
:10A8E4001F4AD9E90C6303F6FF75AD1B1540AC088C
:10A8F40004F6FF74144037180BB19E422DD03EB3BA
:10A9040006F58056DFF85880AC4284BF05F6FF7424
:10A9140004EA0804224639463046FFF7E2FEA8B9A5
:10A92400224639463046FFF7FBFE78B9A542D9F8EE
:10A93400343034BF05462D1B5B1B002026442744BE
:10A94400C9F83030FFF7FAFE002DDDD1BDE8F883F9
:10A95400C9F848704FF48056D4E70020F6E700BFEA
:10A9640000F0FFFFF83400202DE9F8434FF4405382
:10A97400494C9E682369012B074613D063698BB148
:10A98400A06900F6FF706FF30B00304404F1240556
:10A99400AB68AA2B7BD009D8012B19D0A52B62D088
:10A9A400002371E0304604F11805F1E7AC2BF7D130
:10A9B400A66C002E08BF06463046FFF78DFF0346FF
:10A9C40000285FD1606B29463044FFF759FF58E0F7
:10A9D4006369012BE4D1256BD4F824902E44A9EBB0
:10A9E40005080544B8F5805F4FF000024FF00101FF
:10A9F4003046474628BF4FF48057FFF741FE0346D1
:10AA0400002841D13A4629463046FFF727FE03463F
:10AA1400002839D13A4629463046FFF781FE0346DD
:10AA240090BB236B3B442363FFF788FEB8EB070816
:10AA34003E443D44D6D14FF440534246986849467B
:10AA4400FEF7E0FCA36A984204BF0123C4E90703AC
:10AA5400124808BFC4F81890FFF706FFBDE8F84392
:10AA64000020FFF76BBEA36C002B18BF1846FFF73E
:10AA740033FF034630B92846FFF7F6FE0848FFF7D0
:10AA84005DFE034601223A601846BDE8F883294674
:10AA9400BDE8F843FFF7F4BEF83400201C3500206D
:10AAA400D9AA070010B50A4C206A01280DD1E36920
:10AAB40053B14FF44053A16998680022FEF7A2FCF9
:10AAC400E3691B1A5842584110BD0020FCE700BF3F
:10AAD400F834002008B5FFF7E5FF90B1094A0A48A9
:10AAE4000021FEF7EBFB08B1FFF7AEFC074800229C
:10AAF4004FF4A021FEF7F4FB18B1BDE80840FFF7BE
:10AB0400A3BC08BD49A8070098D307005C36002001
:10AB140070B506464FF010204FF4405344699B68CB
:10AB2400A4F54054E41A32B3B44201D2042070BDF7
:10AB34001360124B186A012819D19D6905F6FF7537
:10AB44006FF30B05641BA64209D90029EED1C3E9B2
:10AB540004010B4B1E600020C3E90100E7E700215C
:10AB6400C3E904101168294411602433F2E7002278
:10AB7400C3E90422EDE70720D9E700BFF834002039
:10AB8400103500200023C0E90232C0E900118B789F
:10AB94001A44026191F903301A444261087800387A
:10ABA40018BF0120704770B542681178034641B15F
:10ABB40002F10C014160117B29B9C2680168FFF7F9
:10ABC400E1FF002070BD507811791C6900F0300657
:10ABD400302E13D1557B05F03005302D16D19178E8
:10ABE400611A19610021907B0844196901441961B3
:10ABF40092F90F20114459610120E3E700F0F004B9
:10AC0400202C03D1507910FB01F1ECE700F0C000D7
:10AC1400802808BF0421002EE5D19868013098608F
:10AC2400E1E770B5466804460D4663681A78AA429F
:10AC340004D15B7803F00F03082B07D12046FFF7FC
:10AC4400B2FF6368B342F0D1002070BD0120FCE77D
:10AC540043681A44426011B101399A4201D101207A
:10AC6400704713F8010B01F8010FF6E7836810B57C
:10AC740004460BB9002010BD036801229847002840
:10AC8400F8D0A368013BA360F5E72DE9F3410F4633
:10AC94000DF107018046FFF7E9FF054620B90025BD
:10ACA400284602B0BDE8F0819DF907309DF80740C1
:10ACB400002B13DA04F07F0407260DF10701404648
:10ACC400FFF7D4FF0028EAD09DF8072002F07F03A5
:10ACD400B3401C43130606F1070601D43C60DFE7CA
:10ACE400232EEAD1DBE770B541684A7802F00F05FC
:10ACF400082D86B003461FD103691C6800260CB9D1
:10AD040006B070BD236862689D682673294668464C
:10AD1400FFF738FF6368049304F10C0305936B7821
:10AD240003F0C003802B08BF231D684608BF0493AB
:10AD3400FFF7D9FFA468E2E73F2A24D802F03000E5
:10AD440010280DD15A6900201070072D8C681869DD
:10AD54000CD10146204606B0BDE8704000F01FB893
:10AD64009006F2D55B6900221A70C9E70A79214678
:10AD740024B106B0BDE8704000F0F0BF06B0BDE8F5
:10AD8400704001F01DB802F0C0018029B8D10069FB
:10AD940000210160920644BF5B691970B0E77FB57A
:10ADA4000A4601466846FFF7EDFE30B16846FFF7F4
:10ADB4009AFF6846FFF7F7FEF7E707B05DF804FB74
:10ADC40030B5044685B01546A9B90268114B9A42BC
:10ADD40011D0102D06D82A4669462046FFF7F0FF09
:10ADE40005B030BD102269462046FFF7E9FF002870
:10ADF400F6D0103DEDE7A368AB4201D20020EFE7A7
:10AE040023682A46204698470028F7D0A3685B1B8E
:10AE1400A360E5E755AC07002DE9F3410F4601A90E
:10AE240080461646FFF731FFA0B1019C621C4FF02B
:10AE3400000504D27B7803F0C003802B01D128469F
:10AE440008E03B799342FAD3224631464046FFF765
:10AE5400B7FF355502B0BDE8F08173B50D4601A9C1
:10AE640006461446FFF711FFA8B1019AFF2A12D82B
:10AE74006B7803F0C003802B02F101010BD02B7916
:10AE84008B4208D32146304601F8012B02B0BDE8BD
:10AE94007040FFF795BF002002B070BD10B5034CA1
:10AEA40082600022C0E90041C26010BD55AC0700B9
:10AEB4002DE9F341002506460F46A8462C460DF120
:10AEC40007013046FFF7D2FEC0B19DF807C0A4F1D8
:10AED40020030CF07F02C4F1200102FA03F322FAEA
:10AEE40001F10B43A2401CF0800F45EA020543EA3E
:10AEF400080804F1070404D1C7E9005802B0BDE80A
:10AF0400F081462CDBD10020F8E737B50D466946C1
:10AF14001446FFF7CDFFA8B12B79013B072B20D8AE
:10AF2400DFE803F01A161F121F1F1F04DDE90032A9
:10AF3400C4E90032DDE90001914208BF98420CBF28
:10AF44000120002003B030BD009B23600022F1E704
:10AF5400009B23809BB2F9E7009B237003F0FF035F
:10AF6400F4E70020EEE737B50D4669461446FFF7CF
:10AF74009FFF30B12B79082BDDE9001203D1C4E91E
:10AF8400001203B030BD022B4FEAE1700FD0042B46
:10AF940003D0012B0FD00020F3E721600B460246BB
:10AFA400824208BF8B420CBF01200020E9E70BB2AC
:10AFB4002380DA17F4E74BB22370FAE7F7B51F469C
:10AFC40000233B700D460B70136001A9044616461E
:10AFD400FFF75BFE38B9A36813B1002003B0F0BDDE
:10AFE40001233B70F9E7019C002CF9D0E30804F03D
:10AFF400070433602C70F1E713B50446052921D802
:10B00400DFE801F0030F1720201E012201A92046CA
:10B01400FFF7D6FE18B19DF90430002BF5DB02B022
:10B0240010BD08220021204602B0BDE81040FFF701
:10B03400C7BE01A9FFF729FE0028F0D0019AF1E765
:10B044000422EFE70020EAE773B50D4601A90446A0
:10B05400FFF71BFE064618B90026304602B070BD45
:10B0640094E80F0085E80F0001998A42F4D3A9609F
:10B07400A3685B1AA360F0E72DE9F04357687B7877
:10B0840013F0C00C89B006460C46154604D0BCF13A
:10B09400400F66D0002442E003F00F025D4903F044
:10B0A4003003202B51F8228020D007D8D3B92A6945
:10B0B4003946434609B0BDE8F0431847302BE9D17F
:10B0C4006B6939781970072A0AD16B6828691A796B
:10B0D400614600F075FE6B6829699868FFF75FFEAA
:10B0E4002A693BE06B6901221A70E0E7022CD5F86B
:10B0F400149027D1042A25D804A9FFF7A5FF0446F4
:10B104000028C7D0069B2BB1696899F800304A79AA
:10B114009A4208D8059B7360069B002BBAD120463F
:10B1240009B0BDE8F08308792A6900FB032204A86A
:10B13400C04728B199F80030013389F80030E1E7BD
:10B144000446E7E799F800307A799A42A2D92A6945
:10B154003979581C89F8000001FB032269683046DC
:10B16400A7E7D2F81080474657F8043B23B909B043
:10B17400BDE8F043FFF740BF022914D104A9FFF74B
:10B1840063FF002886D0D8F8003069683A4604A8DE
:10B194009847044600283FF47DAF069B002BF2D16C
:10B1A400059B7360BBE7012925D005292BD0002915
:10B1B4007FF470AF0DF1040901340B2C3FF46AAF36
:10B1C400012249463046FFF7FBFD00283FF462AFF9
:10B1D40019F9013B002BEFDB0F4B049301ABCDE9D5
:10B1E4000534002307936968D8F800303A4604A868
:10B1F4009847044693E7082201A9FFF7E1FD0824D4
:10B204000028E9D146E704220DEB0201FFF7D8FD3F
:10B214000424F5E79CD3070055AC07002DE9F0475B
:10B2240090B00446002604A8CDE90266FFF7AAFC04
:10B23400A3683BBBDDE9053404A85D78FFF7B3FCE4
:10B244000028F7D115F0300F03D1059B1B7803B10B
:10B254000134002C00F0B480630902A90022934257
:10B2640040F0A78010AA02EB830304F01F0453F8F4
:10B27400383CC4F120044FF0FF30E040C31A584278
:10B2840058410DE00DF1030301AA0DF1020120461E
:10B29400FFF794FE38B99DF80330002BCAD1002083
:10B2A40010B0BDE8F087019F04A83946FFF7B9FC48
:10B2B400002857D1B7424CD3059D059A537803F023
:10B2C4000F03082B7ED004A8FFF76DFC059B9D425D
:10B2D400F3D14FF0FF36B7429DF8029039D3089B63
:10B2E400D4F808801D68A36885B39845A0D12B685D
:10B2F400D3F800A0BAF1000F08D04B463A462946CD
:10B304002046D0470028CAD0AD68ECE7D3F808A09F
:10B314009AF800309F42F7D16A6851460AA8FFF7AD
:10B3240031FC6B680E9305F10C030F939AF801300E
:10B3340003F0C003802B04BF2B1D0E9301232B733A
:10B344000AAA49462046FFF797FEDBE798457FF4B3
:10B354006FAF9DF802102046FFF74EFE00287FF4E1
:10B3640067AF9CE7059B5B7813F0300F0FD1069A0B
:10B374003F2A0CD8510910AB03EB810102F01F02E4
:10B384000123934051F8382C134341F8383CD4F846
:10B394000C809DF80250B8F1000F04D004AB2A468B
:10B3A40039462046C04704AA29462046FFF764FED2
:10B3B400D4E751F8040B01307FF471AF01324EE74A
:10B3C40001206DE7167886E770B50C4606461546EB
:10B3D40011462046FFF7E3FC2A4621463046BDE8E5
:10B3E4007040FFF71BBFF0B585B08F680C46694607
:10B3F40005461646FFF728FE68B1A06858B1637881
:10B4040003F03003202B32463946684605D1FFF756
:10B41400DBFF019B6B6005B0F0BDFFF7FFFEF8E7B3
:10B4240013B50C466946FFF743FD60B1DDE900132F
:10B434004A0842EAC372C9074FEA530344BFD243DE
:10B44400DB43C4E9002302B010BD37B50D4669469D
:10B454001446FFF7E5FFA8B12B79013B072B1FD852
:10B46400DFE803F01A161E121E1E1E04DDE9003268
:10B47400C4E90032DDE90001914208BF98420CBFE3
:10B484000120002003B030BD009B2360DA17F1E7F0
:10B49400BDF900302380F9E79DF900302370F5E70A
:10B4A4000020EFE713B504220C460DEB0201FFF771
:10B4B40087FC08B1019B236002B010BD1146FFF761
:10B4C400F1BF13B508220C466946FFF779FC18B1A1
:10B4D400DDE90023C4E9002302B010BD1146FFF7E3
:10B4E400F0BF4FF0704393F8E02F062A10D1D3F841
:10B4F400E42F12070CD1D3F8E80F00F0F003302B3F
:10B5040008D000F0E000A0F14003584258417047D1
:10B5140000207047012070474FF0704393F8E02FEC
:10B52400062A0CD1D3F8E42F120708D1D3F8E80F78
:10B5340000F0F000A0F13003584258417047002059
:10B544007047000008B5FFF7CCFF40B14FF08053BF
:10B55400804AD3F82433C3F30423C2F84035FFF7F9
:10B56400DBFF10B17C4B7D4A5A67FFF7BAFF48B145
:10B574004FF080534FF08042D3F84432C3F3423348
:10B58400C2F83C35FFF7C8FF30B1754AD2F8FC3039
:10B5940023F08073C2F8FC30FFF7A3FF40B14FF0F3
:10B5A40080430022C3F80C21C3F81021C3F83825C6
:10B5B400FFF7B2FF20B14FF080430322C3F8A02568
:10B5C400FFF7AAFF60B1674B0522C3F810260122DA
:10B5D400C3F888260022C3F818263F22C3F814268D
:10B5E4004FF0704393F8E02F062A50D1D3F8E42F9C
:10B5F40011074CD1D3F8E83F03F0F003502B46D1A8
:10B604004FF08052584BD2F80414C3F82015D2F8E6
:10B614000814C3F82415D2F80C14C3F82815D2F86A
:10B624001014C3F82C15D2F81414C3F83015D2F83A
:10B634001814C3F83415D2F81C14C3F84015D2F802
:10B644002014C3F84415D2F82414C3F84815D2F8CA
:10B654002814C3F84C15D2F82C14C3F85015D2F89A
:10B664003014C3F85415D2F83414C3F86015D2F862
:10B674003814C3F86415D2F83C14C3F86815D2F82A
:10B684004014C3F86C15D2F84424C3F87025FFF7AE
:10B6940028FF48B14FF080534FF08042D3F858321E
:10B6A40003F04F03C2F8E43EFFF71BFF48B14FF02D
:10B6B4008043D3F80024D20744BF6FF00102C3F8DB
:10B6C4000024274AD2F8883043F47003C2F8883043
:10B6D400BFF34F8FBFF36F8F4FF01023D3F80022C7
:10B6E400002A03DBD3F80432002B2EDA1F4B01228D
:10B6F400C3F80425D3F80024002AFBD04FF010220D
:10B704001521C2F80012D3F80024002AFBD04FF010
:10B7140010231522C3F80422144BD3F80024002A62
:10B72400FBD00022C3F80425D3F80024002AFBD060
:10B73400BFF34F8F0A490E4BCA6802F4E062134309
:10B74400CB60BFF34F8F00BFFDE70A4B0A4A1A6074
:10B7540008BD00BF0030014000C007400DF0ADBA85
:10B7640000ED00E00050004000C0004000E0014057
:10B774000400FA05382C00200090D003F0B54FF0F7
:10B78400A043032289B01E4CC3F87827C3F87C2752
:10B794004FF08042C3F80C254FF00042C3F808254F
:10B7A400184E04F119030027E3608123C4E90473EC
:10B7B4000FCE6D460FC596E80F0085E80F000522F1
:10B7C4000B23CDE9002307210623CDE9021301252C
:10B7D4000D4B0E4A2772694620468DF81450049486
:10B7E40023602771FEF76AFB40B92046FEF71CFD73
:10B7F4002A4604F118012046FEF7A0FC09B0F0BD6A
:10B804009C360020C0D307000020004031B9070057
:10B8140008B50248FEF7E2FB002008BD9C36002074
:10B8240070B50C4686B00E220546002102A800F031
:10B83400C7FA62788DF80A20602300268DF8083054
:10B84400012A237801968DF8093061D1033B062B38
:10B8540068D8DFE803F00467672A50675800636814
:10B864008DF80B301A0A8DF80C201A0C1B0E8DF86B
:10B874000E30A3688DF80D201A0A8DF80F308DF85C
:10B8840010201A0C1B0E8DF811208DF812300B228B
:10B8940001AB02A92448FEF752F89DF8042022497E
:10B8A4002846FEF707FC06B070BD63688DF80B30C0
:10B8B4001A0A8DF80C201A0C1B0E8DF80E30A36892
:10B8C4008DF80D201A0A8DF80F308DF810201A0CFF
:10B8D4001B0E8DF81230E3688DF811201A0A8DF8CA
:10B8E40013308DF814201A0C1B0E8DF815208DF8CA
:10B8F40016300F22CCE7A3888DF80B301B0A8DF885
:10B904000C300522C4E723798DF80B300422BFE7FD
:10B914000B2A07D1FEF7CAFE8DF80B003046FEF75E
:10B92400BFFEF3E70322B3E77C36002030B503788B
:10B93400012B8BB00C460AD0022B00F0C580002BE3
:10B9440040F0C8800BB0BDE83040FCF799BD4368B7
:10B9540004F108001978FEF724F8054600285DD1A3
:10B964000146CDE903000590102206A800F028FA4C
:10B97400627E23698DF818204FF0A0414FF00040FB
:10B98400CDE900550295013BC1F80C05013A4FF091
:10B9940080409BB2C1F80805082A00F29380DFE8D2
:10B9A40002F0051F284691485D648800052B03D0EA
:10B9B40003238DF819302AE0B4F89A30A4F89C30A7
:10B9C400A37E0193D4F81B300293012303AA694692
:10B9D40000208DF80030FCF78BFD8DF8190016E07F
:10B9E400022BE5D1638BA4F89A30A4F89C30012390
:10B9F400DFE7042303AA694600208DF80030FCF732
:10BA040077FD049B0793059B8DF81900089306A9FD
:10BA14002046FFF705FF0023236123722E490122EC
:10BA2400A1F118000BB0BDE83040FEF787BB03233B
:10BA3400CCE7012BBCD1A37E019303AA062369465C
:10BA440000208DF80030FCF753FD039B0793049B03
:10BA54000893059B8DF819000993D8E701238DF805
:10BA640019308123ADF81C30D1E702228DF8002073
:10BA740004F11A02CDE90123694603AA0020FCF768
:10BA840037FDB4F89A208DF81900002AC3D0B4F811
:10BA94009C30013B9BB2A4F89C30002BBBD1032308
:10BAA4008DF81830049B0793059B0893A4F89C20F9
:10BAB400ADE7012B7FF47CAF8DF81930A37E8DF8B0
:10BAC4001C30A4E7022374E7C0680BB0BDE8304023
:10BAD400FEF7BABC0BB030BDB4360020014B187869
:10BAE400704700BF3C37002007B508496846FDF79A
:10BAF4009DFD019B13B903B05DF804FBD3E900205D
:10BB040090476846FDF79AFDF3E700BFE0D30700CE
:10BB1400FFF7EABF002108B5044A0846FDF7B4F868
:10BB240018B1BDE80840FEF78FBC08BD15BB07007F
:10BB340048DF70471FB50E4C01A8FFF7F9FF70B935
:10BB4400214602A8FDF772FD039B002BF4D0019857
:10BB5400D3E90021904702A8FDF770FDF4E705281A
:10BB640004D004B0BDE81040FEF76EBC04B010BDB4
:10BB7400ECD307002DE9F04188B00D46039016463A
:10BB84001F4601F025F98046002D2FD076B36FB300
:10BB94002B686BB332685AB3396849B30A43134309
:10BBA4009B0725D1039804A9FEF7F6FB0446C8B900
:10BBB4006A68049B9A421DD17268079B9A4219D104
:10BBC4007968069B994215D19DF80C30042B13D14A
:10BBD400CDF800803B683168286801F0FDF8002842
:10BBE40008BF0B24204608B0BDE8F0810E24F9E715
:10BBF4001024F7E70924F5E70624F3E782B0ADF84B
:10BC0400040059B1086860B14B686F2B0BD99DF8DB
:10BC14000430052B09D102B0FDF7BABD0E2002B0E5
:10BC240070471020FBE70920F9E70620F7E730B159
:10BC340029B143686F2B04D90068FDF7D9BD0720EB
:10BC440070470920704730B585B01446ADF804003C
:10BC5400E1B1DAB14B68702B02D0092005B030BDD8
:10BC64000D689DF8040003A9FEF7C4FB0028F5D174
:10BC74006268039B9A42F0D19DF805202168B2FACC
:10BC840082F252092846FDF7D6FDE7E70720E5E7EB
:10BC940070B5A2B0164606AA04927022ADF804004C
:10BCA4000D46C0B205921C46F3B1E9B11B68EBB175
:10BCB40005281DD103A9FEF79DFB98B96268039B73
:10BCC4009A4217D1019804A9FFF798FF50B9324658
:10BCD400294604A8FFF7ABFF20B90198224604A91E
:10BCE400FFF7B1FF22B070BD0E20FBE71020F9E78B
:10BCF4000620F7E70920F5E7082938BF70474160B7
:10BD040043F24071C2F200010860002101607047F3
:10BD140000B5042A8E4609D350F8043B5EF804CBE0
:10BD2400634505D1043A032A7146F5D89AB10368EC
:10BD3400086880EA030191FAA1F1B1FA81F1B2EB4A
:10BD4400D10F08D901F0380123FA01F2C840C0B27A
:10BD5400D1B2081A00BD002000BD00005AB38446C9
:10BD640090EA01039B071FD1830707D011F8013B19
:10BD740000F8013B013AF7D11CE08446203A09D38C
:10BD84002DE9F007B1E8F807A0E8F807203AF9D25E
:10BD9400BDE8F0071C3205D451F8043B40F8043BDD
:10BDA400043AF9D2043205D011F8013B00F8013B02
:10BDB400013AF9D16046704700220B0011001A00C5
:10BDC40084465AB3830704D000F8011B013AF9D121
:10BDD40024E0C9B241EA012141EA0141202A11D3F8
:10BDE400203A2DE9F0030B460C460D460E460F464D
:10BDF40088468946A0E8FA03203AFBD2BDE8F0035E
:10BE040020320BD0042A05D340F8041B043A05D091
:10BE1400042AF9D200F8011B013AFBD160467047AD
:10BE24008B1802448B4200D1704713F8010D02F8BD
:10BE3400010DF7E710B5013A52B2130601D50020FF
:10BE440010BD50F8224051F822309C4205D802F12E
:10BE5400FF32F2D24FF0FF30F2E70120F0E70000AA
:10BE6400000000000000000000000000C3F108030F
:10BE7400DB0070B501330446002003A55B1920C91B
:10BE840040CAAD1920C4184720C940CA754120C40E
:10BE940020C940CA754120C420C940CA754120C484
:10BEA40020C940CA754120C420C940CA754120C474
:10BEB40020C940CA754120C420C940CA754120C464
:10BEC400404170BD0000000000000000C3F1080301
:10BED400DB0070B50133002403A500BF5B1920C942
:10BEE40040CAAD1B20C0184720C940CAB54120C074
:10BEF40020C940CAB54120C020C940CAB54120C0AC
:10BF040020C940CAB54120C020C940CAB54120C09B
:10BF140020C940CAB54120C020C940CAB54120C08B
:10BF24006441B4FA84F0400970BD00BF2DE9F04FBC
:10BF340008B4F8CA04B451F8042BA3FB028940F8EE
:10BF4400048B4FF0000AE4FB629A4FF0000BE5FB10
:10BF540062AB4FF0000CE6FB62BC4FF0000EE7FB57
:10BF640062CE51F8042B4FF00008E3FB628940F8DD
:10BF7400048BE4FB629AE5FB62ABE6FB62BCE7FB85
:10BF840062CE51F8042B4FF00008E3FB628940F8BD
:10BF9400048BE4FB629AE5FB62ABE6FB62BCE7FB65
:10BFA40062CE51F8042B4FF00008E3FB628940F89D
:10BFB400048BE4FB629AE5FB62ABE6FB62BCE7FB45
:10BFC40062CE51F8042B4FF00008E3FB628940F87D
:10BFD400048BE4FB629AE5FB62ABE6FB62BCE7FB25
:10BFE40062CE40F8049B40F804AB40F804BB40F830
:10BFF40004CB40F804EB0CBC052B00F01E810C684C
:10C00400A0F11400A1F11401A2F1140252F804EBFE
:10C014004FF0000550F8046BE4FB6E5652F804EB45
:10C0240050F8047BE4FB6E6752F804EB50F8048B81
:10C03400E4FB6E7852F804EB50F8049BE4FB6E8941
:10C0440052F804EB50F804ABE4FB6E9AA0F1140030
:10C0540052F8044B51F804EB4FF0000CE4FB6EC5AE
:10C0640040F804CB51F804EBE4FB6E5640F8045B53
:10C0740051F804EBE4FB6E6740F8046B51F804EBF1
:10C08400E4FB6E7840F8047B51F804EBE4FB6E8922
:10C0940040F8048B51F804EBE4FB6E9AA0E8000628
:10C0A400062B00F0CA800C68A0F11800A1F1180159
:10C0B400A2F1180252F804EB4FF0000550F8046B9B
:10C0C400E4FB6E5652F804EB50F8047BE4FB6E6715
:10C0D40052F804EB50F8048BE4FB6E7852F804EB4E
:10C0E40050F8049BE4FB6E8952F804EB50F804AB5F
:10C0F400E4FB6E9A52F804EB50F804BBE4FB6EAB1D
:10C10400A0F1180052F8044B51F804EB4FF0000C66
:10C11400E4FB6EC540F804CB51F804EBE4FB6E5627
:10C1240040F8045B51F804EBE4FB6E6740F8046BE1
:10C1340051F804EBE4FB6E7840F8047B51F804EB0F
:10C14400E4FB6E8940F8048B51F804EBE4FB6E9A2F
:10C1540040F8049B51F804EBE4FB6EABA0E8000C40
:10C16400072B6AD008B40C68A0F11C00A1F11C01D3
:10C17400A2F11C0252F804EB4FF0000550F8046BD6
:10C18400E4FB6E5652F804EB50F8047BE4FB6E6754
:10C1940052F804EB50F8048BE4FB6E7852F804EB8D
:10C1A40050F8049BE4FB6E8952F804EB50F804AB9E
:10C1B400E4FB6E9A52F804EB50F804BBE4FB6EAB5C
:10C1C40052F804EB50F804CBE4FB6EBCA0F11C0065
:10C1D40052F8044B51F804EB4FF00003E4FB6E35C6
:10C1E40040F8043B51F804EBE4FB6E5640F8045B62
:10C1F40051F804EBE4FB6E6740F8046B51F804EB70
:10C20400E4FB6E7840F8047B51F804EBE4FB6E89A0
:10C2140040F8048B51F804EBE4FB6E9A40F8049B5D
:10C2240051F804EBE4FB6EAB40F804AB51F804EBBB
:10C23400E4FB6EBCA0E8001808BCBDE8F08F2DE953
:10C24400F04FB1E8005E06B4AAFB09124FF00003F8
:10C25400EBFB69234FF00004ECFB69344FF000055D
:10C26400EEFB69454FF00006EBFB6A63ECFB6A34B6
:10C274004918524176415B41A9FB09784FF0000906
:10C2840049F1000918EB0108A0E88001AAFB0A782B
:10C29400574158EB0608A0E88001EEFB6A454FF0D1
:10C2A400000A4AF1000A4FF00001ECFB6B14EEFBAC
:10C2B4006B454FF00002EEFB6C255FEA59094941DA
:10C2C400644152416D4149F10009EBFB6B3A1AEBB1
:10C2D400010AA0E80804ACFB0C6A66415AEB020AA6
:10C2E400A0E84004AEFB0E6A6E415AEB090AA0E8CE
:10C2F400400406BC052A00F0E680A0F11400A1F178
:10C304001401B1E8E043A5FB0E344FF00005E6FB51
:10C314006E454FF00006E7FB6E564FF00007E8FB52
:10C324006E674FF00008E9FB6E784FF00009DB18E8
:10C3340064416D4176417F4158EB080859F1000989
:10C3440050F804CB13EB0C0350F804CB54EB0C045F
:10C3540050F804CB55EB0C0550F804CB56EB0C0607
:10C3640050F804CB57EB0C0758F1000859F10009B9
:10C37400A0F11400EEFB0E89A0E8F803062A00F0F1
:10C38400A280A0F11800A1F11801B1E8E047A5FBD3
:10C394000E344FF00005E6FB6E454FF00006E7FB58
:10C3A4006E564FF00007E8FB6E674FF00008E9FB9C
:10C3B4006E784FF00009EAFB6E894FF0000ADB1833
:10C3C40064416D4176417F4158EB080859EB0909F6
:10C3D4005AF1000A50F804CB13EB0C0350F804CBC9
:10C3E40054EB0C0450F804CB55EB0C0550F804CB7B
:10C3F40056EB0C0650F804CB57EB0C0750F804CB63
:10C4040058EB0C0859F100095AF1000AA0F1180080
:10C41400EEFB0E9AA0E8F807072A54D0A0F11C00FE
:10C42400A1F11C01B1E8E04FA5FB0E344FF000056B
:10C43400E6FB6E454FF00006E7FB6E564FF0000733
:10C44400E8FB6E674FF00008E9FB6E784FF00009D7
:10C45400EAFB6E894FF0000AEBFB6E9A4FF0000B7B
:10C46400DB1864416D4176417F4158EB080859EB74
:10C4740009095AEB0A0A5BF1000B50F804CB13EBE1
:10C484000C0350F804CB54EB0C0450F804CB55EBDC
:10C494000C0550F804CB56EB0C0650F804CB57EBC4
:10C4A4000C0750F804CB58EB0C0850F804CB59EBAC
:10C4B4000C095AF1000A5BF1000BA0F11C00EEFB21
:10C4C4000EABA0E8F80FBDE8F08F002310B51C46B2
:10C4D4005AB2914200DC10BD40F823400133F7E723
:10C4E4002DE9F0479846B3F90230894613F11F014C
:10C4F40048BF03F13E01DD1D48BF03F10E05EC10FA
:10C504004E11944275B228BF144629460746FFF7D8
:10C51400DCFF22464946FFF783FCB8F90230B3EB4F
:10C52400C40F4FEAC40220D2D21A07EB86010020BE
:10C53400C2F120068F420FD308F124082A46394657
:10C544004046FFF777FC01280FD02B464246384679
:10C55400BDE8F047FFF7BABC51F8044D24FA02F3E2
:10C5640003430B6004FA06F0E4E7BDE8F08710B576
:10C5740000231A465CB2A14203DCB2FA82F04009FD
:10C5840010BD50F8234001332243F3E74A1101233D
:10C5940050F8220001F01F0103FA01F1084070472E
:10C5A400013910B549B2041D0A06CBB204D40139CD
:10C5B40054F82120002AF7D001335BB273B103F1A0
:10C5C4008042013A50F82220002022B9013B00EBBE
:10C5D400431318B210BD52080130F6E71846F9E7C4
:10C5E40010B500235CB2A24200DC10BD51F8234018
:10C5F40040F823400133F5E72DE9F042082288B0E2
:10C604000C468146FFF7ECFFCB6A03930B6B049354
:10C614004B6B05938B6B0693CB6B07930027082317
:10C624006A4669466846CDE901770097FFF71EFC24
:10C63400082305466A4649464846FFF717FC236B1C
:10C644000393636B0493A36B0593E36B0544CDE9F8
:10C6540006376A46082369466846FFF707FC08233D
:10C6640005446A4649464846FFF700FC236A00939E
:10C67400636A0193A36A0293A36B0693E36B079324
:10C68400054408236A4649464846CDE9047703979A
:10C69400FFF7ECFB636A0093A36AA26B0193E36A5E
:10C6A40002930492636BE26B0393CDE90523236A3F
:10C6B40007932E1808236A4649464846FFF7D6FBD7
:10C6C400E36A0093236B0193636B0293236A0693DB
:10C6D400A36A0793351808236A4649464846CDE9B4
:10C6E40004770397FFF7F2FB236B0093636B0193CB
:10C6F400A36B0293E36B0393636A0693E36A079362
:10C704002E1A08236A4649464846CDE90477FFF7BE
:10C71400DDFB636B0093A36B0193E36B0293236ACA
:10C724000393636A0493A36ACDE90537236B0793E4
:10C73400361A08236A4649464846FFF7C7FBA36BE7
:10C744000093E36BCDE90137636A0393A36A04930F
:10C75400E36ACDE90537636B0793361A08236A4603
:10C7640049464846FFF7B2FB361A0E4C0FD436B989
:10C77400082249462046FFF75DFB01280FD0082315
:10C78400224649464846FFF7A1FB361AEFE708233D
:10C79400224649464846FFF769FB3618F7D408B0E5
:10C7A400BDE8F082FCD3070030B5013A52B2002351
:10C7B400140603D5B3FA83F0400930BD50F8224083
:10C7C40051F822506C402343013AF1E700EB810118
:10C7D4000023884200D3704751F8042D43EA5203E2
:10C7E4000B60D307F5E770B5036813F0010605463F
:10C7F400144605D013460A460146FFF737FB0646A2
:10C8040021462846FFF7E2FF46B104F18042013A8F
:10C8140055F8223043F0004345F8223070BD37B557
:10C824001D469DF9183001930446FFF71FFB019B39
:10C8340038B91A4621462846FFF7FCFA0128019B1D
:10C8440007D02A462146204603B0BDE83040FFF712
:10C854003DBB03B030BD37B51D469DF9183001937B
:10C864000446FFF733FB019B38B12A462146204694
:10C8740003B0BDE83040FFF7F9BA03B030BD2DE98D
:10C88400F04FA5B01D4614ABCDE9023180462946D0
:10C8940010461646FFF784FEC0EB851004B2002C48
:10C8A4002146B8BF04F11F01634241F3471103F06D
:10C8B4001F0304A804F01F0758BF5F42FFF705FEDB
:10C8C400002F08B22BDD04AB002203EB8001C7F17B
:10C8D400200E13469D4217D86B00019304AB03EB63
:10C8E40085096F1E24AB012603EB8707002C54DA5D
:10C8F40024AB03EB86062A4656F8881C4046FFF70D
:10C904006FFE25B0BDE8F08F56F823C00CFA07F08F
:10C91400024341F8042B01332CFA0EF2DAE704AB9C
:10C924002A46314603EB8000FFF75AFED4E70FFA9C
:10C9340082FE5AF8883C53F82EB024AB03EB8202F3
:10C94400013052F8803C0B44BBEB030334BF01229B
:10C9540000229B4518BF11465CF8882C42F82E3003
:10C96400019B42B29A42E2DB731A5E42294604A852
:10C974005E41FFF72BFF24AB03EB8503294653F8F5
:10C98400802C57F8803C484643EAC273013C47F880
:10C99400803C24B2FFF71AFFA8E724AB0020C6F1BD
:10C9A400010C014603EB860A03EB8C0CD8E730B587
:10C9B40091B004461D4668469DF95030FFF7B6FA1B
:10C9C4002A4669462046FFF75AFF11B030BD30B5FC
:10C9D4001C4691B0054693F900306846FFF7A6FA65
:10C9E400D4F8AC3069462846984711B030BD30B50C
:10C9F400144691B092F9002005466846FFF71FFCE3
:10CA0400D4F8AC3069462846984711B030BD2DE9BA
:10CA1400F04115468AB004460E461C22002103A8A4
:10CA2400FFF7CEF92F1D95F9008003232A463146DE
:10CA340020460293FFF7DBFF3B4602AA214620462D
:10CA4400CDF80080FFF707FF2B46324621462046EB
:10CA5400FFF7BDFFCDF800803B4605F18402214677
:10CA64002046FFF7DCFE0AB0BDE8F0812DE9F0476F
:10CA740093F9006092B00446894610463146154643
:10CA84001F46FFF774FD002840F091803A4649465E
:10CA940002A8FFF7ACFF3B4602AA21460AA8FFF70B
:10CAA40096FF02A908463A46FFF7A1FF3B462A46ED
:10CAB40049464846FFF78BFF07F104083A462946E2
:10CAC4002846FFF794FF43462A462146204600960F
:10CAD400FFF7A5FE43462A46294628460096FFF757
:10CAE4009EFE43462A46214628460096FFF7B3FE9B
:10CAF4003B462A4621462046FFF769FF4346224625
:10CB0400214628460096FFF78AFE434600962A46A9
:10CB140021462046FFF783FE2368DB074AD53346C8
:10CB2400424621462046FFF7A1F931468246204677
:10CB3400FFF74CFE06F18043013B54F8232042EA00
:10CB4400CA7244F823203A4621462846FFF74FFF8D
:10CB540043460AAA294628460096FFF77CFE434628
:10CB64000AAA294628460096FFF775FE0AA9084630
:10CB740043462A460096FFF76EFE3B460AAA214624
:10CB84002046FFF724FF02AA43461046214600969A
:10CB9400FFF761FE324629462046FFF721FD49464C
:10CBA4002846FFF71DFD02A94846FFF719FD12B0FC
:10CBB400BDE8F08731462046FFF708FEC3E72DE9BC
:10CBC400F04F8BB0DDE914B94D46144615F9046BEA
:10CBD40000961F4680468A462B460246214602A8F6
:10CBE400FFF739FE02A94A460846FFF700FF4B4605
:10CBF40002AA41464046FFF7EAFE4B4602AA2146F6
:10CC04002046FFF7E4FE2B46524639463846009646
:10CC1400FFF721FE4A46394602A8FFF7E8FE02A9BB
:10CC24002B46424608460096FFF715FE02A92B46FE
:10CC3400224608460096FFF70EFE2B464246214642
:10CC440020460096FFF707FE4B46224651465046C3
:10CC5400FFF7BDFE2B4602AA414658460096FFF751
:10CC6400FAFD4B465A4639463846FFF7B0FE2B4686
:10CC74005246394638460096FFF7EDFD324602A982
:10CC84002046FFF7ADFC0BB0BDE8F08F70B514463D
:10CC94008AB006460D461A46214602A80193FFF7BC
:10CCA400A6FE019B02AA31463046FFF790FE02A978
:10CCB400019B22460846FFF78AFE019B02AA2946E9
:10CCC4002846FFF784FE0AB070BDF0B50F46A1B048
:10CCD40006461946384615461C46FFF748FC20B15F
:10CCE4003046FFF7F2FB21B0F0BD224639466846D4
:10CCF400FFF776FC294608A8FFF772FC10A8214626
:10CD0400FFF7E3FB012318A81093FFF7DEFB22468D
:10CD140008A96846FFF78EF828B9224610A93046BC
:10CD2400FFF75EFCDFE7009BDA0709D4214668467B
:10CD3400FFF74CFD2246294610A8FFF754FDE6E70D
:10CD4400089BDB0707D4214608A8FFF73FFD2246CE
:10CD5400294618A8F1E7002823461CDD08AA6946DD
:10CD64006846FFF7B3F821466846FFF72FFD2246D1
:10CD740018A910A8FFF75EF8002805DA10A92346C1
:10CD84002A460846FFF772F810A9234618AA08464F
:10CD9400FFF79CF8CEE708A96A460846FFF796F81D
:10CDA400214608A8FFF712FD224610A918A8FFF78C
:10CDB40041F8002805DA18A923462A460846FFF751
:10CDC40055F818A9234610AA0846FFF77FF8BEE7CE
:10CDD40000487047F8D307002DE9F04F2DED028B82
:10CDE400EDB00E46DDF8E08105901946B8F9023041
:10CDF40098F9004013F11F0948BF03F13E0949F3B4
:10CE0400471909F1FF3B24AB002543F82B506CABC9
:10CE140003EB8B034CA8924698F9012043F8805CFD
:10CE240043F8605CFEF7FCFF98F9012054A8114414
:10CE3400FEF7F6FF21464CA8FFF799FB07460028AA
:10CE440040F0298154A8FFF792FB0390002840F09A
:10CE5400248108F124034A464CA9184608EE103AE6
:10CE6400FEF7E8FF012840F01A8118EE100A4A463E
:10CE740054A9FEF7DFFF0128069040F010811CAD95
:10CE84000CAF18EE102A4B4654A92846FFF71DFF95
:10CE9400039B47F82B305246314638464346FFF74A
:10CEA4001FFB3946384618EE103A2A46CDF8009052
:10CEB400FFF77DFD0DF5B87B18EE103A2A464CA914
:10CEC40014A8CDF80090FFF772FD22465846059944
:10CED400FFF786FBA3000793059B0BEB840A03EB88
:10CEE40084015046FFF77CFB34AE08F14403194635
:10CEF40030460493FFF774FB049BA10059183CA827
:10CF0400FFF76EFB08F1040308EE903A32465946E7
:10CF140028460094FFF79FFC53465A463046CDE915
:10CF240000683CA9FFF74BFE18EE902A23462946D9
:10CF34002846FFF7CAFE2A46514658464346FFF79D
:10CF4400A5FE039B0893049B0993059B4946384619
:10CF5400CDE90A3BFFF724FB4946834614A8FFF7B3
:10CF64001FFB5845B8BF584686B2711E09B23846F1
:10CF74000391FFF70BFB0399071E14A818BF0127A1
:10CF8400FFF704FB002814BF022000200DF1200A43
:10CF9400074322465AF8271024A8FFF721FB0DF176
:10CFA400B00BA30019445846FFF71AFB2146284644
:10CFB400FFF78BFA023E069B2B6036B20DF1900A06
:10CFC400002E24DA18EE902A234629462846FFF735
:10CFD4007CFE43462A4659465046FFF757FE18EE54
:10CFE400100A4A465146FEF725FF012805D018EEDF
:10CFF400102A4B465046FEF769FF22464CA950467C
:10D00400FFF7D2FB6DB0BDEC028BBDE8F08F434659
:10D014002A46D8F8A47059465046B84731460CA859
:10D02400FFF7B4FA3146071E14A818BF0127FFF70B
:10D03400ADFA002814BF02200020074308AB53F8C0
:10D04400271029B334AF22463846FFF7C9FA079BA5
:10D054003CA81944FFF7C4FA43462A463CA938467B
:10D06400FFF714FE18EE903A3A46514644A800944D
:10D07400FFF7F1FB5B4652463CA93846CDE9007800
:10D08400FFF79DFD434644AA29462846FFF79FFC27
:10D09400013E36B294E72846B4E73846B2E703982F
:02D0A400B0E7F3
:08D0A80081B7070015B807006D
:08D0B000419A07000000000096
:08D0B800BD9B07000000000011
:08D0C00039BB0700000000006D
:10D0C800000000000000000035A607000010000066
:04D0D800000008004C
:10D0DC001E1F160E011704FCA000000034D107001F
:10D0EC00021704FCE400000004D10700000000005B
:10D0FC00000000000000000001070000A00000007C
:10D10C0034D1070002010000010000000000000003
:10D11C0003050000410000000000000000000000BA
:10D12C000000000000000000011101FF01000000E0
:10D13C0000000000021702FE940000007CD10700E2
:10D14C00031704FC0400000064D107000000000079
:10D15C0000000000000000000101000004000000BD
:10D16C0000000000000000000000000000000000B3
:10D17C00011104FC0400000000000000021104FC7A
:10D18C000400000000000000032104FC0410000057
:10D19C0000000000041101FF01000000000000006D
:10D1AC00051102FE0400000000000000061104FC42
:10D1BC000400000000000000071104FC0400000043
:10D1CC0000000000081701FF22000000F4D1070046
:10D1DC00091001FF0100000018D207000000000038
:10D1EC000000000000000000010100000100000030
:10D1FC0000000000020500002100000000000000FB
:10D20C000000000000000000000000000000000012
:10D21C00F3CBC25E96222770707F5E77BEE564E624
:10D22C00398A1B2B446B10D06D12E8759F33125D3D
:10D23C0007302FCD8AA6E0A0C501826B6A904DA164
:10D24C003C1DED094688EBB3AC3C70F43881FD24F1
:10D25C000405000500000000C82C00200D950700F7
:10D26C0061950700319507006D950700C99507007A
:10D27C00199507001D950700219507000010000067
:10D28C000400000001000000982F8A42914437717D
:10D29C00CFFBC0B5A5DBB5E95BC25639F111F1592D
:10D2AC00A4823F92D55E1CAB98AA07D8015B83126F
:10D2BC00BE853124C37D0C55745DBE72FEB1DE801B
:10D2CC00A706DC9B74F19BC1C1699BE48647BEEF4A
:10D2DC00C69DC10FCCA10C246F2CE92DAA84744AD5
:10D2EC00DCA9B05CDA88F97652513E986DC631A84B
:10D2FC00C82703B0C77F59BFF30BE0C64791A7D52A
:10D30C005163CA0667292914850AB72738211B2EB1
:10D31C00FC6D2C4D130D385354730A65BB0A6A7699
:10D32C002EC9C281852C7292A1E8BFA24B661AA8A5
:10D33C00708B4BC2A3516CC719E892D1240699D6B5
:10D34C0085350EF470A06A1016C1A419086C371E2E
:10D35C004C774827B5BCB034B30C1C394AAAD84E0C
:10D36C004FCA9C5BF36F2E68EE828F746F63A57847
:10D37C001478C8840802C78CFAFFBE90EB6C50A4DA
:10D38C00F7A3F9BEF27871C66C3300205C3600202E
:10D39C006BAF07000FAF07004FB40700C1B4070015
:10D3AC00E1B407005FAE07001DAE0700EBB307004A
:10D3BC0000000000FFFFFFFFFFFFFFFFFFFFFFFF6D
:10D3CC00FFFFFFFF00000000000000000000D6017E
:10D3DC0007010000C0D00700C8D0070008000000FB
:10D3EC00B0D00700B8D007000800000008200001EA
:10D3FC00FFFFFFFFFFFFFFFFFFFFFFFF000000002D
:10D40C00000000000000000001000000FFFFFFFF13
:10D41C00512563FCC2CAB9F3849E17A7ADFAE6BCCA
:10D42C00FFFFFFFFFFFFFFFF00000000FFFFFFFFFC
:10D43C0096C298D84539A1F4A033EB2D817D0377A2
:10D44C00F240A463E5E6BCF847422CE1F2D1176B3D
:10D45C00F551BF376840B6CBCE5E316B5733CE2B10
:10D46C00169E0F7C4AEBE78E9B7F1AFEE242E34F3F
:10D47C004B60D2273E3CCE3BF6B053CCB0061D657C
:10D48C00BC86987655BDEBB3E7933AAAD835C65A05
:0CD49C0071CA070013CA0700FDC5070095
:10D4A80001000000402C002020000000602C00201B
:10D4B80020000000802C0020400000001CD2070043
:08D4C800400000000090D003B9
:020000020000FC
:020000041000EA
:041014000080070051
:0410180000E00700ED
:040000037000824DBA
:00000001FF
